S02300002E2E2F48414E636F6465725F453430375F5454415F47726F7570322E737265636D
S315080040007CD00020A1F90108000000000000000093
S315080040100000000000000000000000000000000092
S3150800402000000000000000000000000091C7010821
S3150800403000000000000000002DC801087DC8010826
S315080040400000000000000000000000000000000062
S315080040500000000000000000000000000000000052
S31508004060000000006DD501080000000000000000F7
S315080040700000000000000000000000000000000032
S31508004080000000000000000000000000B9BB0108A5
S3150800409071BB010895BB0108DDBB010800000000E3
S315080040A059D5010845D5010831D5010821D501089A
S315080040B00DD50108F9D40108E5D40108000000006F
S315080040C000000000000000000000000000000000E2
S315080040D00000000071DF010889DF0108A1DF01087F
S315080040E0000000000000000069E001080000000070
S315080040F0D1D40108BDD40108ADD4010800000000E0
S3150800410000000000D1DF01080000000000000000E8
S315080041100000000000000000000000000000000091
S31508004120000000000000000000000000D5DF0108C4
S31508004130000000009DD501080000000049BC0108E8
S3150800414001BC010825BC01086DBC010899E00108FD
S31508004150000000000000000000000000B9DF0108B0
S315080041600000000000000000000000000000000041
S315080041700000000000000000000000000000000031
S311080041800000000000000000EE11AA5527
S3150800C000000000000000000000000000000044409E
S3150800C0100000000000004640000000000000474005
S3150800C02000000000000048400000000000004940F1
S3150800C0300000000000004A400000000000005740D1
S3150800C04000000000000058400000000000005940B1
S3150800C05000000000008061400000000000C0614050
S3150800C06000000000000062400000000000806240FE
S3150800C07000000000008067400000000000006840E3
S3150800C08000000000008068400000000000006940D1
S3150800C09000000000008069400000000000006A40BF
S3150800C0A000000000000000000000000000004440FE
S3150800C0B00000000000004640000000000000474065
S3150800C0C00000000000004840000000000000564044
S3150800C0D000000000008056400000000000005740A5
S3150800C0E000000000008060400000000000C06040C2
S3150800C0F000000000000069400000000000406940A0
S3150800C1000000000000000000000000000000F03FF2
S3150800C110000000000000F03F000000000000F03FB3
S3150800C120000000000000F03F000000000000F03FA3
S3150800C1300000000000000000000000000000F03FC2
S3150800C140000000000000F03F0000000000000000B2
S3150800C150000000000000F03F000000000000F03F73
S3150800C160000000000000F03F000000000000000092
S3150800C170000000000000F03F000000000000F03F53
S3150800C180000000000000F03F000000000000F03F43
S3150800C190000000000000F03F000000000000F03F33
S3150800C1A00000000000000000000000000000F03F52
S3150800C1B0000000000000F03F000000000000F03F13
S3150800C1C00000000000000000000000000000F03F32
S3150800C1D0000000000000F03F000000000000000022
S3150800C1E0000000000000F03F000000000000F03FE3
S3150800C1F0000000000000F03F000000000000F03FD3
S3150800C2000000010101000100010100000001000118
S3150800C2100000000000006140000000000080694046
S3150800C22000000000000057400000000000004640E3
S3150800C23000000000000048400000000000004440E4
S3150800C2400000000000005640000000000000903F7B
S3150800C2500000000000005040000000000000C03F41
S3150800C2600000000000002040000000000000903F91
S3150800C27000000000000050400000000000004A4096
S3150800C2800000000000006A40000000000000464070
S3150800C2900000000000004840000000000000444084
S3150800C2A000000000008069400000000000005740C0
S3150800C2B00000000000004640000000000000614049
S3150800C2C00000000000004840000000000000444054
S3150800C2D0000000000000564000000000008060409A
S3150800C2E0000000000000903F0000000000005040E1
S3150800C2F0000000000000C03F0000000000002040D1
S3150800C300000000000000903F0000000000005040C0
S3150800C310000000000000694000000000008069403D
S3150800C3200000000000806A400000000000006A402B
S3150800C33000000000000046400000000000004840E1
S3150800C3400000000000004A400000000000005940BC
S3150800C3500000000000005840000000000080624015
S3150800C36000000000000062400000000000806840F5
S3150800C3700000000000006840000000000000444083
S3150800C38000000000008067400000000000005740E1
S3150800C3900000000000806140000000000000F03F3F
S3150800C3A0000000000000000001000100000100007C
S3150800C3B0010000000100000001000000010000006B
S3150800C3C00000000015000000150000001500000020
S3150800C3D01500000000000000010000000100000038
S3150800C3E00100000001000000000000001600000027
S3150800C3F016000000160000001600000000000000ED
S3150800C400010000000100000001000000010000001A
S3150800C41000000000150000001500000015000000CF
S3150800C42015000000000000000D0000000D000000CF
S3150800C4300D0000000D000000000000000C000000C8
S3150800C4400C0000000C0000000C00000000000000BA
S3150800C4500B0000000B0000000B0000000B000000A2
S3150800C46000000000010000000100000001000000BB
S3150800C47001000000000000006464640048414E6347
S3150800C4806F6465725F453430375F5454415F477255
S3150800C4906F7570325F736F66747761726549445F52
S3150800C4A076315F3232303532325F313931303137B9
S3150800C4B04170704374726C5461736B0048414E63EB
S3150800C4C06F6465725F453430375F5454415F477215
S3150800C4D06F7570322E6300002000000000140240C1
S3150800C4E008000900200000000014024010000E0099
S3150800C4F0200000000014024020000F002000000069
S3150800C500001402404000040020000000001402400D
S3150800C510800005002000000000140240000106000B
S3150800C520200000000014024000020700200000005E
S3150800C530001402400004080004000000000802403D
S3150800C54001000A00040000000008024004000C0074
S3150800C550414443636F6E76657273696F6E54617397
S3150800C5606B0000002E2E2F626C6F636B7365742F41
S3150800C5707274772F53544D33322F7372632F686555
S3150800C58061705F342E630000546D724370754C6F92
S3150800C5906164000049444C45000000002E2E2F62BD
S3150800C5A06C6F636B7365742F7274772F53544D33A6
S3150800C5B0322F7372632F7461736B732E63000000DE
S3150800C5C02E2E2F626C6F636B7365742F7274772FC0
S3150800C5D053544D33322F7372632F74696D657273BA
S3150800C5E02E630000546D72205376630043616E45D6
S3150800C5F076656E745461736B0000000043616E5477
S3150800C60072616E736D69745461736B002E2E2F629E
S3150800C6106C6F636B7365742F7274772F53544D3335
S3150800C620322F7372632F53544D33325F453430378C
S3150800C6302F63616E2E630000006400400000000254
S3150800C64008000000000C024001000000080000007D
S3150800C650000C024002000100091314151600000020
S3150800C66000680040000000040200000000040240C8
S3150800C67020000500020000000004024040000600F9
S3150800C680093F404142000000010102010202020284
S3150800C690020302020402020303030403030503035D
S3150800C6A0060303050404060404070404080404072F
S3150800C6B00505080505080605080705080706080804
S3150800C6C00608080708080800457643686E6C3100B6
S3150800C6D0457643686E6C3200457643686E6C330067
S3150800C6E02E2E2F626C6F636B7365742F7274772F9F
S3150800C6F053544D33322F7372632F53544D33325F75
S3150800C700453430372F6D61632E6300002E2E2F625D
S3150800C7106C6F636B7365742F7274772F53544D3334
S3150800C720322F7372632F53544D33325F453430378B
S3150800C7302F706F72742E6300000001400100000024
S3150800C740020100001000000000100240000209006B
S3150800C750100000000010024000080B000004004012
S3150800C7600200000001020000010000000000024073
S3150800C77040000600020000000004024020000500F8
S3150800C7800008004004000000010200000800000044
S3150800C790000C024000100C0008000000000C0240CB
S3150800C7A000200D0000040140020000000203000002
S3150800C7B004000000000802404000060004000000D3
S3150800C7C00008024080000700000001400100000048
S3150800C7D002011900000000400100000001021C00CF
S3150800C7E0000400400200000001021D00000800408D
S3150800C7F00400000001021E000004014002000000BF
S3150800C80002012C000040014000000100020118004E
S3150800C81000440140000002000201190000480140DE
S3150800C8200000040002011A00001C004080000000FD
S3150800C83001022C00002000400001000001022D002A
S3150800C840040000000008024001000000200000006B
S3150800C85000140240400000002000000000140240BE
S3150800C86080000000200000000014024000010000C3
S3150800C8702000000000140240000200002000000012
S3150800C88000140240000400000200000000040240F8
S3150800C8908000000002000000000402404000000082
S3150800C8A01000000000100240040000001000000004
S3150800C8B000100240100000001000000000100240A6
S3150800C8C02000000010000000001002404000000098
S3150800C8D040000000001802408000000040000000F0
S3150800C8E00018024000010000400000000018024045
S3150800C8F00010000040000000001802400080000000
S3150800C90001000000000002401000000002000000C4
S3150800C9100004024020000000010000000000024060
S3150800C9204000000001000000000002402000000056
S3150800C93008000000000C024001000000080000008A
S3150800C940000C02400200000008000000000C024033
S3150800C9500400000008000000000C02400800000067
S3150800C96008000000000C024010000000080000004B
S3150800C970000C02402000000008000000000C0240E5
S3150800C9804000000008000000000C02408000000083
S3150800C99008000000000C024000010000080000002A
S3150800C9A0000C02400002000008000000000C0240D3
S3150800C9B00004000008000000000C02400008000007
S3150800C9C008000000000C02400010000008000000EB
S3150800C9D0000C02400020000008000000000C024085
S3150800C9E00040000008000000000C02400080000023
S3150800C9F010000000001002400100000010000000B6
S3150800CA000010024002000000100000000010024062
S3150800CA10080000001000000000100240800000001E
S3150800CA201000000000100240000100001000000085
S3150800CA300010024000020000100000000010024032
S3150800CA40000400001000000000100240000800006A
S3150800CA501000000000100240001000001000000046
S3150800CA6000100240002000001000000000100240E4
S3150800CA700040000010000000001002400080000086
S3150800CA802000000000140240010000002000000001
S3150800CA9000140240020000002000000000140240BA
S3150800CAA004000000200000000014024008000000F6
S3150800CAB020000000001402401000000020000000C2
S3150800CAC0001402402000000020000000001402406C
S3150800CAD000080000200000000014024000100000BA
S3150800CAE02000000000140240002000002000000082
S3150800CAF0001402400040000020000000001402401C
S3150800CB0000800000400000000018024001000000FC
S3150800CB10400000000018024002000000400000002B
S3150800CB2000180240040000004000000000180240FF
S3150800CB300800000040000000001802401000000035
S3150800CB4040000000001802402000000040000000DD
S3150800CB500018024040000000400000000018024093
S3150800CB600002000040000000001802400004000017
S3150800CB7040000000001802400008000040000000C5
S3150800CB800018024000200000400000000018024083
S3150800CB900040000001000000000002400100000003
S3150800CBA00400000000080240010000002000000008
S3150800CBB0001402404000000020000000001402405B
S3150800CBC08000000020000000001402400001000060
S3150800CBD020000000001402400002000020000000AF
S3150800CBE00014024000040000020000000004024095
S3150800CBF0800000000200000000040240400000001F
S3150800CC0010000000001002400400000010000000A0
S3150800CC100010024010000000100000000010024042
S3150800CC202000000010000000001002404000000034
S3150800CC30400000000018024080000000400000008C
S3150800CC4000180240000100004000000000180240E1
S3150800CC50001000004000000000180240008000009C
S3150800CC600100000000000240100000000200000061
S3150800CC7000040240200000000100000000000240FD
S3150800CC8040000000010000000000024020000000F3
S3150800CC9008000000000C0240010000000800000027
S3150800CCA0000C02400200000008000000000C0240D0
S3150800CCB00400000008000000000C02400800000004
S3150800CCC008000000000C02401000000008000000E8
S3150800CCD0000C02402000000008000000000C024082
S3150800CCE04000000008000000000C02408000000020
S3150800CCF008000000000C02400001000008000000C7
S3150800CD00000C02400002000008000000000C02406F
S3150800CD100004000008000000000C024000080000A3
S3150800CD2008000000000C0240001000000800000087
S3150800CD30000C02400020000008000000000C024021
S3150800CD400040000008000000000C024000800000BF
S3150800CD501000000000100240010000001000000052
S3150800CD6000100240020000001000000000100240FF
S3150800CD7008000000100000000010024080000000BB
S3150800CD801000000000100240000100001000000022
S3150800CD9000100240000200001000000000100240CF
S3150800CDA00004000010000000001002400008000007
S3150800CDB010000000001002400010000010000000E3
S3150800CDC00010024000200000100000000010024081
S3150800CDD00040000010000000001002400080000023
S3150800CDE0200000000014024001000000200000009E
S3150800CDF00014024002000000200000000014024057
S3150800CE000400000020000000001402400800000092
S3150800CE10200000000014024010000000200000005E
S3150800CE200014024020000000200000000014024008
S3150800CE300008000020000000001402400010000056
S3150800CE40200000000014024000200000200000001E
S3150800CE5000140240004000002000000000140240B8
S3150800CE600080000040000000001802400100000099
S3150800CE7040000000001802400200000040000000C8
S3150800CE80001802400400000040000000001802409C
S3150800CE9008000000400000000018024010000000D2
S3150800CEA0400000000018024020000000400000007A
S3150800CEB00018024040000000400000000018024030
S3150800CEC000020000400000000018024000040000B4
S3150800CED04000000000180240000800004000000062
S3150800CEE00018024000200000400000000018024020
S3150800CEF00040000004000000000802400020000076
S3150800CF00000001400100000002011B000000004073
S3150800CF100100000001021C0000040040020000009D
S3150800CF2001021D00000800400400000001021E0066
S3150800CF30000401400200000002012E0000400140EA
S3150800CF400000010002011800004401400000020030
S3150800CF5002011900004801400000040002011A00FD
S3150800CF60001C00408000000001022C000020004048
S3150800CF700001000001022D00100000000010024010
S3150800CF800002000002000200010009001000000073
S3150800CF9000100240000800010400200001000B00F8
S3150800CFA010000000001002400020000208000002E5
S3150800CFB001000D00100000000010024000400003B0
S3150800CFC01000002001000E000100000000000240D1
S3150800CFD02000010002000200010005000100000017
S3150800CFE000000240400002000200020002000600A3
S3150800CFF00200000000040240200002010400200094
S3150800D0000200050008000000000C024000100300A2
S3150800D0100200020002000C0008000000000C02409A
S3150800D020002003010400200002000D000400000097
S3150800D0300008024040000400020002000300060047
S3150800D04004000000000802408000040104002000DB
S3150800D0500300070010000000001002402000050031
S3150800D0600200020003000500100000000010024044
S3150800D070400005010400200003000600200000000F
S3150800D08000140240400006000200020003000600E9
S3150800D0902000000000140240800007000200020081
S3150800D0A003000700200000000014024000010800E9
S3150800D0B002000200090008002000000000140240D7
S3150800D0C000020900020002000900090000100140E0
S3150800D0D010000000022500000200000000040240C3
S3150800D0E0400006000200000000040240800007001D
S3150800D0F0070000000044004000000200012600006E
S3150800D10008000000000C024020000500080000008E
S3150800D110000C0240400006000700000000480040DE
S3150800D120000004000127000008000000000C02406F
S3150800D1300001080008000000000C02400002090077
S3150800D140070000000014014020000000024700000C
S3150800D1500400000000080240400006000400000029
S3150800D16000080240800007000800000056435020CF
S3150800D170436F6E666967000056435020496E7465B2
S3150800D180726661636500000053544D6963726F658A
S3150800D1906C656374726F6E696373000053544D3324
S3150800D1A032205669727475616C20436F6D506F72C8
S3150800D1B07420696E204853206D6F64650000000076
S3150800D1C053544D3332205669727475616C20436F1F
S3150800D1D06D506F727420696E204653204D6F6465DA
S3150800D1E000000000303030303030303030353042DA
S3150800D1F000000000303030303030303030353043C9
S3150800D20000000000000001400100000002011B00B0
S3150800D210000000400100000001021C00000400405C
S3150800D2200200000001021D00000800400400000082
S3150800D23001021E00000401400200000002012E0047
S3150800D24000400140000001000201180000440140AE
S3150800D2500000020002011900004801400000040015
S3150800D26002011A00001C00408000000001022C0088
S3150800D270002000400001000001022D0010000000FF
S3150800D280001002400002000002000200010009002E
S3150800D29010000000001002400008000104002000F1
S3150800D2A001000B00100000000010024000200002E0
S3150800D2B00800000201000D001000000000100240E6
S3150800D2C0004000031000002001000E0001000000CD
S3150800D2D000000240200001000200020001000500D3
S3150800D2E001000000000002404000020002000200A7
S3150800D2F002000600020000000004024020000201AD
S3150800D300040020000200050008000000000C02408E
S3150800D310001003000200020002000C0008000000D2
S3150800D320000C0240002003010400200002000D004A
S3150800D3300400000000080240400004000200020049
S3150800D34003000600040000000008024080000401F3
S3150800D350040020000300070010000000001002402F
S3150800D360200005000200020003000500100000006E
S3150800D37000100240400005010400200003000600DA
S3150800D38020000000001402404000060002000200CF
S3150800D3900300060020000000001402408000070079
S3150800D3A002000200030007002000000000140240EB
S3150800D3B00001080002000200090008002000000021
S3150800D3C000140240000209000200020009000900D8
S3150800D3D02E2E2F626C6F636B7365742F7274772FA2
S3150800D3E053544D33322F7372632F71756575652EDD
S3150800D3F0630000000404040008D4000810D40008E0
S3150800D40018D4000807070700457643686E6C310094
S3150800D410457643686E6C3200457643686E6C330019
S3150800D42050505000666D6F64000000000000000058
S3150800D430000000000000000000000000000000805E
S3090800D4404300000097
S315080100000B78FF2B00D070474B78002BFBD109F0FA
S315080100103FBF00BF08B5012009F046FA034A40F27E
S3150801002067610020BDE808400BF088BF01000108A0
S31508010030002009F0BDB800BF704700BF2DE9F047A1
S31508010040DDF820E0099E9EF800C004460D4692465A
S315080100501F46BCF1000F02D101238EF8003030880B
S3150801006012F03EF922462B468046894612F006FCD6
S31508010070E0B10E9A3B6813600D9A7B6813600C9A7F
S31508010080BB7A1370109A3B7A13700B9AFB7A13702A
S315080100900F9A7B7A13700A9A002313605360119A98
S315080100A01370308812F01CF98046894642464B4641
S315080100B02046294612F0ECFB68B10B9B1B78D3B995
S315080100C001238AF800300C9B1B787BB901238AF837
S315080100D00130BDE8F087002642464B4620462946B0
S315080100E08AF8006012F0D4FB0028ECD100238AF8C4
S315080100F00130BDE8F08700238AF800300C9B1B7895
S31508010100002BF3D1E2E700BF2DE9F04F83B0164685
S315080101101F4682468B4611F0FFFD00220023044646
S315080101200D4612F0ABFBD8BB8046002200232046C1
S3150801013029465FFA88F812F0A1FB50B930463946CC
S3150801014011F062FD02460B463046394612F0BEFBF7
S3150801015090BBB8F1000F5FD15046594600220023E3
S315080101604FF0010912F094FB20B300230022304618
S31508010170394612F08DFB4FF00103A0B15FFA89F9F8
S31508010180DBB2994507D02046294632463B4611F04F
S315080101905BFF04460D462046294603B0BDE8F08FAD
S315080101A04FF00108C1E703465FFA89F9DBB29945C1
S315080101B0E9D1F0E7C146D8E732463B4650465946AB
S315080101C012F01EFA21F000490022194B49468046D1
S315080101D011F03AFF11F018FD02460B464046494612
S315080101E011F030FF0B46024623F0004340460092C9
S315080101F0019300220F4B494612F0D8F802460B46E6
S31508010200DDE9000112F04EFB4FF0010858B15FFA23
S3150801021088F8B8F1000F9FD000240025204629460A
S3150801022003B0BDE8F08F80465FFA88F8F1E700BFB2
S315080102300000E03F0000B03C2DE9F0410999089C17
S3150801024091F800E0DDF82880054616461F46BEF1FE
S31508010250000F01D101230B702B785B00DBB25A0921
S3150801026007EE902AB8EEE77AF7EE007AB4EEE77A67
S31508010270F1EE10FAA372227307DDD8E90001002214
S315080102801B4B11F0E1FEC8E900012878C00960732B
S315080102902B781B01DBB24FEA1318637284F80B80C3
S315080102A012F01EF832463B4612F0E8FA50B14046C3
S315080102B012F016F8DDE9062312F0E0FA4FF0010311
S315080102C098B1D8B220726B782370AB786370EB78EB
S315080102D0A3702B79E3706B792371AB796371EB7931
S315080102E0A3710023E371BDE8F0810346E9E700BF86
S315080102F00000F03F2DE9F0410999089C91F800E0CA
S31508010300DDF82880054616461F46BEF1000F01D1C5
S3150801031001230B702B785B00DBB25A0907EE902A92
S31508010320B8EEE77AF7EE007AB4EEE77AF1EE10FA6C
S31508010330A372227307DDD8E9000100221B4B11F0D5
S3150801034083FEC8E900012878C00960732B781B0170
S31508010350DBB24FEA1318637284F80B8011F0C0FF01
S3150801036032463B4612F08AFA50B1404611F0B8FFC0
S31508010370DDE9062312F082FA4FF0010398B1D8B2EB
S3150801038020726B782370AB786370EB78A3702B7946
S31508010390E3706B792371AB796371EB79A3710023F0
S315080103A0E371BDE8F0810346E9E700BF0000F03FCD
S315080103B02DE9F0410799069C91F800E0DDF82080C7
S315080103C0054616461F46BEF1000F01D101230B70E3
S315080103D02B785B00DBB25A0907EE902AB8EEE77A6A
S315080103E0F7EE007AB4EEE77AF1EE10FAA372227309
S315080103F007DDD8E900010022154B11F025FEC8E9F1
S3150801040000016B782370AB786370EB78A3702B7956
S31508010410E3706B792371AB796371EB79A37100236F
S31508010420E3712B781B01DBB218096372E07211F0D4
S3150801043057FF3B46324612F021FA4FF0010300B945
S31508010440034623722B78DB096373BDE8F08100BF8D
S315080104500000F03F2DE9F0410799069C91F800E06C
S31508010460DDF82080054616461F46BEF1000F01D16C
S3150801047001230B702B785B00DBB25A0907EE902A31
S31508010480B8EEE77AF7EE007AB4EEE77AF1EE10FA0B
S31508010490A372227307DDD8E900010022154B11F07A
S315080104A0D3FDC8E900016B782370AB786370EB78EC
S315080104B0A3702B79E3706B792371AB796371EB794F
S315080104C0A3710023E3712B781B01DBB21809637250
S315080104D0E07211F005FF3B46324612F0CFF94FF0B4
S315080104E0010300B9034623722B78DB096373BDE860
S315080104F0F08100BF0000F03F2DE9F04F89B00746B3
S3150801050018999DF8488091F800E09DF84C909DF85F
S3150801051050A09DF85460169D1A9CBEF1000F01D19A
S3150801052001200870DFF830E110461946DEE900239C
S3150801053011F08AFDCDE90001384611F0C1FE00220D
S31508010540434BCDE9020111F07FFDDDE9002311F0EE
S3150801055079FD00220023CDE9060112F08FF9002862
S3150801056041D01D9B18781C9BC0015FFA80FB85F85A
S3150801057001B0D3E9000112F0F1F90001C7B2199BE4
S31508010580AF70D3E9000112F0E9F938445844179BD2
S31508010590207084F8018084F8029084F803A02671FB
S315080105A06671A671E6711B9A1B681360DDE9002363
S315080105B0DDE9020111F046FD002200238046894645
S315080105C012F05CF90446002839D1224BD3E90067B9
S315080105D0002200233046394612F050F9E8B12C7052
S315080105E009B0BDE8F08F1B4B93ED007B0022002379
S315080105F051EC170B8DED047B12F040F90028D5D18B
S31508010600DDE90423DDE90601FFF77EFD002200236B
S3150801061012F034F90028C9D0A3E732463B464046D2
S315080106204946FFF771FD0022002312F027F94FF022
S31508010630010448B1E4B22C7009B0BDE8F08F012479
S315080106402C7009B0BDE8F08F0446E4B2F3E700BFA9
S315080106500000F03F38000020500000202DE9F04F3F
S3150801066089B0074618999DF8488091F800E09DF8E9
S315080106704C909DF850A09DF85460169D1A9CBEF1A9
S31508010680000F01D101200870DFF830E11046194644
S31508010690DEE9002311F0D8FCCDE90001384611F056
S315080106A00FFE0022434BCDE9020111F0CDFCDDE935
S315080106B0002311F0C7FC00220023CDE9060112F040
S315080106C0DDF8002841D01D9B18781C9BC0015FFAF4
S315080106D080FB85F801B0D3E9000112F03FF900016A
S315080106E0C7B2199BAF70D3E9000112F037F9384444
S315080106F05844179B207084F8018084F8029084F886
S3150801070003A026716671A671E6711B9A1B681360B0
S31508010710DDE90023DDE9020111F094FC0022002342
S315080107208046894612F0AAF80446002839D1224B98
S31508010730D3E90067002200233046394612F09EF8B5
S31508010740E8B12C7009B0BDE8F08F1B4B93ED007B27
S315080107500022002351EC170B8DED047B12F08EF865
S315080107600028D5D1DDE90423DDE90601FFF7CCFC34
S315080107700022002312F082F80028C9D0A3E73246E6
S315080107803B4640464946FFF7BFFC0022002312F0CC
S3150801079075F84FF0010448B1E4B22C7009B0BDE810
S315080107A0F08F01242C7009B0BDE8F08F0446E4B23D
S315080107B0F3E700BF0000F03F40000020580000208A
S315080107C02DE9F0410799069C91F800E0DDF82080B3
S315080107D0054616461F46BEF1000F01D101230B70CF
S315080107E02B785B00DBB25A0907EE902AB8EEE77A56
S315080107F0F7EE007AB4EEE77AF1EE10FAA3722273F5
S3150801080007DDD8E900010022154B11F01DFCC8E9E6
S3150801081000016B782370AB786370EB78A3702B7942
S31508010820E3706B792371AB796371EB79A37100235B
S31508010830E3712878C009607311F052FD3B463246D0
S3150801084012F01CF84FF0010300B9034623722B7806
S315080108501B01DBB21A096372E272BDE8F08100BFBF
S315080108600000F03F2DE9F0410799069C91F800E058
S31508010870DDF82080054616461F46BEF1000F01D158
S3150801088001230B702B785B00DBB25A0907EE902A1D
S31508010890B8EEE77AF7EE007AB4EEE77AF1EE10FAF7
S315080108A0A372227307DDD8E900010022154B11F066
S315080108B0CBFBC8E900016B782370AB786370EB78E2
S315080108C0A3702B79E3706B792371AB796371EB793B
S315080108D0A3710023E3712878C009607311F000FD44
S315080108E03B46324611F0CAFF4FF0010300B90346F1
S315080108F023722B781B01DBB21A096372E272BDE817
S31508010900F08100BF0000F03F2DE9F04F83B00C469F
S315080109100E9FDDF8348099460546324BD7E900012A
S315080109201646002211F090FB0123C7E9000189F858
S31508010930003023682C4A0C99013313602360D8F8D8
S31508010940003007EE903AB8EE677AF7EE007AB4EE21
S31508010950677AF1EE10FA05D1DFF888904FF00008B2
S31508010960C1E9008937780193384611F0A9FCDFF807
S3150801097084801E4A019B1360C8E900012B602F7110
S3150801098096F807E085F805E096F801C085F806C0EF
S3150801099096F8028085F8078096F8039085F80890FE
S315080109A096F804A085F809A096F805B0104C85F8C4
S315080109B00AB0B079E8721946A071234608220020C8
S315080109C0277084F805B084F804A084F8039084F8A5
S315080109D0028084F801C084F807E003B0BDE8F04F4F
S315080109E00BF038B80000F03FCCC00020D0BD002085
S315080109F008070020F8C0002008B5012100200BF0E7
S31508010A002DFA0B2100200BF029FA0C2100200BF0FE
S31508010A1025FA0D2100200BF021FA152100200BF0F3
S31508010A201DFA162100200BF019FA172100200BF0E8
S31508010A3015FA182100200BF011FA19210020BDE83A
S31508010A4008400BF00BBA00BF2DE9F04F2DED088BCE
S31508010A500D460968E34CE44E83B0013121602960F3
S31508010A601699DDF85C900968316007EE901AB8EEC0
S31508010A70678AF7EE007AB4EE678AF1EE10FA1F4636
S31508010A8004469246EB7940F09A820BB90123EB7141
S31508010A90DFF85883002243460092104601210BF0E5
S31508010AA009FA002884F84B0040F3A28398F801302C
S31508010AB0637698F80230A37698F80330E37698F8C7
S31508010AC004302377D6ED007A98F80530637798F8DD
S31508010AD00630A37798F8072098F80030E277F8EE01
S31508010AE0678A2376F2EE067AF4EE678AF1EE10FA51
S31508010AF0AB7940F0E3820BB90123AB71DFF8F082E1
S31508010B0000224346009210460B210BF0D3F9002828
S31508010B1084F84A0040F3838398F80130637498F89F
S31508010B200230A37498F80330E37498F804302375F7
S31508010B30D6ED007A98F80530637598F80630A375EE
S31508010B4098F8072098F80030E275B8EE679A23748A
S31508010B50F2EE087AB4EE679AF1EE10FA6B7940F084
S31508010B609C820BB901236B71DFF888820022434608
S31508010B70009210460C210BF09DF9002884F84900D3
S31508010B8040F36183D6ED007A98F8073098F8062085
S31508010B9098F8051098F8040098F803E098F802C048
S31508010BA098F801B098F8008084F809B0F8EE679AC9
S31508010BB084F80AC084F80BE020736173A273E373A7
S31508010BC084F80880F2EE0A7AF4EE679AF1EE10FAE2
S31508010BD02B7940F050820BB901232B71DFF818826B
S31508010BE000224346009210460D210BF063F90028B6
S31508010BF084F848001BDD98F801B098F802E098F8E7
S31508010C00030098F800C098F8041098F8052098F899
S31508010C10063098F8078084F8078084F801B084F8CC
S31508010C2000C084F802E0E07021716271A371D6ED0B
S31508010C30007AB8EE67AAF3EE057AB4EE67AAF1EE82
S31508010C4010FA2B7A40F0FD810BB901232B72DFF8DC
S31508010C50AC81002243460092104615210BF02AF971
S31508010C60002884F84C0040F3E98298F8013084F8AA
S31508010C70213098F8023084F8223098F8033084F845
S31508010C80233098F8043084F82430D6ED007A98F8A1
S31508010C90053084F8253098F8063084F8263098F817
S31508010CA0072098F8003084F82720F8EE67AA84F818
S31508010CB02030F3EE067AF4EE67AAF1EE10FA6B7AB3
S31508010CC040F040820BB901236B72DFF834810022B0
S31508010CD043460092104616210BF0ECF8002884F8DA
S31508010CE04D0040F3A68298F8013084F8293098F827
S31508010CF0023084F82A3098F8033084F82B3098F8B3
S31508010D00043084F82C30D6ED007A98F8053084F84A
S31508010D102D3098F8063084F82E3098F8072098F880
S31508010D20003084F82F20B8EE67BA84F82830F3EE3D
S31508010D30077AB4EE67BAF1EE10FA2B7B40F0D08150
S31508010D400BB901232B73DFF8BC80002243460092BE
S31508010D50104617210BF0AEF8002884F8500040F32E
S31508010D60638298F8013084F8413098F8023084F8A3
S31508010D70423098F8033084F8433098F8043084F800
S31508010D804430D6ED007A98F8053084F8453098F85D
S31508010D90063084F8463098F8072098F8003084F829
S31508010DA04720F8EE67BA84F84030F3EE087AF4EE95
S31508010DB067BAF1EE10FAEB7A40F0AB810BB9012371
S31508010DC0EB72DFF844800022434600921046182150
S31508010DD00BF070F8002884F84F00D6ED007A40F33E
S31508010DE01B8213E070BD0020ECBD00209806002090
S31508010DF0E0060020F006002000070020A0060020DB
S31508010E00A8060020B8060020C806002098F8013078
S31508010E1084F8393098F8023084F83A3098F8033073
S31508010E2084F83B3098F8043084F83C3098F805305B
S31508010E3084F83D3098F8063084F83E3098F8072053
S31508010E4098F8003084F83F20F8EE677A84F838304D
S31508010E50B3EE097AF4EE477AF1EE10FAAB7A40F07E
S31508010E60D8800BB90123AB72C84D00222B460092DC
S31508010E70104619210BF01EF8002884F84E0017DDDC
S31508010E806B78AA7884F83130EB7884F8322084F8C4
S31508010E9033302A796B7984F83420A97984F8353086
S31508010EA0EA792B7884F8361084F8372084F83030BC
S31508010EB0F7EE007AB4EE678AF1EE10FA40F0928006
S31508010EC094F94B30207E94F819C094F81AE0E67E1E
S31508010ED0257F617FA27F07EE103AE37F99F80040EC
S31508010EE007EE904AF8EEE77AF7EE006AF4EE667ACC
S31508010EF0F1EE10FA15D1F8EEC77AF5EE407AF1EE71
S31508010F0010FA57D1189C4FF002084FF0010B89F8D7
S31508010F10008084F800B099F8004007EE904AF8EE90
S31508010F20E77AF0EE006AF4EE667AF1EE10FA37D156
S31508010F30B8EEC77AB7EE008AB4EEC87AF1EE10FABF
S31508010F4038DBFB71189B87F801C001243870BA7128
S31508010F5087F802E0FE703D7179711C70159B8C4A09
S31508010F601C704FF0030C89F800C0BAF800301380E2
S31508010F70149A138011F0A4F9169BD3ED007A854BC8
S31508010F80F8EE677AC3E90001F4EE487AF1EE10FA51
S31508010F9000F0288199F8003007EE903AF8EEE77AE2
S31508010FA0F5EE407AF1EE10FA04D1189A012389F880
S31508010FB00030137003B0BDEC088BBDE8F08F73B138
S31508010FC0002380F84B30037643768376C37603771E
S31508010FD043778377C377F0EE488AEB7182E5F0EEC3
S31508010FE0488A7FE5F2EE067AF4EE678AF1EE10FAA0
S31508010FF040F0D28094F94A30207C94F811C094F8D4
S3150801100012E0E67C257D617DA27D07EE103AE37D3F
S3150801101064E7002B3FF44CAF002384F84E3084F884
S31508011020303084F8313084F8323084F8333084F83B
S31508011030343084F8353084F8363084F83730AB727A
S3150801104036E7002B00F09680002384F84C3084F8AC
S31508011050203084F8213084F8223084F8233084F84B
S31508011060243084F8253084F8263084F82730F0EEC9
S315080110704AAA2B721DE6002B00F08280002384F811
S31508011080483023706370A370E37023716371A37191
S31508011090E371B0EE69AA2B71CDE5002B73D000235D
S315080110A084F8493023726372A372E37223736373FC
S315080110B0A373E373F0EE499A6B7183E5002B00F095
S315080110C08B80002384F84A3023746374A374E37411
S315080110D023756375A375E375B0EE689AAB7137E549
S315080110E0002B76D0002384F8503084F8403084F8F9
S315080110F0413084F8423084F8433084F8443084F827
S31508011100453084F8463084F84730F0EE4BBA2B73F5
S315080111104BE6002B63D0002384F84F3084F838302F
S3150801112084F8393084F83A3084F83B3084F83C3016
S3150801113084F83D3084F83E3084F83F30F0EE6B7A1F
S31508011140EB7285E6CBB1002384F84D3084F828305C
S3150801115084F8293084F82A3084F82B3084F82C3026
S3150801116084F82D3084F82E3084F82F30B0EE6ABA20
S315080111706B72DCE5F0EE4AAA9BE5B0EE6ABAD6E5F3
S31508011180B0EE69AA57E5F0EE499A1BE5D8060020A4
S31508011190E8BD002010BE0020F2EE087AB4EE679A88
S315080111A0F1EE10FA29D0F2EE0A7AF4EE679AF1EE28
S315080111B010FA4DD194F94830207894F801C094F882
S315080111C002E0E67825796179A27907EE103AE379A2
S315080111D084E6F0EE4BBAE8E5B0EE689AB8E4F0EECC
S315080111E06B7A35E65D4B19990022C1E90023D1E6F0
S315080111F0D6ED007AF8EE678A74E494F94930207AD4
S3150801120094F809C094F80AE0E67A257B617BA27B0B
S3150801121007EE103AE37B61E6F8EE677A18E6D6ED53
S31508011220007AB8EE679A93E4D6ED007AF8EE67BAD3
S31508011230BBE5D6ED007AB8EE67BA78E5D6ED007A61
S31508011240F8EE67AA35E5D6ED007AF8EE679AB9E4BD
S31508011250F3EE057AB4EE67AAF1EE10FA1BD0F3EEB7
S31508011260067AF4EE67AAF1EE10FA29D194F94D300F
S3150801127094F8280094F829C094F82AE094F82B6089
S3150801128094F82C5094F82D1094F82E2007EE103A65
S3150801129094F82F3022E694F94C3094F8200094F80B
S315080112A021C094F822E094F8236094F8245094F825
S315080112B0251094F8262007EE103A94F827300DE603
S315080112C0F3EE077AB4EE67BAF1EE10FA14D194F98F
S315080112D0503094F8400094F841C094F842E094F8EC
S315080112E0436094F8445094F8451094F8462007EE64
S315080112F0103A94F84730F1E5F3EE087AF4EE67BA56
S31508011300F1EE10FA14D194F94F3094F8380094F8A4
S3150801131039C094F83AE094F83B6094F83C5094F854
S315080113203D1094F83E2007EE103A94F83F30D5E583
S3150801133094F94E3094F8300094F831C094F832E0BC
S3150801134094F8336094F8345094F8351094F83620AC
S3150801135007EE103A94F83730C0E500BF0000F03FB9
S31508011360012108B508460AF079FD0B2101200AF08A
S3150801137075FD0C2101200AF071FD0D2101200AF0ED
S315080113806DFD152101200AF069FD162101200AF0DB
S3150801139065FD172101200AF061FD182101200AF0D7
S315080113A05DFD19210120BDE808400AF057BD00BFBF
S315080113B02DE9F04F2DED088B0D460968E34CE44EF7
S315080113C083B00131216029601699DDF85C900968BE
S315080113D0316007EE901AB8EE678AF7EE007AB4EE36
S315080113E0678AF1EE10FA1F4604469246EB7940F0F9
S315080113F09A820BB90123EB71DFF858830022012188
S315080114004346009208460AF055FD002884F84B0029
S3150801141040F3A28398F80130637698F80230A376F0
S3150801142098F80330E37698F804302377D6ED007AF6
S3150801143098F80530637798F80630A37798F8072067
S3150801144098F80030E277F8EE678A2376F2EE067AA4
S31508011450F4EE678AF1EE10FAAB7940F0E3820BB944
S315080114600123AB71DFF8F0820022434600920B217B
S3150801147001200AF01FFD002884F84A0040F38383FF
S3150801148098F80130637498F80230A37498F8033019
S31508011490E37498F804302375D6ED007A98F8053088
S315080114A0637598F80630A37598F8072098F8003000
S315080114B0E275B8EE679A2374F2EE087AB4EE679A83
S315080114C0F1EE10FA6B7940F09C820BB901236B712E
S315080114D0DFF888820022434600920C2101200AF097
S315080114E0E9FC002884F8490040F36183D6ED007AC7
S315080114F098F8073098F8062098F8051098F8040027
S3150801150098F803E098F802C098F801B098F80080B6
S3150801151084F809B0F8EE679A84F80AC084F80BE0F3
S3150801152020736173A273E37384F80880F2EE0A7A72
S31508011530F4EE679AF1EE10FA2B7940F050820BB966
S3150801154001232B71DFF818820022434600920D21F0
S3150801155001200AF0AFFC002884F848001BDD98F842
S3150801156001B098F802E098F8030098F800C098F8D6
S31508011570041098F8052098F8063098F8078084F83A
S31508011580078084F801B084F800C084F802E0E070AE
S3150801159021716271A371D6ED007AB8EE67AAF3EEEE
S315080115A0057AB4EE67AAF1EE10FA2B7A40F0FD81BE
S315080115B00BB901232B72DFF8AC8100224346009256
S315080115C0152101200AF076FC002884F84C0040F326
S315080115D0E98298F8013084F8213098F8023084F8C5
S315080115E0223098F8033084F8233098F8043084F8C8
S315080115F02430D6ED007A98F8053084F8253098F825
S31508011600063084F8263098F8072098F8003084F8D0
S315080116102720F8EE67AA84F82030F3EE067AF4EE6E
S3150801162067AAF1EE10FA6B7A40F040820BB90123F2
S315080116306B72DFF83481002243460092162101209D
S315080116400AF038FC002884F84D0040F3A68298F881
S31508011650013084F8293098F8023084F82A3098F84D
S31508011660033084F82B3098F8043084F82C30D6ED02
S31508011670007A98F8053084F82D3098F8063084F801
S315080116802E3098F8072098F8003084F82F20B8EE05
S3150801169067BA84F82830F3EE077AB4EE67BAF1EE42
S315080116A010FA2B7B40F0D0810BB901232B73DFF89D
S315080116B0BC80002243460092172101200AF0FAFB5A
S315080116C0002884F8500040F3638298F8013084F8C2
S315080116D0413098F8023084F8423098F8033084F89B
S315080116E0433098F8043084F84430D6ED007A98F8F7
S315080116F0053084F8453098F8063084F8463098F86D
S31508011700072098F8003084F84720F8EE67BA84F87D
S315080117104030F3EE087AF4EE67BAF1EE10FAEB7A96
S3150801172040F0AB810BB90123EB72DFF8448000224C
S3150801173043460092182101200AF0BCFB002884F8D0
S315080117404F00D6ED007A40F31B8213E02CBE002031
S31508011750E4C000208006002088060020100700202B
S3150801176090060020C0060020D0060020E8060020CA
S31508011770F806002098F8013084F8393098F80230D4
S3150801178084F83A3098F8033084F83B3098F80430F6
S3150801179084F83C3098F8053084F83D3098F80630DE
S315080117A084F83E3098F8072098F8003084F83F20EE
S315080117B0F8EE677A84F83830B3EE097AF4EE477AA8
S315080117C0F1EE10FAAB7A40F0D8800BB90123AB726F
S315080117D0C84D00222B460092192101200AF06AFB06
S315080117E0002884F84E0017DD6B78AA7884F8313022
S315080117F0EB7884F8322084F833302A796B7984F8C7
S315080118003420A97984F83530EA792B7884F83610AA
S3150801181084F8372084F83030F7EE007AB4EE678A18
S31508011820F1EE10FA40F0928094F94B30207E94F84C
S3150801183019C094F81AE0E67E257F617FA27F07EE3C
S31508011840103AE37F99F8004007EE904AF8EEE77AF6
S31508011850F7EE006AF4EE667AF1EE10FA15D1F8EEB3
S31508011860C77AF5EE407AF1EE10FA57D1189C4FF087
S3150801187002084FF0010B89F8008084F800B099F846
S31508011880004007EE904AF8EEE77AF0EE006AF4EEC9
S31508011890667AF1EE10FA37D1B8EEC77AB7EE008A52
S315080118A0B4EEC87AF1EE10FA38DBFB71189B87F8AB
S315080118B001C001243870BA7187F802E0FE703D71E3
S315080118C079711C70159B8C4A1C704FF0030C89F8B2
S315080118D000C0BAF800301380149A138010F0F0FC97
S315080118E0169BD3ED007A854BF8EE677AC3E90001BA
S315080118F0F4EE487AF1EE10FA00F0288199F80030F2
S3150801190007EE903AF8EEE77AF5EE407AF1EE10FA3C
S3150801191004D1189A012389F80030137003B0BDEC7D
S31508011920088BBDE8F08F73B1002380F84B3003763E
S3150801193043768376C376037743778377C377F0EE67
S31508011940488AEB7182E5F0EE488A7FE5F2EE067A7F
S31508011950F4EE678AF1EE10FA40F0D28094F94A3033
S31508011960207C94F811C094F812E0E67C257D617D0F
S31508011970A27D07EE103AE37D64E7002B3FF44CAFF6
S31508011980002384F84E3084F8303084F8313084F8F6
S31508011990323084F8333084F8343084F8353084F8BA
S315080119A0363084F83730AB7236E7002B00F0968074
S315080119B0002384F84C3084F8203084F8213084F8E8
S315080119C0223084F8233084F8243084F8253084F8CA
S315080119D0263084F82730F0EE4AAA2B721DE6002B32
S315080119E000F08280002384F8483023706370A37066
S315080119F0E37023716371A371E371B0EE69AA2B7168
S31508011A00CDE5002B73D0002384F849302372637225
S31508011A10A372E37223736373A373E373F0EE499AB4
S31508011A206B7183E5002B00F08B80002384F84A3024
S31508011A3023746374A374E37423756375A375E375DB
S31508011A40B0EE689AAB7137E5002B76D0002384F89F
S31508011A50503084F8403084F8413084F8423084F8B4
S31508011A60433084F8443084F8453084F8463084F8A5
S31508011A704730F0EE4BBA2B734BE6002B63D00023AD
S31508011A8084F84F3084F8383084F8393084F83A309D
S31508011A9084F83B3084F83C3084F83D3084F83E3095
S31508011AA084F83F30F0EE6B7AEB7285E6CBB1002312
S31508011AB084F84D3084F8283084F8293084F82A309F
S31508011AC084F82B3084F82C3084F82D3084F82E30A5
S31508011AD084F82F30B0EE6ABA6B72DCE5F0EE4AAAEA
S31508011AE09BE5B0EE6ABAD6E5B0EE69AA57E5F0EE1F
S31508011AF0499A1BE5B006002000C10020E8C0002075
S31508011B00F2EE087AB4EE679AF1EE10FA29D0F2EEFF
S31508011B100A7AF4EE679AF1EE10FA4DD194F9483043
S31508011B20207894F801C094F802E0E678257961797D
S31508011B30A27907EE103AE37984E6F0EE4BBAE8E5C6
S31508011B40B0EE689AB8E4F0EE6B7A35E65D4B199912
S31508011B500022C1E90023D1E6D6ED007AF8EE678ABC
S31508011B6074E494F94930207A94F809C094F80AE0A3
S31508011B70E67A257B617BA27B07EE103AE37B61E679
S31508011B80F8EE677A18E6D6ED007AB8EE679A93E426
S31508011B90D6ED007AF8EE67BABBE5D6ED007AB8EE6F
S31508011BA067BA78E5D6ED007AF8EE67AA35E5D6ED97
S31508011BB0007AF8EE679AB9E4F3EE057AB4EE67AA05
S31508011BC0F1EE10FA1BD0F3EE067AF4EE67AAF1EEFF
S31508011BD010FA29D194F94D3094F8280094F829C0BF
S31508011BE094F82AE094F82B6094F82C5094F82D1068
S31508011BF094F82E2007EE103A94F82F3022E694F93D
S31508011C004C3094F8200094F821C094F822E094F816
S31508011C10236094F8245094F8251094F8262007EEAA
S31508011C20103A94F827300DE6F3EE077AB4EE67BA60
S31508011C30F1EE10FA14D194F9503094F8400094F862
S31508011C4041C094F842E094F8436094F8445094F8FB
S31508011C50451094F8462007EE103A94F84730F1E516
S31508011C60F3EE087AF4EE67BAF1EE10FA14D194F9A4
S31508011C704F3094F8380094F839C094F83AE094F85B
S31508011C803B6094F83C5094F83D1094F83E2007EEDA
S31508011C90103A94F83F30D5E594F94E3094F830006F
S31508011CA094F831C094F832E094F8336094F83450DB
S31508011CB094F8351094F8362007EE103A94F8373030
S31508011CC0C0E500BF0000F03F2DE9F04F83B00C4698
S31508011CD00E9FDDF8348099460546324BD7E9000157
S31508011CE01646002210F0B0F90123C7E9000189F868
S31508011CF0003023682C4A0C99013313602360D8F805
S31508011D00003007EE903AB8EE677AF7EE007AB4EE4D
S31508011D10677AF1EE10FA05D1DFF888904FF00008DE
S31508011D20C1E9008937780193384610F0C9FADFF816
S31508011D3084801E4A019B1360C8E900012B602F713C
S31508011D4096F807E085F805E096F801C085F806C01B
S31508011D5096F8028085F8078096F8039085F808902A
S31508011D6096F804A085F809A096F805B0104C85F8F0
S31508011D700AB0B079E8721946A071234608220120F3
S31508011D80277084F805B084F804A084F8039084F8D1
S31508011D90028084F801C084F807E003B0BDE8F04F7B
S31508011DA009F058BE0000F03F38BE002054BB0020A1
S31508011DB00807002098BD00204B780BB901234B700A
S31508011DC00B7833B100230B700370194603200BF00F
S31508011DD051BD01230B700370194603200BF04ABD50
S31508011DE02DE9F04F85B00E9D109C002800F0318139
S31508011DF0217809B9012121701F46129B18881646B8
S31508011E0010F06EFA8046894602460B463046394638
S31508011E1010F034FD08B100232B7042464B4630467C
S31508011E20394610F035FD002800F025811799AF4B8A
S31508011E300022D1E9000110F035FDA378002800F051
S31508011E402E810BB90123A370A94B3046D3E9002390
S31508011E50394610F0F9F8129B80461888894610F021
S31508011E602FFA0022A34B82468B4610F0EDF8424624
S31508011E704B4610F0E7F800220023CDE9000110F0E7
S31508011E80FDFC002800F01581199B93F800A0179B0B
S31508011E904FEACA1A5FFA8AFA85F805A0D3E900015A
S31508011EA010F05CFD00015FFA80FB119B85F806B016
S31508011EB0D3E9000110F052FD139B139A504458447C
S31508011EC018702B7853702B7893702B78D3702B78E6
S31508011ED013712B7853712B7893712B78D3710F9BD0
S31508011EE0159A5B681360129B188810F0E9F9424647
S31508011EF04B4610F0A7F8002200238046894610F0C9
S31508011F00BDFC002840F0D2807B4BD3E900AB002210
S31508011F1000235046594610F0B1FC002840F0E280F3
S31508011F2052465B4640464946FEF7EEF80023002234
S31508011F3010F0A4FC4FF0010300B90346DBB2AB7005
S31508011F4018996A4B0022D1E9000110F0ABFC002870
S31508011F5000F09C8063780BB901236370674B3046A8
S31508011F60D3E90023394610F06FF8129B0646188804
S31508011F700F4610F0A5F900225E4B8046894610F0FF
S31508011F8063F832463B4610F05DF80022002382468C
S31508011F908B4610F073FC002800F0B480199B187862
S31508011FA0189BC0015FFA80F885F80380D3E9000120
S31508011FB010F0D4FC0001C4B2119B2C71D3E90001C5
S31508011FC010F0CCFC149B149A2044404418702B78CA
S31508011FD053702B7893702B78D3702B7813712B78D9
S31508011FE053712B7893712B78D3710F9B169A1B68B3
S31508011FF01360129B188810F063F932463B4610F0BD
S3150801200021F8002200238046894610F037FC002873
S3150801201040F092803A4BD3E900670022002330460C
S31508012020394610F02BFC002840F0838032463B46A7
S3150801203040464946FEF768F80023002210F01EFCC8
S315080120404FF0010300B90346DBB26B7005B0BDE87A
S31508012050F08F2378002BF9D0A3780BB1A870A07064
S3150801206063780BB1002363700023AB706B70237028
S3150801207005B0BDE8F08FA378A3B942464B46304672
S31508012080394610F005FC00287FF45AAF6378002B17
S31508012090DCD000236B70637005B0BDE8F08F002BB0
S315080120A03FF44EAF0023AB70A370E6E70123AB7094
S315080120B046E7114B93ED007B0022002351EC170BE9
S315080120C08DED027B10F0DAFB00284AD042464B46DA
S315080120D0504659460FF0B6FF0022002310F0CEFBFA
S315080120E00028E3D10023AB702AE700BF00001C409B
S315080120F0500000200000F03F380000205800002062
S3150801210040000020204B93ED007B0022002351EC78
S31508012110170B8DED007B10F0B1FB80B132463B46C3
S31508012120404649460FF08EFF0022002310F0A6FB19
S3150801213010B900236B7089E701236B7086E7DDE927
S31508012140002350465946FDF7DFFF0022002310F011
S3150801215095FB00287FF422AF129B188810F0B0F87F
S315080121604BE7DDE90223DDE90001FDF7CDFF00229A
S31508012170002310F083FB00287FF486AE129B188893
S3150801218010F09EF8B3E600BF400000200B791BB1A2
S315080121900023C37103720B714B7843B1CB7813B12A
S315080121A000238370CB708B7843B900234B700023CF
S315080121B08370C371437003720B70704700238B7071
S315080121C0F3E700BF2DE9F04F9BB016462F9A1392FD
S315080121D0309A1492319A1592329A16921F46339A68
S315080121E0299B10930B922B9B349A0A930C922C9B46
S315080121F0359A11930D922D9B369A129326AC249DEE
S31508012200DDF89480DDF8A8B02E9B0E9294E81006AE
S31508012210379A0F92389A1792002840D022780AB92D
S3150801222001222270CDE91867D3E900670022304BF5
S315080122303046394610F022FB4FF0010E002833D004
S315080122403046394600222A4B5FFA8EF610F016FB05
S31508012250002832D023791BB10023EB712B7223712D
S315080122600F9B2F930E9B2E930D9B2D930C9B2C93BB
S315080122700B9B2B930A9B2A93DDE9182301343046DD
S315080122802694CDF8A4B0CDF8A0A0CDF89C90CDF8B1
S31508012290948024951BB0BDE8F04FFFF7A1BD2378C4
S315080122A023B91BB0BDE8F08F8646C9E72146284603
S315080122B01BB0BDE8F04FFFF769BF179A0992169A46
S315080122C00892159A0792149A0692139A0592129AE7
S315080122D00492119A0392231D109A02928DE808041A
S315080122E0EA1D08F10803DDE91801FDF7A7FEB7E7BE
S315080122F00000F03F2DE9F04F85B00E9D109C002897
S3150801230000F03481217809B9012121701F46129BF9
S31508012310188816460FF0E4FF8046894602460B46A2
S315080123203046394610F0AAFA20B100232B70159BC6
S315080123301B786B7042464B463046394610F0A8FA70
S31508012340002800F025811899AE4B0022D1E9000139
S3150801235010F0A8FAA378002800F02E810BB9012302
S31508012360A370A94B3046D3E9002339460FF06CFE1A
S31508012370129B8046188889460FF0A2FF0022A34BBC
S3150801238082468B460FF060FE42464B460FF05AFED8
S3150801239000220023CDE9000110F070FA002800F0B0
S315080123A015811A9B93F800A0189B4FEACA1A5FFA7F
S315080123B08AFA85F806A0D3E9000110F0CFFA0001E0
S315080123C05FFA80FB119B85F807B0D3E9000110F08D
S315080123D0C5FA139B139A5044584418706B78537076
S315080123E02B7893702B78D3702B7813712B785371C4
S315080123F02B7893712B78D3710F9B169A5B681360B0
S31508012400129B18880FF05CFF42464B460FF01AFEE6
S31508012410002200238046894610F030FA002840F051
S31508012420D2807B4BD3E900AB0022002350465946A4
S3150801243010F024FA002840F0E28052465B464046F6
S315080124404946FDF761FE0023002210F017FA4FF006
S31508012450010300B90346DBB2EB701999694B0022F7
S31508012460D1E9000110F01EFA002800F09C8063787B
S315080124700BB901236370674B3046D3E9002339460C
S315080124800FF0E2FD129B064618880F460FF018FF5B
S3150801249000225E4B804689460FF0D6FD32463B4602
S315080124A00FF0D0FD0022002382468B4610F0E6F994
S315080124B0002800F0B3801A9B1878199BC0015FFAAF
S315080124C080F885F80480D3E9000110F047FA000185
S315080124D0C4B2119B6C71D3E9000110F03FFA149B49
S315080124E0149A2044404418706B7853702B78937073
S315080124F02B78D3702B7813712B7853712B789371B2
S315080125002B78D3710F9B179A1B681360129B188837
S315080125100FF0D6FE32463B460FF094FD002200230B
S315080125208046894610F0AAF9002840F091803A4B76
S31508012530D3E90067002200233046394610F09EF998
S31508012540002840F0828032463B4640464946FDF720
S31508012550DBFD0023002210F091F94FF0010300B9C9
S315080125600346DBB2AB7005B0BDE8F08F2378002BCC
S31508012570F9D0A3780BB1E870A07063780BB100238A
S3150801258063700023EB70AB70237005B0BDE8F08F64
S31508012590A378A3B942464B463046394610F078F936
S315080125A000287FF45AAF6378002BDCD00023AB7088
S315080125B0637005B0BDE8F08F002B3FF44EAF0023E2
S315080125C0EB70A370E6E70123EB7046E7104B93ED3A
S315080125D0007B0022002351EC170B8DED027B10F0D6
S315080125E04DF9002849D042464B46504659460FF008
S315080125F029FD0022002310F041F90028E3D1002328
S31508012600EB702AE700001C40500000200000F03F54
S31508012610380000205800002040000020204B93ED90
S31508012620007B0022002351EC170B8DED007B10F087
S3150801263025F980B132463B46404649460FF002FD30
S315080126400022002310F01AF910B90023AB708AE7AB
S315080126500123AB7087E7DDE9002350465946FDF7AC
S3150801266053FD0022002310F009F900287FF423AF57
S31508012670129B18880FF024FE4CE7DDE90223DDE9F9
S315080126800001FDF741FD0022002310F0F7F80028AC
S315080126907FF487AE129B18880FF012FEB4E600BFCE
S315080126A040000020F0B585B00EAC70CC002830D0C3
S315080126B0287808B9012028701846174600295FD1DD
S315080126C0AB78002B4DD1002F4FD16B78002B45D11C
S315080126D0A37D002B2DD0637D3370A37B7370E37BC1
S315080126E0B370237CF370637C3371A37C7371E37CD1
S315080126F0B371237DF371A37D002B2DD1237A00338A
S3150801270018BF012313990B70119B01221A7005B08A
S31508012710F0BD2B78002BFAD0AB780BB1A075A87059
S315080127206B7813B1002323726B7000232B7005B0ED
S31508012730F0BDE3793370237873706378B370A37847
S31508012740F370E3783371237973716379B371A3797C
S31508012750F371A37D002BD1D00123D3E727726F70C4
S31508012760B6E7A175A970002FAFD0129B0293013568
S3150801277001950094DDE90C230A98FDF76BFEA7E79E
S3150801278004F10E02129B0293A91C00920191DDE944
S315080127900C23FDF70DFE96E738B521F000430D46EB
S315080127A000221946154B044610F072F8C8B10022EA
S315080127B0134B2046294610F07FF8A8B90022114B81
S315080127C02046294610F082F848B9204629460C4B7E
S315080127D000220FF037FCBDE838400FF08DB9002410
S315080127E000252046294638BD20462946044B0022A5
S315080127F00FF02AFCBDE838400FF006BA0000304356
S315080128000000E03F0000E0BF38B505460021022080
S3150801281001240AF0FDFF85F8D740FEF7EDF8FEF72B
S315080128209FFD002108460AF0F3FF204600210AF021
S31508012830EFFF002110200AF0EBFF002104200AF027
S31508012840E7FF002112200AF0E3FF002113200AF016
S31508012850DFFF00210E200AF0DBFF00210F200AF01E
S31508012860D7FF00210320BDE838400AF0D1BF00BFD9
S315080128702DE9F04F2DED068B9346ADF5217D92F8A6
S315080128801421BE9C81468A461D4612B901238BF83E
S3150801289014319BF8D630002B00F0558500238BF8B0
S315080128A0D630194689F8323002200AF0E3FF9BF840
S315080128B0D730002B00F084809BF8103113B901231F
S315080128C08BF81031B89B1B78002B40F0ED87B99B2C
S315080128D093F8008018F1000818BF4FF00108D5E9F0
S315080128E000670022324B304639460FF0C7FF48B918
S315080128F000224FF08043304639460FF0BFFF0028CB
S3150801290001F0FE829BF8EB30002B01F002839BF865
S315080129101131002B01F00583B8F1000F41F0018553
S315080129209BF8EB309BB1224BB1990022C1E90023F8
S31508012930B09ABAF8903113809AF895318BF8D0305D
S315080129409BF8EB301BB11A4B0022CBE90623B89B47
S31508012950174900269FED147B1E70B99B00201E7037
S315080129608BED2A7BC9E900013346DBE92A678BF837
S31508012970D73030460F4B394600220FF09DFF4FF0F6
S31508012980010300B903468BF8EB300022094B3046A8
S3150801299039460FF091FF002803F02886064B0022DE
S315080129A0CBE92A2319E000BF00000000000000005F
S315080129B00000F03F00807A400000F0BF0000544359
S315080129C09BF81021002A00F0CB849BF81121002ADC
S315080129D041F0978400238BF81031B09B1FED097ADB
S315080129E01B8807EE903AF8EEE77AF4EE477AF1EEAD
S315080129F010FA14D1B09A002313809BF8D0603046A0
S31508012A000FF06EFCDAE962230FF042FF002801F0AD
S31508012A10AE820136474BF6B21E708BF8D0609BF832
S31508012A20D730002B00F0AA849BF8EC30002B00F07D
S31508012A30AB829BF8F630002B00F000829BF803313D
S31508012A40002B00F008819BF80731C3B19BF80831C8
S31508012A5093B19BF8423123B1002389F86A318BF887
S31508012A6042319BF8413123B1002389F85C318BF857
S31508012A70413100238BF8083100238BF807319BF885
S31508012A800631C3B19BF83E3193B19BF8403123B16E
S31508012A90002389F84E318BF840319BF83F3123B139
S31508012AA0002389F840318BF83F3100238BF83E31FA
S31508012AB000238BF806319BF80531C3B19BF83B31EE
S31508012AC093B19BF83D3123B1002389F832318BF854
S31508012AD03D319BF83C3123B1002389F824318BF829
S31508012AE03C3100238BF83B3100238BF805319BF8E9
S31508012AF00431C3B19BF8383193B19BF83A3123B10C
S31508012B00002389F816318BF83A319BF8393123B10C
S31508012B10002389F808318BF8393100238BF83831CD
S31508012B2000238BF804319BF84F31002B44F07E8249
S31508012B3002E000BFB2BD00209BF80B3143B39BF8FE
S31508012B404E3133B1002389F88C3189F88D318BF8F0
S31508012B504E319BF84B3183B19BF84D3123B100239C
S31508012B6089F887318BF84D319BF84C3113B1002325
S31508012B708BF84C3100238BF84B31002389F88731C8
S31508012B8089F88C3189F8863189F88D318BF80B31C2
S31508012B909BF80A3143B39BF84A3133B1002389F8CC
S31508012BA0823189F883318BF84A319BF8473183B1F1
S31508012BB09BF8493123B1002389F87D318BF84931D6
S31508012BC09BF8483113B100238BF8483100238BF861
S31508012BD04731002389F87D3189F8823189F87C31BA
S31508012BE089F883318BF80A319BF8093143B39BF88D
S31508012BF0463133B1002389F8783189F879318BF870
S31508012C0046319BF8433183B19BF8453123B1002303
S31508012C1089F873318BF845319BF8443113B1002398
S31508012C208BF8443100238BF84331002389F873313B
S31508012C3089F8783189F8723189F879318BF809314F
S31508012C40002389F8283089F82B3089F8293089F842
S31508012C502A308BF803319BF8F730002B00F0E3801C
S31508012C609BF8FC30C3B19BF8FD3093B19BF82D312D
S31508012C7023B1002389F8DE308BF82D319BF82C31EE
S31508012C8023B1002389F8D0308BF82C3100238BF837
S31508012C90FD3000238BF8FC309BF8FA30C3B19BF862
S31508012CA0FB3093B19BF82B3123B1002389F8BC3053
S31508012CB08BF82B319BF82A3123B1002389F8AE30E2
S31508012CC08BF82A3100238BF8FB3000238BF8FA3076
S31508012CD09BF8F830C3B19BF8F93093B19BF82931C9
S31508012CE023B1002389F8A0308BF829319BF82831C4
S31508012CF023B1002389F892308BF8283100238BF809
S31508012D00F93000238BF8F8309BF8013143B39BF86F
S31508012D10373133B1002389F8FE3089F8FF308BF853
S31508012D2037319BF8023183B19BF8363123B1002341
S31508012D3089F8FB308BF836319BF8353113B100230E
S31508012D408BF8353100238BF80231002389F8FB30E3
S31508012D5089F8FE3089F8F83089F8FF308BF80131A7
S31508012D609BF8003143B39BF8343133B1002389F81A
S31508012D70F33089F8F4308BF834319BF8313183B16B
S31508012D809BF8333123B1002389F8EE308BF83331C0
S31508012D909BF8323113B100238BF8323100238BF8BB
S31508012DA03131002389F8EE3089F8F33089F8ED30AE
S31508012DB089F8F4308BF800319BF8FE3043B39BF861
S31508012DC0303133B1002389F8EA3089F8EB308BF8D2
S31508012DD030319BF8FF3083B19BF82F3123B10023A3
S31508012DE089F8E7308BF82F319BF82E3113B1002380
S31508012DF08BF82E3100238BF8FF30002389F8E73052
S31508012E0089F8EA3089F8E43089F8EB308BF8FE3036
S31508012E10002389F8243089F8253089F8263089F87D
S31508012E2027308BF8F730002389F8203089F82130CC
S31508012E3089F8223089F823308BF8F6309BF8ED3083
S31508012E40002B00F096809BF8F3305BB39BF8F430C7
S31508012E50C3B19BF8F53093B19BF8223123B1002316
S31508012E6089F87B308BF822319BF8213123B1002375
S31508012E7089F86D308BF8213100238BF8F530002362
S31508012E808BF8F4309BF82331002B44F0C7800023DC
S31508012E9089F8833089F8823089F8883089F8893049
S31508012EA08BF8F3309BF8EE30002B57D09BF8EF30B8
S31508012EB0C3B19BF8F03093B19BF8183123B10023C5
S31508012EC089F84B308BF818319BF8173123B1002359
S31508012ED089F83D308BF8173100238BF8F030002341
S31508012EE08BF8EF309BF8F13043B39BF8203133B1BF
S31508012EF0002389F8633089F864308BF820319BF810
S31508012F00F23083B19BF81F3123B1002389F8603071
S31508012F108BF81F319BF81E3113B100238BF81E3134
S31508012F2000238BF8F230002389F8603089F8633082
S31508012F3089F85D3089F864308BF8F1309BF81931DE
S31508012F40002B44F06380002389F81C3089F81F3070
S31508012F5089F81E3089F81D308BF8EE30002389F880
S31508012F60183089F8193089F81A3089F81B308BF826
S31508012F70ED30002389F8143089F8153089F81630B0
S31508012F8089F817308BF8EC3099F81630002B40F099
S31508012F90A4879BF8D760003618BF01269BF8CC306A
S31508012FA0DA0600F1858743F010038BF8CC3099F8DF
S31508012FB01430002B40F081879BF8CC301F0700F1B5
S31508012FC03B879BF8CC3043F008038BF8CC30002EB6
S31508012FD040F03587DBB29BF8D720002A40F0F68609
S31508012FE099F81720002A40F0F1865A0705D49BF86C
S31508012FF0CC3043F004038BF8CC309D075CBF43F01B
S3150801300002038BF8CC3099F81530002B40F068870D
S315080130102378002B00F033879BF8163113B9012367
S315080130208BF816319BF8DC30002B00F09B870023C8
S315080130308BF8DC30002020709BF8DC1089F83410FE
S31508013040002940F08A8708460AF014FC9BF8D83014
S31508013050002B00F00B879BF8153113B901238BF868
S3150801306015319BF8DD30002B00F0A78700238BF87C
S31508013070DD308BF8D830194689F8333001200AF04B
S31508013080F9FB9BF8D930002B00F0CD869BF812315D
S3150801309013B901238BF812319BF8DF30002B00F0AE
S315080130A07F8700238BF8DF308BF8D930194689F8EA
S315080130B0303010200AF0DEFB9BF8133113B90123D7
S315080130C08BF813319BF8DE30002B00F0A98600231C
S315080130D08BF8DE30194689F8313004200AF0CAFB2C
S315080130E0BF9900230022D1E900010FF0C7FB9BF825
S315080130F00F31002840F08C8613B901238BF80F3164
S315080131009BF8D330002B00F0198700238BF8D330B6
S3150801311089F82F30BF9B00210020C3E9000199F8E7
S315080131202F1001B1012112200AF0A4FBC099002336
S315080131300022D1E900010FF0A1FB9BF80E3100280E
S3150801314040F05E8613B901238BF80E319BF8D23015
S31508013150002B00F0EE8600238BF8D23089F82E304A
S31508013160C09B00210020C3E9000199F82E1001B186
S31508013170012113200AF07EFBC19900230022D1E91F
S3150801318000010FF07BFB9BF80D31002840F0888683
S3150801319013B901238BF80D319BF8D530002B00F0BC
S315080131A0D78600238BF8D53089F82D30C19B0021AD
S315080131B00020C3E9000199F82D1001B101210E2063
S315080131C00AF058FBC29900230022D1E900010FF049
S315080131D055FB9BF80C31002840F05A8613B9012398
S315080131E08BF80C319BF8D430002B00F0AC86002309
S315080131F08BF8D43089F82C30C29B00210020C3E912
S31508013200000199F82C1001B101210F200AF032FBB7
S315080132109BF8E030002B00F0BA859BF8D03007EE1A
S31508013220903AF8EEE77AF5EE407AF1EE10FA40F0C8
S31508013230A48614230DF5A07AA0224449CBF8C430FC
S31508013240CBF8C83050460FF0AFFBA022404978A80A
S315080132500FF0AAFBB09BB3F8008040460FF040F888
S31508013260DAE90045CDE9160102460B46204629460C
S315080132700FF00EFB002803F05D87CDF86090CDF8BE
S3150801328068B0C346DDE91689324F00260022314B64
S31508013290304639460EF0D8FE0F4606460FF036FB85
S315080132A00AEBC00050E9024542464B4620462946EC
S315080132B00FF0EEFA0028E9D10022264BDDF86090DE
S315080132C0304639460EF0BEFE0FF020FBD846DDF833
S315080132D068B00138C600A0AB334453E9280100227F
S315080132E000230FF0CBFA0746002840F0D383404667
S315080132F00EF0E6FF02460B4620462946CDE916237F
S315080133000EF0A0FEFFF748FA0022134B04460D46BD
S315080133100FF0BEFA002800F0EE87002200232046AF
S3150801332029460FF0C9FA002803F00E8720462946D8
S315080133300FF014FB80B2431E984285F0E285002205
S31508013340002300F0F8BC0123FFF7A9BA00C0000862
S3150801335000C100080000F03F0000F040000054439F
S31508013360B09B1FED027A1B8807EE903AF8EEE77AD2
S31508013370F4EE477AF1EE10FA3FF43CAB9BF8EC30E9
S3150801338013B901238BF8EC30D5E9006700224D4BC0
S31508013390304639460FF072FA002840F08982002239
S315080133A04FF08043304639460FF068FA002840F05E
S315080133B07F820022444B304639460FF05FFA0028D7
S315080133C040F076829BF8F630002B00F0DC819BF802
S315080133D00331002B00F009819BF80731BBB19BF83B
S315080133E008318BB19BF842311BB189F86A018BF818
S315080133F042019BF8413123B1002389F85C318BF8EE
S31508013400413100238BF8083100238BF807319BF8EB
S315080134100631C3B19BF83E3193B19BF8403123B1D4
S31508013420002389F84E318BF840319BF83F3123B19F
S31508013430002389F840318BF83F3100238BF83E3160
S3150801344000238BF806319BF80531C3B19BF83B3154
S3150801345093B19BF83D3123B1002389F832318BF8BA
S315080134603D319BF83C3123B1002389F824318BF88F
S315080134703C3100238BF83B3100238BF805319BF84F
S315080134800431C3B19BF8383193B19BF83A3123B172
S31508013490002389F816318BF83A319BF8393123B173
S315080134A0002389F808318BF8393100238BF8383134
S315080134B000238BF804319BF84F31002B43F0DE854E
S315080134C004E000BF0000F03F000008409BF80B3104
S315080134D043B39BF84E3133B1002389F88C3189F80F
S315080134E08D318BF84E319BF84B3183B19BF84D31B9
S315080134F023B1002389F887318BF84D319BF84C317C
S3150801350013B100238BF84C3100238BF84B31002380
S3150801351089F8873189F88C3189F8863189F88D31AE
S315080135208BF80B319BF80A3143B39BF84A3133B117
S31508013530002389F8823189F883318BF84A319BF85F
S31508013540473183B19BF8493123B1002389F87D318D
S315080135508BF849319BF8483113B100238BF8483170
S3150801356000238BF84731002389F87D3189F88231A8
S3150801357089F87C3189F883318BF80A319BF809314E
S3150801358043B39BF8463133B1002389F8783189F87A
S3150801359079318BF846319BF8433183B19BF8453134
S315080135A023B1002389F873318BF845319BF84431EF
S315080135B013B100238BF8443100238BF843310023E0
S315080135C089F8733189F8783189F8723189F879314E
S315080135D08BF80931002389F8283089F82B3089F8C6
S315080135E0293089F82A308BF803319BF8F730002BFC
S315080135F000F0BC809BF8FC30C3B19BF8FD3093B159
S315080136009BF82D3123B1002389F8DE308BF82D3153
S315080136109BF82C3123B1002389F8D0308BF82C3153
S3150801362000238BF8FD3000238BF8FC309BF8FA3029
S31508013630C3B19BF8FB3093B19BF82B3123B100231F
S3150801364089F8BC308BF82B319BF82A3123B100233A
S3150801365089F8AE308BF82A3100238BF8FB3000232A
S315080136608BF8FA309BF8F830C3B19BF8F93093B16F
S315080136709BF8293123B1002389F8A0308BF8293129
S315080136809BF8283123B1002389F892308BF8283129
S3150801369000238BF8F93000238BF8F8309BF80131B9
S315080136A043B39BF8373133B1002389F8FE3089F8E3
S315080136B0FF308BF837319BF8023183B19BF83631ED
S315080136C023B1002389F8FB308BF836319BF8353165
S315080136D013B100238BF8353100238BF8023100230F
S315080136E089F8FB3089F8FE3089F8F83089F8FF3017
S315080136F08BF801319BF8003143B39BF8343133B170
S31508013700002389F8F33089F8F4308BF834319BF8C3
S31508013710313183B19BF8333123B1002389F8EE3077
S315080137208BF833319BF8323113B100238BF83231E0
S3150801373000238BF83131002389F8EE3089F8F3300C
S3150801374089F8ED3089F8F4308BF800319BF8FE30B2
S31508013750002B43F00384002389F8243089F82530A7
S3150801376089F8263089F827308BF8F730002389F84D
S31508013770203089F8213089F8223089F823308BF8EE
S31508013780F630D5E900671693B84B3046394600221C
S315080137900FF074F89BF8ED30002802F07B8613B918
S315080137A001238BF8ED309BF8D03008EE103AB8EECD
S315080137B0C88A9BF8F330B5EE408AF1EE10FA43F069
S315080137C0068013B901238BF8F330B09BDFEDA88A85
S315080137D0B3F8008007EE908AB8EEE79AB4EEE89A55
S315080137E0F1EE10FAC1F2FA8140460EF079FDDAE9F6
S315080137F01A230FF04DF8002801F0F081B4EE689A0B
S31508013800F1EE10FA43F093869BF8DA30002B0CBFE1
S31508013810012300238BF8D83004F00F83B09B1E8850
S3150801382007EE906AF8EEE78ADFED927A924A9BF8FC
S31508013830E3301370F4EE678AF1EE10FA41F0D181A4
S31508013840002B03F017819AF899318BF8E330B89A6F
S315080138509AF899311370B99A9AF8993113709AF8B6
S3150801386099318BF8E0309AF89A118BF8D710B199FB
S3150801387000220023CBE90623C1E90023BC9A9AF862
S3150801388093311370BD9A9AF893311370BA9A01233A
S315080138901360BB9A13602370B09B1E8807EE906A6B
S315080138A0F8EEE78A01F09DB94FF00108FFF717B85E
S315080138B09BF8F63013B901238BF8F6309BF8D03014
S315080138C009EE103AB8EEC99A9BF80331B5EE409A5B
S315080138D0F1EE10FA40F09A8313B901238BF80331FC
S315080138E0B09BDFED668A1F8807EE907AB8EEE78A05
S315080138F0B4EEE88AF1EE10FAC0F29C8538460EF06D
S31508013900EFFCDAE940230EF0C3FF002800F09285A8
S31508013910B4EE688AF1EE10FA40F08C8595ED007BDD
S315080139200022574B51EC170B8DED167B0EF0A6FFB7
S31508013930002843F071869BF8E730002B04F05C8180
S315080139401A90DDE9160100224FF080430EF096FF2A
S31508013950002805F08F82002316939BF8E630002B8A
S3150801396043F07386464BDBE9180100220EF06CFB27
S31508013970CBE9180101231C939BF8DA80B8F1000FF3
S3150801398044F08783B19B93ED007B00223D4B51ECBC
S31508013990170B8DED187B0EF071FF002804F0738567
S315080139A00022384BD5E900010EF068FF002804F023
S315080139B04B834646CDF8788043461A9A002A44F046
S315080139C03583169A002A44F02E831C9A002A44F05D
S315080139D02A83002B44F02783002E44F024839DF884
S315080139E07830294A8BF8D830DBE92401C2E900018D
S315080139F0169BCBE92401002B04F00E83204B0022F1
S31508013A00DBE926010EF020FB204BC3E900011C9BD4
S31508013A10CBE92601002B04F0F882194B0022DBE9D9
S31508013A2028010EF011FB1A4BC3E90001CBE9280165
S31508013A30B8F1000F0FD1B199D5E90023D1E90001F9
S31508013A400EF01CFF38B9DBE91A0100220C4B0EF007
S31508013A50FBFACBE91A0101232370B09BB3F8008066
S31508013A6007EE908AF8EEE78A00F0E7BC00001440FA
S31508013A700000404200004842EABD002000004443DD
S31508013A800000F03F0000084090BD002050BE002015
S31508013A90E0BD002040460EF013FCB244DAE90023EB
S31508013AA0CDE916010EF0CEFAFEF776FE0022C24BDC
S31508013AB004460D460EF0ECFE002800F02A8400228A
S31508013AC00023204629460EF0F7FE002803F0598305
S31508013AD0294620460EF042FF80B280460EF0F0FBE2
S31508013AE0CDE91801B54BD3E90067DDE9180132467E
S31508013AF03B460EF0A7FAFEF74FFE0022AE4B0446F0
S31508013B000D460EF0C5FE002802F05C860022002351
S31508013B10204629460EF0D0FE002803F02E832046C3
S31508013B2029460EF01BFF80B20EF0CAFBA44BD3E95F
S31508013B30004522462B460EF063FDFEF72DFE0022B8
S31508013B409D4BCDE91A010EF0A3FE002802F0358639
S31508013B5000220023DDE91A010EF0AEFE002803F06B
S31508013B602283DDE91A010EF0F9FE80B20130B0F5C3
S31508013B70803F02F022860EF0A3FB02460B46204642
S31508013B8029460EF013FCFEF707FE00228A4B04466F
S31508013B900D460EF07DFE002802F052870022002312
S31508013BA0204629460EF088FE002803F0F8822946A9
S31508013BB020460EF0D3FE80B20EF082FB02460B467B
S31508013BC0304639460EF040FAFEF7E6FD00227A4BFA
S31508013BD004460D460EF05CFE002802F02D870022F1
S31508013BE00023204629460EF067FE002803F0D482FA
S31508013BF0204629460EF0B2FE1FFA80FA714BD3E928
S31508013C000045DDE9180122462B460EF01BFAFEF7A0
S31508013C10C3FD0022684B06460F460EF039FE002802
S31508013C2002F0138700220023304639460EF044FE7F
S31508013C30002803F0AD82304639460EF08FFE80B279
S31508013C400EF03EFB604BD3E9006732463B460EF069
S31508013C50D7FCFEF7A1FD0022574BCDE918010EF05E
S31508013C6017FE002802F0A48500220023DDE91801C9
S31508013C700EF022FE002803F07982DDE918010EF024
S31508013C806DFE80B20130B0F5803F02F091850EF0ED
S31508013C9017FB02460B46304639460EF087FBFEF700
S31508013CA07BFD0022444B06460F460EF0F1FD002827
S31508013CB002F0CF8400220023304639460EF0FCFD7F
S31508013CC0002803F04F82394630460EF047FE80B28F
S31508013CD00EF0F6FA02460B46204629460EF0B4F9CE
S31508013CE0FEF75AFD0022344B04460D460EF0D0FD70
S31508013CF0002802F0AA8400220023204629460EF055
S31508013D00DBFD002803F02B82204629460EF026FE0D
S31508013D1080B2824528BF8246C8EB0A03534502F2A0
S31508013D209D84981E8342C2F0998480B207460EF09C
S31508013D30D7FA02460B46DBE90845204629460EF026
S31508013D40BBFD002802F09C8338460EF0B9FA0646F8
S31508013D500F4622462B46304639460EF073F90023A4
S31508013D60002204460D460EF0B1FD4FF0010300B9DD
S31508013D7003468BF8E0303046DDE9162339460EF066
S31508013D8063F90EF0EBFDB09B1880CBE908459BF86B
S31508013D90CC30D8075CBF43F001038BF8CC300BF568
S31508013DA0AA7109F29910FEF707F80DF5217DBDEC08
S31508013DB0068BBDE8F08F00BF0000F04050000020E0
S31508013DC0380000205800002040000020590742F121
S31508013DD02984C19B0593BD9B0393BB9B0293B99B06
S31508013DE00193B59B04940093B39BB09A0BF5AE71FE
S31508013DF009F5D470FDF7DCFA9BF8CC30FFF7FDB86E
S31508013E00002B3FF4B9A900238BF80E31FFF7B4B99B
S31508013E10002B3FF48BA900238BF80F31FFF786B9E6
S31508013E200123FFF755B99BF81221002A3FF444A94B
S31508013E308BF81231FFF740B9002E3FF4CCA8BF9B8F
S31508013E400593BC9B0393BA9B0293B89B0193B49BBE
S31508013E5000930494B29BB09A0BF5B67109F2F91066
S31508013E60FCF7F2FD9BF8CC30FFF7B5B89BF81521A6
S31508013E70002A3FF406A98BF81531FFF702B99BF81A
S31508013E801621002A3FF4E2A88BF81631FFF7DEB8AF
S31508013E90002B3FF4BDA900238BF80C31FFF7B8B905
S31508013EA0002B3FF48FA900238BF80D31FFF78AB950
S31508013EB099F81420002A3FF481A8C59B0293C39B55
S31508013EC00193C09B0093B69A23460BF5BE7109F57B
S31508013ED01370FCF719FDFFF76FB80126FFF75EB8F7
S31508013EE0C69B0293C49B0193C29B0093B79A234630
S31508013EF00BF5AC7109F5CE70FDF7E6FEFFF788B84C
S31508013F003046394600223C4B0EF0B8FC00287EF4B8
S31508013F10F9ACB8F1000F5CD09BF81131002B40F0D9
