S02300002E2E2F48414E636F6465725F453430375F5454415F47726F7570322E737265636D
S3150800400054D00020A1FA01080000000000000000BA
S315080040100000000000000000000000000000000092
S3150800402000000000000000000000000091C8010820
S3150800403000000000000000002DC901087DC9010824
S315080040400000000000000000000000000000000062
S315080040500000000000000000000000000000000052
S31508004060000000006DD601080000000000000000F6
S315080040700000000000000000000000000000000032
S31508004080000000000000000000000000B9BC0108A4
S3150800409071BC010895BC0108DDBC010800000000E0
S315080040A059D6010845D6010831D6010821D6010896
S315080040B00DD60108F9D50108E5D50108000000006C
S315080040C000000000000000000000000000000000E2
S315080040D00000000071E0010889E00108A1E001087C
S315080040E0000000000000000069E10108000000006F
S315080040F0D1D50108BDD50108ADD5010800000000DD
S3150800410000000000D1E001080000000000000000E7
S315080041100000000000000000000000000000000091
S31508004120000000000000000000000000D5E00108C3
S31508004130000000009DD601080000000049BD0108E6
S3150800414001BD010825BD01086DBD010899E10108F9
S31508004150000000000000000000000000B9E00108AF
S315080041600000000000000000000000000000000041
S315080041700000000000000000000000000000000031
S311080041800000000000000000EE11AA5527
S3150800C000000000000000000000000000000044409E
S3150800C0100000000000004640000000000000474005
S3150800C02000000000000048400000000000004940F1
S3150800C0300000000000004A400000000000005740D1
S3150800C04000000000000058400000000000005940B1
S3150800C05000000000008061400000000000C0614050
S3150800C06000000000000062400000000000806240FE
S3150800C07000000000008067400000000000006840E3
S3150800C08000000000008068400000000000006940D1
S3150800C09000000000008069400000000000006A40BF
S3150800C0A000000000000000000000000000004440FE
S3150800C0B00000000000004640000000000000474065
S3150800C0C00000000000004840000000000000564044
S3150800C0D000000000008056400000000000005740A5
S3150800C0E000000000008060400000000000C06040C2
S3150800C0F000000000000069400000000000406940A0
S3150800C1000000000000000000000000000000F03FF2
S3150800C110000000000000F03F000000000000F03FB3
S3150800C120000000000000F03F000000000000F03FA3
S3150800C1300000000000000000000000000000F03FC2
S3150800C140000000000000F03F0000000000000000B2
S3150800C150000000000000F03F000000000000F03F73
S3150800C160000000000000F03F000000000000000092
S3150800C170000000000000F03F000000000000F03F53
S3150800C180000000000000F03F000000000000F03F43
S3150800C190000000000000F03F000000000000F03F33
S3150800C1A00000000000000000000000000000F03F52
S3150800C1B0000000000000F03F000000000000F03F13
S3150800C1C00000000000000000000000000000F03F32
S3150800C1D0000000000000F03F000000000000000022
S3150800C1E0000000000000F03F000000000000F03FE3
S3150800C1F0000000000000F03F000000000000F03FD3
S3150800C2000000010101000100010100000001000118
S3150800C2100000000000006140000000000080694046
S3150800C22000000000000057400000000000004640E3
S3150800C23000000000000048400000000000004440E4
S3150800C2400000000000005640000000000000903F7B
S3150800C2500000000000005040000000000000C03F41
S3150800C2600000000000002040000000000000903F91
S3150800C27000000000000050400000000000004A4096
S3150800C2800000000000006A40000000000000464070
S3150800C2900000000000004840000000000000444084
S3150800C2A000000000008069400000000000005740C0
S3150800C2B00000000000004640000000000000614049
S3150800C2C00000000000004840000000000000444054
S3150800C2D0000000000000564000000000008060409A
S3150800C2E0000000000000903F0000000000005040E1
S3150800C2F0000000000000C03F0000000000002040D1
S3150800C300000000000000903F0000000000005040C0
S3150800C310000000000000694000000000008069403D
S3150800C3200000000000806A400000000000006A402B
S3150800C33000000000000046400000000000004840E1
S3150800C3400000000000004A400000000000005940BC
S3150800C3500000000000005840000000000080624015
S3150800C36000000000000062400000000000806840F5
S3150800C3700000000000006840000000000000444083
S3150800C38000000000008067400000000000005740E1
S3150800C3900000000000806140000000000000F03F3F
S3150800C3A0010000000100000000000000000000007D
S3150800C3B0010001000001000001000000010000006A
S3150800C3C00100000001000000000000001500000048
S3150800C3D01500000015000000150000000000000010
S3150800C3E0010000000100000001000000010000003B
S3150800C3F0000000000100000001000000000000002D
S3150800C400010000000100000001000000010000001A
S3150800C41000000000150000001500000015000000CF
S3150800C42015000000000000000D0000000D000000CF
S3150800C4300D0000000D000000000000000C000000C8
S3150800C4400C0000000C0000000C00000000000000BA
S3150800C4500B0000000B0000000B0000000B000000A2
S3150800C46000000000010000000100000001000000BB
S3150800C47001000000000000006464640048414E6347
S3150800C4806F6465725F453430375F5454415F477255
S3150800C4906F7570325F736F66747761726549445F52
S3150800C4A076315F3138303532325F313835353136AD
S3150800C4B04170704374726C5461736B0048414E63EB
S3150800C4C06F6465725F453430375F5454415F477215
S3150800C4D06F7570322E6300002000000000140240C1
S3150800C4E008000900200000000014024010000E0099
S3150800C4F0200000000014024020000F002000000069
S3150800C500001402404000040020000000001402400D
S3150800C510800005002000000000140240000106000B
S3150800C520200000000014024000020700200000005E
S3150800C530001402400004080004000000000802403D
S3150800C54001000A00040000000008024004000C0074
S3150800C550414443636F6E76657273696F6E54617397
S3150800C5606B0000002E2E2F626C6F636B7365742F41
S3150800C5707274772F53544D33322F7372632F686555
S3150800C58061705F342E630000546D724370754C6F92
S3150800C5906164000049444C45000000002E2E2F62BD
S3150800C5A06C6F636B7365742F7274772F53544D33A6
S3150800C5B0322F7372632F7461736B732E63000000DE
S3150800C5C02E2E2F626C6F636B7365742F7274772FC0
S3150800C5D053544D33322F7372632F74696D657273BA
S3150800C5E02E630000546D72205376630043616E45D6
S3150800C5F076656E745461736B0000000043616E5477
S3150800C60072616E736D69745461736B002E2E2F629E
S3150800C6106C6F636B7365742F7274772F53544D3335
S3150800C620322F7372632F53544D33325F453430378C
S3150800C6302F63616E2E630000006400400000000254
S3150800C64008000000000C024001000000080000007D
S3150800C650000C024002000100091314151600000020
S3150800C66000680040000000040200000000040240C8
S3150800C67020000500020000000004024040000600F9
S3150800C680093F404142000000010102010202020284
S3150800C690020302020402020303030403030503035D
S3150800C6A0060303050404060404070404080404072F
S3150800C6B00505080505080605080705080706080804
S3150800C6C00608080708080800457643686E6C3100B6
S3150800C6D0457643686E6C3200457643686E6C330067
S3150800C6E02E2E2F626C6F636B7365742F7274772F9F
S3150800C6F053544D33322F7372632F53544D33325F75
S3150800C700453430372F6D61632E6300002E2E2F625D
S3150800C7106C6F636B7365742F7274772F53544D3334
S3150800C720322F7372632F53544D33325F453430378B
S3150800C7302F706F72742E6300000001400100000024
S3150800C740020100001000000000100240000209006B
S3150800C750100000000010024000080B000004004012
S3150800C7600200000001020000010000000000024073
S3150800C77040000600020000000004024020000500F8
S3150800C7800008004004000000010200000800000044
S3150800C790000C024000100C0008000000000C0240CB
S3150800C7A000200D0000040140020000000203000002
S3150800C7B004000000000802404000060004000000D3
S3150800C7C00008024080000700000001400100000048
S3150800C7D002011900000000400100000001021C00CF
S3150800C7E0000400400200000001021D00000800408D
S3150800C7F00400000001021E000004014002000000BF
S3150800C80002012C000040014000000100020118004E
S3150800C81000440140000002000201190000480140DE
S3150800C8200000040002011A00001C004080000000FD
S3150800C83001022C00002000400001000001022D002A
S3150800C840040000000008024001000000200000006B
S3150800C85000140240400000002000000000140240BE
S3150800C86080000000200000000014024000010000C3
S3150800C8702000000000140240000200002000000012
S3150800C88000140240000400000200000000040240F8
S3150800C8908000000002000000000402404000000082
S3150800C8A01000000000100240040000001000000004
S3150800C8B000100240100000001000000000100240A6
S3150800C8C02000000010000000001002404000000098
S3150800C8D040000000001802408000000040000000F0
S3150800C8E00018024000010000400000000018024045
S3150800C8F00010000040000000001802400080000000
S3150800C90001000000000002401000000002000000C4
S3150800C9100004024020000000010000000000024060
S3150800C9204000000001000000000002402000000056
S3150800C93008000000000C024001000000080000008A
S3150800C940000C02400200000008000000000C024033
S3150800C9500400000008000000000C02400800000067
S3150800C96008000000000C024010000000080000004B
S3150800C970000C02402000000008000000000C0240E5
S3150800C9804000000008000000000C02408000000083
S3150800C99008000000000C024000010000080000002A
S3150800C9A0000C02400002000008000000000C0240D3
S3150800C9B00004000008000000000C02400008000007
S3150800C9C008000000000C02400010000008000000EB
S3150800C9D0000C02400020000008000000000C024085
S3150800C9E00040000008000000000C02400080000023
S3150800C9F010000000001002400100000010000000B6
S3150800CA000010024002000000100000000010024062
S3150800CA10080000001000000000100240800000001E
S3150800CA201000000000100240000100001000000085
S3150800CA300010024000020000100000000010024032
S3150800CA40000400001000000000100240000800006A
S3150800CA501000000000100240001000001000000046
S3150800CA6000100240002000001000000000100240E4
S3150800CA700040000010000000001002400080000086
S3150800CA802000000000140240010000002000000001
S3150800CA9000140240020000002000000000140240BA
S3150800CAA004000000200000000014024008000000F6
S3150800CAB020000000001402401000000020000000C2
S3150800CAC0001402402000000020000000001402406C
S3150800CAD000080000200000000014024000100000BA
S3150800CAE02000000000140240002000002000000082
S3150800CAF0001402400040000020000000001402401C
S3150800CB0000800000400000000018024001000000FC
S3150800CB10400000000018024002000000400000002B
S3150800CB2000180240040000004000000000180240FF
S3150800CB300800000040000000001802401000000035
S3150800CB4040000000001802402000000040000000DD
S3150800CB500018024040000000400000000018024093
S3150800CB600002000040000000001802400004000017
S3150800CB7040000000001802400008000040000000C5
S3150800CB800018024000200000400000000018024083
S3150800CB900040000001000000000002400100000003
S3150800CBA00400000000080240010000002000000008
S3150800CBB0001402404000000020000000001402405B
S3150800CBC08000000020000000001402400001000060
S3150800CBD020000000001402400002000020000000AF
S3150800CBE00014024000040000020000000004024095
S3150800CBF0800000000200000000040240400000001F
S3150800CC0010000000001002400400000010000000A0
S3150800CC100010024010000000100000000010024042
S3150800CC202000000010000000001002404000000034
S3150800CC30400000000018024080000000400000008C
S3150800CC4000180240000100004000000000180240E1
S3150800CC50001000004000000000180240008000009C
S3150800CC600100000000000240100000000200000061
S3150800CC7000040240200000000100000000000240FD
S3150800CC8040000000010000000000024020000000F3
S3150800CC9008000000000C0240010000000800000027
S3150800CCA0000C02400200000008000000000C0240D0
S3150800CCB00400000008000000000C02400800000004
S3150800CCC008000000000C02401000000008000000E8
S3150800CCD0000C02402000000008000000000C024082
S3150800CCE04000000008000000000C02408000000020
S3150800CCF008000000000C02400001000008000000C7
S3150800CD00000C02400002000008000000000C02406F
S3150800CD100004000008000000000C024000080000A3
S3150800CD2008000000000C0240001000000800000087
S3150800CD30000C02400020000008000000000C024021
S3150800CD400040000008000000000C024000800000BF
S3150800CD501000000000100240010000001000000052
S3150800CD6000100240020000001000000000100240FF
S3150800CD7008000000100000000010024080000000BB
S3150800CD801000000000100240000100001000000022
S3150800CD9000100240000200001000000000100240CF
S3150800CDA00004000010000000001002400008000007
S3150800CDB010000000001002400010000010000000E3
S3150800CDC00010024000200000100000000010024081
S3150800CDD00040000010000000001002400080000023
S3150800CDE0200000000014024001000000200000009E
S3150800CDF00014024002000000200000000014024057
S3150800CE000400000020000000001402400800000092
S3150800CE10200000000014024010000000200000005E
S3150800CE200014024020000000200000000014024008
S3150800CE300008000020000000001402400010000056
S3150800CE40200000000014024000200000200000001E
S3150800CE5000140240004000002000000000140240B8
S3150800CE600080000040000000001802400100000099
S3150800CE7040000000001802400200000040000000C8
S3150800CE80001802400400000040000000001802409C
S3150800CE9008000000400000000018024010000000D2
S3150800CEA0400000000018024020000000400000007A
S3150800CEB00018024040000000400000000018024030
S3150800CEC000020000400000000018024000040000B4
S3150800CED04000000000180240000800004000000062
S3150800CEE00018024000200000400000000018024020
S3150800CEF00040000004000000000802400020000076
S3150800CF00000001400100000002011B000000004073
S3150800CF100100000001021C0000040040020000009D
S3150800CF2001021D00000800400400000001021E0066
S3150800CF30000401400200000002012E0000400140EA
S3150800CF400000010002011800004401400000020030
S3150800CF5002011900004801400000040002011A00FD
S3150800CF60001C00408000000001022C000020004048
S3150800CF700001000001022D00100000000010024010
S3150800CF800002000002000200010009001000000073
S3150800CF9000100240000800010400200001000B00F8
S3150800CFA010000000001002400020000208000002E5
S3150800CFB001000D00100000000010024000400003B0
S3150800CFC01000002001000E000100000000000240D1
S3150800CFD02000010002000200010005000100000017
S3150800CFE000000240400002000200020002000600A3
S3150800CFF00200000000040240200002010400200094
S3150800D0000200050008000000000C024000100300A2
S3150800D0100200020002000C0008000000000C02409A
S3150800D020002003010400200002000D000400000097
S3150800D0300008024040000400020002000300060047
S3150800D04004000000000802408000040104002000DB
S3150800D0500300070010000000001002402000050031
S3150800D0600200020003000500100000000010024044
S3150800D070400005010400200003000600200000000F
S3150800D08000140240400006000200020003000600E9
S3150800D0902000000000140240800007000200020081
S3150800D0A003000700200000000014024000010800E9
S3150800D0B002000200090008002000000000140240D7
S3150800D0C000020900020002000900090000100140E0
S3150800D0D010000000022500000200000000040240C3
S3150800D0E0400006000200000000040240800007001D
S3150800D0F0070000000044004000000200012600006E
S3150800D10008000000000C024020000500080000008E
S3150800D110000C0240400006000700000000480040DE
S3150800D120000004000127000008000000000C02406F
S3150800D1300001080008000000000C02400002090077
S3150800D140070000000014014020000000024700000C
S3150800D1500400000000080240400006000400000029
S3150800D16000080240800007000800000056435020CF
S3150800D170436F6E666967000056435020496E7465B2
S3150800D180726661636500000053544D6963726F658A
S3150800D1906C656374726F6E696373000053544D3324
S3150800D1A032205669727475616C20436F6D506F72C8
S3150800D1B07420696E204853206D6F64650000000076
S3150800D1C053544D3332205669727475616C20436F1F
S3150800D1D06D506F727420696E204653204D6F6465DA
S3150800D1E000000000303030303030303030353042DA
S3150800D1F000000000303030303030303030353043C9
S3150800D20000000000000001400100000002011B00B0
S3150800D210000000400100000001021C00000400405C
S3150800D2200200000001021D00000800400400000082
S3150800D23001021E00000401400200000002012E0047
S3150800D24000400140000001000201180000440140AE
S3150800D2500000020002011900004801400000040015
S3150800D26002011A00001C00408000000001022C0088
S3150800D270002000400001000001022D0010000000FF
S3150800D280001002400002000002000200010009002E
S3150800D29010000000001002400008000104002000F1
S3150800D2A001000B00100000000010024000200002E0
S3150800D2B00800000201000D001000000000100240E6
S3150800D2C0004000031000002001000E0001000000CD
S3150800D2D000000240200001000200020001000500D3
S3150800D2E001000000000002404000020002000200A7
S3150800D2F002000600020000000004024020000201AD
S3150800D300040020000200050008000000000C02408E
S3150800D310001003000200020002000C0008000000D2
S3150800D320000C0240002003010400200002000D004A
S3150800D3300400000000080240400004000200020049
S3150800D34003000600040000000008024080000401F3
S3150800D350040020000300070010000000001002402F
S3150800D360200005000200020003000500100000006E
S3150800D37000100240400005010400200003000600DA
S3150800D38020000000001402404000060002000200CF
S3150800D3900300060020000000001402408000070079
S3150800D3A002000200030007002000000000140240EB
S3150800D3B00001080002000200090008002000000021
S3150800D3C000140240000209000200020009000900D8
S3150800D3D02E2E2F626C6F636B7365742F7274772FA2
S3150800D3E053544D33322F7372632F71756575652EDD
S3150800D3F0630000000404040008D4000810D40008E0
S3150800D40018D4000807070700457643686E6C310094
S3150800D410457643686E6C3200457643686E6C330019
S3150800D42050505000666D6F64000000000000000058
S3150800D430000000000000000000000000000000805E
S3090800D4404300000097
S315080100000B78FF2B00D070474B78002BFBD109F0FA
S31508010010BFBF00BF08B5012009F0C6FA034A40F27E
S3150801002067610020BDE808400CF008B80100010826
S31508010030002009F03DB900BF704700BF2DE9F04720
S31508010040DDF820E0099E9EF800C004460D4692465A
S315080100501F46BCF1000F02D101238EF8003030880B
S3150801006012F0BEF922462B468046894612F086FCD6
S31508010070E0B10E9A3B6813600D9A7B6813600C9A7F
S31508010080BB7A1370109A3B7A13700B9AFB7A13702A
S315080100900F9A7B7A13700A9A002313605360119A98
S315080100A01370308812F09CF98046894642464B46C1
S315080100B02046294612F06CFC68B10B9B1B78D3B914
S315080100C001238AF800300C9B1B787BB901238AF837
S315080100D00130BDE8F087002642464B4620462946B0
S315080100E08AF8006012F054FC0028ECD100238AF843
S315080100F00130BDE8F08700238AF800300C9B1B7895
S31508010100002BF3D1E2E700BF2DE9F04F83B0164685
S315080101101F4682468B4611F07FFE002200230446C5
S315080101200D4612F02BFCD8BB804600220023204640
S3150801013029465FFA88F812F021FC50B9304639464B
S3150801014011F0E2FD02460B463046394612F03EFCF6
S3150801015090BBB8F1000F5FD15046594600220023E3
S315080101604FF0010912F014FC20B300230022304697
S31508010170394612F00DFC4FF00103A0B15FFA89F977
S31508010180DBB2994507D02046294632463B4611F04F
S31508010190DBFF04460D462046294603B0BDE8F08F2D
S315080101A04FF00108C1E703465FFA89F9DBB29945C1
S315080101B0E9D1F0E7C146D8E732463B4650465946AB
S315080101C012F09EFA21F000490022194B4946804651
S315080101D011F0BAFF11F098FD02460B464046494612
S315080101E011F0B0FF0B46024623F000434046009249
S315080101F0019300220F4B494612F058F902460B4665
S31508010200DDE9000112F0CEFB4FF0010858B15FFAA3
S3150801021088F8B8F1000F9FD000240025204629460A
S3150801022003B0BDE8F08F80465FFA88F8F1E700BFB2
S315080102300000E03F0000B03C2DE9F0410999089C17
S3150801024091F800E0DDF82880054616461F46BEF1FE
S31508010250000F01D101230B702B785B00DBB25A0921
S3150801026007EE902AB8EEE77AF7EE007AB4EEE77A67
S31508010270F1EE10FAA372227307DDD8E90001002214
S315080102801B4B11F061FFC8E900012878C0096073AA
S315080102902B781B01DBB24FEA1318637284F80B80C3
S315080102A012F09EF832463B4612F068FB50B14046C2
S315080102B012F096F8DDE9062312F060FB4FF0010310
S315080102C098B1D8B220726B782370AB786370EB78EB
S315080102D0A3702B79E3706B792371AB796371EB7931
S315080102E0A3710023E371BDE8F0810346E9E700BF86
S315080102F00000F03F2DE9F0410999089C91F800E0CA
S31508010300DDF82880054616461F46BEF1000F01D1C5
S3150801031001230B702B785B00DBB25A0907EE902A92
S31508010320B8EEE77AF7EE007AB4EEE77AF1EE10FA6C
S31508010330A372227307DDD8E9000100221B4B11F0D5
S3150801034003FFC8E900012878C00960732B781B01EF
S31508010350DBB24FEA1318637284F80B8012F040F887
S3150801036032463B4612F00AFB50B1404612F038F8C5
S31508010370DDE9062312F002FB4FF0010398B1D8B26A
S3150801038020726B782370AB786370EB78A3702B7946
S31508010390E3706B792371AB796371EB79A3710023F0
S315080103A0E371BDE8F0810346E9E700BF0000F03FCD
S315080103B02DE9F0410799069C91F800E0DDF82080C7
S315080103C0054616461F46BEF1000F01D101230B70E3
S315080103D02B785B00DBB25A0907EE902AB8EEE77A6A
S315080103E0F7EE007AB4EEE77AF1EE10FAA372227309
S315080103F007DDD8E900010022154B11F0A5FEC8E971
S3150801040000016B782370AB786370EB78A3702B7956
S31508010410E3706B792371AB796371EB79A37100236F
S31508010420E3712B781B01DBB218096372E07211F0D4
S31508010430D7FF3B46324612F0A1FA4FF0010300B945
S31508010440034623722B78DB096373BDE8F08100BF8D
S315080104500000F03F2DE9F0410799069C91F800E06C
S31508010460DDF82080054616461F46BEF1000F01D16C
S3150801047001230B702B785B00DBB25A0907EE902A31
S31508010480B8EEE77AF7EE007AB4EEE77AF1EE10FA0B
S31508010490A372227307DDD8E900010022154B11F07A
S315080104A053FEC8E900016B782370AB786370EB786B
S315080104B0A3702B79E3706B792371AB796371EB794F
S315080104C0A3710023E3712B781B01DBB21809637250
S315080104D0E07211F085FF3B46324612F04FFA4FF0B3
S315080104E0010300B9034623722B78DB096373BDE860
S315080104F0F08100BF0000F03F2DE9F04F89B00746B3
S3150801050018999DF8488091F800E09DF84C909DF85F
S3150801051050A09DF85460169D1A9CBEF1000F01D19A
S3150801052001200870DFF830E110461946DEE900239C
S3150801053011F00AFECDE90001384611F041FF00220B
S31508010540434BCDE9020111F0FFFDDDE9002311F06E
S31508010550F9FD00220023CDE9060112F00FFA002861
S3150801056041D01D9B18781C9BC0015FFA80FB85F85A
S3150801057001B0D3E9000112F071FA0001C7B2199B63
S31508010580AF70D3E9000112F069FA38445844179B51
S31508010590207084F8018084F8029084F803A02671FB
S315080105A06671A671E6711B9A1B681360DDE9002363
S315080105B0DDE9020111F0C6FD0022002380468946C5
S315080105C012F0DCF90446002839D1224BD3E9006739
S315080105D0002200233046394612F0D0F9E8B12C70D2
S315080105E009B0BDE8F08F1B4B93ED007B0022002379
S315080105F051EC170B8DED047B12F0C0F90028D5D10B
S31508010600DDE90423DDE90601FFF77EFD002200236B
S3150801061012F0B4F90028C9D0A3E732463B46404652
S315080106204946FFF771FD0022002312F0A7F94FF0A2
S31508010630010448B1E4B22C7009B0BDE8F08F012479
S315080106402C7009B0BDE8F08F0446E4B2F3E700BFA9
S315080106500000F03F28000020380000202DE9F04F67
S3150801066089B0074618999DF8488091F800E09DF8E9
S315080106704C909DF850A09DF85460169D1A9CBEF1A9
S31508010680000F01D101200870DFF830E11046194644
S31508010690DEE9002311F058FDCDE90001384611F0D5
S315080106A08FFE0022434BCDE9020111F04DFDDDE934
S315080106B0002311F047FD00220023CDE9060112F0BF
S315080106C05DF9002841D01D9B18781C9BC0015FFA73
S315080106D080FB85F801B0D3E9000112F0BFF90001EA
S315080106E0C7B2199BAF70D3E9000112F0B7F93844C4
S315080106F05844179B207084F8018084F8029084F886
S3150801070003A026716671A671E6711B9A1B681360B0
S31508010710DDE90023DDE9020111F014FD00220023C1
S315080107208046894612F02AF90446002839D1224B17
S31508010730D3E90067002200233046394612F01EF934
S31508010740E8B12C7009B0BDE8F08F1B4B93ED007B27
S315080107500022002351EC170B8DED047B12F00EF9E4
S315080107600028D5D1DDE90423DDE90601FFF7CCFC34
S315080107700022002312F002F90028C9D0A3E7324665
S315080107803B4640464946FFF7BFFC0022002312F0CC
S31508010790F5F84FF0010448B1E4B22C7009B0BDE890
S315080107A0F08F01242C7009B0BDE8F08F0446E4B23D
S315080107B0F3E700BF0000F03F3000002040000020B2
S315080107C02DE9F0410799069C91F800E0DDF82080B3
S315080107D0054616461F46BEF1000F01D101230B70CF
S315080107E02B785B00DBB25A0907EE902AB8EEE77A56
S315080107F0F7EE007AB4EEE77AF1EE10FAA3722273F5
S3150801080007DDD8E900010022154B11F09DFCC8E966
S3150801081000016B782370AB786370EB78A3702B7942
S31508010820E3706B792371AB796371EB79A37100235B
S31508010830E3712878C009607311F0D2FD3B46324650
S3150801084012F09CF84FF0010300B9034623722B7886
S315080108501B01DBB21A096372E272BDE8F08100BFBF
S315080108600000F03F2DE9F0410799069C91F800E058
S31508010870DDF82080054616461F46BEF1000F01D158
S3150801088001230B702B785B00DBB25A0907EE902A1D
S31508010890B8EEE77AF7EE007AB4EEE77AF1EE10FAF7
S315080108A0A372227307DDD8E900010022154B11F066
S315080108B04BFCC8E900016B782370AB786370EB7861
S315080108C0A3702B79E3706B792371AB796371EB793B
S315080108D0A3710023E3712878C009607311F080FDC4
S315080108E03B46324612F04AF84FF0010300B9034677
S315080108F023722B781B01DBB21A096372E272BDE817
S31508010900F08100BF0000F03F2DE9F04F83B00C469F
S315080109100E9FDDF8348099460546324BD7E900012A
S315080109201646002211F010FC0123C7E9000189F8D7
S31508010930003023682C4A0C99013313602360D8F8D8
S31508010940003007EE903AB8EE677AF7EE007AB4EE21
S31508010950677AF1EE10FA05D1DFF888904FF00008B2
S31508010960C1E9008937780193384611F029FDDFF886
S3150801097084801E4A019B1360C8E900012B602F7110
S3150801098096F807E085F805E096F801C085F806C0EF
S3150801099096F8028085F8078096F8039085F80890FE
S315080109A096F804A085F809A096F805B0104C85F8C4
S315080109B00AB0B079E8721946A071234608220020C8
S315080109C0277084F805B084F804A084F8039084F8A5
S315080109D0028084F801C084F807E003B0BDE8F04F4F
S315080109E00BF0B8B80000F03FA4C0002098BD002065
S315080109F0F0060020D0C0002008B5012100200BF028
S31508010A00ADFA0B2100200BF0A9FA0C2100200BF0FE
S31508010A10A5FA0D2100200BF0A1FA152100200BF0F3
S31508010A209DFA162100200BF099FA172100200BF0E8
S31508010A3095FA182100200BF091FA19210020BDE83A
S31508010A4008400BF08BBA00BF2DE9F04F2DED088B4E
S31508010A500D460968E34CE44E83B0013121602960F3
S31508010A601699DDF85C900968316007EE901AB8EEC0
S31508010A70678AF7EE007AB4EE678AF1EE10FA1F4636
S31508010A8004469246EB7940F09A820BB90123EB7141
S31508010A90DFF85883002243460092104601210BF0E5
S31508010AA089FA002884F84B0040F3A28398F80130AC
S31508010AB0637698F80230A37698F80330E37698F8C7
S31508010AC004302377D6ED007A98F80530637798F8DD
S31508010AD00630A37798F8072098F80030E277F8EE01
S31508010AE0678A2376F2EE067AF4EE678AF1EE10FA51
S31508010AF0AB7940F0E3820BB90123AB71DFF8F082E1
S31508010B0000224346009210460B210BF053FA0028A7
S31508010B1084F84A0040F3838398F80130637498F89F
S31508010B200230A37498F80330E37498F804302375F7
S31508010B30D6ED007A98F80530637598F80630A375EE
S31508010B4098F8072098F80030E275B8EE679A23748A
S31508010B50F2EE087AB4EE679AF1EE10FA6B7940F084
S31508010B609C820BB901236B71DFF888820022434608
S31508010B70009210460C210BF01DFA002884F8490052
S31508010B8040F36183D6ED007A98F8073098F8062085
S31508010B9098F8051098F8040098F803E098F802C048
S31508010BA098F801B098F8008084F809B0F8EE679AC9
S31508010BB084F80AC084F80BE020736173A273E373A7
S31508010BC084F80880F2EE0A7AF4EE679AF1EE10FAE2
S31508010BD02B7940F050820BB901232B71DFF818826B
S31508010BE000224346009210460D210BF0E3F9002836
S31508010BF084F848001BDD98F801B098F802E098F8E7
S31508010C00030098F800C098F8041098F8052098F899
S31508010C10063098F8078084F8078084F801B084F8CC
S31508010C2000C084F802E0E07021716271A371D6ED0B
S31508010C30007AB8EE67AAF3EE057AB4EE67AAF1EE82
S31508010C4010FA2B7A40F0FD810BB901232B72DFF8DC
S31508010C50AC81002243460092104615210BF0AAF9F1
S31508010C60002884F84C0040F3E98298F8013084F8AA
S31508010C70213098F8023084F8223098F8033084F845
S31508010C80233098F8043084F82430D6ED007A98F8A1
S31508010C90053084F8253098F8063084F8263098F817
S31508010CA0072098F8003084F82720F8EE67AA84F818
S31508010CB02030F3EE067AF4EE67AAF1EE10FA6B7AB3
S31508010CC040F040820BB901236B72DFF834810022B0
S31508010CD043460092104616210BF06CF9002884F859
S31508010CE04D0040F3A68298F8013084F8293098F827
S31508010CF0023084F82A3098F8033084F82B3098F8B3
S31508010D00043084F82C30D6ED007A98F8053084F84A
S31508010D102D3098F8063084F82E3098F8072098F880
S31508010D20003084F82F20B8EE67BA84F82830F3EE3D
S31508010D30077AB4EE67BAF1EE10FA2B7B40F0D08150
S31508010D400BB901232B73DFF8BC80002243460092BE
S31508010D50104617210BF02EF9002884F8500040F3AD
S31508010D60638298F8013084F8413098F8023084F8A3
S31508010D70423098F8033084F8433098F8043084F800
S31508010D804430D6ED007A98F8053084F8453098F85D
S31508010D90063084F8463098F8072098F8003084F829
S31508010DA04720F8EE67BA84F84030F3EE087AF4EE95
S31508010DB067BAF1EE10FAEB7A40F0AB810BB9012371
S31508010DC0EB72DFF844800022434600921046182150
S31508010DD00BF0F0F8002884F84F00D6ED007A40F3BE
S31508010DE01B8213E038BD0020B4BD00208006002018
S31508010DF0C8060020D8060020E8060020880600203C
S31508010E0090060020A0060020B006002098F80130C0
S31508010E1084F8393098F8023084F83A3098F8033073
S31508010E2084F83B3098F8043084F83C3098F805305B
S31508010E3084F83D3098F8063084F83E3098F8072053
S31508010E4098F8003084F83F20F8EE677A84F838304D
S31508010E50B3EE097AF4EE477AF1EE10FAAB7A40F07E
S31508010E60D8800BB90123AB72C84D00222B460092DC
S31508010E70104619210BF09EF8002884F84E0017DD5C
S31508010E806B78AA7884F83130EB7884F8322084F8C4
S31508010E9033302A796B7984F83420A97984F8353086
S31508010EA0EA792B7884F8361084F8372084F83030BC
S31508010EB0F7EE007AB4EE678AF1EE10FA40F0928006
S31508010EC094F94B30207E94F819C094F81AE0E67E1E
S31508010ED0257F617FA27F07EE103AE37F99F80040EC
S31508010EE007EE904AF8EEE77AF7EE006AF4EE667ACC
S31508010EF0F1EE10FA15D1F8EEC77AF5EE407AF1EE71
S31508010F0010FA57D1189C4FF002084FF0010B89F8D7
S31508010F10008084F800B099F8004007EE904AF8EE90
S31508010F20E77AF0EE006AF4EE667AF1EE10FA37D156
S31508010F30B8EEC77AB7EE008AB4EEC87AF1EE10FABF
S31508010F4038DBFB71189B87F801C001243870BA7128
S31508010F5087F802E0FE703D7179711C70159B8C4A09
S31508010F601C704FF0030C89F800C0BAF800301380E2
S31508010F70149A138011F024FA169BD3ED007A854B47
S31508010F80F8EE677AC3E90001F4EE487AF1EE10FA51
S31508010F9000F0288199F8003007EE903AF8EEE77AE2
S31508010FA0F5EE407AF1EE10FA04D1189A012389F880
S31508010FB00030137003B0BDEC088BBDE8F08F73B138
S31508010FC0002380F84B30037643768376C37603771E
S31508010FD043778377C377F0EE488AEB7182E5F0EEC3
S31508010FE0488A7FE5F2EE067AF4EE678AF1EE10FAA0
S31508010FF040F0D28094F94A30207C94F811C094F8D4
S3150801100012E0E67C257D617DA27D07EE103AE37D3F
S3150801101064E7002B3FF44CAF002384F84E3084F884
S31508011020303084F8313084F8323084F8333084F83B
S31508011030343084F8353084F8363084F83730AB727A
S3150801104036E7002B00F09680002384F84C3084F8AC
S31508011050203084F8213084F8223084F8233084F84B
S31508011060243084F8253084F8263084F82730F0EEC9
S315080110704AAA2B721DE6002B00F08280002384F811
S31508011080483023706370A370E37023716371A37191
S31508011090E371B0EE69AA2B71CDE5002B73D000235D
S315080110A084F8493023726372A372E37223736373FC
S315080110B0A373E373F0EE499A6B7183E5002B00F095
S315080110C08B80002384F84A3023746374A374E37411
S315080110D023756375A375E375B0EE689AAB7137E549
S315080110E0002B76D0002384F8503084F8403084F8F9
S315080110F0413084F8423084F8433084F8443084F827
S31508011100453084F8463084F84730F0EE4BBA2B73F5
S315080111104BE6002B63D0002384F84F3084F838302F
S3150801112084F8393084F83A3084F83B3084F83C3016
S3150801113084F83D3084F83E3084F83F30F0EE6B7A1F
S31508011140EB7285E6CBB1002384F84D3084F828305C
S3150801115084F8293084F82A3084F82B3084F82C3026
S3150801116084F82D3084F82E3084F82F30B0EE6ABA20
S315080111706B72DCE5F0EE4AAA9BE5B0EE6ABAD6E5F3
S31508011180B0EE69AA57E5F0EE499A1BE5C0060020BC
S31508011190B0BD0020D8BD0020F2EE087AB4EE679AF9
S315080111A0F1EE10FA29D0F2EE0A7AF4EE679AF1EE28
S315080111B010FA4DD194F94830207894F801C094F882
S315080111C002E0E67825796179A27907EE103AE379A2
S315080111D084E6F0EE4BBAE8E5B0EE689AB8E4F0EECC
S315080111E06B7A35E65D4B19990022C1E90023D1E6F0
S315080111F0D6ED007AF8EE678A74E494F94930207AD4
S3150801120094F809C094F80AE0E67A257B617BA27B0B
S3150801121007EE103AE37B61E6F8EE677A18E6D6ED53
S31508011220007AB8EE679A93E4D6ED007AF8EE67BAD3
S31508011230BBE5D6ED007AB8EE67BA78E5D6ED007A61
S31508011240F8EE67AA35E5D6ED007AF8EE679AB9E4BD
S31508011250F3EE057AB4EE67AAF1EE10FA1BD0F3EEB7
S31508011260067AF4EE67AAF1EE10FA29D194F94D300F
S3150801127094F8280094F829C094F82AE094F82B6089
S3150801128094F82C5094F82D1094F82E2007EE103A65
S3150801129094F82F3022E694F94C3094F8200094F80B
S315080112A021C094F822E094F8236094F8245094F825
S315080112B0251094F8262007EE103A94F827300DE603
S315080112C0F3EE077AB4EE67BAF1EE10FA14D194F98F
S315080112D0503094F8400094F841C094F842E094F8EC
S315080112E0436094F8445094F8451094F8462007EE64
S315080112F0103A94F84730F1E5F3EE087AF4EE67BA56
S31508011300F1EE10FA14D194F94F3094F8380094F8A4
S3150801131039C094F83AE094F83B6094F83C5094F854
S315080113203D1094F83E2007EE103A94F83F30D5E583
S3150801133094F94E3094F8300094F831C094F832E0BC
S3150801134094F8336094F8345094F8351094F83620AC
S3150801135007EE103A94F83730C0E500BF0000F03FB9
S31508011360012108B508460AF0F9FD0B2101200AF00A
S31508011370F5FD0C2101200AF0F1FD0D2101200AF0ED
S31508011380EDFD152101200AF0E9FD162101200AF0DB
S31508011390E5FD172101200AF0E1FD182101200AF0D7
S315080113A0DDFD19210120BDE808400AF0D7BD00BFBF
S315080113B02DE9F04F2DED088B0D460968E34CE44EF7
S315080113C083B00131216029601699DDF85C900968BE
S315080113D0316007EE901AB8EE678AF7EE007AB4EE36
S315080113E0678AF1EE10FA1F4604469246EB7940F0F9
S315080113F09A820BB90123EB71DFF858830022012188
S315080114004346009208460AF0D5FD002884F84B00A9
S3150801141040F3A28398F80130637698F80230A376F0
S3150801142098F80330E37698F804302377D6ED007AF6
S3150801143098F80530637798F80630A37798F8072067
S3150801144098F80030E277F8EE678A2376F2EE067AA4
S31508011450F4EE678AF1EE10FAAB7940F0E3820BB944
S315080114600123AB71DFF8F0820022434600920B217B
S3150801147001200AF09FFD002884F84A0040F383837F
S3150801148098F80130637498F80230A37498F8033019
S31508011490E37498F804302375D6ED007A98F8053088
S315080114A0637598F80630A37598F8072098F8003000
S315080114B0E275B8EE679A2374F2EE087AB4EE679A83
S315080114C0F1EE10FA6B7940F09C820BB901236B712E
S315080114D0DFF888820022434600920C2101200AF097
S315080114E069FD002884F8490040F36183D6ED007A46
S315080114F098F8073098F8062098F8051098F8040027
S3150801150098F803E098F802C098F801B098F80080B6
S3150801151084F809B0F8EE679A84F80AC084F80BE0F3
S3150801152020736173A273E37384F80880F2EE0A7A72
S31508011530F4EE679AF1EE10FA2B7940F050820BB966
S3150801154001232B71DFF818820022434600920D21F0
S3150801155001200AF02FFD002884F848001BDD98F8C1
S3150801156001B098F802E098F8030098F800C098F8D6
S31508011570041098F8052098F8063098F8078084F83A
S31508011580078084F801B084F800C084F802E0E070AE
S3150801159021716271A371D6ED007AB8EE67AAF3EEEE
S315080115A0057AB4EE67AAF1EE10FA2B7A40F0FD81BE
S315080115B00BB901232B72DFF8AC8100224346009256
S315080115C0152101200AF0F6FC002884F84C0040F3A6
S315080115D0E98298F8013084F8213098F8023084F8C5
S315080115E0223098F8033084F8233098F8043084F8C8
S315080115F02430D6ED007A98F8053084F8253098F825
S31508011600063084F8263098F8072098F8003084F8D0
S315080116102720F8EE67AA84F82030F3EE067AF4EE6E
S3150801162067AAF1EE10FA6B7A40F040820BB90123F2
S315080116306B72DFF83481002243460092162101209D
S315080116400AF0B8FC002884F84D0040F3A68298F801
S31508011650013084F8293098F8023084F82A3098F84D
S31508011660033084F82B3098F8043084F82C30D6ED02
S31508011670007A98F8053084F82D3098F8063084F801
S315080116802E3098F8072098F8003084F82F20B8EE05
S3150801169067BA84F82830F3EE077AB4EE67BAF1EE42
S315080116A010FA2B7B40F0D0810BB901232B73DFF89D
S315080116B0BC80002243460092172101200AF07AFCD9
S315080116C0002884F8500040F3638298F8013084F8C2
S315080116D0413098F8023084F8423098F8033084F89B
S315080116E0433098F8043084F84430D6ED007A98F8F7
S315080116F0053084F8453098F8063084F8463098F86D
S31508011700072098F8003084F84720F8EE67BA84F87D
S315080117104030F3EE087AF4EE67BAF1EE10FAEB7A96
S3150801172040F0AB810BB90123EB72DFF8448000224C
S3150801173043460092182101200AF03CFC002884F84F
S315080117404F00D6ED007A40F31B8213E0F0BD00206E
S31508011750B8C000206806002070060020F8060020A0
S3150801176078060020A8060020B8060020D00600202A
S31508011770E006002098F8013084F8393098F80230EC
S3150801178084F83A3098F8033084F83B3098F80430F6
S3150801179084F83C3098F8053084F83D3098F80630DE
S315080117A084F83E3098F8072098F8003084F83F20EE
S315080117B0F8EE677A84F83830B3EE097AF4EE477AA8
S315080117C0F1EE10FAAB7A40F0D8800BB90123AB726F
S315080117D0C84D00222B460092192101200AF0EAFB86
S315080117E0002884F84E0017DD6B78AA7884F8313022
S315080117F0EB7884F8322084F833302A796B7984F8C7
S315080118003420A97984F83530EA792B7884F83610AA
S3150801181084F8372084F83030F7EE007AB4EE678A18
S31508011820F1EE10FA40F0928094F94B30207E94F84C
S3150801183019C094F81AE0E67E257F617FA27F07EE3C
S31508011840103AE37F99F8004007EE904AF8EEE77AF6
S31508011850F7EE006AF4EE667AF1EE10FA15D1F8EEB3
S31508011860C77AF5EE407AF1EE10FA57D1189C4FF087
S3150801187002084FF0010B89F8008084F800B099F846
S31508011880004007EE904AF8EEE77AF0EE006AF4EEC9
S31508011890667AF1EE10FA37D1B8EEC77AB7EE008A52
S315080118A0B4EEC87AF1EE10FA38DBFB71189B87F8AB
S315080118B001C001243870BA7187F802E0FE703D71E3
S315080118C079711C70159B8C4A1C704FF0030C89F8B2
S315080118D000C0BAF800301380149A138010F070FD16
S315080118E0169BD3ED007A854BF8EE677AC3E90001BA
S315080118F0F4EE487AF1EE10FA00F0288199F80030F2
S3150801190007EE903AF8EEE77AF5EE407AF1EE10FA3C
S3150801191004D1189A012389F80030137003B0BDEC7D
S31508011920088BBDE8F08F73B1002380F84B3003763E
S3150801193043768376C376037743778377C377F0EE67
S31508011940488AEB7182E5F0EE488A7FE5F2EE067A7F
S31508011950F4EE678AF1EE10FA40F0D28094F94A3033
S31508011960207C94F811C094F812E0E67C257D617D0F
S31508011970A27D07EE103AE37D64E7002B3FF44CAFF6
S31508011980002384F84E3084F8303084F8313084F8F6
S31508011990323084F8333084F8343084F8353084F8BA
S315080119A0363084F83730AB7236E7002B00F0968074
S315080119B0002384F84C3084F8203084F8213084F8E8
S315080119C0223084F8233084F8243084F8253084F8CA
S315080119D0263084F82730F0EE4AAA2B721DE6002B32
S315080119E000F08280002384F8483023706370A37066
S315080119F0E37023716371A371E371B0EE69AA2B7168
S31508011A00CDE5002B73D0002384F849302372637225
S31508011A10A372E37223736373A373E373F0EE499AB4
S31508011A206B7183E5002B00F08B80002384F84A3024
S31508011A3023746374A374E37423756375A375E375DB
S31508011A40B0EE689AAB7137E5002B76D0002384F89F
S31508011A50503084F8403084F8413084F8423084F8B4
S31508011A60433084F8443084F8453084F8463084F8A5
S31508011A704730F0EE4BBA2B734BE6002B63D00023AD
S31508011A8084F84F3084F8383084F8393084F83A309D
S31508011A9084F83B3084F83C3084F83D3084F83E3095
S31508011AA084F83F30F0EE6B7AEB7285E6CBB1002312
S31508011AB084F84D3084F8283084F8293084F82A309F
S31508011AC084F82B3084F82C3084F82D3084F82E30A5
S31508011AD084F82F30B0EE6ABA6B72DCE5F0EE4AAAEA
S31508011AE09BE5B0EE6ABAD6E5B0EE69AA57E5F0EE1F
S31508011AF0499A1BE598060020D8C00020C0C00020DE
S31508011B00F2EE087AB4EE679AF1EE10FA29D0F2EEFF
S31508011B100A7AF4EE679AF1EE10FA4DD194F9483043
S31508011B20207894F801C094F802E0E678257961797D
S31508011B30A27907EE103AE37984E6F0EE4BBAE8E5C6
S31508011B40B0EE689AB8E4F0EE6B7A35E65D4B199912
S31508011B500022C1E90023D1E6D6ED007AF8EE678ABC
S31508011B6074E494F94930207A94F809C094F80AE0A3
S31508011B70E67A257B617BA27B07EE103AE37B61E679
S31508011B80F8EE677A18E6D6ED007AB8EE679A93E426
S31508011B90D6ED007AF8EE67BABBE5D6ED007AB8EE6F
S31508011BA067BA78E5D6ED007AF8EE67AA35E5D6ED97
S31508011BB0007AF8EE679AB9E4F3EE057AB4EE67AA05
S31508011BC0F1EE10FA1BD0F3EE067AF4EE67AAF1EEFF
S31508011BD010FA29D194F94D3094F8280094F829C0BF
S31508011BE094F82AE094F82B6094F82C5094F82D1068
S31508011BF094F82E2007EE103A94F82F3022E694F93D
S31508011C004C3094F8200094F821C094F822E094F816
S31508011C10236094F8245094F8251094F8262007EEAA
S31508011C20103A94F827300DE6F3EE077AB4EE67BA60
S31508011C30F1EE10FA14D194F9503094F8400094F862
S31508011C4041C094F842E094F8436094F8445094F8FB
S31508011C50451094F8462007EE103A94F84730F1E516
S31508011C60F3EE087AF4EE67BAF1EE10FA14D194F9A4
S31508011C704F3094F8380094F839C094F83AE094F85B
S31508011C803B6094F83C5094F83D1094F83E2007EEDA
S31508011C90103A94F83F30D5E594F94E3094F830006F
S31508011CA094F831C094F832E094F8336094F83450DB
S31508011CB094F8351094F8362007EE103A94F8373030
S31508011CC0C0E500BF0000F03F2DE9F04F83B00C4698
S31508011CD00E9FDDF8348099460546324BD7E9000157
S31508011CE01646002210F030FA0123C7E9000189F8E7
S31508011CF0003023682C4A0C99013313602360D8F805
S31508011D00003007EE903AB8EE677AF7EE007AB4EE4D
S31508011D10677AF1EE10FA05D1DFF888904FF00008DE
S31508011D20C1E9008937780193384610F049FBDFF895
S31508011D3084801E4A019B1360C8E900012B602F713C
S31508011D4096F807E085F805E096F801C085F806C01B
S31508011D5096F8028085F8078096F8039085F808902A
S31508011D6096F804A085F809A096F805B0104C85F8F0
S31508011D700AB0B079E8721946A071234608220120F3
S31508011D80277084F805B084F804A084F8039084F8D1
S31508011D90028084F801C084F807E003B0BDE8F04F7B
S31508011DA009F0D8BE0000F03F00BE00203CBB002071
S31508011DB0F006002060BD00204B780BB901234B705B
S31508011DC00B7833B100230B700370194603200BF00F
S31508011DD0D1BD01230B700370194603200BF0CABD50
S31508011DE02DE9F04F85B00E9D109C002800F0318139
S31508011DF0217809B9012121701F46129B18881646B8
S31508011E0010F0EEFA8046894602460B4630463946B8
S31508011E1010F0B4FD08B100232B7042464B463046FC
S31508011E20394610F0B5FD002800F025811799AF4B0A
S31508011E300022D1E9000110F0B5FDA378002800F0D1
S31508011E402E810BB90123A370A94B3046D3E9002390
S31508011E50394610F079F9129B80461888894610F0A0
S31508011E60AFFA0022A34B82468B4610F06DF9424623
S31508011E704B4610F067F900220023CDE9000110F066
S31508011E807DFD002800F01581199B93F800A0179B8A
S31508011E904FEACA1A5FFA8AFA85F805A0D3E900015A
S31508011EA010F0DCFD00015FFA80FB119B85F806B096
S31508011EB0D3E9000110F0D2FD139B139A50445844FC
S31508011EC018702B7853702B7893702B78D3702B78E6
S31508011ED013712B7853712B7893712B78D3710F9BD0
S31508011EE0159A5B681360129B188810F069FA4246C6
S31508011EF04B4610F027F9002200238046894610F048
S31508011F003DFD002840F0D2807B4BD3E900AB00228F
S31508011F1000235046594610F031FD002840F0E28072
S31508011F2052465B4640464946FEF7EEF80023002234
S31508011F3010F024FD4FF0010300B90346DBB2AB7084
S31508011F4018996A4B0022D1E9000110F02BFD0028EF
S31508011F5000F09C8063780BB901236370674B3046A8
S31508011F60D3E90023394610F0EFF8129B0646188884
S31508011F700F4610F025FA00225E4B8046894610F07E
S31508011F80E3F832463B4610F0DDF80022002382468C
S31508011F908B4610F0F3FC002800F0B480199B1878E2
S31508011FA0189BC0015FFA80F885F80380D3E9000120
S31508011FB010F054FD0001C4B2119B2C71D3E9000144
S31508011FC010F04CFD149B149A2044404418702B7849
S31508011FD053702B7893702B78D3702B7813712B78D9
S31508011FE053712B7893712B78D3710F9B169A1B68B3
S31508011FF01360129B188810F0E3F932463B4610F03D
S31508012000A1F8002200238046894610F0B7FC002873
S3150801201040F092803A4BD3E900670022002330460C
S31508012020394610F0ABFC002840F0838032463B4627
S3150801203040464946FEF768F80023002210F09EFC48
S315080120404FF0010300B90346DBB26B7005B0BDE87A
S31508012050F08F2378002BF9D0A3780BB1A870A07064
S3150801206063780BB1002363700023AB706B70237028
S3150801207005B0BDE8F08FA378A3B942464B46304672
S31508012080394610F085FC00287FF45AAF6378002B97
S31508012090DCD000236B70637005B0BDE8F08F002BB0
S315080120A03FF44EAF0023AB70A370E6E70123AB7094
S315080120B046E7114B93ED007B0022002351EC170BE9
S315080120C08DED027B10F05AFC00284AD042464B4659
S315080120D05046594610F036F80022002310F04EFCFF
S315080120E00028E3D10023AB702AE700BF00001C409B
S315080120F0380000200000F03F2800002040000020A2
S3150801210030000020204B93ED007B0022002351EC88
S31508012110170B8DED007B10F031FC80B132463B4642
S315080121204046494610F00EF80022002310F026FC1E
S3150801213010B900236B7089E701236B7086E7DDE927
S31508012140002350465946FDF7DFFF0022002310F011
S3150801215015FC00287FF422AF129B188810F030F97D
S315080121604BE7DDE90223DDE90001FDF7CDFF00229A
S31508012170002310F003FC00287FF486AE129B188812
S3150801218010F01EF9B3E600BF300000200B791BB131
S315080121900023C37103720B714B7843B1CB7813B12A
S315080121A000238370CB708B7843B900234B700023CF
S315080121B08370C371437003720B70704700238B7071
S315080121C0F3E700BF2DE9F04F9BB016462F9A1392FD
S315080121D0309A1492319A1592329A16921F46339A68
S315080121E0299B10930B922B9B349A0A930C922C9B46
S315080121F0359A11930D922D9B369A129326AC249DEE
S31508012200DDF89480DDF8A8B02E9B0E9294E81006AE
S31508012210379A0F92389A1792002840D022780AB92D
S3150801222001222270CDE91867D3E900670022304BF5
S315080122303046394610F0A2FB4FF0010E002833D084
S315080122403046394600222A4B5FFA8EF610F096FB85
S31508012250002832D023791BB10023EB712B7223712D
S315080122600F9B2F930E9B2E930D9B2D930C9B2C93BB
S315080122700B9B2B930A9B2A93DDE9182301343046DD
S315080122802694CDF8A4B0CDF8A0A0CDF89C90CDF8B1
S31508012290948024951BB0BDE8F04FFFF7A1BD2378C4
S315080122A023B91BB0BDE8F08F8646C9E72146284603
S315080122B01BB0BDE8F04FFFF769BF179A0992169A46
S315080122C00892159A0792149A0692139A0592129AE7
S315080122D00492119A0392231D109A02928DE808041A
S315080122E0EA1D08F10803DDE91801FDF7A7FEB7E7BE
S315080122F00000F03F2DE9F04F85B00E9D109C002897
S3150801230000F03481217809B9012121701F46129BF9
S315080123101888164610F064F88046894602460B4628
S315080123203046394610F02AFB20B100232B70159B45
S315080123301B786B7042464B463046394610F028FBEF
S31508012340002800F025811899AE4B0022D1E9000139
S3150801235010F028FBA378002800F02E810BB9012381
S31508012360A370A94B3046D3E9002339460FF0ECFE9A
S31508012370129B80461888894610F022F80022A34B42
S3150801238082468B460FF0E0FE42464B460FF0DAFED8
S3150801239000220023CDE9000110F0F0FA002800F030
S315080123A015811A9B93F800A0189B4FEACA1A5FFA7F
S315080123B08AFA85F806A0D3E9000110F04FFB00015F
S315080123C05FFA80FB119B85F807B0D3E9000110F08D
S315080123D045FB139B139A5044584418706B785370F5
S315080123E02B7893702B78D3702B7813712B785371C4
S315080123F02B7893712B78D3710F9B169A5B681360B0
S31508012400129B18880FF0DCFF42464B460FF09AFEE6
S31508012410002200238046894610F0B0FA002840F0D1
S31508012420D2807B4BD3E900AB0022002350465946A4
S3150801243010F0A4FA002840F0E28052465B46404676
S315080124404946FDF761FE0023002210F097FA4FF086
S31508012450010300B90346DBB2EB701999694B0022F7
S31508012460D1E9000110F09EFA002800F09C806378FB
S315080124700BB901236370674B3046D3E9002339460C
S315080124800FF062FE129B064618880F460FF098FF5A
S3150801249000225E4B804689460FF056FE32463B4681
S315080124A00FF050FE0022002382468B4610F066FA92
S315080124B0002800F0B3801A9B1878199BC0015FFAAF
S315080124C080F885F80480D3E9000110F0C7FA000105
S315080124D0C4B2119B6C71D3E9000110F0BFFA149BC9
S315080124E0149A2044404418706B7853702B78937073
S315080124F02B78D3702B7813712B7853712B789371B2
S315080125002B78D3710F9B179A1B681360129B188837
S315080125100FF056FF32463B460FF014FE0022002309
S315080125208046894610F02AFA002840F091803A4BF5
S31508012530D3E90067002200233046394610F01EFA17
S31508012540002840F0828032463B4640464946FDF720
S31508012550DBFD0023002210F011FA4FF0010300B948
S315080125600346DBB2AB7005B0BDE8F08F2378002BCC
S31508012570F9D0A3780BB1E870A07063780BB100238A
S3150801258063700023EB70AB70237005B0BDE8F08F64
S31508012590A378A3B942464B463046394610F0F8F9B6
S315080125A000287FF45AAF6378002BDCD00023AB7088
S315080125B0637005B0BDE8F08F002B3FF44EAF0023E2
S315080125C0EB70A370E6E70123EB7046E7104B93ED3A
S315080125D0007B0022002351EC170B8DED027B10F0D6
S315080125E0CDF9002849D042464B46504659460FF088
S315080125F0A9FD0022002310F0C1F90028E3D1002328
S31508012600EB702AE700001C40380000200000F03F6C
S31508012610280000204000002030000020204B93EDC8
S31508012620007B0022002351EC170B8DED007B10F087
S31508012630A5F980B132463B46404649460FF082FD30
S315080126400022002310F09AF910B90023AB708AE72B
S315080126500123AB7087E7DDE9002350465946FDF7AC
S3150801266053FD0022002310F089F900287FF423AFD7
S31508012670129B18880FF0A4FE4CE7DDE90223DDE979
S315080126800001FDF741FD0022002310F077F900282B
S315080126907FF487AE129B18880FF092FEB4E600BF4E
S315080126A030000020F0B585B00EAC70CC002830D0D3
S315080126B0287808B9012028701846174600295FD1DD
S315080126C0AB78002B4DD1002F4FD16B78002B45D11C
S315080126D0A37D002B2DD0637D3370A37B7370E37BC1
S315080126E0B370237CF370637C3371A37C7371E37CD1
S315080126F0B371237DF371A37D002B2DD1237A00338A
S3150801270018BF012313990B70119B01221A7005B08A
S31508012710F0BD2B78002BFAD0AB780BB1A075A87059
S315080127206B7813B1002323726B7000232B7005B0ED
S31508012730F0BDE3793370237873706378B370A37847
S31508012740F370E3783371237973716379B371A3797C
S31508012750F371A37D002BD1D00123D3E727726F70C4
S31508012760B6E7A175A970002FAFD0129B0293013568
S3150801277001950094DDE90C230A98FDF76BFEA7E79E
S3150801278004F10E02129B0293A91C00920191DDE944
S315080127900C23FDF70DFE96E738B521F000430D46EB
S315080127A000221946154B044610F0F2F8C8B100226A
S315080127B0134B2046294610F0FFF8A8B90022114B01
S315080127C02046294610F002F948B9204629460C4BFD
S315080127D000220FF0B7FCBDE838400FF00DBA00240F
S315080127E000252046294638BD20462946044B0022A5
S315080127F00FF0AAFCBDE838400FF086BA0000304356
S315080128000000E03F0000E0BF38B505460021022080
S3150801281001240BF07DF885F8B740FEF7EDF8FEF7D1
S315080128209FFD002108460BF073F8204600210BF0A6
S315080128306FF8002110200BF06BF8002104200BF033
S3150801284067F8002112200BF063F8002113200BF022
S315080128505FF800210E200BF05BF800210F200BF02A
S3150801286057F800210320BDE838400BF051B800BFE6
S315080128702DE9F04F2DED068B9146ADF5237D92F8A6
S31508012880F620DDF8C882DDF800A3169383460D46C7
S3150801289012B9012389F8F63099F8B630002B00F001
S315080128A05085002389F8B63019468BF83330022053
S315080128B00BF060F899F8B730002B00F0818099F891
S315080128C0F23013B9012389F8F230BA9B1B78002B31
S315080128D040F0E987BB9B1C78003418BF0124169B7E
S315080128E0D3E900670022324B3046394610F046F8E4
S315080128F048B900224FF080433046394610F03EF879
S31508012900002801F0F98299F8CB30002B01F0FD82FD
S3150801291099F8F330002B01F0FF82002C41F0FA847C
S3150801292099F8CB309BB1224BB3990022C1E9002318
S31508012930B5F89831A8F8003095F89D3189F8B03086
S3150801294099F8CB301BB11A4B0022C9E90623BA9B69
S31508012950174900269FED147B1E70BB9B00201E7035
S3150801296089ED227BCBE900013346D9E9226789F84B
S31508012970B73030460F4B3946002210F01DF84FF09C
S31508012980010300B9034689F8CB300022094B3046CA
S31508012990394610F011F8002803F0D186064B0022BB
S315080129A0C9E9222319E000BF000000000000000069
S315080129B00000F03F00807A400000F0BF0000544359
S315080129C099F8F220002A00F0C98499F8F320002A20
S315080129D041F08F84002389F8F230B8F800301FEDF2
S315080129E0097A07EE903AF8EEE77AF4EE477AF1EECD
S315080129F010FA14D10023A8F8003099F8B0402046FF
S31508012A000FF0EEFCD5E962230FF0C2FF002801F0B2
S31508012A10A8820134474BE4B21C7089F8B04099F892
S31508012A20B730002B00F0A88499F8CC30002B00F0C1
S31508012A30AB8299F8D630002B00F0008299F8E53080
S31508012A40002B00F0088199F8E930C3B199F8EA300A
S31508012A5093B199F8223123B100238BF8693189F8AA
S31508012A60223199F8213123B100238BF85B3189F89A
S31508012A702131002389F8EA30002389F8E93099F8E9
S31508012A80E830C3B199F81E3193B199F8203123B1D1
S31508012A9000238BF84D3189F8203199F81F3123B17C
S31508012AA000238BF83F3189F81F31002389F81E313D
S31508012AB0002389F8E83099F8E730C3B199F81B3152
S31508012AC093B199F81D3123B100238BF8313189F877
S31508012AD01D3199F81C3123B100238BF8233189F86C
S31508012AE01C31002389F81B31002389F8E73099F84E
S31508012AF0E630C3B199F8183193B199F81A3123B16F
S31508012B0000238BF8153189F81A3199F8193123B14F
S31508012B1000238BF8073189F81931002389F8183110
S31508012B20002389F8E63099F82F31002B44F03883D1
S31508012B3002E000BF78BD002099F8ED3043B399F85B
S31508012B402E3133B100238BF88B318BF88C3189F810
S31508012B502E3199F82B3183B199F82D3123B1002300
S31508012B608BF8863189F82D3199F82C3113B1002368
S31508012B7089F82C31002389F82B3100238BF886310B
S31508012B808BF88B318BF885318BF88C3189F8ED30E0
S31508012B9099F8EC3043B399F82A3133B100238BF80D
S31508012BA081318BF8823189F82A3199F8273183B135
S31508012BB099F8293123B100238BF87C3189F8293119
S31508012BC099F8283113B1002389F82831002389F8A7
S31508012BD0273100238BF87C318BF881318BF87B31D7
S31508012BE08BF8823189F8EC3099F8EB3043B399F8D0
S31508012BF0263133B100238BF877318BF8783189F890
S31508012C00263199F8233183B199F8253123B1002367
S31508012C108BF8723189F8253199F8243113B10023DB
S31508012C2089F82431002389F8233100238BF872317E
S31508012C308BF877318BF871318BF8783189F8EB306D
S31508012C4000238BF829308BF82C308BF82A308BF837
S31508012C502B3089F8E53099F8D730002B00F0E3805E
S31508012C6099F8DC30C3B199F8DD3093B199F80F3191
S31508012C7023B100238BF8DF3089F80F3199F80E312B
S31508012C8023B100238BF8D13089F80E31002389F856
S31508012C90DD30002389F8DC3099F8DA30C3B199F8C8
S31508012CA0DB3093B199F80D3123B100238BF8BD3090
S31508012CB089F80D3199F80C3123B100238BF8AF301F
S31508012CC089F80C31002389F8DB30002389F8DA30DA
S31508012CD099F8D830C3B199F8D93093B199F80B312D
S31508012CE023B100238BF8A13089F80B3199F80A3101
S31508012CF023B100238BF8933089F80A31002389F828
S31508012D00D930002389F8D83099F8E33043B399F8D4
S31508012D10173133B100238BF8FD308BF8FE3089F873
S31508012D20173199F8E43083B199F8163123B10023A4
S31508012D308BF8FA3089F8163199F8153113B1002351
S31508012D4089F81531002389F8E43000238BF8FA3025
S31508012D508BF8FD308BF8F7308BF8FE3089F8E330C5
S31508012D6099F8E23043B399F8143133B100238BF85B
S31508012D70F2308BF8F33089F8143199F8113183B1AF
S31508012D8099F8133123B100238BF8ED3089F8133103
S31508012D9099F8123113B1002389F81231002389F801
S31508012DA0113100238BF8ED308BF8F2308BF8EC30CB
S31508012DB08BF8F33089F8E23099F8DE3043B399F8A5
S31508012DC0103133B100238BF8E9308BF8EA3089F8F2
S31508012DD0103199F8DF3083B199F8E13023B1002336
S31508012DE08BF8283089F8E13099F8E03013B10023DF
S31508012DF089F8E030002389F8DF3000238BF8283082
S31508012E008BF8E9308BF827308BF8EA3089F8DE3011
S31508012E1000238BF823308BF824308BF825308BF878
S31508012E20263089F8D73000238BF81F308BF82030ED
S31508012E308BF821308BF8223089F8D63099F8CD30C5
S31508012E40002B00F0968099F8D3305BB399F8D4300B
S31508012E50C3B199F8D53093B199F8043123B1002358
S31508012E608BF87C3089F8043199F8033123B10023B2
S31508012E708BF86E3089F80331002389F8D5300023A1
S31508012E8089F8D43099F80531002B44F07181002373
S31508012E908BF884308BF883308BF889308BF88A303D
S31508012EA089F8D33099F8CE30002B57D099F8CF301E
S31508012EB0C3B199F8D03093B199F8FA3023B1002308
S31508012EC08BF84C3089F8FA3099F8F93023B1002398
S31508012ED08BF83E3089F8F930002389F8D030002381
S31508012EE089F8CF3099F8D13043B399F8023133B123
S31508012EF000238BF864308BF8653089F8023199F82C
S31508012F00D23083B199F8013123B100238BF86130AE
S31508012F1089F8013199F8003113B1002389F8003194
S31508012F20002389F8D23000238BF861308BF864309E
S31508012F308BF85E308BF8653089F8D13099F8FB301B
S31508012F40002B44F01D8100238BF81B308BF81E30B3
S31508012F508BF81D308BF81C3089F8CE3000238BF89E
S31508012F6017308BF818308BF819308BF81A3089F826
S31508012F70CD3000238BF813308BF814308BF81530CD
S31508012F808BF8163089F8CC309BF81530002B40F0B9
S31508012F90A08799F8B740003418BF012499F8AC30D6
S31508012FA0DE0600F1818743F0100389F8AC309BF8FF
S31508012FB01330002B40F07D8799F8AC301D0700F1DE
S31508012FC0368799F8AC3043F0080389F8AC30002C01
S31508012FD040F03087DBB299F8B720002A40F0F08636
S31508012FE09BF81620002A40F0EB865A0705D499F873
S31508012FF0AC3043F0040389F8AC309C075CBF43F05E
S31508013000020389F8AC309BF81430002B40F0648732
S315080130109AF80030002B00F02E8799F8F83013B98A
S31508013020012389F8F83099F8BC30002B00F0948711
S31508013030002389F8BC3000208AF8000099F8BC10F2
S315080130408BF83510002940F0828708460AF092FC71
S3150801305099F8B830002B00F0058799F8F73013B9BD
S31508013060012389F8F73099F8BD30002B00F09F87C6
S31508013070002389F8BD3089F8B83019468BF8343001
S3150801308001200AF077FC99F8B930002B00F0C686C2
S3150801309099F8F43013B9012389F8F43099F8BF3057
S315080130A0002B00F07787002389F8BF3089F8B930FB
S315080130B019468BF8313010200AF05CFC99F8F53086
S315080130C013B9012389F8F53099F8BE30002B00F0C1
S315080130D0A286002389F8BE3019468BF832300420BF
S315080130E00AF048FCC19900230022D1E900010FF03A
S315080130F045FC99F8F130002840F0858613B901237B
S3150801310089F8F13099F8B330002B00F011870023C4
S3150801311089F8B3308BF83030C19B00210020C3E910
S3150801312000019BF8301001B1012112200AF022FC9E
S31508013130C29900230022D1E900010FF01FFC99F87A
S31508013140F030002840F0578613B9012389F8F0308A
S3150801315099F8B230002B00F0E686002389F8B230E0
S315080131608BF82F30C29B00210020C3E900019BF890
S315080131702F1001B1012113200AF0FCFBC39900238A
S315080131800022D1E900010FF0F9FB99F8EF30002888
S3150801319040F0828613B9012389F8EF3099F8B530E2
S315080131A0002B00F0CF86002389F8B5308BF82E3036
S315080131B0C39B00210020C3E900019BF82E1001B131
S315080131C001210E200AF0D6FBC49900230022D1E979
S315080131D000010FF0D3FB99F8EE30002840F0548631
S315080131E013B9012389F8EE3099F8B430002B00F0B1
S315080131F0A486002389F8B4308BF82D30C49B0021AE
S315080132000020C3E900019BF82D1001B101210F200F
S315080132100AF0B0FB99F8C030002B00F0B38599F895
S31508013220B03007EE903AF8EEE77AF5EE407AF1EE2D
S3150801323010FA40F09C8614230DF5A47AA02242497F
S31508013240C9F8A430C9F8A83050460FF02DFCA022C1
S315080132503E497AA80FF028FCB8F800301693DAE947
S31508013260004518460FF0BCF822462B46CDE9180151
S315080132700FF0ACFB002804F00F80CDF86890CDF86C
S31508013280C882DDE91889324F00260022304B3046C4
S3150801329039460EF059FF0F4606460FF0B7FB0AEB03
S315080132A0C00050E9024542464B46204629460FF0E2
S315080132B06FFB0028E9D10022254BDDF86890DDF87F
S315080132C0C882304639460EF03DFF0FF09FFB0138A4
S315080132D0C600A2AB334453E92801002200230FF0AC
S315080132E04DFB0746002840F0CF8316980FF068F883
S315080132F002460B4620462946CDE916230EF022FF43
S31508013300FFF74AFA0022134B04460D460FF040FB1D
S31508013310002800F0E88700220023204629460FF0FE
S315080133204BFB002803F0E787204629460FF096FB5A
S3150801333080B2431E984285F0B1860022002300F030
S31508013340F5BC0123FFF7AEBA00C0000800C10008AA
S315080133500000F03F0000F04000005443B8F8003088
S315080133601FED037A07EE903AF8EEE77AF4EE477A1C
S31508013370F1EE10FA3FF43EAB99F8CC3013B90123BC
S3150801338089F8CC30169BD3E9006700224C4B3046AE
S3150801339039460FF0F3FA002840F0888200224FF0F0
S315080133A08043304639460FF0E9FA002840F07E821C
S315080133B00022444B304639460FF0E0FA002840F027
S315080133C0758299F8D630002B00F0DC8199F8E53042
S315080133D0002B00F0088199F8E930BBB199F8EA3079
S315080133E08BB199F822311BB18BF8690189F8220151
S315080133F099F8213123B100238BF85B3189F8213102
S31508013400002389F8EA30002389F8E93099F8E83089
S31508013410C3B199F81E3193B199F8203123B100232C
S315080134208BF84D3189F8203199F81F3123B10023E2
S315080134308BF83F3189F81F31002389F81E310023A3
S3150801344089F8E83099F8E730C3B199F81B3193B197
S3150801345099F81D3123B100238BF8313189F81D31D3
S3150801346099F81C3123B100238BF8233189F81C31D3
S31508013470002389F81B31002389F8E73099F8E630EB
S31508013480C3B199F8183193B199F81A3123B10023C8
S315080134908BF8153189F81A3199F8193123B10023B6
S315080134A08BF8073189F81931002389F81831002377
S315080134B089F8E63099F82F31002B43F0798603E035
S315080134C00000F03F0000084099F8ED3043B399F841
S315080134D02E3133B100238BF88B318BF88C3189F877
S315080134E02E3199F82B3183B199F82D3123B1002367
S315080134F08BF8863189F82D3199F82C3113B10023CF
S3150801350089F82C31002389F82B3100238BF8863171
S315080135108BF88B318BF885318BF88C3189F8ED3046
S3150801352099F8EC3043B399F82A3133B100238BF873
S3150801353081318BF8823189F82A3199F8273183B19B
S3150801354099F8293123B100238BF87C3189F829317F
S3150801355099F8283113B1002389F82831002389F80D
S31508013560273100238BF87C318BF881318BF87B313D
S315080135708BF8823189F8EC3099F8EB3043B399F836
S31508013580263133B100238BF877318BF8783189F8F6
S31508013590263199F8233183B199F8253123B10023CE
S315080135A08BF8723189F8253199F8243113B1002342
S315080135B089F82431002389F8233100238BF87231E5
S315080135C08BF877318BF871318BF8783189F8EB30D4
S315080135D000238BF829308BF82C308BF82A308BF89E
S315080135E02B3089F8E53099F8D730002B00F0BC80EC
S315080135F099F8DC30C3B199F8DD3093B199F80F31F8
S3150801360023B100238BF8DF3089F80F3199F80E3191
S3150801361023B100238BF8D13089F80E31002389F8BC
S31508013620DD30002389F8DC3099F8DA30C3B199F82E
S31508013630DB3093B199F80D3123B100238BF8BD30F6
S3150801364089F80D3199F80C3123B100238BF8AF3085
S3150801365089F80C31002389F8DB30002389F8DA3040
S3150801366099F8D830C3B199F8D93093B199F80B3193
S3150801367023B100238BF8A13089F80B3199F80A3167
S3150801368023B100238BF8933089F80A31002389F88E
S31508013690D930002389F8D83099F8E33043B399F83B
S315080136A0173133B100238BF8FD308BF8FE3089F8DA
S315080136B0173199F8E43083B199F8163123B100230B
S315080136C08BF8FA3089F8163199F8153113B10023B8
S315080136D089F81531002389F8E43000238BF8FA308C
S315080136E08BF8FD308BF8F7308BF8FE3089F8E3302C
S315080136F099F8E23043B399F8143133B100238BF8C2
S31508013700F2308BF8F33089F8143199F8113183B115
S3150801371099F8133123B100238BF8ED3089F8133169
S3150801372099F8123113B1002389F81231002389F867
S31508013730113100238BF8ED308BF8F2308BF8EC3031
S315080137408BF8F33089F8E23099F8DE30002B43F034
S315080137508E8400238BF823308BF824308BF82530A0
S315080137608BF8263089F8D7300023169A8BF81F3044
S315080137708BF820308BF821308BF8223089F8D63037
S31508013780D2E900671893B64B3046394600220FF046
S31508013790F5F899F8CD30002802F0258713B90123E9
S315080137A089F8CD3099F8B03008EE103AB8EEC88AE3
S315080137B099F8D330B5EE408AF1EE10FA43F0D88085
S315080137C013B9012389F8D330B8F80070DFEDA58A5B
S315080137D007EE907AB8EEE79AB4EEE89AF1EE10FAA7
S315080137E0C1F2E88138460EF0FBFDD5E91A230FF040
S315080137F0CFF8002801F0DE81B4EE689AF1EE10FAEE
S3150801380043F0C28699F8BA30002B0CBF0123002376
S3150801381089F8B83004F00780B8F8004007EE904AF6
S31508013820F8EEE78ADFED907A904A99F8C33013707B
S31508013830F4EE678AF1EE10FA41F0BF81002B03F02E
S31508013840EB8195F8A13189F8C330BA9A95F8A13177
S315080138501370BB9A95F8A131137095F8A13189F8BF
S31508013860C03095F8A21189F8B710B3990022002340
S31508013870C9E90623C1E90023BE9A95F89B3113705D
S31508013880BF9A95F89B311370BC9A01231360BD9AB0
S3150801389013608AF80030B8F8004007EE904AF8EE4F
S315080138A0E78A01F08AB90124FFF719B899F8D630E1
S315080138B013B9012389F8D63099F8B03008EE903A51
S315080138C0F8EEE88A99F8E530F5EE408AF1EE10FA55
S315080138D040F0968313B9012389F8E530B8F800302A
S315080138E09FED639A189307EE903AB8EEE78AB4EE1D
S315080138F0C98AF1EE10FAC0F2958518460EF070FDE8
S31508013900D5E940230FF044F8002800F08B85B4EE82
S31508013910498AF1EE10FA40F08585169BD3E90067CE
S315080139200022544B304639460FF028F8002843F058
S31508013930A38699F8C730002B04F0E5821C90394616
S31508013940304600224FF080430FF018F80027002870
S3150801395005F0378399F8C630002B43F0A686454B08
S31508013960D9E9180100220EF0EFFBC9E91801012374
S315080139701E9399F8BA60002E44F08383B39B93EDA6
S31508013980007B00223C4B51EC170B8DED1A7B0EF098
S31508013990F5FF002804F09C851699374B0022D1E9DA
S315080139A000010EF0EBFF002804F0708334462096E0
S315080139B033461C9A002A44F0B582002F43F0E98663
S315080139C01E9A002A43F0E586002B43F0E286002C76
S315080139D043F0DF869DF88030284A89F8B830D9E95E
S315080139E01C01C2E90001C9E91C01002F03F0CA86BE
S315080139F0204B0022D9E91E010EF0A6FB204BC3E994
S31508013A0000011E9BC9E91E01002B04F07B80194B9E
S31508013A100022D9E920010EF097FB1A4BC3E90001F0
S31508013A20C9E9200186B9169BB399D3E90023D1E9DF
S31508013A3000010EF0A3FF38B9D9E91A0100220D4B8E
S31508013A400EF082FBC9E91A0101238AF80030B8F899
S31508013A50004007EE904AB8EEE79A00F0E6BC00BFD0
S31508013A60000014400000404200004842B2BD002058
S31508013A70000044430000F03F0000084058BD002004
S31508013A8020BE0020A8BD002016980EF099FCB2446D
S31508013A90DAE90023CDE916010EF054FBFEF77CFEA8
S31508013AA00022C24B04460D460EF072FF002800F0B4
S31508013AB0288400220023204629460EF07DFF00288F
S31508013AC003F0F483294620460EF0C8FF80B21A9007
S31508013AD00EF076FCCDE91801B54BD3E90067DDE9AF
S31508013AE0180132463B460EF02DFBFEF755FE002225
S31508013AF0AE4B04460D460EF04BFF002802F0338705
S31508013B0000220023204629460EF056FF002803F01E
S31508013B10D883204629460EF0A1FF80B20EF050FC4C
S31508013B20A44BD3E9004522462B460EF0E9FDFEF7E4
S31508013B3033FE00229D4BCDE91C010EF029FF00281A
S31508013B4002F00C8700220023DDE91C010EF034FF88
S31508013B50002803F0B283DDE91C010EF07FFF80B275
S31508013B600130B0F5803F02F0F9860EF029FC0246D5
S31508013B700B46204629460EF099FCFEF70DFE00225B
S31508013B808A4B04460D460EF003FF002803F0128007
S31508013B9000220023204629460EF00EFF002803F0D6
S31508013BA0A683294620460EF059FF80B20EF008FC7E
S31508013BB002460B46304639460EF0C6FAFEF7ECFDCC
S31508013BC000227A4B04460D460EF0E2FE002802F06A
S31508013BD0ED8700220023204629460EF0EDFE002837
S31508013BE003F08283204629460EF038FF1FFA80FA31
S31508013BF0714BD3E90045DDE9180122462B460EF043
S31508013C00A1FAFEF7C9FD0022684B06460F460EF0DB
S31508013C10BFFE002802F0D38700220023304639462A
S31508013C200EF0CAFE002803F05B83304639460EF0D3
S31508013C3015FF80B20EF0C4FB604BD3E9006732462C
S31508013C403B460EF05DFDFEF7A7FD0022574BCDE979
S31508013C5018010EF09DFE002802F07B860022002343
S31508013C60DDE918010EF0A8FE002803F03583DDE929
S31508013C7018010EF0F3FE80B20130B0F5803F02F074
S31508013C8068860EF09DFB02460B46304639460EF015
S31508013C900DFCFEF781FD0022444B06460F460EF049
S31508013CA077FE002802F07F85002200233046394638
S31508013CB00EF082FE002803F00B83394630460EF0DB
S31508013CC0CDFE80B20EF07CFB02460B462046294605
S31508013CD00EF03AFAFEF760FD0022344B04460D4613
S31508013CE00EF056FE002802F05A85002200232046CF
S31508013CF029460EF061FE002803F0E7822046294690
S31508013D000EF0ACFE80B2824528BF82461A9BC3EBF1
S31508013D100A03534502F24C85981E8342C2F0488530
S31508013D2080B207460EF05CFB02460B46D9E9084508
S31508013D30204629460EF040FE002802F050843846F7
S31508013D400EF03EFB06460F4622462B4630463946BE
S31508013D500EF0F8F90023002204460D460EF036FE51
S31508013D604FF0010300B9034689F8C0303046DDE952
S31508013D70162339460EF0E8F90EF070FEA8F8000091
S31508013D80C9E9084599F8AC30D8075CBF43F0010387
S31508013D9089F8AC3009F59A710BF5CC70FEF70CF879
S31508013DA00DF5237DBDEC068BBDE8F08F0000F040D4
S31508013DB038000020280000204000002030000020A4
S31508013DC0590742F1D884C39B0593BF9B0393BD9BB7
S31508013DD00293BB9B0193B79BCDF810A00093B59BAB
S31508013DE0424609F59E710BF5D470FDF7E1FA99F88B
S31508013DF0AC30FFF702B9002B3FF4C0A9002389F8BC
S31508013E00F030FFF7BBB9002B3FF492A9002389F8DC
S31508013E10F130FFF78DB90123FFF75CB999F8F42062
S31508013E20002A3FF44BA989F8F430FFF747B9002C6B
S31508013E303FF4D1A8C19B0593BE9B0393BC9B0293F8
S31508013E40BA9B0193B69B0093CDF810A0B49B42464A
S31508013E5009F5A6710BF2F910FCF7F6FD99F8AC30E5
S31508013E60FFF7B9B899F8F720002A3FF40CA989F8A1
S31508013E70F730FFF708B999F8F820002A3FF4E8A8BF
S31508013E8089F8F830FFF7E4B8002B3FF4C3A90023FB
S31508013E9089F8EE30FFF7BEB9002B3FF495A9002348
S31508013EA089F8EF30FFF790B99BF81320002A3FF401
S31508013EB085A8C79B0293C59B0193C29B0093B89A99
S31508013EC0534609F5AE710BF51370FCF71DFDFFF7A7
S31508013ED073B80124FFF762B8C89B0293C69B019386
S31508013EE0C49B0093B99A534609F59C710BF5CE709C
S31508013EF0FDF7EAFEFFF78CB83046394600223B4B00
S31508013F000EF03CFD00287EF4FEAC002C5BD099F83F
S31508013F10F330002B40F0FE81012389F8F330002CA1
