S02300002E2E2F48414E636F6465725F453430375F5454415F47726F7570322E737265636D
S315080040002CD0002019F30108000000000000000071
S315080040100000000000000000000000000000000092
S3150800402000000000000000000000000009C10108AF
S315080040300000000000000000A5C10108F5C1010844
S315080040400000000000000000000000000000000062
S315080040500000000000000000000000000000000052
S3150800406000000000E5CE0108000000000000000086
S315080040700000000000000000000000000000000032
S3150800408000000000000000000000000031B5010833
S31508004090E9B401080DB5010855B50108000000008E
S315080040A0D1CE0108BDCE0108A9CE010899CE0108D6
S315080040B085CE010871CE01085DCE0108000000001A
S315080040C000000000000000000000000000000000E2
S315080040D000000000E9D8010801D9010819D901082A
S315080040E00000000000000000E1D9010800000000FF
S315080040F049CE010835CE010825CE0108000000008A
S315080041000000000049D90108000000000000000076
S315080041100000000000000000000000000000000091
S315080041200000000000000000000000004DD9010852
S315080041300000000015CF010800000000C1B5010805
S3150800414079B501089DB50108E5B5010811DA010838
S3150800415000000000000000000000000031D901083E
S315080041600000000000000000000000000000000041
S315080041700000000000000000000000000000000031
S311080041800000000000000000EE11AA5527
S3150800C000000000000000000000000000000044409E
S3150800C0100000000000004640000000000000474005
S3150800C02000000000000048400000000000004940F1
S3150800C0300000000000004A400000000000005740D1
S3150800C04000000000000058400000000000005940B1
S3150800C05000000000008061400000000000C0614050
S3150800C06000000000000062400000000000806240FE
S3150800C07000000000008067400000000000006840E3
S3150800C08000000000008068400000000000006940D1
S3150800C09000000000008069400000000000006A40BF
S3150800C0A000000000000000000000000000004440FE
S3150800C0B00000000000004640000000000000474065
S3150800C0C00000000000004840000000000000564044
S3150800C0D000000000008056400000000000005740A5
S3150800C0E000000000008060400000000000C06040C2
S3150800C0F000000000000069400000000000406940A0
S3150800C1000000000000000000000000000000F03FF2
S3150800C110000000000000F03F000000000000F03FB3
S3150800C120000000000000F03F000000000000F03FA3
S3150800C1300000000000000000000000000000F03FC2
S3150800C140000000000000F03F0000000000000000B2
S3150800C150000000000000F03F000000000000F03F73
S3150800C160000000000000F03F000000000000000092
S3150800C170000000000000F03F000000000000F03F53
S3150800C180000000000000F03F000000000000F03F43
S3150800C190000000000000F03F000000000000F03F33
S3150800C1A00000000000000000000000000000F03F52
S3150800C1B0000000000000F03F000000000000F03F13
S3150800C1C00000000000000000000000000000F03F32
S3150800C1D0000000000000F03F000000000000000022
S3150800C1E0000000000000F03F000000000000F03FE3
S3150800C1F0000000000000F03F000000000000F03FD3
S3150800C2000000010101000100010100000001000118
S3150800C2100000000000006140000000000080694046
S3150800C22000000000000057400000000000004640E3
S3150800C23000000000000048400000000000004440E4
S3150800C2400000000000005640000000000000903F7B
S3150800C2500000000000005040000000000000C03F41
S3150800C2600000000000002040000000000000903F91
S3150800C27000000000000050400000000000004A4096
S3150800C2800000000000006A40000000000000464070
S3150800C2900000000000004840000000000000444084
S3150800C2A000000000008069400000000000005740C0
S3150800C2B00000000000004640000000000000484062
S3150800C2C00000000000004440000000000000564046
S3150800C2D00000000000005040000000000000903FF1
S3150800C2E00000000000005040000000000000903FE1
S3150800C2F00000000000002040000000000000C03FD1
S3150800C300000000000000903F0000000000005040C0
S3150800C310000000000000C03F0000000000002040B0
S3150800C320000000000000903F0000000000005040A0
S3150800C330000000000000694000000000008069401D
S3150800C3400000000000806A400000000000006A400B
S3150800C35000000000000046400000000000004840C1
S3150800C3600000000000004A4000000000000059409C
S3150800C37000000000000058400000000000806240F5
S3150800C38000000000000062400000000000806840D5
S3150800C3900000000000006840000000000000444063
S3150800C3A000000000008067400000000000005740C1
S3150800C3B00000000000806140000000000000F03F1F
S3150800C3C0000000000000000001000100000100005C
S3150800C3D0010000000100000001000000010000004B
S3150800C3E00000000015000000150000001500000000
S3150800C3F01500000000000000010000000100000018
S3150800C400010000000100000000000000010000001B
S3150800C410010000000100000001000000000000000B
S3150800C42015000000150000001500000015000000AA
S3150800C430000000000D0000000D0000000D000000C7
S3150800C4400D000000000000000C0000000C000000B9
S3150800C4500C0000000C000000000000000B000000AB
S3150800C4600B0000000B0000000B000000000000009D
S3150800C47001000000010000000100000001000000AA
S3150800C48000000000000000006464640048414E6338
S3150800C4906F6465725F453430375F5454415F477245
S3150800C4A06F7570325F736F66747761726549445F42
S3150800C4B076315F3138303532325F313233343131AB
S3150800C4C04170704374726C5461736B0048414E63DB
S3150800C4D06F6465725F453430375F5454415F477205
S3150800C4E06F7570322E6300002000000000140240B1
S3150800C4F008000900200000000014024010000E0089
S3150800C500200000000014024020000F002000000058
S3150800C51000140240400004002000000000140240FD
S3150800C52080000500200000000014024000010600FB
S3150800C530200000000014024000020700200000004E
S3150800C540001402400004080004000000000802402D
S3150800C55001000A00040000000008024004000C0064
S3150800C560414443636F6E76657273696F6E54617387
S3150800C5706B0000002E2E2F626C6F636B7365742F31
S3150800C5807274772F53544D33322F7372632F686545
S3150800C59061705F342E630000546D724370754C6F82
S3150800C5A06164000049444C45000000002E2E2F62AD
S3150800C5B06C6F636B7365742F7274772F53544D3396
S3150800C5C0322F7372632F7461736B732E63000000CE
S3150800C5D02E2E2F626C6F636B7365742F7274772FB0
S3150800C5E053544D33322F7372632F74696D657273AA
S3150800C5F02E630000546D72205376630043616E45C6
S3150800C60076656E745461736B0000000043616E5466
S3150800C61072616E736D69745461736B002E2E2F628E
S3150800C6206C6F636B7365742F7274772F53544D3325
S3150800C630322F7372632F53544D33325F453430377C
S3150800C6402F63616E2E630000006400400000000244
S3150800C65008000000000C024001000000080000006D
S3150800C660000C024002000100091314151600000010
S3150800C67000680040000000040200000000040240B8
S3150800C68020000500020000000004024040000600E9
S3150800C690093F404142000000010102010202020274
S3150800C6A0020302020402020303030403030503034D
S3150800C6B0060303050404060404070404080404071F
S3150800C6C005050805050806050807050807060808F4
S3150800C6D00608080708080800457643686E6C3100A6
S3150800C6E0457643686E6C3200457643686E6C330057
S3150800C6F02E2E2F626C6F636B7365742F7274772F8F
S3150800C70053544D33322F7372632F53544D33325F64
S3150800C710453430372F6D61632E6300002E2E2F624D
S3150800C7206C6F636B7365742F7274772F53544D3324
S3150800C730322F7372632F53544D33325F453430377B
S3150800C7402F706F72742E6300000001400100000014
S3150800C750020100001000000000100240000209005B
S3150800C760100000000010024000080B000004004002
S3150800C7700200000001020000010000000000024063
S3150800C78040000600020000000004024020000500E8
S3150800C7900008004004000000010200000800000034
S3150800C7A0000C024000100C0008000000000C0240BB
S3150800C7B000200D00000401400200000002030000F2
S3150800C7C004000000000802404000060004000000C3
S3150800C7D00008024080000700000001400100000038
S3150800C7E002011900000000400100000001021C00BF
S3150800C7F0000400400200000001021D00000800407D
S3150800C8000400000001021E000004014002000000AE
S3150800C81002012C000040014000000100020118003E
S3150800C82000440140000002000201190000480140CE
S3150800C8300000040002011A00001C004080000000ED
S3150800C84001022C00002000400001000001022D001A
S3150800C850040000000008024001000000200000005B
S3150800C86000140240400000002000000000140240AE
S3150800C87080000000200000000014024000010000B3
S3150800C8802000000000140240000200002000000002
S3150800C89000140240000400000200000000040240E8
S3150800C8A08000000002000000000402404000000072
S3150800C8B010000000001002400400000010000000F4
S3150800C8C00010024010000000100000000010024096
S3150800C8D02000000010000000001002404000000088
S3150800C8E040000000001802408000000040000000E0
S3150800C8F00018024000010000400000000018024035
S3150800C90000100000400000000018024000800000EF
S3150800C91001000000000002401000000002000000B4
S3150800C9200004024020000000010000000000024050
S3150800C9304000000001000000000002402000000046
S3150800C94008000000000C024001000000080000007A
S3150800C950000C02400200000008000000000C024023
S3150800C9600400000008000000000C02400800000057
S3150800C97008000000000C024010000000080000003B
S3150800C980000C02402000000008000000000C0240D5
S3150800C9904000000008000000000C02408000000073
S3150800C9A008000000000C024000010000080000001A
S3150800C9B0000C02400002000008000000000C0240C3
S3150800C9C00004000008000000000C024000080000F7
S3150800C9D008000000000C02400010000008000000DB
S3150800C9E0000C02400020000008000000000C024075
S3150800C9F00040000008000000000C02400080000013
S3150800CA0010000000001002400100000010000000A5
S3150800CA100010024002000000100000000010024052
S3150800CA20080000001000000000100240800000000E
S3150800CA301000000000100240000100001000000075
S3150800CA400010024000020000100000000010024022
S3150800CA50000400001000000000100240000800005A
S3150800CA601000000000100240001000001000000036
S3150800CA7000100240002000001000000000100240D4
S3150800CA800040000010000000001002400080000076
S3150800CA9020000000001402400100000020000000F1
S3150800CAA000140240020000002000000000140240AA
S3150800CAB004000000200000000014024008000000E6
S3150800CAC020000000001402401000000020000000B2
S3150800CAD0001402402000000020000000001402405C
S3150800CAE000080000200000000014024000100000AA
S3150800CAF02000000000140240002000002000000072
S3150800CB00001402400040000020000000001402400B
S3150800CB1000800000400000000018024001000000EC
S3150800CB20400000000018024002000000400000001B
S3150800CB3000180240040000004000000000180240EF
S3150800CB400800000040000000001802401000000025
S3150800CB5040000000001802402000000040000000CD
S3150800CB600018024040000000400000000018024083
S3150800CB700002000040000000001802400004000007
S3150800CB8040000000001802400008000040000000B5
S3150800CB900018024000200000400000000018024073
S3150800CBA000400000010000000000024001000000F3
S3150800CBB004000000000802400100000020000000F8
S3150800CBC0001402404000000020000000001402404B
S3150800CBD08000000020000000001402400001000050
S3150800CBE0200000000014024000020000200000009F
S3150800CBF00014024000040000020000000004024085
S3150800CC00800000000200000000040240400000000E
S3150800CC101000000000100240040000001000000090
S3150800CC200010024010000000100000000010024032
S3150800CC302000000010000000001002404000000024
S3150800CC40400000000018024080000000400000007C
S3150800CC5000180240000100004000000000180240D1
S3150800CC60001000004000000000180240008000008C
S3150800CC700100000000000240100000000200000051
S3150800CC8000040240200000000100000000000240ED
S3150800CC9040000000010000000000024020000000E3
S3150800CCA008000000000C0240010000000800000017
S3150800CCB0000C02400200000008000000000C0240C0
S3150800CCC00400000008000000000C024008000000F4
S3150800CCD008000000000C02401000000008000000D8
S3150800CCE0000C02402000000008000000000C024072
S3150800CCF04000000008000000000C02408000000010
S3150800CD0008000000000C02400001000008000000B6
S3150800CD10000C02400002000008000000000C02405F
S3150800CD200004000008000000000C02400008000093
S3150800CD3008000000000C0240001000000800000077
S3150800CD40000C02400020000008000000000C024011
S3150800CD500040000008000000000C024000800000AF
S3150800CD601000000000100240010000001000000042
S3150800CD7000100240020000001000000000100240EF
S3150800CD8008000000100000000010024080000000AB
S3150800CD901000000000100240000100001000000012
S3150800CDA000100240000200001000000000100240BF
S3150800CDB000040000100000000010024000080000F7
S3150800CDC010000000001002400010000010000000D3
S3150800CDD00010024000200000100000000010024071
S3150800CDE00040000010000000001002400080000013
S3150800CDF0200000000014024001000000200000008E
S3150800CE000014024002000000200000000014024046
S3150800CE100400000020000000001402400800000082
S3150800CE20200000000014024010000000200000004E
S3150800CE3000140240200000002000000000140240F8
S3150800CE400008000020000000001402400010000046
S3150800CE50200000000014024000200000200000000E
S3150800CE6000140240004000002000000000140240A8
S3150800CE700080000040000000001802400100000089
S3150800CE8040000000001802400200000040000000B8
S3150800CE90001802400400000040000000001802408C
S3150800CEA008000000400000000018024010000000C2
S3150800CEB0400000000018024020000000400000006A
S3150800CEC00018024040000000400000000018024020
S3150800CED000020000400000000018024000040000A4
S3150800CEE04000000000180240000800004000000052
S3150800CEF00018024000200000400000000018024010
S3150800CF000040000004000000000802400020000065
S3150800CF10000001400100000002011B000000004063
S3150800CF200100000001021C0000040040020000008D
S3150800CF3001021D00000800400400000001021E0056
S3150800CF40000401400200000002012E0000400140DA
S3150800CF500000010002011800004401400000020020
S3150800CF6002011900004801400000040002011A00ED
S3150800CF70001C00408000000001022C000020004038
S3150800CF800001000001022D00100000000010024000
S3150800CF900002000002000200010009001000000063
S3150800CFA000100240000800010400200001000B00E8
S3150800CFB010000000001002400020000208000002D5
S3150800CFC001000D00100000000010024000400003A0
S3150800CFD01000002001000E000100000000000240C1
S3150800CFE02000010002000200010005000100000007
S3150800CFF00000024040000200020002000200060093
S3150800D0000200000000040240200002010400200083
S3150800D0100200050008000000000C02400010030092
S3150800D0200200020002000C0008000000000C02408A
S3150800D030002003010400200002000D000400000087
S3150800D0400008024040000400020002000300060037
S3150800D05004000000000802408000040104002000CB
S3150800D0600300070010000000001002402000050021
S3150800D0700200020003000500100000000010024034
S3150800D08040000501040020000300060020000000FF
S3150800D09000140240400006000200020003000600D9
S3150800D0A02000000000140240800007000200020071
S3150800D0B003000700200000000014024000010800D9
S3150800D0C002000200090008002000000000140240C7
S3150800D0D000020900020002000900090000100140D0
S3150800D0E010000000022500000200000000040240B3
S3150800D0F0400006000200000000040240800007000D
S3150800D100070000000044004000000200012600005D
S3150800D11008000000000C024020000500080000007E
S3150800D120000C0240400006000700000000480040CE
S3150800D130000004000127000008000000000C02405F
S3150800D1400001080008000000000C02400002090067
S3150800D15007000000001401402000000002470000FC
S3150800D1600400000000080240400006000400000019
S3150800D17000080240800007000800000056435020BF
S3150800D180436F6E666967000056435020496E7465A2
S3150800D190726661636500000053544D6963726F657A
S3150800D1A06C656374726F6E696373000053544D3314
S3150800D1B032205669727475616C20436F6D506F72B8
S3150800D1C07420696E204853206D6F64650000000066
S3150800D1D053544D3332205669727475616C20436F0F
S3150800D1E06D506F727420696E204653204D6F6465CA
S3150800D1F000000000303030303030303030353042CA
S3150800D20000000000303030303030303030353043B8
S3150800D21000000000000001400100000002011B00A0
S3150800D220000000400100000001021C00000400404C
S3150800D2300200000001021D00000800400400000072
S3150800D24001021E00000401400200000002012E0037
S3150800D250004001400000010002011800004401409E
S3150800D2600000020002011900004801400000040005
S3150800D27002011A00001C00408000000001022C0078
S3150800D280002000400001000001022D0010000000EF
S3150800D290001002400002000002000200010009001E
S3150800D2A010000000001002400008000104002000E1
S3150800D2B001000B00100000000010024000200002D0
S3150800D2C00800000201000D001000000000100240D6
S3150800D2D0004000031000002001000E0001000000BD
S3150800D2E000000240200001000200020001000500C3
S3150800D2F00100000000000240400002000200020097
S3150800D300020006000200000000040240200002019C
S3150800D310040020000200050008000000000C02407E
S3150800D320001003000200020002000C0008000000C2
S3150800D330000C0240002003010400200002000D003A
S3150800D3400400000000080240400004000200020039
S3150800D35003000600040000000008024080000401E3
S3150800D360040020000300070010000000001002401F
S3150800D370200005000200020003000500100000005E
S3150800D38000100240400005010400200003000600CA
S3150800D39020000000001402404000060002000200BF
S3150800D3A00300060020000000001402408000070069
S3150800D3B002000200030007002000000000140240DB
S3150800D3C00001080002000200090008002000000011
S3150800D3D000140240000209000200020009000900C8
S3150800D3E02E2E2F626C6F636B7365742F7274772F92
S3150800D3F053544D33322F7372632F71756575652ECD
S3150800D400630000000404040018D4000820D40008AF
S3150800D41028D4000807070700457643686E6C310074
S3150800D420457643686E6C3200457643686E6C330009
S3150800D43050505000666D6F64000000000000000048
S3150800D440000000000000000000000000000000804E
S3090800D4504300000087
S315080100000B78FF2B00D070474B78002BFBD109F0FA
S31508010010FBBB00BF08B5012008F002FF034A40F206
S3150801002067610020BDE808400BF044BC01000108E7
S31508010030002008F079BD00BF704700BF2DE9F047E1
S31508010040DDF820E0099E9EF800C004460D4692465A
S315080100501F46BCF1000F02D101238EF8003030880B
S3150801006011F0FAFD22462B468046894612F0C2F85F
S31508010070E0B10E9A3B6813600D9A7B6813600C9A7F
S31508010080BB7A1370109A3B7A13700B9AFB7A13702A
S315080100900F9A7B7A13700A9A002313605360119A98
S315080100A01370308811F0D8FD8046894642464B4682
S315080100B02046294612F0A8F868B10B9B1B78D3B9DC
S315080100C001238AF800300C9B1B787BB901238AF837
S315080100D00130BDE8F087002642464B4620462946B0
S315080100E08AF8006012F090F80028ECD100238AF80B
S315080100F00130BDE8F08700238AF800300C9B1B7895
S31508010100002BF3D1E2E700BF2DE9F04F83B0164685
S315080101101F4682468B4611F0BBFA0022002304468D
S315080101200D4612F067F8D8BB804600220023204608
S3150801013029465FFA88F812F05DF850B93046394613
S3150801014011F01EFA02460B463046394612F07AF885
S3150801015090BBB8F1000F5FD15046594600220023E3
S315080101604FF0010912F050F820B30023002230465F
S31508010170394612F049F84FF00103A0B15FFA89F93F
S31508010180DBB2994507D02046294632463B4611F04F
S3150801019017FC04460D462046294603B0BDE8F08FF4
S315080101A04FF00108C1E703465FFA89F9DBB29945C1
S315080101B0E9D1F0E7C146D8E732463B4650465946AB
S315080101C011F0DAFE21F000490022194B4946804612
S315080101D011F0F6FB11F0D4F902460B4640464946A2
S315080101E011F0ECFB0B46024623F000434046009211
S315080101F0019300220F4B494611F094FD02460B4626
S31508010200DDE9000112F00AF84FF0010858B15FFA6A
S3150801021088F8B8F1000F9FD000240025204629460A
S3150801022003B0BDE8F08F80465FFA88F8F1E700BFB2
S315080102300000E03F0000B03C2DE9F0410999089C17
S3150801024091F800E0DDF82880054616461F46BEF1FE
S31508010250000F01D101230B702B785B00DBB25A0921
S3150801026007EE902AB8EEE77AF7EE007AB4EEE77A67
S31508010270F1EE10FAA372227307DDD8E90001002214
S315080102801B4B11F09DFBC8E900012878C009607372
S315080102902B781B01DBB24FEA1318637284F80B80C3
S315080102A011F0DAFC32463B4611F0A4FF50B1404644
S315080102B011F0D2FCDDE9062311F09CFF4FF0010392
S315080102C098B1D8B220726B782370AB786370EB78EB
S315080102D0A3702B79E3706B792371AB796371EB7931
S315080102E0A3710023E371BDE8F0810346E9E700BF86
S315080102F00000F03F2DE9F0410999089C91F800E0CA
S31508010300DDF82880054616461F46BEF1000F01D1C5
S3150801031001230B702B785B00DBB25A0907EE902A92
S31508010320B8EEE77AF7EE007AB4EEE77AF1EE10FA6C
S31508010330A372227307DDD8E9000100221B4B11F0D5
S315080103403FFBC8E900012878C00960732B781B01B7
S31508010350DBB24FEA1318637284F80B8011F07CFC48
S3150801036032463B4611F046FF50B1404611F074FC47
S31508010370DDE9062311F03EFF4FF0010398B1D8B22B
S3150801038020726B782370AB786370EB78A3702B7946
S31508010390E3706B792371AB796371EB79A3710023F0
S315080103A0E371BDE8F0810346E9E700BF0000F03FCD
S315080103B02DE9F0410799069C91F800E0DDF82080C7
S315080103C0054616461F46BEF1000F01D101230B70E3
S315080103D02B785B00DBB25A0907EE902AB8EEE77A6A
S315080103E0F7EE007AB4EEE77AF1EE10FAA372227309
S315080103F007DDD8E900010022154B11F0E1FAC8E939
S3150801040000016B782370AB786370EB78A3702B7956
S31508010410E3706B792371AB796371EB79A37100236F
S31508010420E3712B781B01DBB218096372E07211F0D4
S3150801043013FC3B46324611F0DDFE4FF0010300B9CD
S31508010440034623722B78DB096373BDE8F08100BF8D
S315080104500000F03F2DE9F0410799069C91F800E06C
S31508010460DDF82080054616461F46BEF1000F01D16C
S3150801047001230B702B785B00DBB25A0907EE902A31
S31508010480B8EEE77AF7EE007AB4EEE77AF1EE10FA0B
S31508010490A372227307DDD8E900010022154B11F07A
S315080104A08FFAC8E900016B782370AB786370EB7833
S315080104B0A3702B79E3706B792371AB796371EB794F
S315080104C0A3710023E3712B781B01DBB21809637250
S315080104D0E07211F0C1FB3B46324611F08BFE4FF03C
S315080104E0010300B9034623722B78DB096373BDE860
S315080104F0F08100BF0000F03F2DE9F04F89B00746B3
S3150801050018999DF8488091F800E09DF84C909DF85F
S3150801051050A09DF85460169D1A9CBEF1000F01D19A
S3150801052001200870DFF830E110461946DEE900239C
S3150801053011F046FACDE90001384611F07DFB00229B
S31508010540434BCDE9020111F03BFADDE9002311F035
S3150801055035FA00220023CDE9060111F04BFE0028E9
S3150801056041D01D9B18781C9BC0015FFA80FB85F85A
S3150801057001B0D3E9000111F0ADFE0001C7B2199B24
S31508010580AF70D3E9000111F0A5FE38445844179B12
S31508010590207084F8018084F8029084F803A02671FB
S315080105A06671A671E6711B9A1B681360DDE9002363
S315080105B0DDE9020111F002FA00220023804689468C
S315080105C011F018FE0446002839D1224BD3E90067F9
S315080105D0002200233046394611F00CFEE8B12C7092
S315080105E009B0BDE8F08F1B4B93ED007B0022002379
S315080105F051EC170B8DED047B11F0FCFD0028D5D1CC
S31508010600DDE90423DDE90601FFF77EFD002200236B
S3150801061011F0F0FD0028C9D0A3E732463B46404613
S315080106204946FFF771FD0022002311F0E3FD4FF063
S31508010630010448B1E4B22C7009B0BDE8F08F012479
S315080106402C7009B0BDE8F08F0446E4B2F3E700BFA9
S315080106500000F03F28000020380000202DE9F04F67
S3150801066089B0074618999DF8488091F800E09DF8E9
S315080106704C909DF850A09DF85460169D1A9CBEF1A9
S31508010680000F01D101200870DFF830E11046194644
S31508010690DEE9002311F094F9CDE90001384611F09D
S315080106A0CBFA0022434BCDE9020111F089F9DDE9C4
S315080106B0002311F083F900220023CDE9060111F088
S315080106C099FD002841D01D9B18781C9BC0015FFA33
S315080106D080FB85F801B0D3E9000111F0FBFD0001AB
S315080106E0C7B2199BAF70D3E9000111F0F3FD384485
S315080106F05844179B207084F8018084F8029084F886
S3150801070003A026716671A671E6711B9A1B681360B0
S31508010710DDE90023DDE9020111F050F90022002389
S315080107208046894611F066FD0446002839D1224BD8
S31508010730D3E90067002200233046394611F05AFDF5
S31508010740E8B12C7009B0BDE8F08F1B4B93ED007B27
S315080107500022002351EC170B8DED047B11F04AFDA5
S315080107600028D5D1DDE90423DDE90601FFF7CCFC34
S315080107700022002311F03EFD0028C9D0A3E7324626
S315080107803B4640464946FFF7BFFC0022002311F0CD
S3150801079031FD4FF0010448B1E4B22C7009B0BDE84F
S315080107A0F08F01242C7009B0BDE8F08F0446E4B23D
S315080107B0F3E700BF0000F03F3000002040000020B2
S315080107C02DE9F0410799069C91F800E0DDF82080B3
S315080107D0054616461F46BEF1000F01D101230B70CF
S315080107E02B785B00DBB25A0907EE902AB8EEE77A56
S315080107F0F7EE007AB4EEE77AF1EE10FAA3722273F5
S3150801080007DDD8E900010022154B11F0D9F8C8E92E
S3150801081000016B782370AB786370EB78A3702B7942
S31508010820E3706B792371AB796371EB79A37100235B
S31508010830E3712878C009607311F00EFA3B46324617
S3150801084011F0D8FC4FF0010300B9034623722B7847
S315080108501B01DBB21A096372E272BDE8F08100BFBF
S315080108600000F03F2DE9F0410799069C91F800E058
S31508010870DDF82080054616461F46BEF1000F01D158
S3150801088001230B702B785B00DBB25A0907EE902A1D
S31508010890B8EEE77AF7EE007AB4EEE77AF1EE10FAF7
S315080108A0A372227307DDD8E900010022154B11F066
S315080108B087F8C8E900016B782370AB786370EB7829
S315080108C0A3702B79E3706B792371AB796371EB793B
S315080108D0A3710023E3712878C009607311F0BCF98C
S315080108E03B46324611F086FC4FF0010300B9034638
S315080108F023722B781B01DBB21A096372E272BDE817
S31508010900F08100BF0000F03F2DE9F04F83B00C469F
S315080109100E9FDDF8348099460546324BD7E900012A
S315080109201646002211F04CF80123C7E9000189F89F
S31508010930003023682C4A0C99013313602360D8F8D8
S31508010940003007EE903AB8EE677AF7EE007AB4EE21
S31508010950677AF1EE10FA05D1DFF888904FF00008B2
S31508010960C1E9008937780193384611F065F9DFF84E
S3150801097084801E4A019B1360C8E900012B602F7110
S3150801098096F807E085F805E096F801C085F806C0EF
S3150801099096F8028085F8078096F8039085F80890FE
S315080109A096F804A085F809A096F805B0104C85F8C4
S315080109B00AB0B079E8721946A071234608220020C8
S315080109C0277084F805B084F804A084F8039084F8A5
S315080109D0028084F801C084F807E003B0BDE8F04F4F
S315080109E00AF0F4BC0000F03F74C0002090BD00205E
S315080109F0F0060020A8C0002008B5012100200AF051
S31508010A00E9FE0B2100200AF0E5FE0C2100200AF080
S31508010A10E1FE0D2100200AF0DDFE152100200AF075
S31508010A20D9FE162100200AF0D5FE172100200AF06A
S31508010A30D1FE182100200AF0CDFE19210020BDE8BB
S31508010A4008400AF0C7BE00BF2DE9F04F2DED088B0F
S31508010A500D460968E34CE44E83B0013121602960F3
S31508010A601699DDF85C900968316007EE901AB8EEC0
S31508010A70678AF7EE007AB4EE678AF1EE10FA1F4636
S31508010A8004469246EB7940F09A820BB90123EB7141
S31508010A90DFF85883002243460092104601210AF0E6
S31508010AA0C5FE002884F84B0040F3A28398F801306C
S31508010AB0637698F80230A37698F80330E37698F8C7
S31508010AC004302377D6ED007A98F80530637798F8DD
S31508010AD00630A37798F8072098F80030E277F8EE01
S31508010AE0678A2376F2EE067AF4EE678AF1EE10FA51
S31508010AF0AB7940F0E3820BB90123AB71DFF8F082E1
S31508010B0000224346009210460B210AF08FFE002868
S31508010B1084F84A0040F3838398F80130637498F89F
S31508010B200230A37498F80330E37498F804302375F7
S31508010B30D6ED007A98F80530637598F80630A375EE
S31508010B4098F8072098F80030E275B8EE679A23748A
S31508010B50F2EE087AB4EE679AF1EE10FA6B7940F084
S31508010B609C820BB901236B71DFF888820022434608
S31508010B70009210460C210AF059FE002884F8490013
S31508010B8040F36183D6ED007A98F8073098F8062085
S31508010B9098F8051098F8040098F803E098F802C048
S31508010BA098F801B098F8008084F809B0F8EE679AC9
S31508010BB084F80AC084F80BE020736173A273E373A7
S31508010BC084F80880F2EE0A7AF4EE679AF1EE10FAE2
S31508010BD02B7940F050820BB901232B71DFF818826B
S31508010BE000224346009210460D210AF01FFE0028F6
S31508010BF084F848001BDD98F801B098F802E098F8E7
S31508010C00030098F800C098F8041098F8052098F899
S31508010C10063098F8078084F8078084F801B084F8CC
S31508010C2000C084F802E0E07021716271A371D6ED0B
S31508010C30007AB8EE67AAF3EE057AB4EE67AAF1EE82
S31508010C4010FA2B7A40F0FD810BB901232B72DFF8DC
S31508010C50AC81002243460092104615210AF0E6FDB2
S31508010C60002884F84C0040F3E98298F8013084F8AA
S31508010C70213098F8023084F8223098F8033084F845
S31508010C80233098F8043084F82430D6ED007A98F8A1
S31508010C90053084F8253098F8063084F8263098F817
S31508010CA0072098F8003084F82720F8EE67AA84F818
S31508010CB02030F3EE067AF4EE67AAF1EE10FA6B7AB3
S31508010CC040F040820BB901236B72DFF834810022B0
S31508010CD043460092104616210AF0A8FD002884F81A
S31508010CE04D0040F3A68298F8013084F8293098F827
S31508010CF0023084F82A3098F8033084F82B3098F8B3
S31508010D00043084F82C30D6ED007A98F8053084F84A
S31508010D102D3098F8063084F82E3098F8072098F880
S31508010D20003084F82F20B8EE67BA84F82830F3EE3D
S31508010D30077AB4EE67BAF1EE10FA2B7B40F0D08150
S31508010D400BB901232B73DFF8BC80002243460092BE
S31508010D50104617210AF06AFD002884F8500040F36E
S31508010D60638298F8013084F8413098F8023084F8A3
S31508010D70423098F8033084F8433098F8043084F800
S31508010D804430D6ED007A98F8053084F8453098F85D
S31508010D90063084F8463098F8072098F8003084F829
S31508010DA04720F8EE67BA84F84030F3EE087AF4EE95
S31508010DB067BAF1EE10FAEB7A40F0AB810BB9012371
S31508010DC0EB72DFF844800022434600921046182150
S31508010DD00AF02CFD002884F84F00D6ED007A40F37E
S31508010DE01B8213E030BD0020ACBD00208006002028
S31508010DF0C8060020D8060020E8060020880600203C
S31508010E0090060020A0060020B006002098F80130C0
S31508010E1084F8393098F8023084F83A3098F8033073
S31508010E2084F83B3098F8043084F83C3098F805305B
S31508010E3084F83D3098F8063084F83E3098F8072053
S31508010E4098F8003084F83F20F8EE677A84F838304D
S31508010E50B3EE097AF4EE477AF1EE10FAAB7A40F07E
S31508010E60D8800BB90123AB72C84D00222B460092DC
S31508010E70104619210AF0DAFC002884F84E0017DD1D
S31508010E806B78AA7884F83130EB7884F8322084F8C4
S31508010E9033302A796B7984F83420A97984F8353086
S31508010EA0EA792B7884F8361084F8372084F83030BC
S31508010EB0F7EE007AB4EE678AF1EE10FA40F0928006
S31508010EC094F94B30207E94F819C094F81AE0E67E1E
S31508010ED0257F617FA27F07EE103AE37F99F80040EC
S31508010EE007EE904AF8EEE77AF7EE006AF4EE667ACC
S31508010EF0F1EE10FA15D1F8EEC77AF5EE407AF1EE71
S31508010F0010FA57D1189C4FF002084FF0010B89F8D7
S31508010F10008084F800B099F8004007EE904AF8EE90
S31508010F20E77AF0EE006AF4EE667AF1EE10FA37D156
S31508010F30B8EEC77AB7EE008AB4EEC87AF1EE10FABF
S31508010F4038DBFB71189B87F801C001243870BA7128
S31508010F5087F802E0FE703D7179711C70159B8C4A09
S31508010F601C704FF0030C89F800C0BAF800301380E2
S31508010F70149A138010F060FE169BD3ED007A854B08
S31508010F80F8EE677AC3E90001F4EE487AF1EE10FA51
S31508010F9000F0288199F8003007EE903AF8EEE77AE2
S31508010FA0F5EE407AF1EE10FA04D1189A012389F880
S31508010FB00030137003B0BDEC088BBDE8F08F73B138
S31508010FC0002380F84B30037643768376C37603771E
S31508010FD043778377C377F0EE488AEB7182E5F0EEC3
S31508010FE0488A7FE5F2EE067AF4EE678AF1EE10FAA0
S31508010FF040F0D28094F94A30207C94F811C094F8D4
S3150801100012E0E67C257D617DA27D07EE103AE37D3F
S3150801101064E7002B3FF44CAF002384F84E3084F884
S31508011020303084F8313084F8323084F8333084F83B
S31508011030343084F8353084F8363084F83730AB727A
S3150801104036E7002B00F09680002384F84C3084F8AC
S31508011050203084F8213084F8223084F8233084F84B
S31508011060243084F8253084F8263084F82730F0EEC9
S315080110704AAA2B721DE6002B00F08280002384F811
S31508011080483023706370A370E37023716371A37191
S31508011090E371B0EE69AA2B71CDE5002B73D000235D
S315080110A084F8493023726372A372E37223736373FC
S315080110B0A373E373F0EE499A6B7183E5002B00F095
S315080110C08B80002384F84A3023746374A374E37411
S315080110D023756375A375E375B0EE689AAB7137E549
S315080110E0002B76D0002384F8503084F8403084F8F9
S315080110F0413084F8423084F8433084F8443084F827
S31508011100453084F8463084F84730F0EE4BBA2B73F5
S315080111104BE6002B63D0002384F84F3084F838302F
S3150801112084F8393084F83A3084F83B3084F83C3016
S3150801113084F83D3084F83E3084F83F30F0EE6B7A1F
S31508011140EB7285E6CBB1002384F84D3084F828305C
S3150801115084F8293084F82A3084F82B3084F82C3026
S3150801116084F82D3084F82E3084F82F30B0EE6ABA20
S315080111706B72DCE5F0EE4AAA9BE5B0EE6ABAD6E5F3
S31508011180B0EE69AA57E5F0EE499A1BE5C0060020BC
S31508011190A8BD0020D0BD0020F2EE087AB4EE679A09
S315080111A0F1EE10FA29D0F2EE0A7AF4EE679AF1EE28
S315080111B010FA4DD194F94830207894F801C094F882
S315080111C002E0E67825796179A27907EE103AE379A2
S315080111D084E6F0EE4BBAE8E5B0EE689AB8E4F0EECC
S315080111E06B7A35E65D4B19990022C1E90023D1E6F0
S315080111F0D6ED007AF8EE678A74E494F94930207AD4
S3150801120094F809C094F80AE0E67A257B617BA27B0B
S3150801121007EE103AE37B61E6F8EE677A18E6D6ED53
S31508011220007AB8EE679A93E4D6ED007AF8EE67BAD3
S31508011230BBE5D6ED007AB8EE67BA78E5D6ED007A61
S31508011240F8EE67AA35E5D6ED007AF8EE679AB9E4BD
S31508011250F3EE057AB4EE67AAF1EE10FA1BD0F3EEB7
S31508011260067AF4EE67AAF1EE10FA29D194F94D300F
S3150801127094F8280094F829C094F82AE094F82B6089
S3150801128094F82C5094F82D1094F82E2007EE103A65
S3150801129094F82F3022E694F94C3094F8200094F80B
S315080112A021C094F822E094F8236094F8245094F825
S315080112B0251094F8262007EE103A94F827300DE603
S315080112C0F3EE077AB4EE67BAF1EE10FA14D194F98F
S315080112D0503094F8400094F841C094F842E094F8EC
S315080112E0436094F8445094F8451094F8462007EE64
S315080112F0103A94F84730F1E5F3EE087AF4EE67BA56
S31508011300F1EE10FA14D194F94F3094F8380094F8A4
S3150801131039C094F83AE094F83B6094F83C5094F854
S315080113203D1094F83E2007EE103A94F83F30D5E583
S3150801133094F94E3094F8300094F831C094F832E0BC
S3150801134094F8336094F8345094F8351094F83620AC
S3150801135007EE103A94F83730C0E500BF0000F03FB9
S31508011360012108B508460AF035FA0B2101200AF0D1
S3150801137031FA0C2101200AF02DFA0D2101200AF07B
S3150801138029FA152101200AF025FA162101200AF069
S3150801139021FA172101200AF01DFA182101200AF065
S315080113A019FA19210120BDE808400AF013BA00BF4D
S315080113B02DE9F04F2DED088B0D460968E34CE44EF7
S315080113C083B00131216029601699DDF85C900968BE
S315080113D0316007EE901AB8EE678AF7EE007AB4EE36
S315080113E0678AF1EE10FA1F4604469246EB7940F0F9
S315080113F09A820BB90123EB71DFF858830022012188
S315080114004346009208460AF011FA002884F84B0070
S3150801141040F3A28398F80130637698F80230A376F0
S3150801142098F80330E37698F804302377D6ED007AF6
S3150801143098F80530637798F80630A37798F8072067
S3150801144098F80030E277F8EE678A2376F2EE067AA4
S31508011450F4EE678AF1EE10FAAB7940F0E3820BB944
S315080114600123AB71DFF8F0820022434600920B217B
S3150801147001200AF0DBF9002884F84A0040F3838347
S3150801148098F80130637498F80230A37498F8033019
S31508011490E37498F804302375D6ED007A98F8053088
S315080114A0637598F80630A37598F8072098F8003000
S315080114B0E275B8EE679A2374F2EE087AB4EE679A83
S315080114C0F1EE10FA6B7940F09C820BB901236B712E
S315080114D0DFF888820022434600920C2101200AF097
S315080114E0A5F9002884F8490040F36183D6ED007A0E
S315080114F098F8073098F8062098F8051098F8040027
S3150801150098F803E098F802C098F801B098F80080B6
S3150801151084F809B0F8EE679A84F80AC084F80BE0F3
S3150801152020736173A273E37384F80880F2EE0A7A72
S31508011530F4EE679AF1EE10FA2B7940F050820BB966
S3150801154001232B71DFF818820022434600920D21F0
S3150801155001200AF06BF9002884F848001BDD98F889
S3150801156001B098F802E098F8030098F800C098F8D6
S31508011570041098F8052098F8063098F8078084F83A
S31508011580078084F801B084F800C084F802E0E070AE
S3150801159021716271A371D6ED007AB8EE67AAF3EEEE
S315080115A0057AB4EE67AAF1EE10FA2B7A40F0FD81BE
S315080115B00BB901232B72DFF8AC8100224346009256
S315080115C0152101200AF032F9002884F84C0040F36D
S315080115D0E98298F8013084F8213098F8023084F8C5
S315080115E0223098F8033084F8233098F8043084F8C8
S315080115F02430D6ED007A98F8053084F8253098F825
S31508011600063084F8263098F8072098F8003084F8D0
S315080116102720F8EE67AA84F82030F3EE067AF4EE6E
S3150801162067AAF1EE10FA6B7A40F040820BB90123F2
S315080116306B72DFF83481002243460092162101209D
S315080116400AF0F4F8002884F84D0040F3A68298F8C9
S31508011650013084F8293098F8023084F82A3098F84D
S31508011660033084F82B3098F8043084F82C30D6ED02
S31508011670007A98F8053084F82D3098F8063084F801
S315080116802E3098F8072098F8003084F82F20B8EE05
S3150801169067BA84F82830F3EE077AB4EE67BAF1EE42
S315080116A010FA2B7B40F0D0810BB901232B73DFF89D
S315080116B0BC80002243460092172101200AF0B6F8A1
S315080116C0002884F8500040F3638298F8013084F8C2
S315080116D0413098F8023084F8423098F8033084F89B
S315080116E0433098F8043084F84430D6ED007A98F8F7
S315080116F0053084F8453098F8063084F8463098F86D
S31508011700072098F8003084F84720F8EE67BA84F87D
S315080117104030F3EE087AF4EE67BAF1EE10FAEB7A96
S3150801172040F0AB810BB90123EB72DFF8448000224C
S3150801173043460092182101200AF078F8002884F817
S315080117404F00D6ED007A40F31B8213E0E8BD002076
S3150801175090C000206806002070060020F8060020C8
S3150801176078060020A8060020B8060020D00600202A
S31508011770E006002098F8013084F8393098F80230EC
S3150801178084F83A3098F8033084F83B3098F80430F6
S3150801179084F83C3098F8053084F83D3098F80630DE
S315080117A084F83E3098F8072098F8003084F83F20EE
S315080117B0F8EE677A84F83830B3EE097AF4EE477AA8
S315080117C0F1EE10FAAB7A40F0D8800BB90123AB726F
S315080117D0C84D00222B460092192101200AF026F84D
S315080117E0002884F84E0017DD6B78AA7884F8313022
S315080117F0EB7884F8322084F833302A796B7984F8C7
S315080118003420A97984F83530EA792B7884F83610AA
S3150801181084F8372084F83030F7EE007AB4EE678A18
S31508011820F1EE10FA40F0928094F94B30207E94F84C
S3150801183019C094F81AE0E67E257F617FA27F07EE3C
S31508011840103AE37F99F8004007EE904AF8EEE77AF6
S31508011850F7EE006AF4EE667AF1EE10FA15D1F8EEB3
S31508011860C77AF5EE407AF1EE10FA57D1189C4FF087
S3150801187002084FF0010B89F8008084F800B099F846
S31508011880004007EE904AF8EEE77AF0EE006AF4EEC9
S31508011890667AF1EE10FA37D1B8EEC77AB7EE008A52
S315080118A0B4EEC87AF1EE10FA38DBFB71189B87F8AB
S315080118B001C001243870BA7187F802E0FE703D71E3
S315080118C079711C70159B8C4A1C704FF0030C89F8B2
S315080118D000C0BAF800301380149A138010F0ACF9DE
S315080118E0169BD3ED007A854BF8EE677AC3E90001BA
S315080118F0F4EE487AF1EE10FA00F0288199F80030F2
S3150801190007EE903AF8EEE77AF5EE407AF1EE10FA3C
S3150801191004D1189A012389F80030137003B0BDEC7D
S31508011920088BBDE8F08F73B1002380F84B3003763E
S3150801193043768376C376037743778377C377F0EE67
S31508011940488AEB7182E5F0EE488A7FE5F2EE067A7F
S31508011950F4EE678AF1EE10FA40F0D28094F94A3033
S31508011960207C94F811C094F812E0E67C257D617D0F
S31508011970A27D07EE103AE37D64E7002B3FF44CAFF6
S31508011980002384F84E3084F8303084F8313084F8F6
S31508011990323084F8333084F8343084F8353084F8BA
S315080119A0363084F83730AB7236E7002B00F0968074
S315080119B0002384F84C3084F8203084F8213084F8E8
S315080119C0223084F8233084F8243084F8253084F8CA
S315080119D0263084F82730F0EE4AAA2B721DE6002B32
S315080119E000F08280002384F8483023706370A37066
S315080119F0E37023716371A371E371B0EE69AA2B7168
S31508011A00CDE5002B73D0002384F849302372637225
S31508011A10A372E37223736373A373E373F0EE499AB4
S31508011A206B7183E5002B00F08B80002384F84A3024
S31508011A3023746374A374E37423756375A375E375DB
S31508011A40B0EE689AAB7137E5002B76D0002384F89F
S31508011A50503084F8403084F8413084F8423084F8B4
S31508011A60433084F8443084F8453084F8463084F8A5
S31508011A704730F0EE4BBA2B734BE6002B63D00023AD
S31508011A8084F84F3084F8383084F8393084F83A309D
S31508011A9084F83B3084F83C3084F83D3084F83E3095
S31508011AA084F83F30F0EE6B7AEB7285E6CBB1002312
S31508011AB084F84D3084F8283084F8293084F82A309F
S31508011AC084F82B3084F82C3084F82D3084F82E30A5
S31508011AD084F82F30B0EE6ABA6B72DCE5F0EE4AAAEA
S31508011AE09BE5B0EE6ABAD6E5B0EE69AA57E5F0EE1F
S31508011AF0499A1BE598060020B0C0002098C000202E
S31508011B00F2EE087AB4EE679AF1EE10FA29D0F2EEFF
S31508011B100A7AF4EE679AF1EE10FA4DD194F9483043
S31508011B20207894F801C094F802E0E678257961797D
S31508011B30A27907EE103AE37984E6F0EE4BBAE8E5C6
S31508011B40B0EE689AB8E4F0EE6B7A35E65D4B199912
S31508011B500022C1E90023D1E6D6ED007AF8EE678ABC
S31508011B6074E494F94930207A94F809C094F80AE0A3
S31508011B70E67A257B617BA27B07EE103AE37B61E679
S31508011B80F8EE677A18E6D6ED007AB8EE679A93E426
S31508011B90D6ED007AF8EE67BABBE5D6ED007AB8EE6F
S31508011BA067BA78E5D6ED007AF8EE67AA35E5D6ED97
S31508011BB0007AF8EE679AB9E4F3EE057AB4EE67AA05
S31508011BC0F1EE10FA1BD0F3EE067AF4EE67AAF1EEFF
S31508011BD010FA29D194F94D3094F8280094F829C0BF
S31508011BE094F82AE094F82B6094F82C5094F82D1068
S31508011BF094F82E2007EE103A94F82F3022E694F93D
S31508011C004C3094F8200094F821C094F822E094F816
S31508011C10236094F8245094F8251094F8262007EEAA
S31508011C20103A94F827300DE6F3EE077AB4EE67BA60
S31508011C30F1EE10FA14D194F9503094F8400094F862
S31508011C4041C094F842E094F8436094F8445094F8FB
S31508011C50451094F8462007EE103A94F84730F1E516
S31508011C60F3EE087AF4EE67BAF1EE10FA14D194F9A4
S31508011C704F3094F8380094F839C094F83AE094F85B
S31508011C803B6094F83C5094F83D1094F83E2007EEDA
S31508011C90103A94F83F30D5E594F94E3094F830006F
S31508011CA094F831C094F832E094F8336094F83450DB
S31508011CB094F8351094F8362007EE103A94F8373030
S31508011CC0C0E500BF0000F03F2DE9F04F83B00C4698
S31508011CD00E9FDDF8348099460546324BD7E9000157
S31508011CE0164600220FF06CFE0123C7E9000189F8A8
S31508011CF0003023682C4A0C99013313602360D8F805
S31508011D00003007EE903AB8EE677AF7EE007AB4EE4D
S31508011D10677AF1EE10FA05D1DFF888904FF00008DE
S31508011D20C1E900893778019338460FF085FFDFF856
S31508011D3084801E4A019B1360C8E900012B602F713C
S31508011D4096F807E085F805E096F801C085F806C01B
S31508011D5096F8028085F8078096F8039085F808902A
S31508011D6096F804A085F809A096F805B0104C85F8F0
S31508011D700AB0B079E8721946A071234608220120F3
S31508011D80277084F805B084F804A084F8039084F8D1
S31508011D90028084F801C084F807E003B0BDE8F04F7B
S31508011DA009F014BB0000F03FF8BD00203CBB002041
S31508011DB0F006002058BD00204B780BB901234B7063
S31508011DC00B7833B100230B700370194603200BF00F
S31508011DD00DBA01230B700370194603200BF006BADE
S31508011DE02DE9F04F85B00E9D109C002800F0318139
S31508011DF0217809B9012121701F46129B18881646B8
S31508011E000FF02AFF8046894602460B463046394678
S31508011E1010F0F0F908B100232B7042464B463046C4
S31508011E20394610F0F1F9002800F025811799AF4BD2
S31508011E300022D1E9000110F0F1F9A378002800F099
S31508011E402E810BB90123A370A94B3046D3E9002390
S31508011E5039460FF0B5FD129B8046188889460FF062
S31508011E60EBFE0022A34B82468B460FF0A9FD4246A4
S31508011E704B460FF0A3FD00220023CDE9000110F027
S31508011E80B9F9002800F01581199B93F800A0179B52
S31508011E904FEACA1A5FFA8AFA85F805A0D3E900015A
S31508011EA010F018FA00015FFA80FB119B85F806B05D
S31508011EB0D3E9000110F00EFA139B139A50445844C3
S31508011EC018702B7853702B7893702B78D3702B78E6
S31508011ED013712B7853712B7893712B78D3710F9BD0
S31508011EE0159A5B681360129B18880FF0A5FE424687
S31508011EF04B460FF063FD002200238046894610F009
S31508011F0079F9002840F0D2807B4BD3E900AB002257
S31508011F1000235046594610F06DF9002840F0E2803A
S31508011F2052465B4640464946FEF7EEF80023002234
S31508011F3010F060F94FF0010300B90346DBB2AB704C
S31508011F4018996A4B0022D1E9000110F067F90028B7
S31508011F5000F09C8063780BB901236370674B3046A8
S31508011F60D3E9002339460FF02BFD129B0646188844
S31508011F700F460FF061FE00225E4B804689460FF040
S31508011F801FFD32463B460FF019FD0022002382460B
S31508011F908B4610F02FF9002800F0B480199B1878A9
S31508011FA0189BC0015FFA80F885F80380D3E9000120
S31508011FB010F090F90001C4B2119B2C71D3E900010C
S31508011FC010F088F9149B149A2044404418702B7811
S31508011FD053702B7893702B78D3702B7813712B78D9
S31508011FE053712B7893712B78D3710F9B169A1B68B3
S31508011FF01360129B18880FF01FFE32463B460FF0FE
S31508012000DDFC002200238046894610F0F3F80028FB
S3150801201040F092803A4BD3E900670022002330460C
S31508012020394610F0E7F8002840F0838032463B46EF
S3150801203040464946FEF768F80023002210F0DAF810
S315080120404FF0010300B90346DBB26B7005B0BDE87A
S31508012050F08F2378002BF9D0A3780BB1A870A07064
S3150801206063780BB1002363700023AB706B70237028
S3150801207005B0BDE8F08FA378A3B942464B46304672
S31508012080394610F0C1F800287FF45AAF6378002B5F
S31508012090DCD000236B70637005B0BDE8F08F002BB0
S315080120A03FF44EAF0023AB70A370E6E70123AB7094
S315080120B046E7114B93ED007B0022002351EC170BE9
S315080120C08DED027B10F096F800284AD042464B4621
S315080120D0504659460FF072FC0022002310F08AF888
S315080120E00028E3D10023AB702AE700BF00001C409B
S315080120F0380000200000F03F2800002040000020A2
S3150801210030000020204B93ED007B0022002351EC88
S31508012110170B8DED007B10F06DF880B132463B460A
S31508012120404649460FF04AFC0022002310F062F8A7
S3150801213010B900236B7089E701236B7086E7DDE927
S31508012140002350465946FDF7DFFF0022002310F011
S3150801215051F800287FF422AF129B18880FF06CFD06
S315080121604BE7DDE90223DDE90001FDF7CDFF00229A
S31508012170002310F03FF800287FF486AE129B1888DA
S315080121800FF05AFDB3E600BF300000200B791BB1F2
S315080121900023C37103720B714B7843B1CB7813B12A
S315080121A000238370CB708B7843B900234B700023CF
S315080121B08370C371437003720B70704700238B7071
S315080121C0F3E700BF2DE9F04F9BB016462F9A1392FD
S315080121D0309A1492319A1592329A16921F46339A68
S315080121E0299B10930B922B9B349A0A930C922C9B46
S315080121F0359A11930D922D9B369A129326AC249DEE
S31508012200DDF89480DDF8A8B02E9B0E9294E81006AE
S31508012210379A0F92389A1792002840D022780AB92D
S3150801222001222270CDE91867D3E900670022304BF5
S31508012230304639460FF0DEFF4FF0010E002833D045
S315080122403046394600222A4B5FFA8EF60FF0D2FF46
S31508012250002832D023791BB10023EB712B7223712D
S315080122600F9B2F930E9B2E930D9B2D930C9B2C93BB
S315080122700B9B2B930A9B2A93DDE9182301343046DD
S315080122802694CDF8A4B0CDF8A0A0CDF89C90CDF8B1
S31508012290948024951BB0BDE8F04FFFF7A1BD2378C4
S315080122A023B91BB0BDE8F08F8646C9E72146284603
S315080122B01BB0BDE8F04FFFF769BF179A0992169A46
S315080122C00892159A0792149A0692139A0592129AE7
S315080122D00492119A0392231D109A02928DE808041A
S315080122E0EA1D08F10803DDE91801FDF7A7FEB7E7BE
S315080122F00000F03F2DE9F04F85B00E9D109C002897
S3150801230000F03481217809B9012121701F46129BF9
S31508012310188816460FF0A0FC8046894602460B46E9
S31508012320304639460FF066FF20B100232B70159B06
S315080123301B786B7042464B46304639460FF064FFB0
S31508012340002800F025811899AE4B0022D1E9000139
S315080123500FF064FFA378002800F02E810BB9012342
S31508012360A370A94B3046D3E9002339460FF028FB61
S31508012370129B8046188889460FF05EFC0022A34B03
S3150801238082468B460FF01CFB42464B460FF016FB66
S3150801239000220023CDE900010FF02CFF002800F0F0
S315080123A015811A9B93F800A0189B4FEACA1A5FFA7F
S315080123B08AFA85F806A0D3E900010FF08BFF000120
S315080123C05FFA80FB119B85F807B0D3E900010FF08E
S315080123D081FF139B139A5044584418706B785370B5
S315080123E02B7893702B78D3702B7813712B785371C4
S315080123F02B7893712B78D3710F9B169A5B681360B0
S31508012400129B18880FF018FC42464B460FF0D6FA75
S3150801241000220023804689460FF0ECFE002840F092
S31508012420D2807B4BD3E900AB0022002350465946A4
S315080124300FF0E0FE002840F0E28052465B46404637
S315080124404946FDF761FE002300220FF0D3FE4FF047
S31508012450010300B90346DBB2EB701999694B0022F7
S31508012460D1E900010FF0DAFE002800F09C806378BC
S315080124700BB901236370674B3046D3E9002339460C
S315080124800FF09EFA129B064618880F460FF0D4FBEA
S3150801249000225E4B804689460FF092FA32463B4649
S315080124A00FF08CFA0022002382468B460FF0A2FE1B
S315080124B0002800F0B3801A9B1878199BC0015FFAAF
S315080124C080F885F80480D3E900010FF003FF0001C5
S315080124D0C4B2119B6C71D3E900010FF0FBFE149B8A
S315080124E0149A2044404418706B7853702B78937073
S315080124F02B78D3702B7813712B7853712B789371B2
S315080125002B78D3710F9B179A1B681360129B188837
S315080125100FF092FB32463B460FF050FA0022002399
S31508012520804689460FF066FE002840F091803A4BB6
S31508012530D3E9006700220023304639460FF05AFED8
S31508012540002840F0828032463B4640464946FDF720
S31508012550DBFD002300220FF04DFE4FF0010300B909
S315080125600346DBB2AB7005B0BDE8F08F2378002BCC
S31508012570F9D0A3780BB1E870A07063780BB100238A
S3150801258063700023EB70AB70237005B0BDE8F08F64
S31508012590A378A3B942464B46304639460FF034FE76
S315080125A000287FF45AAF6378002BDCD00023AB7088
S315080125B0637005B0BDE8F08F002B3FF44EAF0023E2
S315080125C0EB70A370E6E70123EB7046E7104B93ED3A
S315080125D0007B0022002351EC170B8DED027B0FF0D7
S315080125E009FE002849D042464B46504659460FF047
S315080125F0E5F9002200230FF0FDFD0028E3D10023B1
S31508012600EB702AE700001C40380000200000F03F6C
S31508012610280000204000002030000020204B93EDC8
S31508012620007B0022002351EC170B8DED007B0FF088
S31508012630E1FD80B132463B46404649460FF0BEF9B8
S31508012640002200230FF0D6FD10B90023AB708AE7EC
S315080126500123AB7087E7DDE9002350465946FDF7AC
S3150801266053FD002200230FF0C5FD00287FF423AF98
S31508012670129B18880FF0E0FA4CE7DDE90223DDE941
S315080126800001FDF741FD002200230FF0B3FD0028EC
S315080126907FF487AE129B18880FF0CEFAB4E600BF16
S315080126A030000020F0B585B00EAC70CC002830D0D3
S315080126B0287808B9012028701846174600295FD1DD
S315080126C0AB78002B4DD1002F4FD16B78002B45D11C
S315080126D0A37D002B2DD0637D3370A37B7370E37BC1
S315080126E0B370237CF370637C3371A37C7371E37CD1
S315080126F0B371237DF371A37D002B2DD1237A00338A
S3150801270018BF012313990B70119B01221A7005B08A
S31508012710F0BD2B78002BFAD0AB780BB1A075A87059
S315080127206B7813B1002323726B7000232B7005B0ED
S31508012730F0BDE3793370237873706378B370A37847
S31508012740F370E3783371237973716379B371A3797C
S31508012750F371A37D002BD1D00123D3E727726F70C4
S31508012760B6E7A175A970002FAFD0129B0293013568
S3150801277001950094DDE90C230A98FDF76BFEA7E79E
S3150801278004F10E02129B0293A91C00920191DDE944
S315080127900C23FDF70DFE96E738B521F000430D46EB
S315080127A000221946154B04460FF02EFDC8B100222A
S315080127B0134B204629460FF03BFDA8B90022114BC1
S315080127C0204629460FF03EFD48B9204629460C4BBE
S315080127D000220FF0F3F8BDE838400EF049BE002498
S315080127E000252046294638BD20462946044B0022A5
S315080127F00FF0E6F8BDE838400EF0C2BE00003043DF
S315080128000000E03F0000E0BF38B505460021022080
S3150801281001240AF0B9FC85F8B740FEF7EDF8FEF792
S315080128209FFD002108460AF0AFFC204600210AF068
S31508012830ABFC002110200AF0A7FC002104200AF0B5
S31508012840A3FC002112200AF09FFC002113200AF0A4
S315080128509BFC00210E200AF097FC00210F200AF0AC
S3150801286093FC00210320BDE838400AF08DBC00BF67
S315080128702DE9F04F2DED068B9346ADF51D7D92F8AA
S31508012880F020BA9C81468A461D4612B901238BF867
S31508012890F0309BF8B630002B00F00D8500238BF83D
S315080128A0B630194689F82E3002200AF09FFC9BF8AB
S315080128B0B730002B00F084809BF8EC3013B9012364
S315080128C08BF8EC30B49B1B78002B40F05C87B59BEA
S315080128D093F8008018F1000818BF4FF00108D5E9F0
S315080128E000670022324B304639460FF083FC48B95F
S315080128F000224FF08043304639460FF07BFC002812
S3150801290001F06E829BF8CB30002B01F072829BF8A6
S31508012910ED30002B01F07582B8F1000F41F070849B
S315080129209BF8CB309BB1224BAD990022C1E900231C
S31508012930AC9ABAF8B03113809AF8B5318BF8B03041
S315080129409BF8CB301BB11A4B0022CBE90623B49B6B
S31508012950174900269FED147B1E70B59B00201E703B
S315080129608BED227BC9E900013346DBE922678BF847
S31508012970B73030460F4B394600220FF059FC4FF05D
S31508012980010300B903468BF8CB300022094B3046C8
S3150801299039460FF04DFC002803F0E083064B002270
S315080129A0CBE9222319E000BF000000000000000067
S315080129B00000F03F00807A400000F0BF0000544359
S315080129C09BF8EC20002A00F083849BF8ED20002A6E
S315080129D041F0068400238BF8EC30AC9B1FED097A95
S315080129E01B8807EE903AF8EEE77AF4EE477AF1EEAD
S315080129F010FA14D1AC9A002313809BF8B0603046C4
S31508012A000FF02AF9DAE96A230FF0FEFB002801F034
S31508012A101E820136474BF6B21E708BF8B0609BF8E2
S31508012A20B730002B00F062849BF8CC30002B00F005
S31508012A3063829BF8D630002B00F0B8819BF8DF3013
S31508012A40002B00F008819BF8E330C3B19BF8E43012
S31508012A5093B19BF8193123B1002389F842318BF8D8
S31508012A6019319BF8183123B1002389F834318BF8D1
S31508012A70183100238BF8E43000238BF8E3309BF8F8
S31508012A80E230C3B19BF8153193B19BF8173123B1E5
S31508012A90002389F826318BF817319BF8163123B1B3
S31508012AA0002389F818318BF8163100238BF8153174
S31508012AB000238BF8E2309BF8E130C3B19BF8123161
S31508012AC093B19BF8143123B1002389F80A318BF8A5
S31508012AD014319BF8133123B1002389F8FC308BF8A4
S31508012AE0133100238BF8123100238BF8E1309BF860
S31508012AF0E030C3B19BF80F3193B19BF8113123B183
S31508012B00002389F8EE308BF811319BF8103123B187
S31508012B10002389F8E0308BF8103100238BF80F3148
S31508012B2000238BF8E0309BF82631002B44F04380D4
S31508012B3002E000BF70BD00209BF8E73043B39BF865
S31508012B40253133B1002389F8643189F865318BF869
S31508012B5025319BF8223183B19BF8243123B1002317
S31508012B6089F85F318BF824319BF8233113B100239F
S31508012B708BF8233100238BF82231002389F85F3142
S31508012B8089F8643189F85E3189F865318BF8E7305F
S31508012B909BF8E63043B39BF8213133B1002389F81A
S31508012BA05A3189F85B318BF821319BF81E3183B193
S31508012BB09BF8203123B1002389F855318BF8203150
S31508012BC09BF81F3113B100238BF81F3100238BF8B3
S31508012BD01E31002389F8553189F85A3189F854315B
S31508012BE089F85B318BF8E6309BF8E53043B39BF8FF
S31508012BF01D3133B1002389F8503189F851318BF8E9
S31508012C001D319BF81A3183B19BF81C3123B100237E
S31508012C1089F84B318BF81C319BF81B3113B1002312
S31508012C208BF81B3100238BF81A31002389F84B31B5
S31508012C3089F8503189F84A3189F851318BF8E530EC
S31508012C40002389F8243089F8273089F8253089F84E
S31508012C5026308BF8DF309BF8D730002B00F09B80AD
S31508012C609BF8DA30C3B19BF8DB3093B19BF8073197
S31508012C7023B1002389F8BE308BF807319BF806315A
S31508012C8023B1002389F8B0308BF8063100238BF87D
S31508012C90DB3000238BF8DA309BF8D830C3B19BF8C8
S31508012CA0D93093B19BF8053123B1002389F89C30BB
S31508012CB08BF805319BF8043123B1002389F88E304E
S31508012CC08BF8043100238BF8D93000238BF8D830E0
S31508012CD09BF8DD3043B39BF80E3133B1002389F8F5
S31508012CE0D63089F8D7308BF80E319BF8DE3083B1B0
S31508012CF09BF80D3123B1002389F8D3308BF80D31B8
S31508012D009BF80C3113B100238BF80C3100238BF897
S31508012D10DE30002389F8D33089F8D63089F8D030E7
S31508012D2089F8D7308BF8DD309BF8DC3043B39BF854
S31508012D300B3133B1002389F8CB3089F8CC308BF8C5
S31508012D400B319BF8083183B19BF80A3123B1002373
S31508012D5089F8C6308BF80A319BF8093113B100237B
S31508012D608BF8093100238BF80831002389F8C6301E
S31508012D7089F8CB3089F8C53089F8CC308BF8DC3046
S31508012D80002389F8203089F8213089F8223089F81A
S31508012D9023308BF8D730002389F81C3089F81D3089
S31508012DA089F81E3089F81F308BF8D6309BF8CD305C
S31508012DB0002B00F096809BF8D3305BB39BF8D43098
S31508012DC0C3B19BF8D53093B19BF8FE3023B10023EC
S31508012DD089F877308BF8FE309BF8FD3023B1002354
S31508012DE089F869308BF8FD3000238BF8D53000233C
S31508012DF08BF8D4309BF8FF30002B43F0C4860023B0
S31508012E0089F87F3089F87E3089F8843089F88530E9
S31508012E108BF8D3309BF8CE30002B57D09BF8CF30A8
S31508012E20C3B19BF8D03093B19BF8F43023B100239A
S31508012E3089F847308BF8F4309BF8F33023B1002337
S31508012E4089F839308BF8F33000238BF8D03000231A
S31508012E508BF8CF309BF8D13043B39BF8FC3033B1B4
S31508012E60002389F85F3089F860308BF8FC309BF8CD
S31508012E70D23083B19BF8FB3023B1002389F85C304B
S31508012E808BF8FB309BF8FA3013B100238BF8FA3034
S31508012E9000238BF8D230002389F85C3089F85F303B
S31508012EA089F8593089F860308BF8D1309BF8F530BC
S31508012EB0002B43F07886002389F8183089F81B30EF
S31508012EC089F81A3089F819308BF8CE30002389F839
S31508012ED0143089F8153089F8163089F817308BF8C7
S31508012EE0CD30002389F8103089F8113089F812306D
S31508012EF089F813308BF8CC3099F81230002B40F052
S31508012F005C879BF8B760003618BF01269BF8AC3082
S31508012F10DF0600F13D8743F010038BF8AC3099F8D2
S31508012F201030002B40F039879BF8AC301D0700F1B3
S31508012F30F3869BF8AC3043F008038BF8AC30002ECF
S31508012F4040F0ED86DBB29BF8B720002A40F0AE864A
S31508012F5099F81320002A40F0A9865A0705D49BF848
S31508012F60AC3043F004038BF8AC3098075CBF43F0F0
S31508012F7002038BF8AC3099F81130002B40F020870A
S31508012F802378002B00F0EB869BF8F23013B9012366
S31508012F908BF8F2309BF8BC30002B00F053870023E6
S31508012FA08BF8BC30002020709BF8BC1089F83010D3
S31508012FB0002940F0428708460AF018F99BF8B8300C
S31508012FC0002B00F0C3869BF8F13013B901238BF867
S31508012FD0F1309BF8BD30002B00F05F8700238BF89A
S31508012FE0BD308BF8B830194689F82F3001200AF020
S31508012FF0FDF89BF8B930002B00F085869BF8EE307A
S3150801300013B901238BF8EE309BF8BF30002B00F083
S31508013010378700238BF8BF308BF8B930194689F802
S315080130202C3010200AF0E2F89BF8EF3013B901238F
S315080130308BF8EF309BF8BE30002B00F06186002339
S315080130408BF8BE30194689F82D3004200AF0CEF8DF
S31508013050BB9900230022D1E900010FF0CBF89BF8B8
S31508013060EB30002840F0448613B901238BF8EB3086
S315080130709BF8B330002B00F0D18600238BF8B330D0
S3150801308089F82B30BB9B00210020C3E9000199F880
S315080130902B1001B1012112200AF0A8F8BC990023CE
S315080130A00022D1E900010FF0A5F89BF8EA300028C3
S315080130B040F0168613B901238BF8EA309BF8B23033
S315080130C0002B00F0A68600238BF8B23089F82A3047
S315080130D0BC9B00210020C3E9000199F82A1001B11F
S315080130E0012113200AF082F8BD9900230022D1E9B3
S315080130F000010FF07FF89BF8E930002840F0408680
S3150801310013B901238BF8E9309BF8B530002B00F091
S315080131108F8600238BF8B53089F82930BD9B0021AD
S315080131200020C3E9000199F8291001B101210E20F7
S315080131300AF05CF8BE9900230022D1E900010FF0DC
S3150801314059F89BF8E830002840F0128613B9012394
S315080131508BF8E8309BF8B430002B00F06486002326
S315080131608BF8B43089F82830BE9B00210020C3E9CA
S31508013170000199F8281001B101210F200AF036F84B
S315080131809BF8C030002B00F072859BF8B03007EE33
S31508013190903AF8EEE77AF5EE407AF1EE10FA40F059
S315080131A05C8614230DF5987AA0224449CBF8A430FD
S315080131B0CBF8A83050460FF0B3F8A022404974A8BE
S315080131C00FF0AEF8AC9BB3F8008040460EF044FD14
S315080131D0DAE90045CDE9160102460B46204629469D
S315080131E00FF012F8002803F03A85CDF86090CDF873
S315080131F068B0C346DDE91689324F00260022314BF5
S31508013200304639460EF0DCFB0F4606460FF03AF813
S315080132100AEBC00050E9024542464B46204629467C
S315080132200EF0F2FF0028E9D10022264BDDF8609066
S31508013230304639460EF0C2FB0FF024F8D846DDF8C1
S3150801324068B00138C6009CAB334453E92801002213
S3150801325000230EF0CFFF0746002840F08B83404637
S315080132600EF0EAFC02460B4620462946CDE916230E
S315080132700EF0A4FBFFF790FA0022134B04460D4605
S315080132800EF0C2FF002800F0A58700220023204681
S3150801329029460EF0CDFF002803F0FA842046294678
S315080132A00FF018F880B2431E984285F03483002245
S315080132B0002300F0B0BC0123FFF7F1BA00C00008F3
S315080132C000C100080000F03F0000F0400000544330
S315080132D0AC9B1FED027A1B8807EE903AF8EEE77A67
S315080132E0F4EE477AF1EE10FA3FF484AB9BF8CC3052
S315080132F013B901238BF8CC30D5E9006700224D4B71
S31508013300304639460EF076FF002840F0408200220A
S315080133104FF08043304639460EF06CFF002840F0E6
S3150801332036820022444B304639460EF063FF0028A8
S3150801333040F02D829BF8D630002B00F093819BF844
S31508013340DF30002B00F009819BF8E330BBB19BF815
S31508013350E4308BB19BF819311BB189F842018BF81E
S3150801336019019BF8183123B1002389F834318BF8F8
S31508013370183100238BF8E43000238BF8E3309BF8EF
S31508013380E230C3B19BF8153193B19BF8173123B1DC
S31508013390002389F826318BF817319BF8163123B1AA
S315080133A0002389F818318BF8163100238BF815316B
S315080133B000238BF8E2309BF8E130C3B19BF8123158
S315080133C093B19BF8143123B1002389F80A318BF89C
S315080133D014319BF8133123B1002389F8FC308BF89B
S315080133E0133100238BF8123100238BF8E1309BF857
S315080133F0E030C3B19BF80F3193B19BF8113123B17A
S31508013400002389F8EE308BF811319BF8103123B17E
S31508013410002389F8E0308BF8103100238BF80F313F
S3150801342000238BF8E0309BF82631002B43F0938379
S3150801343004E000BF0000F03F000008409BF8E730B9
S3150801344043B39BF8253133B1002389F8643189F8F0
S3150801345065318BF825319BF8223183B19BF82431EC
S3150801346023B1002389F85F318BF824319BF8233186
S3150801347013B100238BF8233100238BF82231002363
S3150801348089F85F3189F8643189F85E3189F86531DF
S315080134908BF8E7309BF8E63043B39BF8213133B11B
S315080134A0002389F85A3189F85B318BF821319BF869
S315080134B01E3183B19BF8203123B1002389F8553198
S315080134C08BF820319BF81F3113B100238BF81F317C
S315080134D000238BF81E31002389F8553189F85A31B2
S315080134E089F8543189F85B318BF8E6309BF8E53079
S315080134F043B39BF81D3133B1002389F8503189F85C
S3150801350051318BF81D319BF81A3183B19BF81C3167
S3150801351023B1002389F84B318BF81C319BF81B31F9
S3150801352013B100238BF81B3100238BF81A310023C2
S3150801353089F84B3189F8503189F84A3189F851317E
S315080135408BF8E530002389F8243089F8273089F883
S31508013550253089F826308BF8DF309BF8D730002BD9
S3150801356073D09BF8DA30C3B19BF8DB3093B19BF883
S31508013570073123B1002389F8BE308BF807319BF850
S31508013580063123B1002389F8B0308BF806310023C0
S315080135908BF8DB3000238BF8DA309BF8D830C3B1CF
S315080135A09BF8D93093B19BF8053123B1002389F8EB
S315080135B09C308BF805319BF8043123B1002389F837
S315080135C08E308BF8043100238BF8D93000238BF821
S315080135D0D8309BF8DD3043B39BF80E3133B1002365
S315080135E089F8D63089F8D7308BF80E319BF8DE305A
S315080135F083B19BF80D3123B1002389F8D3308BF8B9
S315080136000D319BF80C3113B100238BF80C310023D3
S315080136108BF8DE30002389F8D33089F8D63089F85B
S31508013620D03089F8D7308BF8DD309BF8DC30002BA9
S3150801363043F0FC81002389F8203089F8213089F884
S31508013640223089F823308BF8D730002389F81C30CB
S3150801365089F81D3089F81E3089F81F308BF8D63065
S31508013660D5E900671693B94B3046394600220EF064
S31508013670C1FD9BF8CD30002802F0C48413B901239B
S315080136808BF8CD309BF8B03008EE103AB8EEC88A00
S315080136909BF8D330B5EE408AF1EE10FA42F09185E7
S315080136A013B901238BF8D330AC9BDFEDA98AB3F8A4
S315080136B0008007EE908AB8EEE79AB4EEE89AF1EE42
S315080136C010FAC1F2FB8140460EF0C6FADAE91A236E
S315080136D00EF09AFD002801F0F181B4EE689AF1EE38
S315080136E010FA43F07F839BF8BA30002B0CBF0123F5
S315080136F000238BF8B83004F0C880AC9B1E8807EE0F
S31508013700906AF8EEE78ADFED937A934A9BF8C3301D
S315080137101370F4EE678AF1EE10FA41F0D281002BAC
S3150801372002F013879AF8B9318BF8C330B49A9AF82C
S31508013730B9311370B59A9AF8B93113709AF8B93143
S315080137408BF8C0309AF8BA118BF8B710AD990022E8
S315080137500023CBE90623C1E90023B89A9AF8B331C5
S315080137601370B99A9AF8B3311370B69A0123136094
S31508013770B79A13602370AC9B1E8807EE906AF8EE21
S31508013780E78A01F09EB94FF00108FFF7A8B89BF840
S31508013790D63013B901238BF8D6309BF8B03009EE31
S315080137A0103AB8EEC99A9BF8DF30B5EE409AF1EEB9
S315080137B010FA40F09B8313B901238BF8DF30AC9BD9
S315080137C0DFED668A1F8807EE907AB8EEE78AB4EECF
S315080137D0E88AF1EE10FAC0F29D8538460EF03CFAF9
S315080137E0DAE948230EF010FD002800F09385B4EEBF
S315080137F0688AF1EE10FA40F08D8595ED007B00227E
S31508013800574B51EC170B8DED167B0EF0F3FC002888
S3150801381043F020849BF8C730002B03F06A861A9080
S31508013820DDE9160100224FF080430EF0E3FC002883
S3150801383005F04380002316939BF8C630002B43F00E
S315080138402284474BDBE9180100220EF0B9F8CBE9CF
S31508013850180101231C939BF8BA80B8F1000F43F0B5
S315080138600186AD9B93ED007B00223E4B51EC170B75
S315080138708DED187B0EF0BEFC002804F03B82002279
S31508013880384BD5E900010EF0B5FC002803F0C585D3
S315080138904646CDF8788043461A9A002A43F0AF8502
S315080138A0169A002A43F048871C9A002A43F044874F
S315080138B0002B43F04187002E43F03E879DF8783070
S315080138C0294A8BF8B830DBE91C01C2E90001169BCD
S315080138D0CBE91C01002B03F02887214B0022DBE9E9
S315080138E01E010EF06DF8214BC3E900011C9BCBE9C3
S315080138F01E01002B03F01287194B0022DBE9200178
S315080139000EF05EF81A4BC3E90001CBE92001B8F1C4
S31508013910000F0FD1AD99D5E90023D1E900010EF0C9
S3150801392069FC38B9DBE91A0100220D4B0EF048F89B
S31508013930CBE91A0101232370AC9BB3F8008007EE8B
S31508013940908AF8EEE78A00F0E8BC00BF0000204044
S315080139500000404200004842AABD0020000044433E
S315080139600000F03F0000084050BD002018BE0020AE
S31508013970A0BD002040460EF05FF9B244DAE9002303
S31508013980CDE916010EF01AF8FEF706FF0022C24B22
S3150801399004460D460EF038FC002800F02984002262
S315080139A00023204629460EF043FC002803F08D81AA
S315080139B0294620460EF08EFC80B282460EF03CF96E
S315080139C0CDE91801B54BD3E90067DDE9180132469F
S315080139D03B460DF0F3FFFEF7DFFE0022AE4B044631
S315080139E00D460EF011FC002802F07D850022002309
S315080139F0204629460EF01CFC002803F06281204669
S31508013A0029460EF067FC80B20EF016F9A44BD3E9ED
S31508013A10004522462B460EF0AFFAFEF7BDFE002200
S31508013A209D4BCDE91A010EF0EFFB002802F05685F1
S31508013A3000220023DDE91A010EF0FAFB002803F043
S31508013A403C81DDE91A010EF045FC80B20130B0F582
S31508013A50803F02F043850EF0EFF802460B462046FA
S31508013A6029460EF05FF9FEF797FE00228A4B0446B7
S31508013A700D460EF0C9FB002802F0488500220023F6
S31508013A80204629460EF0D4FB002803F01281294668
S31508013A9020460EF01FFC80B20EF0CEF802460B4609
S31508013AA0304639460DF08CFFFEF776FE00227A4B3A
S31508013AB004460D460EF0A8FB002802F023850022D5
S31508013AC00023204629460EF0B3FB002803F0DD80CB
S31508013AD0204629460EF0FEFB1FFA80F8714BD3E902
S31508013AE00067DDE9180132463B460DF067FFFEF730
S31508013AF053FE0022684B04460D460EF085FB00284E
S31508013B0002F0FB8400220023204629460EF090FB92
S31508013B10002803F0B680204629460EF0DBFB80B26A
S31508013B200EF08AF8604BD3E9004522462B460EF083
S31508013B3023FAFEF731FE0022574BCDE918010EF0A4
S31508013B4063FB002802F0D48400220023DDE9180172
S31508013B500EF06EFB002803F09080DDE918010EF0E7
S31508013B60B9FB80B20130B0F5803F02F0C1840EF096
S31508013B7063F802460B46204629460EF0D3F8FEF7AF
S31508013B800BFE0022444B04460D460EF03DFB002871
S31508013B9002F0CA8400220023204629460EF048FB7B
S31508013BA0002803F06680294620460EF093FB80B272
S31508013BB00EF042F802460B46304639460DF000FF34
S31508013BC0FEF7EAFD0022344B04460D460EF01CFBB7
S31508013BD0002802F0A58400220023204629460EF07B
S31508013BE027FB002803F05C80204629460EF072FB6D
S31508013BF080B2804528BF8046CAEB0803434502F2D6
S31508013C008A84981E8342C2F0868480B207460EF0E3
S31508013C1023F802460B46DBE90845204629460EF0FD
S31508013C2007FB002802F0B68238460EF005F806466C
S31508013C300F4622462B46304639460DF0BFFE002375
S31508013C40002204460D460EF0FDFA4FF0010300B9B5
S31508013C5003468BF8C0303046DDE9162339460DF0A8
S31508013C60AFFE0EF037FBAC9B1880CBE908459BF8F5
S31508013C70AC30D9075CBF43F001038BF8AC300BF2CB
S31508013C802B1109F27110FEF797F80DF51D7DBDECA4
S31508013C90068BBDE8F08F00BF0000F0403800002019
S31508013CA02800002040000020300000205B0742F178
S31508013CB07582BD9B0593B99B0393B79B0293B59BED
S31508013CC00193B19B04940093AF9BAC9A0BF59A713F
S31508013CD009F5C070FDF76CFB9BF8AC30FFF745B9E9
S31508013CE0002B3FF401AA00238BF8EA30FFF7FCB951
S31508013CF0002B3FF4D3A900238BF8EB30FFF7CEB99D
S31508013D000123FFF79DB99BF8EE20002A3FF48CA901
S31508013D108BF8EE30FFF788B9002E3FF414A9BB9B48
S31508013D200593B89B0393B69B0293B49B0193B09BEF
S31508013D3000930494AE9BAC9A0BF5A27109F2D110CB
S31508013D40FCF782FE9BF8AC30FFF7FDB89BF8F12033
S31508013D50002A3FF44EA98BF8F130FFF74AB99BF8D0
S31508013D60F220002A3FF42AA98BF8F230FFF726B988
S31508013D70002B3FF405AA00238BF8E830FFF700BAB9
S31508013D80002B3FF4D7A900238BF8E930FFF7D2B906
S31508013D9099F81020002A3FF4C9A8C19B0293BF9B3A
S31508013DA00193BC9B0093B29A23460BF5AA7109F5B8
S31508013DB00970FCF7A9FDFFF7B7B80126FFF7A6B802
S31508013DC0C29B0293C09B0193BE9B0093B39A234661
S31508013DD00BF5987109F5BA70FDF776FFFFF7D0B8BC
S31508013DE03046394600223C4B0EF004FA00287EF490
S31508013DF089ADB8F1000F5CD09BF8ED30002B40F08F
S31508013E00FF8101238BF8ED30B8F1000F3EF488AD40
S31508013E10F6E101238BF8B230FFF758B901238BF885
S31508013E20B330FFF72DB901238BF8B430FFF79AB9F0
S31508013E3001238BF8B530FFF76FB9012109F0D6F9DF
S31508013E40FFF7BCB801238BF8BC30FFF7ABB8234B9F
S31508013E509AF8B6611E70FEF7E0BD0C230DF5987A47
S31508013E60CBF8A430CBF8A830504660221C490EF096
S31508013E7057FA60221B4974A80EF052FAFFF7A2B945
S31508013E8001228BF8B9308BF8BF20114689F82C200E
S31508013E90102009F0ABF9FFF7C7B801218BF8B83044
S31508013EA08BF8BD10084689F82F1009F09FF9FFF71E
S31508013EB0A0B89BF8ED300022002B40F000820023C9
S31508013EC0D9E900014FF001060EF094F9002800F037
S31508013ED00482F3B2FEF749BD0000084070BD002018
S31508013EE0A0C00008A0C1000800004843002B02F04A
S31508013EF0F4849BF8E330C3B19BF8E43093B19BF8A3
S31508013F00193123B1002389F842318BF819319BF80D
