S02300002E2E2F48414E636F6465725F453430375F5454415F47726F7570322E737265636D
S3150800400054D0002059FA0108000000000000000002
S315080040100000000000000000000000000000000092
S3150800402000000000000000000000000049C8010868
S315080040300000000000000000E5C8010835C90108B5
S315080040400000000000000000000000000000000062
S315080040500000000000000000000000000000000052
S315080040600000000025D6010800000000000000003E
S315080040700000000000000000000000000000000032
S3150800408000000000000000000000000071BC0108EC
S3150800409029BC01084DBC010895BC010800000000B8
S315080040A011D60108FDD50108E9D50108D9D50108B9
S315080040B0C5D50108B1D501089DD501080000000045
S315080040C000000000000000000000000000000000E2
S315080040D00000000029E0010841E0010859E0010854
S315080040E0000000000000000021E1010800000000B7
S315080040F089D5010875D5010865D5010800000000B5
S315080041000000000089E0010800000000000000002F
S315080041100000000000000000000000000000000091
S315080041200000000000000000000000008DE001080B
S315080041300000000055D601080000000001BD010876
S31508004140B9BC0108DDBC010825BD010851E101081B
S3150800415000000000000000000000000071E00108F7
S315080041600000000000000000000000000000000041
S315080041700000000000000000000000000000000031
S311080041800000000000000000EE11AA5527
S3150800C000000000000000000000000000000044409E
S3150800C0100000000000004640000000000000474005
S3150800C02000000000000048400000000000004940F1
S3150800C0300000000000004A400000000000005740D1
S3150800C04000000000000058400000000000005940B1
S3150800C05000000000008061400000000000C0614050
S3150800C06000000000000062400000000000806240FE
S3150800C07000000000008067400000000000006840E3
S3150800C08000000000008068400000000000006940D1
S3150800C09000000000008069400000000000006A40BF
S3150800C0A000000000000000000000000000004440FE
S3150800C0B00000000000004640000000000000474065
S3150800C0C00000000000004840000000000000564044
S3150800C0D000000000008056400000000000005740A5
S3150800C0E000000000008060400000000000C06040C2
S3150800C0F000000000000069400000000000406940A0
S3150800C1000000000000000000000000000000F03FF2
S3150800C110000000000000F03F000000000000F03FB3
S3150800C120000000000000F03F000000000000F03FA3
S3150800C1300000000000000000000000000000F03FC2
S3150800C140000000000000F03F0000000000000000B2
S3150800C150000000000000F03F000000000000F03F73
S3150800C160000000000000F03F000000000000000092
S3150800C170000000000000F03F000000000000F03F53
S3150800C180000000000000F03F000000000000F03F43
S3150800C190000000000000F03F000000000000F03F33
S3150800C1A00000000000000000000000000000F03F52
S3150800C1B0000000000000F03F000000000000F03F13
S3150800C1C00000000000000000000000000000F03F32
S3150800C1D0000000000000F03F000000000000000022
S3150800C1E0000000000000F03F000000000000F03FE3
S3150800C1F0000000000000F03F000000000000F03FD3
S3150800C2000000010101000100010100000001000118
S3150800C2100000000000006140000000000080694046
S3150800C22000000000000057400000000000004640E3
S3150800C23000000000000048400000000000004440E4
S3150800C2400000000000005640000000000000903F7B
S3150800C2500000000000005040000000000000C03F41
S3150800C2600000000000002040000000000000903F91
S3150800C27000000000000050400000000000004A4096
S3150800C2800000000000006A40000000000000464070
S3150800C2900000000000004840000000000000444084
S3150800C2A000000000008069400000000000005740C0
S3150800C2B00000000000004640000000000000614049
S3150800C2C00000000000004840000000000000444054
S3150800C2D0000000000000564000000000008060409A
S3150800C2E0000000000000903F0000000000005040E1
S3150800C2F0000000000000C03F0000000000002040D1
S3150800C300000000000000903F0000000000005040C0
S3150800C310000000000000694000000000008069403D
S3150800C3200000000000806A400000000000006A402B
S3150800C33000000000000046400000000000004840E1
S3150800C3400000000000004A400000000000005940BC
S3150800C3500000000000005840000000000080624015
S3150800C36000000000000062400000000000806840F5
S3150800C3700000000000006840000000000000444083
S3150800C38000000000008067400000000000005740E1
S3150800C3900000000000806140000000000000F03F3F
S3150800C3A0010000000100000000000000000000007D
S3150800C3B0010001000001000001000000010000006A
S3150800C3C00100000001000000000000001500000048
S3150800C3D01500000015000000150000000000000010
S3150800C3E0010000000100000001000000010000003B
S3150800C3F0000000000100000001000000000000002D
S3150800C400010000000100000001000000010000001A
S3150800C41000000000150000001500000015000000CF
S3150800C42015000000000000000D0000000D000000CF
S3150800C4300D0000000D000000000000000C000000C8
S3150800C4400C0000000C0000000C00000000000000BA
S3150800C4500B0000000B0000000B0000000B000000A2
S3150800C46000000000010000000100000001000000BB
S3150800C47001000000000000006464640048414E6347
S3150800C4806F6465725F453430375F5454415F477255
S3150800C4906F7570325F736F66747761726549445F52
S3150800C4A076315F3138303532325F313831323138B2
S3150800C4B04170704374726C5461736B0048414E63EB
S3150800C4C06F6465725F453430375F5454415F477215
S3150800C4D06F7570322E6300002000000000140240C1
S3150800C4E008000900200000000014024010000E0099
S3150800C4F0200000000014024020000F002000000069
S3150800C500001402404000040020000000001402400D
S3150800C510800005002000000000140240000106000B
S3150800C520200000000014024000020700200000005E
S3150800C530001402400004080004000000000802403D
S3150800C54001000A00040000000008024004000C0074
S3150800C550414443636F6E76657273696F6E54617397
S3150800C5606B0000002E2E2F626C6F636B7365742F41
S3150800C5707274772F53544D33322F7372632F686555
S3150800C58061705F342E630000546D724370754C6F92
S3150800C5906164000049444C45000000002E2E2F62BD
S3150800C5A06C6F636B7365742F7274772F53544D33A6
S3150800C5B0322F7372632F7461736B732E63000000DE
S3150800C5C02E2E2F626C6F636B7365742F7274772FC0
S3150800C5D053544D33322F7372632F74696D657273BA
S3150800C5E02E630000546D72205376630043616E45D6
S3150800C5F076656E745461736B0000000043616E5477
S3150800C60072616E736D69745461736B002E2E2F629E
S3150800C6106C6F636B7365742F7274772F53544D3335
S3150800C620322F7372632F53544D33325F453430378C
S3150800C6302F63616E2E630000006400400000000254
S3150800C64008000000000C024001000000080000007D
S3150800C650000C024002000100091314151600000020
S3150800C66000680040000000040200000000040240C8
S3150800C67020000500020000000004024040000600F9
S3150800C680093F404142000000010102010202020284
S3150800C690020302020402020303030403030503035D
S3150800C6A0060303050404060404070404080404072F
S3150800C6B00505080505080605080705080706080804
S3150800C6C00608080708080800457643686E6C3100B6
S3150800C6D0457643686E6C3200457643686E6C330067
S3150800C6E02E2E2F626C6F636B7365742F7274772F9F
S3150800C6F053544D33322F7372632F53544D33325F75
S3150800C700453430372F6D61632E6300002E2E2F625D
S3150800C7106C6F636B7365742F7274772F53544D3334
S3150800C720322F7372632F53544D33325F453430378B
S3150800C7302F706F72742E6300000001400100000024
S3150800C740020100001000000000100240000209006B
S3150800C750100000000010024000080B000004004012
S3150800C7600200000001020000010000000000024073
S3150800C77040000600020000000004024020000500F8
S3150800C7800008004004000000010200000800000044
S3150800C790000C024000100C0008000000000C0240CB
S3150800C7A000200D0000040140020000000203000002
S3150800C7B004000000000802404000060004000000D3
S3150800C7C00008024080000700000001400100000048
S3150800C7D002011900000000400100000001021C00CF
S3150800C7E0000400400200000001021D00000800408D
S3150800C7F00400000001021E000004014002000000BF
S3150800C80002012C000040014000000100020118004E
S3150800C81000440140000002000201190000480140DE
S3150800C8200000040002011A00001C004080000000FD
S3150800C83001022C00002000400001000001022D002A
S3150800C840040000000008024001000000200000006B
S3150800C85000140240400000002000000000140240BE
S3150800C86080000000200000000014024000010000C3
S3150800C8702000000000140240000200002000000012
S3150800C88000140240000400000200000000040240F8
S3150800C8908000000002000000000402404000000082
S3150800C8A01000000000100240040000001000000004
S3150800C8B000100240100000001000000000100240A6
S3150800C8C02000000010000000001002404000000098
S3150800C8D040000000001802408000000040000000F0
S3150800C8E00018024000010000400000000018024045
S3150800C8F00010000040000000001802400080000000
S3150800C90001000000000002401000000002000000C4
S3150800C9100004024020000000010000000000024060
S3150800C9204000000001000000000002402000000056
S3150800C93008000000000C024001000000080000008A
S3150800C940000C02400200000008000000000C024033
S3150800C9500400000008000000000C02400800000067
S3150800C96008000000000C024010000000080000004B
S3150800C970000C02402000000008000000000C0240E5
S3150800C9804000000008000000000C02408000000083
S3150800C99008000000000C024000010000080000002A
S3150800C9A0000C02400002000008000000000C0240D3
S3150800C9B00004000008000000000C02400008000007
S3150800C9C008000000000C02400010000008000000EB
S3150800C9D0000C02400020000008000000000C024085
S3150800C9E00040000008000000000C02400080000023
S3150800C9F010000000001002400100000010000000B6
S3150800CA000010024002000000100000000010024062
S3150800CA10080000001000000000100240800000001E
S3150800CA201000000000100240000100001000000085
S3150800CA300010024000020000100000000010024032
S3150800CA40000400001000000000100240000800006A
S3150800CA501000000000100240001000001000000046
S3150800CA6000100240002000001000000000100240E4
S3150800CA700040000010000000001002400080000086
S3150800CA802000000000140240010000002000000001
S3150800CA9000140240020000002000000000140240BA
S3150800CAA004000000200000000014024008000000F6
S3150800CAB020000000001402401000000020000000C2
S3150800CAC0001402402000000020000000001402406C
S3150800CAD000080000200000000014024000100000BA
S3150800CAE02000000000140240002000002000000082
S3150800CAF0001402400040000020000000001402401C
S3150800CB0000800000400000000018024001000000FC
S3150800CB10400000000018024002000000400000002B
S3150800CB2000180240040000004000000000180240FF
S3150800CB300800000040000000001802401000000035
S3150800CB4040000000001802402000000040000000DD
S3150800CB500018024040000000400000000018024093
S3150800CB600002000040000000001802400004000017
S3150800CB7040000000001802400008000040000000C5
S3150800CB800018024000200000400000000018024083
S3150800CB900040000001000000000002400100000003
S3150800CBA00400000000080240010000002000000008
S3150800CBB0001402404000000020000000001402405B
S3150800CBC08000000020000000001402400001000060
S3150800CBD020000000001402400002000020000000AF
S3150800CBE00014024000040000020000000004024095
S3150800CBF0800000000200000000040240400000001F
S3150800CC0010000000001002400400000010000000A0
S3150800CC100010024010000000100000000010024042
S3150800CC202000000010000000001002404000000034
S3150800CC30400000000018024080000000400000008C
S3150800CC4000180240000100004000000000180240E1
S3150800CC50001000004000000000180240008000009C
S3150800CC600100000000000240100000000200000061
S3150800CC7000040240200000000100000000000240FD
S3150800CC8040000000010000000000024020000000F3
S3150800CC9008000000000C0240010000000800000027
S3150800CCA0000C02400200000008000000000C0240D0
S3150800CCB00400000008000000000C02400800000004
S3150800CCC008000000000C02401000000008000000E8
S3150800CCD0000C02402000000008000000000C024082
S3150800CCE04000000008000000000C02408000000020
S3150800CCF008000000000C02400001000008000000C7
S3150800CD00000C02400002000008000000000C02406F
S3150800CD100004000008000000000C024000080000A3
S3150800CD2008000000000C0240001000000800000087
S3150800CD30000C02400020000008000000000C024021
S3150800CD400040000008000000000C024000800000BF
S3150800CD501000000000100240010000001000000052
S3150800CD6000100240020000001000000000100240FF
S3150800CD7008000000100000000010024080000000BB
S3150800CD801000000000100240000100001000000022
S3150800CD9000100240000200001000000000100240CF
S3150800CDA00004000010000000001002400008000007
S3150800CDB010000000001002400010000010000000E3
S3150800CDC00010024000200000100000000010024081
S3150800CDD00040000010000000001002400080000023
S3150800CDE0200000000014024001000000200000009E
S3150800CDF00014024002000000200000000014024057
S3150800CE000400000020000000001402400800000092
S3150800CE10200000000014024010000000200000005E
S3150800CE200014024020000000200000000014024008
S3150800CE300008000020000000001402400010000056
S3150800CE40200000000014024000200000200000001E
S3150800CE5000140240004000002000000000140240B8
S3150800CE600080000040000000001802400100000099
S3150800CE7040000000001802400200000040000000C8
S3150800CE80001802400400000040000000001802409C
S3150800CE9008000000400000000018024010000000D2
S3150800CEA0400000000018024020000000400000007A
S3150800CEB00018024040000000400000000018024030
S3150800CEC000020000400000000018024000040000B4
S3150800CED04000000000180240000800004000000062
S3150800CEE00018024000200000400000000018024020
S3150800CEF00040000004000000000802400020000076
S3150800CF00000001400100000002011B000000004073
S3150800CF100100000001021C0000040040020000009D
S3150800CF2001021D00000800400400000001021E0066
S3150800CF30000401400200000002012E0000400140EA
S3150800CF400000010002011800004401400000020030
S3150800CF5002011900004801400000040002011A00FD
S3150800CF60001C00408000000001022C000020004048
S3150800CF700001000001022D00100000000010024010
S3150800CF800002000002000200010009001000000073
S3150800CF9000100240000800010400200001000B00F8
S3150800CFA010000000001002400020000208000002E5
S3150800CFB001000D00100000000010024000400003B0
S3150800CFC01000002001000E000100000000000240D1
S3150800CFD02000010002000200010005000100000017
S3150800CFE000000240400002000200020002000600A3
S3150800CFF00200000000040240200002010400200094
S3150800D0000200050008000000000C024000100300A2
S3150800D0100200020002000C0008000000000C02409A
S3150800D020002003010400200002000D000400000097
S3150800D0300008024040000400020002000300060047
S3150800D04004000000000802408000040104002000DB
S3150800D0500300070010000000001002402000050031
S3150800D0600200020003000500100000000010024044
S3150800D070400005010400200003000600200000000F
S3150800D08000140240400006000200020003000600E9
S3150800D0902000000000140240800007000200020081
S3150800D0A003000700200000000014024000010800E9
S3150800D0B002000200090008002000000000140240D7
S3150800D0C000020900020002000900090000100140E0
S3150800D0D010000000022500000200000000040240C3
S3150800D0E0400006000200000000040240800007001D
S3150800D0F0070000000044004000000200012600006E
S3150800D10008000000000C024020000500080000008E
S3150800D110000C0240400006000700000000480040DE
S3150800D120000004000127000008000000000C02406F
S3150800D1300001080008000000000C02400002090077
S3150800D140070000000014014020000000024700000C
S3150800D1500400000000080240400006000400000029
S3150800D16000080240800007000800000056435020CF
S3150800D170436F6E666967000056435020496E7465B2
S3150800D180726661636500000053544D6963726F658A
S3150800D1906C656374726F6E696373000053544D3324
S3150800D1A032205669727475616C20436F6D506F72C8
S3150800D1B07420696E204853206D6F64650000000076
S3150800D1C053544D3332205669727475616C20436F1F
S3150800D1D06D506F727420696E204653204D6F6465DA
S3150800D1E000000000303030303030303030353042DA
S3150800D1F000000000303030303030303030353043C9
S3150800D20000000000000001400100000002011B00B0
S3150800D210000000400100000001021C00000400405C
S3150800D2200200000001021D00000800400400000082
S3150800D23001021E00000401400200000002012E0047
S3150800D24000400140000001000201180000440140AE
S3150800D2500000020002011900004801400000040015
S3150800D26002011A00001C00408000000001022C0088
S3150800D270002000400001000001022D0010000000FF
S3150800D280001002400002000002000200010009002E
S3150800D29010000000001002400008000104002000F1
S3150800D2A001000B00100000000010024000200002E0
S3150800D2B00800000201000D001000000000100240E6
S3150800D2C0004000031000002001000E0001000000CD
S3150800D2D000000240200001000200020001000500D3
S3150800D2E001000000000002404000020002000200A7
S3150800D2F002000600020000000004024020000201AD
S3150800D300040020000200050008000000000C02408E
S3150800D310001003000200020002000C0008000000D2
S3150800D320000C0240002003010400200002000D004A
S3150800D3300400000000080240400004000200020049
S3150800D34003000600040000000008024080000401F3
S3150800D350040020000300070010000000001002402F
S3150800D360200005000200020003000500100000006E
S3150800D37000100240400005010400200003000600DA
S3150800D38020000000001402404000060002000200CF
S3150800D3900300060020000000001402408000070079
S3150800D3A002000200030007002000000000140240EB
S3150800D3B00001080002000200090008002000000021
S3150800D3C000140240000209000200020009000900D8
S3150800D3D02E2E2F626C6F636B7365742F7274772FA2
S3150800D3E053544D33322F7372632F71756575652EDD
S3150800D3F0630000000404040008D4000810D40008E0
S3150800D40018D4000807070700457643686E6C310094
S3150800D410457643686E6C3200457643686E6C330019
S3150800D42050505000666D6F64000000000000000058
S3150800D430000000000000000000000000000000805E
S3090800D4404300000097
S315080100000B78FF2B00D070474B78002BFBD109F0FA
S315080100109BBF00BF08B5012009F0A2FA034A40F2C6
S3150801002067610020BDE808400BF0E4BF0100010844
S31508010030002009F019B900BF704700BF2DE9F04744
S31508010040DDF820E0099E9EF800C004460D4692465A
S315080100501F46BCF1000F02D101238EF8003030880B
S3150801006012F09AF922462B468046894612F062FC1E
S31508010070E0B10E9A3B6813600D9A7B6813600C9A7F
S31508010080BB7A1370109A3B7A13700B9AFB7A13702A
S315080100900F9A7B7A13700A9A002313605360119A98
S315080100A01370308812F078F98046894642464B46E5
S315080100B02046294612F048FC68B10B9B1B78D3B938
S315080100C001238AF800300C9B1B787BB901238AF837
S315080100D00130BDE8F087002642464B4620462946B0
S315080100E08AF8006012F030FC0028ECD100238AF867
S315080100F00130BDE8F08700238AF800300C9B1B7895
S31508010100002BF3D1E2E700BF2DE9F04F83B0164685
S315080101101F4682468B4611F05BFE002200230446E9
S315080101200D4612F007FCD8BB804600220023204664
S3150801013029465FFA88F812F0FDFB50B93046394670
S3150801014011F0BEFD02460B463046394612F01AFC3E
S3150801015090BBB8F1000F5FD15046594600220023E3
S315080101604FF0010912F0F0FB20B3002300223046BC
S31508010170394612F0E9FB4FF00103A0B15FFA89F99C
S31508010180DBB2994507D02046294632463B4611F04F
S31508010190B7FF04460D462046294603B0BDE8F08F51
S315080101A04FF00108C1E703465FFA89F9DBB29945C1
S315080101B0E9D1F0E7C146D8E732463B4650465946AB
S315080101C012F07AFA21F000490022194B4946804675
S315080101D011F096FF11F074FD02460B46404649465A
S315080101E011F08CFF0B46024623F00043404600926D
S315080101F0019300220F4B494612F034F902460B4689
S31508010200DDE9000112F0AAFB4FF0010858B15FFAC7
S3150801021088F8B8F1000F9FD000240025204629460A
S3150801022003B0BDE8F08F80465FFA88F8F1E700BFB2
S315080102300000E03F0000B03C2DE9F0410999089C17
S3150801024091F800E0DDF82880054616461F46BEF1FE
S31508010250000F01D101230B702B785B00DBB25A0921
S3150801026007EE902AB8EEE77AF7EE007AB4EEE77A67
S31508010270F1EE10FAA372227307DDD8E90001002214
S315080102801B4B11F03DFFC8E900012878C0096073CE
S315080102902B781B01DBB24FEA1318637284F80B80C3
S315080102A012F07AF832463B4612F044FB50B140460A
S315080102B012F072F8DDE9062312F03CFB4FF0010358
S315080102C098B1D8B220726B782370AB786370EB78EB
S315080102D0A3702B79E3706B792371AB796371EB7931
S315080102E0A3710023E371BDE8F0810346E9E700BF86
S315080102F00000F03F2DE9F0410999089C91F800E0CA
S31508010300DDF82880054616461F46BEF1000F01D1C5
S3150801031001230B702B785B00DBB25A0907EE902A92
S31508010320B8EEE77AF7EE007AB4EEE77AF1EE10FA6C
S31508010330A372227307DDD8E9000100221B4B11F0D5
S31508010340DFFEC8E900012878C00960732B781B0114
S31508010350DBB24FEA1318637284F80B8012F01CF8AB
S3150801036032463B4612F0E6FA50B1404612F014F80E
S31508010370DDE9062312F0DEFA4FF0010398B1D8B28F
S3150801038020726B782370AB786370EB78A3702B7946
S31508010390E3706B792371AB796371EB79A3710023F0
S315080103A0E371BDE8F0810346E9E700BF0000F03FCD
S315080103B02DE9F0410799069C91F800E0DDF82080C7
S315080103C0054616461F46BEF1000F01D101230B70E3
S315080103D02B785B00DBB25A0907EE902AB8EEE77A6A
S315080103E0F7EE007AB4EEE77AF1EE10FAA372227309
S315080103F007DDD8E900010022154B11F081FEC8E995
S3150801040000016B782370AB786370EB78A3702B7956
S31508010410E3706B792371AB796371EB79A37100236F
S31508010420E3712B781B01DBB218096372E07211F0D4
S31508010430B3FF3B46324612F07DFA4FF0010300B98D
S31508010440034623722B78DB096373BDE8F08100BF8D
S315080104500000F03F2DE9F0410799069C91F800E06C
S31508010460DDF82080054616461F46BEF1000F01D16C
S3150801047001230B702B785B00DBB25A0907EE902A31
S31508010480B8EEE77AF7EE007AB4EEE77AF1EE10FA0B
S31508010490A372227307DDD8E900010022154B11F07A
S315080104A02FFEC8E900016B782370AB786370EB788F
S315080104B0A3702B79E3706B792371AB796371EB794F
S315080104C0A3710023E3712B781B01DBB21809637250
S315080104D0E07211F061FF3B46324612F02BFA4FF0FB
S315080104E0010300B9034623722B78DB096373BDE860
S315080104F0F08100BF0000F03F2DE9F04F89B00746B3
S3150801050018999DF8488091F800E09DF84C909DF85F
S3150801051050A09DF85460169D1A9CBEF1000F01D19A
S3150801052001200870DFF830E110461946DEE900239C
S3150801053011F0E6FDCDE90001384611F01DFF002254
S31508010540434BCDE9020111F0DBFDDDE9002311F092
S31508010550D5FD00220023CDE9060112F0EBF90028AA
S3150801056041D01D9B18781C9BC0015FFA80FB85F85A
S3150801057001B0D3E9000112F04DFA0001C7B2199B87
S31508010580AF70D3E9000112F045FA38445844179B75
S31508010590207084F8018084F8029084F803A02671FB
S315080105A06671A671E6711B9A1B681360DDE9002363
S315080105B0DDE9020111F0A2FD0022002380468946E9
S315080105C012F0B8F90446002839D1224BD3E900675D
S315080105D0002200233046394612F0ACF9E8B12C70F6
S315080105E009B0BDE8F08F1B4B93ED007B0022002379
S315080105F051EC170B8DED047B12F09CF90028D5D12F
S31508010600DDE90423DDE90601FFF77EFD002200236B
S3150801061012F090F90028C9D0A3E732463B46404676
S315080106204946FFF771FD0022002312F083F94FF0C6
S31508010630010448B1E4B22C7009B0BDE8F08F012479
S315080106402C7009B0BDE8F08F0446E4B2F3E700BFA9
S315080106500000F03F28000020380000202DE9F04F67
S3150801066089B0074618999DF8488091F800E09DF8E9
S315080106704C909DF850A09DF85460169D1A9CBEF1A9
S31508010680000F01D101200870DFF830E11046194644
S31508010690DEE9002311F034FDCDE90001384611F0F9
S315080106A06BFE0022434BCDE9020111F029FDDDE97C
S315080106B0002311F023FD00220023CDE9060112F0E3
S315080106C039F9002841D01D9B18781C9BC0015FFA97
S315080106D080FB85F801B0D3E9000112F09BF900010E
S315080106E0C7B2199BAF70D3E9000112F093F93844E8
S315080106F05844179B207084F8018084F8029084F886
S3150801070003A026716671A671E6711B9A1B681360B0
S31508010710DDE90023DDE9020111F0F0FC00220023E6
S315080107208046894612F006F90446002839D1224B3B
S31508010730D3E90067002200233046394612F0FAF859
S31508010740E8B12C7009B0BDE8F08F1B4B93ED007B27
S315080107500022002351EC170B8DED047B12F0EAF809
S315080107600028D5D1DDE90423DDE90601FFF7CCFC34
S315080107700022002312F0DEF80028C9D0A3E732468A
S315080107803B4640464946FFF7BFFC0022002312F0CC
S31508010790D1F84FF0010448B1E4B22C7009B0BDE8B4
S315080107A0F08F01242C7009B0BDE8F08F0446E4B23D
S315080107B0F3E700BF0000F03F3000002040000020B2
S315080107C02DE9F0410799069C91F800E0DDF82080B3
S315080107D0054616461F46BEF1000F01D101230B70CF
S315080107E02B785B00DBB25A0907EE902AB8EEE77A56
S315080107F0F7EE007AB4EEE77AF1EE10FAA3722273F5
S3150801080007DDD8E900010022154B11F079FCC8E98A
S3150801081000016B782370AB786370EB78A3702B7942
S31508010820E3706B792371AB796371EB79A37100235B
S31508010830E3712878C009607311F0AEFD3B46324674
S3150801084012F078F84FF0010300B9034623722B78AA
S315080108501B01DBB21A096372E272BDE8F08100BFBF
S315080108600000F03F2DE9F0410799069C91F800E058
S31508010870DDF82080054616461F46BEF1000F01D158
S3150801088001230B702B785B00DBB25A0907EE902A1D
S31508010890B8EEE77AF7EE007AB4EEE77AF1EE10FAF7
S315080108A0A372227307DDD8E900010022154B11F066
S315080108B027FCC8E900016B782370AB786370EB7885
S315080108C0A3702B79E3706B792371AB796371EB793B
S315080108D0A3710023E3712878C009607311F05CFDE8
S315080108E03B46324612F026F84FF0010300B903469B
S315080108F023722B781B01DBB21A096372E272BDE817
S31508010900F08100BF0000F03F2DE9F04F83B00C469F
S315080109100E9FDDF8348099460546324BD7E900012A
S315080109201646002211F0ECFB0123C7E9000189F8FC
S31508010930003023682C4A0C99013313602360D8F8D8
S31508010940003007EE903AB8EE677AF7EE007AB4EE21
S31508010950677AF1EE10FA05D1DFF888904FF00008B2
S31508010960C1E9008937780193384611F005FDDFF8AA
S3150801097084801E4A019B1360C8E900012B602F7110
S3150801098096F807E085F805E096F801C085F806C0EF
S3150801099096F8028085F8078096F8039085F80890FE
S315080109A096F804A085F809A096F805B0104C85F8C4
S315080109B00AB0B079E8721946A071234608220020C8
S315080109C0277084F805B084F804A084F8039084F8A5
S315080109D0028084F801C084F807E003B0BDE8F04F4F
S315080109E00BF094B80000F03FA4C0002098BD002089
S315080109F0F0060020D0C0002008B5012100200BF028
S31508010A0089FA0B2100200BF085FA0C2100200BF046
S31508010A1081FA0D2100200BF07DFA152100200BF03B
S31508010A2079FA162100200BF075FA172100200BF030
S31508010A3071FA182100200BF06DFA19210020BDE882
S31508010A4008400BF067BA00BF2DE9F04F2DED088B72
S31508010A500D460968E34CE44E83B0013121602960F3
S31508010A601699DDF85C900968316007EE901AB8EEC0
S31508010A70678AF7EE007AB4EE678AF1EE10FA1F4636
S31508010A8004469246EB7940F09A820BB90123EB7141
S31508010A90DFF85883002243460092104601210BF0E5
S31508010AA065FA002884F84B0040F3A28398F80130D0
S31508010AB0637698F80230A37698F80330E37698F8C7
S31508010AC004302377D6ED007A98F80530637798F8DD
S31508010AD00630A37798F8072098F80030E277F8EE01
S31508010AE0678A2376F2EE067AF4EE678AF1EE10FA51
S31508010AF0AB7940F0E3820BB90123AB71DFF8F082E1
S31508010B0000224346009210460B210BF02FFA0028CB
S31508010B1084F84A0040F3838398F80130637498F89F
S31508010B200230A37498F80330E37498F804302375F7
S31508010B30D6ED007A98F80530637598F80630A375EE
S31508010B4098F8072098F80030E275B8EE679A23748A
S31508010B50F2EE087AB4EE679AF1EE10FA6B7940F084
S31508010B609C820BB901236B71DFF888820022434608
S31508010B70009210460C210BF0F9F9002884F8490077
S31508010B8040F36183D6ED007A98F8073098F8062085
S31508010B9098F8051098F8040098F803E098F802C048
S31508010BA098F801B098F8008084F809B0F8EE679AC9
S31508010BB084F80AC084F80BE020736173A273E373A7
S31508010BC084F80880F2EE0A7AF4EE679AF1EE10FAE2
S31508010BD02B7940F050820BB901232B71DFF818826B
S31508010BE000224346009210460D210BF0BFF900285A
S31508010BF084F848001BDD98F801B098F802E098F8E7
S31508010C00030098F800C098F8041098F8052098F899
S31508010C10063098F8078084F8078084F801B084F8CC
S31508010C2000C084F802E0E07021716271A371D6ED0B
S31508010C30007AB8EE67AAF3EE057AB4EE67AAF1EE82
S31508010C4010FA2B7A40F0FD810BB901232B72DFF8DC
S31508010C50AC81002243460092104615210BF086F915
S31508010C60002884F84C0040F3E98298F8013084F8AA
S31508010C70213098F8023084F8223098F8033084F845
S31508010C80233098F8043084F82430D6ED007A98F8A1
S31508010C90053084F8253098F8063084F8263098F817
S31508010CA0072098F8003084F82720F8EE67AA84F818
S31508010CB02030F3EE067AF4EE67AAF1EE10FA6B7AB3
S31508010CC040F040820BB901236B72DFF834810022B0
S31508010CD043460092104616210BF048F9002884F87D
S31508010CE04D0040F3A68298F8013084F8293098F827
S31508010CF0023084F82A3098F8033084F82B3098F8B3
S31508010D00043084F82C30D6ED007A98F8053084F84A
S31508010D102D3098F8063084F82E3098F8072098F880
S31508010D20003084F82F20B8EE67BA84F82830F3EE3D
S31508010D30077AB4EE67BAF1EE10FA2B7B40F0D08150
S31508010D400BB901232B73DFF8BC80002243460092BE
S31508010D50104617210BF00AF9002884F8500040F3D1
S31508010D60638298F8013084F8413098F8023084F8A3
S31508010D70423098F8033084F8433098F8043084F800
S31508010D804430D6ED007A98F8053084F8453098F85D
S31508010D90063084F8463098F8072098F8003084F829
S31508010DA04720F8EE67BA84F84030F3EE087AF4EE95
S31508010DB067BAF1EE10FAEB7A40F0AB810BB9012371
S31508010DC0EB72DFF844800022434600921046182150
S31508010DD00BF0CCF8002884F84F00D6ED007A40F3E2
S31508010DE01B8213E038BD0020B4BD00208006002018
S31508010DF0C8060020D8060020E8060020880600203C
S31508010E0090060020A0060020B006002098F80130C0
S31508010E1084F8393098F8023084F83A3098F8033073
S31508010E2084F83B3098F8043084F83C3098F805305B
S31508010E3084F83D3098F8063084F83E3098F8072053
S31508010E4098F8003084F83F20F8EE677A84F838304D
S31508010E50B3EE097AF4EE477AF1EE10FAAB7A40F07E
S31508010E60D8800BB90123AB72C84D00222B460092DC
S31508010E70104619210BF07AF8002884F84E0017DD80
S31508010E806B78AA7884F83130EB7884F8322084F8C4
S31508010E9033302A796B7984F83420A97984F8353086
S31508010EA0EA792B7884F8361084F8372084F83030BC
S31508010EB0F7EE007AB4EE678AF1EE10FA40F0928006
S31508010EC094F94B30207E94F819C094F81AE0E67E1E
S31508010ED0257F617FA27F07EE103AE37F99F80040EC
S31508010EE007EE904AF8EEE77AF7EE006AF4EE667ACC
S31508010EF0F1EE10FA15D1F8EEC77AF5EE407AF1EE71
S31508010F0010FA57D1189C4FF002084FF0010B89F8D7
S31508010F10008084F800B099F8004007EE904AF8EE90
S31508010F20E77AF0EE006AF4EE667AF1EE10FA37D156
S31508010F30B8EEC77AB7EE008AB4EEC87AF1EE10FABF
S31508010F4038DBFB71189B87F801C001243870BA7128
S31508010F5087F802E0FE703D7179711C70159B8C4A09
S31508010F601C704FF0030C89F800C0BAF800301380E2
S31508010F70149A138011F000FA169BD3ED007A854B6B
S31508010F80F8EE677AC3E90001F4EE487AF1EE10FA51
S31508010F9000F0288199F8003007EE903AF8EEE77AE2
S31508010FA0F5EE407AF1EE10FA04D1189A012389F880
S31508010FB00030137003B0BDEC088BBDE8F08F73B138
S31508010FC0002380F84B30037643768376C37603771E
S31508010FD043778377C377F0EE488AEB7182E5F0EEC3
S31508010FE0488A7FE5F2EE067AF4EE678AF1EE10FAA0
S31508010FF040F0D28094F94A30207C94F811C094F8D4
S3150801100012E0E67C257D617DA27D07EE103AE37D3F
S3150801101064E7002B3FF44CAF002384F84E3084F884
S31508011020303084F8313084F8323084F8333084F83B
S31508011030343084F8353084F8363084F83730AB727A
S3150801104036E7002B00F09680002384F84C3084F8AC
S31508011050203084F8213084F8223084F8233084F84B
S31508011060243084F8253084F8263084F82730F0EEC9
S315080110704AAA2B721DE6002B00F08280002384F811
S31508011080483023706370A370E37023716371A37191
S31508011090E371B0EE69AA2B71CDE5002B73D000235D
S315080110A084F8493023726372A372E37223736373FC
S315080110B0A373E373F0EE499A6B7183E5002B00F095
S315080110C08B80002384F84A3023746374A374E37411
S315080110D023756375A375E375B0EE689AAB7137E549
S315080110E0002B76D0002384F8503084F8403084F8F9
S315080110F0413084F8423084F8433084F8443084F827
S31508011100453084F8463084F84730F0EE4BBA2B73F5
S315080111104BE6002B63D0002384F84F3084F838302F
S3150801112084F8393084F83A3084F83B3084F83C3016
S3150801113084F83D3084F83E3084F83F30F0EE6B7A1F
S31508011140EB7285E6CBB1002384F84D3084F828305C
S3150801115084F8293084F82A3084F82B3084F82C3026
S3150801116084F82D3084F82E3084F82F30B0EE6ABA20
S315080111706B72DCE5F0EE4AAA9BE5B0EE6ABAD6E5F3
S31508011180B0EE69AA57E5F0EE499A1BE5C0060020BC
S31508011190B0BD0020D8BD0020F2EE087AB4EE679AF9
S315080111A0F1EE10FA29D0F2EE0A7AF4EE679AF1EE28
S315080111B010FA4DD194F94830207894F801C094F882
S315080111C002E0E67825796179A27907EE103AE379A2
S315080111D084E6F0EE4BBAE8E5B0EE689AB8E4F0EECC
S315080111E06B7A35E65D4B19990022C1E90023D1E6F0
S315080111F0D6ED007AF8EE678A74E494F94930207AD4
S3150801120094F809C094F80AE0E67A257B617BA27B0B
S3150801121007EE103AE37B61E6F8EE677A18E6D6ED53
S31508011220007AB8EE679A93E4D6ED007AF8EE67BAD3
S31508011230BBE5D6ED007AB8EE67BA78E5D6ED007A61
S31508011240F8EE67AA35E5D6ED007AF8EE679AB9E4BD
S31508011250F3EE057AB4EE67AAF1EE10FA1BD0F3EEB7
S31508011260067AF4EE67AAF1EE10FA29D194F94D300F
S3150801127094F8280094F829C094F82AE094F82B6089
S3150801128094F82C5094F82D1094F82E2007EE103A65
S3150801129094F82F3022E694F94C3094F8200094F80B
S315080112A021C094F822E094F8236094F8245094F825
S315080112B0251094F8262007EE103A94F827300DE603
S315080112C0F3EE077AB4EE67BAF1EE10FA14D194F98F
S315080112D0503094F8400094F841C094F842E094F8EC
S315080112E0436094F8445094F8451094F8462007EE64
S315080112F0103A94F84730F1E5F3EE087AF4EE67BA56
S31508011300F1EE10FA14D194F94F3094F8380094F8A4
S3150801131039C094F83AE094F83B6094F83C5094F854
S315080113203D1094F83E2007EE103A94F83F30D5E583
S3150801133094F94E3094F8300094F831C094F832E0BC
S3150801134094F8336094F8345094F8351094F83620AC
S3150801135007EE103A94F83730C0E500BF0000F03FB9
S31508011360012108B508460AF0D5FD0B2101200AF02E
S31508011370D1FD0C2101200AF0CDFD0D2101200AF035
S31508011380C9FD152101200AF0C5FD162101200AF023
S31508011390C1FD172101200AF0BDFD182101200AF01F
S315080113A0B9FD19210120BDE808400AF0B3BD00BF07
S315080113B02DE9F04F2DED088B0D460968E34CE44EF7
S315080113C083B00131216029601699DDF85C900968BE
S315080113D0316007EE901AB8EE678AF7EE007AB4EE36
S315080113E0678AF1EE10FA1F4604469246EB7940F0F9
S315080113F09A820BB90123EB71DFF858830022012188
S315080114004346009208460AF0B1FD002884F84B00CD
S3150801141040F3A28398F80130637698F80230A376F0
S3150801142098F80330E37698F804302377D6ED007AF6
S3150801143098F80530637798F80630A37798F8072067
S3150801144098F80030E277F8EE678A2376F2EE067AA4
S31508011450F4EE678AF1EE10FAAB7940F0E3820BB944
S315080114600123AB71DFF8F0820022434600920B217B
S3150801147001200AF07BFD002884F84A0040F38383A3
S3150801148098F80130637498F80230A37498F8033019
S31508011490E37498F804302375D6ED007A98F8053088
S315080114A0637598F80630A37598F8072098F8003000
S315080114B0E275B8EE679A2374F2EE087AB4EE679A83
S315080114C0F1EE10FA6B7940F09C820BB901236B712E
S315080114D0DFF888820022434600920C2101200AF097
S315080114E045FD002884F8490040F36183D6ED007A6A
S315080114F098F8073098F8062098F8051098F8040027
S3150801150098F803E098F802C098F801B098F80080B6
S3150801151084F809B0F8EE679A84F80AC084F80BE0F3
S3150801152020736173A273E37384F80880F2EE0A7A72
S31508011530F4EE679AF1EE10FA2B7940F050820BB966
S3150801154001232B71DFF818820022434600920D21F0
S3150801155001200AF00BFD002884F848001BDD98F8E5
S3150801156001B098F802E098F8030098F800C098F8D6
S31508011570041098F8052098F8063098F8078084F83A
S31508011580078084F801B084F800C084F802E0E070AE
S3150801159021716271A371D6ED007AB8EE67AAF3EEEE
S315080115A0057AB4EE67AAF1EE10FA2B7A40F0FD81BE
S315080115B00BB901232B72DFF8AC8100224346009256
S315080115C0152101200AF0D2FC002884F84C0040F3CA
S315080115D0E98298F8013084F8213098F8023084F8C5
S315080115E0223098F8033084F8233098F8043084F8C8
S315080115F02430D6ED007A98F8053084F8253098F825
S31508011600063084F8263098F8072098F8003084F8D0
S315080116102720F8EE67AA84F82030F3EE067AF4EE6E
S3150801162067AAF1EE10FA6B7A40F040820BB90123F2
S315080116306B72DFF83481002243460092162101209D
S315080116400AF094FC002884F84D0040F3A68298F825
S31508011650013084F8293098F8023084F82A3098F84D
S31508011660033084F82B3098F8043084F82C30D6ED02
S31508011670007A98F8053084F82D3098F8063084F801
S315080116802E3098F8072098F8003084F82F20B8EE05
S3150801169067BA84F82830F3EE077AB4EE67BAF1EE42
S315080116A010FA2B7B40F0D0810BB901232B73DFF89D
S315080116B0BC80002243460092172101200AF056FCFD
S315080116C0002884F8500040F3638298F8013084F8C2
S315080116D0413098F8023084F8423098F8033084F89B
S315080116E0433098F8043084F84430D6ED007A98F8F7
S315080116F0053084F8453098F8063084F8463098F86D
S31508011700072098F8003084F84720F8EE67BA84F87D
S315080117104030F3EE087AF4EE67BAF1EE10FAEB7A96
S3150801172040F0AB810BB90123EB72DFF8448000224C
S3150801173043460092182101200AF018FC002884F873
S315080117404F00D6ED007A40F31B8213E0F0BD00206E
S31508011750B8C000206806002070060020F8060020A0
S3150801176078060020A8060020B8060020D00600202A
S31508011770E006002098F8013084F8393098F80230EC
S3150801178084F83A3098F8033084F83B3098F80430F6
S3150801179084F83C3098F8053084F83D3098F80630DE
S315080117A084F83E3098F8072098F8003084F83F20EE
S315080117B0F8EE677A84F83830B3EE097AF4EE477AA8
S315080117C0F1EE10FAAB7A40F0D8800BB90123AB726F
S315080117D0C84D00222B460092192101200AF0C6FBAA
S315080117E0002884F84E0017DD6B78AA7884F8313022
S315080117F0EB7884F8322084F833302A796B7984F8C7
S315080118003420A97984F83530EA792B7884F83610AA
S3150801181084F8372084F83030F7EE007AB4EE678A18
S31508011820F1EE10FA40F0928094F94B30207E94F84C
S3150801183019C094F81AE0E67E257F617FA27F07EE3C
S31508011840103AE37F99F8004007EE904AF8EEE77AF6
S31508011850F7EE006AF4EE667AF1EE10FA15D1F8EEB3
S31508011860C77AF5EE407AF1EE10FA57D1189C4FF087
S3150801187002084FF0010B89F8008084F800B099F846
S31508011880004007EE904AF8EEE77AF0EE006AF4EEC9
S31508011890667AF1EE10FA37D1B8EEC77AB7EE008A52
S315080118A0B4EEC87AF1EE10FA38DBFB71189B87F8AB
S315080118B001C001243870BA7187F802E0FE703D71E3
S315080118C079711C70159B8C4A1C704FF0030C89F8B2
S315080118D000C0BAF800301380149A138010F04CFD3A
S315080118E0169BD3ED007A854BF8EE677AC3E90001BA
S315080118F0F4EE487AF1EE10FA00F0288199F80030F2
S3150801190007EE903AF8EEE77AF5EE407AF1EE10FA3C
S3150801191004D1189A012389F80030137003B0BDEC7D
S31508011920088BBDE8F08F73B1002380F84B3003763E
S3150801193043768376C376037743778377C377F0EE67
S31508011940488AEB7182E5F0EE488A7FE5F2EE067A7F
S31508011950F4EE678AF1EE10FA40F0D28094F94A3033
S31508011960207C94F811C094F812E0E67C257D617D0F
S31508011970A27D07EE103AE37D64E7002B3FF44CAFF6
S31508011980002384F84E3084F8303084F8313084F8F6
S31508011990323084F8333084F8343084F8353084F8BA
S315080119A0363084F83730AB7236E7002B00F0968074
S315080119B0002384F84C3084F8203084F8213084F8E8
S315080119C0223084F8233084F8243084F8253084F8CA
S315080119D0263084F82730F0EE4AAA2B721DE6002B32
S315080119E000F08280002384F8483023706370A37066
S315080119F0E37023716371A371E371B0EE69AA2B7168
S31508011A00CDE5002B73D0002384F849302372637225
S31508011A10A372E37223736373A373E373F0EE499AB4
S31508011A206B7183E5002B00F08B80002384F84A3024
S31508011A3023746374A374E37423756375A375E375DB
S31508011A40B0EE689AAB7137E5002B76D0002384F89F
S31508011A50503084F8403084F8413084F8423084F8B4
S31508011A60433084F8443084F8453084F8463084F8A5
S31508011A704730F0EE4BBA2B734BE6002B63D00023AD
S31508011A8084F84F3084F8383084F8393084F83A309D
S31508011A9084F83B3084F83C3084F83D3084F83E3095
S31508011AA084F83F30F0EE6B7AEB7285E6CBB1002312
S31508011AB084F84D3084F8283084F8293084F82A309F
S31508011AC084F82B3084F82C3084F82D3084F82E30A5
S31508011AD084F82F30B0EE6ABA6B72DCE5F0EE4AAAEA
S31508011AE09BE5B0EE6ABAD6E5B0EE69AA57E5F0EE1F
S31508011AF0499A1BE598060020D8C00020C0C00020DE
S31508011B00F2EE087AB4EE679AF1EE10FA29D0F2EEFF
S31508011B100A7AF4EE679AF1EE10FA4DD194F9483043
S31508011B20207894F801C094F802E0E678257961797D
S31508011B30A27907EE103AE37984E6F0EE4BBAE8E5C6
S31508011B40B0EE689AB8E4F0EE6B7A35E65D4B199912
S31508011B500022C1E90023D1E6D6ED007AF8EE678ABC
S31508011B6074E494F94930207A94F809C094F80AE0A3
S31508011B70E67A257B617BA27B07EE103AE37B61E679
S31508011B80F8EE677A18E6D6ED007AB8EE679A93E426
S31508011B90D6ED007AF8EE67BABBE5D6ED007AB8EE6F
S31508011BA067BA78E5D6ED007AF8EE67AA35E5D6ED97
S31508011BB0007AF8EE679AB9E4F3EE057AB4EE67AA05
S31508011BC0F1EE10FA1BD0F3EE067AF4EE67AAF1EEFF
S31508011BD010FA29D194F94D3094F8280094F829C0BF
S31508011BE094F82AE094F82B6094F82C5094F82D1068
S31508011BF094F82E2007EE103A94F82F3022E694F93D
S31508011C004C3094F8200094F821C094F822E094F816
S31508011C10236094F8245094F8251094F8262007EEAA
S31508011C20103A94F827300DE6F3EE077AB4EE67BA60
S31508011C30F1EE10FA14D194F9503094F8400094F862
S31508011C4041C094F842E094F8436094F8445094F8FB
S31508011C50451094F8462007EE103A94F84730F1E516
S31508011C60F3EE087AF4EE67BAF1EE10FA14D194F9A4
S31508011C704F3094F8380094F839C094F83AE094F85B
S31508011C803B6094F83C5094F83D1094F83E2007EEDA
S31508011C90103A94F83F30D5E594F94E3094F830006F
S31508011CA094F831C094F832E094F8336094F83450DB
S31508011CB094F8351094F8362007EE103A94F8373030
S31508011CC0C0E500BF0000F03F2DE9F04F83B00C4698
S31508011CD00E9FDDF8348099460546324BD7E9000157
S31508011CE01646002210F00CFA0123C7E9000189F80B
S31508011CF0003023682C4A0C99013313602360D8F805
S31508011D00003007EE903AB8EE677AF7EE007AB4EE4D
S31508011D10677AF1EE10FA05D1DFF888904FF00008DE
S31508011D20C1E9008937780193384610F025FBDFF8B9
S31508011D3084801E4A019B1360C8E900012B602F713C
S31508011D4096F807E085F805E096F801C085F806C01B
S31508011D5096F8028085F8078096F8039085F808902A
S31508011D6096F804A085F809A096F805B0104C85F8F0
S31508011D700AB0B079E8721946A071234608220120F3
S31508011D80277084F805B084F804A084F8039084F8D1
S31508011D90028084F801C084F807E003B0BDE8F04F7B
S31508011DA009F0B4BE0000F03F00BE00203CBB002095
S31508011DB0F006002060BD00204B780BB901234B705B
S31508011DC00B7833B100230B700370194603200BF00F
S31508011DD0ADBD01230B700370194603200BF0A6BD98
S31508011DE02DE9F04F85B00E9D109C002800F0318139
S31508011DF0217809B9012121701F46129B18881646B8
S31508011E0010F0CAFA8046894602460B4630463946DC
S31508011E1010F090FD08B100232B7042464B46304620
S31508011E20394610F091FD002800F025811799AF4B2E
S31508011E300022D1E9000110F091FDA378002800F0F5
S31508011E402E810BB90123A370A94B3046D3E9002390
S31508011E50394610F055F9129B80461888894610F0C4
S31508011E608BFA0022A34B82468B4610F049F942466B
S31508011E704B4610F043F900220023CDE9000110F08A
S31508011E8059FD002800F01581199B93F800A0179BAE
S31508011E904FEACA1A5FFA8AFA85F805A0D3E900015A
S31508011EA010F0B8FD00015FFA80FB119B85F806B0BA
S31508011EB0D3E9000110F0AEFD139B139A5044584420
S31508011EC018702B7853702B7893702B78D3702B78E6
S31508011ED013712B7853712B7893712B78D3710F9BD0
S31508011EE0159A5B681360129B188810F045FA4246EA
S31508011EF04B4610F003F9002200238046894610F06C
S31508011F0019FD002840F0D2807B4BD3E900AB0022B3
S31508011F1000235046594610F00DFD002840F0E28096
S31508011F2052465B4640464946FEF7EEF80023002234
S31508011F3010F000FD4FF0010300B90346DBB2AB70A8
S31508011F4018996A4B0022D1E9000110F007FD002813
S31508011F5000F09C8063780BB901236370674B3046A8
S31508011F60D3E90023394610F0CBF8129B06461888A8
S31508011F700F4610F001FA00225E4B8046894610F0A2
S31508011F80BFF832463B4610F0B9F8002200238246D4
S31508011F908B4610F0CFFC002800F0B480199B187806
S31508011FA0189BC0015FFA80F885F80380D3E9000120
S31508011FB010F030FD0001C4B2119B2C71D3E9000168
S31508011FC010F028FD149B149A2044404418702B786D
S31508011FD053702B7893702B78D3702B7813712B78D9
S31508011FE053712B7893712B78D3710F9B169A1B68B3
S31508011FF01360129B188810F0BFF932463B4610F061
S315080120007DF8002200238046894610F093FC0028BB
S3150801201040F092803A4BD3E900670022002330460C
S31508012020394610F087FC002840F0838032463B464B
S3150801203040464946FEF768F80023002210F07AFC6C
S315080120404FF0010300B90346DBB26B7005B0BDE87A
S31508012050F08F2378002BF9D0A3780BB1A870A07064
S3150801206063780BB1002363700023AB706B70237028
S3150801207005B0BDE8F08FA378A3B942464B46304672
S31508012080394610F061FC00287FF45AAF6378002BBB
S31508012090DCD000236B70637005B0BDE8F08F002BB0
S315080120A03FF44EAF0023AB70A370E6E70123AB7094
S315080120B046E7114B93ED007B0022002351EC170BE9
S315080120C08DED027B10F036FC00284AD042464B467D
S315080120D05046594610F012F80022002310F02AFC47
S315080120E00028E3D10023AB702AE700BF00001C409B
S315080120F0380000200000F03F2800002040000020A2
S3150801210030000020204B93ED007B0022002351EC88
S31508012110170B8DED007B10F00DFC80B132463B4666
S31508012120404649460FF0EAFF0022002310F002FC60
S3150801213010B900236B7089E701236B7086E7DDE927
S31508012140002350465946FDF7DFFF0022002310F011
S31508012150F1FB00287FF422AF129B188810F00CF9C6
S315080121604BE7DDE90223DDE90001FDF7CDFF00229A
S31508012170002310F0DFFB00287FF486AE129B188837
S3150801218010F0FAF8B3E600BF300000200B791BB156
S315080121900023C37103720B714B7843B1CB7813B12A
S315080121A000238370CB708B7843B900234B700023CF
S315080121B08370C371437003720B70704700238B7071
S315080121C0F3E700BF2DE9F04F9BB016462F9A1392FD
S315080121D0309A1492319A1592329A16921F46339A68
S315080121E0299B10930B922B9B349A0A930C922C9B46
S315080121F0359A11930D922D9B369A129326AC249DEE
S31508012200DDF89480DDF8A8B02E9B0E9294E81006AE
S31508012210379A0F92389A1792002840D022780AB92D
S3150801222001222270CDE91867D3E900670022304BF5
S315080122303046394610F07EFB4FF0010E002833D0A8
S315080122403046394600222A4B5FFA8EF610F072FBA9
S31508012250002832D023791BB10023EB712B7223712D
S315080122600F9B2F930E9B2E930D9B2D930C9B2C93BB
S315080122700B9B2B930A9B2A93DDE9182301343046DD
S315080122802694CDF8A4B0CDF8A0A0CDF89C90CDF8B1
S31508012290948024951BB0BDE8F04FFFF7A1BD2378C4
S315080122A023B91BB0BDE8F08F8646C9E72146284603
S315080122B01BB0BDE8F04FFFF769BF179A0992169A46
S315080122C00892159A0792149A0692139A0592129AE7
S315080122D00492119A0392231D109A02928DE808041A
S315080122E0EA1D08F10803DDE91801FDF7A7FEB7E7BE
S315080122F00000F03F2DE9F04F85B00E9D109C002897
S3150801230000F03481217809B9012121701F46129BF9
S315080123101888164610F040F88046894602460B464C
S315080123203046394610F006FB20B100232B70159B69
S315080123301B786B7042464B463046394610F004FB13
S31508012340002800F025811899AE4B0022D1E9000139
S3150801235010F004FBA378002800F02E810BB90123A5
S31508012360A370A94B3046D3E9002339460FF0C8FEBE
S31508012370129B8046188889460FF0FEFF0022A34B60
S3150801238082468B460FF0BCFE42464B460FF0B6FE20
S3150801239000220023CDE9000110F0CCFA002800F054
S315080123A015811A9B93F800A0189B4FEACA1A5FFA7F
S315080123B08AFA85F806A0D3E9000110F02BFB000183
S315080123C05FFA80FB119B85F807B0D3E9000110F08D
S315080123D021FB139B139A5044584418706B78537019
S315080123E02B7893702B78D3702B7813712B785371C4
S315080123F02B7893712B78D3710F9B169A5B681360B0
S31508012400129B18880FF0B8FF42464B460FF076FE2E
S31508012410002200238046894610F08CFA002840F0F5
S31508012420D2807B4BD3E900AB0022002350465946A4
S3150801243010F080FA002840F0E28052465B4640469A
S315080124404946FDF761FE0023002210F073FA4FF0AA
S31508012450010300B90346DBB2EB701999694B0022F7
S31508012460D1E9000110F07AFA002800F09C8063781F
S315080124700BB901236370674B3046D3E9002339460C
S315080124800FF03EFE129B064618880F460FF074FFA2
S3150801249000225E4B804689460FF032FE32463B46A5
S315080124A00FF02CFE0022002382468B4610F042FADA
S315080124B0002800F0B3801A9B1878199BC0015FFAAF
S315080124C080F885F80480D3E9000110F0A3FA000129
S315080124D0C4B2119B6C71D3E9000110F09BFA149BED
S315080124E0149A2044404418706B7853702B78937073
S315080124F02B78D3702B7813712B7853712B789371B2
S315080125002B78D3710F9B179A1B681360129B188837
S315080125100FF032FF32463B460FF0F0FD0022002352
S315080125208046894610F006FA002840F091803A4B19
S31508012530D3E90067002200233046394610F0FAF93C
S31508012540002840F0828032463B4640464946FDF720
S31508012550DBFD0023002210F0EDF94FF0010300B96D
S315080125600346DBB2AB7005B0BDE8F08F2378002BCC
S31508012570F9D0A3780BB1E870A07063780BB100238A
S3150801258063700023EB70AB70237005B0BDE8F08F64
S31508012590A378A3B942464B463046394610F0D4F9DA
S315080125A000287FF45AAF6378002BDCD00023AB7088
S315080125B0637005B0BDE8F08F002B3FF44EAF0023E2
S315080125C0EB70A370E6E70123EB7046E7104B93ED3A
S315080125D0007B0022002351EC170B8DED027B10F0D6
S315080125E0A9F9002849D042464B46504659460FF0AC
S315080125F085FD0022002310F09DF90028E3D1002370
S31508012600EB702AE700001C40380000200000F03F6C
S31508012610280000204000002030000020204B93EDC8
S31508012620007B0022002351EC170B8DED007B10F087
S3150801263081F980B132463B46404649460FF05EFD78
S315080126400022002310F076F910B90023AB708AE74F
S315080126500123AB7087E7DDE9002350465946FDF7AC
S3150801266053FD0022002310F065F900287FF423AFFB
S31508012670129B18880FF080FE4CE7DDE90223DDE99D
S315080126800001FDF741FD0022002310F053F900284F
S315080126907FF487AE129B18880FF06EFEB4E600BF72
S315080126A030000020F0B585B00EAC70CC002830D0D3
S315080126B0287808B9012028701846174600295FD1DD
S315080126C0AB78002B4DD1002F4FD16B78002B45D11C
S315080126D0A37D002B2DD0637D3370A37B7370E37BC1
S315080126E0B370237CF370637C3371A37C7371E37CD1
S315080126F0B371237DF371A37D002B2DD1237A00338A
S3150801270018BF012313990B70119B01221A7005B08A
S31508012710F0BD2B78002BFAD0AB780BB1A075A87059
S315080127206B7813B1002323726B7000232B7005B0ED
S31508012730F0BDE3793370237873706378B370A37847
S31508012740F370E3783371237973716379B371A3797C
S31508012750F371A37D002BD1D00123D3E727726F70C4
S31508012760B6E7A175A970002FAFD0129B0293013568
S3150801277001950094DDE90C230A98FDF76BFEA7E79E
S3150801278004F10E02129B0293A91C00920191DDE944
S315080127900C23FDF70DFE96E738B521F000430D46EB
S315080127A000221946154B044610F0CEF8C8B100228E
S315080127B0134B2046294610F0DBF8A8B90022114B25
S315080127C02046294610F0DEF848B9204629460C4B22
S315080127D000220FF093FCBDE838400FF0E9B9002458
S315080127E000252046294638BD20462946044B0022A5
S315080127F00FF086FCBDE838400FF062BA000030439E
S315080128000000E03F0000E0BF38B505460021022080
S3150801281001240BF059F885F8B740FEF7EDF8FEF7F5
S315080128209FFD002108460BF04FF8204600210BF0CA
S315080128304BF8002110200BF047F8002104200BF07B
S3150801284043F8002112200BF03FF8002113200BF06A
S315080128503BF800210E200BF037F800210F200BF072
S3150801286033F800210320BDE838400BF02DB800BF2E
S315080128702DE9F04F2DED068B9346ADF5237D92F8A4
S31508012880F620DDF8C882DDF800A3169381460D46C9
S3150801289012B901238BF8F6309BF8B630002B00F0FD
S315080128A0548500238BF8B630194689F8333002204F
S315080128B00BF03CF89BF8B730002B00F081809BF8B1
S315080128C0F23013B901238BF8F230BA9B1B78002B2F
S315080128D040F0ED87BB9B1C78003418BF0124169B7A
S315080128E0D3E900670022324B3046394610F022F808
S315080128F048B900224FF080433046394610F01AF89D
S31508012900002801F0FD829BF8CB30002B01F00183F2
S315080129109BF8F330002B01F00383002C41F0FE8471
S315080129209BF8CB309BB1224BB3990022C1E9002316
S31508012930B5F89831A8F8003095F89D318BF8B03084
S315080129409BF8CB301BB11A4B0022CBE90623BA9B65
S31508012950174900269FED147B1E70BB9B00201E7035
S315080129608BED227BC9E900013346DBE922678BF847
S31508012970B73030460F4B394600220FF0F9FF4FF0BA
S31508012980010300B903468BF8CB300022094B3046C8
S3150801299039460FF0EDFF002803F0D985064B0022D2
S315080129A0CBE9222319E000BF000000000000000067
S315080129B00000F03F00807A400000F0BF0000544359
S315080129C09BF8F220002A00F0CD849BF8F320002A18
S315080129D041F0938400238BF8F230B8F800301FEDEC
S315080129E0097A07EE903AF8EEE77AF4EE477AF1EECD
S315080129F010FA14D10023A8F800309BF8B0402046FD
S31508012A000FF0CAFCD5E962230FF09EFF002801F0FA
S31508012A10AC820134474BE4B21C708BF8B0409BF88A
S31508012A20B730002B00F0AC849BF8CC30002B00F0BB
S31508012A30AB829BF8D630002B00F000829BF8E5307C
S31508012A40002B00F008819BF8E930C3B19BF8EA3006
S31508012A5093B19BF8223123B1002389F869318BF8A8
S31508012A6022319BF8213123B1002389F85B318BF898
S31508012A70213100238BF8EA3000238BF8E9309BF8E3
S31508012A80E830C3B19BF81E3193B19BF8203123B1CD
S31508012A90002389F84D318BF820319BF81F3123B17A
S31508012AA0002389F83F318BF81F3100238BF81E313B
S31508012AB000238BF8E8309BF8E730C3B19BF81B314C
S31508012AC093B19BF81D3123B1002389F831318BF875
S31508012AD01D319BF81C3123B1002389F823318BF86A
S31508012AE01C3100238BF81B3100238BF8E7309BF848
S31508012AF0E630C3B19BF8183193B19BF81A3123B16B
S31508012B00002389F815318BF81A319BF8193123B14D
S31508012B10002389F807318BF8193100238BF818310E
S31508012B2000238BF8E6309BF82F31002B44F06082A6
S31508012B3002E000BF78BD00209BF8ED3043B39BF857
S31508012B402E3133B1002389F88B3189F88C318BF812
S31508012B502E319BF82B3183B19BF82D3123B10023FC
S31508012B6089F886318BF82D319BF82C3113B1002366
S31508012B708BF82C3100238BF82B31002389F8863109
S31508012B8089F88B3189F8853189F88C318BF8ED30E4
S31508012B909BF8EC3043B39BF82A3133B1002389F80B
S31508012BA0813189F882318BF82A319BF8273183B133
S31508012BB09BF8293123B1002389F87C318BF8293117
S31508012BC09BF8283113B100238BF8283100238BF8A1
S31508012BD02731002389F87C3189F8813189F87B31DD
S31508012BE089F882318BF8EC309BF8EB3043B39BF8CC
S31508012BF0263133B1002389F8773189F878318BF892
S31508012C0026319BF8233183B19BF8253123B1002363
S31508012C1089F872318BF825319BF8243113B10023D9
S31508012C208BF8243100238BF82331002389F872317C
S31508012C3089F8773189F8713189F878318BF8EB3071
S31508012C40002389F8293089F82C3089F82A3089F83F
S31508012C502B308BF8E5309BF8D730002B00F0E3805A
S31508012C609BF8DC30C3B19BF8DD3093B19BF80F318B
S31508012C7023B1002389F8DF308BF80F319BF80E3129
S31508012C8023B1002389F8D1308BF80E3100238BF854
S31508012C90DD3000238BF8DC309BF8DA30C3B19BF8C2
S31508012CA0DB3093B19BF80D3123B1002389F8BD3090
S31508012CB08BF80D319BF80C3123B1002389F8AF301D
S31508012CC08BF80C3100238BF8DB3000238BF8DA30D4
S31508012CD09BF8D830C3B19BF8D93093B19BF80B3127
S31508012CE023B1002389F8A1308BF80B319BF80A31FF
S31508012CF023B1002389F893308BF80A3100238BF826
S31508012D00D93000238BF8D8309BF8E33043B39BF8CE
S31508012D10173133B1002389F8FD3089F8FE308BF875
S31508012D2017319BF8E43083B19BF8163123B10023A0
S31508012D3089F8FA308BF816319BF8153113B100234F
S31508012D408BF8153100238BF8E430002389F8FA3023
S31508012D5089F8FD3089F8F73089F8FE308BF8E330C9
S31508012D609BF8E23043B39BF8143133B1002389F859
S31508012D70F23089F8F3308BF814319BF8113183B1AD
S31508012D809BF8133123B1002389F8ED308BF8133101
S31508012D909BF8123113B100238BF8123100238BF8FB
S31508012DA01131002389F8ED3089F8F23089F8EC30D1
S31508012DB089F8F3308BF8E2309BF8DE3043B39BF8A1
S31508012DC0103133B1002389F8E93089F8EA308BF8F4
S31508012DD010319BF8DF3083B19BF8E13023B1002332
S31508012DE089F828308BF8E1309BF8E03013B10023DD
S31508012DF08BF8E03000238BF8DF30002389F8283080
S31508012E0089F8E93089F8273089F8EA308BF8DE3015
S31508012E10002389F8233089F8243089F8253089F880
S31508012E2026308BF8D730002389F81F3089F82030EF
S31508012E3089F8213089F822308BF8D6309BF8CD30C5
S31508012E40002B00F096809BF8D3305BB39BF8D43007
S31508012E50C3B19BF8D53093B19BF8043123B1002354
S31508012E6089F87C308BF804319BF8033123B10023B0
S31508012E7089F86E308BF8033100238BF8D53000239F
S31508012E808BF8D4309BF80531002B44F08180002360
S31508012E9089F8843089F8833089F8893089F88A3045
S31508012EA08BF8D3309BF8CE30002B57D09BF8CF3018
S31508012EB0C3B19BF8D03093B19BF8FA3023B1002304
S31508012EC089F84C308BF8FA309BF8F93023B1002396
S31508012ED089F83E308BF8F93000238BF8D03000237F
S31508012EE08BF8CF309BF8D13043B39BF8023133B11D
S31508012EF0002389F8643089F865308BF802319BF82C
S31508012F00D23083B19BF8013123B1002389F86130AE
S31508012F108BF801319BF8003113B100238BF800318E
S31508012F2000238BF8D230002389F8613089F86430A0
S31508012F3089F85E3089F865308BF8D1309BF8FB301B
S31508012F40002B44F04580002389F81B3089F81E3090
S31508012F5089F81D3089F81C308BF8CE30002389F8A2
S31508012F60173089F8183089F8193089F81A308BF82A
S31508012F70CD30002389F8133089F8143089F81530D3
S31508012F8089F816308BF8CC3099F81530002B40F0BB
S31508012F90A4879BF8B740003418BF01249BF8AC30CE
S31508012FA0DE0600F1858743F010038BF8AC3099F8FB
S31508012FB01330002B40F081879BF8AC301D0700F1D8
S31508012FC03A879BF8AC3043F008038BF8AC30002CF9
S31508012FD040F03487DBB29BF8B720002A40F0F4862C
S31508012FE099F81620002A40F0EF865A0705D49BF86F
S31508012FF0AC3043F004038BF8AC3098075CBF43F060
S3150801300002038BF8AC3099F81430002B40F068872E
S315080130109AF80030002B00F032879BF8F83013B984
S3150801302001238BF8F8309BF8BC30002B00F0988709
S3150801303000238BF8BC3000208AF800009BF8BC10EE
S3150801304089F83510002940F0868708460AF06EFC93
S315080130509BF8B830002B00F009879BF8F73013B9B5
S3150801306001238BF8F7309BF8BD30002B00F0A387BE
S3150801307000238BF8BD308BF8B830194689F83430FF
S3150801308001200AF053FC9BF8B930002B00F0CA86E0
S315080130909BF8F43013B901238BF8F4309BF8BF3051
S315080130A0002B00F07B8700238BF8BF308BF8B930F3
S315080130B0194689F8313010200AF038FC9BF8F530AA
S315080130C013B901238BF8F5309BF8BE30002B00F0BD
S315080130D0A68600238BF8BE30194689F832300420BB
S315080130E00AF024FCC19900230022D1E900010FF05E
S315080130F021FC9BF8F130002840F0898613B9012399
S315080131008BF8F1309BF8B330002B00F015870023BC
S315080131108BF8B33089F83030C19B00210020C3E910
S31508013120000199F8301001B1012112200AF0FEFBC5
S31508013130C29900230022D1E900010FF0FBFB9BF89D
S31508013140F030002840F05B8613B901238BF8F03084
S315080131509BF8B230002B00F0EA8600238BF8B230D8
S3150801316089F82F30C29B00210020C3E9000199F894
S315080131702F1001B1012113200AF0D8FBC3990023AE
S315080131800022D1E900010FF0D5FB9BF8EF300028AA
S3150801319040F0868613B901238BF8EF309BF8B530DA
S315080131A0002B00F0D38600238BF8B53089F82E3032
S315080131B0C39B00210020C3E9000199F82E1001B133
S315080131C001210E200AF0B2FBC49900230022D1E99D
S315080131D000010FF0AFFB9BF8EE30002840F058864F
S315080131E013B901238BF8EE309BF8B430002B00F0AD
S315080131F0A88600238BF8B43089F82D30C49B0021AA
S315080132000020C3E9000199F82D1001B101210F2011
S315080132100AF08CFB9BF8C030002B00F0B7859BF8B1
S31508013220B03007EE903AF8EEE77AF5EE407AF1EE2D
S3150801323010FA40F0A08614230DF5A47AA022444979
S31508013240CBF8A430CBF8A83050460FF009FCA022E1
S3150801325040497AA80FF004FCB8F8003016931846CE
S315080132600FF09AF8DAE90045CDE9180102460B464E
S31508013270204629460FF068FB002803F01587CDF88C
S3150801328068B0CDF8C882CB46DDE91889324F0026E9
S315080132900022314B304639460EF032FF0F460646BC
S315080132A00FF090FB0AEBC00050E9024542464B4637
S315080132B0204629460FF048FB0028E9D10022264B73
S315080132C0DDF8C882304639460EF018FF0FF07AFB52
S315080132D0D946DDF868B00138C600A2AB334453E9D4
S315080132E02801002200230FF025FB0746002840F09D
S315080132F0CF8316980FF040F802460B46204629461A
S31508013300CDE916230EF0FAFEFFF746FA0022134B13
S3150801331004460D460FF018FB002800F0E887002246
S315080133200023204629460FF023FB002803F0EE86EA
S31508013330204629460FF06EFB80B2431E984285F05F
S315080133405B860022002300F0F5BC0123FFF7AABA29
S3150801335000C0000800C100080000F03F0000F0406E
S3150801336000005443B8F800301FED037A07EE903A8F
S31508013370F8EEE77AF4EE477AF1EE10FA3FF43AAB53
S315080133809BF8CC3013B901238BF8CC30169BD3E9C3
S31508013390006700224C4B304639460FF0CBFA00281D
S315080133A040F0888200224FF08043304639460FF0BC
S315080133B0C1FA002840F07E820022444B3046394645
S315080133C00FF0B8FA002840F075829BF8D630002B2A
S315080133D000F0DC819BF8E530002B00F008819BF8B2
S315080133E0E930BBB19BF8EA308BB19BF822311BB1AE
S315080133F089F869018BF822019BF8213123B1002351
S3150801340089F85B318BF8213100238BF8EA300023E8
S315080134108BF8E9309BF8E830C3B19BF81E3193B1BC
S315080134209BF8203123B1002389F84D318BF82031DF
S315080134309BF81F3123B1002389F83F318BF81F31DF
S3150801344000238BF81E3100238BF8E8309BF8E73010
S31508013450C3B19BF81B3193B19BF81D3123B10023EE
S3150801346089F831318BF81D319BF81C3123B10023C2
S3150801347089F823318BF81C3100238BF81B31002383
S315080134808BF8E7309BF8E630C3B19BF8183193B156
S315080134909BF81A3123B1002389F815318BF81A31B3
S315080134A09BF8193123B1002389F807318BF81931B3
S315080134B000238BF8183100238BF8E6309BF82F315F
S315080134C0002B43F08D8503E00000F03F0000084023
S315080134D09BF8ED3043B39BF82E3133B1002389F8BD
S315080134E08B3189F88C318BF82E319BF82B3183B1CE
S315080134F09BF82D3123B1002389F886318BF82D31BC
S315080135009BF82C3113B100238BF82C3100238BF84F
S315080135102B31002389F8863189F88B3189F8853171
S3150801352089F88C318BF8ED309BF8EC3043B39BF876
S315080135302A3133B1002389F8813189F882318BF830
S315080135402A319BF8273183B19BF8293123B100230E
S3150801355089F87C318BF829319BF8283113B100237E
S315080135608BF8283100238BF82731002389F87C3121
S3150801357089F8813189F87B3189F882318BF8EC3009
S315080135809BF8EB3043B39BF8263133B1002389F816
S31508013590773189F878318BF826319BF8233183B155
S315080135A09BF8253123B1002389F872318BF825312F
S315080135B09BF8243113B100238BF8243100238BF8AF
S315080135C02331002389F8723189F8773189F8713105
S315080135D089F878318BF8EB30002389F8293089F896
S315080135E02C3089F82A3089F82B308BF8E5309BF88E
S315080135F0D730002B00F0BC809BF8DC30C3B19BF8B8
S31508013600DD3093B19BF80F3123B1002389F8DF3000
S315080136108BF80F319BF80E3123B1002389F8D1308D
S315080136208BF80E3100238BF8DD3000238BF8DC3064
S315080136309BF8DA30C3B19BF8DB3093B19BF80D31B7
S3150801364023B1002389F8BD308BF80D319BF80C3175
S3150801365023B1002389F8AF308BF80C3100238BF89E
S31508013660DB3000238BF8DA309BF8D830C3B19BF8EE
S31508013670D93093B19BF80B3123B1002389F8A130D6
S315080136808BF80B319BF80A3123B1002389F8933063
S315080136908BF80A3100238BF8D93000238BF8D83000
S315080136A09BF8E33043B39BF8173133B1002389F80C
S315080136B0FD3089F8FE308BF817319BF8E43083B179
S315080136C09BF8163123B1002389F8FA308BF81631A5
S315080136D09BF8153113B100238BF8153100238BF8AC
S315080136E0E430002389F8FA3089F8FD3089F8F73093
S315080136F089F8FE308BF8E3309BF8E23043B39BF848
S31508013700143133B1002389F8F23089F8F3308BF894
S3150801371014319BF8113183B19BF8133123B100237E
S3150801372089F8ED308BF813319BF8123113B1002368
S315080137308BF8123100238BF81131002389F8ED300B
S3150801374089F8F23089F8EC3089F8F3308BF8E230F1
S315080137509BF8DE30002B43F09283002389F823304F
S3150801376089F8243089F8253089F826308BF8D7303E
S315080137700023169A89F81F3089F8203089F82130F4
S3150801378089F822308BF8D630D2E900671893B64B00
S315080137903046394600220FF0CDF89BF8CD30002887
S315080137A002F0298613B901238BF8CD309BF8B03086
S315080137B008EE103AB8EEC88A9BF8D330B5EE408ABF
S315080137C0F1EE10FA42F0DC8713B901238BF8D330F6
S315080137D0B8F80070DFEDA58A07EE907AB8EEE79A99
S315080137E0B4EEE89AF1EE10FAC1F2E88138460EF025
S315080137F0D3FDD5E91A230FF0A7F8002801F0DE81D9
S31508013800B4EE689AF1EE10FA43F0A7849BF8BA3041
S31508013810002B0CBF012300238BF8B83004F00F816D
S31508013820B8F8004007EE904AF8EEE78ADFED907A9D
S31508013830904A9BF8C3301370F4EE678AF1EE10FADA
S3150801384041F0BF81002B03F0EF8095F8A1318BF889
S31508013850C330BA9A95F8A1311370BB9A95F8A1317C
S31508013860137095F8A1318BF8C03095F8A2118BF831
S31508013870B710B39900220023CBE90623C1E9002337
S31508013880BE9A95F89B311370BF9A95F89B311370C0
S31508013890BC9A01231360BD9A13608AF80030B8F800
S315080138A0004007EE904AF8EEE78A01F08AB901244A
S315080138B0FFF715B89BF8D63013B901238BF8D63024
S315080138C09BF8B03009EE903AF8EEE99A9BF8E530A4
S315080138D0F5EE409AF1EE10FA40F0968313B90123FA
S315080138E08BF8E530B8F80030DFED638A189307EEF8
S315080138F0903AB8EEE78AB4EEE88AF1EE10FAC0F229
S31508013900958518460EF048FDD5E940230FF01CF8B9
S31508013910002800F08B85B4EE688AF1EE10FA40F0C3
S315080139208585169BD3E900670022544B30463946F4
S315080139300FF000F8002843F0C4859BF8C730002B28
S3150801394004F0EE821C903946304600224FF080433F
S315080139500EF0F0FF0027002805F09F839BF8C6307C
S31508013960002B43F0C785454BDBE9180100220EF011
S31508013970C7FBCBE9180101231E939BF8BA60002EF9
S3150801398044F0A982B39B93ED007B00223C4B51EC9A
S31508013990170B8DED1A7B0EF0CDFF002804F061841C
S315080139A01699374B0022D1E900010EF0C3FF002812
S315080139B004F06B823446209633461C9A002A44F05A
S315080139C05682002F43F04A861E9A002A43F04686FD
S315080139D0002B43F04386002C43F040869DF8803047
S315080139E0284A8BF8B830DBE91C01C2E90001CBE9AA
S315080139F01C01002F03F02B86204B0022DBE91E0158
S31508013A000EF07EFB204BC3E900011E9BCBE91E018C
S31508013A10002B03F0D385194B0022DBE920010EF0B8
S31508013A206FFB1A4BC3E90001CBE9200186B9169B46
S31508013A30B399D3E90023D1E900010EF07BFF38B928
S31508013A40DBE91A0100220D4B0EF05AFBCBE91A01EC
S31508013A5001238AF80030B8F8004007EE904AF8EEDC
S31508013A60E78A00F0E6BC00BF0000144000004042AF
S31508013A7000004842B2BD0020000044430000F03F68
S31508013A800000084058BD002020BE0020A8BD002027
S31508013A9016980EF071FCB244DAE90023CDE9160155
S31508013AA00EF02CFBFEF778FE0022C24B04460D46AB
S31508013AB00EF04AFF002800F0288400220023204641
S31508013AC029460EF055FF002803F0F88229462046BC
S31508013AD00EF0A0FF80B21A900EF04EFCCDE9180147
S31508013AE0B54BD3E90067DDE9180132463B460EF0CE
S31508013AF005FBFEF751FE0022AE4B04460D460EF0BD
S31508013B0023FF002802F03786002200232046294693
S31508013B100EF02EFF002803F0DC82204629460EF01F
S31508013B2079FF80B20EF028FCA44BD3E90045224662
S31508013B302B460EF0C1FDFEF72FFE00229D4BCDE967
S31508013B401C010EF001FF002802F010860022002356
S31508013B50DDE91C010EF00CFF002803F0B682DDE951
S31508013B601C010EF057FF80B20130B0F5803F02F01C
S31508013B70FD850EF001FC02460B46204629460EF04D
S31508013B8071FCFEF709FE00228A4B04460D460EF02B
S31508013B90DBFE002802F0168700220023204629466C
S31508013BA00EF0E6FE002803F0AD82294620460EF007
S31508013BB031FF80B20EF0E0FB02460B46304639462D
S31508013BC00EF09EFAFEF7E8FD00227A4B04460D46F2
S31508013BD00EF0BAFE002802F0F186002200232046E4
S31508013BE029460EF0C5FE002803F08982204629469B
S31508013BF00EF010FF1FFA80FA714BD3E90045DDE993
S31508013C00180122462B460EF079FAFEF7C5FD002269
S31508013C10684B06460F460EF097FE002802F0D78637
S31508013C2000220023304639460EF0A2FE002803F092
S31508013C306282304639460EF0EDFE80B20EF09CFBEC
S31508013C40604BD3E9006732463B460EF035FDFEF779
S31508013C50A3FD0022574BCDE918010EF075FE002889
S31508013C6002F07F8500220023DDE918010EF080FEAF
S31508013C70002803F03C82DDE918010EF0CBFE80B284
S31508013C800130B0F5803F02F06C850EF075FB0246F7
S31508013C900B46304639460EF0E5FBFEF77DFD002260
S31508013CA0444B06460F460EF04FFE002802F0838469
S31508013CB000220023304639460EF05AFE002803F04A
S31508013CC01282394630460EF0A5FE80B20EF054FB3C
S31508013CD002460B46204629460EF012FAFEF75CFD0F
S31508013CE00022344B04460D460EF02EFE002802F043
S31508013CF05E8400220023204629460EF039FE00285C
S31508013D0003F0EE81204629460EF084FE80B28245F4
S31508013D1028BF82461A9BC3EB0A03534502F2508415
S31508013D20981E8342C2F04C8480B207460EF034FBDB
S31508013D3002460B46DBE90845204629460EF018FEE1
S31508013D40002802F0548338460EF016FB06460F4645
S31508013D5022462B46304639460EF0D0F9002300227A
S31508013D6004460D460EF00EFE4FF0010300B9034658
S31508013D708BF8C0303046DDE9162339460EF0C0F916
S31508013D800EF048FEA8F80000CBE908459BF8AC30D0
S31508013D90D9075CBF43F001038BF8AC300BF59A7178
S31508013DA009F5CC70FEF708F80DF5237DBDEC068BF9
S31508013DB0BDE8F08F0000F040380000202800002000
S31508013DC040000020300000205B0742F1DC83C39BE2
S31508013DD00593BF9B0393BD9B0293BB9B0193B79B23
S31508013DE0CDF810A00093B59B42460BF59E7109F5D7
S31508013DF0D470FDF7DDFA9BF8AC30FFF7FEB8002B5F
S31508013E003FF4BCA900238BF8F030FFF7B7B9002BB4
S31508013E103FF48EA900238BF8F130FFF789B9012306
S31508013E20FFF758B99BF8F420002A3FF447A98BF805
S31508013E30F430FFF743B9002C3FF4CDA8C19B059395
S31508013E40BE9B0393BC9B0293BA9B0193B69B0093BB
S31508013E50CDF810A0B49B42460BF5A67109F2F910EC
S31508013E60FCF7F2FD9BF8AC30FFF7B5B89BF8F720E5
S31508013E70002A3FF408A98BF8F730FFF704B99BF835
S31508013E80F820002A3FF4E4A88BF8F830FFF7E0B8E9
S31508013E90002B3FF4BFA900238BF8EE30FFF7BAB920
S31508013EA0002B3FF491A900238BF8EF30FFF78CB96B
S31508013EB099F81320002A3FF481A8C79B0293C59B52
S31508013EC00193C29B0093B89A53460BF5AE7109F557
S31508013ED01370FCF719FDFFF76FB80124FFF75EB8F9
S31508013EE0C89B0293C69B0193C49B0093B99A5346F8
S31508013EF00BF59C7109F5CE70FDF7E6FEFFF788B85C
S31508013F003046394600223B4B0EF014FD00287EF45C
S31508013F10FAAC002C5BD09BF8F330002B40F0FE8105
