S02300002E2E2F48414E636F6465725F453430375F5454415F47726F7570322E737265636D
S31508004000CCD00020D1FE010800000000000000000E
S315080040100000000000000000000000000000000092
S31508004020000000000000000000000000C1CC0108EC
S3150800403000000000000000005DCD0108ADCD0108BC
S315080040400000000000000000000000000000000062
S315080040500000000000000000000000000000000052
S31508004060000000009DDA01080000000000000000C2
S315080040700000000000000000000000000000000032
S31508004080000000000000000000000000E9C0010870
S31508004090A1C00108C5C001080DC101080000000043
S315080040A089DA010875DA010861DA010851DA0108C6
S315080040B03DDA010829DA010815DA010800000000CE
S315080040C000000000000000000000000000000000E2
S315080040D000000000A1E40108B9E40108D1E40108E0
S315080040E0000000000000000099E50108000000003B
S315080040F001DA0108EDD90108DDD901080000000040
S315080041000000000001E501080000000000000000B2
S315080041100000000000000000000000000000000091
S3150800412000000000000000000000000005E501088E
S3150800413000000000CDDA01080000000079C101087E
S3150800414031C1010855C101089DC10108C9E5010829
S31508004150000000000000000000000000E9E401087B
S315080041600000000000000000000000000000000041
S315080041700000000000000000000000000000000031
S311080041800000000000000000EE11AA5527
S3150800C000000000000000000000000000000054408E
S3150800C0100000000000005540000000000080554068
S3150800C0200000000000005640000000000080564056
S3150800C0300000000000005740000000000080654036
S3150800C0400000000000006640000000000080664016
S3150800C05000000000004070400000000000607040D2
S3150800C06000000000008070400000000000C0704022
S3150800C0700000000000C07540000000000000764087
S3150800C0800000000000407640000000000080764076
S3150800C0900000000000C07640000000000000774065
S3150800C0A000000000000000000000000000005440EE
S3150800C0B000000000000055400000000000805540C8
S3150800C0C00000000000005640000000000000654027
S3150800C0D00000000000406540000000000080654048
S3150800C0E00000000000806F400000000000C06F40A4
S3150800C0F00000000000007040000000000040704092
S3150800C10000000000008076400000000000A0764095
S3150800C1100000000000000000000000000000F03FE2
S3150800C120000000000000F03F000000000000F03FA3
S3150800C130000000000000F03F000000000000F03F93
S3150800C1400000000000000000000000000000F03FB2
S3150800C150000000000000F03F0000000000000000A2
S3150800C160000000000000F03F000000000000F03F63
S3150800C170000000000000F03F000000000000000082
S3150800C180000000000000F03F000000000000F03F43
S3150800C190000000000000F03F000000000000F03F33
S3150800C1A0000000000000F03F000000000000F03F23
S3150800C1B00000000000000000000000000000F03F42
S3150800C1C0000000000000F03F000000000000F03F03
S3150800C1D00000000000000000000000000000F03F22
S3150800C1E0000000000000F03F000000000000000012
S3150800C1F0000000000000F03F000000000000F03FD3
S3150800C200000000000000F03F000000000000F03FC2
S3150800C210000000000000F03F000000000000F03FB2
S3150800C22000000101010001000101000000010001F8
S3150800C23000000000000070400000000000C07640CA
S3150800C2400000000000806540000000000000554026
S3150800C25000000000000056400000000000005440A6
S3150800C2600000000000006540000000000000903F4C
S3150800C2700000000000005040000000000000C03F21
S3150800C2800000000000002040000000000000903F71
S3150800C2900000000000005040000000000000574069
S3150800C2A00000000000007740000000000000554034
S3150800C2B00000000000005640000000000000544046
S3150800C2C000000000004070400000000000C07640FA
S3150800C2D00000000000806540000000000000554096
S3150800C2E000000000000070400000000000005640FA
S3150800C2F0000000000080704000000000000054406C
S3150800C30000000000000065400000000000806F404B
S3150800C310000000000000903F0000000000005040B0
S3150800C320000000000000C03F0000000000002040A0
S3150800C330000000000000903F000000000000504090
S3150800C34000000000008076400000000000C0764033
S3150800C3500000000000407740000000000000774021
S3150800C3600000000000005540000000000000564094
S3150800C37000000000000057400000000000806640F2
S3150800C38000000000000066400000000000C0704089
S3150800C3900000000000807040000000000040764069
S3150800C3A00000000000007640000000000000544035
S3150800C3B00000000000C075400000000000806540D5
S3150800C3C00000000000407040000000000000F03F40
S3150800C3D0000000000000000001000100000100004C
S3150800C3E0010000000100000001000000010000003B
S3150800C3F000000000150000001500000015000000F0
S3150800C4001500000000000000010000000100000007
S3150800C41001000000010000000000000016000000F6
S3150800C42016000000160000001600000000000000BC
S3150800C43001000000010000000100000001000000EA
S3150800C440000000001500000015000000150000009F
S3150800C45015000000000000000D0000000D0000009F
S3150800C4600D0000000D000000000000000C00000098
S3150800C4700C0000000C0000000C000000000000008A
S3150800C4800B0000000B0000000B0000000B00000072
S3150800C490000000000100000001000000010000008B
S3150800C4A001000000000000006464640048414E6317
S3150800C4B06F6465725F453430375F5454415F477225
S3150800C4C06F7570325F736F66747761726549445F22
S3150800C4D076315F3235303532325F3139323930397B
S3150800C4E04170704374726C5461736B0048414E63BB
S3150800C4F06F6465725F453430375F5454415F4772E5
S3150800C5006F7570322E630000200000000014024090
S3150800C51008000900200000000014024010000E0068
S3150800C520200000000014024020000F002000000038
S3150800C53000140240400004002000000000140240DD
S3150800C54080000500200000000014024000010600DB
S3150800C550200000000014024000020700200000002E
S3150800C560001402400004080004000000000802400D
S3150800C57001000A00040000000008024004000C0044
S3150800C580414443636F6E76657273696F6E54617367
S3150800C5906B0000002E2E2F626C6F636B7365742F11
S3150800C5A07274772F53544D33322F7372632F686525
S3150800C5B061705F342E630000546D724370754C6F62
S3150800C5C06164000049444C45000000002E2E2F628D
S3150800C5D06C6F636B7365742F7274772F53544D3376
S3150800C5E0322F7372632F7461736B732E63000000AE
S3150800C5F02E2E2F626C6F636B7365742F7274772F90
S3150800C60053544D33322F7372632F74696D65727389
S3150800C6102E630000546D72205376630043616E45A5
S3150800C62076656E745461736B0000000043616E5446
S3150800C63072616E736D69745461736B002E2E2F626E
S3150800C6406C6F636B7365742F7274772F53544D3305
S3150800C650322F7372632F53544D33325F453430375C
S3150800C6602F63616E2E630000006400400000000224
S3150800C67008000000000C024001000000080000004D
S3150800C680000C0240020001000913141516000000F0
S3150800C6900068004000000004020000000004024098
S3150800C6A020000500020000000004024040000600C9
S3150800C6B0093F404142000000010102010202020254
S3150800C6C0020302020402020303030403030503032D
S3150800C6D006030305040406040407040408040407FF
S3150800C6E005050805050806050807050807060808D4
S3150800C6F00608080708080800457643686E6C310086
S3150800C700457643686E6C3200457643686E6C330036
S3150800C7102E2E2F626C6F636B7365742F7274772F6E
S3150800C72053544D33322F7372632F53544D33325F44
S3150800C730453430372F6D61632E6300002E2E2F622D
S3150800C7406C6F636B7365742F7274772F53544D3304
S3150800C750322F7372632F53544D33325F453430375B
S3150800C7602F706F72742E63000000014001000000F4
S3150800C770020100001000000000100240000209003B
S3150800C780100000000010024000080B0000040040E2
S3150800C7900200000001020000010000000000024043
S3150800C7A040000600020000000004024020000500C8
S3150800C7B00008004004000000010200000800000014
S3150800C7C0000C024000100C0008000000000C02409B
S3150800C7D000200D00000401400200000002030000D2
S3150800C7E004000000000802404000060004000000A3
S3150800C7F00008024080000700000001400100000018
S3150800C80002011900000000400100000001021C009E
S3150800C810000400400200000001021D00000800405C
S3150800C8200400000001021E0000040140020000008E
S3150800C83002012C000040014000000100020118001E
S3150800C84000440140000002000201190000480140AE
S3150800C8500000040002011A00001C004080000000CD
S3150800C86001022C00002000400001000001022D00FA
S3150800C870040000000008024001000000200000003B
S3150800C880001402404000000020000000001402408E
S3150800C8908000000020000000001402400001000093
S3150800C8A020000000001402400002000020000000E2
S3150800C8B000140240000400000200000000040240C8
S3150800C8C08000000002000000000402404000000052
S3150800C8D010000000001002400400000010000000D4
S3150800C8E00010024010000000100000000010024076
S3150800C8F02000000010000000001002404000000068
S3150800C90040000000001802408000000040000000BF
S3150800C9100018024000010000400000000018024014
S3150800C92000100000400000000018024000800000CF
S3150800C9300100000000000240100000000200000094
S3150800C9400004024020000000010000000000024030
S3150800C9504000000001000000000002402000000026
S3150800C96008000000000C024001000000080000005A
S3150800C970000C02400200000008000000000C024003
S3150800C9800400000008000000000C02400800000037
S3150800C99008000000000C024010000000080000001B
S3150800C9A0000C02402000000008000000000C0240B5
S3150800C9B04000000008000000000C02408000000053
S3150800C9C008000000000C02400001000008000000FA
S3150800C9D0000C02400002000008000000000C0240A3
S3150800C9E00004000008000000000C024000080000D7
S3150800C9F008000000000C02400010000008000000BB
S3150800CA00000C02400020000008000000000C024054
S3150800CA100040000008000000000C024000800000F2
S3150800CA201000000000100240010000001000000085
S3150800CA300010024002000000100000000010024032
S3150800CA4008000000100000000010024080000000EE
S3150800CA501000000000100240000100001000000055
S3150800CA600010024000020000100000000010024002
S3150800CA70000400001000000000100240000800003A
S3150800CA801000000000100240001000001000000016
S3150800CA9000100240002000001000000000100240B4
S3150800CAA00040000010000000001002400080000056
S3150800CAB020000000001402400100000020000000D1
S3150800CAC0001402400200000020000000001402408A
S3150800CAD004000000200000000014024008000000C6
S3150800CAE02000000000140240100000002000000092
S3150800CAF0001402402000000020000000001402403C
S3150800CB000008000020000000001402400010000089
S3150800CB102000000000140240002000002000000051
S3150800CB2000140240004000002000000000140240EB
S3150800CB3000800000400000000018024001000000CC
S3150800CB4040000000001802400200000040000000FB
S3150800CB5000180240040000004000000000180240CF
S3150800CB600800000040000000001802401000000005
S3150800CB7040000000001802402000000040000000AD
S3150800CB800018024040000000400000000018024063
S3150800CB9000020000400000000018024000040000E7
S3150800CBA04000000000180240000800004000000095
S3150800CBB00018024000200000400000000018024053
S3150800CBC000400000010000000000024001000000D3
S3150800CBD004000000000802400100000020000000D8
S3150800CBE0001402404000000020000000001402402B
S3150800CBF08000000020000000001402400001000030
S3150800CC00200000000014024000020000200000007E
S3150800CC100014024000040000020000000004024064
S3150800CC2080000000020000000004024040000000EE
S3150800CC301000000000100240040000001000000070
S3150800CC400010024010000000100000000010024012
S3150800CC502000000010000000001002404000000004
S3150800CC60400000000018024080000000400000005C
S3150800CC7000180240000100004000000000180240B1
S3150800CC80001000004000000000180240008000006C
S3150800CC900100000000000240100000000200000031
S3150800CCA000040240200000000100000000000240CD
S3150800CCB040000000010000000000024020000000C3
S3150800CCC008000000000C02400100000008000000F7
S3150800CCD0000C02400200000008000000000C0240A0
S3150800CCE00400000008000000000C024008000000D4
S3150800CCF008000000000C02401000000008000000B8
S3150800CD00000C02402000000008000000000C024051
S3150800CD104000000008000000000C024080000000EF
S3150800CD2008000000000C0240000100000800000096
S3150800CD30000C02400002000008000000000C02403F
S3150800CD400004000008000000000C02400008000073
S3150800CD5008000000000C0240001000000800000057
S3150800CD60000C02400020000008000000000C0240F1
S3150800CD700040000008000000000C0240008000008F
S3150800CD801000000000100240010000001000000022
S3150800CD9000100240020000001000000000100240CF
S3150800CDA0080000001000000000100240800000008B
S3150800CDB010000000001002400001000010000000F2
S3150800CDC0001002400002000010000000001002409F
S3150800CDD000040000100000000010024000080000D7
S3150800CDE010000000001002400010000010000000B3
S3150800CDF00010024000200000100000000010024051
S3150800CE0000400000100000000010024000800000F2
S3150800CE10200000000014024001000000200000006D
S3150800CE200014024002000000200000000014024026
S3150800CE300400000020000000001402400800000062
S3150800CE40200000000014024010000000200000002E
S3150800CE5000140240200000002000000000140240D8
S3150800CE600008000020000000001402400010000026
S3150800CE7020000000001402400020000020000000EE
S3150800CE800014024000400000200000000014024088
S3150800CE900080000040000000001802400100000069
S3150800CEA04000000000180240020000004000000098
S3150800CEB0001802400400000040000000001802406C
S3150800CEC008000000400000000018024010000000A2
S3150800CED0400000000018024020000000400000004A
S3150800CEE00018024040000000400000000018024000
S3150800CEF00002000040000000001802400004000084
S3150800CF004000000000180240000800004000000031
S3150800CF1000180240002000004000000000180240EF
S3150800CF200040000004000000000802400020000045
S3150800CF30000001400100000002011B000000004043
S3150800CF400100000001021C0000040040020000006D
S3150800CF5001021D00000800400400000001021E0036
S3150800CF60000401400200000002012E0000400140BA
S3150800CF700000010002011800004401400000020000
S3150800CF8002011900004801400000040002011A00CD
S3150800CF90001C00408000000001022C000020004018
S3150800CFA00001000001022D001000000000100240E0
S3150800CFB00002000002000200010009001000000043
S3150800CFC000100240000800010400200001000B00C8
S3150800CFD010000000001002400020000208000002B5
S3150800CFE001000D0010000000001002400040000380
S3150800CFF01000002001000E000100000000000240A1
S3150800D00020000100020002000100050001000000E6
S3150800D0100000024040000200020002000200060072
S3150800D0200200000000040240200002010400200063
S3150800D0300200050008000000000C02400010030072
S3150800D0400200020002000C0008000000000C02406A
S3150800D050002003010400200002000D000400000067
S3150800D0600008024040000400020002000300060017
S3150800D07004000000000802408000040104002000AB
S3150800D0800300070010000000001002402000050001
S3150800D0900200020003000500100000000010024014
S3150800D0A040000501040020000300060020000000DF
S3150800D0B000140240400006000200020003000600B9
S3150800D0C02000000000140240800007000200020051
S3150800D0D003000700200000000014024000010800B9
S3150800D0E002000200090008002000000000140240A7
S3150800D0F000020900020002000900090000100140B0
S3150800D1001000000002250000020000000004024092
S3150800D11040000600020000000004024080000700EC
S3150800D120070000000044004000000200012600003D
S3150800D13008000000000C024020000500080000005E
S3150800D140000C0240400006000700000000480040AE
S3150800D150000004000127000008000000000C02403F
S3150800D1600001080008000000000C02400002090047
S3150800D17007000000001401402000000002470000DC
S3150800D18004000000000802404000060004000000F9
S3150800D190000802408000070008000000564350209F
S3150800D1A0436F6E666967000056435020496E746582
S3150800D1B0726661636500000053544D6963726F655A
S3150800D1C06C656374726F6E696373000053544D33F4
S3150800D1D032205669727475616C20436F6D506F7298
S3150800D1E07420696E204853206D6F64650000000046
S3150800D1F053544D3332205669727475616C20436FEF
S3150800D2006D506F727420696E204653204D6F6465A9
S3150800D21000000000303030303030303030353042A9
S3150800D2200000000030303030303030303035304398
S3150800D23000000000000001400100000002011B0080
S3150800D240000000400100000001021C00000400402C
S3150800D2500200000001021D00000800400400000052
S3150800D26001021E00000401400200000002012E0017
S3150800D270004001400000010002011800004401407E
S3150800D28000000200020119000048014000000400E5
S3150800D29002011A00001C00408000000001022C0058
S3150800D2A0002000400001000001022D0010000000CF
S3150800D2B000100240000200000200020001000900FE
S3150800D2C010000000001002400008000104002000C1
S3150800D2D001000B00100000000010024000200002B0
S3150800D2E00800000201000D001000000000100240B6
S3150800D2F0004000031000002001000E00010000009D
S3150800D30000000240200001000200020001000500A2
S3150800D3100100000000000240400002000200020076
S3150800D320020006000200000000040240200002017C
S3150800D330040020000200050008000000000C02405E
S3150800D340001003000200020002000C0008000000A2
S3150800D350000C0240002003010400200002000D001A
S3150800D3600400000000080240400004000200020019
S3150800D37003000600040000000008024080000401C3
S3150800D38004002000030007001000000000100240FF
S3150800D390200005000200020003000500100000003E
S3150800D3A000100240400005010400200003000600AA
S3150800D3B0200000000014024040000600020002009F
S3150800D3C00300060020000000001402408000070049
S3150800D3D002000200030007002000000000140240BB
S3150800D3E000010800020002000900080020000000F1
S3150800D3F000140240000209000200020009000900A8
S3150800D4002E2E2F626C6F636B7365742F7274772F71
S3150800D41053544D33322F7372632F71756575652EAC
S3150800D420630000000404040038D4000840D400084F
S3150800D43048D4000807070700457643686E6C310034
S3150800D440457643686E6C3200457643686E6C3300E9
S3150800D45050505000666D6F64000000000000000028
S3150800D460000000000000000000000000000000802E
S3090800D4704300000067
S315080100000B78FF2B00D070474B78002BFBD10AF0F9
S31508010010D7B900BF08B5012009F0DEFC034A40F252
S3150801002067610020BDE808400CF020BA010001080C
S31508010030002009F055BB00BF704700BF2DE9F04706
S31508010040DDF820E0099E9EF800C004460D4692465A
S315080100501F46BCF1000F02D101238EF8003030880B
S3150801006012F0D6FB22462B468046894612F09EFEA2
S31508010070E0B10E9A3B6813600D9A7B6813600C9A7F
S31508010080BB7A1370109A3B7A13700B9AFB7A13702A
S315080100900F9A7B7A13700A9A002313605360119A98
S315080100A01370308812F0B4FB8046894642464B46A7
S315080100B02046294612F084FE68B10B9B1B78D3B9FA
S315080100C001238AF800300C9B1B787BB901238AF837
S315080100D00130BDE8F087002642464B4620462946B0
S315080100E08AF8006012F06CFE0028ECD100238AF829
S315080100F00130BDE8F08700238AF800300C9B1B7895
S31508010100002BF3D1E2E700BF2DE9F04F83B0164685
S315080101101F4682468B4612F097F8002200230446B2
S315080101200D4612F043FED8BB804600220023204626
S3150801013029465FFA88F812F039FE50B93046394631
S3150801014011F0FAFF02460B463046394612F056FEC2
S3150801015090BBB8F1000F5FD15046594600220023E3
S315080101604FF0010912F02CFE20B30023002230467D
S31508010170394612F025FE4FF00103A0B15FFA89F95D
S31508010180DBB2994507D02046294632463B4612F04E
S31508010190F3F904460D462046294603B0BDE8F08F1B
S315080101A04FF00108C1E703465FFA89F9DBB29945C1
S315080101B0E9D1F0E7C146D8E732463B4650465946AB
S315080101C012F0B6FC21F000490022194B4946804637
S315080101D012F0D2F911F0B0FF02460B4640464946E5
S315080101E012F0C8F90B46024623F000434046009236
S315080101F0019300220F4B494612F070FB02460B464B
S31508010200DDE9000112F0E6FD4FF0010858B15FFA89
S3150801021088F8B8F1000F9FD000240025204629460A
S3150801022003B0BDE8F08F80465FFA88F8F1E700BFB2
S315080102300000E03F0000B03C2DE9F0410999089C17
S3150801024091F800E0DDF82880054616461F46BEF1FE
S31508010250000F01D101230B702B785B00DBB25A0921
S3150801026007EE902AB8EEE77AF7EE007AB4EEE77A67
S31508010270F1EE10FAA372227307DDD8E90001002214
S315080102801B4B12F079F9C8E900012878C009607397
S315080102902B781B01DBB24FEA1318637284F80B80C3
S315080102A012F0B6FA32463B4612F080FD50B140468E
S315080102B012F0AEFADDE9062312F078FD4FF00103DC
S315080102C098B1D8B220726B782370AB786370EB78EB
S315080102D0A3702B79E3706B792371AB796371EB7931
S315080102E0A3710023E371BDE8F0810346E9E700BF86
S315080102F00000F03F2DE9F0410999089C91F800E0CA
S31508010300DDF82880054616461F46BEF1000F01D1C5
S3150801031001230B702B785B00DBB25A0907EE902A92
S31508010320B8EEE77AF7EE007AB4EEE77AF1EE10FA6C
S31508010330A372227307DDD8E9000100221B4B12F0D4
S315080103401BF9C8E900012878C00960732B781B01DD
S31508010350DBB24FEA1318637284F80B8012F058FA6D
S3150801036032463B4612F022FD50B1404612F050FA91
S31508010370DDE9062312F01AFD4FF0010398B1D8B250
S3150801038020726B782370AB786370EB78A3702B7946
S31508010390E3706B792371AB796371EB79A3710023F0
S315080103A0E371BDE8F0810346E9E700BF0000F03FCD
S315080103B02DE9F0410799069C91F800E0DDF82080C7
S315080103C0054616461F46BEF1000F01D101230B70E3
S315080103D02B785B00DBB25A0907EE902AB8EEE77A6A
S315080103E0F7EE007AB4EEE77AF1EE10FAA372227309
S315080103F007DDD8E900010022154B12F0BDF8C8E95E
S3150801040000016B782370AB786370EB78A3702B7956
S31508010410E3706B792371AB796371EB79A37100236F
S31508010420E3712B781B01DBB218096372E07212F0D3
S31508010430EFF93B46324612F0B9FC4FF0010300B919
S31508010440034623722B78DB096373BDE8F08100BF8D
S315080104500000F03F2DE9F0410799069C91F800E06C
S31508010460DDF82080054616461F46BEF1000F01D16C
S3150801047001230B702B785B00DBB25A0907EE902A31
S31508010480B8EEE77AF7EE007AB4EEE77AF1EE10FA0B
S31508010490A372227307DDD8E900010022154B12F079
S315080104A06BF8C8E900016B782370AB786370EB7859
S315080104B0A3702B79E3706B792371AB796371EB794F
S315080104C0A3710023E3712B781B01DBB21809637250
S315080104D0E07212F09DF93B46324612F067FC4FF086
S315080104E0010300B9034623722B78DB096373BDE860
S315080104F0F08100BF0000F03F2DE9F04F89B00746B3
S3150801050018999DF8488091F800E09DF84C909DF85F
S3150801051050A09DF85460169D1A9CBEF1000F01D19A
S3150801052001200870DFF830E110461946DEE900239C
S3150801053012F022F8CDE90001384612F059F90022E5
S31508010540434BCDE9020112F017F8DDE9002312F059
S3150801055011F800220023CDE9060112F027FC002834
S3150801056041D01D9B18781C9BC0015FFA80FB85F85A
S3150801057001B0D3E9000112F089FC0001C7B2199B49
S31508010580AF70D3E9000112F081FC38445844179B37
S31508010590207084F8018084F8029084F803A02671FB
S315080105A06671A671E6711B9A1B681360DDE9002363
S315080105B0DDE9020111F0DEFF0022002380468946AB
S315080105C012F0F4FB0446002839D1224BD3E900671F
S315080105D0002200233046394612F0E8FBE8B12C70B8
S315080105E009B0BDE8F08F1B4B93ED007B0022002379
S315080105F051EC170B8DED047B12F0D8FB0028D5D1F1
S31508010600DDE90423DDE90601FFF77EFD002200236B
S3150801061012F0CCFB0028C9D0A3E732463B46404638
S315080106204946FFF771FD0022002312F0BFFB4FF088
S31508010630010448B1E4B22C7009B0BDE8F08F012479
S315080106402C7009B0BDE8F08F0446E4B2F3E700BFA9
S315080106500000F03F48000020600000202DE9F04F1F
S3150801066089B0074618999DF8488091F800E09DF8E9
S315080106704C909DF850A09DF85460169D1A9CBEF1A9
S31508010680000F01D101200870DFF830E11046194644
S31508010690DEE9002311F070FFCDE90001384612F0BA
S315080106A0A7F80022434BCDE9020111F065FFDDE908
S315080106B0002311F05FFF00220023CDE9060112F0A5
S315080106C075FB002841D01D9B18781C9BC0015FFA59
S315080106D080FB85F801B0D3E9000112F0D7FB0001D0
S315080106E0C7B2199BAF70D3E9000112F0CFFB3844AA
S315080106F05844179B207084F8018084F8029084F886
S3150801070003A026716671A671E6711B9A1B681360B0
S31508010710DDE90023DDE9020111F02CFF00220023A7
S315080107208046894612F042FB0446002839D1224BFD
S31508010730D3E90067002200233046394612F036FB1A
S31508010740E8B12C7009B0BDE8F08F1B4B93ED007B27
S315080107500022002351EC170B8DED047B12F026FBCA
S315080107600028D5D1DDE90423DDE90601FFF7CCFC34
S315080107700022002312F01AFB0028C9D0A3E732464B
S315080107803B4640464946FFF7BFFC0022002312F0CC
S315080107900DFB4FF0010448B1E4B22C7009B0BDE875
S315080107A0F08F01242C7009B0BDE8F08F0446E4B23D
S315080107B0F3E700BF0000F03F50000020680000206A
S315080107C02DE9F0410799069C91F800E0DDF82080B3
S315080107D0054616461F46BEF1000F01D101230B70CF
S315080107E02B785B00DBB25A0907EE902AB8EEE77A56
S315080107F0F7EE007AB4EEE77AF1EE10FAA3722273F5
S3150801080007DDD8E900010022154B11F0B5FEC8E94C
S3150801081000016B782370AB786370EB78A3702B7942
S31508010820E3706B792371AB796371EB79A37100235B
S31508010830E3712878C009607311F0EAFF3B46324636
S3150801084012F0B4FA4FF0010300B9034623722B786C
S315080108501B01DBB21A096372E272BDE8F08100BFBF
S315080108600000F03F2DE9F0410799069C91F800E058
S31508010870DDF82080054616461F46BEF1000F01D158
S3150801088001230B702B785B00DBB25A0907EE902A1D
S31508010890B8EEE77AF7EE007AB4EEE77AF1EE10FAF7
S315080108A0A372227307DDD8E900010022154B11F066
S315080108B063FEC8E900016B782370AB786370EB7847
S315080108C0A3702B79E3706B792371AB796371EB793B
S315080108D0A3710023E3712878C009607311F098FFAA
S315080108E03B46324612F062FA4FF0010300B903465D
S315080108F023722B781B01DBB21A096372E272BDE817
S31508010900F08100BF0000F03F2DE9F04F83B00C469F
S315080109100E9FDDF8348099460546324BD7E900012A
S315080109201646002211F028FE0123C7E9000189F8BD
S31508010930003023682C4A0C99013313602360D8F8D8
S31508010940003007EE903AB8EE677AF7EE007AB4EE21
S31508010950677AF1EE10FA05D1DFF888904FF00008B2
S31508010960C1E9008937780193384611F041FFDFF86C
S3150801097084801E4A019B1360C8E900012B602F7110
S3150801098096F807E085F805E096F801C085F806C0EF
S3150801099096F8028085F8078096F8039085F80890FE
S315080109A096F804A085F809A096F805B0104C85F8C4
S315080109B00AB0B079E8721946A071234608220020C8
S315080109C0277084F805B084F804A084F8039084F8A5
S315080109D0028084F801C084F807E003B0BDE8F04F4F
S315080109E00BF0D0BA0000F03FECC00020F0BD0020AB
S315080109F02807002030C1002008B5012100200BF08E
S31508010A00C5FC0B2100200BF0C1FC0C2100200BF0CA
S31508010A10BDFC0D2100200BF0B9FC152100200BF0BF
S31508010A20B5FC162100200BF0B1FC172100200BF0B4
S31508010A30ADFC182100200BF0A9FC19210020BDE806
S31508010A4008400BF0A3BC00BF2DE9F04F2DED088B34
S31508010A500D460968E34CE44E83B0013121602960F3
S31508010A601699DDF85C900968316007EE901AB8EEC0
S31508010A70678AF7EE007AB4EE678AF1EE10FA1F4636
S31508010A8004469246EB7940F09A820BB90123EB7141
S31508010A90DFF85883002243460092104601210BF0E5
S31508010AA0A1FC002884F84B0040F3A28398F8013092
S31508010AB0637698F80230A37698F80330E37698F8C7
S31508010AC004302377D6ED007A98F80530637798F8DD
S31508010AD00630A37798F8072098F80030E277F8EE01
S31508010AE0678A2376F2EE067AF4EE678AF1EE10FA51
S31508010AF0AB7940F0E3820BB90123AB71DFF8F082E1
S31508010B0000224346009210460B210BF06BFC00288D
S31508010B1084F84A0040F3838398F80130637498F89F
S31508010B200230A37498F80330E37498F804302375F7
S31508010B30D6ED007A98F80530637598F80630A375EE
S31508010B4098F8072098F80030E275B8EE679A23748A
S31508010B50F2EE087AB4EE679AF1EE10FA6B7940F084
S31508010B609C820BB901236B71DFF888820022434608
S31508010B70009210460C210BF035FC002884F8490038
S31508010B8040F36183D6ED007A98F8073098F8062085
S31508010B9098F8051098F8040098F803E098F802C048
S31508010BA098F801B098F8008084F809B0F8EE679AC9
S31508010BB084F80AC084F80BE020736173A273E373A7
S31508010BC084F80880F2EE0A7AF4EE679AF1EE10FAE2
S31508010BD02B7940F050820BB901232B71DFF818826B
S31508010BE000224346009210460D210BF0FBFB00281C
S31508010BF084F848001BDD98F801B098F802E098F8E7
S31508010C00030098F800C098F8041098F8052098F899
S31508010C10063098F8078084F8078084F801B084F8CC
S31508010C2000C084F802E0E07021716271A371D6ED0B
S31508010C30007AB8EE67AAF3EE057AB4EE67AAF1EE82
S31508010C4010FA2B7A40F0FD810BB901232B72DFF8DC
S31508010C50AC81002243460092104615210BF0C2FBD7
S31508010C60002884F84C0040F3E98298F8013084F8AA
S31508010C70213098F8023084F8223098F8033084F845
S31508010C80233098F8043084F82430D6ED007A98F8A1
S31508010C90053084F8253098F8063084F8263098F817
S31508010CA0072098F8003084F82720F8EE67AA84F818
S31508010CB02030F3EE067AF4EE67AAF1EE10FA6B7AB3
S31508010CC040F040820BB901236B72DFF834810022B0
S31508010CD043460092104616210BF084FB002884F83F
S31508010CE04D0040F3A68298F8013084F8293098F827
S31508010CF0023084F82A3098F8033084F82B3098F8B3
S31508010D00043084F82C30D6ED007A98F8053084F84A
S31508010D102D3098F8063084F82E3098F8072098F880
S31508010D20003084F82F20B8EE67BA84F82830F3EE3D
S31508010D30077AB4EE67BAF1EE10FA2B7B40F0D08150
S31508010D400BB901232B73DFF8BC80002243460092BE
S31508010D50104617210BF046FB002884F8500040F393
S31508010D60638298F8013084F8413098F8023084F8A3
S31508010D70423098F8033084F8433098F8043084F800
S31508010D804430D6ED007A98F8053084F8453098F85D
S31508010D90063084F8463098F8072098F8003084F829
S31508010DA04720F8EE67BA84F84030F3EE087AF4EE95
S31508010DB067BAF1EE10FAEB7A40F0AB810BB9012371
S31508010DC0EB72DFF844800022434600921046182150
S31508010DD00BF008FB002884F84F00D6ED007A40F3A3
S31508010DE01B8213E088BD00200CBE0020B806002037
S31508010DF0000700201007002020070020C006002059
S31508010E00C8060020D8060020E806002098F8013018
S31508010E1084F8393098F8023084F83A3098F8033073
S31508010E2084F83B3098F8043084F83C3098F805305B
S31508010E3084F83D3098F8063084F83E3098F8072053
S31508010E4098F8003084F83F20F8EE677A84F838304D
S31508010E50B3EE097AF4EE477AF1EE10FAAB7A40F07E
S31508010E60D8800BB90123AB72C84D00222B460092DC
S31508010E70104619210BF0B6FA002884F84E0017DD42
S31508010E806B78AA7884F83130EB7884F8322084F8C4
S31508010E9033302A796B7984F83420A97984F8353086
S31508010EA0EA792B7884F8361084F8372084F83030BC
S31508010EB0F7EE007AB4EE678AF1EE10FA40F0928006
S31508010EC094F94B30207E94F819C094F81AE0E67E1E
S31508010ED0257F617FA27F07EE103AE37F99F80040EC
S31508010EE007EE904AF8EEE77AF7EE006AF4EE667ACC
S31508010EF0F1EE10FA15D1F8EEC77AF5EE407AF1EE71
S31508010F0010FA57D1189C4FF002084FF0010B89F8D7
S31508010F10008084F800B099F8004007EE904AF8EE90
S31508010F20E77AF0EE006AF4EE667AF1EE10FA37D156
S31508010F30B8EEC77AB7EE008AB4EEC87AF1EE10FABF
S31508010F4038DBFB71189B87F801C001243870BA7128
S31508010F5087F802E0FE703D7179711C70159B8C4A09
S31508010F601C704FF0030C89F800C0BAF800301380E2
S31508010F70149A138011F03CFC169BD3ED007A854B2D
S31508010F80F8EE677AC3E90001F4EE487AF1EE10FA51
S31508010F9000F0288199F8003007EE903AF8EEE77AE2
S31508010FA0F5EE407AF1EE10FA04D1189A012389F880
S31508010FB00030137003B0BDEC088BBDE8F08F73B138
S31508010FC0002380F84B30037643768376C37603771E
S31508010FD043778377C377F0EE488AEB7182E5F0EEC3
S31508010FE0488A7FE5F2EE067AF4EE678AF1EE10FAA0
S31508010FF040F0D28094F94A30207C94F811C094F8D4
S3150801100012E0E67C257D617DA27D07EE103AE37D3F
S3150801101064E7002B3FF44CAF002384F84E3084F884
S31508011020303084F8313084F8323084F8333084F83B
S31508011030343084F8353084F8363084F83730AB727A
S3150801104036E7002B00F09680002384F84C3084F8AC
S31508011050203084F8213084F8223084F8233084F84B
S31508011060243084F8253084F8263084F82730F0EEC9
S315080110704AAA2B721DE6002B00F08280002384F811
S31508011080483023706370A370E37023716371A37191
S31508011090E371B0EE69AA2B71CDE5002B73D000235D
S315080110A084F8493023726372A372E37223736373FC
S315080110B0A373E373F0EE499A6B7183E5002B00F095
S315080110C08B80002384F84A3023746374A374E37411
S315080110D023756375A375E375B0EE689AAB7137E549
S315080110E0002B76D0002384F8503084F8403084F8F9
S315080110F0413084F8423084F8433084F8443084F827
S31508011100453084F8463084F84730F0EE4BBA2B73F5
S315080111104BE6002B63D0002384F84F3084F838302F
S3150801112084F8393084F83A3084F83B3084F83C3016
S3150801113084F83D3084F83E3084F83F30F0EE6B7A1F
S31508011140EB7285E6CBB1002384F84D3084F828305C
S3150801115084F8293084F82A3084F82B3084F82C3026
S3150801116084F82D3084F82E3084F82F30B0EE6ABA20
S315080111706B72DCE5F0EE4AAA9BE5B0EE6ABAD6E5F3
S31508011180B0EE69AA57E5F0EE499A1BE5F806002084
S3150801119008BE002030BE0020F2EE087AB4EE679A47
S315080111A0F1EE10FA29D0F2EE0A7AF4EE679AF1EE28
S315080111B010FA4DD194F94830207894F801C094F882
S315080111C002E0E67825796179A27907EE103AE379A2
S315080111D084E6F0EE4BBAE8E5B0EE689AB8E4F0EECC
S315080111E06B7A35E65D4B19990022C1E90023D1E6F0
S315080111F0D6ED007AF8EE678A74E494F94930207AD4
S3150801120094F809C094F80AE0E67A257B617BA27B0B
S3150801121007EE103AE37B61E6F8EE677A18E6D6ED53
S31508011220007AB8EE679A93E4D6ED007AF8EE67BAD3
S31508011230BBE5D6ED007AB8EE67BA78E5D6ED007A61
S31508011240F8EE67AA35E5D6ED007AF8EE679AB9E4BD
S31508011250F3EE057AB4EE67AAF1EE10FA1BD0F3EEB7
S31508011260067AF4EE67AAF1EE10FA29D194F94D300F
S3150801127094F8280094F829C094F82AE094F82B6089
S3150801128094F82C5094F82D1094F82E2007EE103A65
S3150801129094F82F3022E694F94C3094F8200094F80B
S315080112A021C094F822E094F8236094F8245094F825
S315080112B0251094F8262007EE103A94F827300DE603
S315080112C0F3EE077AB4EE67BAF1EE10FA14D194F98F
S315080112D0503094F8400094F841C094F842E094F8EC
S315080112E0436094F8445094F8451094F8462007EE64
S315080112F0103A94F84730F1E5F3EE087AF4EE67BA56
S31508011300F1EE10FA14D194F94F3094F8380094F8A4
S3150801131039C094F83AE094F83B6094F83C5094F854
S315080113203D1094F83E2007EE103A94F83F30D5E583
S3150801133094F94E3094F8300094F831C094F832E0BC
S3150801134094F8336094F8345094F8351094F83620AC
S3150801135007EE103A94F83730C0E500BF0000F03FB9
S31508011360012108B508460BF011F80B2101200BF0F5
S315080113700DF80C2101200BF009F80D2101200BF0C5
S3150801138005F8152101200BF001F8162101200AF0B4
S31508011390FDFF172101200AF0F9FF182101200AF0A3
S315080113A0F5FF19210120BDE808400AF0EFBF00BF8B
S315080113B02DE9F04F2DED088B0D460968E34CE44EF7
S315080113C083B00131216029601699DDF85C900968BE
S315080113D0316007EE901AB8EE678AF7EE007AB4EE36
S315080113E0678AF1EE10FA1F4604469246EB7940F0F9
S315080113F09A820BB90123EB71DFF858830022012188
S315080114004346009208460AF0EDFF002884F84B008F
S3150801141040F3A28398F80130637698F80230A376F0
S3150801142098F80330E37698F804302377D6ED007AF6
S3150801143098F80530637798F80630A37798F8072067
S3150801144098F80030E277F8EE678A2376F2EE067AA4
S31508011450F4EE678AF1EE10FAAB7940F0E3820BB944
S315080114600123AB71DFF8F0820022434600920B217B
S3150801147001200AF0B7FF002884F84A0040F3838365
S3150801148098F80130637498F80230A37498F8033019
S31508011490E37498F804302375D6ED007A98F8053088
S315080114A0637598F80630A37598F8072098F8003000
S315080114B0E275B8EE679A2374F2EE087AB4EE679A83
S315080114C0F1EE10FA6B7940F09C820BB901236B712E
S315080114D0DFF888820022434600920C2101200AF097
S315080114E081FF002884F8490040F36183D6ED007A2C
S315080114F098F8073098F8062098F8051098F8040027
S3150801150098F803E098F802C098F801B098F80080B6
S3150801151084F809B0F8EE679A84F80AC084F80BE0F3
S3150801152020736173A273E37384F80880F2EE0A7A72
S31508011530F4EE679AF1EE10FA2B7940F050820BB966
S3150801154001232B71DFF818820022434600920D21F0
S3150801155001200AF047FF002884F848001BDD98F8A7
S3150801156001B098F802E098F8030098F800C098F8D6
S31508011570041098F8052098F8063098F8078084F83A
S31508011580078084F801B084F800C084F802E0E070AE
S3150801159021716271A371D6ED007AB8EE67AAF3EEEE
S315080115A0057AB4EE67AAF1EE10FA2B7A40F0FD81BE
S315080115B00BB901232B72DFF8AC8100224346009256
S315080115C0152101200AF00EFF002884F84C0040F38B
S315080115D0E98298F8013084F8213098F8023084F8C5
S315080115E0223098F8033084F8233098F8043084F8C8
S315080115F02430D6ED007A98F8053084F8253098F825
S31508011600063084F8263098F8072098F8003084F8D0
S315080116102720F8EE67AA84F82030F3EE067AF4EE6E
S3150801162067AAF1EE10FA6B7A40F040820BB90123F2
S315080116306B72DFF83481002243460092162101209D
S315080116400AF0D0FE002884F84D0040F3A68298F8E7
S31508011650013084F8293098F8023084F82A3098F84D
S31508011660033084F82B3098F8043084F82C30D6ED02
S31508011670007A98F8053084F82D3098F8063084F801
S315080116802E3098F8072098F8003084F82F20B8EE05
S3150801169067BA84F82830F3EE077AB4EE67BAF1EE42
S315080116A010FA2B7B40F0D0810BB901232B73DFF89D
S315080116B0BC80002243460092172101200AF092FEBF
S315080116C0002884F8500040F3638298F8013084F8C2
S315080116D0413098F8023084F8423098F8033084F89B
S315080116E0433098F8043084F84430D6ED007A98F8F7
S315080116F0053084F8453098F8063084F8463098F86D
S31508011700072098F8003084F84720F8EE67BA84F87D
S315080117104030F3EE087AF4EE67BAF1EE10FAEB7A96
S3150801172040F0AB810BB90123EB72DFF8448000224C
S3150801173043460092182101200AF054FE002884F835
S315080117404F00D6ED007A40F31B8213E04CBE002011
S315080117501CC10020A0060020A80600203007002092
S31508011760B0060020E0060020F00600200807002049
S315080117701807002098F8013084F8393098F80230B3
S3150801178084F83A3098F8033084F83B3098F80430F6
S3150801179084F83C3098F8053084F83D3098F80630DE
S315080117A084F83E3098F8072098F8003084F83F20EE
S315080117B0F8EE677A84F83830B3EE097AF4EE477AA8
S315080117C0F1EE10FAAB7A40F0D8800BB90123AB726F
S315080117D0C84D00222B460092192101200AF002FE6B
S315080117E0002884F84E0017DD6B78AA7884F8313022
S315080117F0EB7884F8322084F833302A796B7984F8C7
S315080118003420A97984F83530EA792B7884F83610AA
S3150801181084F8372084F83030F7EE007AB4EE678A18
S31508011820F1EE10FA40F0928094F94B30207E94F84C
S3150801183019C094F81AE0E67E257F617FA27F07EE3C
S31508011840103AE37F99F8004007EE904AF8EEE77AF6
S31508011850F7EE006AF4EE667AF1EE10FA15D1F8EEB3
S31508011860C77AF5EE407AF1EE10FA57D1189C4FF087
S3150801187002084FF0010B89F8008084F800B099F846
S31508011880004007EE904AF8EEE77AF0EE006AF4EEC9
S31508011890667AF1EE10FA37D1B8EEC77AB7EE008A52
S315080118A0B4EEC87AF1EE10FA38DBFB71189B87F8AB
S315080118B001C001243870BA7187F802E0FE703D71E3
S315080118C079711C70159B8C4A1C704FF0030C89F8B2
S315080118D000C0BAF800301380149A138010F088FFFC
S315080118E0169BD3ED007A854BF8EE677AC3E90001BA
S315080118F0F4EE487AF1EE10FA00F0288199F80030F2
S3150801190007EE903AF8EEE77AF5EE407AF1EE10FA3C
S3150801191004D1189A012389F80030137003B0BDEC7D
S31508011920088BBDE8F08F73B1002380F84B3003763E
S3150801193043768376C376037743778377C377F0EE67
S31508011940488AEB7182E5F0EE488A7FE5F2EE067A7F
S31508011950F4EE678AF1EE10FA40F0D28094F94A3033
S31508011960207C94F811C094F812E0E67C257D617D0F
S31508011970A27D07EE103AE37D64E7002B3FF44CAFF6
S31508011980002384F84E3084F8303084F8313084F8F6
S31508011990323084F8333084F8343084F8353084F8BA
S315080119A0363084F83730AB7236E7002B00F0968074
S315080119B0002384F84C3084F8203084F8213084F8E8
S315080119C0223084F8233084F8243084F8253084F8CA
S315080119D0263084F82730F0EE4AAA2B721DE6002B32
S315080119E000F08280002384F8483023706370A37066
S315080119F0E37023716371A371E371B0EE69AA2B7168
S31508011A00CDE5002B73D0002384F849302372637225
S31508011A10A372E37223736373A373E373F0EE499AB4
S31508011A206B7183E5002B00F08B80002384F84A3024
S31508011A3023746374A374E37423756375A375E375DB
S31508011A40B0EE689AAB7137E5002B76D0002384F89F
S31508011A50503084F8403084F8413084F8423084F8B4
S31508011A60433084F8443084F8453084F8463084F8A5
S31508011A704730F0EE4BBA2B734BE6002B63D00023AD
S31508011A8084F84F3084F8383084F8393084F83A309D
S31508011A9084F83B3084F83C3084F83D3084F83E3095
S31508011AA084F83F30F0EE6B7AEB7285E6CBB1002312
S31508011AB084F84D3084F8283084F8293084F82A309F
S31508011AC084F82B3084F82C3084F82D3084F82E30A5
S31508011AD084F82F30B0EE6ABA6B72DCE5F0EE4AAAEA
S31508011AE09BE5B0EE6ABAD6E5B0EE69AA57E5F0EE1F
S31508011AF0499A1BE5D006002038C1002020C10020E4
S31508011B00F2EE087AB4EE679AF1EE10FA29D0F2EEFF
S31508011B100A7AF4EE679AF1EE10FA4DD194F9483043
S31508011B20207894F801C094F802E0E678257961797D
S31508011B30A27907EE103AE37984E6F0EE4BBAE8E5C6
S31508011B40B0EE689AB8E4F0EE6B7A35E65D4B199912
S31508011B500022C1E90023D1E6D6ED007AF8EE678ABC
S31508011B6074E494F94930207A94F809C094F80AE0A3
S31508011B70E67A257B617BA27B07EE103AE37B61E679
S31508011B80F8EE677A18E6D6ED007AB8EE679A93E426
S31508011B90D6ED007AF8EE67BABBE5D6ED007AB8EE6F
S31508011BA067BA78E5D6ED007AF8EE67AA35E5D6ED97
S31508011BB0007AF8EE679AB9E4F3EE057AB4EE67AA05
S31508011BC0F1EE10FA1BD0F3EE067AF4EE67AAF1EEFF
S31508011BD010FA29D194F94D3094F8280094F829C0BF
S31508011BE094F82AE094F82B6094F82C5094F82D1068
S31508011BF094F82E2007EE103A94F82F3022E694F93D
S31508011C004C3094F8200094F821C094F822E094F816
S31508011C10236094F8245094F8251094F8262007EEAA
S31508011C20103A94F827300DE6F3EE077AB4EE67BA60
S31508011C30F1EE10FA14D194F9503094F8400094F862
S31508011C4041C094F842E094F8436094F8445094F8FB
S31508011C50451094F8462007EE103A94F84730F1E516
S31508011C60F3EE087AF4EE67BAF1EE10FA14D194F9A4
S31508011C704F3094F8380094F839C094F83AE094F85B
S31508011C803B6094F83C5094F83D1094F83E2007EEDA
S31508011C90103A94F83F30D5E594F94E3094F830006F
S31508011CA094F831C094F832E094F8336094F83450DB
S31508011CB094F8351094F8362007EE103A94F8373030
S31508011CC0C0E500BF0000F03F2DE9F04F83B00C4698
S31508011CD00E9FDDF8348099460546324BD7E9000157
S31508011CE01646002210F048FC0123C7E9000189F8CD
S31508011CF0003023682C4A0C99013313602360D8F805
S31508011D00003007EE903AB8EE677AF7EE007AB4EE4D
S31508011D10677AF1EE10FA05D1DFF888904FF00008DE
S31508011D20C1E9008937780193384610F061FDDFF87B
S31508011D3084801E4A019B1360C8E900012B602F713C
S31508011D4096F807E085F805E096F801C085F806C01B
S31508011D5096F8028085F8078096F8039085F808902A
S31508011D6096F804A085F809A096F805B0104C85F8F0
S31508011D700AB0B079E8721946A071234608220120F3
S31508011D80277084F805B084F804A084F8039084F8D1
S31508011D90028084F801C084F807E003B0BDE8F04F7B
S31508011DA00AF0F0B80000F03F58BE002074BB0020CE
S31508011DB028070020B0BD00204B780BB901234B70D2
S31508011DC00B7833B100230B700370194603200BF00F
S31508011DD0E9BF01230B700370194603200BF0E2BF1C
S31508011DE02DE9F04F85B00E9D109C002800F0318139
S31508011DF0217809B9012121701F46129B18881646B8
S31508011E0010F006FD8046894602460B46304639469D
S31508011E1010F0CCFF08B100232B7042464B463046E2
S31508011E20394610F0CDFF002800F025811799AF4BF0
S31508011E300022D1E9000110F0CDFFA378002800F0B7
S31508011E402E810BB90123A370A94B3046D3E9002390
S31508011E50394610F091FB129B80461888894610F086
S31508011E60C7FC0022A34B82468B4610F085FB4246EF
S31508011E704B4610F07FFB00220023CDE9000110F04C
S31508011E8095FF002800F01581199B93F800A0179B70
S31508011E904FEACA1A5FFA8AFA85F805A0D3E900015A
S31508011EA010F0F4FF00015FFA80FB119B85F806B07C
S31508011EB0D3E9000110F0EAFF139B139A50445844E2
S31508011EC018702B7853702B7893702B78D3702B78E6
S31508011ED013712B7853712B7893712B78D3710F9BD0
S31508011EE0159A5B681360129B188810F081FC4246AC
S31508011EF04B4610F03FFB002200238046894610F02E
S31508011F0055FF002840F0D2807B4BD3E900AB002275
S31508011F1000235046594610F049FF002840F0E28058
S31508011F2052465B4640464946FEF7EEF80023002234
S31508011F3010F03CFF4FF0010300B90346DBB2AB706A
S31508011F4018996A4B0022D1E9000110F043FF0028D5
S31508011F5000F09C8063780BB901236370674B3046A8
S31508011F60D3E90023394610F007FB129B0646188869
S31508011F700F4610F03DFC00225E4B8046894610F064
S31508011F80FBFA32463B4610F0F5FA00220023824658
S31508011F908B4610F00BFF002800F0B480199B1878C7
S31508011FA0189BC0015FFA80F885F80380D3E9000120
S31508011FB010F06CFF0001C4B2119B2C71D3E900012A
S31508011FC010F064FF149B149A2044404418702B782F
S31508011FD053702B7893702B78D3702B7813712B78D9
S31508011FE053712B7893712B78D3710F9B169A1B68B3
S31508011FF01360129B188810F0FBFB32463B4610F023
S31508012000B9FA002200238046894610F0CFFE00283F
S3150801201040F092803A4BD3E900670022002330460C
S31508012020394610F0C3FE002840F0838032463B460D
S3150801203040464946FEF768F80023002210F0B6FE2E
S315080120404FF0010300B90346DBB26B7005B0BDE87A
S31508012050F08F2378002BF9D0A3780BB1A870A07064
S3150801206063780BB1002363700023AB706B70237028
S3150801207005B0BDE8F08FA378A3B942464B46304672
S31508012080394610F09DFE00287FF45AAF6378002B7D
S31508012090DCD000236B70637005B0BDE8F08F002BB0
S315080120A03FF44EAF0023AB70A370E6E70123AB7094
S315080120B046E7114B93ED007B0022002351EC170BE9
S315080120C08DED027B10F072FE00284AD042464B463F
S315080120D05046594610F04EFA0022002310F066FECB
S315080120E00028E3D10023AB702AE700BF00001C409B
S315080120F0600000200000F03F480000206800002032
S3150801210050000020204B93ED007B0022002351EC68
S31508012110170B8DED007B10F049FE80B132463B4628
S315080121204046494610F026FA0022002310F03EFEEA
S3150801213010B900236B7089E701236B7086E7DDE927
S31508012140002350465946FDF7DFFF0022002310F011
S315080121502DFE00287FF422AF129B188810F048FB49
S315080121604BE7DDE90223DDE90001FDF7CDFF00229A
S31508012170002310F01BFE00287FF486AE129B1888F8
S3150801218010F036FBB3E600BF500000200B791BB1F7
S315080121900023C37103720B714B7843B1CB7813B12A
S315080121A000238370CB708B7843B900234B700023CF
S315080121B08370C371437003720B70704700238B7071
S315080121C0F3E700BF2DE9F04F9BB016462F9A1392FD
S315080121D0309A1492319A1592329A16921F46339A68
S315080121E0299B10930B922B9B349A0A930C922C9B46
S315080121F0359A11930D922D9B369A129326AC249DEE
S31508012200DDF89480DDF8A8B02E9B0E9294E81006AE
S31508012210379A0F92389A1792002840D022780AB92D
S3150801222001222270CDE91867D3E900670022304BF5
S315080122303046394610F0BAFD4FF0010E002833D06A
S315080122403046394600222A4B5FFA8EF610F0AEFD6B
S31508012250002832D023791BB10023EB712B7223712D
S315080122600F9B2F930E9B2E930D9B2D930C9B2C93BB
S315080122700B9B2B930A9B2A93DDE9182301343046DD
S315080122802694CDF8A4B0CDF8A0A0CDF89C90CDF8B1
S31508012290948024951BB0BDE8F04FFFF7A1BD2378C4
S315080122A023B91BB0BDE8F08F8646C9E72146284603
S315080122B01BB0BDE8F04FFFF769BF179A0992169A46
S315080122C00892159A0792149A0692139A0592129AE7
S315080122D00492119A0392231D109A02928DE808041A
S315080122E0EA1D08F10803DDE91801FDF7A7FEB7E7BE
S315080122F00000F03F2DE9F04F85B00E9D109C002897
S3150801230000F03481217809B9012121701F46129BF9
S315080123101888164610F07CFA8046894602460B460E
S315080123203046394610F042FD20B100232B70159B2B
S315080123301B786B7042464B463046394610F040FDD5
S31508012340002800F025811899AE4B0022D1E9000139
S3150801235010F040FDA378002800F02E810BB9012367
S31508012360A370A94B3046D3E90023394610F004F986
S31508012370129B80461888894610F03AFA0022A34B28
S3150801238082468B4610F0F8F842464B4610F0F2F8B2
S3150801239000220023CDE9000110F008FD002800F015
S315080123A015811A9B93F800A0189B4FEACA1A5FFA7F
S315080123B08AFA85F806A0D3E9000110F067FD000145
S315080123C05FFA80FB119B85F807B0D3E9000110F08D
S315080123D05DFD139B139A5044584418706B785370DB
S315080123E02B7893702B78D3702B7813712B785371C4
S315080123F02B7893712B78D3710F9B169A5B681360B0
S31508012400129B188810F0F4F942464B4610F0B2F8C0
S31508012410002200238046894610F0C8FC002840F0B7
S31508012420D2807B4BD3E900AB0022002350465946A4
S3150801243010F0BCFC002840F0E28052465B4640465C
S315080124404946FDF761FE0023002210F0AFFC4FF06C
S31508012450010300B90346DBB2EB701999694B0022F7
S31508012460D1E9000110F0B6FC002800F09C806378E1
S315080124700BB901236370674B3046D3E9002339460C
S3150801248010F07AF8129B064618880F4610F0B0F934
S3150801249000225E4B8046894610F06EF832463B466E
S315080124A010F068F80022002382468B4610F07EFC65
S315080124B0002800F0B3801A9B1878199BC0015FFAAF
S315080124C080F885F80480D3E9000110F0DFFC0001EB
S315080124D0C4B2119B6C71D3E9000110F0D7FC149BAF
S315080124E0149A2044404418706B7853702B78937073
S315080124F02B78D3702B7813712B7853712B789371B2
S315080125002B78D3710F9B179A1B681360129B188837
S3150801251010F06EF932463B4610F02CF800220023E3
S315080125208046894610F042FC002840F091803A4BDB
S31508012530D3E90067002200233046394610F036FCFD
S31508012540002840F0828032463B4640464946FDF720
S31508012550DBFD0023002210F029FC4FF0010300B92E
S315080125600346DBB2AB7005B0BDE8F08F2378002BCC
S31508012570F9D0A3780BB1E870A07063780BB100238A
S3150801258063700023EB70AB70237005B0BDE8F08F64
S31508012590A378A3B942464B463046394610F010FC9B
S315080125A000287FF45AAF6378002BDCD00023AB7088
S315080125B0637005B0BDE8F08F002B3FF44EAF0023E2
S315080125C0EB70A370E6E70123EB7046E7104B93ED3A
S315080125D0007B0022002351EC170B8DED027B10F0D6
S315080125E0E5FB002849D042464B46504659460FF06E
S315080125F0C1FF0022002310F0D9FB0028E3D10023F4
S31508012600EB702AE700001C40600000200000F03F44
S31508012610480000206800002050000020204B93ED60
S31508012620007B0022002351EC170B8DED007B10F087
S31508012630BDFB80B132463B46404649460FF09AFFFC
S315080126400022002310F0B2FB10B90023AB708AE711
S315080126500123AB7087E7DDE9002350465946FDF7AC
S3150801266053FD0022002310F0A1FB00287FF423AFBD
S31508012670129B188810F0BCF84CE7DDE90223DDE966
S315080126800001FDF741FD0022002310F08FFB002811
S315080126907FF487AE129B188810F0AAF8B4E600BF3B
S315080126A050000020F0B585B00EAC70CC002830D0B3
S315080126B0287808B9012028701846174600295FD1DD
S315080126C0AB78002B4DD1002F4FD16B78002B45D11C
S315080126D0A37D002B2DD0637D3370A37B7370E37BC1
S315080126E0B370237CF370637C3371A37C7371E37CD1
S315080126F0B371237DF371A37D002B2DD1237A00338A
S3150801270018BF012313990B70119B01221A7005B08A
S31508012710F0BD2B78002BFAD0AB780BB1A075A87059
S315080127206B7813B1002323726B7000232B7005B0ED
S31508012730F0BDE3793370237873706378B370A37847
S31508012740F370E3783371237973716379B371A3797C
S31508012750F371A37D002BD1D00123D3E727726F70C4
S31508012760B6E7A175A970002FAFD0129B0293013568
S3150801277001950094DDE90C230A98FDF76BFEA7E79E
S3150801278004F10E02129B0293A91C00920191DDE944
S315080127900C23FDF70DFE96E738B521F000430D46EB
S315080127A000221946154B044610F00AFBC8B100224F
S315080127B0134B2046294610F017FBA8B90022114BE6
S315080127C02046294610F01AFB48B9204629460C4BE3
S315080127D000220FF0CFFEBDE838400FF025BC0024DB
S315080127E000252046294638BD20462946044B0022A5
S315080127F00FF0C2FEBDE838400FF09EBC0000304322
S315080128000000E03F0000E0BF38B505460021022080
S3150801281001240BF095FA85F8C940FEF7EDF8FEF7A5
S315080128209FFD002108460BF08BFA204600210BF08C
S3150801283087FA002110200BF083FA002104200BF0FF
S315080128407FFA002112200BF07BFA002113200BF0EE
S3150801285077FA00210E200BF073FA00210F200BF0F6
S315080128606FFA00210320BDE838400BF069BA00BFB2
S315080128702DE9F04F2DED068B924692F80721ADF51D
S315080128801F7D83460D461C4612B901238AF8073176
S315080128909AF8C830002B00F0538500238AF8C8300F
S315080128A019468BF8323002200BF07CFA9AF8C930B7
S315080128B0002B00F081809AF8033113B901238AF8B5
S315080128C00331B69B1B78002B40F08586B79B93F89E
S315080128D0008018F1000818BF4FF00108D4E9006715
S315080128E00022314B3046394610F060FA48B90022C9
S315080128F04FF080433046394610F058FA002801F067
S31508012900D0809AF8DE30002B01F0DD809AF8043188
S31508012910002B01F0E180B8F1000F41F096829AF898
S31508012920DE309BB1204BAF990022C1E90023AE9A54
S31508012930B5F8A031138095F8A5318AF8C2309AF80E
S31508012940DE301BB1184B0022CAE90623B69B16498D
S3150801295000261E70B79B4FF000084FF000090020B3
S315080129601E70CAE92289CBE900013346DAE92267F2
S315080129708AF8C93030460D4B3946002210F034FA30
S315080129804FF0010300B903468AF8DE300022074BEF
S315080129903046394610F028FA002803F01783044B0D
S315080129A00022CAE9222314E00000F03F00408740D4
S315080129B00000F0BF0000BA439AF80321002A00F08C
S315080129C0CD849AF80421002A41F0378200238AF837
S315080129D00331AE9B1FED097A1B8807EE903AF8EE94
S315080129E0E77AF4EE477AF1EE10FA14D1AE9A00239B
S315080129F013809AF8C26030460FF00AFFD5E96623BC
S31508012A0010F0DEF9002801F07A810136474BF6B25B
S31508012A101E708AF8C2609AF8C930002B00F0AC849F
S31508012A209AF8DF30002B00F0AB829AF8E930002BD8
S31508012A3000F000829AF8F630002B00F008819AF827
S31508012A40FA30C3B19AF8FB3093B19AF8353123B10C
S31508012A5000238BF86A318AF835319AF8343123B173
S31508012A6000238BF85C318AF8343100238AF8FB306D
S31508012A7000238AF8FA309AF8F930C3B19AF8313155
S31508012A8093B19AF8333123B100238BF84E318AF882
S31508012A9033319AF8323123B100238BF840318AF861
S31508012AA0323100238AF8313100238AF8F9309AF84D
S31508012AB0F830C3B19AF82E3193B19AF8303123B16F
S31508012AC000238BF832318AF830319AF82F3123B145
S31508012AD000238BF824318AF82F3100238AF82E3106
S31508012AE000238AF8F8309AF8F730C3B19AF82B31EF
S31508012AF093B19AF82D3123B100238BF816318AF850
S31508012B002D319AF82C3123B100238BF808318AF834
S31508012B102C3100238AF82B3100238AF8F7309AF8EA
S31508012B204231002B44F06B8402E000BFCABD00208D
S31508012B309AF8FE3043B39AF8413133B100238BF842
S31508012B408C318BF88D318AF841319AF83E3183B14F
S31508012B509AF8403123B100238BF887318AF840313E
S31508012B609AF83F3113B100238AF83F3100238AF8D6
S31508012B703E3100238BF887318BF88C318BF88631FF
S31508012B808BF88D318AF8FE309AF8FD3043B39AF8FE
S31508012B903D3133B100238BF882318BF883318AF8C2
S31508012BA03D319AF83A3183B19AF83C3123B1002381
S31508012BB08BF87D318AF83C319AF83B3113B1002301
S31508012BC08AF83B3100238AF83A3100238BF87D31A4
S31508012BD08BF882318BF87C318BF883318AF8FD309A
S31508012BE09AF8FC3043B39AF8393133B100238BF89C
S31508012BF078318BF879318AF839319AF8363183B1D7
S31508012C009AF8383123B100238BF873318AF83831B1
S31508012C109AF8373113B100238AF8373100238AF835
S31508012C20363100238BF873318BF878318BF8723192
S31508012C308BF879318AF8FC3000238BF828308BF829
S31508012C402B308BF829308BF82A308AF8F6309AF827
S31508012C50EA30002B00F0E3809AF8EF30C3B19AF816
S31508012C60F03093B19AF8203123B100238BF8DE3086
S31508012C708AF820319AF81F3123B100238BF8D03016
S31508012C808AF81F3100238AF8F03000238AF8EF30DA
S31508012C909AF8ED30C3B19AF8EE3093B19AF81E312D
S31508012CA023B100238BF8BC308AF81E319AF81D31FE
S31508012CB023B100238BF8AE308AF81D3100238AF838
S31508012CC0EE3000238AF8ED309AF8EB30C3B19AF862
S31508012CD0EC3093B19AF81C3123B100238BF8A0305C
S31508012CE08AF81C319AF81B3123B100238BF89230EC
S31508012CF08AF81B3100238AF8EC3000238AF8EB3076
S31508012D009AF8F43043B39AF82A3133B100238BF891
S31508012D10FE308BF8FF308AF82A319AF8F53083B1FC
S31508012D209AF8293123B100238BF8FB308AF8293127
S31508012D309AF8283113B100238AF8283100238AF832
S31508012D40F53000238BF8FB308BF8FE308BF8F83022
S31508012D508BF8FF308AF8F4309AF8F33043B39AF8CF
S31508012D60273133B100238BF8F3308BF8F4308AF826
S31508012D7027319AF8243183B19AF8263123B10023F1
S31508012D808BF8EE308AF826319AF8253113B10023EB
S31508012D908AF8253100238AF8243100238BF8EE308E
S31508012DA08BF8F3308BF8ED308BF8F4308AF8F33082
S31508012DB09AF8F13043B39AF8233133B100238BF8EB
S31508012DC0EA308BF8EB308AF823319AF8F23083B17E
S31508012DD09AF8223123B100238BF8E7308AF8223199
S31508012DE09AF8213113B100238AF8213100238AF890
S31508012DF0F23000238BF8E7308BF8EA308BF8E430B1
S31508012E008BF8EB308AF8F13000238BF824308BF8F5
S31508012E1025308BF826308BF827308AF8EA300023DC
S31508012E208BF820308BF821308BF822308BF8233041
S31508012E308AF8E9309AF8E030002B00F096809AF883
S31508012E40E6305BB39AF8E730C3B19AF8E83093B144
S31508012E509AF8153123B100238BF87B308AF815319E
S31508012E609AF8143123B100238BF86D308AF814319E
S31508012E7000238AF8E83000238AF8E7309AF81631F1
S31508012E80002B44F0B48200238BF883308BF8823010
S31508012E908BF888308BF889308AF8E6309AF8E13071
S31508012EA0002B57D09AF8E230C3B19AF8E33093B1C0
S31508012EB09AF80B3123B100238BF84B308AF80B3182
S31508012EC09AF80A3123B100238BF83D308AF80A3182
S31508012ED000238AF8E33000238AF8E2309AF8E430CE
S31508012EE043B39AF8133133B100238BF863308BF867
S31508012EF064308AF813319AF8E53083B19AF81231B9
S31508012F0023B100238BF860308AF812319AF811310F
S31508012F1013B100238AF8113100238AF8E53000231A
S31508012F208BF860308BF863308BF85D308BF8643042
S31508012F308AF8E4309AF80C31002B44F070820023A9
S31508012F408BF81C308BF81F308BF81E308BF81D3030
S31508012F508AF8E13000238BF818308BF819308BF892
S31508012F601A308BF81B308AF8E03000238BF81430BE
S31508012F708BF815308BF816308BF817308AF8DF3056
S31508012F809BF81630002B40F079859AF8C96000360F
S31508012F9018BF01269AF8B830DF0600F15A8543F0C2
S31508012FA010038AF8B8309BF81430002B40F0568588
S31508012FB09AF8B8301D0700F131859AF8B83043F010
S31508012FC008038AF8B830002E40F02B85DBB29AF850
S31508012FD0C920002A40F0B8849BF81720002A40F03F
S31508012FE0B3845A0705D49AF8B83043F004038AF82B
S31508012FF0B8309C075CBF43F002038AF8B8309BF8E7
S315080130001530002B40F03D85BC9B1B78002B00F04A
S31508013010C1849AF8093113B901238AF809319AF852
S31508013020CE30002B00F0768600238AF8CE30BC9B82
S31508013030002018709AF8CE108BF83410002940F049
S31508013040648608460AF0AEFE9AF8CA30002B00F0EC
S31508013050AD849AF8083113B901238AF808319AF828
S31508013060CF30002B00F0408500238AF8CF308AF84C
S31508013070CA3019468BF8333001200AF093FE9AF8C4
S31508013080CB30002B00F09E849AF8053113B9012341
S315080130908AF805319AF8D130002B00F04A860023C8
S315080130A08AF8D1308AF8CB3019468BF8303010209F
S315080130B00AF078FE9AF8063113B901238AF806311F
S315080130C09AF8D030002B00F09E8400238AF8D0307D
S315080130D019468BF8313004200AF064FEBD990023A5
S315080130E00022D1E900010FF061FE9AF802310028A9
S315080130F040F0818413B901238AF802319AF8C53060
S31508013100002B00F0118600238AF8C5308BF82F3082
S31508013110BD9B00210020C3E900019BF82F1001B1D6
S31508013120012112200AF03EFEBE9900230022D1E9B0
S3150801313000010FF03BFE9AF80131002840F0538454
S3150801314013B901238AF801319AF8C430002B00F02B
S31508013150E68500238AF8C4308BF82E30BE9B002101
S315080131600020C3E900019BF82E1001B101211320AB
S315080131700AF018FEBF9900230022D1E900010FF0D9
S3150801318015FE9AF80031002840F0258413B9012369
S315080131908AF800319AF8C730002B00F0D78500234A
S315080131A08AF8C7308BF82D30BF9B00210020C3E970
S315080131B000019BF82D1001B101210E200AF0F2FD44
S315080131C0C09900230022D1E900010FF0EFFD9AF81A
S315080131D0FF30002840F01A8413B901238AF8FF301A
S315080131E09AF8C630002B00F0C98500238AF8C63044
S315080131F08BF82C30C09B00210020C3E900019BF805
S315080132002C1001B101210F200AF0CCFD9AF8D23019
S31508013210002B00F085839AF8C23007EE903AF8EE53
S31508013220E77AF5EE407AF1EE10FA40F09485142328
S315080132300DF59C78A0224449CAF8A430CAF8A830EA
S3150801324040460FF049FEA022404976A80FF044FEF9
S31508013250AE9BB3F80090D8E9004548460FF0D8FA76
S3150801326022462B46CDE916010FF0C8FD002804F0C9
S315080132704181CDF860B0CDF868A0CB46C246DDE9FC
S315080132801689334F00260022314B304639460FF056
S3150801329073F90F4606460FF0D1FD0AEBC00050E957
S315080132A0024542464B46204629460FF089FD00282D
S315080132B0E9D10022264B304639460FF05BF90FF06B
S315080132C0BDFDD946D046DDF860B0DDF868A0013805
S315080132D0C6009EAB334453E92801002200230FF0B0
S315080132E065FD0746002840F09B8148460FF080FAA5
S315080132F002460B4620462946CDE916230FF03AF930
S31508013300FFF74AFA0022134B04460D460FF058FD03
S31508013310002800F0538500220023204629460FF095
S3150801332063FD002804F00881204629460FF0AEFD0A
S3150801333080B2431E984286F0CF8000220023C3E262
S315080133400123FFF7ABBA00BF00C0000810C100088F
S315080133500000F03F0000F0400000BA43AE9B1FEDAD
S31508013360027A1B8807EE903AF8EEE77AF4EE477A86
S31508013370F1EE10FA3FF43AAB9AF8DF3013B90123AC
S315080133808AF8DF30984BDFF88CC2DFF88CE2DFF879
S315080133908C82964E964F93ED007B8DED1A7B51EC00
S315080133A0170B9CED007B8DED167B9EED007B0022B5
S315080133B0904B8DED187B0FF0F9FCD8E900890022B6
S315080133C08C4B002800F09C83404649460FF0EEFCE2
S315080133D00022884B002800F01B85DDE916010FF055
S315080133E0E5FC002800F0AC859FED7D7B8DED187B13
S315080133F09DED167B80497F4B81ED007B9DED187B0A
S315080134007E49002281ED007BC7E90089C6E90023D0
S31508013410D4E90067304639460FF0C8FC002800F0A9
S31508013420C4839AF8E93013B901238AF8E9309AF87E
S31508013430C23009EE103AB8EEC99A9AF8F630B5EEE6
S31508013440409AF1EE10FA43F0B58213B901238AF8CE
S31508013450F630AE9BDFED6A8AB3F8009007EE909AD4
S31508013460B8EEE78AB4EEE88AF1EE10FAC0F2A08562
S3150801347048460FF0CDF9D5E944230FF0A1FC002801
S3150801348000F09685B4EE688AF1EE10FA40F0908560
S31508013490D4E900670022574B304639460FF086FCBF
S315080134A0002844F078829AF8D930002B04F0078571
S315080134B018903046394600224FF080430FF076FCCB
S315080134C04FF00008002805F0D5879AF8D830002B68
S315080134D044F07A82474BDAE9180100220FF04CF8DA
S315080134E0CAE9180101231A939AF8CC70002F44F0FF
S315080134F00585AF9B93ED007B0022424B51EC170BE0
S315080135008DED167B0FF052FC002805F0868200220D
S315080135103C4BD4E900010FF049FC002804F00B8567
S315080135203E461C973B46189A002A44F0F684B8F1A1
S31508013530000F44F0EF841A9A002A44F0EB84002B1A
S3150801354044F0E884002E44F0E5849DF870302E4A54
S315080135508AF8CA30DAE91C01C2E90001CAE91C0184
S31508013560B8F1000F04F0CF84224B0022DAE91E01DC
S315080135700FF002F8254BC3E900011A9BCAE91E019F
S31508013580002B04F00D841B4B0022DAE920010EF012
S31508013590F3FF1F4BC3E90001CAE920017FB9AF99BF
S315080135A0D4E90023D1E900010FF000FC38B9DAE9C2
S315080135B01A0100220F4B0EF0DFFFCAE91A01BC9A65
S315080135C001231370AE9BB3F8008007EE908AF8EEDC
S315080135D0E78A00F0F0BC4FF00108FFF77FB900BF9A
S315080135E000000000000000008000002000C100204B
S315080135F040C100200000F03FD8BD0020F0C00020E7
S315080136000000B24300000840A8BD002070BE00209B
S3150801361000BE0020300000201000002078000020A5
S3150801362048460FF0E5F808EB0603D3E90023CDE990
S3150801363016010EF09FFFFFF7AFF80022D04B0446A4
S315080136400D460FF0BDFB002800F0B08300220023D1
S31508013650204629460FF0C8FB002803F05B87294658
S3150801366020460FF013FC80B218900FF0C1F880467F
S315080136708946C44BD3E90067404632463B4649462C
S315080136800EF078FFFFF788F80022BD4B04460D4679
S315080136900FF096FB002803F07581002200232046CF
S315080136A029460FF0A1FB002803F03F87204629464B
S315080136B00FF0ECFB80B20FF09BF8B34BD3E9004552
S315080136C022462B460FF034FAFFF766F80022AC4B78
S315080136D0CDE91A010FF074FB002803F04E81002290
S315080136E00023DDE91A010FF07FFB002803F0198793
S315080136F0DDE91A010FF0CAFB80B20130B0F5803F4F
S3150801370003F03B810FF074F802460B462046294622
S315080137100FF0E4F8FFF740F80022994B04460D46EE
S315080137200FF04EFB002803F02381002200232046D8
S3150801373029460FF059FB002803F01587294620462C
S315080137400FF0A4FB80B20FF053F802460B46304641
S3150801375039460EF011FFFFF71FF80022884B044681
S315080137600D460FF02DFB002803F0FD8000220023F3
S31508013770204629460FF038FB002803F0F18620463B
S3150801378029460FF083FB83B21A93804BD3E9004590
S31508013790404622462B4649460EF0ECFEFEF7FCFF54
S315080137A00022774B06460F460FF00AFB002803F066
S315080137B0D58000220023304639460FF015FB002834
S315080137C003F0CA86304639460FF060FB80B20FF027
S315080137D00FF86F4BD3E9006732463B460FF0A8F95D
S315080137E0FEF7DAFF0022664B804689460FF0E8FAB3
S315080137F0002803F0AE8000220023404649460FF018
S31508013800F3FA002803F0A486404649460FF03EFB2A
S3150801381080B20130B0F5803F03F09B800EF0E8FFDF
S3150801382002460B46304639460FF058F8FEF7B4FF04
S315080138300022534B06460F460FF0C2FA002803F042
S31508013840838000220023304639460FF0CDFA00283E
S3150801385003F07A86394630460FF018FB80B20EF02F
S31508013860C7FF02460B46204629460EF085FEFEF79F
S3150801387093FF0022424B04460D460FF0A1FA002899
S3150801388003F05E8000220023204629460FF0ACFA99
S31508013890002803F05686204629460FF0F7FA80B22B
S315080138A01A9B834228BF03461A46189BD31A93428A
S315080138B003F28F81981E8342C3F08B8180B207463B
S315080138C00EF0A6FF02460B46DAE9084520462946C8
S315080138D00FF08AFA002802F0838338460EF088FF33
S315080138E006460F4622462B46304639460EF042FE1C
S315080138F00023002204460D460FF080FA4FF001031B
S3150801390000B903468AF8D2303046DDE9162339462E
S315080139100EF032FE0FF0BAFAAE9B1880CAE90845D6
S315080139209AF8B830D8075CBF43F001038AF8B83073
S315080139300AF247110BF29910FEF73EFA0DF51F7DB3
S31508013940BDEC068BBDE8F08F590742F12284BF9B77
S315080139500593BC9B0493BB9B0393B99B0293B79BAB
S315080139600193B39B0093B19BAE9A0AF5A8710BF527
S31508013970D470FDF71DFD9AF8B830FFF73ABB00BFC2
S315080139800000F04060000020480000206800002088
S31508013990500000209AF80921002A3FF455AB8AF80D
S315080139A009319AF8CA30002B7FF453AB9AF80821EB
S315080139B0002A3FF464AB8AF808319AF8CB30002B19
S315080139C07FF462AB9AF80521002A3FF473AB8AF8B3
S315080139D00531FFF76FBB002B3FF4F2AB00238AF8E2
S315080139E00031FFF7EDBB002B3FF4C4AB00238AF887
S315080139F00131FFF7BFBB002B3FF496AB00238AF8D2
S31508013A000231FFF791BB0123FFF760BB002B3FF49F
S31508013A10FDAB00238AF8FF30FFF7F8BB002E3FF411
S31508013A20D6AABD9B0593BC9B0493BA9B0393B89BEB
S31508013A300293B69B0193B29B0093AE9AB09B0AF58B
S31508013A40B0710BF2F910FCF7FFFF9AF8B830FFF7DF
S31508013A50BEBA9BF81420002A3FF4ACAAC39B029372
S31508013A60C19B0193BE9B0093B49ABC9B0AF5B8719E
S31508013A700BF51370FCF748FFFFF79ABA0126FFF713
S31508013A8089BAC49B0293C29B0193C09B0093B59AC2
S31508013A90BC9B0AF5A6710BF5CE70FEF715F9FFF773
S31508013AA0B3BA0022CE4B304639460FF07FF90028CB
S31508013AB07EF427AF304639460022CA4B0FF076F915
S31508013AC000287EF41EAFB8F1000F00F05C819AF869
S31508013AD00431002B40F0B98101238AF80431B8F189
S31508013AE0000F3EF41CAFB0E101218AF8CA308AF80A
S31508013AF0CF1008468BF833100AF054F9FFF7BFBA0E
S31508013B00404649460FF052F988B10022B64BDDE925
S31508013B1016010FF04BF950B10022B34BDDE918013C
S31508013B200FF044F918B19FEDA87B8DED1A7B9DED39
S31508013B301A7B86ED007B9DED167BAC4B83ED007BF6
S31508013B409DED187BAA4BC7E9008983ED007BD4E973
S31508013B5000670022A44B304639460FF027F920B3F7
S31508013B60DDE91A01002200230FF020F900283FF4AD
S31508013B7058AC9AF8E930002B42F01F839AF8E020F6
S31508013B80002A43F098839BF818209BF819109BF894
S31508013B901A308BF814209BF81B208BF815108BF81C
S31508013BA016308BF81720FFF7EDB900224FF0804346
S31508013BB0304639460FF0FAF8002800F0A58140464C
S31508013BC04946002200230FF0F1F800283FF429ACFA
S31508013BD09AF8E930002B42F0F0829946854B00228B
S31508013BE0D4E900010FF0E2F89AF8E030002802F073
S31508013BF0218213B901238AF8E0309AF8C23008EE17
S31508013C00103AB8EEC88A9AF8E630B5EE408AF1EE6F
S31508013C1010FA42F05E8613B901238AF8E630AE9BA4
S31508013C20DFED758AB3F8008007EE908AB8EEE79A59
S31508013C30B4EEE89AF1EE10FAC0F2828540460EF02B
S31508013C40E7FDD5E91A230FF0BBF8002800F07885BF
S31508013C50B4EE689AF1EE10FA43F089849AF8CC30FA
S31508013C60002B0CBF012300238AF8CA3004F0AF8069
S31508013C70AE9B1E8807EE906AF8EEE78ADFED5F7A5B
S31508013C805F4A9AF8D5301370F4EE678AF1EE10FAA6
S31508013C9040F05985002B03F0018295F8A9318AF87D
S31508013CA0D530B69A95F8A9311370B79A95F8A9310E
S31508013CB0137095F8A9318AF8D23095F8AA118AF8BD
S31508013CC0C910AF9900220023CAE90623C1E90023D6
S31508013CD0BA9A95F8A3311370BB9A95F8A331137064
S31508013CE0B89A01231360B99A1360BC9A1370AE9BF4
S31508013CF01E8807EE906AF8EEE78A00F024BD414B6C
S31508013D0095F8A6611E70FEF784BE01210AF04AF8ED
S31508013D10FFF79AB901238AF8CE30FFF788B901234C
S31508013D208AF8C430FFF718BA01238AF8C530FFF7B5
S31508013D30EDB901228AF8CB308AF8D12011468BF8E1
S31508013D40302010200AF02EF8FFF7B4B901238AF8BB
S31508013D50C730FFF727BA0E230DF59C78CAF8A430A9
S31508013D60CAF8A8304046702227490FF0B5F87022E4
S31508013D70264976A80FF0B0F8FFF76ABA01238AF840
S31508013D80C630FFF735BA9AF804310022002B40F005
S31508013D90EA800023DBE900014FF001060FF006F87F
S31508013DA0002800F0EE80F3B2FEF7E0BD4FF6FF7390
S31508013DB018930FF21C09D9E900895AE406A3D3E935
S31508013DC000234FF6FE777FE50000000000000000A3
S31508013DD000000000E0FFEF4000000000C0FFEF40D8
S31508013DE000000840000010400000F03FD8BD002048
S31508013DF0F0C00020000014400000B0420000B442A8
S31508013E000ABE0020CABD0020A0C00008B0C1000833
S31508013E10DDE916010EF0CAFF00283FF4E9AA0022DF
S31508013E205B4BDDE918010EF0C1FF00287FD04FF08A
S31508013E3000084FF00009FFF7DBBA00200021CBE9A3
S31508013E4000018AF80431FEF7C1BD01238AF8CC3096
S31508013E50B69B1B7807EE903AF8EEE77AB7EE007A4A
S31508013E60F4EE477AF1EE10FA42F0BE86B09B494964
S31508013E701E78494F7300DBB25A098BF89831104600
S31508013E800A700EF0B5FCD7E900230EF027FD0022D3
S31508013E9000230EF071FB0022404B0EF06DFB0EF075
S31508013EA0F5FF3F4BAE9982B21A803301DBB2F609B0
S31508013EB00A8018093B4A8AF8C2608BF897313A4B4F
S31508013EC010701E700EF094FCAF9BC3E900019AF8BE
S31508013ED0DE30002B02F082862D4BAF990022C1E914
S31508013EE00023AE9AB5F8A031138095F8A5318AF862
