S02300002E2E2F48414E636F6465725F453430375F5454415F47726F7570322E737265636D
S31508004000FCD60020358002080000000000000000F1
S315080040100000000000000000000000000000000092
S31508004020000000000000000000000000254E020805
S315080040300000000000000000C14E0208114F0208EF
S315080040400000000000000000000000000000000062
S315080040500000000000000000000000000000000052
S3150800406000000000015C02080000000000000000DB
S315080040700000000000000000000000000000000032
S315080040800000000000000000000000004D42020889
S31508004090054202082942020871420208000000008F
S315080040A0ED5B0208D95B0208C55B0208B55B02082E
S315080040B0A15B02088D5B0208795B0208000000001C
S315080040C000000000000000000000000000000000E2
S315080040D000000000056602081D660208356602082B
S315080040E00000000000000000FD6602080000000055
S315080040F0655B0208515B0208415B0208000000008C
S3150800410000000000656602080000000000000000CC
S315080041100000000000000000000000000000000091
S3150800412000000000000000000000000069660208A8
S3150800413000000000315C020800000000DD420208B1
S3150800414095420208B9420208014302082D6702088F
S315080041500000000000000000000000004D66020894
S315080041600000000000000000000000000000000041
S315080041700000000000000000000000000000000031
S311080041800000000000000000EE11AA5527
S3150800C0000000000000000000000000000000494099
S3150800C010000000000080514000000000000052406F
S3150800C0200000000000805640000000000000574055
S3150800C0300000000000805B40000000000000644033
S3150800C0400000000000806640000000000000694013
S3150800C0500000000000406F400000000000806F40B4
S3150800C0600000000000E07040000000000020724060
S3150800C0700000000000407540000000000080764087
S3150800C0800000000000C077400000000000E07A4091
S3150800C0900000000000207C400000000000607D4099
S3150800C0A00000000000A07E400000000000E07F4085
S3150800C0B00000000000908040000000000000000022
S3150800C0C000000000000049400000000000805140C8
S3150800C0D000000000000052400000000000805640AA
S3150800C0E000000000008061400000000000C06140C0
S3150800C0F000000000000064400000000000406A40A4
S3150800C1000000000000806A400000000000C06C408B
S3150800C1100000000000406F400000000000E0704092
S3150800C1200000000000007440000000000020744079
S3150800C13000000000004075400000000000807640C6
S3150800C1400000000000A079400000000000E07A40EE
S3150800C1500000000000F07A400000000000107B405C
S3150800C1600000000000207C400000000000407F40E6
S3150800C1700000000000607F40000000000040804092
S3150800C1800000000000D081400000000000E081406F
S3150800C190000000000070824000000000008082401D
S3150800C1A00000000000000000000000000000F03F52
S3150800C1B0000000000000F03F000000000000F03F13
S3150800C1C0000000000000F03F000000000000F03F03
S3150800C1D00000000000000000000000000000F03F22
S3150800C1E0000000000000F03F000000000000000012
S3150800C1F0000000000000F03F000000000000F03FD3
S3150800C200000000000000F03F0000000000000000F1
S3150800C210000000000000F03F000000000000F03FB2
S3150800C2200000000000000000000000000000F03FD1
S3150800C230000000000000F03F000000000000F03F92
S3150800C240000000000000F03F000000000000F03F82
S3150800C250000000000000F03F0000000000000000A1
S3150800C260000000000000F03F000000000000F03F62
S3150800C270000000000000F03F000000000000000081
S3150800C280000000000000F03F000000000000F03F42
S3150800C2900000000000000000000000000000F03F61
S3150800C2A0000000000000F03F000000000000F03F22
S3150800C2B0000000000000F03F000000000000000041
S3150800C2C0000000000000F03F000000000000F03F02
S3150800C2D0000000000000F03F000000000000000021
S3150800C2E0000000000000F03F000000000000F03FE2
S3150800C2F0000000000000F03F000000000000F03FD2
S3150800C3000000000000000000000000000000F03FF0
S3150800C310000000000000F03F0000000000000000E0
S3150800C320000000000000F03F000000000000F03FA1
S3150800C330000000000000F03F000000000000F03F91
S3150800C34000000101010001000101000000010001D7
S3150800C35000000000001083400000000000408040FC
S3150800C3600000000000C06C40000000000080514042
S3150800C3700000000000805640000000000000494010
S3150800C3800000000000407F400000000000406A40B6
S3150800C390000000002DB2BD3F000000000000304044
S3150800C3A0000000000000B03F000000000000304020
S3150800C3B0000000000000B03F000000000000304010
S3150800C3C0000000000000B03F000000000000304000
S3150800C3D0000000000000B03F000000000000C03F61
S3150800C3E00000000000002040000000000000C03FE0
S3150800C3F00000000000002040000000000000C03FD0
S3150800C4000000000000002040000000000000C03FBF
S3150800C41000000000000020400000000000E070401E
S3150800C420000000000090804000000000008051409D
S3150800C43000000000008056400000000000806640B2
S3150800C44000000000000049400000000000C06C40E9
S3150800C4500000000000108340000000000000644057
S3150800C4600000000000805140000000000080564097
S3150800C4700000000000004940000000000080614004
S3150800C480000000000000903F00000000000050403F
S3150800C490000000000000C03F00000000000020402F
S3150800C4A0000000000000903F00000000000050401F
S3150800C4B00000000000805B40000000000090804003
S3150800C4C00000000000805140000000000080564037
S3150800C4D000000000000049400000000000207240F3
S3150800C4E00000000000406F400000000000E07040BF
S3150800C4F00000000000708240000000000010834029
S3150800C50000000000008076400000000000E07A404D
S3150800C51000000000004080400000000000C06C40A1
S3150800C5200000000000006440000000000080514048
S3150800C5300000000000207C400000000000805640FB
S3150800C540000000000000494000000000002077407D
S3150800C5500000000000A079400000000000407F4075
S3150800C5600000000000406A400000000000806140B2
S3150800C5700000000000D08140000000000000F03FED
S3150800C580000000000000F03F000000000000F03F3F
S3150800C590000000000000F03F000000000000F03F2F
S3150800C5A0000000000000F03F000000000000F03F1F
S3150800C5B0000000000000F03F000000000000F03F0F
S3150800C5C0000000000000F03F000000000000F03FFF
S3150800C5D0000000000000F03F000000000000F03FEF
S3150800C5E0000000000000F03F000000000000F03FDF
S3150800C5F0000000000000F03F000000000000F03FCF
S3150800C600000000000000F03F000000000000F03FBE
S3150800C610000000000000F03F000000000000F03FAE
S3150800C620000000000000F03F000000000000F03F9E
S3150800C630000000000000F03F00000000000030404D
S3150800C640000000000000B03F00000000000030407D
S3150800C650000000000000B03F00000000000030406D
S3150800C660000000000000B03F00000000000030405D
S3150800C670000000000000B03F00000000000030404D
S3150800C680000000000000B03F00000000000030403D
S3150800C690000000000000B03F00000000000030402D
S3150800C6A0000000000000B03F00000000000030401D
S3150800C6B0000000000000B03F0000000000005040ED
S3150800C6C0000000000000903F0000000000005040FD
S3150800C6D0000000000000903F00000000000020401D
S3150800C6E0000000000000C03F0000000000002040DD
S3150800C6F0000000000000C03F0000000000002040CD
S3150800C700000000000000C03F0000000000002040BC
S3150800C710000000000000C03F0000000000002040AC
S3150800C720000000000000C03F000000002DB2BD3F21
S3150800C730000000000000903F00000000000050408C
S3150800C740000000000000C03F00000000000020407C
S3150800C750000000000000903F00000000000050406C
S3150800C760000000000000B03F00000000000030405C
S3150800C770000000000000B03F00000000000030404C
S3150800C780000000000000B03F00000000000030403C
S3150800C790000000000000B03F00000000000030402C
S3150800C7A0000000000000B03F00000000000030401C
S3150800C7B0000000000000B03F00000000000030400C
S3150800C7C0000000000000B03F0000000000003040FC
S3150800C7D0000000000000B03F0000000000003040EC
S3150800C7E0000000000000B03F0000000000003040DC
S3150800C7F0000000000000B03F0000000000003040CC
S3150800C800000000000000B03F0000000000003040BB
S3150800C810000000000000B03F0000000000003040AB
S3150800C8200000000000A07E400000000000E07F40FD
S3150800C83000000000003081400000000000908040A9
S3150800C84000000000008051400000000000805640B3
S3150800C8500000000000805B40000000000000694006
S3150800C86000000000008066400000000000207240C2
S3150800C8700000000000E070400000000000C07740A3
S3150800C88000000000008076400000000000607D4047
S3150800C8900000000000207C40000000000000494025
S3150800C8A00000000000E07A4000000000000064403C
S3150800C8B00000000000406F40000000000040754086
S3150800C8C0000000000000F03F00000000000000002B
S3150800C8D0000000000000000000000000000000004A
S3150800C8E00000000000000001000001000100000037
S3150800C8F00100000001000000010000000000000027
S3150800C90016000000160000001600000016000000C1
S3150800C91000000000190000001900000019000000BE
S3150800C92019000000000000000000010001000000DE
S3150800C93001000000010000000100000000000000E6
S3150800C94001000000010000000100000001000000D5
S3150800C950000000001500000015000000150000008A
S3150800C96015000000000000000000010001000000A2
S3150800C97001000000010000000100000000000000A6
S3150800C9800100000001000000010000000100000095
S3150800C990000000001500000015000000150000004A
S3150800C9A01500000000000000160000001600000038
S3150800C9B01600000016000000000000001900000024
S3150800C9C0190000001900000019000000000000000E
S3150800C9D018000000180000001800000018000000E9
S3150800C9E000000000170000001700000017000000F4
S3150800C9F017000000000000001F0000001F000000D4
S3150800CA001F0000001F000000000000000E000000CC
S3150800CA100E0000000E0000000E00000000000000DE
S3150800CA200D0000000D0000000D0000000D000000C4
S3150800CA30000000000C0000000C0000000C000000C4
S3150800CA400C000000000000000B0000000B000000B6
S3150800CA500B0000000B0000000000000001000000B1
S3150800CA6001000000010000000100000000000000B5
S3150800CA706464640048414E636F6465725F45343090
S3150800CA80375F5454415F47726F7570325F736F66D4
S3150800CA90747761726549445F76315F303830363273
S3150800CAA0325F3138323435334170704374726C54A6
S3150800CAB061736B0048414E636F6465725F4534303D
S3150800CAC0375F5454415F47726F7570322E630000AA
S3150800CAD020000000001402400800090020000000A1
S3150800CAE00014024010000E0020000000001402404E
S3150800CAF020000F002000000000140240400004003F
S3150800CB0020000000001402408000050020000000FC
S3150800CB100014024000010600200000000014024034
S3150800CB20000207002000000000140240000408006C
S3150800CB30040000000008024001000A00040000008A
S3150800CB400008024004000C00414443636F6E76659A
S3150800CB507273696F6E5461736B0000002E2E2F621C
S3150800CB606C6F636B7365742F7274772F53544D33E0
S3150800CB70322F7372632F686561705F342E6300000D
S3150800CB80546D724370754C6F6164000049444C459E
S3150800CB90000000002E2E2F626C6F636B7365742F76
S3150800CBA07274772F53544D33322F7372632F746117
S3150800CBB0736B732E630000002E2E2F626C6F636BEF
S3150800CBC07365742F7274772F53544D33322F7372E3
S3150800CBD0632F74696D6572732E630000546D72203D
S3150800CBE05376630043616E4576656E745461736B64
S3150800CBF00000000043616E5472616E736D6974546F
S3150800CC0061736B002E2E2F626C6F636B7365742FC6
S3150800CC107274772F53544D33322F7372632F5354D4
S3150800CC204D33325F453430372F63616E2E63000013
S3150800CC30006400400000000208000000000C0240EA
S3150800CC400100000008000000000C0240020001007C
S3150800CC5009131415160000000068004000000004BF
S3150800CC600200000000040240200005000200000047
S3150800CC700004024040000600093F4041420000000F
S3150800CC800101020102020202020302020402020375
S3150800CC900303040303050303060303050404060448
S3150800CCA0040704040804040705050805050806051D
S3150800CCB008070508070608080608080708080800F8
S3150800CCC0457643686E6C3100457643686E6C320073
S3150800CCD0457643686E6C33002E2E2F626C6F636B3D
S3150800CCE07365742F7274772F53544D33322F7372C2
S3150800CCF0632F53544D33325F453430372F6D61639C
S3150800CD002E6300002E2E2F626C6F636B7365742F73
S3150800CD107274772F53544D33322F7372632F5354D3
S3150800CD204D33325F453430372F706F72742E63007F
S3150800CD300000014001000000020100001000000090
S3150800CD400010024000020900100000000010024016
S3150800CD5000080B0000040040020000000102000069
S3150800CD60010000000000024040000600020000002A
S3150800CD7000040240200005000008004004000000EE
S3150800CD800102000008000000000C024000100C0020
S3150800CD9008000000000C024000200D0000040140BD
S3150800CDA00200000002030000040000000008024020
S3150800CDB0400006000400000000080240800007004A
S3150800CDC000000140010000000201190000000040B7
S3150800CDD00100000001021C000004004002000000DF
S3150800CDE001021D00000800400400000001021E00A8
S3150800CDF0000401400200000002012C00004001402E
S3150800CE000000010002011800004401400000020071
S3150800CE1002011900004801400000040002011A003E
S3150800CE20001C00408000000001022C000020004089
S3150800CE300001000001022D00040000000008024065
S3150800CE40010000002000000000140240400000001D
S3150800CE5020000000001402408000000020000000AE
S3150800CE6000140240000100002000000000140240E7
S3150800CE700002000020000000001402400004000028
S3150800CE8002000000000402408000000002000000CA
S3150800CE90000402404000000010000000001002409C
S3150800CEA004000000100000000010024010000000FE
S3150800CEB010000000001002402000000010000000D2
S3150800CEC00010024040000000400000000018024028
S3150800CED08000000040000000001802400001000029
S3150800CEE0400000000018024000100000400000004A
S3150800CEF00018024000800000010000000000024007
S3150800CF00100000000200000000040240200000009B
S3150800CF10010000000000024040000000010000007F
S3150800CF20000002402000000008000000000C02403B
S3150800CF300100000008000000000C0240020000008A
S3150800CF4008000000000C0240040000000800000071
S3150800CF50000C02400800000008000000000C024017
S3150800CF601000000008000000000C0240200000002D
S3150800CF7008000000000C0240400000000800000005
S3150800CF80000C02408000000008000000000C02406F
S3150800CF900001000008000000000C0240000200002A
S3150800CFA008000000000C0240000400000800000011
S3150800CFB0000C02400008000008000000000C0240B7
S3150800CFC00010000008000000000C024000200000CD
S3150800CFD008000000000C02400040000008000000A5
S3150800CFE0000C024000800000100000000010024003
S3150800CFF001000000100000000010024002000000BE
S3150800D0001000000000100240080000001000000098
S3150800D01000100240800000001000000000100240CE
S3150800D020000100001000000000100240000200008D
S3150800D030100000000010024000040000100000006C
S3150800D0400010024000080000100000000010024016
S3150800D0500010000010000000001002400020000030
S3150800D0601000000000100240004000001000000000
S3150800D070001002400080000020000000001402405A
S3150800D0800100000020000000001402400200000019
S3150800D09020000000001402400400000020000000E8
S3150800D0A0001402400800000020000000001402409E
S3150800D0B010000000200000000014024020000000BC
S3150800D0C020000000001402400008000020000000B4
S3150800D0D00014024000100000200000000014024066
S3150800D0E0002000002000000000140240004000005C
S3150800D0F020000000001402400080000040000000EC
S3150800D100001802400100000040000000001802401C
S3150800D1100200000040000000001802400400000061
S3150800D120400000000018024008000000400000000F
S3150800D13000180240100000004000000000180240DD
S3150800D14020000000400000000018024040000000D7
S3150800D15040000000001802400002000040000000E5
S3150800D16000180240000400004000000000180240B9
S3150800D17000080000400000000018024000200000DF
S3150800D18040000000001802400040000001000000B6
S3150800D19000000240010000000400000000080240F0
S3150800D1A001000000200000000014024040000000BA
S3150800D1B0200000000014024080000000200000004B
S3150800D1C00014024000010000200000000014024084
S3150800D1D000020000200000000014024000040000C5
S3150800D1E00200000000040240800000000200000067
S3150800D1F00004024040000000100000000010024039
S3150800D200040000001000000000100240100000009A
S3150800D210100000000010024020000000100000006E
S3150800D22000100240400000004000000000180240C4
S3150800D23080000000400000000018024000010000C5
S3150800D24040000000001802400010000040000000E6
S3150800D25000180240008000000100000000000240A3
S3150800D2601000000002000000000402402000000038
S3150800D270010000000000024040000000010000001C
S3150800D280000002402000000008000000000C0240D8
S3150800D2900100000008000000000C02400200000027
S3150800D2A008000000000C024004000000080000000E
S3150800D2B0000C02400800000008000000000C0240B4
S3150800D2C01000000008000000000C024020000000CA
S3150800D2D008000000000C02404000000008000000A2
S3150800D2E0000C02408000000008000000000C02400C
S3150800D2F00001000008000000000C024000020000C7
S3150800D30008000000000C02400004000008000000AD
S3150800D310000C02400008000008000000000C024053
S3150800D3200010000008000000000C02400020000069
S3150800D33008000000000C0240004000000800000041
S3150800D340000C02400080000010000000001002409F
S3150800D350010000001000000000100240020000005A
S3150800D3601000000000100240080000001000000035
S3150800D370001002408000000010000000001002406B
S3150800D380000100001000000000100240000200002A
S3150800D3901000000000100240000400001000000009
S3150800D3A000100240000800001000000000100240B3
S3150800D3B000100000100000000010024000200000CD
S3150800D3C0100000000010024000400000100000009D
S3150800D3D000100240008000002000000000140240F7
S3150800D3E001000000200000000014024002000000B6
S3150800D3F02000000000140240040000002000000085
S3150800D400001402400800000020000000001402403A
S3150800D4101000000020000000001402402000000058
S3150800D4202000000000140240000800002000000050
S3150800D4300014024000100000200000000014024002
S3150800D44000200000200000000014024000400000F8
S3150800D4502000000000140240008000004000000088
S3150800D46000180240010000004000000000180240B9
S3150800D47002000000400000000018024004000000FE
S3150800D48040000000001802400800000040000000AC
S3150800D490001802401000000040000000001802407A
S3150800D4A02000000040000000001802404000000074
S3150800D4B04000000000180240000200004000000082
S3150800D4C00018024000040000400000000018024056
S3150800D4D0000800004000000000180240002000007C
S3150800D4E04000000000180240004000000400000050
S3150800D4F00008024000200000000001400100000072
S3150800D50002011B00000000400100000001021C008F
S3150800D510000400400200000001021D00000800404F
S3150800D5200400000001021E00000401400200000081
S3150800D53002012E000040014000000100020118000F
S3150800D54000440140000002000201190000480140A1
S3150800D5500000040002011A00001C004080000000C0
S3150800D56001022C00002000400001000001022D00ED
S3150800D5701000000000100240000200000200020035
S3150800D5800100090010000000001002400008000118
S3150800D5900400200001000B001000000000100240EB
S3150800D5A0002000020800000201000D001000000023
S3150800D5B000100240004000031000002001000E0089
S3150800D5C001000000000002402000010002000200E5
S3150800D5D001000500010000000000024040000200B2
S3150800D5E002000200020006000200000000040240D9
S3150800D5F020000201040020000200050008000000C7
S3150800D600000C0240001003000200020002000C0099
S3150800D61008000000000C024000200301040020005E
S3150800D62002000D000400000000080240400004004B
S3150800D6300200020003000600040000000008024081
S3150800D6408000040104002000030007001000000009
S3150800D6500010024020000500020002000300050039
S3150800D66010000000001002404000050104002000E0
S3150800D67003000600200000000014024040000600D7
S3150800D6800200020003000600200000000014024009
S3150800D69080000700020002000300070020000000C7
S3150800D6A000140240000108000200020009000800F8
S3150800D6B020000000001402400002090002000200D7
S3150800D6C009000900001001401000000002250000B2
S3150800D6D002000000000402404000060002000000AC
S3150800D6E000040240800007000700000000440040D4
S3150800D6F0000002000126000008000000000C02409D
S3150800D7002000050008000000000C0240400006004A
S3150800D7100700000000480040000004000127000040
S3150800D72008000000000C0240000108000800000084
S3150800D730000C024000020900070000000014014026
S3150800D7402000000002470000040000000008024014
S3150800D75040000600040000000008024080000700A0
S3150800D7600800000056435020436F6E666967000044
S3150800D77056435020496E7465726661636500000001
S3150800D78053544D6963726F656C656374726F6E6925
S3150800D7906373000053544D333220566972747561B1
S3150800D7A06C20436F6D506F727420696E2048532049
S3150800D7B06D6F64650000000053544D33322056697E
S3150800D7C0727475616C20436F6D506F727420696E48
S3150800D7D0204653204D6F646500000000303030301D
S3150800D7E030303030303530420000000030303030D4
S3150800D7F03030303030353043000000000000014042
S3150800D8000100000002011B000000004001000000AA
S3150800D81001021C00000400400200000001021D0075
S3150800D820000800400400000001021E000004014038
S3150800D8300200000002012E00004001400000010025
S3150800D840020118000044014000000200020119000C
S3150800D850004801400000040002011A00001C0040B4
S3150800D8608000000001022C0000200040000100009A
S3150800D87001022D0010000000001002400002000006
S3150800D880020002000100090010000000001002401A
S3150800D890000800010400200001000B001000000031
S3150800D8A000100240002000020800000201000D00DE
S3150800D8B01000000000100240004000031000002085
S3150800D8C001000E00010000000000024020000100D7
S3150800D8D002000200010005000100000000000240ED
S3150800D8E040000200020002000200060002000000DA
S3150800D8F00004024020000201040020000200050086
S3150800D90008000000000C024000100300020002009C
S3150800D91002000C0008000000000C02400020030171
S3150800D9200400200002000D00040000000008024068
S3150800D9304000040002000200030006000400000084
S3150800D94000080240800004010400200003000700CC
S3150800D950100000000010024020000500020002002E
S3150800D96003000500100000000010024040000501F9
S3150800D97004002000030006002000000000140240F6
S3150800D9804000060002000200030006002000000016
S3150800D990001402408000070002000200030007008E
S3150800D9A020000000001402400001080002000200E6
S3150800D9B009000800200000000014024000020900C7
S3150800D9C002000200090009002E2E2F626C6F636B9D
S3150800D9D07365742F7274772F53544D33322F7372C5
S3150800D9E0632F71756575652E6300000004040400D5
S3150800D9F000DA000808DA000810DA00080707070046
S3150800DA00457643686E6C3100457643686E6C320025
S3150800DA10457643686E6C330050505000666D6F64EF
S3150800DA2000000000000000000000000000000000E8
S3110800DA3000000000000000804300000019
S315080100000B78FF2B00D070474B78002BFBD112F0F1
S3150801001089BA00BF08B5012011F072FD034A40F202
S3150801002067610020BDE8084014F0D2BA0100010852
S31508010030002011F0E9BB00BF704700BF2DE9F0476A
S31508010040DDF820E0099E9EF800C004460D4692465A
S315080100501F46BCF1000F02D101238EF8003030880B
S315080100601AF086FC22462B46804689461AF04EFF30
S31508010070E0B10E9A3B6813600D9A7B6813600C9A7F
S31508010080BB7A1370109A3B7A13700B9AFB7A13702A
S315080100900F9A7B7A13700A9A002313605360119A98
S315080100A0137030881AF064FC8046894642464B46EE
S315080100B0204629461AF034FF68B10B9B1B78D3B941
S315080100C001238AF800300C9B1B787BB901238AF837
S315080100D00130BDE8F087002642464B4620462946B0
S315080100E08AF800601AF01CFF0028ECD100238AF870
S315080100F00130BDE8F08700238AF800300C9B1B7895
S31508010100002BF3D1E2E700BF2DE9F04F83B0164685
S315080101101F4682468B461AF047F9002200230446F9
S315080101200D461AF0F3FED8BB80460022002320466E
S3150801013029465FFA88F81AF0E9FE50B93046394679
S315080101401AF0AAF802460B46304639461AF006FF57
S3150801015090BBB8F1000F5FD15046594600220023E3
S315080101604FF001091AF0DCFE20B3002300223046C5
S3150801017039461AF0D5FE4FF00103A0B15FFA89F9A5
S31508010180DBB2994507D02046294632463B461AF046
S31508010190A3FA04460D462046294603B0BDE8F08F6A
S315080101A04FF00108C1E703465FFA89F9DBB29945C1
S315080101B0E9D1F0E7C146D8E732463B4650465946AB
S315080101C01AF066FD21F000490022194B494680467E
S315080101D01AF082FA1AF060F802460B46404649467A
S315080101E01AF078FA0B46024623F00043404600927D
S315080101F0019300220F4B49461AF020FC02460B4692
S31508010200DDE900011AF096FE4FF0010858B15FFAD0
S3150801021088F8B8F1000F9FD000240025204629460A
S3150801022003B0BDE8F08F80465FFA88F8F1E700BFB2
S315080102300000E03F0000B03C2DE9F0410999089C17
S3150801024091F800E0DDF82880054616461F46BEF1FE
S31508010250000F01D101230B702B785B00DBB25A0921
S3150801026007EE902AB8EEE77AF7EE007AB4EEE77A67
S31508010270F1EE10FAA372227307DDD8E90001002214
S315080102801B4B1AF029FAC8E900012878C0096073DE
S315080102902B781B01DBB24FEA1318637284F80B80C3
S315080102A01AF066FB32463B461AF030FE50B140461C
S315080102B01AF05EFBDDE906231AF028FE4FF001036A
S315080102C098B1D8B220726B782370AB786370EB78EB
S315080102D0A3702B79E3706B792371AB796371EB7931
S315080102E0A3710023E371BDE8F0810346E9E700BF86
S315080102F00000F03F2DE9F0410999089C91F800E0CA
S31508010300DDF82880054616461F46BEF1000F01D1C5
S3150801031001230B702B785B00DBB25A0907EE902A92
S31508010320B8EEE77AF7EE007AB4EEE77AF1EE10FA6C
S31508010330A372227307DDD8E9000100221B4B1AF0CC
S31508010340CBF9C8E900012878C00960732B781B012D
S31508010350DBB24FEA1318637284F80B801AF008FBB4
S3150801036032463B461AF0D2FD50B140461AF000FB20
S31508010370DDE906231AF0CAFD4FF0010398B1D8B298
S3150801038020726B782370AB786370EB78A3702B7946
S31508010390E3706B792371AB796371EB79A3710023F0
S315080103A0E371BDE8F0810346E9E700BF0000F03FCD
S315080103B02DE9F0410799069C91F800E0DDF82080C7
S315080103C0054616461F46BEF1000F01D101230B70E3
S315080103D02B785B00DBB25A0907EE902AB8EEE77A6A
S315080103E0F7EE007AB4EEE77AF1EE10FAA372227309
S315080103F007DDD8E900010022154B1AF06DF9C8E9A5
S3150801040000016B782370AB786370EB78A3702B7956
S31508010410E3706B792371AB796371EB79A37100236F
S31508010420E3712B781B01DBB218096372E0721AF0CB
S315080104309FFA3B4632461AF069FD4FF0010300B9AF
S31508010440034623722B78DB096373BDE8F08100BF8D
S315080104500000F03F2DE9F0410799069C91F800E06C
S31508010460DDF82080054616461F46BEF1000F01D16C
S3150801047001230B702B785B00DBB25A0907EE902A31
S31508010480B8EEE77AF7EE007AB4EEE77AF1EE10FA0B
S31508010490A372227307DDD8E900010022154B1AF071
S315080104A01BF9C8E900016B782370AB786370EB78A8
S315080104B0A3702B79E3706B792371AB796371EB794F
S315080104C0A3710023E3712B781B01DBB21809637250
S315080104D0E0721AF04DFA3B4632461AF017FD4FF014
S315080104E0010300B9034623722B78DB096373BDE860
S315080104F0F08100BF0000F03F2DE9F04F89B00746B3
S3150801050018999DF8488091F800E09DF84C909DF85F
S3150801051050A09DF85460169D1A9CBEF1000F01D19A
S3150801052001200870DFF830E110461946DEE900239C
S315080105301AF0D2F8CDE9000138461AF009FA002274
S31508010540434BCDE902011AF0C7F8DDE900231AF099
S31508010550C1F800220023CDE906011AF0D7FC0028CC
S3150801056041D01D9B18781C9BC0015FFA80FB85F85A
S3150801057001B0D3E900011AF039FD0001C7B2199B90
S31508010580AF70D3E900011AF031FD38445844179B7E
S31508010590207084F8018084F8029084F803A02671FB
S315080105A06671A671E6711B9A1B681360DDE9002363
S315080105B0DDE902011AF08EF80022002380468946F9
S315080105C01AF0A4FC0446002839D1224BD3E9006766
S315080105D000220023304639461AF098FCE8B12C70FF
S315080105E009B0BDE8F08F1B4B93ED007B0022002379
S315080105F051EC170B8DED047B1AF088FC0028D5D138
S31508010600DDE90423DDE90601FFF77EFD002200236B
S315080106101AF07CFC0028C9D0A3E732463B4640467F
S315080106204946FFF771FD002200231AF06FFC4FF0CF
S31508010630010448B1E4B22C7009B0BDE8F08F012479
S315080106402C7009B0BDE8F08F0446E4B2F3E700BFA9
S315080106500000F03F70000020A00000202DE9F04FB7
S3150801066089B0074618999DF8488091F800E09DF8E9
S315080106704C909DF850A09DF85460169D1A9CBEF1A9
S31508010680000F01D101200870DFF830E11046194644
S31508010690DEE900231AF020F8CDE9000138461AF000
S315080106A057F90022434BCDE902011AF015F8DDE9A5
S315080106B000231AF00FF800220023CDE906011AF0EB
S315080106C025FC002841D01D9B18781C9BC0015FFAA8
S315080106D080FB85F801B0D3E900011AF087FC000117
S315080106E0C7B2199BAF70D3E900011AF07FFC3844F1
S315080106F05844179B207084F8018084F8029084F886
S3150801070003A026716671A671E6711B9A1B681360B0
S31508010710DDE90023DDE9020119F0DCFF00220023EF
S31508010720804689461AF0F2FB0446002839D1224B45
S31508010730D3E9006700220023304639461AF0E6FB62
S31508010740E8B12C7009B0BDE8F08F1B4B93ED007B27
S315080107500022002351EC170B8DED047B1AF0D6FB12
S315080107600028D5D1DDE90423DDE90601FFF7CCFC34
S31508010770002200231AF0CAFB0028C9D0A3E7324693
S315080107803B4640464946FFF7BFFC002200231AF0C4
S31508010790BDFB4FF0010448B1E4B22C7009B0BDE8C5
S315080107A0F08F01242C7009B0BDE8F08F0446E4B23D
S315080107B0F3E700BF0000F03F90000020A8000020EA
S315080107C02DE9F04F89B080461B999DF8484091F86C
S315080107D000E004949DF84C4005949DF850509DF80E
S315080107E054609DF858709DF85CA09DF860B01D9CFA
S315080107F0BEF1000F01D101200870DFF84CE1104667
S315080108001946DEE9002319F067FFCDE900014046E4
S315080108101AF09EF800224A4BCDE9020119F05CFF55
S31508010820DDE9002319F056FF00220023CDE9060170
S315080108301AF06CFB00284AD0209B1878199BC00136
S315080108405FFA80F983F801901F9BD3E900011AF03A
S31508010850CDFB199B00015FFA80F883F802801C9B87
S31508010860D3E900011AF0C2FB9DF8103063704044C9
S315080108709DF81430A37048441A9B2070E5702671C0
S31508010880677184F806A084F807B01E9A1B6813607E
S31508010890DDE90023DDE9020119F01CFF002200232E
S315080108A006460F461AF032FB804600283CD1254BF6
S315080108B0D3E9004500220023204629461AF026FBE3
S315080108C0E8B1199B83F8008009B0BDE8F08F1D4B8C
S315080108D0D3E9008900220023404649461AF016FB4F
S315080108E00028D5D142464B46DDE90601FFF70CFC47
S315080108F0002200231AF00AFB0028C9D09CE72246E9
S315080109002B4630463946FFF7FFFB002200231AF033
S31508010910FDFA4FF0010878B15FFA88F8199B83F858
S31508010920008009B0BDE8F08F199B4FF0010883F8E4
S31508010930008009B0BDE8F08F80465FFA88F8EDE7D8
S315080109400000F03F70000020A00000202DE9F04FC4
S3150801095089B080461B999DF8484091F800E00494B7
S315080109609DF84C4005949DF850509DF854609DF8AB
S3150801097058709DF85CA09DF860B01D9CBEF1000FF3
S3150801098001D101200870DFF84CE110461946DEE96D
S31508010990002319F0A1FECDE90001404619F0D8FF60
S315080109A000224A4BCDE9020119F096FEDDE9002342
S315080109B019F090FE00220023CDE906011AF0A6FAE5
S315080109C000284AD0209B1878199BC0015FFA80F944
S315080109D083F801901F9BD3E900011AF007FB199BC5
S315080109E000015FFA80F883F802801C9BD3E90001B5
S315080109F01AF0FCFA9DF81030637040449DF81430E3
S31508010A00A37048441A9B2070E5702671677184F8B3
S31508010A1006A084F807B01E9A1B681360DDE9002357
S31508010A20DDE9020119F056FE0022002306460F46AB
S31508010A301AF06CFA804600283CD1254BD3E90045CB
S31508010A4000220023204629461AF060FAE8B1199BCC
S31508010A5083F8008009B0BDE8F08F1D4BD3E9008902
S31508010A6000220023404649461AF050FA0028D5D1FB
S31508010A7042464B46DDE90601FFF746FB0022002305
S31508010A801AF044FA0028C9D09CE722462B4630467C
S31508010A903946FFF739FB002200231AF037FA4FF0DF
S31508010AA0010878B15FFA88F8199B83F8008009B0C4
S31508010AB0BDE8F08F199B4FF0010883F8008009B053
S31508010AC0BDE8F08F80465FFA88F8EDE70000F03F51
S31508010AD090000020A80000202DE9F04F89B00646B5
S31508010AE019999DF8544091F800E003949DF84870CF
S31508010AF09DF84C809DF850909DF858501B9CBEF16E
S31508010B00000F01D101200870DFF848E110461946A7
S31508010B10DEE9002319F0E0FD824630468B4619F0DE
S31508010B2017FF0022494BCDE9000119F0D5FD5246C0
S31508010B305B4619F0CFFD00220023CDE906011AF024
S31508010B40E5F9002846D01E9B179A1878C001C3B24A
S31508010B50537004931D9BD3E900011AF047FA179BBA
S31508010B600001C6B29E701A9BD3E900011AF03EFA3B
S31508010B70049B6770304418449DF80C302371189B08
S31508010B80207084F8028084F803906571A571E57177
S31508010B901C9A1B68136052465B46DDE9000119F091
S31508010BA099FD0022002306460F461AF0AFF9804642
S31508010BB000283ED1264BD3E90045002200232046D2
S31508010BC029461AF0A3F9F8B1179B83F8008009B0F2
S31508010BD0BDE8F08F1E4B93ED007B0022002351ECFC
S31508010BE0170B8DED047B1AF091F90028D3D1DDE9B5
S31508010BF00423DDE90601FFF787FA002200231AF02C
S31508010C0085F90028C7D09EE722462B463046394645
S31508010C10FFF77AFA002200231AF078F94FF0010853
S31508010C2078B15FFA88F8179B83F8008009B0BDE8A8
S31508010C30F08F179B4FF0010883F8008009B0BDE8D3
S31508010C40F08F80465FFA88F8EDE700BF0000F03FB5
S31508010C5070000020A00000202DE9F04F89B006465B
S31508010C6019999DF8544091F800E003949DF848704D
S31508010C709DF84C809DF850909DF858501B9CBEF1EC
S31508010C80000F01D101200870DFF848E11046194626
S31508010C90DEE9002319F020FD824630468B4619F01D
S31508010CA057FE0022494BCDE9000119F015FD5246C0
S31508010CB05B4619F00FFD00220023CDE906011AF063
S31508010CC025F9002846D01E9B179A1878C001C3B289
S31508010CD0537004931D9BD3E900011AF087F9179BFA
S31508010CE00001C6B29E701A9BD3E900011AF07EF97B
S31508010CF0049B6770304418449DF80C302371189B87
S31508010D00207084F8028084F803906571A571E571F5
S31508010D101C9A1B68136052465B46DDE9000119F00F
S31508010D20D9FC0022002306460F461AF0EFF8804642
S31508010D3000283ED1264BD3E9004500220023204650
S31508010D4029461AF0E3F8F8B1179B83F8008009B031
S31508010D50BDE8F08F1E4B93ED007B0022002351EC7A
S31508010D60170B8DED047B1AF0D1F80028D3D1DDE9F4
S31508010D700423DDE90601FFF7C7F9002200231AF06B
S31508010D80C5F80028C7D09EE722462B463046394685
S31508010D90FFF7BAF9002200231AF0B8F84FF0010854
S31508010DA078B15FFA88F8179B83F8008009B0BDE827
S31508010DB0F08F179B4FF0010883F8008009B0BDE852
S31508010DC0F08F80465FFA88F8EDE700BF0000F03F34
S31508010DD090000020A80000202DE9F0410799069C03
S31508010DE091F800E0DDF82080054616461F46BEF15B
S31508010DF0000F01D101230B702B785B00DBB25A0976
S31508010E0007EE902AB8EEE77AF7EE007AB4EEE77ABB
S31508010E10F1EE10FAA372227307DDD8E90001002268
S31508010E20154B19F059FCC8E900016B782370AB78AA
S31508010E306370EB78A3702B79E3706B792371AB79C7
S31508010E406371EB79A3710023E3712878C009607394
S31508010E5019F08EFD3B4632461AF058F84FF0010359
S31508010E6000B9034623722B781B01DBB21A09637298
S31508010E70E272BDE8F08100BF0000F03F2DE9F041C4
S31508010E800799069C91F800E0DDF82080054616468C
S31508010E901F46BEF1000F01D101230B702B785B00B1
S31508010EA0DBB25A0907EE902AB8EEE77AF7EE007A2E
S31508010EB0B4EEE77AF1EE10FAA372227307DDD8E9E8
S31508010EC000010022154B19F007FCC8E900016B78EF
S31508010ED02370AB786370EB78A3702B79E3706B7929
S31508010EE02371AB796371EB79A3710023E3712878D8
S31508010EF0C009607319F03CFD3B4632461AF006F804
S31508010F004FF0010300B9034623722B781B01DBB2AC
S31508010F101A096372E272BDE8F08100BF0000F03F72
S31508010F202DE9F04F83B00C460E9FDDF834809946C3
S31508010F300546324BD7E900011646002219F0CCFBCB
S31508010F400123C7E9000189F8003023682C4A0C9966
S31508010F50013313602360D8F8003007EE903AB8EEF3
S31508010F60677AF7EE007AB4EE677AF1EE10FA05D1F0
S31508010F70DFF888904FF00008C1E9008937780193B6
S31508010F80384619F0E5FCDFF884801E4A019B136098
S31508010F90C8E900012B602F7196F807E085F805E08E
S31508010FA096F801C085F806C096F8028085F807808C
S31508010FB096F8039085F8089096F804A085F809A094
S31508010FC096F805B0104C85F80AB0B079E87219465A
S31508010FD0A071234608220020277084F805B084F8FA
S31508010FE004A084F8039084F8028084F801C084F888
S31508010FF007E003B0BDE8F04F13F076B80000F03F04
S31508011000FCC6002088C10020F806002060C7002021
S3150801101008B50121002013F06BFA0B21002013F00B
S3150801102067FA0C21002013F063FA0D21002013F052
S315080110305FFA0E21002013F05BFA1521002013F048
S3150801104057FA1621002013F053FA1721002013F03E
S315080110504FFA1821002013F04BFA1921002013F03A
S3150801106047FA1F210020BDE8084013F041BA00BF26
S315080110702DE9F04F2DED0A8B0D460968E24CE34E3A
S3150801108083B00131216029601899DDF864900968F7
S31508011090316007EE901AB8EE678AF7EE007AB4EE79
S315080110A0678AF1EE10FA1F46044692462B7A40F0FB
S315080110B01C830BB901232B72DFF8548300224346A4
S315080110C000921046012113F03FFA002884F85C00CB
S315080110D040F3658498F8013084F8213098F8023095
S315080110E084F8223098F8033084F8233098F80430CD
S315080110F084F82430D6ED007A98F8053084F825303E
S3150801110098F8063084F8263098F8072098F80030C1
S3150801111084F82720F8EE678A84F82030F2EE067AFA
S31508011120F4EE678AF1EE10FAEB7940F0C5830BB954
S315080111300123EB71DFF8DC82002243460092104658
S315080111400B2113F001FA002884F85B0040F35E8452
S3150801115098F80130637698F80230A37698F8033048
S31508011160E37698F804302377D6ED007A98F80530B7
S31508011170637798F80630A37798F8072098F800302F
S31508011180E277B8EE679A2376F2EE087AB4EE679AB2
S31508011190F1EE10FAAB7940F038830BB90123AB7144
S315080111A0DFF8748200224346009210460C2113F0A0
S315080111B0CBF9002884F85A0040F3188498F80130CE
S315080111C0637498F80230A37498F80330E37498F8B6
S315080111D004302375D6ED007A98F80530637598F8CA
S315080111E00630A37598F8072098F80030E275F8EEEE
S315080111F0679A2374F2EE0A7AF4EE679AF1EE10FA18
S315080112006B7940F02E830BB901236B71DFF80C82E1
S3150801121000224346009210460D2113F095F9002845
S3150801122084F8590040F3DD83D6ED007A98F8073043
S3150801123098F8062098F8051098F8040098F803E03D
S3150801124098F802C098F801B098F8008084F809B0B7
S31508011250B8EE67AA84F80AC084F80BE020736173B4
S31508011260A273E37384F80880F2EE0C7AB4EE67AAE7
S31508011270F1EE10FA2B7940F09C820BB901232B7100
S31508011280DFF89C8100224346009210460E2113F096
S315080112905BF9002884F858001BDD98F801B098F826
S315080112A002E098F8030098F800C098F8041098F836
S315080112B0052098F8063098F8078084F8078084F89E
S315080112C001B084F800C084F802E0E070217162710F
S315080112D0A371D6ED007AF8EE67AAF3EE057AF4EE75
S315080112E067AAF1EE10FA6B7A40F002830BB9012373
S315080112F06B72DFF8308100224346009210461521B1
S3150801130013F022F9002884F85D0040F3658398F804
S31508011310013084F8293098F8023084F82A3098F890
S31508011320033084F82B3098F8043084F82C30D6ED45
S31508011330007A98F8053084F82D3098F8063084F844
S315080113402E3098F8072098F8003084F82F20B8EE48
S3150801135067BA84F82830F3EE067AB4EE67BAF1EE86
S3150801136010FAAB7A40F063820BB90123AB72DFF84E
S31508011370B8800022434600921046162113F0E4F87D
S31508011380002884F85E0040F3228398F8013084F837
S31508011390313098F8023084F8323098F8033084F8FE
S315080113A0333098F8043084F83430D6ED007A98F85A
S315080113B0053084F8353098F8063084F8363098F8D0
S315080113C0072098F8003084F83720F8EE67BA84F8D1
S315080113D03030F3EE077AF4EE67BAF1EE10FA6B7B6A
S315080113E040F051820BB901236B73DFF8408000226C
S315080113F0434600921046172113F0A6F8002884F8F0
S31508011400610040F3FE8213E0B8C00020A4C10020A9
S315080114102807002060070020000700207007002029
S3150801142018070020E006002030070020E806002003
S3150801143098F8013084F8493098F8023084F84A302F
S3150801144098F8033084F84B3098F8043084F84C3017
S31508011450D6ED007A98F8053084F84D3098F80630BC
S3150801146084F84E3098F8072098F8003084F84F2011
S31508011470B8EE67CA84F84830F3EE087AB4EE67CA5C
S31508011480F1EE10FA2B7B40F0A6810BB901232B73E1
S31508011490DFF854840022434600921046182113F0BF
S315080114A053F8002884F8600040F3A68298F80130C2
S315080114B084F8413098F8023084F8423098F80330BD
S315080114C084F8433098F8043084F84430D6ED007A2D
S315080114D098F8053084F8453098F8063084F846308F
S315080114E098F8072098F8003084F84720F8EE67CA7C
S315080114F084F84030F3EE097AF4EE67CAF1EE10FA91
S31508011500EB7A40F03C810BB90123EB72DFF8DC83FF
S315080115100022434600921046192113F015F80028B7
S3150801152084F85F00D6ED007A40F34E8298F80130D0
S3150801153084F8393098F8023084F83A3098F803304C
S3150801154084F83B3098F8043084F83C3098F8053034
S3150801155084F83D3098F8063084F83E3098F807202C
S3150801156098F8003084F83F20F8EE677A84F8383026
S31508011570B3EE0F7AF4EE477AF1EE10FAAB7B40F050
S31508011580E6800BB90123AB73D44D00222B4600929A
S3150801159010461F2112F0D8FF002884F8620017DDD3
S315080115A06B78AA7884F85130EB7884F8522084F85D
S315080115B053302A796B7984F85420A97984F85530FF
S315080115C0EA792B7884F8561084F8572084F8503035
S315080115D0F7EE007AB4EE678AF1EE10FA40F0A080D1
S315080115E094F95C3094F8200094F821C094F822E02C
S315080115F094F8236094F8245094F8251094F826203A
S3150801160007EE103A94F8273099F8004007EE904A09
S31508011610F8EEE77AF7EE006AF4EE667AF1EE10FA7A
S3150801162015D1F8EEC77AF5EE407AF1EE10FA57D1F0
S315080116301A9C4FF002084FF0010B89F8008084F8D4
S3150801164000B099F8004007EE904AF8EEE77AF0EE16
S31508011650006AF4EE667AF1EE10FA37D1B8EEC77A77
S31508011660B7EE008AB4EEC87AF1EE10FA38DBFB71F0
S315080116701A9B87F801C001243870BA7187F802E00D
S31508011680FE703D7179711C70179B954A1C704FF05D
S31508011690030C89F800C0BAF800301380169A138033
S315080116A019F056F9189BD3ED007A8E4BF8EE677A46
S315080116B0C3E90001F4EE487AF1EE10FA00F0698107
S315080116C099F8003007EE903AF8EEE77AF5EE407AA7
S315080116D0F1EE10FA04D11A9A012389F80030137031
S315080116E003B0BDEC0A8BBDE8F08FB3B1002380F8D7
S315080116F05C3080F8203080F8213080F8223080F87C
S31508011700233080F8243080F8253080F8263080F898
S315080117102730F0EE488A2B7200E5F0EE488AFDE4A0
S31508011720F2EE067AF4EE678AF1EE10FA40F0F880E6
S3150801173094F95B30207E94F819C094F81AE0E67E95
S31508011740257F617FA27F07EE103AE37F5CE7002BD6
S315080117503FF43EAF002384F8623084F8503084F8B1
S31508011760513084F8523084F8533084F8543084F870
S31508011770553084F8563084F85730AB7328E7002B78
S3150801178000F0EE80002384F85F3084F8383084F85E
S31508011790393084F83A3084F83B3084F83C3084F8A0
S315080117A03D3084F83E3084F83F30F0EE6C7AEB72C7
S315080117B0DEE6002B00F0E080002384F85830237021
S315080117C06370A370E37023716371A371E371F0EE23
S315080117D04AAA2B7181E5002B00F0C880002384F802
S315080117E0603084F8403084F8413084F8423084F817
S315080117F0433084F8443084F8453084F8463084F818
S315080118004730F0EE4CCA2B7374E6002B00F0BA8011
S31508011810002384F85A3023746374A374E37423751C
S315080118206375A375E375F0EE499AAB71E2E4002B93
S3150801183000F09980002384F85E3084F8303084F80B
S31508011840313084F8323084F8333084F8343084F80F
S31508011850353084F8363084F83730F0EE4BBAAB724F
S31508011860B7E5002B00F08B80002384F859302372EA
S315080118706372A372E37223736373A373E373B0EEA4
S3150801188069AA6B71F0E4002B73D0002384F86130E8
S3150801189084F8483084F8493084F84A3084F84B3063
S315080118A084F84C3084F84D3084F84E3084F84F3043
S315080118B0B0EE6BCA6B73DFE5002B66D0002384F8A4
S315080118C05B3023766376A376E37623776377A3770C
S315080118D0E377B0EE689AEB7156E400BF080700207B
S315080118E0A0C1002000C2002048070020F006002001
S315080118F09BB3002384F85D3084F8283084F82930B6
S3150801190084F82A3084F82B3084F82C3084F82D306A
S3150801191084F82E3084F82F30B0EE6ABA6B721AE565
S31508011920F2EE087AB4EE679AF1EE10FA3DD0F2EECD
S315080119300A7AF4EE679AF1EE10FA6DD194F95930F4
S31508011940207A94F809C094F80AE0E67A257B617B47
S31508011950A27B07EE103AE37B56E6B0EE6ABAFAE4E2
S31508011960F0EE6C7A04E6F0EE4BBA32E5F0EE4CCACC
S31508011970C0E5B0EE6BCA7FE5F0EE4AAAADE4B0EE7B
S3150801198069AA71E4F0EE499A34E4B0EE689AFFF771
S31508011990FBBB7D4B1B990022C1E9002390E6D6EDDE
S315080119A0007AF8EE678AFFF7B9BB94F95A30207CBA
S315080119B094F811C094F812E0E67C257D617DA27D3C
S315080119C007EE103AE37D1FE6F8EE677AD0E5D6ED25
S315080119D0007AF8EE67BAFCE4D6ED007AB8EE67BA93
S315080119E0B9E4D6ED007AB8EE67AA3DE4D6ED007AF9
S315080119F0F8EE679AFFF7FEBBD6ED007AF8EE67CAEE
S31508011A0078E5D6ED007AB8EE67CA35E5D6ED007AFF
S31508011A10B8EE679AFFF7B8BBF2EE0C7AB4EE67AA8E
S31508011A20F1EE10FA1BD0F3EE057AF4EE67AAF1EEA1
S31508011A3010FA23D194F95D3094F8280094F829C056
S31508011A4094F82AE094F82B6094F82C5094F82D1009
S31508011A5094F82E2007EE103A94F82F30D4E594F92D
S31508011A605830207894F801C094F802E0E678257990
S31508011A706179A27907EE103AE379C5E5F3EE067ABC
S31508011A80B4EE67BAF1EE10FA14D194F95E3094F80F
S31508011A90300094F831C094F832E094F8336094F841
S31508011AA0345094F8351094F8362007EE103A94F825
S31508011AB03730A9E5F3EE077AF4EE67BAF1EE10FAD4
S31508011AC014D194F9613094F8480094F849C094F80F
S31508011AD04AE094F84B6094F84C5094F84D1094F8F9
S31508011AE04E2007EE103A94F84F308DE5F3EE087A5A
S31508011AF0B4EE67CAF1EE10FA14D194F9603094F88D
S31508011B00400094F841C094F842E094F8436094F890
S31508011B10445094F8451094F8462007EE103A94F884
S31508011B20473071E5F3EE097AF4EE67CAF1EE10FA79
S31508011B3014D194F95F3094F8380094F839C094F8C0
S31508011B403AE094F83B6094F83C5094F83D1094F8C8
S31508011B503E2007EE103A94F83F3055E594F9623085
S31508011B6094F8500094F851C094F852E094F85360F0
S31508011B7094F8545094F8551094F8562007EE103AF4
S31508011B8094F8573040E500BF0000F03F012108B541
S31508011B90084612F0ADFC0B21012012F0A9FC0C211C
S31508011BA0012012F0A5FC0D21012012F0A1FC0E2145
S31508011BB0012012F09DFC1521012012F099FC162135
S31508011BC0012012F095FC1721012012F091FC182131
S31508011BD0012012F08DFC1921012012F089FC1F2128
S31508011BE00120BDE8084012F083BC00BF2DE9F04F83
S31508011BF02DED0A8B0D460968E24CE34E83B001319F
S31508011C00216029601899DDF864900968316007EE4A
S31508011C10901AB8EE678AF7EE007AB4EE678AF1EEA3
S31508011C2010FA1F46044692462B7A40F01C830BB9DC
S31508011C3001232B72DFF854830022012143460092C7
S31508011C40084612F081FC002884F85C0040F365849C
S31508011C5098F8013084F8213098F8023084F8223057
S31508011C6098F8033084F8233098F8043084F824303F
S31508011C70D6ED007A98F8053084F8253098F80630BC
S31508011C8084F8263098F8072098F8003084F8272039
S31508011C90F8EE678A84F82030F2EE067AF4EE678A5F
S31508011CA0F1EE10FAEB7940F0C5830BB90123EB711C
S31508011CB0DFF8DC820022434600920B21012012F054
S31508011CC043FC002884F85B0040F35E8498F80130F1
S31508011CD0637698F80230A37698F80330E37698F895
S31508011CE004302377D6ED007A98F80530637798F8AB
S31508011CF00630A37798F8072098F80030E277B8EE0F
S31508011D00679A2376F2EE087AB4EE679AF1EE10FA3C
S31508011D10AB7940F038830BB90123AB71DFF87482D4
S31508011D200022434600920C21012012F00DFC0028E6
S31508011D3084F85A0040F3188498F80130637498F8C7
S31508011D400230A37498F80330E37498F804302375C5
S31508011D50D6ED007A98F80530637598F80630A375BC
S31508011D6098F8072098F80030E275F8EE679A237418
S31508011D70F2EE0A7AF4EE679AF1EE10FA6B7940F010
S31508011D802E830BB901236B71DFF80C8200224346BF
S31508011D9000920D21012012F0D7FB002884F8590082
S31508011DA040F3DD83D6ED007A98F8073098F80620D7
S31508011DB098F8051098F8040098F803E098F802C016
S31508011DC098F801B098F8008084F809B0B8EE67AAC7
S31508011DD084F80AC084F80BE020736173A273E37375
S31508011DE084F80880F2EE0C7AB4EE67AAF1EE10FADE
S31508011DF02B7940F09C820BB901232B71DFF89C816A
S31508011E000022434600920E21012012F09DFB002874
S31508011E1084F858001BDD98F801B098F802E098F8A4
S31508011E20030098F800C098F8041098F8052098F867
S31508011E30063098F8078084F8078084F801B084F89A
S31508011E4000C084F802E0E07021716271A371D6EDD9
S31508011E50007AF8EE67AAF3EE057AF4EE67AAF1EED0
S31508011E6010FA6B7A40F002830BB901236B72DFF823
S31508011E7030810022434600921521012012F064FBAD
S31508011E80002884F85D0040F3658398F8013084F8EA
S31508011E90293098F8023084F82A3098F8033084F803
S31508011EA02B3098F8043084F82C30D6ED007A98F85F
S31508011EB0053084F82D3098F8063084F82E3098F8D5
S31508011EC0072098F8003084F82F20B8EE67BA84F80E
S31508011ED02830F3EE067AB4EE67BAF1EE10FAAB7A69
S31508011EE040F063820BB90123AB72DFF8B880002298
S31508011EF0434600921621012012F026FB002884F899
S31508011F005E0040F3228398F8013084F8313098F85E
S31508011F10023084F8323098F8033084F8333098F870
S31508011F20043084F83430D6ED007A98F8053084F810
S31508011F30353098F8063084F8363098F8072098F83E
S31508011F40003084F83720F8EE67BA84F83030F3EEBB
S31508011F50077AF4EE67BAF1EE10FA6B7B40F051821C
S31508011F600BB901236B73DFF84080002243460092C8
S31508011F701721012012F0E8FA002884F8610040F3DD
S31508011F80FE8213E020C200203CC70020580700202B
S31508011F90D006002020070020D80600203807002098
S31508011FA040070020780700206807002098F80130CC
S31508011FB084F8493098F8023084F84A3098F80330A2
S31508011FC084F84B3098F8043084F84C30D6ED007A12
S31508011FD098F8053084F84D3098F8063084F84E3074
S31508011FE098F8072098F8003084F84F20B8EE67CAA9
S31508011FF084F84830F3EE087AB4EE67CAF1EE10FABF
S315080120002B7B40F0A6810BB901232B73DFF854848F
S315080120100022434600921821012012F095FA002861
S3150801202084F8600040F3A68298F8013084F84130BC
S3150801203098F8023084F8423098F8033084F843302F
S3150801204098F8043084F84430D6ED007A98F80530CB
S3150801205084F8453098F8063084F8463098F8072011
S3150801206098F8003084F84720F8EE67CA84F84030BB
S31508012070F3EE097AF4EE67CAF1EE10FAEB7A40F05C
S315080120803C810BB90123EB72DFF8DC83002243465E
S3150801209000921921012012F057FA002884F85F00EE
S315080120A0D6ED007A40F34E8298F8013084F839303B
S315080120B098F8023084F83A3098F8033084F83B30BF
S315080120C098F8043084F83C3098F8053084F83D30A7
S315080120D098F8063084F83E3098F8072098F80030CA
S315080120E084F83F20F8EE677A84F83830B3EE0F7A31
S315080120F0F4EE477AF1EE10FAAB7B40F0E6800BB9C5
S315080121000123AB73D44D00222B4600921F210120D7
S3150801211012F01AFA002884F8620017DD6B78AA789B
S3150801212084F85130EB7884F8522084F853302A79B0
S315080121306B7984F85420A97984F85530EA792B7893
S3150801214084F8561084F8572084F85030F7EE007A50
S31508012150B4EE678AF1EE10FA40F0A08094F95C308B
S3150801216094F8200094F821C094F822E094F82360AA
S3150801217094F8245094F8251094F8262007EE103A7E
S3150801218094F8273099F8004007EE904AF8EEE77A76
S31508012190F7EE006AF4EE667AF1EE10FA15D1F8EE6A
S315080121A0C77AF5EE407AF1EE10FA57D11A9C4FF03C
S315080121B002084FF0010B89F8008084F800B099F8FD
S315080121C0004007EE904AF8EEE77AF0EE006AF4EE80
S315080121D0667AF1EE10FA37D1B8EEC77AB7EE008A09
S315080121E0B4EEC87AF1EE10FA38DBFB711A9B87F860
S315080121F001C001243870BA7187F802E0FE703D719A
S3150801220079711C70179B954A1C704FF0030C89F85D
S3150801221000C0BAF800301380169A138018F098FB9C
S31508012220189BD3ED007A8E4BF8EE677AC3E9000165
S31508012230F4EE487AF1EE10FA00F0698199F8003067
S3150801224007EE903AF8EEE77AF5EE407AF1EE10FAF3
S3150801225004D11A9A012389F80030137003B0BDEC32
S315080122600A8BBDE8F08FB3B1002380F85C3080F8A3
S31508012270203080F8213080F8223080F8233080F829
S31508012280243080F8253080F8263080F82730F0EEA3
S31508012290488A2B7200E5F0EE488AFDE4F2EE067AEA
S315080122A0F4EE678AF1EE10FA40F0F88094F95B30A3
S315080122B0207E94F819C094F81AE0E67E257F617F9E
S315080122C0A27F07EE103AE37F5CE7002B3FF43EAFAF
S315080122D0002384F8623084F8503084F8513084F849
S315080122E0523084F8533084F8543084F8553084F8E1
S315080122F0563084F85730AB7328E7002B00F0EE8090
S31508012300002384F85F3084F8383084F8393084F84B
S315080123103A3084F83B3084F83C3084F83D3084F810
S315080123203E3084F83F30F0EE6C7AEB72DEE6002B35
S3150801233000F0E080002384F8583023706370A3709E
S31508012340E37023716371A371E371F0EE4AAA2B71ED
S3150801235081E5002B00F0C880002384F8603084F8FA
S31508012360403084F8413084F8423084F8433084F8A8
S31508012370443084F8453084F8463084F84730F0EE26
S315080123804CCA2B7374E6002B00F0BA80002384F83C
S315080123905A3023746374A374E37423756375A37540
S315080123A0E375F0EE499AAB71E2E4002B00F09980EF
S315080123B0002384F85E3084F8303084F8313084F8AC
S315080123C0323084F8333084F8343084F8353084F880
S315080123D0363084F83730F0EE4BBAAB72B7E5002BDE
S315080123E000F08B80002384F8593023726372A3723C
S315080123F0E37223736373A373E373B0EE69AA6B7114
S31508012400F0E4002B73D0002384F8613084F8483057
S3150801241084F8493084F84A3084F84B3084F84C30D3
S3150801242084F84D3084F84E3084F84F30B0EE6BCADC
S315080124306B73DFE5002B66D0002384F85B302376C7
S315080124406376A376E37623776377A377E377B0EEAC
S31508012450689AEB7156E400BF500700206AC700204E
S3150801246040C70020C8060020100700209BB30023A0
S3150801247084F85D3084F8283084F8293084F82A30C5
S3150801248084F82B3084F82C3084F82D3084F82E30DB
S3150801249084F82F30B0EE6ABA6B721AE5F2EE087A52
S315080124A0B4EE679AF1EE10FA3DD0F2EE0A7AF4EE3E
S315080124B0679AF1EE10FA6DD194F95930207A94F8A9
S315080124C009C094F80AE0E67A257B617BA27B07EED0
S315080124D0103AE37B56E6B0EE6ABAFAE4F0EE6C7AA5
S315080124E004E6F0EE4BBA32E5F0EE4CCAC0E5B0EEC2
S315080124F06BCA7FE5F0EE4AAAADE4B0EE69AA71E4CB
S31508012500F0EE499A34E4B0EE689AFFF7FBBB7D4BCF
S315080125101B990022C1E9002390E6D6ED007AF8EE70
S31508012520678AFFF7B9BB94F95A30207C94F811C031
S3150801253094F812E0E67C257D617DA27D07EE103ACE
S31508012540E37D1FE6F8EE677AD0E5D6ED007AF8EE78
S3150801255067BAFCE4D6ED007AB8EE67BAB9E4D6ED07
S31508012560007AB8EE67AA3DE4D6ED007AF8EE679AE6
S31508012570FFF7FEBBD6ED007AF8EE67CA78E5D6ED29
S31508012580007AB8EE67CA35E5D6ED007AB8EE679AED
S31508012590FFF7B8BBF2EE0C7AB4EE67AAF1EE10FAC1
S315080125A01BD0F3EE057AF4EE67AAF1EE10FA23D101
S315080125B094F95D3094F8280094F829C094F82AE033
S315080125C094F82B6094F82C5094F82D1094F82E203A
S315080125D007EE103A94F82F30D4E594F9583020785C
S315080125E094F801C094F802E0E67825796179A27930
S315080125F007EE103AE379C5E5F3EE067AB4EE67BA63
S31508012600F1EE10FA14D194F95E3094F8300094F88A
S3150801261031C094F832E094F8336094F8345094F861
S31508012620351094F8362007EE103A94F83730A9E5B4
S31508012630F3EE077AF4EE67BAF1EE10FA14D194F9CB
S31508012640613094F8480094F849C094F84AE094F83F
S315080126504B6094F84C5094F84D1094F84E2007EEC0
S31508012660103A94F84F308DE5F3EE087AB4EE67CA5E
S31508012670F1EE10FA14D194F9603094F8400094F808
S3150801268041C094F842E094F8436094F8445094F8B1
S31508012690451094F8462007EE103A94F8473071E54C
S315080126A0F3EE097AF4EE67CAF1EE10FA14D194F949
S315080126B05F3094F8380094F839C094F83AE094F801
S315080126C03B6094F83C5094F83D1094F83E2007EE90
S315080126D0103A94F83F3055E594F9623094F8500071
S315080126E094F851C094F852E094F8536094F8545011
S315080126F094F8551094F8562007EE103A94F8573086
S3150801270040E500BF0000F03F2DE9F04F83B00C46CD
S315080127100E9FDDF8348099460546324BD7E900010C
S315080127201646002217F0D8FF0123C7E9000189F8E8
S31508012730003023682C4A0C99013313602360D8F8BA
S31508012740003007EE903AB8EE677AF7EE007AB4EE03
S31508012750677AF1EE10FA05D1DFF888904FF0000894
S31508012760C1E9008937780193384618F0F1F8DFF89E
S3150801277084801E4A019B1360C8E900012B602F71F2
S3150801278096F807E085F805E096F801C085F806C0D1
S3150801279096F8028085F8078096F8039085F80890E0
S315080127A096F804A085F809A096F805B0104C85F8A6
S315080127B00AB0B079E8721946A071234608220120A9
S315080127C0277084F805B084F804A084F8039084F887
S315080127D0028084F801C084F807E003B0BDE8F04F31
S315080127E011F082BC0000F03F30C2002018BC002066
S315080127F0F806002010C100204B780BB901234B7055
S315080128000B7833B100230B7003701946032013F0BC
S315080128107BBB01230B7003701946032013F074BBAD
S315080128202DE9F04F85B00E9D109C002800F03181EE
S31508012830217809B9012121701F46129B188816466D
S3150801284018F096F88046894602460B4630463946C0
S3150801285018F05CFB08B100232B7042464B46304604
S31508012860394618F05DFB002800F025811799AF4B12
S315080128700022D1E9000118F05DFBA378002800F0D9
S315080128802E810BB90123A370A94B3046D3E9002346
S31508012890394617F021FF129B80461888894618F099
S315080128A057F80022A34B82468B4617F015FF42467E
S315080128B04B4617F00FFF00220023CDE9000118F05F
S315080128C025FB002800F01581199B93F800A0179B9A
S315080128D04FEACA1A5FFA8AFA85F805A0D3E9000110
S315080128E018F084FB00015FFA80FB119B85F806B09E
S315080128F0D3E9000118F07AFB139B139A5044584404
S3150801290018702B7853702B7893702B78D3702B789B
S3150801291013712B7853712B7893712B78D3710F9B85
S31508012920159A5B681360129B188818F011F84246CD
S315080129304B4617F0CFFE002200238046894618F041
S31508012940E5FA002840F0D2807B4BD3E900AB0022A0
S3150801295000235046594618F0D9FA002840F0E2807B
S3150801296052465B4640464946FDF7CEFB0023002208
S3150801297018F0CCFA4FF0010300B90346DBB2AB708D
S3150801298018996A4B0022D1E9000118F0D3FA0028F8
S3150801299000F09C8063780BB901236370674B30465E
S315080129A0D3E90023394617F097FE129B0646188885
S315080129B00F4617F0CDFF00225E4B8046894617F079
S315080129C08BFE32463B4617F085FE002200238246DF
S315080129D08B4618F09BFA002800F0B480199B1878EA
S315080129E0189BC0015FFA80F885F80380D3E90001D6
S315080129F018F0FCFA0001C4B2119B2C71D3E900014D
S31508012A0018F0F4FA149B149A2044404418702B7851
S31508012A1053702B7893702B78D3702B7813712B788E
S31508012A2053712B7893712B78D3710F9B169A1B6868
S31508012A301360129B188817F08BFF32463B4617F036
S31508012A4049FE002200238046894618F05FFA0028CD
S31508012A5040F092803A4BD3E90067002200233046C2
S31508012A60394618F053FA002840F0838032463B462F
S31508012A7040464946FDF748FB0023002218F046FA6E
S31508012A804FF0010300B90346DBB26B7005B0BDE830
S31508012A90F08F2378002BF9D0A3780BB1A870A0701A
S31508012AA063780BB1002363700023AB706B702370DE
S31508012AB005B0BDE8F08FA378A3B942464B46304628
S31508012AC0394618F02DFA00287FF45AAF6378002B9F
S31508012AD0DCD000236B70637005B0BDE8F08F002B66
S31508012AE03FF44EAF0023AB70A370E6E70123AB704A
S31508012AF046E7114B93ED007B0022002351EC170B9F
S31508012B008DED027B18F002FA00284AD042464B4660
S31508012B105046594617F0DEFD0022002318F0F6F953
S31508012B200028E3D10023AB702AE700BF00001C4050
S31508012B30A00000200000F03F70000020A80000203F
S31508012B4090000020204B93ED007B0022002351ECDE
S31508012B50170B8DED007B18F0D9F980B132463B464B
S31508012B604046494617F0B6FD0022002318F0CEF973
S31508012B7010B900236B7089E701236B7086E7DDE9DD
S31508012B80002350465946FDF7BFFA0022002318F0E4
S31508012B90BDF900287FF422AF129B188817F0D8FEDA
S31508012BA04BE7DDE90223DDE90001FDF7ADFA002275
S31508012BB0002318F0ABF900287FF486AE129B18881B
S31508012BC017F0C6FEB3E600BF900000200B791BB1D3
S31508012BD00023C37103720B714B7843B1CB7813B1E0
S31508012BE000238370CB708B7843B900234B70002385
S31508012BF08370C371437003720B70704700238B7027
S31508012C00F3E700BF2DE9F04F9BB016462F9A1392B2
S31508012C10309A1492319A1592329A16921F46339A1D
S31508012C20299B10930B922B9B349A0A930C922C9BFB
S31508012C30359A11930D922D9B369A129326AC249DA3
S31508012C40DDF89480DDF8A8B02E9B0E9294E8100664
S31508012C50379A0F92389A1792002840D022780AB9E3
S31508012C6001222270CDE91867D3E900670022304BAB
S31508012C703046394618F04AF94FF0010E002833D08C
S31508012C803046394600222A4B5FFA8EF618F03EF98D
S31508012C90002832D023791BB10023EB712B722371E3
S31508012CA00F9B2F930E9B2E930D9B2D930C9B2C9371
S31508012CB00B9B2B930A9B2A93DDE918230134304693
S31508012CC02694CDF8A4B0CDF8A0A0CDF89C90CDF867
S31508012CD0948024951BB0BDE8F04FFFF7A1BD23787A
S31508012CE023B91BB0BDE8F08F8646C9E721462846B9
S31508012CF01BB0BDE8F04FFFF769BF179A0992169AFC
S31508012D000892159A0792149A0692139A0592129A9C
S31508012D100492119A0392231D109A02928DE80804CF
S31508012D20EA1D08F10803DDE91801FDF787F9B7E798
S31508012D300000F03F2DE9F04F85B00E9D109C00284C
S31508012D4000F03481217809B9012121701F46129BAF
S31508012D501888164617F00CFE8046894602460B4629
S31508012D603046394618F0D2F820B100232B70159B4E
S31508012D701B786B7042464B463046394618F0D0F8F8
S31508012D80002800F025811899AE4B0022D1E90001EF
S31508012D9018F0D0F8A378002800F02E810BB901238A
S31508012DA0A370A94B3046D3E90023394617F094FCA2
S31508012DB0129B80461888894617F0CAFD0022A34B44
S31508012DC082468B4617F088FC42464B4617F082FC32
S31508012DD000220023CDE9000118F098F8002800F038
S31508012DE015811A9B93F800A0189B4FEACA1A5FFA35
S31508012DF08AFA85F806A0D3E9000118F0F7F8000168
S31508012E005FFA80FB119B85F807B0D3E9000118F03A
S31508012E10EDF8139B139A5044584418706B78537005
S31508012E202B7893702B78D3702B7813712B78537179
S31508012E302B7893712B78D3710F9B169A5B68136065
S31508012E40129B188817F084FD42464B4617F042FC40
S31508012E50002200238046894618F058F8002840F0D9
S31508012E60D2807B4BD3E900AB00220023504659465A
S31508012E7018F04CF8002840F0E28052465B4640467E
S31508012E804946FDF741F90023002218F03FF84FF0B3
S31508012E90010300B90346DBB2EB701999694B0022AD
S31508012EA0D1E9000118F046F8002800F09C80637803
S31508012EB00BB901236370674B3046D3E900233946C2
S31508012EC017F00AFC129B064618880F4617F040FDB4
S31508012ED000225E4B8046894617F0FEFB32463B468A
S31508012EE017F0F8FB0022002382468B4618F00EF8ED
S31508012EF0002800F0B3801A9B1878199BC0015FFA65
S31508012F0080F885F80480D3E9000118F06FF800010C
S31508012F10C4B2119B6C71D3E9000118F067F8149BD0
S31508012F20149A2044404418706B7853702B78937028
S31508012F302B78D3702B7813712B7853712B78937167
S31508012F402B78D3710F9B179A1B681360129B1888ED
S31508012F5017F0FEFC32463B4617F0BCFB0022002365
S31508012F608046894617F0D2FF002840F091803A4BF7
S31508012F70D3E90067002200233046394617F0C6FF19
S31508012F80002840F0828032463B4640464946FDF7D6
S31508012F90BBF80023002217F0B9FF4FF0010300B96F
S31508012FA00346DBB2AB7005B0BDE8F08F2378002B82
S31508012FB0F9D0A3780BB1E870A07063780BB1002340
S31508012FC063700023EB70AB70237005B0BDE8F08F1A
S31508012FD0A378A3B942464B463046394617F0A0FFB7
S31508012FE000287FF45AAF6378002BDCD00023AB703E
S31508012FF0637005B0BDE8F08F002B3FF44EAF002398
S31508013000EB70A370E6E70123EB7046E7104B93EDEF
S31508013010007B0022002351EC170B8DED027B17F084
S3150801302075FF002849D042464B465046594617F087
S3150801303051FB0022002317F069FF0028E3D1002382
S31508013040EB702AE700001C40A00000200000F03FBA
S3150801305070000020A800002090000020204B93ED6E
S31508013060007B0022002351EC170B8DED007B17F036
S315080130704DFF80B132463B464046494617F02AFB8A
S315080130800022002317F042FF10B90023AB708AE72C
S315080130900123AB7087E7DDE9002350465946FDF762
S315080130A033F80022002317F031FF00287FF423AFFD
S315080130B0129B188817F04CFC4CE7DDE90223DDE981
S315080130C00001FDF721F80022002317F01FFF002851
S315080130D07FF487AE129B188817F03AFCB4E600BF56
S315080130E090000020F0B585B00EAC70CC002830D029
S315080130F0287808B9012028701846174600295FD193
S31508013100AB78002B4DD1002F4FD16B78002B45D1D1
S31508013110A37D002B2DD0637D3370A37B7370E37B76
S31508013120B370237CF370637C3371A37C7371E37C86
S31508013130B371237DF371A37D002B2DD1237A00333F
S3150801314018BF012313990B70119B01221A7005B040
S31508013150F0BD2B78002BFAD0AB780BB1A075A8700F
S315080131606B7813B1002323726B7000232B7005B0A3
S31508013170F0BDE3793370237873706378B370A378FD
S31508013180F370E3783371237973716379B371A37932
S31508013190F371A37D002BD1D00123D3E727726F707A
S315080131A0B6E7A175A970002FAFD0129B029301351E
S315080131B001950094DDE90C230A98FDF74BF9A7E779
S315080131C004F10E02129B0293A91C00920191DDE9FA
S315080131D00C23FDF7EDF896E7F0B585B00EAC70CC8B
S315080131E0002830D0287808B90120287018461746D3
S315080131F000295FD1AB78002B4DD1002F4FD16B78C9
S31508013200002B45D1A37D002B2DD0637D3370A37B85
S315080132107370E37BB370237CF370637C3371A37C97
S315080132207371E37CB371237DF371A37D002B2DD1DB
S31508013230237A003318BF012313990B70119B0122BE
S315080132401A7005B0F0BD2B78002BFAD0AB780BB10C
S31508013250A075A8706B7813B1002323726B700023D5
S315080132602B7005B0F0BDE3793370237873706378FA
S31508013270B370A378F370E378337123797371637943
S31508013280B371A379F371A37D002BD1D00123D3E7C1
S3150801329027726F70B6E7A175A970002FAFD0129B80
S315080132A00293013501950094DDE90C230A98FDF78F
S315080132B0D1F8A7E704F10E02129B0293A91C00920A
S315080132C00191DDE90C23FDF773F896E7F0B585B0B2
S315080132D00EAC70CC002830D0287808B901202870A7
S315080132E01846174600295FD1AB78002B4DD1002F20
S315080132F04FD16B78002B45D1A37D002B2DD0637D53
S315080133003370A37B7370E37BB370237CF370637CA8
S315080133103371A37C7371E37CB371237DF371A37D50
S31508013320002B2DD1237A003318BF012313990B7073
S31508013330119B01221A7005B0F0BD2B78002BFAD02B
S31508013340AB780BB1A075A8706B7813B10023237203
S315080133506B7000232B7005B0F0BDE37933702378C9
S3150801336073706378B370A378F370E3783371237954
S3150801337073716379B371A379F371A37D002BD1D0EE
S315080133800123D3E727726F70B6E7A175A970002FDD
S31508013390AFD0129B0293013501950094DDE90C2308
S315080133A00A98FDF757F8A7E704F10E02129B029354
S315080133B0A91C00920191DDE90C23FCF7F9FF96E7B8
S315080133C038B521F000430D4600221946154B04462F
S315080133D017F0A6FDC8B10022134B2046294617F05F
S315080133E0B3FDA8B90022114B2046294617F0B6FDB0
S315080133F048B9204629460C4B002217F06BF9BDE85F
S31508013400384016F0C1BE002400252046294638BD9D
S3150801341020462946044B002217F05EF9BDE83840DC
S3150801342016F03ABF000030430000E03F0000E0BF5D
S3150801343038B500210446022012F034FD1A4B002249
S315080134400125C4E98623C4E95623C4E9302384F84F
S31508013450C552FDF7DDFDFEF799FB0021084612F07E
S3150801346021FD2846002112F01DFD0021102012F031
S3150801347019FD0021042012F015FD0021122012F079
S3150801348011FD0021132012F00DFD00210E2012F06E
S3150801349009FD00210F2012F005FD00210320BDE8DA
S315080134A0384012F0FFBC00BF0000F03F00000000EA
S315080134B02DE9F04F2DED068B9346ADF5717D92F80A
S315080134C02B23169382460C4612B901238BF82B330C
S315080134D09BF8C432002B01F06B8000238BF8C432B1
S315080134E019468AF86C30022012F00EFD9BF8C53297
S315080134F0002B00F0AB859BF8273313B901238BF812
S315080135002733DDF824341B78002B42F07C85DDF85F
S3150801351028341D78003518BF0125DDF80034D3E9B4
S3150801352000670022B24B3046394617F0EFFC48B91E
S3150801353000224FF080433046394617F0E7FC002851
S3150801354002F0BD859BF8E332002B02F0CA859BF891
S315080135502833002B02F0CD85002D46F074809BF8A8
S31508013560E332B3B1DDF8081400224FF08043C1E914
S315080135700023DDF80424B4F87835138094F89435DB
S315080135808BF8B4329BF8E3321BB1994B0022CBE995
S315080135900823DDF82424964900231370DDF828242E
S315080135A000260027002013708BF8E332CBE99A67CF
S315080135B0CAE9000100230022DAE9000117F0A6FC96
S315080135C04FF0010300B90346DBE99A678BF8C53268
S315080135D03046884B3946002217F0B6FC4FF00103F6
S315080135E000B903468BF8E3320022824B304639464E
S315080135F017F0AAFC002808F0CD867F4B0022CBE9FC
S315080136009A239BF8B43207EE903AF8EEE77ADDF89A
S315080136100434F5EE407AF1EE10FA18880CBF774FAC
S31508013620774F17F0A5F9002602460B46304639466C
S3150801363017F06CFCB8B1DDF80424002313809BF85D
S31508013640B452284617F094F904F5AE63D3E900237A
S3150801365017F066FC6B4B002802F0D88401351D7003
S315080136601B788BF8B4329BF8C5529BF8E432002DCF
S3150801367040F0FF8413B901238BF8E432DDF80034F6
S31508013680D3E9008900225A4B4046494617F03EFCC9
S31508013690002800F099879BF8FA3213B901238BF8B1
S315080136A0FA329BF8B43207EE903AB8EEE79A9BF8ED
S315080136B01833B5EE409AF1EE10FA42F0C98613B9FD
S315080136C001238BF81833DDF80434DFED4F9AB3F88C
S315080136D0008007EE908AF8EEE78A08EE108AF4EE83
S315080136E0E98AF1EE10FAC0F20B81404617F040F96B
S315080136F004F59A63D3E9002317F012FC002800F0B9
S31508013700FF80F4EE698AF1EE10FA40F0F980DDF8EF
S315080137100014374B0022D1E9000117F0F7FB002806
S315080137204BF09C859BF8D932002B0BF0C3851E9074
S31508013730DDF80014354B0022D1E9000117F0E6FB4C
S3150801374000280BF08D859BF8C832002B0BF0BE853F
S315080137501D46002318939BF8D772002F4DF03F871B
S31508013760DBE948010022224B16F0B6FFCBE94801F6
S315080137704FF00109DDF80014254B0022D1E90001BB
S3150801378017F0C4FB00280BF0848500231A93002D3B
S315080137904BF07684DDF808141D4B0022D1E90001AF
S315080137A017F0B4FB00280CF0E984DDF80014184B77
S315080137B00022D1E9000117F0A9FB00280BF031849A
S315080137C01C952E46DDF80814094B0022D1E90001A3
S315080137D017F09CFBF0B1DDF80014054B0022D1E986
S315080137E0000117F093FB00280BF03F8412E000BF9D
S315080137F00000F03F002092400000F0BF00308140F9
S31508013800001083403AC100200000EB43000010403D
S315080138100000084000231E9A002A4BF0F483B9F1F0
S31508013820000F4BF034831A9A002A4BF03083189A0A
S31508013830002A4BF02C83002B4BF02983002E4BF0EA
S3150801384026831C9B002B18BF0127DBE99201AB4B92
S315080138508BF8C672C3E90001D3E90023CBE99223A9
S31508013860B9F1000F0BF01683A54B0022DBE9940191
S3150801387016F032FFA34BC3E90001D3E90023CBE9D4
S3150801388094231A9B002B0BF013839D4B0022DBE933
S31508013890960116F021FF9C4BC3E90001D3E90023E9
S315080138A0CBE99623189B002B0BF0FB82944B002245
S315080138B0DBE9980116F010FF944BC3E90001D3E93F
S315080138C00023CBE9982395B9DDF80034DDF808140F
S315080138D0D3E90023D1E9000117F018FB38B9DBE970
S315080138E04C010022864B16F0F7FECBE94C01DDF8B8
S315080138F0402401231370DDF804341B8808EE103ABE
S31508013900DFED839AB8EEC8AAB4EEE9AAF1EE10FA89
S31508013910C0F2828218EE100A17F02AF804F59B63A2
S31508013920D3E9002317F0FCFA002800F07582B4EEFB
