S02500002E2E2F48414E636F6465725F453430375F5454415F54656D706C6174652E737265636E
S31508004000C4CE0020D9C60108000000000000000048
S315080040100000000000000000000000000000000092
S31508004020000000000000000000000000C99401081C
S31508004030000000000000000065950108B59501081C
S315080040400000000000000000000000000000000062
S315080040500000000000000000000000000000000052
S3150800406000000000A5A201080000000000000000F2
S315080040700000000000000000000000000000000032
S31508004080000000000000000000000000F1880108A0
S31508004090A9880108CD8801081589010800000000D3
S315080040A091A201087DA2010869A2010859A2010886
S315080040B045A2010831A201081DA20108000000005E
S315080040C000000000000000000000000000000000E2
S315080040D000000000A9AC0108C1AC0108D9AC010870
S315080040E00000000000000000A1AD0108000000006B
S315080040F009A20108F5A10108E5A1010800000000D0
S315080041000000000009AD01080000000000000000E2
S315080041100000000000000000000000000000000091
S315080041200000000000000000000000000DAD0108BE
S3150800413000000000D5A201080000000081890108DE
S31508004140398901085D890108A5890108D1AD0108E9
S31508004150000000000000000000000000F1AC0108AB
S315080041600000000000000000000000000000000041
S315080041700000000000000000000000000000000031
S311080041800000000000000000EE11AA5527
S3150800C000000000000000000000000000000044409E
S3150800C0100000000000004640000000000000474005
S3150800C02000000000000048400000000000004940F1
S3150800C0300000000000004A400000000000005740D1
S3150800C04000000000000058400000000000005940B1
S3150800C05000000000008061400000000000C0614050
S3150800C06000000000000062400000000000806240FE
S3150800C07000000000008067400000000000006840E3
S3150800C08000000000008068400000000000006940D1
S3150800C09000000000008069400000000000006A40BF
S3150800C0A000000000000000000000000000004440FE
S3150800C0B00000000000004640000000000000474065
S3150800C0C000000000000069400000000000406940D0
S3150800C0D00000000000000000000000000000F03F23
S3150800C0E0000000000000F03F000000000000F03FE4
S3150800C0F0000000000000F03F000000000000F03FD4
S3150800C1000000000000000000000000000000F03FF2
S3150800C110000000000000F03F0000000000000000E2
S3150800C120000000000000F03F000000000000F03FA3
S3150800C130000000000000F03F0000000000000000C2
S3150800C140000000000000F03F000000000000F03F83
S3150800C150000000000000F03F000000000000F03F73
S3150800C160000000000000F03F000000000000F03F63
S3150800C1700000000000000000000000000000F03F82
S3150800C180000000000000F03F000000000000F03F43
S3150800C190000000000000F03F000000000000F03F33
S3150800C1A00000010101000100010100000001000179
S3150800C1B000000000008069400000000000004640C2
S3150800C1C00000000000004840000000000000444055
S3150800C1D0000000000000694000000000008069407F
S3150800C1E00000000000806A400000000000006A406D
S3150800C1F00000000000004640000000000000484023
S3150800C2000000000000004A400000000000005940FD
S3150800C2100000000000005840000000000080624056
S3150800C2200000000000006240000000000080684036
S3150800C23000000000000068400000000000004440C4
S3150800C2400000000000806740000000000000574022
S3150800C2500000000000806140000000000000F03F80
S3150800C26000000000000000010100000001000000BD
S3150800C2700100000001000000000000000D000000A1
S3150800C2800D0000000D0000000D0000000000000079
S3150800C2900C0000000C0000000C0000000C00000060
S3150800C2A0000000000B0000000B0000000B0000005F
S3150800C2B00B00000000000000010000000100000063
S3150800C2C0010000000100000000000000000000005E
S3150800C2D06464640048414E636F6465725F45343038
S3150800C2E0375F5454415F54656D706C6174655F7354
S3150800C2F06F66747761726549445F76315F313130B4
S3150800C3003532325F31373033333000004170704395
S3150800C31074726C5461736B0048414E636F64657246
S3150800C3205F453430375F5454415F54656D706C61B6
S3150800C33074652E630000000020000000001402400F
S3150800C34008000900200000000014024010000E003A
S3150800C350200000000014024020000F00200000000A
S3150800C36000140240400004002000000000140240AF
S3150800C37080000500200000000014024000010600AD
S3150800C3802000000000140240000207002000000000
S3150800C39000140240000408000400000000080240DF
S3150800C3A001000A00040000000008024004000C0016
S3150800C3B0414443636F6E76657273696F6E54617339
S3150800C3C06B0000002E2E2F626C6F636B7365742FE3
S3150800C3D07274772F53544D33322F7372632F6865F7
S3150800C3E061705F342E630000546D724370754C6F34
S3150800C3F06164000049444C45000000002E2E2F625F
S3150800C4006C6F636B7365742F7274772F53544D3347
S3150800C410322F7372632F7461736B732E630000007F
S3150800C4202E2E2F626C6F636B7365742F7274772F61
S3150800C43053544D33322F7372632F74696D6572735B
S3150800C4402E630000546D72205376630043616E4577
S3150800C45076656E745461736B0000000043616E5418
S3150800C46072616E736D69745461736B002E2E2F6240
S3150800C4706C6F636B7365742F7274772F53544D33D7
S3150800C480322F7372632F53544D33325F453430372E
S3150800C4902F63616E2E6300000064004000000002F6
S3150800C4A008000000000C024001000000080000001F
S3150800C4B0000C0240020001000913141516000000C2
S3150800C4C0006800400000000402000000000402406A
S3150800C4D0200005000200000000040240400006009B
S3150800C4E0093F404142000000010102010202020226
S3150800C4F002030202040202030303040303050303FF
S3150800C50006030305040406040407040408040407D0
S3150800C51005050805050806050807050807060808A5
S3150800C5200608080708080800457643686E6C310057
S3150800C530457643686E6C3200457643686E6C330008
S3150800C5402E2E2F626C6F636B7365742F7274772F40
S3150800C55053544D33322F7372632F53544D33325F16
S3150800C560453430372F6D61632E6300002E2E2F62FF
S3150800C5706C6F636B7365742F7274772F53544D33D6
S3150800C580322F7372632F53544D33325F453430372D
S3150800C5902F706F72742E63000000014001000000C6
S3150800C5A0020100001000000000100240000209000D
S3150800C5B0100000000010024000080B0000040040B4
S3150800C5C00200000001020000010000000000024015
S3150800C5D0400006000200000000040240200005009A
S3150800C5E000080040040000000102000008000000E6
S3150800C5F0000C024000100C0008000000000C02406D
S3150800C60000200D00000401400200000002030000A3
S3150800C6100400000000080240400006000400000074
S3150800C62000080240800007000000014001000000E9
S3150800C63002011900000000400100000001021C0070
S3150800C640000400400200000001021D00000800402E
S3150800C6500400000001021E00000401400200000060
S3150800C66002012C00004001400000010002011800F0
S3150800C6700044014000000200020119000048014080
S3150800C6800000040002011A00001C0040800000009F
S3150800C69001022C00002000400001000001022D00CC
S3150800C6A0040000000008024001000000200000000D
S3150800C6B00014024040000000200000000014024060
S3150800C6C08000000020000000001402400001000065
S3150800C6D020000000001402400002000020000000B4
S3150800C6E0001402400004000002000000000402409A
S3150800C6F08000000002000000000402404000000024
S3150800C70010000000001002400400000010000000A5
S3150800C7100010024010000000100000000010024047
S3150800C7202000000010000000001002404000000039
S3150800C7304000000000180240800000004000000091
S3150800C74000180240000100004000000000180240E6
S3150800C75000100000400000000018024000800000A1
S3150800C7600100000000000240100000000200000066
S3150800C7700004024020000000010000000000024002
S3150800C78040000000010000000000024020000000F8
S3150800C79008000000000C024001000000080000002C
S3150800C7A0000C02400200000008000000000C0240D5
S3150800C7B00400000008000000000C02400800000009
S3150800C7C008000000000C02401000000008000000ED
S3150800C7D0000C02402000000008000000000C024087
S3150800C7E04000000008000000000C02408000000025
S3150800C7F008000000000C02400001000008000000CC
S3150800C800000C02400002000008000000000C024074
S3150800C8100004000008000000000C024000080000A8
S3150800C82008000000000C024000100000080000008C
S3150800C830000C02400020000008000000000C024026
S3150800C8400040000008000000000C024000800000C4
S3150800C8501000000000100240010000001000000057
S3150800C8600010024002000000100000000010024004
S3150800C87008000000100000000010024080000000C0
S3150800C8801000000000100240000100001000000027
S3150800C89000100240000200001000000000100240D4
S3150800C8A0000400001000000000100240000800000C
S3150800C8B010000000001002400010000010000000E8
S3150800C8C00010024000200000100000000010024086
S3150800C8D00040000010000000001002400080000028
S3150800C8E020000000001402400100000020000000A3
S3150800C8F0001402400200000020000000001402405C
S3150800C9000400000020000000001402400800000097
S3150800C9102000000000140240100000002000000063
S3150800C920001402402000000020000000001402400D
S3150800C930000800002000000000140240001000005B
S3150800C9402000000000140240002000002000000023
S3150800C95000140240004000002000000000140240BD
S3150800C960008000004000000000180240010000009E
S3150800C97040000000001802400200000040000000CD
S3150800C98000180240040000004000000000180240A1
S3150800C99008000000400000000018024010000000D7
S3150800C9A0400000000018024020000000400000007F
S3150800C9B00018024040000000400000000018024035
S3150800C9C000020000400000000018024000040000B9
S3150800C9D04000000000180240000800004000000067
S3150800C9E00018024000200000400000000018024025
S3150800C9F000400000010000000000024001000000A5
S3150800CA0004000000000802400100000020000000A9
S3150800CA1000140240400000002000000000140240FC
S3150800CA208000000020000000001402400001000001
S3150800CA302000000000140240000200002000000050
S3150800CA400014024000040000020000000004024036
S3150800CA5080000000020000000004024040000000C0
S3150800CA601000000000100240040000001000000042
S3150800CA7000100240100000001000000000100240E4
S3150800CA8020000000100000000010024040000000D6
S3150800CA90400000000018024080000000400000002E
S3150800CAA00018024000010000400000000018024083
S3150800CAB0001000004000000000180240008000003E
S3150800CAC00100000000000240100000000200000003
S3150800CAD0000402402000000001000000000002409F
S3150800CAE04000000001000000000002402000000095
S3150800CAF008000000000C02400100000008000000C9
S3150800CB00000C02400200000008000000000C024071
S3150800CB100400000008000000000C024008000000A5
S3150800CB2008000000000C0240100000000800000089
S3150800CB30000C02402000000008000000000C024023
S3150800CB404000000008000000000C024080000000C1
S3150800CB5008000000000C0240000100000800000068
S3150800CB60000C02400002000008000000000C024011
S3150800CB700004000008000000000C02400008000045
S3150800CB8008000000000C0240001000000800000029
S3150800CB90000C02400020000008000000000C0240C3
S3150800CBA00040000008000000000C02400080000061
S3150800CBB010000000001002400100000010000000F4
S3150800CBC000100240020000001000000000100240A1
S3150800CBD0080000001000000000100240800000005D
S3150800CBE010000000001002400001000010000000C4
S3150800CBF00010024000020000100000000010024071
S3150800CC0000040000100000000010024000080000A8
S3150800CC101000000000100240001000001000000084
S3150800CC200010024000200000100000000010024022
S3150800CC3000400000100000000010024000800000C4
S3150800CC40200000000014024001000000200000003F
S3150800CC5000140240020000002000000000140240F8
S3150800CC600400000020000000001402400800000034
S3150800CC702000000000140240100000002000000000
S3150800CC8000140240200000002000000000140240AA
S3150800CC9000080000200000000014024000100000F8
S3150800CCA020000000001402400020000020000000C0
S3150800CCB0001402400040000020000000001402405A
S3150800CCC0008000004000000000180240010000003B
S3150800CCD0400000000018024002000000400000006A
S3150800CCE0001802400400000040000000001802403E
S3150800CCF00800000040000000001802401000000074
S3150800CD00400000000018024020000000400000001B
S3150800CD1000180240400000004000000000180240D1
S3150800CD200002000040000000001802400004000055
S3150800CD304000000000180240000800004000000003
S3150800CD4000180240002000004000000000180240C1
S3150800CD500040000004000000000802400020000017
S3150800CD60000001400100000002011B000000004015
S3150800CD700100000001021C0000040040020000003F
S3150800CD8001021D00000800400400000001021E0008
S3150800CD90000401400200000002012E00004001408C
S3150800CDA000000100020118000044014000000200D2
S3150800CDB002011900004801400000040002011A009F
S3150800CDC0001C00408000000001022C0000200040EA
S3150800CDD00001000001022D001000000000100240B2
S3150800CDE00002000002000200010009001000000015
S3150800CDF000100240000800010400200001000B009A
S3150800CE001000000000100240002000020800000286
S3150800CE1001000D0010000000001002400040000351
S3150800CE201000002001000E00010000000000024072
S3150800CE3020000100020002000100050001000000B8
S3150800CE400000024040000200020002000200060044
S3150800CE500200000000040240200002010400200035
S3150800CE600200050008000000000C02400010030044
S3150800CE700200020002000C0008000000000C02403C
S3150800CE80002003010400200002000D000400000039
S3150800CE9000080240400004000200020003000600E9
S3150800CEA0040000000008024080000401040020007D
S3150800CEB003000700100000000010024020000500D3
S3150800CEC002000200030005001000000000100240E6
S3150800CED040000501040020000300060020000000B1
S3150800CEE0001402404000060002000200030006008B
S3150800CEF02000000000140240800007000200020023
S3150800CF00030007002000000000140240000108008A
S3150800CF100200020009000800200000000014024078
S3150800CF200002090002000200090009000010014081
S3150800CF301000000002250000020000000004024064
S3150800CF4040000600020000000004024080000700BE
S3150800CF50070000000044004000000200012600000F
S3150800CF6008000000000C0240200005000800000030
S3150800CF70000C024040000600070000000048004080
S3150800CF80000004000127000008000000000C024011
S3150800CF900001080008000000000C02400002090019
S3150800CFA007000000001401402000000002470000AE
S3150800CFB004000000000802404000060004000000CB
S3150800CFC00008024080000700080000005643502071
S3150800CFD0436F6E666967000056435020496E746554
S3150800CFE0726661636500000053544D6963726F652C
S3150800CFF06C656374726F6E696373000053544D33C6
S3150800D00032205669727475616C20436F6D506F7269
S3150800D0107420696E204853206D6F64650000000017
S3150800D02053544D3332205669727475616C20436FC0
S3150800D0306D506F727420696E204653204D6F64657B
S3150800D040000000003030303030303030303530427B
S3150800D050000000003030303030303030303530436A
S3150800D06000000000000001400100000002011B0052
S3150800D070000000400100000001021C0000040040FE
S3150800D0800200000001021D00000800400400000024
S3150800D09001021E00000401400200000002012E00E9
S3150800D0A00040014000000100020118000044014050
S3150800D0B000000200020119000048014000000400B7
S3150800D0C002011A00001C00408000000001022C002A
S3150800D0D0002000400001000001022D0010000000A1
S3150800D0E000100240000200000200020001000900D0
S3150800D0F01000000000100240000800010400200093
S3150800D10001000B0010000000001002400020000281
S3150800D1100800000201000D00100000000010024087
S3150800D120004000031000002001000E00010000006E
S3150800D1300000024020000100020002000100050074
S3150800D1400100000000000240400002000200020048
S3150800D150020006000200000000040240200002014E
S3150800D160040020000200050008000000000C024030
S3150800D170001003000200020002000C000800000074
S3150800D180000C0240002003010400200002000D00EC
S3150800D19004000000000802404000040002000200EB
S3150800D1A00300060004000000000802408000040195
S3150800D1B004002000030007001000000000100240D1
S3150800D1C02000050002000200030005001000000010
S3150800D1D0001002404000050104002000030006007C
S3150800D1E02000000000140240400006000200020071
S3150800D1F0030006002000000000140240800007001B
S3150800D200020002000300070020000000001402408C
S3150800D21000010800020002000900080020000000C2
S3150800D2200014024000020900020002000900090079
S3150800D2302E2E2F626C6F636B7365742F7274772F43
S3150800D24053544D33322F7372632F71756575652E7E
S3150800D250630000000404040068D2000870D20008C5
S3150800D26078D2000807070700457643686E6C3100D8
S3150800D270457643686E6C3200457643686E6C3300BB
S3150800D28050505000666D6F640000000000000000FA
S3150800D2900000000000000000000000000000008000
S3090800D2A04300000039
S315080100000B78FF2B00D070474B78002BFBD106F0FD
S31508010010DBBD00BF08B5012006F0E2F8034A40F24D
S3150801002067610020BDE8084008F024BE0100010808
S31508010030002005F059BF00BF704700BF2DE9F04702
S31508010040DDF820E0099E9EF800C004460D4692465A
S315080100501F46BCF1000F02D101238EF8003030880B
S315080100600EF0DAFF22462B46804689460FF0A2FAA1
S31508010070E0B10E9A3B6813600D9A7B6813600C9A7F
S31508010080BB7A1370109A3B7A13700B9AFB7A13702A
S315080100900F9A7B7A13700A9A002313605360119A98
S315080100A0137030880EF0B8FF8046894642464B46A3
S315080100B0204629460FF088FA68B10B9B1B78D3B9FD
S315080100C001238AF800300C9B1B787BB901238AF837
S315080100D00130BDE8F087002642464B4620462946B0
S315080100E08AF800600FF070FA0028ECD100238AF82C
S315080100F00130BDE8F08700238AF800300C9B1B7895
S31508010100002BF3D1E2E700BF2DE9F04F83B0164685
S315080101101F4682468B460EF09BFC002200230446AE
S315080101200D460FF047FAD8BB804600220023204629
S3150801013029465FFA88F80FF03DFA50B93046394634
S315080101400EF0FEFB02460B46304639460FF05AFAC8
S3150801015090BBB8F1000F5FD15046594600220023E3
S315080101604FF001090FF030FA20B300230022304680
S3150801017039460FF029FA4FF00103A0B15FFA89F960
S31508010180DBB2994507D02046294632463B460EF052
S31508010190F7FD04460D462046294603B0BDE8F08F13
S315080101A04FF00108C1E703465FFA89F9DBB29945C1
S315080101B0E9D1F0E7C146D8E732463B4650465946AB
S315080101C00FF0BAF821F000490022194B494680463A
S315080101D00EF0D6FD0EF0B4FB02460B4640464946E4
S315080101E00EF0CCFD0B46024623F000434046009232
S315080101F0019300220F4B49460EF074FF02460B4647
S31508010200DDE900010FF0EAF94FF0010858B15FFA8C
S3150801021088F8B8F1000F9FD000240025204629460A
S3150801022003B0BDE8F08F80465FFA88F8F1E700BFB2
S315080102300000E03F0000B03C2DE9F0410999089C17
S3150801024091F800E0DDF82880054616461F46BEF1FE
S31508010250000F01D101230B702B785B00DBB25A0921
S3150801026007EE902AB8EEE77AF7EE007AB4EEE77A67
S31508010270F1EE10FAA372227307DDD8E90001002214
S315080102801B4B0EF07DFDC8E900012878C009607393
S315080102902B781B01DBB24FEA1318637284F80B80C3
S315080102A00EF0BAFE32463B460FF084F950B140468D
S315080102B00EF0B2FEDDE906230FF07CF94FF00103DB
S315080102C098B1D8B220726B782370AB786370EB78EB
S315080102D0A3702B79E3706B792371AB796371EB7931
S315080102E0A3710023E371BDE8F0810346E9E700BF86
S315080102F00000F03F2DE9F0410999089C91F800E0CA
S31508010300DDF82880054616461F46BEF1000F01D1C5
S3150801031001230B702B785B00DBB25A0907EE902A92
S31508010320B8EEE77AF7EE007AB4EEE77AF1EE10FA6C
S31508010330A372227307DDD8E9000100221B4B0EF0D8
S315080103401FFDC8E900012878C00960732B781B01D5
S31508010350DBB24FEA1318637284F80B800EF05CFE69
S3150801036032463B460FF026F950B140460EF054FE90
S31508010370DDE906230FF01EF94FF0010398B1D8B253
S3150801038020726B782370AB786370EB78A3702B7946
S31508010390E3706B792371AB796371EB79A3710023F0
S315080103A0E371BDE8F0810346E9E700BF0000F03FCD
S315080103B02DE9F04F83B00C460E9FDDF8348099463F
S315080103C00546324BD7E90001164600220EF0D8FC45
S315080103D00123C7E9000189F8003023682C4A0C99E2
S315080103E0013313602360D8F8003007EE903AB8EE6F
S315080103F0677AF7EE007AB4EE677AF1EE10FA05D16C
S31508010400DFF888904FF00008C1E900893778019331
S3150801041038460EF0F1FDDFF884801E4A019B136011
S31508010420C8E900012B602F7196F807E085F805E009
S3150801043096F801C085F806C096F8028085F8078007
S3150801044096F8039085F8089096F804A085F809A00F
S3150801045096F805B0104C85F80AB0B079E8721946D5
S31508010460A071234608220020277084F805B084F875
S3150801047004A084F8039084F8028084F801C084F803
S3150801048007E003B0BDE8F04F08F080B90000F03F7F
S3150801049014BF0020F0BC0020D006002040BF002079
S315080104A008B50121002008F075FB0B21002008F092
S315080104B071FB0C21002008F06DFB0D21002008F0CE
S315080104C069FB1521002008F065FB1621002008F0BC
S315080104D061FB1721002008F05DFB1821002008F0B8
S315080104E059FB19210020BDE8084008F053BB00BF9D
S315080104F02DE9F04F2DED088B0D460968E34CE44EC6
S3150801050083B00131216029601699DDF85C9009688C
S31508010510316007EE901AB8EE678AF7EE007AB4EE04
S31508010520678AF1EE10FA1F4604469246EB7940F0C7
S315080105309A820BB90123EB71DFF8588300224346EF
S3150801054000921046012108F051FB002884F84B005F
S3150801055040F3A28398F80130637698F80230A376BF
S3150801056098F80330E37698F804302377D6ED007AC5
S3150801057098F80530637798F80630A37798F8072036
S3150801058098F80030E277F8EE678A2376F2EE067A73
S31508010590F4EE678AF1EE10FAAB7940F0E3820BB913
S315080105A00123AB71DFF8F082002243460092104620
S315080105B00B2108F01BFB002884F84A0040F38383CB
S315080105C098F80130637498F80230A37498F80330E8
S315080105D0E37498F804302375D6ED007A98F8053057
S315080105E0637598F80630A37598F8072098F80030CF
S315080105F0E275B8EE679A2374F2EE087AB4EE679A52
S31508010600F1EE10FA6B7940F09C820BB901236B71FC
S31508010610DFF8888200224346009210460C2108F032
S31508010620E5FA002884F8490040F36183D6ED007A9B
S3150801063098F8073098F8062098F8051098F80400F5
S3150801064098F803E098F802C098F801B098F8008085
S3150801065084F809B0F8EE679A84F80AC084F80BE0C2
S3150801066020736173A273E37384F80880F2EE0A7A41
S31508010670F4EE679AF1EE10FA2B7940F050820BB935
S3150801068001232B71DFF81882002243460092104697
S315080106900D2108F0ABFA002884F848001BDD98F80C
S315080106A001B098F802E098F8030098F800C098F8A5
S315080106B0041098F8052098F8063098F8078084F809
S315080106C0078084F801B084F800C084F802E0E0707D
S315080106D021716271A371D6ED007AB8EE67AAF3EEBD
S315080106E0057AB4EE67AAF1EE10FA2B7A40F0FD818D
S315080106F00BB901232B72DFF8AC8100224346009225
S315080107001046152108F072FA002884F84C0040F3C7
S31508010710E98298F8013084F8213098F8023084F893
S31508010720223098F8033084F8233098F8043084F896
S315080107302430D6ED007A98F8053084F8253098F8F3
S31508010740063084F8263098F8072098F8003084F89F
S315080107502720F8EE67AA84F82030F3EE067AF4EE3D
S3150801076067AAF1EE10FA6B7A40F040820BB90123C1
S315080107706B72DFF834810022434600921046162137
S3150801078008F034FA002884F84D0040F3A68298F858
S31508010790013084F8293098F8023084F82A3098F81C
S315080107A0033084F82B3098F8043084F82C30D6EDD1
S315080107B0007A98F8053084F82D3098F8063084F8D0
S315080107C02E3098F8072098F8003084F82F20B8EED4
S315080107D067BA84F82830F3EE077AB4EE67BAF1EE11
S315080107E010FA2B7B40F0D0810BB901232B73DFF86C
S315080107F0BC800022434600921046172108F0F6F9FC
S31508010800002884F8500040F3638298F8013084F890
S31508010810413098F8023084F8423098F8033084F869
S31508010820433098F8043084F84430D6ED007A98F8C5
S31508010830053084F8453098F8063084F8463098F83B
S31508010840072098F8003084F84720F8EE67BA84F84C
S315080108504030F3EE087AF4EE67BAF1EE10FAEB7A65
S3150801086040F0AB810BB90123EB72DFF8448000221B
S31508010870434600921046182108F0B8F9002884F872
S315080108804F00D6ED007A40F31B8213E0A8BC002086
S315080108900CBD002060060020A8060020B80600202E
S315080108A0C806002068060020700600208006002081
S315080108B09006002098F8013084F8393098F802300B
S315080108C084F83A3098F8033084F83B3098F80430C5
S315080108D084F83C3098F8053084F83D3098F80630AD
S315080108E084F83E3098F8072098F8003084F83F20BD
S315080108F0F8EE677A84F83830B3EE097AF4EE477A77
S31508010900F1EE10FAAB7A40F0D8800BB90123AB723D
S31508010910C84D00222B4600921046192108F066F9A7
S31508010920002884F84E0017DD6B78AA7884F83130F0
S31508010930EB7884F8322084F833302A796B7984F895
S315080109403420A97984F83530EA792B7884F8361079
S3150801095084F8372084F83030F7EE007AB4EE678AE7
S31508010960F1EE10FA40F0928094F94B30207E94F81B
S3150801097019C094F81AE0E67E257F617FA27F07EE0B
S31508010980103AE37F99F8004007EE904AF8EEE77AC5
S31508010990F7EE006AF4EE667AF1EE10FA15D1F8EE82
S315080109A0C77AF5EE407AF1EE10FA57D1189C4FF056
S315080109B002084FF0010B89F8008084F800B099F815
S315080109C0004007EE904AF8EEE77AF0EE006AF4EE98
S315080109D0667AF1EE10FA37D1B8EEC77AB7EE008A21
S315080109E0B4EEC87AF1EE10FA38DBFB71189B87F87A
S315080109F001C001243870BA7187F802E0FE703D71B2
S31508010A0079711C70159B8C4A1C704FF0030C89F880
S31508010A1000C0BAF800301380149A13800EF0ECFA6D
S31508010A20169BD3ED007A854BF8EE677AC3E9000188
S31508010A30F4EE487AF1EE10FA00F0288199F80030C0
S31508010A4007EE903AF8EEE77AF5EE407AF1EE10FA0B
S31508010A5004D1189A012389F80030137003B0BDEC4C
S31508010A60088BBDE8F08F73B1002380F84B3003760D
S31508010A7043768376C376037743778377C377F0EE36
S31508010A80488AEB7182E5F0EE488A7FE5F2EE067A4E
S31508010A90F4EE678AF1EE10FA40F0D28094F94A3002
S31508010AA0207C94F811C094F812E0E67C257D617DDE
S31508010AB0A27D07EE103AE37D64E7002B3FF44CAFC5
S31508010AC0002384F84E3084F8303084F8313084F8C5
S31508010AD0323084F8333084F8343084F8353084F889
S31508010AE0363084F83730AB7236E7002B00F0968043
S31508010AF0002384F84C3084F8203084F8213084F8B7
S31508010B00223084F8233084F8243084F8253084F898
S31508010B10263084F82730F0EE4AAA2B721DE6002B00
S31508010B2000F08280002384F8483023706370A37034
S31508010B30E37023716371A371E371B0EE69AA2B7136
S31508010B40CDE5002B73D0002384F8493023726372F4
S31508010B50A372E37223736373A373E373F0EE499A83
S31508010B606B7183E5002B00F08B80002384F84A30F3
S31508010B7023746374A374E37423756375A375E375AA
S31508010B80B0EE689AAB7137E5002B76D0002384F86E
S31508010B90503084F8403084F8413084F8423084F883
S31508010BA0433084F8443084F8453084F8463084F874
S31508010BB04730F0EE4BBA2B734BE6002B63D000237C
S31508010BC084F84F3084F8383084F8393084F83A306C
S31508010BD084F83B3084F83C3084F83D3084F83E3064
S31508010BE084F83F30F0EE6B7AEB7285E6CBB10023E1
S31508010BF084F84D3084F8283084F8293084F82A306E
S31508010C0084F82B3084F82C3084F82D3084F82E3073
S31508010C1084F82F30B0EE6ABA6B72DCE5F0EE4AAAB8
S31508010C209BE5B0EE6ABAD6E5B0EE69AA57E5F0EEED
S31508010C30499A1BE5A006002008BD002030BD00200A
S31508010C40F2EE087AB4EE679AF1EE10FA29D0F2EECE
S31508010C500A7AF4EE679AF1EE10FA4DD194F9483012
S31508010C60207894F801C094F802E0E678257961794C
S31508010C70A27907EE103AE37984E6F0EE4BBAE8E595
S31508010C80B0EE689AB8E4F0EE6B7A35E65D4B1999E1
S31508010C900022C1E90023D1E6D6ED007AF8EE678A8B
S31508010CA074E494F94930207A94F809C094F80AE072
S31508010CB0E67A257B617BA27B07EE103AE37B61E648
S31508010CC0F8EE677A18E6D6ED007AB8EE679A93E4F5
S31508010CD0D6ED007AF8EE67BABBE5D6ED007AB8EE3E
S31508010CE067BA78E5D6ED007AF8EE67AA35E5D6ED66
S31508010CF0007AF8EE679AB9E4F3EE057AB4EE67AAD4
S31508010D00F1EE10FA1BD0F3EE067AF4EE67AAF1EECD
S31508010D1010FA29D194F94D3094F8280094F829C08D
S31508010D2094F82AE094F82B6094F82C5094F82D1036
S31508010D3094F82E2007EE103A94F82F3022E694F90B
S31508010D404C3094F8200094F821C094F822E094F8E5
S31508010D50236094F8245094F8251094F8262007EE79
S31508010D60103A94F827300DE6F3EE077AB4EE67BA2F
S31508010D70F1EE10FA14D194F9503094F8400094F831
S31508010D8041C094F842E094F8436094F8445094F8CA
S31508010D90451094F8462007EE103A94F84730F1E5E5
S31508010DA0F3EE087AF4EE67BAF1EE10FA14D194F973
S31508010DB04F3094F8380094F839C094F83AE094F82A
S31508010DC03B6094F83C5094F83D1094F83E2007EEA9
S31508010DD0103A94F83F30D5E594F94E3094F830003E
S31508010DE094F831C094F832E094F8336094F83450AA
S31508010DF094F8351094F8362007EE103A94F83730FF
S31508010E00C0E500BF0000F03F012108B5084607F01C
S31508010E10C1FE0B21012007F0BDFE0C21012007F0C0
S31508010E20B9FE0D21012007F0B5FE1521012007F0B5
S31508010E30B1FE1621012007F0ADFE1721012007F0AA
S31508010E40A9FE1821012007F0A5FE19210120BDE8F8
S31508010E50084007F09FBE00BF2DE9F04F2DED088B26
S31508010E600D460968E34CE44E83B0013121602960DF
S31508010E701699DDF85C900968316007EE901AB8EEAC
S31508010E80678AF7EE007AB4EE678AF1EE10FA1F4622
S31508010E9004469246EB7940F09A820BB90123EB712D
S31508010EA0DFF858830022012143460092084607F0DD
S31508010EB09DFE002884F84B0040F3A28398F8013080
S31508010EC0637698F80230A37698F80330E37698F8B3
S31508010ED004302377D6ED007A98F80530637798F8C9
S31508010EE00630A37798F8072098F80030E277F8EEED
S31508010EF0678A2376F2EE067AF4EE678AF1EE10FA3D
S31508010F00AB7940F0E3820BB90123AB71DFF8F082CC
S31508010F100022434600920B21012007F067FE0028B4
S31508010F2084F84A0040F3838398F80130637498F88B
S31508010F300230A37498F80330E37498F804302375E3
S31508010F40D6ED007A98F80530637598F80630A375DA
S31508010F5098F8072098F80030E275B8EE679A237476
S31508010F60F2EE087AB4EE679AF1EE10FA6B7940F070
S31508010F709C820BB901236B71DFF8888200224346F4
S31508010F8000920C21012007F031FE002884F849005F
S31508010F9040F36183D6ED007A98F8073098F8062071
S31508010FA098F8051098F8040098F803E098F802C034
S31508010FB098F801B098F8008084F809B0F8EE679AB5
S31508010FC084F80AC084F80BE020736173A273E37393
S31508010FD084F80880F2EE0A7AF4EE679AF1EE10FACE
S31508010FE02B7940F050820BB901232B71DFF8188257
S31508010FF00022434600920D21012007F0F7FD002843
S3150801100084F848001BDD98F801B098F802E098F8D2
S31508011010030098F800C098F8041098F8052098F885
S31508011020063098F8078084F8078084F801B084F8B8
S3150801103000C084F802E0E07021716271A371D6EDF7
S31508011040007AB8EE67AAF3EE057AB4EE67AAF1EE6E
S3150801105010FA2B7A40F0FD810BB901232B72DFF8C8
S31508011060AC810022434600921521012007F0BEFDFE
S31508011070002884F84C0040F3E98298F8013084F896
S31508011080213098F8023084F8223098F8033084F831
S31508011090233098F8043084F82430D6ED007A98F88D
S315080110A0053084F8253098F8063084F8263098F803
S315080110B0072098F8003084F82720F8EE67AA84F804
S315080110C02030F3EE067AF4EE67AAF1EE10FA6B7A9F
S315080110D040F040820BB901236B72DFF8348100229C
S315080110E0434600921621012007F080FD002884F866
S315080110F04D0040F3A68298F8013084F8293098F813
S31508011100023084F82A3098F8033084F82B3098F89E
S31508011110043084F82C30D6ED007A98F8053084F836
S315080111202D3098F8063084F82E3098F8072098F86C
S31508011130003084F82F20B8EE67BA84F82830F3EE29
S31508011140077AB4EE67BAF1EE10FA2B7B40F0D0813C
S315080111500BB901232B73DFF8BC80002243460092AA
S315080111601721012007F042FD002884F8500040F3BA
S31508011170638298F8013084F8413098F8023084F88F
S31508011180423098F8033084F8433098F8043084F8EC
S315080111904430D6ED007A98F8053084F8453098F849
S315080111A0063084F8463098F8072098F8003084F815
S315080111B04720F8EE67BA84F84030F3EE087AF4EE81
S315080111C067BAF1EE10FAEB7A40F0AB810BB901235D
S315080111D0EB72DFF844800022434600921821012071
S315080111E007F004FD002884F84F00D6ED007A40F395
S315080111F01B8213E03CBD002028BF002048060020C2
S3150801120050060020D806002058060020880600202F
S3150801121098060020B0060020C006002098F8013084
S3150801122084F8393098F8023084F83A3098F803305F
S3150801123084F83B3098F8043084F83C3098F8053047
S3150801124084F83D3098F8063084F83E3098F807203F
S3150801125098F8003084F83F20F8EE677A84F8383039
S31508011260B3EE097AF4EE477AF1EE10FAAB7A40F06A
S31508011270D8800BB90123AB72C84D00222B460092C8
S315080112801921012007F0B2FC002884F84E0017DD69
S315080112906B78AA7884F83130EB7884F8322084F8B0
S315080112A033302A796B7984F83420A97984F8353072
S315080112B0EA792B7884F8361084F8372084F83030A8
S315080112C0F7EE007AB4EE678AF1EE10FA40F09280F2
S315080112D094F94B30207E94F819C094F81AE0E67E0A
S315080112E0257F617FA27F07EE103AE37F99F80040D8
S315080112F007EE904AF8EEE77AF7EE006AF4EE667AB8
S31508011300F1EE10FA15D1F8EEC77AF5EE407AF1EE5C
S3150801131010FA57D1189C4FF002084FF0010B89F8C3
S31508011320008084F800B099F8004007EE904AF8EE7C
S31508011330E77AF0EE006AF4EE667AF1EE10FA37D142
S31508011340B8EEC77AB7EE008AB4EEC87AF1EE10FAAB
S3150801135038DBFB71189B87F801C001243870BA7114
S3150801136087F802E0FE703D7179711C70159B8C4AF5
S315080113701C704FF0030C89F800C0BAF800301380CE
S31508011380149A13800DF038FE169BD3ED007A854B1F
S31508011390F8EE677AC3E90001F4EE487AF1EE10FA3D
S315080113A000F0288199F8003007EE903AF8EEE77ACE
S315080113B0F5EE407AF1EE10FA04D1189A012389F86C
S315080113C00030137003B0BDEC088BBDE8F08F73B124
S315080113D0002380F84B30037643768376C37603770A
S315080113E043778377C377F0EE488AEB7182E5F0EEAF
S315080113F0488A7FE5F2EE067AF4EE678AF1EE10FA8C
S3150801140040F0D28094F94A30207C94F811C094F8BF
S3150801141012E0E67C257D617DA27D07EE103AE37D2B
S3150801142064E7002B3FF44CAF002384F84E3084F870
S31508011430303084F8313084F8323084F8333084F827
S31508011440343084F8353084F8363084F83730AB7266
S3150801145036E7002B00F09680002384F84C3084F898
S31508011460203084F8213084F8223084F8233084F837
S31508011470243084F8253084F8263084F82730F0EEB5
S315080114804AAA2B721DE6002B00F08280002384F8FD
S31508011490483023706370A370E37023716371A3717D
S315080114A0E371B0EE69AA2B71CDE5002B73D0002349
S315080114B084F8493023726372A372E37223736373E8
S315080114C0A373E373F0EE499A6B7183E5002B00F081
S315080114D08B80002384F84A3023746374A374E374FD
S315080114E023756375A375E375B0EE689AAB7137E535
S315080114F0002B76D0002384F8503084F8403084F8E5
S31508011500413084F8423084F8433084F8443084F812
S31508011510453084F8463084F84730F0EE4BBA2B73E1
S315080115204BE6002B63D0002384F84F3084F838301B
S3150801153084F8393084F83A3084F83B3084F83C3002
S3150801154084F83D3084F83E3084F83F30F0EE6B7A0B
S31508011550EB7285E6CBB1002384F84D3084F8283048
S3150801156084F8293084F82A3084F82B3084F82C3012
S3150801157084F82D3084F82E3084F82F30B0EE6ABA0C
S315080115806B72DCE5F0EE4AAA9BE5B0EE6ABAD6E5DF
S31508011590B0EE69AA57E5F0EE499A1BE578060020F0
S315080115A048BF002030BF0020F2EE087AB4EE679AF1
S315080115B0F1EE10FA29D0F2EE0A7AF4EE679AF1EE14
S315080115C010FA4DD194F94830207894F801C094F86E
S315080115D002E0E67825796179A27907EE103AE3798E
S315080115E084E6F0EE4BBAE8E5B0EE689AB8E4F0EEB8
S315080115F06B7A35E65D4B19990022C1E90023D1E6DC
S31508011600D6ED007AF8EE678A74E494F94930207ABF
S3150801161094F809C094F80AE0E67A257B617BA27BF7
S3150801162007EE103AE37B61E6F8EE677A18E6D6ED3F
S31508011630007AB8EE679A93E4D6ED007AF8EE67BABF
S31508011640BBE5D6ED007AB8EE67BA78E5D6ED007A4D
S31508011650F8EE67AA35E5D6ED007AF8EE679AB9E4A9
S31508011660F3EE057AB4EE67AAF1EE10FA1BD0F3EEA3
S31508011670067AF4EE67AAF1EE10FA29D194F94D30FB
S3150801168094F8280094F829C094F82AE094F82B6075
S3150801169094F82C5094F82D1094F82E2007EE103A51
S315080116A094F82F3022E694F94C3094F8200094F8F7
S315080116B021C094F822E094F8236094F8245094F811
S315080116C0251094F8262007EE103A94F827300DE6EF
S315080116D0F3EE077AB4EE67BAF1EE10FA14D194F97B
S315080116E0503094F8400094F841C094F842E094F8D8
S315080116F0436094F8445094F8451094F8462007EE50
S31508011700103A94F84730F1E5F3EE087AF4EE67BA41
S31508011710F1EE10FA14D194F94F3094F8380094F890
S3150801172039C094F83AE094F83B6094F83C5094F840
S315080117303D1094F83E2007EE103A94F83F30D5E56F
S3150801174094F94E3094F8300094F831C094F832E0A8
S3150801175094F8336094F8345094F8351094F8362098
S3150801176007EE103A94F83730C0E500BF0000F03FA5
S315080117702DE9F04F83B00C460E9FDDF8348099466B
S315080117800546324BD7E90001164600220DF0F8FA54
S315080117900123C7E9000189F8003023682C4A0C990E
S315080117A0013313602360D8F8003007EE903AB8EE9B
S315080117B0677AF7EE007AB4EE677AF1EE10FA05D198
S315080117C0DFF888904FF00008C1E90089377801935E
S315080117D038460DF011FCDFF884801E4A019B136020
S315080117E0C8E900012B602F7196F807E085F805E036
S315080117F096F801C085F806C096F8028085F8078034
S3150801180096F8039085F8089096F804A085F809A03B
S3150801181096F805B0104C85F80AB0B079E872194601
S31508011820A071234608220120277084F805B084F8A0
S3150801183004A084F8039084F8028084F801C084F82F
S3150801184007E003B0BDE8F04F06F0A0BF0000F03F87
S3150801185048BD002004BB0020D0060020C8BC0020DB
S315080118604B780BB901234B700B7833B100230B70FE
S3150801187003701946032008F099BE01230B70037003
S315080118801946032008F092BE2DE9F04F85B00E9D4A
S31508011890109C002800F03181217809B901212170B5
S315080118A01F46129B188816460DF0B6FB80468946D8
S315080118B002460B46304639460DF07CFE08B1002338
S315080118C02B7042464B46304639460DF07DFE0028C0
S315080118D000F025811799AF4B0022D1E900010DF0DF
S315080118E07DFEA378002800F02E810BB90123A37091
S315080118F0A94B3046D3E9002339460DF041FA129B2C
S315080119008046188889460DF077FB0022A34B82464C
S315080119108B460DF035FA42464B460DF02FFA00225A
S315080119200023CDE900010DF045FE002800F01581E0
S31508011930199B93F800A0179B4FEACA1A5FFA8AFA0D
S3150801194085F805A0D3E900010DF0A4FE00015FFAB0
S3150801195080FB119B85F806B0D3E900010DF09AFECC
S31508011960139B139A5044584418702B7853702B784C
S3150801197093702B78D3702B7813712B7853712B783E
S3150801198093712B78D3710F9B159A5B681360129B21
S3150801199018880DF031FB42464B460DF0EFF900224F
S315080119A00023804689460DF005FE002840F0D280C6
S315080119B07B4BD3E900AB00220023504659460DF074
S315080119C0F9FD002840F0E28052465B46404649460A
S315080119D0FEF79AFB002300220DF0ECFD4FF0010300
S315080119E000B90346DBB2AB7018996A4B0022D1E9FC
S315080119F000010DF0F3FD002800F09C8063780BB917
S31508011A0001236370674B3046D3E9002339460DF04D
S31508011A10B7F9129B064618880F460DF0EDFA002213
S31508011A205E4B804689460DF0ABF932463B460DF0D2
S31508011A30A5F90022002382468B460DF0BBFD00283E
S31508011A4000F0B480199B1878189BC0015FFA80F8DA
S31508011A5085F80380D3E900010DF01CFE0001C4B22C
S31508011A60119B2C71D3E900010DF014FE149B149AF5
S31508011A702044404418702B7853702B7893702B7838
S31508011A80D3702B7813712B7853712B7893712B782C
S31508011A90D3710F9B169A1B681360129B18880DF059
S31508011AA0ABFA32463B460DF069F90022002380461F
S31508011AB089460DF07FFD002840F092803A4BD3E924
S31508011AC0006700220023304639460DF073FD0028D1
S31508011AD040F0838032463B4640464946FEF714FBB2
S31508011AE0002300220DF066FD4FF0010300B90346FD
S31508011AF0DBB26B7005B0BDE8F08F2378002BF9D007
S31508011B00A3780BB1A870A07063780BB1002363703A
S31508011B100023AB706B70237005B0BDE8F08FA37816
S31508011B20A3B942464B46304639460DF04DFD0028CD
S31508011B307FF45AAF6378002BDCD000236B70637097
S31508011B4005B0BDE8F08F002B3FF44EAF0023AB7014
S31508011B50A370E6E70123AB7046E7114B93ED007BD3
S31508011B600022002351EC170B8DED027B0DF022FDAF
S31508011B7000284AD042464B46504659460DF0FEF8D3
S31508011B80002200230DF016FD0028E3D10023AB70D7
S31508011B902AE700BF00001C40200000200000F03F9B
S31508011BA0100000202800002018000020204B93ED8B
S31508011BB0007B0022002351EC170B8DED007B0DF005
S31508011BC0F9FC80B132463B46404649460DF0D6F807
S31508011BD0002200230DF0EEFC10B900236B7089E793
S31508011BE001236B7086E7DDE9002350465946FEF767
S31508011BF08BFA002200230DF0DDFC00287FF422AFCA
S31508011C00129B18880DF0F8F94BE7DDE90223DDE9A7
S31508011C100001FEF779FA002200230DF0CBFC00281B
S31508011C207FF486AE129B18880DF0E6F9B3E600BF7D
S31508011C30180000202DE9F04F85B00E9D109C002854
S31508011C4000F03481217809B9012121701F46129BC0
S31508011C50188816460DF0E0F98046894602460B4675
S31508011C60304639460DF0A6FC20B100232B70159B92
S31508011C701B786B7042464B46304639460DF0A4FC3C
S31508011C80002800F025811899AE4B0022D1E9000100
S31508011C900DF0A4FCA378002800F02E810BB90123CE
S31508011CA0A370A94B3046D3E9002339460DF068F8ED
S31508011CB0129B8046188889460DF09EF90022A34B8F
S31508011CC082468B460DF05CF842464B460DF056F8B7
S31508011CD000220023CDE900010DF06CFC002800F07C
S31508011CE015811A9B93F800A0189B4FEACA1A5FFA46
S31508011CF08AFA85F806A0D3E900010DF0CBFC0001AC
S31508011D005FFA80FB119B85F807B0D3E900010DF056
S31508011D10C1FC139B139A5044584418706B7853703E
S31508011D202B7893702B78D3702B7813712B7853718A
S31508011D302B7893712B78D3710F9B169A5B68136076
S31508011D40129B18880DF058F942464B460DF016F8C5
S31508011D5000220023804689460DF02CFC002840F01D
S31508011D60D2807B4BD3E900AB00220023504659466B
S31508011D700DF020FC002840F0E28052465B464046C2
S31508011D804946FEF7C1F9002300220DF013FC4FF076
S31508011D90010300B90346DBB2EB701999694B0022BE
S31508011DA0D1E900010DF01AFC002800F09C80637847
S31508011DB00BB901236370674B3046D3E900233946D3
S31508011DC00CF0DEFF129B064618880F460DF014F933
S31508011DD000225E4B804689460CF0D2FF32463B46CE
S31508011DE00CF0CCFF0022002382468B460DF0E2FB65
S31508011DF0002800F0B3801A9B1878199BC0015FFA76
S31508011E0080F885F80480D3E900010DF043FC000150
S31508011E10C4B2119B6C71D3E900010DF03BFC149B14
S31508011E20149A2044404418706B7853702B78937039
S31508011E302B78D3702B7813712B7853712B78937178
S31508011E402B78D3710F9B179A1B681360129B1888FE
S31508011E500DF0D2F832463B460CF090FF00220023E3
S31508011E60804689460DF0A6FB002840F091803A4B42
S31508011E70D3E9006700220023304639460DF09AFB64
S31508011E80002840F0828032463B4640464946FEF7E6
S31508011E903BF9002300220DF08DFB4FF0010300B939
S31508011EA00346DBB2AB7005B0BDE8F08F2378002B93
S31508011EB0F9D0A3780BB1E870A07063780BB1002351
S31508011EC063700023EB70AB70237005B0BDE8F08F2B
S31508011ED0A378A3B942464B46304639460DF074FB02
S31508011EE000287FF45AAF6378002BDCD00023AB704F
S31508011EF0637005B0BDE8F08F002B3FF44EAF0023A9
S31508011F00EB70A370E6E70123EB7046E7104B93ED00
S31508011F10007B0022002351EC170B8DED027B0DF09F
S31508011F2049FB002849D042464B46504659460CF0D3
S31508011F3025FF002200230DF03DFB0028E3D10023F5
S31508011F40EB702AE700001C40200000200000F03F4B
S31508011F50100000202800002018000020204B93EDD7
S31508011F60007B0022002351EC170B8DED007B0DF051
S31508011F7021FB80B132463B46404649460CF0FEFEFF
S31508011F80002200230DF016FB10B90023AB708AE777
S31508011F900123AB7087E7DDE9002350465946FEF772
S31508011FA0B3F8002200230DF005FB00287FF423AFC8
S31508011FB0129B18880DF020F84CE7DDE90223DDE9CC
S31508011FC00001FEF7A1F8002200230DF0F3FA00281C
S31508011FD07FF487AE129B18880DF00EF8B4E600BFA1
S31508011FE0180000202DE9F843DDF820800C9C0D9E91
S31508011FF00E9D002800F0BF80307808B901203070A6
S315080120001F469146B378002900F0C4800BB9012315
S31508012010B3703B785B00DBB25A0907EE902AB8EE3B
S31508012020E77AF7EE007AB4EEE77AF1EE10FA23765C
S31508012030A27609DD10996F4BD1E9000100220CF057
S315080120409FFE109BC3E900017B782372BB786372FC
S31508012050FB78A3723B79E3727B792373BB7963734C
S31508012060FB79A3730023E3733B781B01DBB21809E1
S31508012070E37560760CF0D0FFDDE90A230DF09AFAD4
S315080120804FF00103002800F0AF8063743B78DB0949
S31508012090E3767378B9F1000F00F086800BB9012356
S315080120A0737098F800305B00DBB25A0907EE902A84
S315080120B0B8EEE77AF7EE007AB4EEE77AF1EE10FABF
S315080120C0E374627509DD10994A4BD1E900010022D2
S315080120D00CF056FE109BC3E9000198F801302370F5
S315080120E098F80230637098F80330A37098F80430B2
S315080120F0E37098F80530237198F80630637198F8FB
S315080121000730A3710023E37198F800301B01DBB295
S315080121101809A37420750CF07FFFDDE90A230DF079
S3150801212049FA4FF0010300285CD0237498F800306F
S31508012130DB09A375637C002B3FD0E37B2B70237AE5
S315080121406B70637AAB70A37AEB70E37A2B71237B9E
S315080121506B71637BAB71A37BEB71637C002B3FD106
S31508012160237C003318BF012311990B700F9B0122A1
S315080121701A70BDE8F883337853B1B3780BB160743C
S31508012180B070737813B1002323747370002333700E
S31508012190BDE8F883002B3FF47CAF61747378B170A6
S315080121A0B9F1000F7FF47AAF002BC3D084F81090F1
S315080121B086F80190637C002BBFD1E3792B702378D5
S315080121C06B706378AB70A378EB70E3782B71237926
S315080121D06B716379AB71A379EB71637C002BBFD00B
S315080121E00123C1E70346A0E7034663743B78DB098D
S315080121F0E3764EE70000F03F38B521F000430D467F
S3150801220000221946154B04460DF0DEF9C8B1002225
S31508012210134B204629460DF0EBF9A8B90022114BBC
S31508012220204629460DF0EEF948B9204629460C4BB9
S3150801223000220CF0A3FDBDE838400CF0F9BA0024E1
S3150801224000252046294638BD20462946044B00224A
S315080122500CF096FDBDE838400CF072BB0000304327
S315080122600000E03F0000E0BF38B505460021022026
S31508012270012408F069F985F89740FEF711F9FEF788
S31508012280C3FD0021084608F05FF92046002108F041
S315080122905BF90021102008F057F90021042008F005
S315080122A053F90021122008F04FF90021132008F0F4
S315080122B04BF900210E2008F047F900210F2008F0FC
S315080122C043F900210320BDE8384008F03DB900BFB5
S315080122D02DE9F04F2DED068B9246ADF5017D92F86D
S315080122E0C020DDF8789283460C461D4612B90123B3
S315080122F08AF8C0309AF89630002B00F071840023D2
S315080123008AF8963019468BF81630022008F04EF9ED
S315080123109AF89730002B00F083809AF8BC3013B9ED
S3150801232001238AF8BC30989B1B78002B40F07B86EA
S31508012330999B93F8008018F1000818BF4FF001081F
S31508012340D5E900670022324B304639460DF032F99D
S3150801235048B900224FF08043304639460DF02AF934
S31508012360002800F0FA869AF8A730002B00F0FE86BE
S315080123709AF8BD30002B00F00287B8F1000F41F042
S31508012380F6829AF8A7309BB1214B91990022C1E9AF
S315080123900023909AB4F8B030138094F8B3308AF8D1
S315080123A090309AF8A7301BB1194B0022CAE90623C7
S315080123B0989B174900269FED147B1E70999B002058
S315080123C01E708AED1C7BCBE900013346DAE91C67EE
S315080123D08AF8973030460F4B394600220DF008F936
S315080123E04FF0010300B903468AF8A7300022094BCA
S315080123F0304639460DF0FCF8002801F0F186064B07
S315080124000022CAE91C2318E00000000000000000B1
S315080124100000F03F00807A400000F0BF00005443FE
S315080124209AF8BC20002A00F0ED839AF8BD20002A0C
S3150801243041F0958200238AF8BC30909B1FED097AFA
S315080124401B8807EE903AF8EEE77AF4EE477AF1EE52
S3150801245010FA14D1909A002313809AF890603046A6
S315080124600CF0DAFDD4E92A230DF0AEF8002800F0C5
S31508012470BD860136B84BF6B21E708AF890609AF896
S315080124809730002B00F0CC839AF8A830002B00F087
S3150801249095819AF8A930002B00F085819AF8AE301B
S315080124A0002B00F02B819AF8B230C3B19AF8B330F9
S315080124B093B19AF8D33023B100238BF8A8308AF860
S315080124C0D3309AF8D23023B100238BF89A308AF8A0
S315080124D0D23000238AF8B33000238AF8B2309AF84A
S315080124E0B130C3B19AF8CF3093B19AF8D13023B14C
S315080124F000238BF887308AF8D1309AF8D03023B187
S3150801250000238BF886308AF8D03000238AF8CF303A
S3150801251000238AF8B1309AF8B030C3B19AF8CC30B2
S3150801252093B19AF8CE3023B100238BF86B308AF831
S31508012530CE309AF8CD3023B100238BF86A308AF869
S31508012540CD3000238AF8CC3000238AF8B0309AF8C7
S31508012550AF30C3B19AF8C93093B19AF8CB3023B1E9
S3150801256000238BF84F308AF8CB309AF8CA3023B15A
S3150801257000238BF84E308AF8CA3000238AF8C9300E
S3150801258000238AF8AF309AF8B73043B39AF8E330A4
S3150801259033B100238BF8D3308BF8D4308AF8E33083
S315080125A09AF8E03083B19AF8E23023B100238BF828
S315080125B0CE308AF8E2309AF8E13013B100238AF86E
S315080125C0E13000238AF8E03000238BF8CE308BF80F
S315080125D0D3308BF8CD308BF8D4308AF8B7309AF8E7
S315080125E0B63043B39AF8DF3033B100238BF8CA30DB
S315080125F08BF8CB308AF8DF309AF8DC3083B19AF859
S31508012600DE3023B100238BF8C5308AF8DE309AF81C
S31508012610DD3013B100238AF8DD3000238AF8DC3077
S3150801262000238BF8C5308BF8CA308BF8C4308BF889
S31508012630CB308AF8B6309AF8B53043B39AF8DB301E
S3150801264033B100238BF8C0308BF8C1308AF8DB3000
S315080126509AF8D83083B19AF8DA3023B100238BF887
S31508012660BB308AF8DA309AF8D93013B100238AF8E0
S31508012670D93000238AF8D83000238BF8BB308BF881
S31508012680C0308BF8BA308BF8C1308AF8B5309AF871
S31508012690B43043B39AF8D73033B100238BF8B63048
S315080126A08BF8B7308AF8D7309AF8D43083B19AF8CC
S315080126B0D63023B100238BF8B1308AF8D6309AF890
S315080126C0D53013B100238AF8D53000238AF8D430DF
S315080126D000238BF8B1308BF8B6308BF8B0308BF815
S315080126E0B7308AF8B43000238BF80C308BF80F30EA
S315080126F08BF80D308BF80E308AF8AE309AF8AA307E
S31508012700002B4DD09AF8AB30C3B19AF8AC3093B1DF
S315080127109AF8C43023B100238BF82F308AF8C430D5
S315080127209AF8C33023B100238BF821308AF8C330D5
S3150801273000238AF8AC3000238AF8AB309AF8AD301A
S315080127401BB39AF8C8304BB100238BF83C308BF891
S315080127503D308AF8C83001E0D8BC00209AF8C53067
S3150801276083B19AF8C73023B100238BF837308AF83A
S31508012770C7309AF8C63013B100238AF8C630002349
S315080127808AF8C53000238AF8AD3000238BF8373034
S315080127908BF836308BF83C308BF83D308AF8AA3006
S315080127A000238AF8A93000238BF808308BF8093002
S315080127B08BF80A308BF80B308AF8A8309BF80A3068
S315080127C0002B40F0B7849AF89740003418BF0124CB
S315080127D09AF88C30DE0600F1988443F010038AF8E3
S315080127E08C309BF80830002B40F094849AF88C3092
S315080127F01D0700F137849AF88C3043F008038AF8EC
S315080128008C30002C40F03184DBB29AF89720002AEC
S3150801281040F00D849BF80B20002A40F008845A07E3
S3150801282005D49AF88C3043F004038AF88C3098075B
S315080128305CBF43F002038AF88C309BF80930002B01
S3150801284040F07B8499F80030002B00F055849AF803
S31508012850C23013B901238AF8C2309AF89C30002B8A
S3150801286000F0A38400238AF89C30002089F8000030
S315080128709AF89C108BF81810002940F091840846A4
S3150801288007F094FE9AF89830002B00F01E849AF807
S31508012890C13013B901238AF8C1309AF89D30002B4B
S315080128A000F0188600238AF89D308AF89830194670
S315080128B08BF81730012007F079FE9AF89930002B2A
S315080128C000F0FB839AF8BE3013B901238AF8BE30AB
S315080128D09AF89F30002B00F0D78500238AF89F309D
S315080128E08AF8993019468BF81430102007F05EFEE5
S315080128F09AF8BF3013B901238AF8BF309AF89E3087
S31508012900002B00F0D88300238AF89E3019468BF8ED
S315080129101530042007F04AFE9F9900230022D1E9C9
S3150801292000010CF047FE9AF8BB30002840F0BC8342
S3150801293013B901238AF8BB309AF89330002B00F0BB
S31508012940398400238AF893308BF813309F9B002132
S315080129500020C3E900019BF8131001B101211220DF
S3150801296007F024FEA09900230022D1E900010CF00A
S3150801297021FE9AF8BA30002840F08F8313B9012353
S315080129808AF8BA309AF89230002B00F004840023B2
S315080129908AF892308BF81230A09B00210020C3E9F7
S315080129A000019BF8121001B10121132007F0FEFD69
S315080129B0A19900230022D1E900010CF0FBFD9AF848
S315080129C0B930002840F0918313B901238AF8B93048
S315080129D09AF89530002B00F0DA8300238AF89530AF
S315080129E08BF81130A19B00210020C3E900019BF857
S315080129F0111001B101210E2007F0D8FDA29900237B
S31508012A000022D1E900010CF0D5FD9AF8B83000286A
S31508012A1040F0648313B901238AF8B8309AF89430E0
S31508012A20002B00F0638500238AF894308BF8103068
S31508012A30A29B00210020C3E900019BF8101001B1F7
S31508012A4001210F2007F0B2FD9AF8A030002B00F003
S31508012A50B3809AF8903007EE903AF8EEE77AF5EEF9
S31508012A60407AF1EE10FA40F0AA8314230DF1C0085A
S31508012A70A0225F49CAF88430CAF8883040460CF06B
S31508012A802FFEA0225B4958A80CF02AFE909BB3F8AA
S31508012A90009048460CF0C0FAD8E90045CDE90E0188
S31508012AA002460B46204629460CF08EFD002802F008
S31508012AB07C84CDF840B0CDF848A0CB46C246DDE9C6
S31508012AC00E894D4F002600224B4B304639460CF0F5
S31508012AD057F90F4606460CF0B5FD0AEBC00050E95A
S31508012AE0024542464B46204629460CF06DFD002814
S31508012AF0E9D10022404B304639460CF03FF90CF03B
S31508012B00A1FDD946D046DDF840B0DDF848A0013828
S31508012B10C60080AB334453E92801002200230CF098
S31508012B2049FD0746002840F0678348460CF064FAD9
S31508012B3002460B4620462946CDE90E230CF01EF91E
S31508012B40FFF75AFB00222D4B04460D460CF03CFDBF
S31508012B50002840F0388524A3D3E900234FF6FE77F1
S31508012B60DAE90845204629460CF042FD002801F01D
S31508012B70418338460CF040FA06460F4622462B4654
S31508012B80304639460CF0FAF80023002204460D4671
S31508012B900CF038FD4FF0010300B903468AF8A0305E
S31508012BA03046DDE90E2339460CF0EAF80CF072FDE1
S31508012BB0909B1880CAE908459AF88C30D9075CBFFA
S31508012BC043F001038AF88C300AF1E4010BF1D700CE
S31508012BD0FEF746FE0DF5017DBDEC068BBDE8F08FCF
S31508012BE00123FFF78DBB00BF00000000C0FFEF40C7
S31508012BF000C00008D0C000080000F03F0000F04007
S31508012C0000005443909B1FED027A1B8807EE903A09
S31508012C10F8EEE77AF4EE477AF1EE10FA3FF41AACD9
S31508012C209AF8A83013B901238AF8A830D5E90067BC
S31508012C300022C14B304639460CF0BCFC48B900228B
S31508012C404FF08043304639460CF0B4FC002800F0BA
S31508012C50D3849AF8A93013B901238AF8A9309AF8C6
S31508012C60903008EE903AF8EEE88A9AF8AE30F5EE2A
S31508012C70408AF1EE10FA40F03E8413B901238AF82E
S31508012C80AE30909B9FEDAD9AB3F8008007EE908A1F
S31508012C90B8EEE78AB4EEC98AF1EE10FA80F2C68672
S31508012CA0B0EE489A4746DFEDA69AB4EEE99AF1EEF8
S31508012CB010FAC0F2DE8038460CF0AEF9D4E90A23E0
S31508012CC00CF082FC002800F0D480B4EE699AF1EE8B
S31508012CD010FA40F0CE809AED007B8DED107BDDE990
S31508012CE010679AED027B3046394653EC172B8DED6A
S31508012CF00E7B0CF087FC08B9DDE90E679AED047BBB
S31508012D003046394653EC172B8DED127B0CF066FCD9
S31508012D1008B1DDE9126700233046394600220CF076
S31508012D2049FC4FF0010300B903469AF891208AF845
S31508012D30A53009EE102AB8EEC99AF7EE007AB4EE74
S31508012D40679AF1EE10FADDE910014FF0000202F080
S31508012D507A8500230CF014F8F0EE007AB4EE679A3F
S31508012D60F1EE10FA06460F464FF00002DDE90E01B4
S31508012D7042F09C87704B0CF003F8CDE91001002056
S31508012D800021DDE912230BF0FBFFDDE91023CDE974
S31508012D901201304639460CF035FC002802F04D8503
S31508012DA0CDE90E67DDE91223DDE90E010CF016FC0B
S31508012DB018B19DED127B8DED0E7BDDE90E233046B4
S31508012DC039460BF0DBFF002200230CF0F3FB002849
S31508012DD002F02F8519AF00233B700126DDE90E238A
S31508012DE0DDE910010BF0CAFF002200230CF0E2FB1B
S31508012DF010B10123BB551E44DDE90E23DDE912019D
S31508012E000BF0BCFF002200230CF0D4FB10B1022307
S31508012E10BB550136012ECAF8806097F900000BDD13
S31508012E2097F901309842A8BF1846032E04D197F99D
S31508012E3002309842A8BF18460CF0EEF800223E4B25
S31508012E400BF09EFF919BC3E90001D5E900230CF025
S31508012E50B1FB0022002802F09283374BCAE9062308
S31508012E60012389F80030909B1F8807EE907AB8EE07
S31508012E70E79ADFED349AB4EEE99AF1EE10FA13DB2C
S31508012E8038460CF0C9F8D4E90C23CDE90E010CF04B
S31508012E909BFB48B12C4A9AF8A5301370B4EE699A8F
S31508012EA0F1EE10FA02F04C81DFED289AB4EEE99AB8
S31508012EB0F1EE10FA82F2ED80DFED257A9AF89A6042
S31508012EC0B4EEE79AF1EE10FAC0F2BC8738460CF078
S31508012ED0A3F8D4E910230CF077FB002800F0B28799
S31508012EE0002E40F0AF879AF8B23043B901238AF829
S31508012EF0B230909B1F8807EE907AB8EEE79A929BBC
S31508012F00DFED137A18685968989B1B781093999B7B
S31508012F101B7812931AAB03C3939B9AED066B186839
S31508012F205968B4EE679A1CABF1EE10FA03C38DED3E
S31508012F300E6B42F0F1830DE00000F03F00004443C0
S31508012F4000004843000050434CBD002000004C439C
S31508012F50000020424FF08043002251EC160B0CF082
S31508012F6029FB9AF8B330002802F0F684919A92ED7B
S31508012F70009B13B901238AF8B330109B0AF128077D
S31508012F80002B42F001869AF8D33023B1109B8BF8B7
S31508012F90A8308AF8D330129B002B42F0E5859AF8BF
S31508012FA0D23023B1129B8BF89A308AF8D2309BF82B
S31508012FB0A830002B02F070859BF8A7308AF8783084
S31508012FC09BF8A0308AF879309BF8A1308AF87A30D4
S31508012FD09BF8A2308AF87B309BF8A3308AF87C30BC
S31508012FE09BF8A4308AF87D309BF8A5308AF87E30A4
S31508012FF09BF8A6308AF87F309BF8A830002B42F060
S31508013000BD849BF89A30002B42F0B8848AF8A63022
S31508013010012389F80030909B1F8807EE907AB8EE55
S31508013020E79A00F031BF4FF00108FFF789B95B074E
S3150801303041F1F087A19B05939D9B03939B9B02936B
S31508013040999B0193959BCDF810900093939B909A29
S315080130500AF1EC010BF1E400FDF7FEFE9AF88C305B
S31508013060FFF7E5BB002C3FF4D0AB9F9B05939C9BD8
S3150801307003939A9B0293989B0193949B0093CDF893
S315080130801090929B909A0AF1FC010BF23510FDF70C
S315080130902FFA9AF88C30FFF7B8BB002B3FF488ACAF
S315080130A000238AF8BA3083E4002B3FF45BAC002393
S315080130B08AF8BB3056E4012326E49AF8BE20002A92
S315080130C03FF416AC8AF8BE3012E49AF8C120002AF9
S315080130D03FF4F3AB8AF8C130FFF7EFBB002B3FF49F
S315080130E0B3AC00238AF8B830AEE4002B3FF486ACC3
S315080130F000238AF8B93081E49AF8C220002A3FF4FD
S31508013100C1AB8AF8C230FFF7BDBB9BF80820002A7D
S315080131103FF46EABA59B0293A39B0193A09B0093DF
S31508013120969A4B460AF586710BF5C470FDF740F978
S31508013130FFF75CBB0124FFF74BBBA69B0293A49B3D
S315080131400193A29B0093979A4B460AF1E8010BF16A
S31508013150D800FEF70DFBFFF775BB3046394600224E
S31508013160D34B0CF027FA00287FF4FDA8B8F1000F1D
S3150801317000F016829AF8BD30002B40F0F88301233F
S315080131808AF8BD30B8F1000F3FF4FBA8EFE301233D
S315080131908AF8953024E401238AF89230FFF7FABBBE
S315080131A0012107F003FAFFF76DBB01238AF89C306A
S315080131B0FFF75BBB01238AF89330FFF7C5BBBD4B0D
S315080131C006220DF1C008CAF88420CAF8882003F13E
S315080131D03000414658AAF3E80267D3E932458342EB
S315080131E0E1E80267E2E80245F5D14FE4B24B94F80B
S315080131F0B4601E70FFF741B948460BF0FDFE08EBB7
S315080132000603D3E90023CDE90E010BF0B7FDFEF75E
S31508013210F3FF0022A94B04460D460CF0D5F9002808
S3150801322040F089839FEDA07B8DED107B4FF6FF79EA
S31508013230A34BD3E90067DDE9100132463B460BF0A3
S315080132409DFDFEF7D9FF00229C4B04460D460CF066
S31508013250BBF9002801F018870022002320462946D9
S315080132600CF0C6F9002802F0A880204629460CF081
S3150801327011FA80B20BF0C0FE924BD3E90045224603
S315080132802B460CF059F8FEF7B7FF00228B4BCDE918
S3150801329012010CF099F9002801F0F18600220023A9
S315080132A0DDE912010CF0A4F9002802F08280DDE9BB
S315080132B012010CF0EFF980B20130B0F5803F01F050
S315080132C0DE860BF099FE02460B46204629460BF090
S315080132D009FFFEF791FF0022784B04460D460CF0D4
S315080132E073F9002801F0C6860022002320462946E4
S315080132F00CF07EF9002802F08280294620460CF05F
S31508013300C9F980B20BF078FE02460B4630463946BB
S315080133100BF036FDFEF770FF0022684B04460D469A
S315080133200CF052F9002801F0A1860022002320465C
S3150801333029460CF05DF9002802F05E8020462946F0
S315080133400CF0A8F91FFA80F85F4BD3E90067DDE9AD
S31508013350100132463B460BF011FDFEF74DFF0022E8
S31508013360564B04460D460CF02FF9002801F07986D4
S3150801337000220023204629460CF03AF9002802F0DB
S315080133803780204629460CF085F980B20BF034FEC9
S315080133904E4BD3E9004522462B460BF0CDFFFEF7EF
S315080133A02BFF0022454BCDE910010CF00DF9002841
S315080133B001F0528600220023DDE910010CF018F90C
S315080133C0002802F01180DDE910010CF063F980B2E2
S315080133D00130B0F5803F01F03F860BF00DFE024645
S315080133E00B46204629460BF07DFEFEF705FF002217
S315080133F0324B04460D460CF0E7F8002801F0278603
S3150801340000220023204629460CF0F2F8002801F094
S31508013410E787294620460CF03DF980B20BF0ECFD12
S3150801342002460B46304639460BF0AAFCFEF7E4FE87
S315080134300022224B04460D460CF0C6F8002801F07E
S31508013440028600220023204629460CF0D1F80028DE
S3150801345001F0C387204629460CF01CF980B2804545
S3150801346028BF8046C9EB0809C14501F2E785A9F1DC
S3150801347002008145C1F0E28580B207460BF0CCFD1A
S3150801348002460B46FFF76CBB01228AF899308AF887
S315080134909F2011468BF81420102007F087F8FFF7B4
S315080134A027BA00BFAFF3008000000000E0FFEF403D
S315080134B000000840A0C00008D8BC00200000F04069
S315080134C020000020100000202800002018000020FD
S315080134D00000484301218AF898308AF89D10084669
S315080134E08BF8171007F062F8FFF7E7B901238AF896
S315080134F09430FFF79BBA002B40F06083F0EE687AB0
S31508013500B7EE007AF4EE477AF1EE10FA9AF8AA3095
S3150801351040F0748613B901238AF8AA30909B1FEDEF
S31508013520148A1E8807EE906AB8EEE79AB046B4EE9A
S31508013530C89AF1EE10FAC0F2478730460BF06CFDD7
S31508013540D4E900230CF040F8002800F03D87B4EEDA
S31508013550489AF1EE10FA41F0AC869AF89B30002BA6
S3150801356042F002809199D5E90023D1E900010CF0D6
S3150801357021F8002841F0F88701238AF89830DAE91A
S315080135800E011C4B00220BF0FBFB909B1E8807EEDD
S31508013590906ACAE90E013746B8EEE78A01F08CBE91
S315080135A09AF8BD300022002B40F03B840023DBE96A
S315080135B000014FF001060BF0FDFF002800F03F84E3
S315080135C0F3B2FEF703BF00220023204629460CF07A
S315080135D00FF8002801F0F586204629460CF05AF81E
S315080135E080B2431E984282F0878300220023FFF7A8
S315080135F0B7BA00BF0000F03F304639460022B44B47
S315080136000BF0D8FF00287FF424AB9AF8A930002BD9
S315080136103FF4D4A89AF8AE30002B00F02A819AF824
S31508013620B230BBB19AF8B3308BB19AF8D3301BB12B
S315080136308BF8A8008AF8D3009AF8D23023B1002370
S315080136408BF89A308AF8D23000238AF8B3300023EF
S315080136508AF8B2309AF8B130C3B19AF8CF3093B13B
S315080136609AF8D13023B100238BF887308AF8D13004
S315080136709AF8D03023B100238BF886308AF8D030F7
S3150801368000238AF8CF3000238AF8B1309AF8B0308F
S31508013690C3B19AF8CC3093B19AF8CE3023B100234E
S315080136A08BF86B308AF8CE309AF8CD3023B10023E7
S315080136B08BF86A308AF8CD3000238AF8CC3000239B
S315080136C08AF8B0309AF8AF30C3B19AF8C93093B1D5
S315080136D09AF8CB3023B100238BF84F308AF8CB30D8
S315080136E09AF8CA3023B100238BF84E308AF8CA30CB
S315080136F000238AF8C93000238AF8AF309AF8B73020
S3150801370043B39AF8E33033B100238BF8D3308BF8FF
S31508013710D4308AF8E3309AF8E03083B19AF8E23087
S3150801372023B100238BF8CE308AF8E2309AF8E130DB
S3150801373013B100238AF8E13000238AF8E030002328
S315080137408BF8CE308BF8D3308BF8CD308BF8D4305C
S315080137508AF8B7309AF8B63043B39AF8DF3033B1FE
S3150801376000238BF8CA308BF8CB308AF8DF309AF809
S31508013770DC3083B19AF8DE3023B100238BF8C530EB
S315080137808AF8DE309AF8DD3013B100238AF8DD3085
S3150801379000238AF8DC3000238BF8C5308BF8CA3051
S315080137A08BF8C4308BF8CB308AF8B6309AF8B53036
S315080137B043B39AF8DB3033B100238BF8C0308BF86A
S315080137C0C1308AF8DB309AF8D83083B19AF8DA3002
S315080137D023B100238BF8BB308AF8DA309AF8D9304E
S315080137E013B100238AF8D93000238AF8D830002388
S315080137F08BF8BB308BF8C0308BF8BA308BF8C130F8
S315080138008AF8B5309AF8B43043B39AF8D73033B159
S3150801381000238BF8B6308BF8B7308AF8D7309AF888
S31508013820D43083B19AF8D63023B100238BF8B1305E
S315080138308AF8D6309AF8D53013B100238AF8D530EC
S3150801384000238AF8D43000238BF8B1308BF8B630D0
S315080138508BF8B0308BF8B7308AF8B43000238BF880
S315080138600C308BF80F308BF80D308BF80E308AF848
S31508013870AE309AF8AA30002B4ED09AF8AB30C3B1C5
S315080138809AF8AC3093B19AF8C43023B100238BF877
S315080138902F308AF8C4309AF8C33023B100238BF845
S315080138A021308AF8C33000238AF8AC3000238AF81D
S315080138B0AB309AF8AD3023B39AF8C83053B1002328
S315080138C08BF83C308BF83D308AF8C83002E000BFEF
S315080138D0000008409AF8C53083B19AF8C73023B179
S315080138E000238BF837308AF8C7309AF8C63013B1F7
S315080138F000238AF8C63000238AF8C53000238AF8DF
S31508013900AD3000238BF837308BF836308BF83C30E6
S315080139108BF83D308AF8AA3000238BF808308BF8EB
S3150801392009308BF80A308BF80B308AF8A9309BF8E6
S315080139300A30FEF745BF00220023204629460BF030
S3150801394057FE002801F04285294620460BF0A2FEC3
S3150801395080B281460BF050FBCDE9100168E40020E6
S315080139600021CBE900018AF8BD30FEF763BD0123CA
S315080139708AF89A30989B1B7807EE903AF8EEE77A20
S31508013980B7EE007AF4EE477AF1EE10FA41F0BD830C
S31508013990929B7F491E787F4F7300DBB25A098BF8D9
S315080139A0D63010460A700BF027FBD7E900230BF037
S315080139B099FB002200230BF0E3F90022764B0BF06A
S315080139C0DFF90BF067FE754B909982B21A803301C5
S315080139D0DBB2F6090A801809714A8AF890608BF8F1
S315080139E0D530704B10701E700BF006FB919BC3E926
S315080139F000019AF8A730002B01F081836A4B91994F
S31508013A000022C1E90023909AB4F8B030138094F8E3
S31508013A10B3308AF89030B8F1000F3EF4C2AC0022F8
S31508013A204FF08043CAE90623FEF7C2BC40460BF0B5
S31508013A30F3FAD4E908230BF0C7FD00283FF430A9AF
S31508013A40B4EE498AF1EE10FA7FF42AA9D5E900679E
S31508013A500022554B304639460BF0ACFD002841F0A3
S31508013A6066859AF8A330002B01F0948512903046AA
S31508013A70394600224FF080430BF09CFD002802F0E6
S31508013A804381002310939AF8A230002B41F06885F0
S31508013A90454BDAE9120100220BF072F9CAE9120163
S31508013AA0012314939AF89A60002E41F06E85919B32
S31508013AB093ED007B0022384B51EC170B8DED0E7BF5
S31508013AC00BF078FD002801F041870022324BD5E939
S31508013AD000010BF06FFD002801F0C18537461796E6
S31508013AE03346129A002A41F0AC85109A002A41F011
S31508013AF0BB86149A002A41F0B786002B41F0B4869A
S31508013B00179B002B41F0B086FBB2DAE91601274A6A
S31508013B108AF89830C2E90001109BCAE91601002B00
S31508013B2001F0C885204B0022DAE918010BF028F9C3
S31508013B301F4BC3E90001149BCAE91801002B01F0C8
S31508013B40B285194B0022DAE91A010BF019F9194B5A
S31508013B50C3E90001CAE91A017EB99199D5E9002399
S31508013B60D1E900010BF026FD38B9DAE91401002282
S31508013B700D4B0BF005F9CAE91401012389F8003048
S31508013B80909B1F8807EE907AB8EEE79AFFF78BB8F5
S31508013B9019BF002010000020000008404EBD00207B
S31508013BA010BF0020E8BC00200000F03FC0BC002088
S31508013BB058BD002000BD0020000030429AF8B230FE
S31508013BC0C3B19AF8B33093B19AF8D33023B100232D
S31508013BD08BF8A8308AF8D3309AF8D23023B100236B
S31508013BE08BF89A308AF8D23000238AF8B33000234A
S31508013BF08AF8B2309AF8B130C3B19AF8CF3093B196
S31508013C009AF8D13023B100238BF887308AF8D1305E
S31508013C109AF8D03023B100238BF886308AF8D03051
S31508013C2000238AF8CF3000238AF8B1309AF8B030E9
S31508013C30C3B19AF8CC3093B19AF8CE3023B10023A8
S31508013C408BF86B308AF8CE309AF8CD3023B1002341
S31508013C508BF86A308AF8CD3000238AF8CC300023F5
S31508013C608AF8B0309AF8AF30C3B19AF8C93093B12F
S31508013C709AF8CB3023B100238BF84F308AF8CB3032
S31508013C809AF8CA3023B100238BF84E308AF8CA3025
S31508013C9000238AF8C93000238AF8AF309AF8B7307A
S31508013CA043B39AF8E33033B100238BF8D3308BF85A
S31508013CB0D4308AF8E3309AF8E03083B19AF8E230E2
S31508013CC023B100238BF8CE308AF8E2309AF8E13036
S31508013CD013B100238AF8E13000238AF8E030002383
S31508013CE08BF8CE308BF8D3308BF8CD308BF8D430B7
S31508013CF08AF8B7309AF8B63043B39AF8DF3033B159
S31508013D0000238BF8CA308BF8CB308AF8DF309AF863
S31508013D10DC3083B19AF8DE3023B100238BF8C53045
S31508013D208AF8DE309AF8DD3013B100238AF8DD30DF
S31508013D3000238AF8DC3000238BF8C5308BF8CA30AB
S31508013D408BF8C4308BF8CB308AF8B6309AF8B53090
S31508013D5043B39AF8DB3033B100238BF8C0308BF8C4
S31508013D60C1308AF8DB309AF8D83083B19AF8DA305C
S31508013D7023B100238BF8BB308AF8DA309AF8D930A8
S31508013D8013B100238AF8D93000238AF8D8300023E2
S31508013D908BF8BB308BF8C0308BF8BA308BF8C13052
S31508013DA08AF8B5309AF8B43043B39AF8D73033B1B4
S31508013DB000238BF8B6308BF8B7308AF8D7309AF8E3
S31508013DC0D43083B19AF8D63023B100238BF8B130B9
S31508013DD08AF8D6309AF8D53013B100238AF8D53047
S31508013DE000238AF8D43000238BF8B1308BF8B6302B
S31508013DF08BF8B0308BF8B7308AF8B43000238BF8DB
S31508013E000C308BF80F308BF80D308BF80E309AF892
S31508013E1090208AF8AE3007EE902AF8EEE77AFFF797
S31508013E206FBB0023CBE900238AF8BD80DBE90001DB
S31508013E304FF001060BF0BEFB00287FF4C1AB4646E6
S31508013E40FFF7BEBB9AF8B230F3B19AF8B33093B123
S31508013E509AF8D33023B100238BF8A8308AF8D330E7
S31508013E609AF8D23023B100238BF89A308AF8D230E7
S31508013E7000238AF8B33000238AF8B230909B1F8852
S31508013E8007EE907AB8EEE79A5FEDB59AB4EEE99A3D
S31508013E90F1EE10FA4EDB38460BF0BEF8D4E91223E0
S31508013EA00BF092FB002845D0002E43D1B4EE699A57
S31508013EB0F1EE10FA08D101238AF89930909B1B88F4
S31508013EC009EE103AB8EEC99ADFEDBD7AB4EE679AF3
S31508013ED0F1EE10FA2ED100224FF08043DAE90601FD
S31508013EE00BF068FB30B39AF8A6301BB3DAE908671A
S31508013EF000230022304639460BF084FB4FF00103BC
S31508013F0000B903468AF8A030002200233046394614
S31508013F100BF078FB48B9AB4B0022304639460AF01C
S31508013F202FFF0BF0B7FB909B188001238AF89A3074
S31508013F3089F800309FEDA49AB4EEC98AF1EE10FA19
S31508013F407BDB40460BF068F8D4E914230BF03CFB05
S31508013F50002872D0909B1B8807EE903AF8EEE77A14
S31508013F60F4EE497AF1EE10FA67D195ED007B57EC3C
S31508013F70176B0022954B17EE100A39468DED107B0B
S31508013F800BF018FB002841F01383919B93ED007BFE
S31508013F9000228E4B51EC170B8DED127B0BF00AFBB1
S31508013FA0002841F0AB849AED0C7B304600224FF095
S31508013FB0804339469AF89A608DED0E7B0BF0FAFA32
S31508013FC0002801F0FB829FED7A7B8DED107BDDE900
S31508013FD0120100227E4B0BF0EDFA10B1002E01F012
S31508013FE01A839AED127B8DED147BDDE91023DDE949
S31508013FF00E010BF0E9FA002801F039849DED0E7BDC
S315080140008DED127BDDE91423DDE912010BF0DCFAF3
S3150801401018B99DED147B8DED127B002E01F00383FB
S31508014020919BD3E900010BF035FB6A4BC0B21870BE
S3150801403001238AF8910089F800309FED679AB4EE5A
S31508014040C98AF1EE10FA54DB40460AF0E5FFD4E9D5
S3150801405016230BF0B9FA00284BD0909B1B8807EE64
S31508014060903AF8EEE77AF4EE497AF1EE10FA40D191
S315080140709AF8A630002B3CD00022544BD5E9000112
S315080140800BF098FA002834D19AF8793009EE103AEB
S31508014090B8EEC99AF0EE087AB4EE679AF1EE10FA1C
S315080140A0DAE904014FF0000201F01C8500230AF049
S315080140B067FEF7EE007AB4EE679AF1EE10FACAE9EE
