S02300002E2E2F48414E636F6465725F453430375F5454415F47726F7570322E737265636D
S315080040006CD600204D6D020800000000000000007C
S315080040100000000000000000000000000000000092
S315080040200000000000000000000000003D3B020800
S315080040300000000000000000D93B0208293C0208E5
S315080040400000000000000000000000000000000062
S315080040500000000000000000000000000000000052
S3150800406000000000194902080000000000000000D6
S315080040700000000000000000000000000000000032
S31508004080000000000000000000000000652F020884
S315080040901D2F0208412F0208892F02080000000080
S315080040A005490208F1480208DD480208CD48020819
S315080040B0B9480208A548020891480208000000000D
S315080040C000000000000000000000000000000000E2
S315080040D0000000001D530208355302084D5302081C
S315080040E0000000000000000015540208000000004F
S315080040F07D4802086948020859480208000000007D
S31508004100000000007D5302080000000000000000C7
S315080041100000000000000000000000000000000091
S3150800412000000000000000000000000081530208A3
S31508004130000000004949020800000000F52F0208A7
S31508004140AD2F0208D12F020819300208455402087B
S31508004150000000000000000000000000655302088F
S315080041600000000000000000000000000000000041
S315080041700000000000000000000000000000000031
S311080041800000000000000000EE11AA5527
S3150800C000000000000000000000000000000044409E
S3150800C0100000000000004C400000000000004D40F9
S3150800C020000000000000524000000000008052405E
S3150800C03000000000000056400000000000006040BC
S3150800C040000000000000624000000000000064409C
S3150800C0500000000000006940000000000040694040
S3150800C0600000000000006B400000000000006D406A
S3150800C070000000000000714000000000000072404F
S3150800C08000000000000073400000000000807540BA
S3150800C0900000000000807640000000000080774025
S3150800C0A00000000000807840000000000080794011
S3150800C0B00000000000807A40000000000000000038
S3150800C0C000000000000044400000000000004C4052
S3150800C0D00000000000004D40000000000000524033
S3150800C0E00000000000005C400000000000805C408A
S3150800C0F000000000000060400000000000006540ED
S3150800C1000000000000406540000000000000674095
S3150800C11000000000000069400000000000006B40BD
S3150800C1200000000000007040000000000020704081
S3150800C130000000000000714000000000000072408E
S3150800C1400000000000807440000000000080754078
S3150800C15000000000009075400000000000B0754027
S3150800C16000000000008076400000000000007940D2
S3150800C1700000000000207940000000000000744024
S3150800C18000000000002074400000000000000000CD
S3150800C190000000000000F03F000000000000F03F33
S3150800C1A0000000000000F03F000000000000F03F23
S3150800C1B0000000000000F03F000000000000000042
S3150800C1C0000000000000F03F000000000000F03F03
S3150800C1D00000000000000000000000000000F03F22
S3150800C1E0000000000000F03F000000000000F03FE3
S3150800C1F00000000000000000000000000000F03F02
S3150800C200000000000000F03F0000000000000000F1
S3150800C210000000000000F03F000000000000F03FB2
S3150800C220000000000000F03F000000000000F03FA2
S3150800C230000000000000F03F000000000000F03F92
S3150800C2400000000000000000000000000000F03FB1
S3150800C250000000000000F03F000000000000F03F72
S3150800C2600000000000000000000000000000F03F91
S3150800C270000000000000F03F000000000000000081
S3150800C280000000000000F03F000000000000F03F42
S3150800C290000000000000F03F000000000000F03F32
S3150800C2A00000000000000000000000000000F03F51
S3150800C2B0000000000000F03F000000000000F03F12
S3150800C2C00000000000000000000000000000F03F31
S3150800C2D0000000000000F03F000000000000F03FF2
S3150800C2E0000000000000F03F000000000000000011
S3150800C2F0000000000000F03F000000000000F03FD2
S3150800C300000000000000F03F000000000000F03FC1
S3150800C3100000010101000100010100000001000107
S3150800C32000000000000075400000000000007A4090
S3150800C33000000000000067400000000000004C40BC
S3150800C34000000000000052400000000000004440C9
S3150800C3500000000000007940000000000000654071
S3150800C360000000002B87B63F0000000000003040A8
S3150800C370000000000000B03F000000000000304050
S3150800C380000000000000B03F000000000000304040
S3150800C390000000000000B03F000000000000304030
S3150800C3A0000000000000B03F000000000000C03F91
S3150800C3B00000000000002040000000000000C03F10
S3150800C3C00000000000002040000000000000C03F00
S3150800C3D00000000000002040000000000000C03FF0
S3150800C3E000000000000020400000000000006B4034
S3150800C3F00000000000807A400000000000004C4069
S3150800C40000000000000052400000000000006240EA
S3150800C41000000000000044400000000000006740E3
S3150800C42000000000000075400000000000006040A9
S3150800C4300000000000004C400000000000005240D0
S3150800C44000000000000044400000000000005C40BE
S3150800C450000000000000903F00000000000050406F
S3150800C460000000000000C03F00000000000020405F
S3150800C470000000000000903F00000000000050404F
S3150800C48000000000000056400000000000807A40CE
S3150800C4900000000000004C40000000000000524070
S3150800C4A000000000000044400000000000006D404D
S3150800C4B000000000000069400000000000006B401A
S3150800C4C000000000000075400000000000007240F7
S3150800C4D000000000008075400000000000007A405F
S3150800C4E000000000000067400000000000006040F7
S3150800C4F00000000000004C4000000000008076406C
S3150800C5000000000000005240000000000000444007
S3150800C51000000000008072400000000000807440A7
S3150800C520000000000000794000000000000065409F
S3150800C5300000000000005C40000000000000F03F22
S3150800C540000000000000F03F000000000000F03F7F
S3150800C550000000000000F03F000000000000F03F6F
S3150800C560000000000000F03F000000000000F03F5F
S3150800C570000000000000F03F000000000000F03F4F
S3150800C580000000000000F03F000000000000F03F3F
S3150800C590000000000000F03F000000000000F03F2F
S3150800C5A0000000000000F03F000000000000F03F1F
S3150800C5B0000000000000F03F000000000000F03F0F
S3150800C5C0000000000000F03F000000000000F03FFF
S3150800C5D0000000000000F03F000000000000F03FEF
S3150800C5E0000000000000F03F000000000000F03FDF
S3150800C5F0000000000000F03F00000000000030408E
S3150800C600000000000000B03F0000000000003040BD
S3150800C610000000000000B03F0000000000003040AD
S3150800C620000000000000B03F00000000000030409D
S3150800C630000000000000B03F00000000000030408D
S3150800C640000000000000B03F00000000000030407D
S3150800C650000000000000B03F00000000000030406D
S3150800C660000000000000B03F00000000000030405D
S3150800C670000000000000B03F00000000000050402D
S3150800C680000000000000903F00000000000050403D
S3150800C690000000000000903F00000000000020405D
S3150800C6A0000000000000C03F00000000000020401D
S3150800C6B0000000000000C03F00000000000020400D
S3150800C6C0000000000000C03F0000000000002040FD
S3150800C6D0000000000000C03F0000000000002040ED
S3150800C6E0000000000000C03F000000002B87B63F96
S3150800C6F0000000000000903F0000000000005040CD
S3150800C700000000000000C03F0000000000002040BC
S3150800C710000000000000903F0000000000005040AC
S3150800C720000000000000B03F00000000000030409C
S3150800C730000000000000B03F00000000000030408C
S3150800C740000000000000B03F00000000000030407C
S3150800C750000000000000B03F00000000000030406C
S3150800C760000000000080784000000000008079404A
S3150800C7700000000000807B400000000000807A4036
S3150800C7800000000000004C4000000000000052407D
S3150800C7900000000000005640000000000000644051
S3150800C7A000000000000062400000000000006D402C
S3150800C7B00000000000006B4000000000000073400D
S3150800C7C00000000000007240000000000080774072
S3150800C7D00000000000807640000000000000444091
S3150800C7E00000000000807540000000000000604066
S3150800C7F000000000000069400000000000007140D1
S3150800C800000000000000F03F0000000000000000EB
S3150800C810000000000000000000000000000000000A
S3150800C82000000000000000010000010001000000F7
S3150800C83001000000010000000100000000000000E7
S3150800C8401600000016000000160000001600000082
S3150800C850000000001900000019000000190000007F
S3150800C860190000000000000000000100010000009F
S3150800C87001000000010000000100000000000000A7
S3150800C8800100000001000000010000000100000096
S3150800C890000000001500000015000000150000004B
S3150800C8A01500000000000000000001000100000063
S3150800C8B00100000001000000010000000000000067
S3150800C8C00100000001000000010000000100000056
S3150800C8D0000000001500000015000000150000000B
S3150800C8E015000000000000001600000016000000F9
S3150800C8F016000000160000000000000019000000E5
S3150800C90019000000190000001900000000000000CE
S3150800C91000000000000010C0000000000000B03F4A
S3150800C920000000000000304000000000000010C0B9
S3150800C930000000000000B03F00000000000030408A
S3150800C94000000000000010C0000000000000B03F1A
S3150800C950000000000000304000000000000010C089
S3150800C960000000000000B03F00000000000030405A
S3150800C9701800000018000000180000001800000049
S3150800C980000000000000000000000000000010C0C9
S3150800C990000000000000B03F00000000000030402A
S3150800C9A000000000000010C0000000000000B03FBA
S3150800C9B0000000000000304000000000000010C029
S3150800C9C0000000000000B03F0000000000003040FA
S3150800C9D000000000000010C0000000000000B03F8A
S3150800C9E0000000000000304017000000170000009B
S3150800C9F01700000017000000000000000E000000ED
S3150800CA000E0000000E0000000E00000000000000EE
S3150800CA100D0000000D0000000D0000000D000000D4
S3150800CA20000000000C0000000C0000000C000000D4
S3150800CA300C000000000000000B0000000B000000C6
S3150800CA400B0000000B0000000000000001000000C1
S3150800CA5001000000010000000100000000000000C5
S3150800CA606464640048414E636F6465725F453430A0
S3150800CA70375F5454415F47726F7570325F736F66E4
S3150800CA80747761726549445F76315F303830363283
S3150800CA90325F3132343032304170704374726C54C4
S3150800CAA061736B0048414E636F6465725F4534304D
S3150800CAB0375F5454415F47726F7570322E630000BA
S3150800CAC020000000001402400800090020000000B1
S3150800CAD00014024010000E0020000000001402405E
S3150800CAE020000F002000000000140240400004004F
S3150800CAF0200000000014024080000500200000000D
S3150800CB000014024000010600200000000014024044
S3150800CB10000207002000000000140240000408007C
S3150800CB20040000000008024001000A00040000009A
S3150800CB300008024004000C00414443636F6E7665AA
S3150800CB407273696F6E5461736B0000002E2E2F622C
S3150800CB506C6F636B7365742F7274772F53544D33F0
S3150800CB60322F7372632F686561705F342E6300001D
S3150800CB70546D724370754C6F6164000049444C45AE
S3150800CB80000000002E2E2F626C6F636B7365742F86
S3150800CB907274772F53544D33322F7372632F746127
S3150800CBA0736B732E630000002E2E2F626C6F636BFF
S3150800CBB07365742F7274772F53544D33322F7372F3
S3150800CBC0632F74696D6572732E630000546D72204D
S3150800CBD05376630043616E4576656E745461736B74
S3150800CBE00000000043616E5472616E736D6974547F
S3150800CBF061736B002E2E2F626C6F636B7365742FD7
S3150800CC007274772F53544D33322F7372632F5354E4
S3150800CC104D33325F453430372F63616E2E63000023
S3150800CC20006400400000000208000000000C0240FA
S3150800CC300100000008000000000C0240020001008C
S3150800CC4009131415160000000068004000000004CF
S3150800CC500200000000040240200005000200000057
S3150800CC600004024040000600093F4041420000001F
S3150800CC700101020102020202020302020402020385
S3150800CC800303040303050303060303050404060458
S3150800CC90040704040804040705050805050806052D
S3150800CCA00807050807060808060808070808080008
S3150800CCB0457643686E6C3100457643686E6C320083
S3150800CCC0457643686E6C33002E2E2F626C6F636B4D
S3150800CCD07365742F7274772F53544D33322F7372D2
S3150800CCE0632F53544D33325F453430372F6D6163AC
S3150800CCF02E6300002E2E2F626C6F636B7365742F84
S3150800CD007274772F53544D33322F7372632F5354E3
S3150800CD104D33325F453430372F706F72742E63008F
S3150800CD2000000140010000000201000010000000A0
S3150800CD300010024000020900100000000010024026
S3150800CD4000080B0000040040020000000102000079
S3150800CD50010000000000024040000600020000003A
S3150800CD6000040240200005000008004004000000FE
S3150800CD700102000008000000000C024000100C0030
S3150800CD8008000000000C024000200D0000040140CD
S3150800CD900200000002030000040000000008024030
S3150800CDA0400006000400000000080240800007005A
S3150800CDB000000140010000000201190000000040C7
S3150800CDC00100000001021C000004004002000000EF
S3150800CDD001021D00000800400400000001021E00B8
S3150800CDE0000401400200000002012C00004001403E
S3150800CDF00000010002011800004401400000020082
S3150800CE0002011900004801400000040002011A004E
S3150800CE10001C00408000000001022C000020004099
S3150800CE200001000001022D00040000000008024075
S3150800CE30010000002000000000140240400000002D
S3150800CE4020000000001402408000000020000000BE
S3150800CE5000140240000100002000000000140240F7
S3150800CE600002000020000000001402400004000038
S3150800CE7002000000000402408000000002000000DA
S3150800CE8000040240400000001000000000100240AC
S3150800CE90040000001000000000100240100000000E
S3150800CEA010000000001002402000000010000000E2
S3150800CEB00010024040000000400000000018024038
S3150800CEC08000000040000000001802400001000039
S3150800CED0400000000018024000100000400000005A
S3150800CEE00018024000800000010000000000024017
S3150800CEF010000000020000000004024020000000AC
S3150800CF00010000000000024040000000010000008F
S3150800CF10000002402000000008000000000C02404B
S3150800CF200100000008000000000C0240020000009A
S3150800CF3008000000000C0240040000000800000081
S3150800CF40000C02400800000008000000000C024027
S3150800CF501000000008000000000C0240200000003D
S3150800CF6008000000000C0240400000000800000015
S3150800CF70000C02408000000008000000000C02407F
S3150800CF800001000008000000000C0240000200003A
S3150800CF9008000000000C0240000400000800000021
S3150800CFA0000C02400008000008000000000C0240C7
S3150800CFB00010000008000000000C024000200000DD
S3150800CFC008000000000C02400040000008000000B5
S3150800CFD0000C024000800000100000000010024013
S3150800CFE001000000100000000010024002000000CE
S3150800CFF010000000001002400800000010000000A9
S3150800D00000100240800000001000000000100240DE
S3150800D010000100001000000000100240000200009D
S3150800D020100000000010024000040000100000007C
S3150800D0300010024000080000100000000010024026
S3150800D0400010000010000000001002400020000040
S3150800D0501000000000100240004000001000000010
S3150800D060001002400080000020000000001402406A
S3150800D0700100000020000000001402400200000029
S3150800D08020000000001402400400000020000000F8
S3150800D09000140240080000002000000000140240AE
S3150800D0A010000000200000000014024020000000CC
S3150800D0B020000000001402400008000020000000C4
S3150800D0C00014024000100000200000000014024076
S3150800D0D0002000002000000000140240004000006C
S3150800D0E020000000001402400080000040000000FC
S3150800D0F0001802400100000040000000001802402D
S3150800D1000200000040000000001802400400000071
S3150800D110400000000018024008000000400000001F
S3150800D12000180240100000004000000000180240ED
S3150800D13020000000400000000018024040000000E7
S3150800D14040000000001802400002000040000000F5
S3150800D15000180240000400004000000000180240C9
S3150800D16000080000400000000018024000200000EF
S3150800D17040000000001802400040000001000000C6
S3150800D1800000024001000000040000000008024000
S3150800D19001000000200000000014024040000000CA
S3150800D1A0200000000014024080000000200000005B
S3150800D1B00014024000010000200000000014024094
S3150800D1C000020000200000000014024000040000D5
S3150800D1D00200000000040240800000000200000077
S3150800D1E00004024040000000100000000010024049
S3150800D1F004000000100000000010024010000000AB
S3150800D200100000000010024020000000100000007E
S3150800D21000100240400000004000000000180240D4
S3150800D22080000000400000000018024000010000D5
S3150800D23040000000001802400010000040000000F6
S3150800D24000180240008000000100000000000240B3
S3150800D2501000000002000000000402402000000048
S3150800D260010000000000024040000000010000002C
S3150800D270000002402000000008000000000C0240E8
S3150800D2800100000008000000000C02400200000037
S3150800D29008000000000C024004000000080000001E
S3150800D2A0000C02400800000008000000000C0240C4
S3150800D2B01000000008000000000C024020000000DA
S3150800D2C008000000000C02404000000008000000B2
S3150800D2D0000C02408000000008000000000C02401C
S3150800D2E00001000008000000000C024000020000D7
S3150800D2F008000000000C02400004000008000000BE
S3150800D300000C02400008000008000000000C024063
S3150800D3100010000008000000000C02400020000079
S3150800D32008000000000C0240004000000800000051
S3150800D330000C0240008000001000000000100240AF
S3150800D340010000001000000000100240020000006A
S3150800D3501000000000100240080000001000000045
S3150800D360001002408000000010000000001002407B
S3150800D370000100001000000000100240000200003A
S3150800D3801000000000100240000400001000000019
S3150800D39000100240000800001000000000100240C3
S3150800D3A000100000100000000010024000200000DD
S3150800D3B010000000001002400040000010000000AD
S3150800D3C00010024000800000200000000014024007
S3150800D3D001000000200000000014024002000000C6
S3150800D3E02000000000140240040000002000000095
S3150800D3F0001402400800000020000000001402404B
S3150800D4001000000020000000001402402000000068
S3150800D4102000000000140240000800002000000060
S3150800D4200014024000100000200000000014024012
S3150800D4300020000020000000001402400040000008
S3150800D4402000000000140240008000004000000098
S3150800D45000180240010000004000000000180240C9
S3150800D460020000004000000000180240040000000E
S3150800D47040000000001802400800000040000000BC
S3150800D480001802401000000040000000001802408A
S3150800D4902000000040000000001802404000000084
S3150800D4A04000000000180240000200004000000092
S3150800D4B00018024000040000400000000018024066
S3150800D4C0000800004000000000180240002000008C
S3150800D4D04000000000180240004000000400000060
S3150800D4E00008024000200000000001400100000082
S3150800D4F002011B00000000400100000001021C00A0
S3150800D500000400400200000001021D00000800405F
S3150800D5100400000001021E00000401400200000091
S3150800D52002012E000040014000000100020118001F
S3150800D53000440140000002000201190000480140B1
S3150800D5400000040002011A00001C004080000000D0
S3150800D55001022C00002000400001000001022D00FD
S3150800D5601000000000100240000200000200020045
S3150800D5700100090010000000001002400008000128
S3150800D5800400200001000B001000000000100240FB
S3150800D590002000020800000201000D001000000033
S3150800D5A000100240004000031000002001000E0099
S3150800D5B001000000000002402000010002000200F5
S3150800D5C001000500010000000000024040000200C2
S3150800D5D002000200020006000200000000040240E9
S3150800D5E020000201040020000200050008000000D7
S3150800D5F0000C0240001003000200020002000C00AA
S3150800D60008000000000C024000200301040020006E
S3150800D61002000D000400000000080240400004005B
S3150800D6200200020003000600040000000008024091
S3150800D6308000040104002000030007001000000019
S3150800D6400010024020000500020002000300050049
S3150800D65010000000001002404000050104002000F0
S3150800D66003000600200000000014024040000600E7
S3150800D6700200020003000600200000000014024019
S3150800D68080000700020002000300070020000000D7
S3150800D6900014024000010800020002000900080008
S3150800D6A020000000001402400002090002000200E7
S3150800D6B009000900001001401000000002250000C2
S3150800D6C002000000000402404000060002000000BC
S3150800D6D000040240800007000700000000440040E4
S3150800D6E0000002000126000008000000000C0240AD
S3150800D6F02000050008000000000C0240400006005B
S3150800D7000700000000480040000004000127000050
S3150800D71008000000000C0240000108000800000094
S3150800D720000C024000020900070000000014014036
S3150800D7302000000002470000040000000008024024
S3150800D74040000600040000000008024080000700B0
S3150800D7500800000056435020436F6E666967000054
S3150800D76056435020496E7465726661636500000011
S3150800D77053544D6963726F656C656374726F6E6935
S3150800D7806373000053544D333220566972747561C1
S3150800D7906C20436F6D506F727420696E2048532059
S3150800D7A06D6F64650000000053544D33322056698E
S3150800D7B0727475616C20436F6D506F727420696E58
S3150800D7C0204653204D6F646500000000303030302D
S3150800D7D030303030303530420000000030303030E4
S3150800D7E03030303030353043000000000000014052
S3150800D7F00100000002011B000000004001000000BB
S3150800D80001021C00000400400200000001021D0085
S3150800D810000800400400000001021E000004014048
S3150800D8200200000002012E00004001400000010035
S3150800D830020118000044014000000200020119001C
S3150800D840004801400000040002011A00001C0040C4
S3150800D8508000000001022C000020004000010000AA
S3150800D86001022D0010000000001002400002000016
S3150800D870020002000100090010000000001002402A
S3150800D880000800010400200001000B001000000041
S3150800D89000100240002000020800000201000D00EE
S3150800D8A01000000000100240004000031000002095
S3150800D8B001000E00010000000000024020000100E7
S3150800D8C002000200010005000100000000000240FD
S3150800D8D040000200020002000200060002000000EA
S3150800D8E00004024020000201040020000200050096
S3150800D8F008000000000C02400010030002000200AD
S3150800D90002000C0008000000000C02400020030181
S3150800D9100400200002000D00040000000008024078
S3150800D9204000040002000200030006000400000094
S3150800D93000080240800004010400200003000700DC
S3150800D940100000000010024020000500020002003E
S3150800D9500300050010000000001002404000050109
S3150800D9600400200003000600200000000014024006
S3150800D9704000060002000200030006002000000026
S3150800D980001402408000070002000200030007009E
S3150800D99020000000001402400001080002000200F6
S3150800D9A009000800200000000014024000020900D7
S3150800D9B002000200090009002E2E2F626C6F636BAD
S3150800D9C07365742F7274772F53544D33322F7372D5
S3150800D9D0632F71756575652E6300000004040400E5
S3150800D9E0F0D90008F8D9000800DA00080707070088
S3150800D9F0457643686E6C3100457643686E6C320036
S3150800DA00457643686E6C330050505000666D6F64FF
S3150800DA1000000000000000000000000000000000F8
S3110800DA2000000000000000804300000029
S315080100000B78FF2B00D070474B78002BFBD111F0F2
S3150801001015B900BF08B5012010F0FEFB034A40F2EE
S3150801002067610020BDE8084013F05EB901000108C8
S31508010030002010F075BA00BF704700BF2DE9F047E0
S31508010040DDF820E0099E9EF800C004460D4692465A
S315080100501F46BCF1000F02D101238EF8003030880B
S3150801006019F012FB22462B468046894619F0DAFD1D
S31508010070E0B10E9A3B6813600D9A7B6813600C9A7F
S31508010080BB7A1370109A3B7A13700B9AFB7A13702A
S315080100900F9A7B7A13700A9A002313605360119A98
S315080100A01370308819F0F0FA8046894642464B4665
S315080100B02046294619F0C0FD68B10B9B1B78D3B9B8
S315080100C001238AF800300C9B1B787BB901238AF837
S315080100D00130BDE8F087002642464B4620462946B0
S315080100E08AF8006019F0A8FD0028ECD100238AF8E7
S315080100F00130BDE8F08700238AF800300C9B1B7895
S31508010100002BF3D1E2E700BF2DE9F04F83B0164685
S315080101101F4682468B4618F0D3FF00220023044669
S315080101200D4619F07FFDD8BB8046002200232046E4
S3150801013029465FFA88F819F075FD50B930463946EF
S3150801014018F036FF02460B463046394619F092FD3D
S3150801015090BBB8F1000F5FD15046594600220023E3
S315080101604FF0010919F068FD20B30023002230463B
S31508010170394619F061FD4FF00103A0B15FFA89F91B
S31508010180DBB2994507D02046294632463B4619F047
S315080101902FF904460D462046294603B0BDE8F08FDF
S315080101A04FF00108C1E703465FFA89F9DBB29945C1
S315080101B0E9D1F0E7C146D8E732463B4650465946AB
S315080101C019F0F2FB21F000490022194B49468046F5
S315080101D019F00EF918F0ECFE02460B464046494660
S315080101E019F004F90B46024623F0004340460092F3
S315080101F0019300220F4B494619F0ACFA02460B4609
S31508010200DDE9000119F022FD4FF0010858B15FFA46
S3150801021088F8B8F1000F9FD000240025204629460A
S3150801022003B0BDE8F08F80465FFA88F8F1E700BFB2
S315080102300000E03F0000B03C2DE9F0410999089C17
S3150801024091F800E0DDF82880054616461F46BEF1FE
S31508010250000F01D101230B702B785B00DBB25A0921
S3150801026007EE902AB8EEE77AF7EE007AB4EEE77A67
S31508010270F1EE10FAA372227307DDD8E90001002214
S315080102801B4B19F0B5F8C8E900012878C009607355
S315080102902B781B01DBB24FEA1318637284F80B80C3
S315080102A019F0F2F932463B4619F0BCFC50B140460A
S315080102B019F0EAF9DDE9062319F0B4FC4FF0010358
S315080102C098B1D8B220726B782370AB786370EB78EB
S315080102D0A3702B79E3706B792371AB796371EB7931
S315080102E0A3710023E371BDE8F0810346E9E700BF86
S315080102F00000F03F2DE9F0410999089C91F800E0CA
S31508010300DDF82880054616461F46BEF1000F01D1C5
S3150801031001230B702B785B00DBB25A0907EE902A92
S31508010320B8EEE77AF7EE007AB4EEE77AF1EE10FA6C
S31508010330A372227307DDD8E9000100221B4B19F0CD
S3150801034057F8C8E900012878C00960732B781B01A2
S31508010350DBB24FEA1318637284F80B8019F094F92B
S3150801036032463B4619F05EFC50B1404619F08CF90D
S31508010370DDE9062319F056FC4FF0010398B1D8B20E
S3150801038020726B782370AB786370EB78A3702B7946
S31508010390E3706B792371AB796371EB79A3710023F0
S315080103A0E371BDE8F0810346E9E700BF0000F03FCD
S315080103B02DE9F0410799069C91F800E0DDF82080C7
S315080103C0054616461F46BEF1000F01D101230B70E3
S315080103D02B785B00DBB25A0907EE902AB8EEE77A6A
S315080103E0F7EE007AB4EEE77AF1EE10FAA372227309
S315080103F007DDD8E900010022154B18F0F9FFC8E915
S3150801040000016B782370AB786370EB78A3702B7956
S31508010410E3706B792371AB796371EB79A37100236F
S31508010420E3712B781B01DBB218096372E07219F0CC
S315080104302BF93B46324619F0F5FB4FF0010300B99B
S31508010440034623722B78DB096373BDE8F08100BF8D
S315080104500000F03F2DE9F0410799069C91F800E06C
S31508010460DDF82080054616461F46BEF1000F01D16C
S3150801047001230B702B785B00DBB25A0907EE902A31
S31508010480B8EEE77AF7EE007AB4EEE77AF1EE10FA0B
S31508010490A372227307DDD8E900010022154B18F073
S315080104A0A7FFC8E900016B782370AB786370EB7816
S315080104B0A3702B79E3706B792371AB796371EB794F
S315080104C0A3710023E3712B781B01DBB21809637250
S315080104D0E07219F0D9F83B46324619F0A3FB4FF002
S315080104E0010300B9034623722B78DB096373BDE860
S315080104F0F08100BF0000F03F2DE9F04F89B080463A
S315080105001B999DF8484091F800E004949DF84C40E9
S3150801051005949DF850509DF854609DF858709DF8C3
S315080105205CA09DF860B01D9CBEF1000F01D10120B1
S315080105300870DFF84CE110461946DEE9002318F089
S3150801054057FFCDE90001404619F08EF800224A4BC3
S31508010550CDE9020118F04CFFDDE9002318F046FF4A
S3150801056000220023CDE9060119F05CFB00284AD0D8
S31508010570209B1878199BC0015FFA80F983F80190CE
S315080105801F9BD3E9000119F0BDFB199B00015FFA16
S3150801059080F883F802801C9BD3E9000119F0B2FBAD
S315080105A09DF81030637040449DF81430A370484498
S315080105B01A9B2070E5702671677184F806A084F885
S315080105C007B01E9A1B681360DDE90023DDE9020105
S315080105D018F00CFF0022002306460F4619F022FBED
S315080105E0804600283CD1254BD3E90045002200234B
S315080105F02046294619F016FBE8B1199B83F80080B5
S3150801060009B0BDE8F08F1D4BD3E90089002200230C
S315080106104046494619F006FB0028D5D142464B46C5
S31508010620DDE90601FFF770FD0022002319F0FAFA49
S315080106300028C9D09CE722462B4630463946FFF7A3
S3150801064063FD0022002319F0EDFA4FF0010878B195
S315080106505FFA88F8199B83F8008009B0BDE8F08F26
S31508010660199B4FF0010883F8008009B0BDE8F08FA7
S3150801067080465FFA88F8EDE70000F03F3000002079
S31508010680780000202DE9F04F89B080461B999DF826
S31508010690484091F800E004949DF84C4005949DF873
S315080106A050509DF854609DF858709DF85CA09DF8CF
S315080106B060B01D9CBEF1000F01D101200870DFF862
S315080106C04CE110461946DEE9002318F091FECDE902
S315080106D00001404618F0C8FF00224A4BCDE9020145
S315080106E018F086FEDDE9002318F080FE00220023BB
S315080106F0CDE9060119F096FA00284AD0209B187808
S31508010700199BC0015FFA80F983F801901F9BD3E911
S31508010710000119F0F7FA199B00015FFA80F883F8CE
S3150801072002801C9BD3E9000119F0ECFA9DF8103000
S31508010730637040449DF81430A37048441A9B207096
S31508010740E5702671677184F806A084F807B01E9AC9
S315080107501B681360DDE90023DDE9020118F046FE96
S315080107600022002306460F4619F05CFA8046002847
S315080107703CD1254BD3E900450022002320462946D2
S3150801078019F050FAE8B1199B83F8008009B0BDE861
S31508010790F08F1D4BD3E900890022002340464946C4
S315080107A019F040FA0028D5D142464B46DDE9060143
S315080107B0FFF7AAFC0022002319F034FA0028C9D051
S315080107C09CE722462B4630463946FFF79DFC002218
S315080107D0002319F027FA4FF0010878B15FFA88F873
S315080107E0199B83F8008009B0BDE8F08F199B4FF07B
S315080107F0010883F8008009B0BDE8F08F80465FFAEA
S3150801080088F8EDE70000F03F68000020800000202E
S315080108102DE9F04F89B0064619999DF8544091F88B
S3150801082000E003949DF848709DF84C809DF850901F
S315080108309DF858501B9CBEF1000F01D1012008708C
S31508010840DFF848E110461946DEE9002318F0D0FD25
S31508010850824630468B4618F007FF0022494BCDE900
S31508010860000118F0C5FD52465B4618F0BFFD00228F
S315080108700023CDE9060119F0D5F9002846D01E9BBB
S31508010880179A1878C001C3B2537004931D9BD3E914
S31508010890000119F037FA179B0001C6B29E701A9B20
S315080108A0D3E9000119F02EFA049B67703044184405
S315080108B09DF80C302371189B207084F8028084F807
S315080108C003906571A571E5711C9A1B681360524600
S315080108D05B46DDE9000118F089FD00220023064682
S315080108E00F4619F09FF9804600283ED1264BD3E9D9
S315080108F00045002200232046294619F093F9F8B14C
S31508010900179B83F8008009B0BDE8F08F1E4B93ED65
S31508010910007B0022002351EC170B8DED047B19F0A7
S3150801092081F90028D3D1DDE90423DDE90601FFF7C2
S31508010930EBFB0022002319F075F90028C7D09EE7C2
S3150801094022462B4630463946FFF7DEFB00220023B6
S3150801095019F068F94FF0010878B15FFA88F8179B22
S3150801096083F8008009B0BDE8F08F179B4FF00108A6
S3150801097083F8008009B0BDE8F08F80465FFA88F8F1
S31508010980EDE700BF0000F03F3000002078000020AE
S315080109902DE9F04F89B0064619999DF8544091F80A
S315080109A000E003949DF848709DF84C809DF850909E
S315080109B09DF858501B9CBEF1000F01D1012008700B
S315080109C0DFF848E110461946DEE9002318F010FD64
S315080109D0824630468B4618F047FE0022494BCDE940
S315080109E0000118F005FD52465B4618F0FFFC00228F
S315080109F00023CDE9060119F015F9002846D01E9BFA
S31508010A00179A1878C001C3B2537004931D9BD3E992
S31508010A10000119F077F9179B0001C6B29E701A9B5F
S31508010A20D3E9000119F06EF9049B67703044184444
S31508010A309DF80C302371189B207084F8028084F885
S31508010A4003906571A571E5711C9A1B68136052467E
S31508010A505B46DDE9000118F0C9FC002200230646C1
S31508010A600F4619F0DFF8804600283ED1264BD3E918
S31508010A700045002200232046294619F0D3F8F8B18B
S31508010A80179B83F8008009B0BDE8F08F1E4B93EDE4
S31508010A90007B0022002351EC170B8DED047B19F026
S31508010AA0C1F80028D3D1DDE90423DDE90601FFF702
S31508010AB02BFB0022002319F0B5F80028C7D09EE7C2
S31508010AC022462B4630463946FFF71EFB00220023F5
S31508010AD019F0A8F84FF0010878B15FFA88F8179B62
S31508010AE083F8008009B0BDE8F08F179B4FF0010825
S31508010AF083F8008009B0BDE8F08F80465FFA88F870
S31508010B00EDE700BF0000F03F6800002080000020EC
S31508010B102DE9F04F89B0074618999DF8488091F854
S31508010B2000E09DF84C909DF850A09DF85460169DE4
S31508010B301A9CBEF1000F01D101200870DFF830E1DF
S31508010B4010461946DEE9002318F052FCCDE90001EA
S31508010B50384618F089FD0022434BCDE9020118F009
S31508010B6047FCDDE9002318F041FC00220023CDE90A
S31508010B70060119F057F8002841D01D9B18781C9BCF
S31508010B80C0015FFA80FB85F801B0D3E9000119F0CD
S31508010B90B9F80001C7B2199BAF70D3E9000119F082
S31508010BA0B1F838445844179B207084F8018084F8BA
S31508010BB0029084F803A026716671A671E6711B9AE4
S31508010BC01B681360DDE90023DDE9020118F00EFC5C
S31508010BD0002200238046894619F024F80446002895
S31508010BE039D1224BD3E90067002200233046394622
S31508010BF019F018F8E8B12C7009B0BDE8F08F1B4B55
S31508010C0093ED007B0022002351EC170B8DED047B3D
S31508010C1019F008F80028D5D1DDE90423DDE9060134
S31508010C20FFF772FA0022002318F0FCFF0028C9D04A
S31508010C30A3E732463B4640464946FFF765FA002296
S31508010C40002318F0EFFF4FF0010448B1E4B22C700D
S31508010C5009B0BDE8F08F01242C7009B0BDE8F08F0A
S31508010C600446E4B2F3E700BF0000F03F300000207D
S31508010C70780000202DE9F04F89B0074618999DF8AC
S31508010C80488091F800E09DF84C909DF850A09DF899
S31508010C905460169D1A9CBEF1000F01D101200870FF
S31508010CA0DFF830E110461946DEE9002318F0A0FB0B
S31508010CB0CDE90001384618F0D7FC0022434BCDE9AF
S31508010CC0020118F095FBDDE9002318F08FFB0022DD
S31508010CD00023CDE9060118F0A5FF002841D01D9B88
S31508010CE018781C9BC0015FFA80FB85F801B0D3E92F
S31508010CF0000119F007F80001C7B2199BAF70D3E9D3
S31508010D00000118F0FFFF38445844179B207084F8F7
S31508010D10018084F8029084F803A026716671A67191
S31508010D20E6711B9A1B681360DDE90023DDE9020100
S31508010D3018F05CFB002200238046894618F072FFF2
S31508010D400446002839D1224BD3E900670022002343
S31508010D503046394618F066FFE8B12C7009B0BDE88F
S31508010D60F08F1B4B93ED007B0022002351EC170BF0
S31508010D708DED047B18F056FF0028D5D1DDE9042353
S31508010D80DDE90601FFF7C0F90022002318F04AFF42
S31508010D900028C9D0A3E732463B4640464946FFF7F5
S31508010DA0B3F90022002318F03DFF4FF0010448B1C2
S31508010DB0E4B22C7009B0BDE8F08F01242C7009B09B
S31508010DC0BDE8F08F0446E4B2F3E700BF0000F03F48
S31508010DD068000020800000202DE9F0410799069C53
S31508010DE091F800E0DDF82080054616461F46BEF15B
S31508010DF0000F01D101230B702B785B00DBB25A0976
S31508010E0007EE902AB8EEE77AF7EE007AB4EEE77ABB
S31508010E10F1EE10FAA372227307DDD8E90001002268
S31508010E20154B18F0E5FAC8E900016B782370AB7821
S31508010E306370EB78A3702B79E3706B792371AB79C7
S31508010E406371EB79A3710023E3712878C009607394
S31508010E5018F01AFC3B46324618F0E4FE4FF001033F
S31508010E6000B9034623722B781B01DBB21A09637298
S31508010E70E272BDE8F08100BF0000F03F2DE9F041C4
S31508010E800799069C91F800E0DDF82080054616468C
S31508010E901F46BEF1000F01D101230B702B785B00B1
S31508010EA0DBB25A0907EE902AB8EEE77AF7EE007A2E
S31508010EB0B4EEE77AF1EE10FAA372227307DDD8E9E8
S31508010EC000010022154B18F093FAC8E900016B7866
S31508010ED02370AB786370EB78A3702B79E3706B7929
S31508010EE02371AB796371EB79A3710023E3712878D8
S31508010EF0C009607318F0C8FB3B46324618F092FEEB
S31508010F004FF0010300B9034623722B781B01DBB2AC
S31508010F101A096372E272BDE8F08100BF0000F03F72
S31508010F202DE9F04F83B00C460E9FDDF834809946C3
S31508010F300546324BD7E900011646002218F058FA41
S31508010F400123C7E9000189F8003023682C4A0C9966
S31508010F50013313602360D8F8003007EE903AB8EEF3
S31508010F60677AF7EE007AB4EE677AF1EE10FA05D1F0
S31508010F70DFF888904FF00008C1E9008937780193B6
S31508010F80384618F071FBDFF884801E4A019B13600E
S31508010F90C8E900012B602F7196F807E085F805E08E
S31508010FA096F801C085F806C096F8028085F807808C
S31508010FB096F8039085F8089096F804A085F809A094
S31508010FC096F805B0104C85F80AB0B079E87219465A
S31508010FD0A071234608220020277084F805B084F8FA
S31508010FE004A084F8039084F8028084F801C084F888
S31508010FF007E003B0BDE8F04F11F002BF0000F03F73
S3150801100074C6002040C1002020070020D0C6002059
S3150801101008B50121002012F0F7F80B21002012F083
S31508011020F3F80C21002012F0EFF80D21002012F040
S31508011030EBF80E21002012F0E7F81521002012F036
S31508011040E3F81621002012F0DFF81721002012F02C
S31508011050DBF81821002012F0D7F819210020BDE885
S31508011060084012F0D1B800BF2DE9F04F2DED0A8BDB
S315080110700D460968E24CE34E83B0013121602960CF
S315080110801899DDF864900968316007EE901AB8EE90
S31508011090678AF7EE007AB4EE678AF1EE10FA1F4610
S315080110A0044692462B7A40F0DE820BB901232B7255
S315080110B0DFF854830022434600921046012112F0BC
S315080110C0CFF8002884F8540040F30D8498F80130CD
S315080110D084F8213098F8023084F8223098F80330E1
S315080110E084F8233098F8043084F82430D6ED007A51
S315080110F098F8053084F8253098F8063084F82630B3
S3150801110098F8072098F8003084F82720F8EE678ABF
S3150801111084F82030F2EE067AF4EE678AF1EE10FAD8
S31508011120EB7940F08C830BB90123EB71DFF8DC8294
S3150801113000224346009210460B2112F091F800282E
S3150801114084F8530040F3E38398F80130637698F8FE
S315080111500230A37698F80330E37698F804302377BB
S31508011160D6ED007A98F80530637798F80630A377B4
S3150801117098F8072098F80030E277B8EE679A237650
S31508011180F2EE087AB4EE679AF1EE10FAAB7940F00E
S3150801119001830BB90123AB71DFF874820022434640
S315080111A0009210460C2112F05BF8002884F85200D0
S315080111B040F3C98398F80130637498F80230A37430
S315080111C098F80330E37498F804302375D6ED007A5D
S315080111D098F80530637598F80630A37598F80720CE
S315080111E098F80030E275F8EE679A2374F2EE0A7AF7
S315080111F0F4EE679AF1EE10FA6B7940F0F6820BB9C4
S3150801120001236B71DFF80C820022434600921046D7
S315080112100D2112F025F8002884F8510040F38E8339
S31508011220D6ED007A98F8073098F8062098F8051050
S3150801123098F8040098F803E098F802C098F801B005
S3150801124098F8008084F809B0B8EE67AA84F80AC04D
S3150801125084F80BE020736173A273E37384F8088042
S31508011260F2EE0C7AB4EE67AAF1EE10FA2B7940F099
S3150801127065820BB901232B71DFF89C810022434655
S31508011280009210460E2111F0EBFF002884F8500059
S315080112901BDD98F801B098F802E098F8030098F871
S315080112A000C098F8041098F8052098F8063098F8C0
S315080112B0078084F8078084F801B084F800C084F8B0
S315080112C002E0E07021716271A371D6ED007AF8EE41
S315080112D067AAF3EE057AF4EE67AAF1EE10FA6B7ACD
S315080112E040F094820BB901236B72DFF8308100223A
S315080112F0434600921046152111F0B2FF002884F8E2
S31508011300550040F3168398F8013084F8293098F887
S31508011310023084F82A3098F8033084F82B3098F88C
S31508011320043084F82C30D6ED007A98F8053084F824
S315080113302D3098F8063084F82E3098F8072098F85A
S31508011340003084F82F20B8EE67BA84F82830F3EE17
S31508011350067AB4EE67BAF1EE10FAAB7A40F000827B
S315080113600BB90123AB72DFF8B8800022434600921D
S315080113701046162111F074FF002884F8560040F330
S31508011380D38298F8013084F8313098F8023084F81D
S31508011390323098F8033084F8333098F8043084F8FA
S315080113A03430D6ED007A98F8053084F8353098F857
S315080113B0063084F8363098F8072098F8003084F813
S315080113C03720F8EE67BA84F83030F3EE077AF4EE90
S315080113D067BAF1EE10FA6B7B40F0EE810BB9012387
S315080113E06B73DFF8408000224346009210461721AE
S315080113F011F036FF002884F8590040F3908213E073
S3150801140070C000205CC10020C8060020100700201B
S31508011410000700203807002040070020D0060020DA
S31508011420D8060020E006002098F8013084F84930F3
S3150801143098F8023084F84A3098F8033084F84B302B
S3150801144098F8043084F84C30D6ED007A98F80530CF
S3150801145084F84D3098F8063084F84E3098F807200D
S3150801146098F8003084F84F20B8EE67CA84F84830F7
S31508011470F3EE087AB4EE67CAF1EE10FA2B7B40F068
S3150801148043810BB901232B73DFF8E083002243461E
S3150801149000921046182111F0E3FE002884F858003E
S315080114A0D6ED007A40F3388298F8013084F8413055
S315080114B098F8023084F8423098F8033084F84330BB
S315080114C098F8043084F8443098F8053084F84530A3
S315080114D098F8063084F8463098F8072098F80030CE
S315080114E084F84720F8EE677A84F84030B3EE097A33
S315080114F0F4EE477AF1EE10FAEB7A40F0CF800BB9A9
S315080115000123EB72D64D00222B4600921046192173
S3150801151011F0A6FE002884F8570017DD6B78AA7823
S3150801152084F83930EB7884F83A2084F83B302A7904
S315080115306B7984F83C20A97984F83D30EA792B78CF
S3150801154084F83E1084F83F2084F83830F7EE007AA4
S31508011550B4EE678AF1EE10FA40F0BF8094F9543080
S3150801156094F8200094F821C094F822E094F82360B6
S3150801157094F8245094F8251094F8262007EE103A8A
S3150801158094F8273099F8004007EE904AF8EEE77A82
S31508011590F7EE006AF4EE667AF1EE10FA15D1F8EE76
S315080115A0C77AF5EE407AF1EE10FA57D11A9C4FF048
S315080115B002084FF0010B89F8008084F800B099F809
S315080115C0004007EE904AF8EEE77AF0EE006AF4EE8C
S315080115D0667AF1EE10FA37D1B8EEC77AB7EE008A15
S315080115E0B4EEC87AF1EE10FA38DBFB711A9B87F86C
S315080115F001C001243870BA7187F802E0FE703D71A6
S3150801160079711C70179B974A1C704FF0030C89F867
S3150801161000C0BAF800301380169A138018F024F81F
S31508011620189BD3ED007A904BF8EE677AC3E900016F
S31508011630F4EE487AF1EE10FA00F04F8199F800308D
S3150801164007EE903AF8EEE77AF5EE407AF1EE10FAFF
S3150801165004D11A9A012389F80030137003B0BDEC3E
S315080116600A8BBDE8F08FB3B1002380F8543080F8B7
S31508011670203080F8213080F8223080F8233080F835
S31508011680243080F8253080F8263080F82730F0EEAF
S31508011690488A2B723EE5F0EE488A3BE5002B3FF47B
S315080116A055AFF7EE007AB4EE678A0023F1EE10FA29
S315080116B084F8573084F8383084F8393084F83A3069
S315080116C084F83B3084F83C3084F83D3084F83E3069
S315080116D084F83F30EB723FF441AFF2EE067AF4EE4E
S315080116E0678AF1EE10FA40F0C38094F95330207EF0
S315080116F094F819C094F81AE0E67E257F617FA27FE7
S3150801170007EE103AE37F3DE7002B00F0CE80002379
S3150801171084F8583084F8403084F8413084F84230EF
S3150801172084F8433084F8443084F8453084F84630E8
S3150801173084F84730F0EE4C7A2B73D7E6002B00F08D
S31508011740C080002384F8503023706370A370E3705F
S3150801175023716371A371E371F0EE4AAA2B71B8E59F
S31508011760002B00F0A880002384F8563084F8303026
S3150801177084F8313084F8323084F8333084F83430E0
S3150801178084F8353084F8363084F83730F0EE4BBAC1
S31508011790AB721AE6002B00F09A80002384F85230C7
S315080117A023746374A374E37423756375A375E3756E
S315080117B0F0EE499AAB7119E5002B79D0002384F82C
S315080117C0593084F8483084F8493084F84A3084F826
S315080117D04B3084F84C3084F84D3084F84E3084F818
S315080117E04F30B0EE6BCA6B7342E6002B6CD0002308
S315080117F084F8513023726372A372E372237363739D
S31508011800A373E373B0EE69AA6B7129E5002B55D072
S31508011810002384F8553084F8283084F8293084F870
S315080118202A3084F82B3084F82C3084F82D3084F84B
S315080118302E3084F82F30B0EE6ABA6B7287E5002B2A
S3150801184048D0002384F8533023766376A376E3766B
S3150801185023776377A377E377B0EE689AEB718FE422
S315080118600807002058C10020B8C10020F006002052
S31508011870F2EE087AB4EE679AF1EE10FA38D0F2EE83
S315080118800A7AF4EE679AF1EE10FA61D194F95130B9
S31508011890207A94F809C094F80AE0E67A257B617BF8
S315080118A0A27B07EE103AE37B6CE6F0EE4C7A1DE676
S315080118B0B0EE6BCADCE5F0EE4BBA86E5B0EE6ABA75
S315080118C045E5F0EE4AAA04E5B0EE69AAC8E4F0EEE9
S315080118D0499A8BE4B0EE689A52E46B4B1B99002245
S315080118E0C1E90023AAE6D6ED007AF8EE678A11E483
S315080118F094F95230207C94F811C094F812E0E67CF1
S31508011900257D617DA27D07EE103AE37D3AE6D6EDA7
S31508011910007AB8EE679A33E4F8EE677AE6E5D6ED2B
S31508011920007AB8EE67CAA3E5D6ED007AF8EE67BA8B
S315080119304BE5D6ED007AB8EE67BA08E5D6ED007A3A
S31508011940B8EE67AA8CE4D6ED007AF8EE679A4DE40C
S31508011950F2EE0C7AB4EE67AAF1EE10FA1BD0F3EEAA
S31508011960057AF4EE67AAF1EE10FA23D194F9553007
S3150801197094F8280094F829C094F82AE094F82B6082
S3150801198094F82C5094F82D1094F82E2007EE103A5E
S3150801199094F82F30F6E594F95030207894F801C080
S315080119A094F802E0E67825796179A27907EE103A8A
S315080119B0E379E7E5F3EE067AB4EE67BAF1EE10FAE3
S315080119C014D194F9563094F8300094F831C094F84B
S315080119D032E094F8336094F8345094F8351094F85A
S315080119E0362007EE103A94F83730CBE5F3EE077A4E
S315080119F0F4EE67BAF1EE10FA14D194F9593094F865
S31508011A00480094F849C094F84AE094F84B6094F871
S31508011A104C5094F84D1094F84E2007EE103A94F86D
S31508011A204F30AFE5F3EE087AB4EE67CAF1EE10FA75
S31508011A3014D194F9583094F8400094F841C094F8B8
S31508011A4042E094F8436094F8445094F8451094F8A9
S31508011A50462007EE103A94F8473093E594F9573043
S31508011A6094F8380094F839C094F83AE094F83B6051
S31508011A7094F83C5094F83D1094F83E2007EE103A3D
S31508011A8094F83F307EE500BF0000F03F012108B51C
S31508011A90084611F0B9FB0B21012011F0B5FB0C2109
S31508011AA0012011F0B1FB0D21012011F0ADFB0E2132
S31508011AB0012011F0A9FB1521012011F0A5FB162122
S31508011AC0012011F0A1FB1721012011F09DFB18211E
S31508011AD0012011F099FB19210120BDE8084011F0F8
S31508011AE093BB00BF2DE9F04F2DED0A8B0D46096812
S31508011AF0E24CE34E83B00131216029601899DDF883
S31508011B0064900968316007EE901AB8EE678AF7EEB5
S31508011B10007AB4EE678AF1EE10FA1F460446924639
S31508011B202B7A40F0DE820BB901232B72DFF854833E
S31508011B300022012143460092084611F091FB002834
S31508011B4084F8540040F30D8498F8013084F8213064
S31508011B5098F8023084F8223098F8033084F8233054
S31508011B6098F8043084F82430D6ED007A98F80530D0
S31508011B7084F8253098F8063084F8263098F8072036
S31508011B8098F8003084F82720F8EE678A84F8203020
S31508011B90F2EE067AF4EE678AF1EE10FAEB7940F086
S31508011BA08C830BB90123EB71DFF8DC8200224346F3
S31508011BB000920B21012011F053FB002884F85300F1
S31508011BC040F3E38398F80130637698F80230A376F8
S31508011BD098F80330E37698F804302377D6ED007A3F
S31508011BE098F80530637798F80630A37798F80720B0
S31508011BF098F80030E277B8EE679A2376F2EE087A1B
S31508011C00B4EE679AF1EE10FAAB7940F001830BB99D
S31508011C100123AB71DFF874820022434600920C213E
S31508011C20012011F01DFB002884F8520040F3C983F6
S31508011C3098F80130637498F80230A37498F8033061
S31508011C40E37498F804302375D6ED007A98F80530D0
S31508011C50637598F80630A37598F8072098F8003048
S31508011C60E275F8EE679A2374F2EE0A7AF4EE679A49
S31508011C70F1EE10FA6B7940F0F6820BB901236B711C
S31508011C80DFF80C820022434600920D21012011F053
S31508011C90E7FA002884F8510040F38E83D6ED007ADE
S31508011CA098F8073098F8062098F8051098F804006F
S31508011CB098F803E098F802C098F801B098F80080FF
S31508011CC084F809B0B8EE67AA84F80AC084F80BE06C
S31508011CD020736173A273E37384F80880F2EE0C7AB9
S31508011CE0B4EE67AAF1EE10FA2B7940F065820BB9CA
S31508011CF001232B71DFF89C810022434600920E21B5
S31508011D00012011F0ADFA002884F850001BDD98F87F
S31508011D1001B098F802E098F8030098F800C098F81E
S31508011D20041098F8052098F8063098F8078084F882
S31508011D30078084F801B084F800C084F802E0E070F6
S31508011D4021716271A371D6ED007AF8EE67AAF3EEF6
S31508011D50057AF4EE67AAF1EE10FA6B7A40F09482EE
S31508011D600BB901236B72DFF83081002243460092DA
S31508011D701521012011F074FA002884F8550040F362
S31508011D80168398F8013084F8293098F8023084F8D7
S31508011D902A3098F8033084F82B3098F8043084F800
S31508011DA02C30D6ED007A98F8053084F82D3098F85D
S31508011DB0063084F82E3098F8072098F8003084F811
S31508011DC02F20B8EE67BA84F82830F3EE067AB4EE17
S31508011DD067BAF1EE10FAAB7A40F000820BB901232B
S31508011DE0AB72DFF8B8800022434600921621012023
S31508011DF011F036FA002884F8560040F3D38298F891
S31508011E00013084F8313098F8023084F8323098F885
S31508011E10033084F8333098F8043084F83430D6ED3A
S31508011E20007A98F8053084F8353098F8063084F841
S31508011E30363098F8072098F8003084F83720F8EEFD
S31508011E4067BA84F83030F3EE077AF4EE67BAF1EE42
S31508011E5010FA6B7B40F0EE810BB901236B73DFF847
S31508011E6040800022434600921721012011F0F8F91B
S31508011E70002884F8590040F3908213E0D8C1002065
S31508011E80ACC6002028070020B00600205007002015
S31508011E90B8060020C0060020E8060020F806002043
S31508011EA01807002098F8013084F8493098F802306C
S31508011EB084F84A3098F8033084F84B3098F804309F
S31508011EC084F84C30D6ED007A98F8053084F84D3010
S31508011ED098F8063084F84E3098F8072098F80030BC
S31508011EE084F84F20B8EE67CA84F84830F3EE087ACA
S31508011EF0B4EE67CAF1EE10FA2B7B40F043810BB9B9
S31508011F0001232B73DFF8E083002243460092182150
S31508011F10012011F0A5F9002884F85800D6ED007AB9
S31508011F2040F3388298F8013084F8413098F8023045
S31508011F3084F8423098F8033084F8433098F804302E
S31508011F4084F8443098F8053084F8453098F8063016
S31508011F5084F8463098F8072098F8003084F8472026
S31508011F60F8EE677A84F84030B3EE097AF4EE477AE8
S31508011F70F1EE10FAEB7A40F0CF800BB90123EB7240
S31508011F80D64D00222B4600921921012011F068F93D
S31508011F90002884F8570017DD6B78AA7884F8393059
S31508011FA0EB7884F83A2084F83B302A796B7984F8FF
S31508011FB03C20A97984F83D30EA792B7884F83E10DB
S31508011FC084F83F2084F83830F7EE007AB4EE678A51
S31508011FD0F1EE10FA40F0BF8094F9543094F82000DD
S31508011FE094F821C094F822E094F8236094F82450D8
S31508011FF094F8251094F8262007EE103A94F827301D
S3150801200099F8004007EE904AF8EEE77AF7EE006A8B
S31508012010F4EE667AF1EE10FA15D1F8EEC77AF5EE16
S31508012020407AF1EE10FA57D11A9C4FF002084FF098
S31508012030010B89F8008084F800B099F8004007EE92
S31508012040904AF8EEE77AF0EE006AF4EE667AF1EE77
S3150801205010FA37D1B8EEC77AB7EE008AB4EEC87A65
S31508012060F1EE10FA38DBFB711A9B87F801C00124DF
S315080120703870BA7187F802E0FE703D7179711C708B
S31508012080179B974A1C704FF0030C89F800C0BAF8E1
S3150801209000301380169A138017F0E6FA189BD3EDD1
S315080120A0007A904BF8EE677AC3E90001F4EE487AB4
S315080120B0F1EE10FA00F04F8199F8003007EE903AE8
S315080120C0F8EEE77AF5EE407AF1EE10FA04D11A9AAB
S315080120D0012389F80030137003B0BDEC0A8BBDE803
S315080120E0F08FB3B1002380F8543080F8203080F89F
S315080120F0213080F8223080F8233080F8243080F8A7
S31508012100253080F8263080F82730F0EE488A2B7281
S315080121103EE5F0EE488A3BE5002B3FF455AFF7EE76
S31508012120007AB4EE678A0023F1EE10FA84F8573084
S3150801213084F8383084F8393084F83A3084F83B30FA
S3150801214084F83C3084F83D3084F83E3084F83F30DA
S31508012150EB723FF441AFF2EE067AF4EE678AF1EEDE
S3150801216010FA40F0C38094F95330207E94F819C0D0
S3150801217094F81AE0E67E257F617FA27F07EE103A82
S31508012180E37F3DE7002B00F0CE80002384F858302A
S3150801219084F8403084F8413084F8423084F843307A
S315080121A084F8443084F8453084F8463084F847305A
S315080121B0F0EE4C7A2B73D7E6002B00F0C080002393
S315080121C084F8503023706370A370E37023716371D0
S315080121D0A371E371F0EE4AAA2B71B8E5002B00F062
S315080121E0A880002384F8563084F8303084F83130DA
S315080121F084F8323084F8333084F8343084F8353052
S3150801220084F8363084F83730F0EE4BBAAB721AE6FA
S31508012210002B00F09A80002384F8523023746374EB
S31508012220A374E37423756375A375E375F0EE499A90
S31508012230AB7119E5002B79D0002384F8593084F85D
S31508012240483084F8493084F84A3084F84B3084F8A9
S315080122504C3084F84D3084F84E3084F84F30B0EE67
S315080122606BCA6B7342E6002B6CD0002384F851309D
S3150801227023726372A372E37223736373A373E373A3
S31508012280B0EE69AA6B7129E5002B55D0002384F8B5
S31508012290553084F8283084F8293084F82A3084F8AF
S315080122A02B3084F82C3084F82D3084F82E3084F8BD
S315080122B02F30B0EE6ABA6B7287E5002B48D000233F
S315080122C084F8533023766376A376E37623776377A8
S315080122D0A377E377B0EE689AEB718FE4480700209D
S315080122E0DAC60020B0C6002030070020F2EE087AD0
S315080122F0B4EE679AF1EE10FA38D0F2EE0A7AF4EEF5
S31508012300679AF1EE10FA61D194F95130207A94F86E
S3150801231009C094F80AE0E67A257B617BA27B07EE81
S31508012320103AE37B6CE6F0EE4C7A1DE6B0EE6BCA2A
S31508012330DCE5F0EE4BBA86E5B0EE6ABA45E5F0EEB5
S315080123404AAA04E5B0EE69AAC8E4F0EE499A8BE414
S31508012350B0EE689A52E46B4B1B990022C1E900233F
S31508012360AAE6D6ED007AF8EE678A11E494F95230B6
S31508012370207C94F811C094F812E0E67C257D617DF5
S31508012380A27D07EE103AE37D3AE6D6ED007AB8EE7D
S31508012390679A33E4F8EE677AE6E5D6ED007AB8EEA1
S315080123A067CAA3E5D6ED007AF8EE67BA4BE5D6ED2E
S315080123B0007AB8EE67BA08E5D6ED007AB8EE67AAEC
S315080123C08CE4D6ED007AF8EE679A4DE4F2EE0C7AD3
S315080123D0B4EE67AAF1EE10FA1BD0F3EE057AF4EE25
S315080123E067AAF1EE10FA23D194F9553094F828002A
S315080123F094F829C094F82AE094F82B6094F82C50A4
S3150801240094F82D1094F82E2007EE103A94F82F30F0
S31508012410F6E594F95030207894F801C094F802E072
S31508012420E67825796179A27907EE103AE379E7E545
S31508012430F3EE067AB4EE67BAF1EE10FA14D194F90E
S31508012440563094F8300094F831C094F832E094F894
S31508012450336094F8345094F8351094F8362007EE22
S31508012460103A94F83730CBE5F3EE077AF4EE67BA0B
S31508012470F1EE10FA14D194F9593094F8480094F809
S3150801248049C094F84AE094F84B6094F84C5094F893
S315080124904D1094F84E2007EE103A94F84F30AFE5F8
S315080124A0F3EE087AB4EE67CAF1EE10FA14D194F98C
S315080124B0583094F8400094F841C094F842E094F8F2
S315080124C0436094F8445094F8451094F8462007EE72
S315080124D0103A94F8473093E594F9573094F8380050
S315080124E094F839C094F83AE094F83B6094F83C5073
S315080124F094F83D1094F83E2007EE103A94F83F30D0
S315080125007EE500BF0000F03F2DE9F04F83B00C4691
S315080125100E9FDDF8348099460546324BD7E900010E
S315080125201646002216F064FF0123C7E9000189F85F
S31508012530003023682C4A0C99013313602360D8F8BC
S31508012540003007EE903AB8EE677AF7EE007AB4EE05
S31508012550677AF1EE10FA05D1DFF888904FF0000896
S31508012560C1E9008937780193384617F07DF8DFF815
S3150801257084801E4A019B1360C8E900012B602F71F4
S3150801258096F807E085F805E096F801C085F806C0D3
S3150801259096F8028085F8078096F8039085F80890E2
S315080125A096F804A085F809A096F805B0104C85F8A8
S315080125B00AB0B079E8721946A071234608220120AB
S315080125C0277084F805B084F804A084F8039084F889
S315080125D0028084F801C084F807E003B0BDE8F04F33
S315080125E010F00EBC0000F03FE8C10020ECBB002053
S315080125F020070020C8C000204B780BB901234B7077
S315080126000B7833B100230B7003701946032012F0BF
S3150801261007BB01230B7003701946032012F000BB98
S315080126202DE9F04F85B00E9D109C002800F03181F0
S31508012630217809B9012121701F46129B188816466F
S3150801264017F022F88046894602460B463046394637
S3150801265017F0E8FA08B100232B7042464B4630467C
S31508012660394617F0E9FA002800F025811799AF4B8A
S315080126700022D1E9000117F0E9FAA378002800F051
S315080126802E810BB90123A370A94B3046D3E9002348
S31508012690394616F0ADFE129B80461888894616F013
S315080126A0E3FF0022A34B82468B4616F0A1FE424663
S315080126B04B4616F09BFE00220023CDE9000117F0D8
S315080126C0B1FA002800F01581199B93F800A0179B11
S315080126D04FEACA1A5FFA8AFA85F805A0D3E9000112
S315080126E017F010FB00015FFA80FB119B85F806B015
S315080126F0D3E9000117F006FB139B139A504458447B
S3150801270018702B7853702B7893702B78D3702B789D
S3150801271013712B7853712B7893712B78D3710F9B87
S31508012720159A5B681360129B188816F09DFF42463E
S315080127304B4616F05BFE002200238046894617F0B9
S3150801274071FA002840F0D2807B4BD3E900AB002216
S3150801275000235046594617F065FA002840F0E280F2
S3150801276052465B4640464946FDF7CEFC0023002209
S3150801277017F058FA4FF0010300B90346DBB2AB7004
S3150801278018996A4B0022D1E9000117F05FFA00286F
S3150801279000F09C8063780BB901236370674B304660
S315080127A0D3E90023394616F023FE129B06461888FC
S315080127B00F4616F059FF00225E4B8046894616F0F1
S315080127C017FE32463B4616F011FE002200238246CA
S315080127D08B4617F027FA002800F0B480199B187861
S315080127E0189BC0015FFA80F885F80380D3E90001D8
S315080127F017F088FA0001C4B2119B2C71D3E90001C4
S3150801280017F080FA149B149A2044404418702B78C8
S3150801281053702B7893702B78D3702B7813712B7890
S3150801282053712B7893712B78D3710F9B169A1B686A
S315080128301360129B188816F017FF32463B4616F0AE
S31508012840D5FD002200238046894617F0EBF90028BA
S3150801285040F092803A4BD3E90067002200233046C4
S31508012860394617F0DFF9002840F0838032463B46A7
S3150801287040464946FDF748FC0023002217F0D2F9E5
S315080128804FF0010300B90346DBB26B7005B0BDE832
S31508012890F08F2378002BF9D0A3780BB1A870A0701C
S315080128A063780BB1002363700023AB706B702370E0
S315080128B005B0BDE8F08FA378A3B942464B4630462A
S315080128C0394617F0B9F900287FF45AAF6378002B17
S315080128D0DCD000236B70637005B0BDE8F08F002B68
S315080128E03FF44EAF0023AB70A370E6E70123AB704C
S315080128F046E7114B93ED007B0022002351EC170BA1
S315080129008DED027B17F08EF900284AD042464B46D8
S315080129105046594616F06AFD0022002317F082F93F
S315080129200028E3D10023AB702AE700BF00001C4052
S31508012930780000200000F03F3000002080000020D1
S3150801294068000020204B93ED007B0022002351EC08
S31508012950170B8DED007B17F065F980B132463B46C2
S315080129604046494616F042FD0022002317F05AF95F
S3150801297010B900236B7089E701236B7086E7DDE9DF
S31508012980002350465946FDF7BFFB0022002317F0E6
S3150801299049F900287FF422AF129B188816F064FEC5
S315080129A04BE7DDE90223DDE90001FDF7ADFB002276
S315080129B0002317F037F900287FF486AE129B188892
S315080129C016F052FEB3E600BF680000200B791BB172
S315080129D00023C37103720B714B7843B1CB7813B1E2
S315080129E000238370CB708B7843B900234B70002387
S315080129F08370C371437003720B70704700238B7029
S31508012A00F3E700BF2DE9F04F9BB016462F9A1392B4
S31508012A10309A1492319A1592329A16921F46339A1F
S31508012A20299B10930B922B9B349A0A930C922C9BFD
S31508012A30359A11930D922D9B369A129326AC249DA5
S31508012A40DDF89480DDF8A8B02E9B0E9294E8100666
S31508012A50379A0F92389A1792002840D022780AB9E5
S31508012A6001222270CDE91867D3E900670022304BAD
S31508012A703046394617F0D6F84FF0010E002833D004
S31508012A803046394600222A4B5FFA8EF617F0CAF805
S31508012A90002832D023791BB10023EB712B722371E5
S31508012AA00F9B2F930E9B2E930D9B2D930C9B2C9373
S31508012AB00B9B2B930A9B2A93DDE918230134304695
S31508012AC02694CDF8A4B0CDF8A0A0CDF89C90CDF869
S31508012AD0948024951BB0BDE8F04FFFF7A1BD23787C
S31508012AE023B91BB0BDE8F08F8646C9E721462846BB
S31508012AF01BB0BDE8F04FFFF769BF179A0992169AFE
S31508012B000892159A0792149A0692139A0592129A9E
S31508012B100492119A0392231D109A02928DE80804D1
S31508012B20EA1D08F10803DDE91801FDF787FAB7E799
S31508012B300000F03F2DE9F04F85B00E9D109C00284E
S31508012B4000F03481217809B9012121701F46129BB1
S31508012B501888164616F098FD8046894602460B46A1
S31508012B603046394617F05EF820B100232B70159BC5
S31508012B701B786B7042464B463046394617F05CF86F
S31508012B80002800F025811899AE4B0022D1E90001F1
S31508012B9017F05CF8A378002800F02E810BB9012301
S31508012BA0A370A94B3046D3E90023394616F020FC19
S31508012BB0129B80461888894616F056FD0022A34BBB
S31508012BC082468B4616F014FC42464B4616F00EFC1E
S31508012BD000220023CDE9000117F024F8002800F0AF
S31508012BE015811A9B93F800A0189B4FEACA1A5FFA37
S31508012BF08AFA85F806A0D3E9000117F083F80001DF
S31508012C005FFA80FB119B85F807B0D3E9000117F03D
S31508012C1079F8139B139A5044584418706B7853707B
S31508012C202B7893702B78D3702B7813712B7853717B
S31508012C302B7893712B78D3710F9B169A5B68136067
S31508012C40129B188816F010FD42464B4616F0CEFB2D
S31508012C50002200238046894616F0E4FF002840F04A
S31508012C60D2807B4BD3E900AB00220023504659465C
S31508012C7016F0D8FF002840F0E28052465B464046EF
S31508012C804946FDF741FA0023002216F0CBFF4FF023
S31508012C90010300B90346DBB2EB701999694B0022AF
S31508012CA0D1E9000116F0D2FF002800F09C80637874
S31508012CB00BB901236370674B3046D3E900233946C4
S31508012CC016F096FB129B064618880F4616F0CCFCA2
S31508012CD000225E4B8046894616F08AFB32463B4601
S31508012CE016F084FB0022002382468B4616F09AFFD3
S31508012CF0002800F0B3801A9B1878199BC0015FFA67
S31508012D0080F885F80480D3E9000116F0FBFF00017D
S31508012D10C4B2119B6C71D3E9000116F0F3FF149B41
S31508012D20149A2044404418706B7853702B7893702A
S31508012D302B78D3702B7813712B7853712B78937169
S31508012D402B78D3710F9B179A1B681360129B1888EF
S31508012D5016F08AFC32463B4616F048FB0022002351
S31508012D608046894616F05EFF002840F091803A4B6E
S31508012D70D3E90067002200233046394616F052FF90
S31508012D80002840F0828032463B4640464946FDF7D8
S31508012D90BBF90023002216F045FF4FF0010300B9E5
S31508012DA00346DBB2AB7005B0BDE8F08F2378002B84
S31508012DB0F9D0A3780BB1E870A07063780BB1002342
S31508012DC063700023EB70AB70237005B0BDE8F08F1C
S31508012DD0A378A3B942464B463046394616F02CFF2E
S31508012DE000287FF45AAF6378002BDCD00023AB7040
S31508012DF0637005B0BDE8F08F002B3FF44EAF00239A
S31508012E00EB70A370E6E70123EB7046E7104B93EDF1
S31508012E10007B0022002351EC170B8DED027B16F087
S31508012E2001FF002849D042464B465046594616F0FE
S31508012E30DDFA0022002316F0F5FE0028E3D100236F
S31508012E40EB702AE700001C40780000200000F03FE4
S31508012E50300000208000002068000020204B93ED00
S31508012E60007B0022002351EC170B8DED007B16F039
S31508012E70D9FE80B132463B464046494616F0B6FA77
S31508012E800022002316F0CEFE10B90023AB708AE7A4
S31508012E900123AB7087E7DDE9002350465946FDF764
S31508012EA033F90022002316F0BDFE00287FF423AF74
S31508012EB0129B188816F0D8FB4CE7DDE90223DDE9F9
S31508012EC00001FDF721F90022002316F0ABFE0028C8
S31508012ED07FF487AE129B188816F0C6FBB4E600BFCE
S31508012EE068000020F0B585B00EAC70CC002830D053
S31508012EF0287808B9012028701846174600295FD195
S31508012F00AB78002B4DD1002F4FD16B78002B45D1D3
S31508012F10A37D002B2DD0637D3370A37B7370E37B78
S31508012F20B370237CF370637C3371A37C7371E37C88
S31508012F30B371237DF371A37D002B2DD1237A003341
S31508012F4018BF012313990B70119B01221A7005B042
S31508012F50F0BD2B78002BFAD0AB780BB1A075A87011
S31508012F606B7813B1002323726B7000232B7005B0A5
S31508012F70F0BDE3793370237873706378B370A378FF
S31508012F80F370E3783371237973716379B371A37934
S31508012F90F371A37D002BD1D00123D3E727726F707C
S31508012FA0B6E7A175A970002FAFD0129B0293013520
S31508012FB001950094DDE90C230A98FDF74BFAA7E77A
S31508012FC004F10E02129B0293A91C00920191DDE9FC
S31508012FD00C23FDF7EDF996E72DE9F04FA9B03399E2
S31508012FE0119135991D9138991491399921913A99E7
S31508012FF023913B9922913C9924913D9915913E99AA
S315080130001C913F991E91409916914199189143999E
S31508013010329C349DDDF8D8A0DDF8DCB0DDF80891E6
S315080130201A9100284DD0297809B901212970CDE9CD
S315080130301223149BB3F80080404616F025FBDDE900
S31508013040122306460F4616F015FE00284BD100231B
S31508013050209300231F9330463946DDE9122316F0E3
S31508013060E1FD002858D1E3782593237826936378E0
S315080130702793209B94F804B06779A079A278002B4E
S3150801308040F0C181AB7883B1209AA273AA70149BD0
S3150801309094F804B0B3F80080E3782593237826934F
S315080130A067796378A079A27827931F9B002B40F054
S315080130B01A826B7813B11F9AE2726A7029B0BDE859
S315080130C0F08F2B78002BF9D0AB780BB1A073A870D1
S315080130D06B780BB100236B700023A373E3722B701B
S315080130E029B0BDE8F08F15990A4B0022D1E90001F4
S315080130F016F0ACFD011C18BF012120911C99054B46
S315080131000022D1E9000116F0A1FD0028A1D0012372
S315080131101F93A0E700001C409BF8003023702693FC
S3150801312000269AF800306370A670D9E900892793BA
S315080131300022C74B4046494616F09CFD002800F080
S315080131408B81DFF80CB3B046002700264FF0000A42
S31508013150119B84F80A80D3E904235046594616F090
S31508013160F9FA119B8246D3E9022330468B46394642
S3150801317016F01AFC0022002306460F4616F05CFDDF
S31508013180002840F0E9813046394615F011FF064618
S315080131900F465946504616F0B5FD39468044304625
S315080131A016F0B0FD4044C3B2E37025931A9BD3E9E8
S315080131B000670022A64B3046394616F05BFD00280B
S315080131C040F07F810022A34B3046394616F048FD70
S315080131D0002800F0E281002200233046394616F025
S315080131E02BFD4FF0010A002800F0E68127F000497F
S315080131F03046494615F0DCFEB04602460B46064601
S315080132000F464046494616F0F1F8CDE91A014FEA4C
S31508013210CA1A5FFA8AFA3046119E84F809A0D6E9D5
S315080132200A23394616F096FAD6E9082380468946CE
S31508013230DDE91A0116F0B8FB0022002306460F46FF
S3150801324016F0FAFC002840F072813046394615F02E
S31508013250AFFE06460F464946404616F053FD394627
S315080132608244304616F04EFD50445FFA80FB189BA7
S3150801327084F804B0D3E900670022754B3046394615
S3150801328016F0F8FC002840F025810022714B3046E3
S31508013290394616F0E5FC002800F065810022002376
S315080132A03046394616F0C8FC4FF0010A002800F0EE
S315080132B07F8127F000493046494615F079FEB04628
S315080132C002460B4606460F464046494616F08EF814
S315080132D0CDE918014FEACA1A5FFA8AFA3046119EF1
S315080132E084F808A0D6E91023394616F033FAD6E948
S315080132F00E2380468946DDE9180116F055FB0022A2
S31508013300002306460F4616F097FC002840F01D815B
S315080133103046394615F04CFE06460F4649464046A4
S3150801332016F0F0FC39468244304616F0EBFC504460
S31508013330C7B2169B6771D3E900890022444B404600
S31508013340494616F097FC002840F0B1800022414B0F
S315080133504046494616F084FC002800F00D810022FB
S3150801336000234046494616F067FC4FF0010600283F
S3150801337000F01C8129F00043CDF858801793DDE948
S31508013380160115F015FE02460B4680468946DDE90B
S31508013390160116F02BF8CDE91801F601F6B2119BC4
S315080133A0E671D3E916234046494616F0D3F9119B2F
S315080133B0CDE91601D3E91423DDE9180116F0F4FA6B
S315080133C0002200238046894616F036FC002840F084
S315080133D0B5804046494615F0EBFD80468946DDE94C
S315080133E0160116F08FFC49460644404616F08AFC3B
S315080133F03044149BC0B2A071B3F80080209B002210
S31508013400002B3FF43FAE1E9B0E93159B0D93119B0C
S31508013410069203F16401229B0C93219B0B931D9B3E
S315080134200A93279B0593269B0493259B0390AE1C21
S3150801343004F10E0E01930297CDF800B04046DDE97E
S31508013440122309960891CDF81CE0FDF755F81EE6FA
S3150801345000001440000014C000225B4B4046494658
S3150801346016F0FEFB00260027002800F08F8029F0C1
S3150801347000474046394615F09BFD02460B468246F3
S315080134808B464046394615F0B1FF002206460F46DF
S3150801349040460023494616F0CFFB4FF001080028A5
S315080134A000F088804FEAC8185FFA88F850E69FED61
S315080134B0447B4FF000088DED187BDFF8109100264C
S315080134C06DE79FED3F7B00268DED1A7B3F4F4FF051
S315080134D0000AA0E69FED3A7B00268DED187B3B4F4F
S315080134E04FF0000AFAE6119B389260333A931E9B15
S315080134F040931C9B3F93249B3E93239B3D931D9B8B
S315080135003C93279B3793269B3693259B3393DDE97B
S31508013510122301350B34359040463B95399434973F
S31508013520CDF8C8B029B0BDE8F04FFDF7ABB83046C5
S31508013530394615F0B5FC06460F468CE6404649461F
S3150801354015F0AEFC8046894649E73046394615F0FE
S31508013550A7FC06460F46E1E63046394615F0A0FCBB
S3150801356006460F4615E69FED167B00268DED187B60
S31508013570164F4FF0800AB1E69FED117B4FF0000818
S315080135808DED187BDFF84490802608E74FF0000A96
S31508013590DFF838B04FF08008DAE59FED097B0026A1
S315080135A08DED1A7B094F4FF0800A34E60646E1E6AF
S315080135B082467EE6804675E7824617E6AFF30080C7
S315080135C00000000000000000000014C000001440C4
S315080135D0F0B585B00EAC70CC002830D0287808B983
S315080135E0012028701846174600295FD1AB78002BB1
S315080135F04DD1002F4FD16B78002B45D1A37D002BE0
S315080136002DD0637D3370A37B7370E37BB370237C0A
S31508013610F370637C3371A37C7371E37CB371237D8F
S31508013620F371A37D002B2DD1237A003318BF012313
S3150801363013990B70119B01221A7005B0F0BD2B78F6
S31508013640002BFAD0AB780BB1A075A8706B7813B1C3
S31508013650002323726B7000232B7005B0F0BDE3794C
S315080136603370237873706378B370A378F370E37853
S315080136703371237973716379B371A379F371A37D77
S31508013680002BD1D00123D3E727726F70B6E7A17556
S31508013690A970002FAFD0129B0293013501950094B2
S315080136A0DDE90C230A98FCF7D5FEA7E704F10E021B
S315080136B0129B0293A91C00920191DDE90C23FCF7E8
S315080136C077FE96E738B521F000430D4600221946E4
S315080136D0154B044616F0B0FAC8B10022134B204622
S315080136E0294616F0BDFAA8B90022114B20462946EB
S315080136F016F0C0FA48B9204629460C4B002215F0A7
S3150801370075FEBDE8384015F0CBBB002400252046E0
S31508013710294638BD20462946044B002215F068FE85
S31508013720BDE8384015F044BC000030430000E03FD6
S315080137300000E0BF38B500210446022011F03EFA28
S315080137401A4B00220125C4E98623C4E95623C4E994
S31508013750302384F8C252FDF75BFCFEF797F9002186
S31508013760084611F02BFA2846002111F027FA002104
S31508013770102011F023FA0021042011F01FFA00216C
S31508013780122011F01BFA0021132011F017FA00215B
S315080137900E2011F013FA00210F2011F00FFA002163
S315080137A00320BDE8384011F009BA00BF0000F03F18
S315080137B02DE9F04F2DED068B9346ADF5617D92F817
S315080137C02323179382460D4612B901238BF8233317
S315080137D09BF8C132002B00F0C88600238BF8C13252
S315080137E019468AF85A30022011F01AFA9BF8C232A1
S315080137F0002B00F089809BF81F3313B901238BF83E
S315080138001F33F99B1B78002B41F08583FA9B1C78A3
S31508013810003418BF0124F09BD3E900670022364B18
S315080138203046394616F0FEF948B900224FF0804372
S315080138303046394616F0F6F9002801F0B5859BF8A9
S31508013840DF32002B01F0C2859BF82033002B01F0F3
S31508013850C485002C45F0EB829BF8DF32A3B1F299BF
S3150801386000224FF08043C1E90023F19AB5F8E83404
S31508013870138095F804358BF8B4329BF8DF321BB107
S315080138801D4B0022CBE90823F99A1B490023137023
S31508013890FA9A00260027002013708BF8DF32CBE94D
S315080138A09A67CAE9000100230022DAE9000116F045
S315080138B0B9F94FF0010300B90346DBE99A678BF8BA
S315080138C0C23230460D4B3946002216F0C9F94FF07F
S315080138D0010300B903468BF8DF320022074B304655
S315080138E0394616F0BDF9002808F05980044B002224
S315080138F0CBE99A2315E000BF0000F03F00808B401A
S315080139000000F0BF0000DC439BF81F23002A00F0EB
S3150801391039869BF82023002A42F01C8500238BF860
S315080139201F33F19B1FED097A1B8807EE903AF8EED3
S31508013930E77AF4EE477AF1EE10FA16D1F19A0023F6
