S02300002E2E2F48414E636F6465725F453430375F5454415F47726F7570322E737265636D
S3150800400024D70020E57C020800000000000000001C
S315080040100000000000000000000000000000000092
S31508004020000000000000000000000000D54A020859
S315080040300000000000000000714B0208C14B020896
S315080040400000000000000000000000000000000062
S315080040500000000000000000000000000000000052
S3150800406000000000B158020800000000000000002F
S315080040700000000000000000000000000000000032
S31508004080000000000000000000000000FD3E0208DD
S31508004090B53E0208D93E0208213F0208000000008A
S315080040A09D5802088958020875580208655802087A
S315080040B0515802083D580208295802080000000015
S315080040C000000000000000000000000000000000E2
S315080040D000000000B5620208CD620208E562020827
S315080040E00000000000000000AD63020800000000A8
S315080040F01558020801580208F15702080000000086
S31508004100000000001563020800000000000000001F
S315080041100000000000000000000000000000000091
S3150800412000000000000000000000000019630208FB
S3150800413000000000E1580208000000008D3F020858
S31508004140453F0208693F0208B13F0208DD630208DD
S31508004150000000000000000000000000FD620208E8
S315080041600000000000000000000000000000000041
S315080041700000000000000000000000000000000031
S311080041800000000000000000EE11AA5527
S3150800C00000000000000000000000000000004E4094
S3150800C0100000000000805B400000000000005D405A
S3150800C02000000000000064400000000000C06440FA
S3150800C0300000000000406A400000000000E0704078
S3150800C0400000000000007440000000000020774057
S3150800C0500000000000E07A400000000000407B403D
S3150800C0600000000000007E400000000000908040B4
S3150800C07000000000007082400000000000008440BC
S3150800C0800000000000908540000000000070874016
S3150800C09000000000000089400000000000908A406F
S3150800C0A00000000000208C400000000000B08D4019
S3150800C0B00000000000408F40000000000000000063
S3150800C0C00000000000004E400000000000805B40B9
S3150800C0D00000000000005D40000000000000644011
S3150800C0E00000000000806B400000000000406C402B
S3150800C0F00000000000E070400000000000A074404E
S3150800C10000000000000075400000000000C07740F5
S3150800C1100000000000E07A400000000000007E40B9
S3150800C1200000000000E08040000000000010814090
S3150800C13000000000007082400000000000008440FB
S3150800C1400000000000E08540000000000070874005
S3150800C1500000000000788740000000000088874043
S3150800C16000000000000089400000000000E08A404E
S3150800C1700000000000108B400000000000708C409A
S3150800C1800000000000508E400000000000808E4035
S3150800C1900000000000E08F4000000000000890400A
S3150800C1A00000000000000000000000000000F03F52
S3150800C1B0000000000000F03F000000000000F03F13
S3150800C1C0000000000000F03F000000000000F03F03
S3150800C1D00000000000000000000000000000F03F22
S3150800C1E0000000000000F03F000000000000000012
S3150800C1F0000000000000F03F000000000000F03FD3
S3150800C200000000000000F03F0000000000000000F1
S3150800C210000000000000F03F000000000000F03FB2
S3150800C2200000000000000000000000000000F03FD1
S3150800C230000000000000F03F000000000000F03F92
S3150800C240000000000000F03F000000000000F03F82
S3150800C250000000000000F03F0000000000000000A1
S3150800C260000000000000F03F000000000000F03F62
S3150800C270000000000000F03F000000000000000081
S3150800C280000000000000F03F000000000000F03F42
S3150800C2900000000000000000000000000000F03F61
S3150800C2A0000000000000F03F000000000000F03F22
S3150800C2B0000000000000F03F000000000000000041
S3150800C2C0000000000000F03F000000000000F03F02
S3150800C2D0000000000000F03F000000000000000021
S3150800C2E0000000000000F03F000000000000F03FE2
S3150800C2F0000000000000F03F000000000000F03FD2
S3150800C3000000000000000000000000000000F03FF0
S3150800C310000000000000F03F0000000000000000E0
S3150800C320000000000000F03F000000000000F03FA1
S3150800C330000000000000F03F000000000000F03F91
S3150800C34000000101010001000101000000010001D7
S3150800C3500000000000B890400000000000708C400B
S3150800C3600000000000C077400000000000805B402D
S3150800C37000000000000064400000000000004E407D
S3150800C3800000000000E08A400000000000A07440A1
S3150800C390000000E0D022CB3F000000000000304043
S3150800C3A0000000000000B03F000000000000304020
S3150800C3B0000000000000B03F000000000000304010
S3150800C3C0000000000000B03F000000000000304000
S3150800C3D0000000000000B03F000000000000D03F51
S3150800C3E00000000000001040000000000000D03FE0
S3150800C3F00000000000001040000000000000D03FD0
S3150800C4000000000000001040000000000000D03FBF
S3150800C41000000000000010400000000000007E4000
S3150800C4200000000000408F400000000000805B40D4
S3150800C4300000000000006440000000000000744096
S3150800C4400000000000004E400000000000C07740D9
S3150800C4500000000000B890400000000000E07040B6
S3150800C4600000000000805B400000000000006440FF
S3150800C4700000000000004E400000000000806B40F5
S3150800C4800000000000406A400000000000408F40A5
S3150800C4900000000000805B400000000000006440CF
S3150800C4A00000000000004E400000000000908040A0
S3150800C4B00000000000E07A400000000000007E4016
S3150800C4C00000000000E08F400000000000B8904027
S3150800C4D00000000000008440000000000070874053
S3150800C4E00000000000708C400000000000C077408B
S3150800C4F00000000000E070400000000000805B4083
S3150800C50000000000000089400000000000006440B0
S3150800C5100000000000004E400000000000C08240FD
S3150800C5200000000000E085400000000000E08A40AE
S3150800C5300000000000A074400000000000806B406E
S3150800C5400000000000508E40000000000000F03F90
S3150800C550000000000000F03F000000000000F03F6F
S3150800C560000000000000F03F000000000000F03F5F
S3150800C570000000000000F03F000000000000F03F4F
S3150800C580000000000000F03F000000000000F03F3F
S3150800C590000000000000F03F000000000000F03F2F
S3150800C5A0000000000000F03F000000000000F03F1F
S3150800C5B0000000000000F03F000000000000F03F0F
S3150800C5C0000000000000F03F000000000000F03FFF
S3150800C5D0000000000000F03F000000000000F03FEF
S3150800C5E0000000000000F03F000000000000F03FDF
S3150800C5F0000000000000F03F000000000000F03FCF
S3150800C600000000000000F03F00000000000030407D
S3150800C610000000000000B03F0000000000003040AD
S3150800C620000000000000B03F00000000000030409D
S3150800C630000000000000B03F00000000000030408D
S3150800C640000000000000B03F00000000000030407D
S3150800C650000000000000B03F00000000000030406D
S3150800C660000000000000B03F00000000000030405D
S3150800C670000000000000B03F00000000000030404D
S3150800C680000000000000B03F00000000000050401D
S3150800C690000000000000903F00000000000050402D
S3150800C6A0000000000000903F00000000000020404D
S3150800C6B0000000000000C03F00000000000010401D
S3150800C6C0000000000000D03F0000000000001040FD
S3150800C6D0000000000000D03F0000000000001040ED
S3150800C6E0000000000000D03F0000000000001040DD
S3150800C6F0000000000000D03F000000E0D022CB3F41
S3150800C700000000000000B03F0000000000003040BC
S3150800C710000000000000B03F0000000000003040AC
S3150800C720000000000000B03F00000000000030409C
S3150800C730000000000000B03F00000000000030408C
S3150800C740000000000000B03F00000000000030407C
S3150800C750000000000000B03F00000000000030406C
S3150800C760000000000000B03F00000000000030405C
S3150800C770000000000000B03F00000000000030404C
S3150800C780000000000000B03F00000000000030403C
S3150800C790000000000000B03F00000000000030402C
S3150800C7A0000000000000B03F00000000000030401C
S3150800C7B0000000000000B03F00000000000030400C
S3150800C7C00000000000208C400000000000B08D40F2
S3150800C7D000000000006890400000000000408F4004
S3150800C7E00000000000805B4000000000000064407C
S3150800C7F00000000000406A4000000000002077406A
S3150800C8000000000000007440000000000090804016
S3150800C8100000000000007E400000000000908540F7
S3150800C82000000000000084400000000000908A40DC
S3150800C83000000000000089400000000000004E4093
S3150800C84000000000007087400000000000E0704013
S3150800C8500000000000E07A400000000000708240FE
S3150800C860000000000000F03F00000000000000008B
S3150800C87000000000000000000000000000000000AA
S3150800C8800000000000000000000001000001000098
S3150800C8900100000001000000010000000100000086
S3150800C8A00000000016000000160000001600000038
S3150800C8B01600000000000000190000001900000022
S3150800C8C01900000019000000000000000000010027
S3150800C8D00100000001000000010000000100000046
S3150800C8E00000000001000000010000000100000037
S3150800C8F0010000000000000000000000000018C051
S3150800C900000000000000903F0000000000005040BA
S3150800C91000000000000008C0000000000000C03F42
S3150800C920000000000000204000000000000018C0C1
S3150800C930000000000000903F00000000000050408A
S3150800C9401500000015000000150000001500000085
S3150800C95000000000000001000100000001000000C6
S3150800C96001000000010000000000000001000000B6
S3150800C97001000000010000000100000000000000A6
S3150800C98000000000000018C0000000000000903FF2
S3150800C990000000000000504000000000000008C031
S3150800C9A0000000000000C03F00000000000020401A
S3150800C9B000000000000018C0000000000000903FC2
S3150800C9C0000000000000504015000000150000009F
S3150800C9D01500000015000000000000001600000009
S3150800C9E016000000160000001600000000000000F7
S3150800C9F019000000190000001900000019000000C5
S3150800CA0000000000180000001800000018000000D0
S3150800CA1018000000000000001700000017000000C2
S3150800CA201700000017000000000000001F000000AB
S3150800CA301F0000001F0000001F000000000000008B
S3150800CA400E0000000E0000000E0000000E000000A0
S3150800CA50000000000D0000000D0000000D000000A1
S3150800CA600D000000000000000C0000000C00000093
S3150800CA700C0000000C000000000000000B00000085
S3150800CA800B0000000B0000000B0000000000000077
S3150800CA900100000001000000010000000100000084
S3150800CAA000000000000000006464640048414E6312
S3150800CAB06F6465725F453430375F5454415F47721F
S3150800CAC06F7570325F736F66747761726549445F1C
S3150800CAD076315F3135303632325F31343232323286
S3150800CAE04170704374726C5461736B0048414E63B5
S3150800CAF06F6465725F453430375F5454415F4772DF
S3150800CB006F7570322E63000020000000001402408A
S3150800CB1008000900200000000014024010000E0062
S3150800CB20200000000014024020000F002000000032
S3150800CB3000140240400004002000000000140240D7
S3150800CB4080000500200000000014024000010600D5
S3150800CB502000000000140240000207002000000028
S3150800CB600014024000040800040000000008024007
S3150800CB7001000A00040000000008024004000C003E
S3150800CB80414443636F6E76657273696F6E54617361
S3150800CB906B0000002E2E2F626C6F636B7365742F0B
S3150800CBA07274772F53544D33322F7372632F68651F
S3150800CBB061705F342E630000546D724370754C6F5C
S3150800CBC06164000049444C45000000002E2E2F6287
S3150800CBD06C6F636B7365742F7274772F53544D3370
S3150800CBE0322F7372632F7461736B732E63000000A8
S3150800CBF02E2E2F626C6F636B7365742F7274772F8A
S3150800CC0053544D33322F7372632F74696D65727383
S3150800CC102E630000546D72205376630043616E459F
S3150800CC2076656E745461736B0000000043616E5440
S3150800CC3072616E736D69745461736B002E2E2F6268
S3150800CC406C6F636B7365742F7274772F53544D33FF
S3150800CC50322F7372632F53544D33325F4534303756
S3150800CC602F63616E2E63000000640040000000021E
S3150800CC7008000000000C0240010000000800000047
S3150800CC80000C0240020001000913141516000000EA
S3150800CC900068004000000004020000000004024092
S3150800CCA020000500020000000004024040000600C3
S3150800CCB0093F40414200000001010201020202024E
S3150800CCC00203020204020203030304030305030327
S3150800CCD006030305040406040407040408040407F9
S3150800CCE005050805050806050807050807060808CE
S3150800CCF00608080708080800457643686E6C310080
S3150800CD00457643686E6C3200457643686E6C330030
S3150800CD102E2E2F626C6F636B7365742F7274772F68
S3150800CD2053544D33322F7372632F53544D33325F3E
S3150800CD30453430372F6D61632E6300002E2E2F6227
S3150800CD406C6F636B7365742F7274772F53544D33FE
S3150800CD50322F7372632F53544D33325F4534303755
S3150800CD602F706F72742E63000000014001000000EE
S3150800CD700201000010000000001002400002090035
S3150800CD80100000000010024000080B0000040040DC
S3150800CD90020000000102000001000000000002403D
S3150800CDA040000600020000000004024020000500C2
S3150800CDB0000800400400000001020000080000000E
S3150800CDC0000C024000100C0008000000000C024095
S3150800CDD000200D00000401400200000002030000CC
S3150800CDE0040000000008024040000600040000009D
S3150800CDF00008024080000700000001400100000012
S3150800CE0002011900000000400100000001021C0098
S3150800CE10000400400200000001021D000008004056
S3150800CE200400000001021E00000401400200000088
S3150800CE3002012C0000400140000001000201180018
S3150800CE4000440140000002000201190000480140A8
S3150800CE500000040002011A00001C004080000000C7
S3150800CE6001022C00002000400001000001022D00F4
S3150800CE700400000000080240010000002000000035
S3150800CE800014024040000000200000000014024088
S3150800CE90800000002000000000140240000100008D
S3150800CEA020000000001402400002000020000000DC
S3150800CEB000140240000400000200000000040240C2
S3150800CEC0800000000200000000040240400000004C
S3150800CED010000000001002400400000010000000CE
S3150800CEE00010024010000000100000000010024070
S3150800CEF02000000010000000001002404000000062
S3150800CF0040000000001802408000000040000000B9
S3150800CF10001802400001000040000000001802400E
S3150800CF2000100000400000000018024000800000C9
S3150800CF30010000000000024010000000020000008E
S3150800CF40000402402000000001000000000002402A
S3150800CF504000000001000000000002402000000020
S3150800CF6008000000000C0240010000000800000054
S3150800CF70000C02400200000008000000000C0240FD
S3150800CF800400000008000000000C02400800000031
S3150800CF9008000000000C0240100000000800000015
S3150800CFA0000C02402000000008000000000C0240AF
S3150800CFB04000000008000000000C0240800000004D
S3150800CFC008000000000C02400001000008000000F4
S3150800CFD0000C02400002000008000000000C02409D
S3150800CFE00004000008000000000C024000080000D1
S3150800CFF008000000000C02400010000008000000B5
S3150800D000000C02400020000008000000000C02404E
S3150800D0100040000008000000000C024000800000EC
S3150800D020100000000010024001000000100000007F
S3150800D030001002400200000010000000001002402C
S3150800D04008000000100000000010024080000000E8
S3150800D050100000000010024000010000100000004F
S3150800D06000100240000200001000000000100240FC
S3150800D0700004000010000000001002400008000034
S3150800D0801000000000100240001000001000000010
S3150800D09000100240002000001000000000100240AE
S3150800D0A00040000010000000001002400080000050
S3150800D0B020000000001402400100000020000000CB
S3150800D0C00014024002000000200000000014024084
S3150800D0D004000000200000000014024008000000C0
S3150800D0E0200000000014024010000000200000008C
S3150800D0F00014024020000000200000000014024036
S3150800D1000008000020000000001402400010000083
S3150800D110200000000014024000200000200000004B
S3150800D12000140240004000002000000000140240E5
S3150800D13000800000400000000018024001000000C6
S3150800D14040000000001802400200000040000000F5
S3150800D15000180240040000004000000000180240C9
S3150800D16008000000400000000018024010000000FF
S3150800D17040000000001802402000000040000000A7
S3150800D180001802404000000040000000001802405D
S3150800D19000020000400000000018024000040000E1
S3150800D1A0400000000018024000080000400000008F
S3150800D1B0001802400020000040000000001802404D
S3150800D1C000400000010000000000024001000000CD
S3150800D1D004000000000802400100000020000000D2
S3150800D1E00014024040000000200000000014024025
S3150800D1F0800000002000000000140240000100002A
S3150800D2002000000000140240000200002000000078
S3150800D210001402400004000002000000000402405E
S3150800D22080000000020000000004024040000000E8
S3150800D230100000000010024004000000100000006A
S3150800D240001002401000000010000000001002400C
S3150800D25020000000100000000010024040000000FE
S3150800D2604000000000180240800000004000000056
S3150800D27000180240000100004000000000180240AB
S3150800D2800010000040000000001802400080000066
S3150800D290010000000000024010000000020000002B
S3150800D2A000040240200000000100000000000240C7
S3150800D2B040000000010000000000024020000000BD
S3150800D2C008000000000C02400100000008000000F1
S3150800D2D0000C02400200000008000000000C02409A
S3150800D2E00400000008000000000C024008000000CE
S3150800D2F008000000000C02401000000008000000B2
S3150800D300000C02402000000008000000000C02404B
S3150800D3104000000008000000000C024080000000E9
S3150800D32008000000000C0240000100000800000090
S3150800D330000C02400002000008000000000C024039
S3150800D3400004000008000000000C0240000800006D
S3150800D35008000000000C0240001000000800000051
S3150800D360000C02400020000008000000000C0240EB
S3150800D3700040000008000000000C02400080000089
S3150800D380100000000010024001000000100000001C
S3150800D39000100240020000001000000000100240C9
S3150800D3A00800000010000000001002408000000085
S3150800D3B010000000001002400001000010000000EC
S3150800D3C00010024000020000100000000010024099
S3150800D3D000040000100000000010024000080000D1
S3150800D3E010000000001002400010000010000000AD
S3150800D3F0001002400020000010000000001002404B
S3150800D40000400000100000000010024000800000EC
S3150800D4102000000000140240010000002000000067
S3150800D4200014024002000000200000000014024020
S3150800D430040000002000000000140240080000005C
S3150800D4402000000000140240100000002000000028
S3150800D45000140240200000002000000000140240D2
S3150800D4600008000020000000001402400010000020
S3150800D47020000000001402400020000020000000E8
S3150800D4800014024000400000200000000014024082
S3150800D4900080000040000000001802400100000063
S3150800D4A04000000000180240020000004000000092
S3150800D4B00018024004000000400000000018024066
S3150800D4C0080000004000000000180240100000009C
S3150800D4D04000000000180240200000004000000044
S3150800D4E000180240400000004000000000180240FA
S3150800D4F0000200004000000000180240000400007E
S3150800D500400000000018024000080000400000002B
S3150800D51000180240002000004000000000180240E9
S3150800D520004000000400000000080240002000003F
S3150800D530000001400100000002011B00000000403D
S3150800D5400100000001021C00000400400200000067
S3150800D55001021D00000800400400000001021E0030
S3150800D560000401400200000002012E0000400140B4
S3150800D57000000100020118000044014000000200FA
S3150800D58002011900004801400000040002011A00C7
S3150800D590001C00408000000001022C000020004012
S3150800D5A00001000001022D001000000000100240DA
S3150800D5B0000200000200020001000900100000003D
S3150800D5C000100240000800010400200001000B00C2
S3150800D5D010000000001002400020000208000002AF
S3150800D5E001000D001000000000100240004000037A
S3150800D5F01000002001000E0001000000000002409B
S3150800D60020000100020002000100050001000000E0
S3150800D610000002404000020002000200020006006C
S3150800D620020000000004024020000201040020005D
S3150800D6300200050008000000000C0240001003006C
S3150800D6400200020002000C0008000000000C024064
S3150800D650002003010400200002000D000400000061
S3150800D6600008024040000400020002000300060011
S3150800D67004000000000802408000040104002000A5
S3150800D68003000700100000000010024020000500FB
S3150800D690020002000300050010000000001002400E
S3150800D6A040000501040020000300060020000000D9
S3150800D6B000140240400006000200020003000600B3
S3150800D6C0200000000014024080000700020002004B
S3150800D6D003000700200000000014024000010800B3
S3150800D6E002000200090008002000000000140240A1
S3150800D6F000020900020002000900090000100140AA
S3150800D700100000000225000002000000000402408C
S3150800D71040000600020000000004024080000700E6
S3150800D7200700000000440040000002000126000037
S3150800D73008000000000C0240200005000800000058
S3150800D740000C0240400006000700000000480040A8
S3150800D750000004000127000008000000000C024039
S3150800D7600001080008000000000C02400002090041
S3150800D77007000000001401402000000002470000D6
S3150800D78004000000000802404000060004000000F3
S3150800D7900008024080000700080000005643502099
S3150800D7A0436F6E666967000056435020496E74657C
S3150800D7B0726661636500000053544D6963726F6554
S3150800D7C06C656374726F6E696373000053544D33EE
S3150800D7D032205669727475616C20436F6D506F7292
S3150800D7E07420696E204853206D6F64650000000040
S3150800D7F053544D3332205669727475616C20436FE9
S3150800D8006D506F727420696E204653204D6F6465A3
S3150800D81000000000303030303030303030353042A3
S3150800D8200000000030303030303030303035304392
S3150800D83000000000000001400100000002011B007A
S3150800D840000000400100000001021C000004004026
S3150800D8500200000001021D0000080040040000004C
S3150800D86001021E00000401400200000002012E0011
S3150800D8700040014000000100020118000044014078
S3150800D88000000200020119000048014000000400DF
S3150800D89002011A00001C00408000000001022C0052
S3150800D8A0002000400001000001022D0010000000C9
S3150800D8B000100240000200000200020001000900F8
S3150800D8C010000000001002400008000104002000BB
S3150800D8D001000B00100000000010024000200002AA
S3150800D8E00800000201000D001000000000100240B0
S3150800D8F0004000031000002001000E000100000097
S3150800D900000002402000010002000200010005009C
S3150800D9100100000000000240400002000200020070
S3150800D9200200060002000000000402402000020176
S3150800D930040020000200050008000000000C024058
S3150800D940001003000200020002000C00080000009C
S3150800D950000C0240002003010400200002000D0014
S3150800D9600400000000080240400004000200020013
S3150800D97003000600040000000008024080000401BD
S3150800D98004002000030007001000000000100240F9
S3150800D9902000050002000200030005001000000038
S3150800D9A000100240400005010400200003000600A4
S3150800D9B02000000000140240400006000200020099
S3150800D9C00300060020000000001402408000070043
S3150800D9D002000200030007002000000000140240B5
S3150800D9E000010800020002000900080020000000EB
S3150800D9F000140240000209000200020009000900A2
S3150800DA002E2E2F626C6F636B7365742F7274772F6B
S3150800DA1053544D33322F7372632F71756575652EA6
S3150800DA20630000000404040038DA000840DA00083D
S3150800DA3048DA000807070700457643686E6C310028
S3150800DA40457643686E6C3200457643686E6C3300E3
S3150800DA5050505000666D6F64000000000000000022
S3150800DA600000000000000000000000000000008028
S3090800DA704300000061
S315080100000B78FF2B00D070474B78002BFBD112F0F1
S31508010010E1B800BF08B5012011F0CAFB034A40F256
S3150801002067610020BDE8084014F02AB901000108FB
S31508010030002011F041BA00BF704700BF2DE9F04713
S31508010040DDF820E0099E9EF800C004460D4692465A
S315080100501F46BCF1000F02D101238EF8003030880B
S315080100601AF0DEFA22462B46804689461AF0A6FD84
S31508010070E0B10E9A3B6813600D9A7B6813600C9A7F
S31508010080BB7A1370109A3B7A13700B9AFB7A13702A
S315080100900F9A7B7A13700A9A002313605360119A98
S315080100A0137030881AF0BCFA8046894642464B4698
S315080100B0204629461AF08CFD68B10B9B1B78D3B9EB
S315080100C001238AF800300C9B1B787BB901238AF837
S315080100D00130BDE8F087002642464B4620462946B0
S315080100E08AF800601AF074FD0028ECD100238AF81A
S315080100F00130BDE8F08700238AF800300C9B1B7895
S31508010100002BF3D1E2E700BF2DE9F04F83B0164685
S315080101101F4682468B4619F09FFF0022002304469C
S315080101200D461AF04BFDD8BB804600220023204617
S3150801013029465FFA88F81AF041FD50B93046394622
S3150801014019F002FF02460B46304639461AF05EFDA3
S3150801015090BBB8F1000F5FD15046594600220023E3
S315080101604FF001091AF034FD20B30023002230466E
S3150801017039461AF02DFD4FF00103A0B15FFA89F94E
S31508010180DBB2994507D02046294632463B461AF046
S31508010190FBF804460D462046294603B0BDE8F08F14
S315080101A04FF00108C1E703465FFA89F9DBB29945C1
S315080101B0E9D1F0E7C146D8E732463B4650465946AB
S315080101C01AF0BEFB21F000490022194B4946804628
S315080101D01AF0DAF819F0B8FE02460B4640464946C7
S315080101E01AF0D0F80B46024623F000434046009227
S315080101F0019300220F4B49461AF078FA02460B463C
S31508010200DDE900011AF0EEFC4FF0010858B15FFA7A
S3150801021088F8B8F1000F9FD000240025204629460A
S3150801022003B0BDE8F08F80465FFA88F8F1E700BFB2
S315080102300000E03F0000B03C2DE9F0410999089C17
S3150801024091F800E0DDF82880054616461F46BEF1FE
S31508010250000F01D101230B702B785B00DBB25A0921
S3150801026007EE902AB8EEE77AF7EE007AB4EEE77A67
S31508010270F1EE10FAA372227307DDD8E90001002214
S315080102801B4B1AF081F8C8E900012878C009607388
S315080102902B781B01DBB24FEA1318637284F80B80C3
S315080102A01AF0BEF932463B461AF088FC50B1404670
S315080102B01AF0B6F9DDE906231AF080FC4FF00103BE
S315080102C098B1D8B220726B782370AB786370EB78EB
S315080102D0A3702B79E3706B792371AB796371EB7931
S315080102E0A3710023E371BDE8F0810346E9E700BF86
S315080102F00000F03F2DE9F0410999089C91F800E0CA
S31508010300DDF82880054616461F46BEF1000F01D1C5
S3150801031001230B702B785B00DBB25A0907EE902A92
S31508010320B8EEE77AF7EE007AB4EEE77AF1EE10FA6C
S31508010330A372227307DDD8E9000100221B4B1AF0CC
S3150801034023F8C8E900012878C00960732B781B01D6
S31508010350DBB24FEA1318637284F80B801AF060F95E
S3150801036032463B461AF02AFC50B140461AF058F973
S31508010370DDE906231AF022FC4FF0010398B1D8B241
S3150801038020726B782370AB786370EB78A3702B7946
S31508010390E3706B792371AB796371EB79A3710023F0
S315080103A0E371BDE8F0810346E9E700BF0000F03FCD
S315080103B02DE9F0410799069C91F800E0DDF82080C7
S315080103C0054616461F46BEF1000F01D101230B70E3
S315080103D02B785B00DBB25A0907EE902AB8EEE77A6A
S315080103E0F7EE007AB4EEE77AF1EE10FAA372227309
S315080103F007DDD8E900010022154B19F0C5FFC8E948
S3150801040000016B782370AB786370EB78A3702B7956
S31508010410E3706B792371AB796371EB79A37100236F
S31508010420E3712B781B01DBB218096372E0721AF0CB
S31508010430F7F83B4632461AF0C1FB4FF0010300B903
S31508010440034623722B78DB096373BDE8F08100BF8D
S315080104500000F03F2DE9F0410799069C91F800E06C
S31508010460DDF82080054616461F46BEF1000F01D16C
S3150801047001230B702B785B00DBB25A0907EE902A31
S31508010480B8EEE77AF7EE007AB4EEE77AF1EE10FA0B
S31508010490A372227307DDD8E900010022154B19F072
S315080104A073FFC8E900016B782370AB786370EB784A
S315080104B0A3702B79E3706B792371AB796371EB794F
S315080104C0A3710023E3712B781B01DBB21809637250
S315080104D0E0721AF0A5F83B4632461AF06FFB4FF068
S315080104E0010300B9034623722B78DB096373BDE860
S315080104F0F08100BF0000F03F2DE9F04F89B00746B3
S3150801050018999DF8488091F800E09DF84C909DF85F
S3150801051050A09DF85460169D1A9CBEF1000F01D19A
S3150801052001200870DFF830E110461946DEE900239C
S3150801053019F02AFFCDE9000138461AF061F80022C0
S31508010540434BCDE9020119F01FFFDDE9002319F03C
S3150801055019FF00220023CDE906011AF02FFB002816
S3150801056041D01D9B18781C9BC0015FFA80FB85F85A
S3150801057001B0D3E900011AF091FB0001C7B2199B3A
S31508010580AF70D3E900011AF089FB38445844179B28
S31508010590207084F8018084F8029084F803A02671FB
S315080105A06671A671E6711B9A1B681360DDE9002363
S315080105B0DDE9020119F0E6FE00220023804689469C
S315080105C01AF0FCFA0446002839D1224BD3E9006710
S315080105D000220023304639461AF0F0FAE8B12C70A9
S315080105E009B0BDE8F08F1B4B93ED007B0022002379
S315080105F051EC170B8DED047B1AF0E0FA0028D5D1E2
S31508010600DDE90423DDE90601FFF77EFD002200236B
S315080106101AF0D4FA0028C9D0A3E732463B46404629
S315080106204946FFF771FD002200231AF0C7FA4FF079
S31508010630010448B1E4B22C7009B0BDE8F08F012479
S315080106402C7009B0BDE8F08F0446E4B2F3E700BFA9
S315080106500000F03F78000020A80000202DE9F04FA7
S3150801066089B0074618999DF8488091F800E09DF8E9
S315080106704C909DF850A09DF85460169D1A9CBEF1A9
S31508010680000F01D101200870DFF830E11046194644
S31508010690DEE9002319F078FECDE90001384619F0A4
S315080106A0AFFF0022434BCDE9020119F06DFEDDE9EA
S315080106B0002319F067FE00220023CDE906011AF08E
S315080106C07DFA002841D01D9B18781C9BC0015FFA52
S315080106D080FB85F801B0D3E900011AF0DFFA0001C1
S315080106E0C7B2199BAF70D3E900011AF0D7FA38449B
S315080106F05844179B207084F8018084F8029084F886
S3150801070003A026716671A671E6711B9A1B681360B0
S31508010710DDE90023DDE9020119F034FE0022002398
S31508010720804689461AF04AFA0446002839D1224BEE
S31508010730D3E9006700220023304639461AF03EFA0B
S31508010740E8B12C7009B0BDE8F08F1B4B93ED007B27
S315080107500022002351EC170B8DED047B1AF02EFABB
S315080107600028D5D1DDE90423DDE90601FFF7CCFC34
S31508010770002200231AF022FA0028C9D0A3E732463C
S315080107803B4640464946FFF7BFFC002200231AF0C4
S3150801079015FA4FF0010448B1E4B22C7009B0BDE86E
S315080107A0F08F01242C7009B0BDE8F08F0446E4B23D
S315080107B0F3E700BF0000F03FA0000020B0000020D2
S315080107C02DE9F04F89B080461B999DF8484091F86C
S315080107D000E004949DF84C4005949DF850509DF80E
S315080107E054609DF858709DF85CA09DF860B01D9CFA
S315080107F0BEF1000F01D101200870DFF84CE1104667
S315080108001946DEE9002319F0BFFDCDE9000140468E
S3150801081019F0F6FE00224A4BCDE9020119F0B4FDA2
S31508010820DDE9002319F0AEFD00220023CDE906011A
S315080108301AF0C4F900284AD0209B1878199BC001E0
S315080108405FFA80F983F801901F9BD3E900011AF03A
S3150801085025FA199B00015FFA80F883F802801C9B30
S31508010860D3E900011AF01AFA9DF810306370404472
S315080108709DF81430A37048441A9B2070E5702671C0
S31508010880677184F806A084F807B01E9A1B6813607E
S31508010890DDE90023DDE9020119F074FD00220023D8
S315080108A006460F461AF08AF9804600283CD1254BA0
S315080108B0D3E9004500220023204629461AF07EF98D
S315080108C0E8B1199B83F8008009B0BDE8F08F1D4B8C
S315080108D0D3E9008900220023404649461AF06EF9F9
S315080108E00028D5D142464B46DDE90601FFF70CFC47
S315080108F0002200231AF062F90028C9D09CE7224693
S315080109002B4630463946FFF7FFFB002200231AF033
S3150801091055F94FF0010878B15FFA88F8199B83F801
S31508010920008009B0BDE8F08F199B4FF0010883F8E4
S31508010930008009B0BDE8F08F80465FFA88F8EDE7D8
S315080109400000F03F78000020A80000202DE9F04FB4
S3150801095089B080461B999DF8484091F800E00494B7
S315080109609DF84C4005949DF850509DF854609DF8AB
S3150801097058709DF85CA09DF860B01D9CBEF1000FF3
S3150801098001D101200870DFF84CE110461946DEE96D
S31508010990002319F0F9FCCDE90001404619F030FEB3
S315080109A000224A4BCDE9020119F0EEFCDDE90023EC
S315080109B019F0E8FC00220023CDE906011AF0FEF839
S315080109C000284AD0209B1878199BC0015FFA80F944
S315080109D083F801901F9BD3E900011AF05FF9199B6F
S315080109E000015FFA80F883F802801C9BD3E90001B5
S315080109F01AF054F99DF81030637040449DF814308C
S31508010A00A37048441A9B2070E5702671677184F8B3
S31508010A1006A084F807B01E9A1B681360DDE9002357
S31508010A20DDE9020119F0AEFC0022002306460F4655
S31508010A301AF0C4F8804600283CD1254BD3E9004575
S31508010A4000220023204629461AF0B8F8E8B1199B76
S31508010A5083F8008009B0BDE8F08F1D4BD3E9008902
S31508010A6000220023404649461AF0A8F80028D5D1A5
S31508010A7042464B46DDE90601FFF746FB0022002305
S31508010A801AF09CF80028C9D09CE722462B46304626
S31508010A903946FFF739FB002200231AF08FF84FF089
S31508010AA0010878B15FFA88F8199B83F8008009B0C4
S31508010AB0BDE8F08F199B4FF0010883F8008009B053
S31508010AC0BDE8F08F80465FFA88F8EDE70000F03F51
S31508010AD0A0000020B00000202DE9F04F89B006469D
S31508010AE019999DF8544091F800E003949DF84870CF
S31508010AF09DF84C809DF850909DF858501B9CBEF16E
S31508010B00000F01D101200870DFF848E110461946A7
S31508010B10DEE9002319F038FC824630468B4619F087
S31508010B206FFD0022494BCDE9000119F02DFC524613
S31508010B305B4619F027FC00220023CDE906011AF0CD
S31508010B403DF8002846D01E9B179A1878C001C3B2F3
S31508010B50537004931D9BD3E900011AF09FF8179B64
S31508010B600001C6B29E701A9BD3E900011AF096F8E5
S31508010B70049B6770304418449DF80C302371189B08
S31508010B80207084F8028084F803906571A571E57177
S31508010B901C9A1B68136052465B46DDE9000119F091
S31508010BA0F1FB0022002306460F461AF007F8804695
S31508010BB000283ED1264BD3E90045002200232046D2
S31508010BC0294619F0FBFFF8B1179B83F8008009B095
S31508010BD0BDE8F08F1E4B93ED007B0022002351ECFC
S31508010BE0170B8DED047B19F0E9FF0028D3D1DDE958
S31508010BF00423DDE90601FFF787FA0022002319F02D
S31508010C00DDFF0028C7D09EE722462B4630463946E7
S31508010C10FFF77AFA0022002319F0D0FF4FF00108F6
S31508010C2078B15FFA88F8179B83F8008009B0BDE8A8
S31508010C30F08F179B4FF0010883F8008009B0BDE8D3
S31508010C40F08F80465FFA88F8EDE700BF0000F03FB5
S31508010C5078000020A80000202DE9F04F89B006464B
S31508010C6019999DF8544091F800E003949DF848704D
S31508010C709DF84C809DF850909DF858501B9CBEF1EC
S31508010C80000F01D101200870DFF848E11046194626
S31508010C90DEE9002319F078FB824630468B4619F0C7
S31508010CA0AFFC0022494BCDE9000119F06DFB524614
S31508010CB05B4619F067FB00220023CDE9060119F00E
S31508010CC07DFF002846D01E9B179A1878C001C3B22B
S31508010CD0537004931D9BD3E9000119F0DFFF179B9D
S31508010CE00001C6B29E701A9BD3E9000119F0D6FF1E
S31508010CF0049B6770304418449DF80C302371189B87
S31508010D00207084F8028084F803906571A571E571F5
S31508010D101C9A1B68136052465B46DDE9000119F00F
S31508010D2031FB0022002306460F4619F047FF80468D
S31508010D3000283ED1264BD3E9004500220023204650
S31508010D40294619F03BFFF8B1179B83F8008009B0D3
S31508010D50BDE8F08F1E4B93ED007B0022002351EC7A
S31508010D60170B8DED047B19F029FF0028D3D1DDE996
S31508010D700423DDE90601FFF7C7F90022002319F06C
S31508010D801DFF0028C7D09EE722462B463046394626
S31508010D90FFF7BAF90022002319F010FF4FF00108F6
S31508010DA078B15FFA88F8179B83F8008009B0BDE827
S31508010DB0F08F179B4FF0010883F8008009B0BDE852
S31508010DC0F08F80465FFA88F8EDE700BF0000F03F34
S31508010DD0A0000020B00000202DE9F0410799069CEB
S31508010DE091F800E0DDF82080054616461F46BEF15B
S31508010DF0000F01D101230B702B785B00DBB25A0976
S31508010E0007EE902AB8EEE77AF7EE007AB4EEE77ABB
S31508010E10F1EE10FAA372227307DDD8E90001002268
S31508010E20154B19F0B1FAC8E900016B782370AB7854
S31508010E306370EB78A3702B79E3706B792371AB79C7
S31508010E406371EB79A3710023E3712878C009607394
S31508010E5019F0E6FB3B46324619F0B0FE4FF00103A6
S31508010E6000B9034623722B781B01DBB21A09637298
S31508010E70E272BDE8F08100BF0000F03F2DE9F041C4
S31508010E800799069C91F800E0DDF82080054616468C
S31508010E901F46BEF1000F01D101230B702B785B00B1
S31508010EA0DBB25A0907EE902AB8EEE77AF7EE007A2E
S31508010EB0B4EEE77AF1EE10FAA372227307DDD8E9E8
S31508010EC000010022154B19F05FFAC8E900016B7899
S31508010ED02370AB786370EB78A3702B79E3706B7929
S31508010EE02371AB796371EB79A3710023E3712878D8
S31508010EF0C009607319F094FB3B46324619F05EFE51
S31508010F004FF0010300B9034623722B781B01DBB2AC
S31508010F101A096372E272BDE8F08100BF0000F03F72
S31508010F202DE9F04F83B00C460E9FDDF834809946C3
S31508010F300546324BD7E900011646002219F024FA74
S31508010F400123C7E9000189F8003023682C4A0C9966
S31508010F50013313602360D8F8003007EE903AB8EEF3
S31508010F60677AF7EE007AB4EE677AF1EE10FA05D1F0
S31508010F70DFF888904FF00008C1E9008937780193B6
S31508010F80384619F03DFBDFF884801E4A019B136041
S31508010F90C8E900012B602F7196F807E085F805E08E
S31508010FA096F801C085F806C096F8028085F807808C
S31508010FB096F8039085F8089096F804A085F809A094
S31508010FC096F805B0104C85F80AB0B079E87219465A
S31508010FD0A071234608220020277084F805B084F8FA
S31508010FE004A084F8039084F8028084F801C084F888
S31508010FF007E003B0BDE8F04F12F0CEBE0000F03FA7
S3150801100024C7002088C100200007002088C70020C7
S3150801101008B50121002013F0C3F80B21002013F0B5
S31508011020BFF80C21002013F0BBF80D21002013F0A6
S31508011030B7F80E21002013F0B3F81521002013F09C
S31508011040AFF81621002013F0ABF81721002013F092
S31508011050A7F81821002013F0A3F81921002013F08E
S315080110609FF81F210020BDE8084013F099B800BF7A
S315080110702DE9F04F2DED0A8B0D460968E24CE34E3A
S3150801108083B00131216029601899DDF864900968F7
S31508011090316007EE901AB8EE678AF7EE007AB4EE79
S315080110A0678AF1EE10FA1F46044692462B7A40F0FB
S315080110B01C830BB901232B72DFF8548300224346A4
S315080110C000921046012113F097F8002884F85C0075
S315080110D040F3658498F8013084F8213098F8023095
S315080110E084F8223098F8033084F8233098F80430CD
S315080110F084F82430D6ED007A98F8053084F825303E
S3150801110098F8063084F8263098F8072098F80030C1
S3150801111084F82720F8EE678A84F82030F2EE067AFA
S31508011120F4EE678AF1EE10FAEB7940F0C5830BB954
S315080111300123EB71DFF8DC82002243460092104658
S315080111400B2113F059F8002884F85B0040F35E84FC
S3150801115098F80130637698F80230A37698F8033048
S31508011160E37698F804302377D6ED007A98F80530B7
S31508011170637798F80630A37798F8072098F800302F
S31508011180E277B8EE679A2376F2EE087AB4EE679AB2
S31508011190F1EE10FAAB7940F038830BB90123AB7144
S315080111A0DFF8748200224346009210460C2113F0A0
S315080111B023F8002884F85A0040F3188498F8013077
S315080111C0637498F80230A37498F80330E37498F8B6
S315080111D004302375D6ED007A98F80530637598F8CA
S315080111E00630A37598F8072098F80030E275F8EEEE
S315080111F0679A2374F2EE0A7AF4EE679AF1EE10FA18
S315080112006B7940F02E830BB901236B71DFF80C82E1
S3150801121000224346009210460D2112F0EDFF0028E8
S3150801122084F8590040F3DD83D6ED007A98F8073043
S3150801123098F8062098F8051098F8040098F803E03D
S3150801124098F802C098F801B098F8008084F809B0B7
S31508011250B8EE67AA84F80AC084F80BE020736173B4
S31508011260A273E37384F80880F2EE0C7AB4EE67AAE7
S31508011270F1EE10FA2B7940F09C820BB901232B7100
S31508011280DFF89C8100224346009210460E2112F097
S31508011290B3FF002884F858001BDD98F801B098F8C8
S315080112A002E098F8030098F800C098F8041098F836
S315080112B0052098F8063098F8078084F8078084F89E
S315080112C001B084F800C084F802E0E070217162710F
S315080112D0A371D6ED007AF8EE67AAF3EE057AF4EE75
S315080112E067AAF1EE10FA6B7A40F002830BB9012373
S315080112F06B72DFF8308100224346009210461521B1
S3150801130012F07AFF002884F85D0040F3658398F8A7
S31508011310013084F8293098F8023084F82A3098F890
S31508011320033084F82B3098F8043084F82C30D6ED45
S31508011330007A98F8053084F82D3098F8063084F844
S315080113402E3098F8072098F8003084F82F20B8EE48
S3150801135067BA84F82830F3EE067AB4EE67BAF1EE86
S3150801136010FAAB7A40F063820BB90123AB72DFF84E
S31508011370B8800022434600921046162112F03CFF1F
S31508011380002884F85E0040F3228398F8013084F837
S31508011390313098F8023084F8323098F8033084F8FE
S315080113A0333098F8043084F83430D6ED007A98F85A
S315080113B0053084F8353098F8063084F8363098F8D0
S315080113C0072098F8003084F83720F8EE67BA84F8D1
S315080113D03030F3EE077AF4EE67BAF1EE10FA6B7B6A
S315080113E040F051820BB901236B73DFF8408000226C
S315080113F0434600921046172112F0FEFE002884F893
S31508011400610040F3FE8213E0B8C00020A4C10020A9
S315080114102807002060070020080700207007002021
S3150801142018070020E806002030070020F0060020F3
S3150801143098F8013084F8493098F8023084F84A302F
S3150801144098F8033084F84B3098F8043084F84C3017
S31508011450D6ED007A98F8053084F84D3098F80630BC
S3150801146084F84E3098F8072098F8003084F84F2011
S31508011470B8EE67CA84F84830F3EE087AB4EE67CA5C
S31508011480F1EE10FA2B7B40F0A6810BB901232B73E1
S31508011490DFF854840022434600921046182112F0C0
S315080114A0ABFE002884F8600040F3A68298F8013064
S315080114B084F8413098F8023084F8423098F80330BD
S315080114C084F8433098F8043084F84430D6ED007A2D
S315080114D098F8053084F8453098F8063084F846308F
S315080114E098F8072098F8003084F84720F8EE67CA7C
S315080114F084F84030F3EE097AF4EE67CAF1EE10FA91
S31508011500EB7A40F03C810BB90123EB72DFF8DC83FF
S315080115100022434600921046192112F06DFE00285A
S3150801152084F85F00D6ED007A40F34E8298F80130D0
S3150801153084F8393098F8023084F83A3098F803304C
S3150801154084F83B3098F8043084F83C3098F8053034
S3150801155084F83D3098F8063084F83E3098F807202C
S3150801156098F8003084F83F20F8EE677A84F8383026
S31508011570B3EE0F7AF4EE477AF1EE10FAAB7B40F050
S31508011580E6800BB90123AB73D44D00222B4600929A
S3150801159010461F2112F030FE002884F8620017DD7C
S315080115A06B78AA7884F85130EB7884F8522084F85D
S315080115B053302A796B7984F85420A97984F85530FF
S315080115C0EA792B7884F8561084F8572084F8503035
S315080115D0F7EE007AB4EE678AF1EE10FA40F0A080D1
S315080115E094F95C3094F8200094F821C094F822E02C
S315080115F094F8236094F8245094F8251094F826203A
S3150801160007EE103A94F8273099F8004007EE904A09
S31508011610F8EEE77AF7EE006AF4EE667AF1EE10FA7A
S3150801162015D1F8EEC77AF5EE407AF1EE10FA57D1F0
S315080116301A9C4FF002084FF0010B89F8008084F8D4
S3150801164000B099F8004007EE904AF8EEE77AF0EE16
S31508011650006AF4EE667AF1EE10FA37D1B8EEC77A77
S31508011660B7EE008AB4EEC87AF1EE10FA38DBFB71F0
S315080116701A9B87F801C001243870BA7187F802E00D
S31508011680FE703D7179711C70179B954A1C704FF05D
S31508011690030C89F800C0BAF800301380169A138033
S315080116A018F0AEFF189BD3ED007A8E4BF8EE677AE9
S315080116B0C3E90001F4EE487AF1EE10FA00F0698107
S315080116C099F8003007EE903AF8EEE77AF5EE407AA7
S315080116D0F1EE10FA04D11A9A012389F80030137031
S315080116E003B0BDEC0A8BBDE8F08FB3B1002380F8D7
S315080116F05C3080F8203080F8213080F8223080F87C
S31508011700233080F8243080F8253080F8263080F898
S315080117102730F0EE488A2B7200E5F0EE488AFDE4A0
S31508011720F2EE067AF4EE678AF1EE10FA40F0F880E6
S3150801173094F95B30207E94F819C094F81AE0E67E95
S31508011740257F617FA27F07EE103AE37F5CE7002BD6
S315080117503FF43EAF002384F8623084F8503084F8B1
S31508011760513084F8523084F8533084F8543084F870
S31508011770553084F8563084F85730AB7328E7002B78
S3150801178000F0EE80002384F85F3084F8383084F85E
S31508011790393084F83A3084F83B3084F83C3084F8A0
S315080117A03D3084F83E3084F83F30F0EE6C7AEB72C7
S315080117B0DEE6002B00F0E080002384F85830237021
S315080117C06370A370E37023716371A371E371F0EE23
S315080117D04AAA2B7181E5002B00F0C880002384F802
S315080117E0603084F8403084F8413084F8423084F817
S315080117F0433084F8443084F8453084F8463084F818
S315080118004730F0EE4CCA2B7374E6002B00F0BA8011
S31508011810002384F85A3023746374A374E37423751C
S315080118206375A375E375F0EE499AAB71E2E4002B93
S3150801183000F09980002384F85E3084F8303084F80B
S31508011840313084F8323084F8333084F8343084F80F
S31508011850353084F8363084F83730F0EE4BBAAB724F
S31508011860B7E5002B00F08B80002384F859302372EA
S315080118706372A372E37223736373A373E373B0EEA4
S3150801188069AA6B71F0E4002B73D0002384F86130E8
S3150801189084F8483084F8493084F84A3084F84B3063
S315080118A084F84C3084F84D3084F84E3084F84F3043
S315080118B0B0EE6BCA6B73DFE5002B66D0002384F8A4
S315080118C05B3023766376A376E37623776377A3770C
S315080118D0E377B0EE689AEB7156E400BF1007002073
S315080118E0A0C1002008C2002048070020F8060020F1
S315080118F09BB3002384F85D3084F8283084F82930B6
S3150801190084F82A3084F82B3084F82C3084F82D306A
S3150801191084F82E3084F82F30B0EE6ABA6B721AE565
S31508011920F2EE087AB4EE679AF1EE10FA3DD0F2EECD
S315080119300A7AF4EE679AF1EE10FA6DD194F95930F4
S31508011940207A94F809C094F80AE0E67A257B617B47
S31508011950A27B07EE103AE37B56E6B0EE6ABAFAE4E2
S31508011960F0EE6C7A04E6F0EE4BBA32E5F0EE4CCACC
S31508011970C0E5B0EE6BCA7FE5F0EE4AAAADE4B0EE7B
S3150801198069AA71E4F0EE499A34E4B0EE689AFFF771
S31508011990FBBB7D4B1B990022C1E9002390E6D6EDDE
S315080119A0007AF8EE678AFFF7B9BB94F95A30207CBA
S315080119B094F811C094F812E0E67C257D617DA27D3C
S315080119C007EE103AE37D1FE6F8EE677AD0E5D6ED25
S315080119D0007AF8EE67BAFCE4D6ED007AB8EE67BA93
S315080119E0B9E4D6ED007AB8EE67AA3DE4D6ED007AF9
S315080119F0F8EE679AFFF7FEBBD6ED007AF8EE67CAEE
S31508011A0078E5D6ED007AB8EE67CA35E5D6ED007AFF
S31508011A10B8EE679AFFF7B8BBF2EE0C7AB4EE67AA8E
S31508011A20F1EE10FA1BD0F3EE057AF4EE67AAF1EEA1
S31508011A3010FA23D194F95D3094F8280094F829C056
S31508011A4094F82AE094F82B6094F82C5094F82D1009
S31508011A5094F82E2007EE103A94F82F30D4E594F92D
S31508011A605830207894F801C094F802E0E678257990
S31508011A706179A27907EE103AE379C5E5F3EE067ABC
S31508011A80B4EE67BAF1EE10FA14D194F95E3094F80F
S31508011A90300094F831C094F832E094F8336094F841
S31508011AA0345094F8351094F8362007EE103A94F825
S31508011AB03730A9E5F3EE077AF4EE67BAF1EE10FAD4
S31508011AC014D194F9613094F8480094F849C094F80F
S31508011AD04AE094F84B6094F84C5094F84D1094F8F9
S31508011AE04E2007EE103A94F84F308DE5F3EE087A5A
S31508011AF0B4EE67CAF1EE10FA14D194F9603094F88D
S31508011B00400094F841C094F842E094F8436094F890
S31508011B10445094F8451094F8462007EE103A94F884
S31508011B20473071E5F3EE097AF4EE67CAF1EE10FA79
S31508011B3014D194F95F3094F8380094F839C094F8C0
S31508011B403AE094F83B6094F83C5094F83D1094F8C8
S31508011B503E2007EE103A94F83F3055E594F9623085
S31508011B6094F8500094F851C094F852E094F85360F0
S31508011B7094F8545094F8551094F8562007EE103AF4
S31508011B8094F8573040E500BF0000F03F012108B541
S31508011B90084612F005FB0B21012012F001FB0C216E
S31508011BA0012012F0FDFA0D21012012F0F9FA0E2199
S31508011BB0012012F0F5FA1521012012F0F1FA162189
S31508011BC0012012F0EDFA1721012012F0E9FA182185
S31508011BD0012012F0E5FA1921012012F0E1FA1F217C
S31508011BE00120BDE8084012F0DBBA00BF2DE9F04F2D
S31508011BF02DED0A8B0D460968E24CE34E83B001319F
S31508011C00216029601899DDF864900968316007EE4A
S31508011C10901AB8EE678AF7EE007AB4EE678AF1EEA3
S31508011C2010FA1F46044692462B7A40F01C830BB9DC
S31508011C3001232B72DFF854830022012143460092C7
S31508011C40084612F0D9FA002884F85C0040F3658446
S31508011C5098F8013084F8213098F8023084F8223057
S31508011C6098F8033084F8233098F8043084F824303F
S31508011C70D6ED007A98F8053084F8253098F80630BC
S31508011C8084F8263098F8072098F8003084F8272039
S31508011C90F8EE678A84F82030F2EE067AF4EE678A5F
S31508011CA0F1EE10FAEB7940F0C5830BB90123EB711C
S31508011CB0DFF8DC820022434600920B21012012F054
S31508011CC09BFA002884F85B0040F35E8498F801309B
S31508011CD0637698F80230A37698F80330E37698F895
S31508011CE004302377D6ED007A98F80530637798F8AB
S31508011CF00630A37798F8072098F80030E277B8EE0F
S31508011D00679A2376F2EE087AB4EE679AF1EE10FA3C
S31508011D10AB7940F038830BB90123AB71DFF87482D4
S31508011D200022434600920C21012012F065FA002890
S31508011D3084F85A0040F3188498F80130637498F8C7
S31508011D400230A37498F80330E37498F804302375C5
S31508011D50D6ED007A98F80530637598F80630A375BC
S31508011D6098F8072098F80030E275F8EE679A237418
S31508011D70F2EE0A7AF4EE679AF1EE10FA6B7940F010
S31508011D802E830BB901236B71DFF80C8200224346BF
S31508011D9000920D21012012F02FFA002884F859002B
S31508011DA040F3DD83D6ED007A98F8073098F80620D7
S31508011DB098F8051098F8040098F803E098F802C016
S31508011DC098F801B098F8008084F809B0B8EE67AAC7
S31508011DD084F80AC084F80BE020736173A273E37375
S31508011DE084F80880F2EE0C7AB4EE67AAF1EE10FADE
S31508011DF02B7940F09C820BB901232B71DFF89C816A
S31508011E000022434600920E21012012F0F5F900281E
S31508011E1084F858001BDD98F801B098F802E098F8A4
S31508011E20030098F800C098F8041098F8052098F867
S31508011E30063098F8078084F8078084F801B084F89A
S31508011E4000C084F802E0E07021716271A371D6EDD9
S31508011E50007AF8EE67AAF3EE057AF4EE67AAF1EED0
S31508011E6010FA6B7A40F002830BB901236B72DFF823
S31508011E7030810022434600921521012012F0BCF957
S31508011E80002884F85D0040F3658398F8013084F8EA
S31508011E90293098F8023084F82A3098F8033084F803
S31508011EA02B3098F8043084F82C30D6ED007A98F85F
S31508011EB0053084F82D3098F8063084F82E3098F8D5
S31508011EC0072098F8003084F82F20B8EE67BA84F80E
S31508011ED02830F3EE067AB4EE67BAF1EE10FAAB7A69
S31508011EE040F063820BB90123AB72DFF8B880002298
S31508011EF0434600921621012012F07EF9002884F843
S31508011F005E0040F3228398F8013084F8313098F85E
S31508011F10023084F8323098F8033084F8333098F870
S31508011F20043084F83430D6ED007A98F8053084F810
S31508011F30353098F8063084F8363098F8072098F83E
S31508011F40003084F83720F8EE67BA84F83030F3EEBB
S31508011F50077AF4EE67BAF1EE10FA6B7B40F051821C
S31508011F600BB901236B73DFF84080002243460092C8
S31508011F701721012012F040F9002884F8610040F386
S31508011F80FE8213E028C200205CC700205807002003
S31508011F90D806002020070020E00600203807002088
S31508011FA040070020800700206807002098F80130C4
S31508011FB084F8493098F8023084F84A3098F80330A2
S31508011FC084F84B3098F8043084F84C30D6ED007A12
S31508011FD098F8053084F84D3098F8063084F84E3074
S31508011FE098F8072098F8003084F84F20B8EE67CAA9
S31508011FF084F84830F3EE087AB4EE67CAF1EE10FABF
S315080120002B7B40F0A6810BB901232B73DFF854848F
S315080120100022434600921821012012F0EDF800280B
S3150801202084F8600040F3A68298F8013084F84130BC
S3150801203098F8023084F8423098F8033084F843302F
S3150801204098F8043084F84430D6ED007A98F80530CB
S3150801205084F8453098F8063084F8463098F8072011
S3150801206098F8003084F84720F8EE67CA84F84030BB
S31508012070F3EE097AF4EE67CAF1EE10FAEB7A40F05C
S315080120803C810BB90123EB72DFF8DC83002243465E
S3150801209000921921012012F0AFF8002884F85F0098
S315080120A0D6ED007A40F34E8298F8013084F839303B
S315080120B098F8023084F83A3098F8033084F83B30BF
S315080120C098F8043084F83C3098F8053084F83D30A7
S315080120D098F8063084F83E3098F8072098F80030CA
S315080120E084F83F20F8EE677A84F83830B3EE0F7A31
S315080120F0F4EE477AF1EE10FAAB7B40F0E6800BB9C5
S315080121000123AB73D44D00222B4600921F210120D7
S3150801211012F072F8002884F8620017DD6B78AA7845
S3150801212084F85130EB7884F8522084F853302A79B0
S315080121306B7984F85420A97984F85530EA792B7893
S3150801214084F8561084F8572084F85030F7EE007A50
S31508012150B4EE678AF1EE10FA40F0A08094F95C308B
S3150801216094F8200094F821C094F822E094F82360AA
S3150801217094F8245094F8251094F8262007EE103A7E
S3150801218094F8273099F8004007EE904AF8EEE77A76
S31508012190F7EE006AF4EE667AF1EE10FA15D1F8EE6A
S315080121A0C77AF5EE407AF1EE10FA57D11A9C4FF03C
S315080121B002084FF0010B89F8008084F800B099F8FD
S315080121C0004007EE904AF8EEE77AF0EE006AF4EE80
S315080121D0667AF1EE10FA37D1B8EEC77AB7EE008A09
S315080121E0B4EEC87AF1EE10FA38DBFB711A9B87F860
S315080121F001C001243870BA7187F802E0FE703D719A
S3150801220079711C70179B954A1C704FF0030C89F85D
S3150801221000C0BAF800301380169A138018F0F0F946
S31508012220189BD3ED007A8E4BF8EE677AC3E9000165
S31508012230F4EE487AF1EE10FA00F0698199F8003067
S3150801224007EE903AF8EEE77AF5EE407AF1EE10FAF3
S3150801225004D11A9A012389F80030137003B0BDEC32
S315080122600A8BBDE8F08FB3B1002380F85C3080F8A3
S31508012270203080F8213080F8223080F8233080F829
S31508012280243080F8253080F8263080F82730F0EEA3
S31508012290488A2B7200E5F0EE488AFDE4F2EE067AEA
S315080122A0F4EE678AF1EE10FA40F0F88094F95B30A3
S315080122B0207E94F819C094F81AE0E67E257F617F9E
S315080122C0A27F07EE103AE37F5CE7002B3FF43EAFAF
S315080122D0002384F8623084F8503084F8513084F849
S315080122E0523084F8533084F8543084F8553084F8E1
S315080122F0563084F85730AB7328E7002B00F0EE8090
S31508012300002384F85F3084F8383084F8393084F84B
S315080123103A3084F83B3084F83C3084F83D3084F810
S315080123203E3084F83F30F0EE6C7AEB72DEE6002B35
S3150801233000F0E080002384F8583023706370A3709E
S31508012340E37023716371A371E371F0EE4AAA2B71ED
S3150801235081E5002B00F0C880002384F8603084F8FA
S31508012360403084F8413084F8423084F8433084F8A8
S31508012370443084F8453084F8463084F84730F0EE26
S315080123804CCA2B7374E6002B00F0BA80002384F83C
S315080123905A3023746374A374E37423756375A37540
S315080123A0E375F0EE499AAB71E2E4002B00F09980EF
S315080123B0002384F85E3084F8303084F8313084F8AC
S315080123C0323084F8333084F8343084F8353084F880
S315080123D0363084F83730F0EE4BBAAB72B7E5002BDE
S315080123E000F08B80002384F8593023726372A3723C
S315080123F0E37223736373A373E373B0EE69AA6B7114
S31508012400F0E4002B73D0002384F8613084F8483057
S3150801241084F8493084F84A3084F84B3084F84C30D3
S3150801242084F84D3084F84E3084F84F30B0EE6BCADC
S315080124306B73DFE5002B66D0002384F85B302376C7
S315080124406376A376E37623776377A377E377B0EEAC
S31508012450689AEB7156E400BF5007002092C7002026
S3150801246060C70020D0060020780700209BB3002310
S3150801247084F85D3084F8283084F8293084F82A30C5
S3150801248084F82B3084F82C3084F82D3084F82E30DB
S3150801249084F82F30B0EE6ABA6B721AE5F2EE087A52
S315080124A0B4EE679AF1EE10FA3DD0F2EE0A7AF4EE3E
S315080124B0679AF1EE10FA6DD194F95930207A94F8A9
S315080124C009C094F80AE0E67A257B617BA27B07EED0
S315080124D0103AE37B56E6B0EE6ABAFAE4F0EE6C7AA5
S315080124E004E6F0EE4BBA32E5F0EE4CCAC0E5B0EEC2
S315080124F06BCA7FE5F0EE4AAAADE4B0EE69AA71E4CB
S31508012500F0EE499A34E4B0EE689AFFF7FBBB7D4BCF
S315080125101B990022C1E9002390E6D6ED007AF8EE70
S31508012520678AFFF7B9BB94F95A30207C94F811C031
S3150801253094F812E0E67C257D617DA27D07EE103ACE
S31508012540E37D1FE6F8EE677AD0E5D6ED007AF8EE78
S3150801255067BAFCE4D6ED007AB8EE67BAB9E4D6ED07
S31508012560007AB8EE67AA3DE4D6ED007AF8EE679AE6
S31508012570FFF7FEBBD6ED007AF8EE67CA78E5D6ED29
S31508012580007AB8EE67CA35E5D6ED007AB8EE679AED
S31508012590FFF7B8BBF2EE0C7AB4EE67AAF1EE10FAC1
S315080125A01BD0F3EE057AF4EE67AAF1EE10FA23D101
S315080125B094F95D3094F8280094F829C094F82AE033
S315080125C094F82B6094F82C5094F82D1094F82E203A
S315080125D007EE103A94F82F30D4E594F9583020785C
S315080125E094F801C094F802E0E67825796179A27930
S315080125F007EE103AE379C5E5F3EE067AB4EE67BA63
S31508012600F1EE10FA14D194F95E3094F8300094F88A
S3150801261031C094F832E094F8336094F8345094F861
S31508012620351094F8362007EE103A94F83730A9E5B4
S31508012630F3EE077AF4EE67BAF1EE10FA14D194F9CB
S31508012640613094F8480094F849C094F84AE094F83F
S315080126504B6094F84C5094F84D1094F84E2007EEC0
S31508012660103A94F84F308DE5F3EE087AB4EE67CA5E
S31508012670F1EE10FA14D194F9603094F8400094F808
S3150801268041C094F842E094F8436094F8445094F8B1
S31508012690451094F8462007EE103A94F8473071E54C
S315080126A0F3EE097AF4EE67CAF1EE10FA14D194F949
S315080126B05F3094F8380094F839C094F83AE094F801
S315080126C03B6094F83C5094F83D1094F83E2007EE90
S315080126D0103A94F83F3055E594F9623094F8500071
S315080126E094F851C094F852E094F8536094F8545011
S315080126F094F8551094F8562007EE103A94F8573086
S3150801270040E500BF0000F03F2DE9F04F83B00C46CD
S315080127100E9FDDF8348099460546324BD7E900010C
S315080127201646002217F030FE0123C7E9000189F891
S31508012730003023682C4A0C99013313602360D8F8BA
S31508012740003007EE903AB8EE677AF7EE007AB4EE03
S31508012750677AF1EE10FA05D1DFF888904FF0000894
S31508012760C1E9008937780193384617F049FFDFF840
S3150801277084801E4A019B1360C8E900012B602F71F2
S3150801278096F807E085F805E096F801C085F806C0D1
S3150801279096F8028085F8078096F8039085F80890E0
S315080127A096F804A085F809A096F805B0104C85F8A6
S315080127B00AB0B079E8721946A071234608220120A9
S315080127C0277084F805B084F804A084F8039084F887
S315080127D0028084F801C084F807E003B0BDE8F04F31
S315080127E011F0DABA0000F03F38C2002018BC002008
S315080127F00007002010C100204B780BB901234B704C
S315080128000B7833B100230B7003701946032013F0BC
S31508012810D3B901230B7003701946032013F0CCB901
S315080128202DE9F04F85B00E9D109C002800F03181EE
S31508012830217809B9012121701F46129B188816466D
S3150801284017F0EEFE8046894602460B463046394663
S3150801285018F0B4F908B100232B7042464B463046AE
S31508012860394618F0B5F9002800F025811799AF4BBC
S315080128700022D1E9000118F0B5F9A378002800F083
S315080128802E810BB90123A370A94B3046D3E9002346
S31508012890394617F079FD129B80461888894617F044
S315080128A0AFFE0022A34B82468B4617F06DFD4246CA
S315080128B04B4617F067FD00220023CDE9000118F009
S315080128C07DF9002800F01581199B93F800A0179B44
S315080128D04FEACA1A5FFA8AFA85F805A0D3E9000110
S315080128E018F0DCF900015FFA80FB119B85F806B048
S315080128F0D3E9000118F0D2F9139B139A50445844AE
S3150801290018702B7853702B7893702B78D3702B789B
S3150801291013712B7853712B7893712B78D3710F9B85
S31508012920159A5B681360129B188817F069FE424670
S315080129304B4617F027FD002200238046894618F0EA
S315080129403DF9002840F0D2807B4BD3E900AB002249
S3150801295000235046594618F031F9002840F0E28024
S3150801296052465B4640464946FDF7CEFB0023002208
S3150801297018F024F94FF0010300B90346DBB2AB7036
S3150801298018996A4B0022D1E9000118F02BF90028A1
S3150801299000F09C8063780BB901236370674B30465E
S315080129A0D3E90023394617F0EFFC129B064618882F
S315080129B00F4617F025FE00225E4B8046894617F022
S315080129C0E3FC32463B4617F0DDFC00220023824633
S315080129D08B4618F0F3F8002800F0B480199B187894
S315080129E0189BC0015FFA80F885F80380D3E90001D6
S315080129F018F054F90001C4B2119B2C71D3E90001F6
S31508012A0018F04CF9149B149A2044404418702B78FA
S31508012A1053702B7893702B78D3702B7813712B788E
S31508012A2053712B7893712B78D3710F9B169A1B6868
S31508012A301360129B188817F0E3FD32463B4617F0E0
S31508012A40A1FC002200238046894618F0B7F8002821
S31508012A5040F092803A4BD3E90067002200233046C2
S31508012A60394618F0ABF8002840F0838032463B46D9
S31508012A7040464946FDF748FB0023002218F09EF818
S31508012A804FF0010300B90346DBB26B7005B0BDE830
S31508012A90F08F2378002BF9D0A3780BB1A870A0701A
S31508012AA063780BB1002363700023AB706B702370DE
S31508012AB005B0BDE8F08FA378A3B942464B46304628
S31508012AC0394618F085F800287FF45AAF6378002B49
S31508012AD0DCD000236B70637005B0BDE8F08F002B66
S31508012AE03FF44EAF0023AB70A370E6E70123AB704A
S31508012AF046E7114B93ED007B0022002351EC170B9F
S31508012B008DED027B18F05AF800284AD042464B460A
S31508012B105046594617F036FC0022002318F04EF8A5
S31508012B200028E3D10023AB702AE700BF00001C4050
S31508012B30A80000200000F03F78000020B000002027
S31508012B40A0000020204B93ED007B0022002351ECCE
S31508012B50170B8DED007B18F031F880B132463B46F4
S31508012B604046494617F00EFC0022002318F026F8C5
S31508012B7010B900236B7089E701236B7086E7DDE9DD
S31508012B80002350465946FDF7BFFA0022002318F0E4
S31508012B9015F800287FF422AF129B188817F030FD2C
S31508012BA04BE7DDE90223DDE90001FDF7ADFA002275
S31508012BB0002318F003F800287FF486AE129B1888C4
S31508012BC017F01EFDB3E600BFA00000200B791BB16C
S31508012BD00023C37103720B714B7843B1CB7813B1E0
S31508012BE000238370CB708B7843B900234B70002385
S31508012BF08370C371437003720B70704700238B7027
S31508012C00F3E700BF2DE9F04F9BB016462F9A1392B2
S31508012C10309A1492319A1592329A16921F46339A1D
S31508012C20299B10930B922B9B349A0A930C922C9BFB
S31508012C30359A11930D922D9B369A129326AC249DA3
S31508012C40DDF89480DDF8A8B02E9B0E9294E8100664
S31508012C50379A0F92389A1792002840D022780AB9E3
S31508012C6001222270CDE91867D3E900670022304BAB
S31508012C703046394617F0A2FF4FF0010E002833D02F
S31508012C803046394600222A4B5FFA8EF617F096FF30
S31508012C90002832D023791BB10023EB712B722371E3
S31508012CA00F9B2F930E9B2E930D9B2D930C9B2C9371
S31508012CB00B9B2B930A9B2A93DDE918230134304693
S31508012CC02694CDF8A4B0CDF8A0A0CDF89C90CDF867
S31508012CD0948024951BB0BDE8F04FFFF7A1BD23787A
S31508012CE023B91BB0BDE8F08F8646C9E721462846B9
S31508012CF01BB0BDE8F04FFFF769BF179A0992169AFC
S31508012D000892159A0792149A0692139A0592129A9C
S31508012D100492119A0392231D109A02928DE80804CF
S31508012D20EA1D08F10803DDE91801FDF787F9B7E798
S31508012D300000F03F2DE9F04F85B00E9D109C00284C
S31508012D4000F03481217809B9012121701F46129BAF
S31508012D501888164617F064FC8046894602460B46D3
S31508012D603046394617F02AFF20B100232B70159BF0
S31508012D701B786B7042464B463046394617F028FF9A
S31508012D80002800F025811899AE4B0022D1E90001EF
S31508012D9017F028FFA378002800F02E810BB901232C
S31508012DA0A370A94B3046D3E90023394617F0ECFA4C
S31508012DB0129B80461888894617F022FC0022A34BED
S31508012DC082468B4617F0E0FA42464B4617F0DAFA86
S31508012DD000220023CDE9000117F0F0FE002800F0DB
S31508012DE015811A9B93F800A0189B4FEACA1A5FFA35
S31508012DF08AFA85F806A0D3E9000117F04FFF00010A
S31508012E005FFA80FB119B85F807B0D3E9000117F03B
S31508012E1045FF139B139A5044584418706B785370A6
S31508012E202B7893702B78D3702B7813712B78537179
S31508012E302B7893712B78D3710F9B169A5B68136065
S31508012E40129B188817F0DCFB42464B4617F09AFA94
S31508012E50002200238046894617F0B0FE002840F07C
S31508012E60D2807B4BD3E900AB00220023504659465A
S31508012E7017F0A4FE002840F0E28052465B46404621
S31508012E804946FDF741F90023002217F097FE4FF056
S31508012E90010300B90346DBB2EB701999694B0022AD
S31508012EA0D1E9000117F09EFE002800F09C806378A6
S31508012EB00BB901236370674B3046D3E900233946C2
S31508012EC017F062FA129B064618880F4617F098FB08
S31508012ED000225E4B8046894617F056FA32463B4633
S31508012EE017F050FA0022002382468B4617F066FE39
S31508012EF0002800F0B3801A9B1878199BC0015FFA65
S31508012F0080F885F80480D3E9000117F0C7FE0001AF
S31508012F10C4B2119B6C71D3E9000117F0BFFE149B73
S31508012F20149A2044404418706B7853702B78937028
S31508012F302B78D3702B7813712B7853712B78937167
S31508012F402B78D3710F9B179A1B681360129B1888ED
S31508012F5017F056FB32463B4617F014FA00220023B7
S31508012F608046894617F02AFE002840F091803A4BA0
S31508012F70D3E90067002200233046394617F01EFEC2
S31508012F80002840F0828032463B4640464946FDF7D6
S31508012F90BBF80023002217F011FE4FF0010300B918
S31508012FA00346DBB2AB7005B0BDE8F08F2378002B82
S31508012FB0F9D0A3780BB1E870A07063780BB1002340
S31508012FC063700023EB70AB70237005B0BDE8F08F1A
S31508012FD0A378A3B942464B463046394617F0F8FD61
S31508012FE000287FF45AAF6378002BDCD00023AB703E
S31508012FF0637005B0BDE8F08F002B3FF44EAF002398
S31508013000EB70A370E6E70123EB7046E7104B93EDEF
S31508013010007B0022002351EC170B8DED027B17F084
S31508013020CDFD002849D042464B465046594617F031
S31508013030A9F90022002317F0C1FD0028E3D10023D6
S31508013040EB702AE700001C40A80000200000F03FB2
S3150801305078000020B0000020A0000020204B93ED4E
S31508013060007B0022002351EC170B8DED007B17F036
S31508013070A5FD80B132463B464046494617F082F9DE
S315080130800022002317F09AFD10B90023AB708AE7D6
S315080130900123AB7087E7DDE9002350465946FDF762
S315080130A033F80022002317F089FD00287FF423AFA7
S315080130B0129B188817F0A4FA4CE7DDE90223DDE92B
S315080130C00001FDF721F80022002317F077FD0028FB
S315080130D07FF487AE129B188817F092FAB4E600BF00
S315080130E0A0000020F0B585B00EAC70CC002830D019
S315080130F0287808B9012028701846174600295FD193
S31508013100AB78002B4DD1002F4FD16B78002B45D1D1
S31508013110A37D002B2DD0637D3370A37B7370E37B76
S31508013120B370237CF370637C3371A37C7371E37C86
S31508013130B371237DF371A37D002B2DD1237A00333F
S3150801314018BF012313990B70119B01221A7005B040
S31508013150F0BD2B78002BFAD0AB780BB1A075A8700F
S315080131606B7813B1002323726B7000232B7005B0A3
S31508013170F0BDE3793370237873706378B370A378FD
S31508013180F370E3783371237973716379B371A37932
S31508013190F371A37D002BD1D00123D3E727726F707A
S315080131A0B6E7A175A970002FAFD0129B029301351E
S315080131B001950094DDE90C230A98FDF74BF9A7E779
S315080131C004F10E02129B0293A91C00920191DDE9FA
S315080131D00C23FDF7EDF896E72DE9F04F9FB02999F5
S315080131E00C912B9910912C990D912D9916912E9937
S315080131F018912F9917913099199131990E91329900
S315080132000F913399289C2A9D1191002845D0297838
S3150801321009B9012129709A460D9BB3F80080914698
S315080132204046CDE9129A17F0FBF906460F460246C3
S315080132300B464846514617F0CBFC00283FD10023E0
S3150801324015930023149332463B46DDE9120117F024
S31508013250B5FC00284AD163781A93159BE078A678BD
S315080132602278002B40F02F81AB7853B1159AA272C0
S31508013270AA700D9BE078B3F80080A6786378227867
S315080132801A93149B002B40F06D816B7813B1149A35
S31508013290E2716A701FB0BDE8F08F2B78002BF9D068
S315080132A0AB780BB1A072A8706B780BB100236B7069
S315080132B00023A372E3712B701FB0BDE8F08F0E993E
S315080132C0C34B0022D1E9000117F08CFC011C18BF81
S315080132D0012115910F99BE4B0022D1E9000117F082
S315080132E081FC0028ADD001231493ACE7B94B002625
S315080132F02670D3E900890022B74B4046494617F0A4
S3150801330085FC002800F0FE809FEDAD7B8DED1A7BD4
S31508013310DFF8C4B24FF0000A0C9FA6715046594611
S31508013320D7E9042317F0E2F9D7E9022382468B4647
S31508013330DDE91A0117F004FB0022002380468946BD
S3150801334017F046FC002840F032814046494616F0FF
S31508013350FBFD804689465946504617F09FFC49466B
S315080133600644404617F09AFC3044C3B21A461A93EB
S315080133709A4B6270D3E900670022994B3046394669
S3150801338017F044FC002840F0E3800022954B3046B4
S31508013390394617F031FC4FF000084FF000090028B4
S315080133A000F0558127F000493046494616F0CCFD14
S315080133B002460B4682468B463046494616F0E2FFE0
S315080133C000228046894630460023394617F000FC1C
S315080133D04FF00106002800F04081F601F6B20C9F75
S315080133E0667150465946D7E90A2317F07FF9D7E996
S315080133F0082382468B464046494617F0A1FA002221
S3150801340000238046894617F0E3FB002840F018811F
S315080134104046494616F098FD804689465946504623
S3150801342017F03CFC49460644404617F037FC304441
S31508013430C6B26D4BA670D3E900AB0022664B504667
S31508013440594617F0E3FB002800F0D2809FED5E7B1A
S315080134508DED1C7B00274FF000084FF000090C9BEF
S315080134602771D3E91023DDE91C0117F03FF90C9BFD
S315080134708246D3E90E2340468B46494617F060FA41
S31508013480002200238046894617F0A2FB002840F057
S3150801349087804046494616F057FD80468946594673
S315080134A0504617F0FBFB49460744404617F0F6FB22
S315080134B038440D9BC0B2E070B3F80080159B00221A
S315080134C0002B3FF4D1AE119B0B930E9B0A930C9BD9
S315080134D0039203F14C01179B0993169B0893109BC2
S315080134E007931A9B0296AF1C04F10A0E8DE8090090
S315080134F0069740460591CDF810E0DDE91223FCF761
S31508013500FBFFB6E60022394B4046494617F074FBE5
S31508013510002800F0A48029F000474046394616F0F5
S3150801352013FD02460B4682468B464046394616F03F
S3150801353029FF0022CDE91A0100234046494617F022
S3150801354047FB4FF0010600B90646F601F6B2E3E677
S3150801355000264FF000084FF000094FF0000ADFF887
S3150801356080B03CE70C9B2B9248332D93119B3393E8
S315080135700F9B3293199B3193189B3093109B2F9372
S315080135801A9B2993DDE91223013507342890404611
S315080135902E952C942A961FB0BDE8F04FFDF75EB81C
S315080135A04046494616F048FC8046894677E7404634
S315080135B0494616F041FC80468946CCE6AFF30080C1
S315080135C00000000000000000000000000000F03FBD
S315080135D000001C40580000200000F03F08000020B1
S315080135E000002440000024C0880000200000F0BF2D
S315080135F00022274B5046594617F0FEFA4FF00008AD
S315080136004FF00009A8B32BF000494946504616F079
S315080136109BFC02460B4650464946CDE91C2316F04B
S31508013620B1FE00228046894600235046594617F0C6
S31508013630CFFA4FF0010700B90746FF01FFB20EE7BF
S315080136404046494616F0F8FB80468946E6E64FF0BD
S31508013650000ADFF840B08026C1E60646BDE69FEDC2
S31508013660087B4FF0000A8DED1A7BDFF82CB0802617
S3150801367052E69FED057B80278DED1C7BEFE600BFAB
S315080136800000000000000000000000000000F03FFC
S315080136900000F0BF000024400000F03FF0B585B0FF
S315080136A00EAC70CC002830D0287808B901202870D3
S315080136B01846174600295FD1AB78002B4DD1002F4C
S315080136C04FD16B78002B45D1A37D002B2DD0637D7F
S315080136D03370A37B7370E37BB370237CF370637CD5
S315080136E03371A37C7371E37CB371237DF371A37D7D
S315080136F0002B2DD1237A003318BF012313990B70A0
S31508013700119B01221A7005B0F0BD2B78002BFAD057
S31508013710AB780BB1A075A8706B7813B1002323722F
S315080137206B7000232B7005B0F0BDE37933702378F5
S3150801373073706378B370A378F370E3783371237980
S3150801374073716379B371A379F371A37D002BD1D01A
S315080137500123D3E727726F70B6E7A175A970002F09
S31508013760AFD0129B0293013501950094DDE90C2334
S315080137700A98FCF76FFEA7E704F10E02129B029363
S31508013780A91C00920191DDE90C23FCF711FE96E7CD
S31508013790F0B585B00EAC70CC002830D0287808B9C1
S315080137A0012028701846174600295FD1AB78002BEF
S315080137B04DD1002F4FD16B78002B45D1A37D002B1E
S315080137C02DD0637D3370A37B7370E37BB370237C49
S315080137D0F370637C3371A37C7371E37CB371237DCE
S315080137E0F371A37D002B2DD1237A003318BF012352
S315080137F013990B70119B01221A7005B0F0BD2B7835
S31508013800002BFAD0AB780BB1A075A8706B7813B101
S31508013810002323726B7000232B7005B0F0BDE3798A
S315080138203370237873706378B370A378F370E37891
S315080138303371237973716379B371A379F371A37DB5
S31508013840002BD1D00123D3E727726F70B6E7A17594
S31508013850A970002FAFD0129B0293013501950094F0
S31508013860DDE90C230A98FCF7F5FDA7E704F10E023A
S31508013870129B0293A91C00920191DDE90C23FCF726
S3150801388097FD96E738B521F000430D460022194603
S31508013890154B044617F09CF9C8B10022134B204674
S315080138A0294617F0A9F9A8B90022114B204629463D
S315080138B017F0ACF948B9204629460C4B002216F0F8
S315080138C061FDBDE8384016F0B7BA00240025204648
S315080138D0294638BD20462946044B002216F054FDD8
S315080138E0BDE8384016F030BB000030430000E03F29
