S02300002E2E2F48414E636F6465725F453430375F5454415F47726F7570322E737265636D
S315080040005CD10020D10A0208000000000000000070
S315080040100000000000000000000000000000000092
S31508004020000000000000000000000000C1D80108E0
S3150800403000000000000000005DD90108ADD90108A4
S315080040400000000000000000000000000000000062
S315080040500000000000000000000000000000000052
S31508004060000000009DE601080000000000000000B6
S315080040700000000000000000000000000000000032
S31508004080000000000000000000000000E9CC010864
S31508004090A1CC0108C5CC01080DCD0108000000001F
S315080040A089E6010875E6010861E6010851E6010896
S315080040B03DE6010829E6010815E6010800000000AA
S315080040C000000000000000000000000000000000E2
S315080040D000000000A1F00108B9F00108D1F00108BC
S315080040E0000000000000000099F10108000000002F
S315080040F001E60108EDE50108DDE50108000000001C
S315080041000000000001F101080000000000000000A6
S315080041100000000000000000000000000000000091
S3150800412000000000000000000000000005F1010882
S3150800413000000000CDE601080000000079CD010866
S3150800414031CD010855CD01089DCD0108C9F10108F9
S31508004150000000000000000000000000E9F001086F
S315080041600000000000000000000000000000000041
S315080041700000000000000000000000000000000031
S311080041800000000000000000EE11AA5527
S3150800C000000000000000000000000000000054408E
S3150800C0100000000000005540000000000080554068
S3150800C0200000000000005640000000000080564056
S3150800C0300000000000005740000000000080654036
S3150800C0400000000000006640000000000080664016
S3150800C05000000000004070400000000000607040D2
S3150800C06000000000008070400000000000C0704022
S3150800C0700000000000C07540000000000000764087
S3150800C0800000000000407640000000000080764076
S3150800C0900000000000C07640000000000000774065
S3150800C0A000000000000000000000000000005440EE
S3150800C0B000000000000055400000000000805540C8
S3150800C0C00000000000005640000000000000654027
S3150800C0D00000000000406540000000000080654048
S3150800C0E00000000000806F400000000000C06F40A4
S3150800C0F00000000000007040000000000040704092
S3150800C10000000000008070400000000000807540BC
S3150800C1100000000000A075400000000000C0754047
S3150800C12000000000008076400000000000A0764075
S3150800C1300000000000000000000000000000F03FC2
S3150800C140000000000000F03F000000000000F03F83
S3150800C150000000000000F03F000000000000F03F73
S3150800C1600000000000000000000000000000F03F92
S3150800C170000000000000F03F000000000000000082
S3150800C180000000000000F03F000000000000F03F43
S3150800C190000000000000F03F000000000000000062
S3150800C1A0000000000000F03F000000000000F03F23
S3150800C1B0000000000000F03F000000000000F03F13
S3150800C1C0000000000000F03F000000000000F03F03
S3150800C1D00000000000000000000000000000F03F22
S3150800C1E0000000000000F03F000000000000F03FE3
S3150800C1F00000000000000000000000000000F03F02
S3150800C200000000000000F03F0000000000000000F1
S3150800C210000000000000F03F000000000000F03FB2
S3150800C220000000000000F03F000000000000F03FA2
S3150800C2300000000000000000000000000000F03FC1
S3150800C240000000000000F03F000000000000F03F82
S3150800C250000000000000F03F000000000000F03F72
S3150800C26000000101010001000101000000010001B8
S3150800C27000000000000070400000000000C076408A
S3150800C28000000000008065400000000000005540E6
S3150800C2900000000000005640000000000000544066
S3150800C2A00000000000006540000000000000903F0C
S3150800C2B00000000000005040000000000000C03FE1
S3150800C2C00000000000002040000000000000903F31
S3150800C2D00000000000005040000000000000574029
S3150800C2E000000000000077400000000000005540F4
S3150800C2F00000000000005640000000000000544006
S3150800C3000000000000407040000000000000764079
S3150800C3100000000000C075400000000000C0764024
S3150800C3200000000000806540000000000000554045
S3150800C33000000000000070400000000000005640A9
S3150800C340000000000080704000000000000054401B
S3150800C35000000000000065400000000000807540F5
S3150800C3600000000000806F40000000000000903FC1
S3150800C3700000000000005040000000000000C03F20
S3150800C3800000000000002040000000000000903F70
S3150800C39000000000000050400000000000807640C9
S3150800C3A00000000000C07640000000000040774012
S3150800C3B00000000000007740000000000000554023
S3150800C3C00000000000005640000000000000574032
S3150800C3D00000000000806640000000000000664083
S3150800C3E00000000000C0704000000000008070409F
S3150800C3F00000000000407640000000000000764083
S3150800C40000000000000054400000000000C0754015
S3150800C41000000000008065400000000000407040F9
S3150800C420000000000000F03F1600000016000000A3
S3150800C43000000000000000000100010000010000EB
S3150800C44001000000010000000100000001000000DA
S3150800C450000000001500000015000000150000008F
S3150800C46015000000000000000100000001000000A7
S3150800C4700100000001000000000000001600000096
S3150800C480160000000000000016000000160000005C
S3150800C4901600000016000000000000000100000061
S3150800C4A0010000000100000001000000000000007B
S3150800C4B0150000001500000015000000150000001A
S3150800C4C0000000000D0000000D0000000D00000037
S3150800C4D00D000000000000000C0000000C00000029
S3150800C4E00C0000000C000000000000000B0000001B
S3150800C4F00B0000000B0000000B000000000000000D
S3150800C5000100000001000000010000000100000019
S3150800C51000000000000000006464640048414E63A7
S3150800C5206F6465725F453430375F5454415F4772B4
S3150800C5306F7570325F736F66747761726549445FB1
S3150800C54076315F3031303632325F3134313131371E
S3150800C5504170704374726C5461736B0048414E634A
S3150800C5606F6465725F453430375F5454415F477274
S3150800C5706F7570322E630000200000000014024020
S3150800C58008000900200000000014024010000E00F8
S3150800C590200000000014024020000F0020000000C8
S3150800C5A0001402404000040020000000001402406D
S3150800C5B0800005002000000000140240000106006B
S3150800C5C020000000001402400002070020000000BE
S3150800C5D0001402400004080004000000000802409D
S3150800C5E001000A00040000000008024004000C00D4
S3150800C5F0414443636F6E76657273696F6E546173F7
S3150800C6006B0000002E2E2F626C6F636B7365742FA0
S3150800C6107274772F53544D33322F7372632F6865B4
S3150800C62061705F342E630000546D724370754C6FF1
S3150800C6306164000049444C45000000002E2E2F621C
S3150800C6406C6F636B7365742F7274772F53544D3305
S3150800C650322F7372632F7461736B732E630000003D
S3150800C6602E2E2F626C6F636B7365742F7274772F1F
S3150800C67053544D33322F7372632F74696D65727319
S3150800C6802E630000546D72205376630043616E4535
S3150800C69076656E745461736B0000000043616E54D6
S3150800C6A072616E736D69745461736B002E2E2F62FE
S3150800C6B06C6F636B7365742F7274772F53544D3395
S3150800C6C0322F7372632F53544D33325F45343037EC
S3150800C6D02F63616E2E6300000064004000000002B4
S3150800C6E008000000000C02400100000008000000DD
S3150800C6F0000C024002000100091314151600000080
S3150800C7000068004000000004020000000004024027
S3150800C7102000050002000000000402404000060058
S3150800C720093F4041420000000101020102020202E3
S3150800C73002030202040202030303040303050303BC
S3150800C740060303050404060404070404080404078E
S3150800C7500505080505080605080705080706080863
S3150800C7600608080708080800457643686E6C310015
S3150800C770457643686E6C3200457643686E6C3300C6
S3150800C7802E2E2F626C6F636B7365742F7274772FFE
S3150800C79053544D33322F7372632F53544D33325FD4
S3150800C7A0453430372F6D61632E6300002E2E2F62BD
S3150800C7B06C6F636B7365742F7274772F53544D3394
S3150800C7C0322F7372632F53544D33325F45343037EB
S3150800C7D02F706F72742E6300000001400100000084
S3150800C7E002010000100000000010024000020900CB
S3150800C7F0100000000010024000080B000004004072
S3150800C80002000000010200000100000000000240D2
S3150800C8104000060002000000000402402000050057
S3150800C82000080040040000000102000008000000A3
S3150800C830000C024000100C0008000000000C02402A
S3150800C84000200D0000040140020000000203000061
S3150800C8500400000000080240400006000400000032
S3150800C86000080240800007000000014001000000A7
S3150800C87002011900000000400100000001021C002E
S3150800C880000400400200000001021D0000080040EC
S3150800C8900400000001021E0000040140020000001E
S3150800C8A002012C00004001400000010002011800AE
S3150800C8B0004401400000020002011900004801403E
S3150800C8C00000040002011A00001C0040800000005D
S3150800C8D001022C00002000400001000001022D008A
S3150800C8E004000000000802400100000020000000CB
S3150800C8F0001402404000000020000000001402401E
S3150800C9008000000020000000001402400001000022
S3150800C9102000000000140240000200002000000071
S3150800C9200014024000040000020000000004024057
S3150800C93080000000020000000004024040000000E1
S3150800C9401000000000100240040000001000000063
S3150800C9500010024010000000100000000010024005
S3150800C96020000000100000000010024040000000F7
S3150800C970400000000018024080000000400000004F
S3150800C98000180240000100004000000000180240A4
S3150800C990001000004000000000180240008000005F
S3150800C9A00100000000000240100000000200000024
S3150800C9B000040240200000000100000000000240C0
S3150800C9C040000000010000000000024020000000B6
S3150800C9D008000000000C02400100000008000000EA
S3150800C9E0000C02400200000008000000000C024093
S3150800C9F00400000008000000000C024008000000C7
S3150800CA0008000000000C02401000000008000000AA
S3150800CA10000C02402000000008000000000C024044
S3150800CA204000000008000000000C024080000000E2
S3150800CA3008000000000C0240000100000800000089
S3150800CA40000C02400002000008000000000C024032
S3150800CA500004000008000000000C02400008000066
S3150800CA6008000000000C024000100000080000004A
S3150800CA70000C02400020000008000000000C0240E4
S3150800CA800040000008000000000C02400080000082
S3150800CA901000000000100240010000001000000015
S3150800CAA000100240020000001000000000100240C2
S3150800CAB0080000001000000000100240800000007E
S3150800CAC010000000001002400001000010000000E5
S3150800CAD00010024000020000100000000010024092
S3150800CAE000040000100000000010024000080000CA
S3150800CAF010000000001002400010000010000000A6
S3150800CB000010024000200000100000000010024043
S3150800CB1000400000100000000010024000800000E5
S3150800CB202000000000140240010000002000000060
S3150800CB300014024002000000200000000014024019
S3150800CB400400000020000000001402400800000055
S3150800CB502000000000140240100000002000000021
S3150800CB6000140240200000002000000000140240CB
S3150800CB700008000020000000001402400010000019
S3150800CB8020000000001402400020000020000000E1
S3150800CB90001402400040000020000000001402407B
S3150800CBA0008000004000000000180240010000005C
S3150800CBB0400000000018024002000000400000008B
S3150800CBC0001802400400000040000000001802405F
S3150800CBD00800000040000000001802401000000095
S3150800CBE0400000000018024020000000400000003D
S3150800CBF000180240400000004000000000180240F3
S3150800CC000002000040000000001802400004000076
S3150800CC104000000000180240000800004000000024
S3150800CC2000180240002000004000000000180240E2
S3150800CC300040000001000000000002400100000062
S3150800CC400400000000080240010000002000000067
S3150800CC5000140240400000002000000000140240BA
S3150800CC6080000000200000000014024000010000BF
S3150800CC70200000000014024000020000200000000E
S3150800CC8000140240000400000200000000040240F4
S3150800CC90800000000200000000040240400000007E
S3150800CCA01000000000100240040000001000000000
S3150800CCB000100240100000001000000000100240A2
S3150800CCC02000000010000000001002404000000094
S3150800CCD040000000001802408000000040000000EC
S3150800CCE00018024000010000400000000018024041
S3150800CCF000100000400000000018024000800000FC
S3150800CD0001000000000002401000000002000000C0
S3150800CD10000402402000000001000000000002405C
S3150800CD204000000001000000000002402000000052
S3150800CD3008000000000C0240010000000800000086
S3150800CD40000C02400200000008000000000C02402F
S3150800CD500400000008000000000C02400800000063
S3150800CD6008000000000C0240100000000800000047
S3150800CD70000C02402000000008000000000C0240E1
S3150800CD804000000008000000000C0240800000007F
S3150800CD9008000000000C0240000100000800000026
S3150800CDA0000C02400002000008000000000C0240CF
S3150800CDB00004000008000000000C02400008000003
S3150800CDC008000000000C02400010000008000000E7
S3150800CDD0000C02400020000008000000000C024081
S3150800CDE00040000008000000000C0240008000001F
S3150800CDF010000000001002400100000010000000B2
S3150800CE00001002400200000010000000001002405E
S3150800CE10080000001000000000100240800000001A
S3150800CE201000000000100240000100001000000081
S3150800CE30001002400002000010000000001002402E
S3150800CE400004000010000000001002400008000066
S3150800CE501000000000100240001000001000000042
S3150800CE6000100240002000001000000000100240E0
S3150800CE700040000010000000001002400080000082
S3150800CE8020000000001402400100000020000000FD
S3150800CE9000140240020000002000000000140240B6
S3150800CEA004000000200000000014024008000000F2
S3150800CEB020000000001402401000000020000000BE
S3150800CEC00014024020000000200000000014024068
S3150800CED000080000200000000014024000100000B6
S3150800CEE0200000000014024000200000200000007E
S3150800CEF00014024000400000200000000014024018
S3150800CF0000800000400000000018024001000000F8
S3150800CF104000000000180240020000004000000027
S3150800CF2000180240040000004000000000180240FB
S3150800CF300800000040000000001802401000000031
S3150800CF4040000000001802402000000040000000D9
S3150800CF50001802404000000040000000001802408F
S3150800CF600002000040000000001802400004000013
S3150800CF7040000000001802400008000040000000C1
S3150800CF80001802400020000040000000001802407F
S3150800CF9000400000040000000008024000200000D5
S3150800CFA0000001400100000002011B0000000040D3
S3150800CFB00100000001021C000004004002000000FD
S3150800CFC001021D00000800400400000001021E00C6
S3150800CFD0000401400200000002012E00004001404A
S3150800CFE00000010002011800004401400000020090
S3150800CFF002011900004801400000040002011A005D
S3150800D000001C00408000000001022C0000200040A7
S3150800D0100001000001022D0010000000001002406F
S3150800D02000020000020002000100090010000000D2
S3150800D03000100240000800010400200001000B0057
S3150800D0401000000000100240002000020800000244
S3150800D05001000D001000000000100240004000030F
S3150800D0601000002001000E00010000000000024030
S3150800D0702000010002000200010005000100000076
S3150800D0800000024040000200020002000200060002
S3150800D09002000000000402402000020104002000F3
S3150800D0A00200050008000000000C02400010030002
S3150800D0B00200020002000C0008000000000C0240FA
S3150800D0C0002003010400200002000D0004000000F7
S3150800D0D000080240400004000200020003000600A7
S3150800D0E0040000000008024080000401040020003B
S3150800D0F00300070010000000001002402000050091
S3150800D10002000200030005001000000000100240A3
S3150800D110400005010400200003000600200000006E
S3150800D1200014024040000600020002000300060048
S3150800D13020000000001402408000070002000200E0
S3150800D1400300070020000000001402400001080048
S3150800D1500200020009000800200000000014024036
S3150800D160000209000200020009000900001001403F
S3150800D1701000000002250000020000000004024022
S3150800D180400006000200000000040240800007007C
S3150800D19007000000004400400000020001260000CD
S3150800D1A008000000000C02402000050008000000EE
S3150800D1B0000C02404000060007000000004800403E
S3150800D1C0000004000127000008000000000C0240CF
S3150800D1D00001080008000000000C024000020900D7
S3150800D1E0070000000014014020000000024700006C
S3150800D1F00400000000080240400006000400000089
S3150800D200000802408000070008000000564350202E
S3150800D210436F6E666967000056435020496E746511
S3150800D220726661636500000053544D6963726F65E9
S3150800D2306C656374726F6E696373000053544D3383
S3150800D24032205669727475616C20436F6D506F7227
S3150800D2507420696E204853206D6F646500000000D5
S3150800D26053544D3332205669727475616C20436F7E
S3150800D2706D506F727420696E204653204D6F646539
S3150800D2800000000030303030303030303035304239
S3150800D2900000000030303030303030303035304328
S3150800D2A000000000000001400100000002011B0010
S3150800D2B0000000400100000001021C0000040040BC
S3150800D2C00200000001021D000008004004000000E2
S3150800D2D001021E00000401400200000002012E00A7
S3150800D2E0004001400000010002011800004401400E
S3150800D2F00000020002011900004801400000040075
S3150800D30002011A00001C00408000000001022C00E7
S3150800D310002000400001000001022D00100000005E
S3150800D320001002400002000002000200010009008D
S3150800D3301000000000100240000800010400200050
S3150800D34001000B001000000000100240002000023F
S3150800D3500800000201000D00100000000010024045
S3150800D360004000031000002001000E00010000002C
S3150800D3700000024020000100020002000100050032
S3150800D3800100000000000240400002000200020006
S3150800D390020006000200000000040240200002010C
S3150800D3A0040020000200050008000000000C0240EE
S3150800D3B0001003000200020002000C000800000032
S3150800D3C0000C0240002003010400200002000D00AA
S3150800D3D004000000000802404000040002000200A9
S3150800D3E00300060004000000000802408000040153
S3150800D3F0040020000300070010000000001002408F
S3150800D40020000500020002000300050010000000CD
S3150800D4100010024040000501040020000300060039
S3150800D420200000000014024040000600020002002E
S3150800D43003000600200000000014024080000700D8
S3150800D440020002000300070020000000001402404A
S3150800D4500001080002000200090008002000000080
S3150800D4600014024000020900020002000900090037
S3150800D4702E2E2F626C6F636B7365742F7274772F01
S3150800D48053544D33322F7372632F71756575652E3C
S3150800D4906300000004040400A8D40008B0D40008FF
S3150800D4A0B8D4000807070700457643686E6C310054
S3150800D4B0457643686E6C3200457643686E6C330079
S3150800D4C050505000666D6F640000000000000000B8
S3150800D4D000000000000000000000000000000080BE
S3090800D4E043000000F7
S315080100000B78FF2B00D070474B78002BFBD10AF0F9
S31508010010D7BF00BF08B501200AF0DEFA034A40F24D
S3150801002067610020BDE808400DF020B8010001080D
S3150801003000200AF055B900BF704700BF2DE9F04707
S31508010040DDF820E0099E9EF800C004460D4692465A
S315080100501F46BCF1000F02D101238EF8003030880B
S3150801006013F0D6F922462B468046894613F09EFCA4
S31508010070E0B10E9A3B6813600D9A7B6813600C9A7F
S31508010080BB7A1370109A3B7A13700B9AFB7A13702A
S315080100900F9A7B7A13700A9A002313605360119A98
S315080100A01370308813F0B4F98046894642464B46A8
S315080100B02046294613F084FC68B10B9B1B78D3B9FB
S315080100C001238AF800300C9B1B787BB901238AF837
S315080100D00130BDE8F087002642464B4620462946B0
S315080100E08AF8006013F06CFC0028ECD100238AF82A
S315080100F00130BDE8F08700238AF800300C9B1B7895
S31508010100002BF3D1E2E700BF2DE9F04F83B0164685
S315080101101F4682468B4612F097FE002200230446AC
S315080101200D4613F043FCD8BB804600220023204627
S3150801013029465FFA88F813F039FC50B93046394632
S3150801014012F0FAFD02460B463046394613F056FCC4
S3150801015090BBB8F1000F5FD15046594600220023E3
S315080101604FF0010913F02CFC20B30023002230467E
S31508010170394613F025FC4FF00103A0B15FFA89F95E
S31508010180DBB2994507D02046294632463B4612F04E
S31508010190F3FF04460D462046294603B0BDE8F08F15
S315080101A04FF00108C1E703465FFA89F9DBB29945C1
S315080101B0E9D1F0E7C146D8E732463B4650465946AB
S315080101C013F0B6FA21F000490022194B4946804638
S315080101D012F0D2FF12F0B0FD02460B4640464946E0
S315080101E012F0C8FF0B46024623F000434046009230
S315080101F0019300220F4B494613F070F902460B464C
S31508010200DDE9000113F0E6FB4FF0010858B15FFA8A
S3150801021088F8B8F1000F9FD000240025204629460A
S3150801022003B0BDE8F08F80465FFA88F8F1E700BFB2
S315080102300000E03F0000B03C2DE9F0410999089C17
S3150801024091F800E0DDF82880054616461F46BEF1FE
S31508010250000F01D101230B702B785B00DBB25A0921
S3150801026007EE902AB8EEE77AF7EE007AB4EEE77A67
S31508010270F1EE10FAA372227307DDD8E90001002214
S315080102801B4B12F079FFC8E900012878C009607391
S315080102902B781B01DBB24FEA1318637284F80B80C3
S315080102A013F0B6F832463B4613F080FB50B1404690
S315080102B013F0AEF8DDE9062313F078FB4FF00103DE
S315080102C098B1D8B220726B782370AB786370EB78EB
S315080102D0A3702B79E3706B792371AB796371EB7931
S315080102E0A3710023E371BDE8F0810346E9E700BF86
S315080102F00000F03F2DE9F0410999089C91F800E0CA
S31508010300DDF82880054616461F46BEF1000F01D1C5
S3150801031001230B702B785B00DBB25A0907EE902A92
S31508010320B8EEE77AF7EE007AB4EEE77AF1EE10FA6C
S31508010330A372227307DDD8E9000100221B4B12F0D4
S315080103401BFFC8E900012878C00960732B781B01D7
S31508010350DBB24FEA1318637284F80B8013F058F86E
S3150801036032463B4613F022FB50B1404613F050F893
S31508010370DDE9062313F01AFB4FF0010398B1D8B251
S3150801038020726B782370AB786370EB78A3702B7946
S31508010390E3706B792371AB796371EB79A3710023F0
S315080103A0E371BDE8F0810346E9E700BF0000F03FCD
S315080103B02DE9F0410799069C91F800E0DDF82080C7
S315080103C0054616461F46BEF1000F01D101230B70E3
S315080103D02B785B00DBB25A0907EE902AB8EEE77A6A
S315080103E0F7EE007AB4EEE77AF1EE10FAA372227309
S315080103F007DDD8E900010022154B12F0BDFEC8E958
S3150801040000016B782370AB786370EB78A3702B7956
S31508010410E3706B792371AB796371EB79A37100236F
S31508010420E3712B781B01DBB218096372E07212F0D3
S31508010430EFFF3B46324613F0B9FA4FF0010300B914
S31508010440034623722B78DB096373BDE8F08100BF8D
S315080104500000F03F2DE9F0410799069C91F800E06C
S31508010460DDF82080054616461F46BEF1000F01D16C
S3150801047001230B702B785B00DBB25A0907EE902A31
S31508010480B8EEE77AF7EE007AB4EEE77AF1EE10FA0B
S31508010490A372227307DDD8E900010022154B12F079
S315080104A06BFEC8E900016B782370AB786370EB7853
S315080104B0A3702B79E3706B792371AB796371EB794F
S315080104C0A3710023E3712B781B01DBB21809637250
S315080104D0E07212F09DFF3B46324613F067FA4FF081
S315080104E0010300B9034623722B78DB096373BDE860
S315080104F0F08100BF0000F03F2DE9F04F89B00746B3
S3150801050018999DF8488091F800E09DF84C909DF85F
S3150801051050A09DF85460169D1A9CBEF1000F01D19A
S3150801052001200870DFF830E110461946DEE900239C
S3150801053012F022FECDE90001384612F059FF0022D9
S31508010540434BCDE9020112F017FEDDE9002312F053
S3150801055011FE00220023CDE9060113F027FA00282F
S3150801056041D01D9B18781C9BC0015FFA80FB85F85A
S3150801057001B0D3E9000113F089FA0001C7B2199B4A
S31508010580AF70D3E9000113F081FA38445844179B38
S31508010590207084F8018084F8029084F803A02671FB
S315080105A06671A671E6711B9A1B681360DDE9002363
S315080105B0DDE9020112F0DEFD0022002380468946AC
S315080105C013F0F4F90446002839D1224BD3E9006720
S315080105D0002200233046394613F0E8F9E8B12C70B9
S315080105E009B0BDE8F08F1B4B93ED007B0022002379
S315080105F051EC170B8DED047B13F0D8F90028D5D1F2
S31508010600DDE90423DDE90601FFF77EFD002200236B
S3150801061013F0CCF90028C9D0A3E732463B46404639
S315080106204946FFF771FD0022002313F0BFF94FF089
S31508010630010448B1E4B22C7009B0BDE8F08F012479
S315080106402C7009B0BDE8F08F0446E4B2F3E700BFA9
S315080106500000F03F50000020300000202DE9F04F47
S3150801066089B0074618999DF8488091F800E09DF8E9
S315080106704C909DF850A09DF85460169D1A9CBEF1A9
S31508010680000F01D101200870DFF830E11046194644
S31508010690DEE9002312F070FDCDE90001384612F0BB
S315080106A0A7FE0022434BCDE9020112F065FDDDE903
S315080106B0002312F05FFD00220023CDE9060113F0A5
S315080106C075F9002841D01D9B18781C9BC0015FFA5B
S315080106D080FB85F801B0D3E9000113F0D7F90001D1
S315080106E0C7B2199BAF70D3E9000113F0CFF93844AB
S315080106F05844179B207084F8018084F8029084F886
S3150801070003A026716671A671E6711B9A1B681360B0
S31508010710DDE90023DDE9020112F02CFD00220023A8
S315080107208046894613F042F90446002839D1224BFE
S31508010730D3E90067002200233046394613F036F91B
S31508010740E8B12C7009B0BDE8F08F1B4B93ED007B27
S315080107500022002351EC170B8DED047B13F026F9CB
S315080107600028D5D1DDE90423DDE90601FFF7CCFC34
S315080107700022002313F01AF90028C9D0A3E732464C
S315080107803B4640464946FFF7BFFC0022002313F0CB
S315080107900DF94FF0010448B1E4B22C7009B0BDE877
S315080107A0F08F01242C7009B0BDE8F08F0446E4B23D
S315080107B0F3E700BF0000F03F58000020700000205A
S315080107C02DE9F0410799069C91F800E0DDF82080B3
S315080107D0054616461F46BEF1000F01D101230B70CF
S315080107E02B785B00DBB25A0907EE902AB8EEE77A56
S315080107F0F7EE007AB4EEE77AF1EE10FAA3722273F5
S3150801080007DDD8E900010022154B12F0B5FCC8E94D
S3150801081000016B782370AB786370EB78A3702B7942
S31508010820E3706B792371AB796371EB79A37100235B
S31508010830E3712878C009607312F0EAFD3B46324637
S3150801084013F0B4F84FF0010300B9034623722B786D
S315080108501B01DBB21A096372E272BDE8F08100BFBF
S315080108600000F03F2DE9F0410799069C91F800E058
S31508010870DDF82080054616461F46BEF1000F01D158
S3150801088001230B702B785B00DBB25A0907EE902A1D
S31508010890B8EEE77AF7EE007AB4EEE77AF1EE10FAF7
S315080108A0A372227307DDD8E900010022154B12F065
S315080108B063FCC8E900016B782370AB786370EB7849
S315080108C0A3702B79E3706B792371AB796371EB793B
S315080108D0A3710023E3712878C009607312F098FDAB
S315080108E03B46324613F062F84FF0010300B903465E
S315080108F023722B781B01DBB21A096372E272BDE817
S31508010900F08100BF0000F03F2DE9F04F83B00C469F
S315080109100E9FDDF8348099460546324BD7E900012A
S315080109201646002212F028FC0123C7E9000189F8BE
S31508010930003023682C4A0C99013313602360D8F8D8
S31508010940003007EE903AB8EE677AF7EE007AB4EE21
S31508010950677AF1EE10FA05D1DFF888904FF00008B2
S31508010960C1E9008937780193384612F041FDDFF86D
S3150801097084801E4A019B1360C8E900012B602F7110
S3150801098096F807E085F805E096F801C085F806C0EF
S3150801099096F8028085F8078096F8039085F80890FE
S315080109A096F804A085F809A096F805B0104C85F8C4
S315080109B00AB0B079E8721946A071234608220020C8
S315080109C0277084F805B084F804A084F8039084F8A5
S315080109D0028084F801C084F807E003B0BDE8F04F4F
S315080109E00CF0D0B80000F03F7CC1002048BE0020C2
S315080109F028070020C0C1002008B5012100200CF0FD
S31508010A00C5FA0B2100200CF0C1FA0C2100200CF0CC
S31508010A10BDFA0D2100200CF0B9FA152100200CF0C1
S31508010A20B5FA162100200CF0B1FA172100200CF0B6
S31508010A30ADFA182100200CF0A9FA19210020BDE809
S31508010A4008400CF0A3BA00BF2DE9F04F2DED088B35
S31508010A500D460968E34CE44E83B0013121602960F3
S31508010A601699DDF85C900968316007EE901AB8EEC0
S31508010A70678AF7EE007AB4EE678AF1EE10FA1F4636
S31508010A8004469246EB7940F09A820BB90123EB7141
S31508010A90DFF85883002243460092104601210CF0E4
S31508010AA0A1FA002884F84B0040F3A28398F8013094
S31508010AB0637698F80230A37698F80330E37698F8C7
S31508010AC004302377D6ED007A98F80530637798F8DD
S31508010AD00630A37798F8072098F80030E277F8EE01
S31508010AE0678A2376F2EE067AF4EE678AF1EE10FA51
S31508010AF0AB7940F0E3820BB90123AB71DFF8F082E1
S31508010B0000224346009210460B210CF06BFA00288E
S31508010B1084F84A0040F3838398F80130637498F89F
S31508010B200230A37498F80330E37498F804302375F7
S31508010B30D6ED007A98F80530637598F80630A375EE
S31508010B4098F8072098F80030E275B8EE679A23748A
S31508010B50F2EE087AB4EE679AF1EE10FA6B7940F084
S31508010B609C820BB901236B71DFF888820022434608
S31508010B70009210460C210CF035FA002884F8490039
S31508010B8040F36183D6ED007A98F8073098F8062085
S31508010B9098F8051098F8040098F803E098F802C048
S31508010BA098F801B098F8008084F809B0F8EE679AC9
S31508010BB084F80AC084F80BE020736173A273E373A7
S31508010BC084F80880F2EE0A7AF4EE679AF1EE10FAE2
S31508010BD02B7940F050820BB901232B71DFF818826B
S31508010BE000224346009210460D210CF0FBF900281D
S31508010BF084F848001BDD98F801B098F802E098F8E7
S31508010C00030098F800C098F8041098F8052098F899
S31508010C10063098F8078084F8078084F801B084F8CC
S31508010C2000C084F802E0E07021716271A371D6ED0B
S31508010C30007AB8EE67AAF3EE057AB4EE67AAF1EE82
S31508010C4010FA2B7A40F0FD810BB901232B72DFF8DC
S31508010C50AC81002243460092104615210CF0C2F9D8
S31508010C60002884F84C0040F3E98298F8013084F8AA
S31508010C70213098F8023084F8223098F8033084F845
S31508010C80233098F8043084F82430D6ED007A98F8A1
S31508010C90053084F8253098F8063084F8263098F817
S31508010CA0072098F8003084F82720F8EE67AA84F818
S31508010CB02030F3EE067AF4EE67AAF1EE10FA6B7AB3
S31508010CC040F040820BB901236B72DFF834810022B0
S31508010CD043460092104616210CF084F9002884F840
S31508010CE04D0040F3A68298F8013084F8293098F827
S31508010CF0023084F82A3098F8033084F82B3098F8B3
S31508010D00043084F82C30D6ED007A98F8053084F84A
S31508010D102D3098F8063084F82E3098F8072098F880
S31508010D20003084F82F20B8EE67BA84F82830F3EE3D
S31508010D30077AB4EE67BAF1EE10FA2B7B40F0D08150
S31508010D400BB901232B73DFF8BC80002243460092BE
S31508010D50104617210CF046F9002884F8500040F394
S31508010D60638298F8013084F8413098F8023084F8A3
S31508010D70423098F8033084F8433098F8043084F800
S31508010D804430D6ED007A98F8053084F8453098F85D
S31508010D90063084F8463098F8072098F8003084F829
S31508010DA04720F8EE67BA84F84030F3EE087AF4EE95
S31508010DB067BAF1EE10FAEB7A40F0AB810BB9012371
S31508010DC0EB72DFF844800022434600921046182150
S31508010DD00CF008F9002884F84F00D6ED007A40F3A4
S31508010DE01B8213E0D8BD002064BE0020B80600208F
S31508010DF0000700201007002020070020C006002059
S31508010E00C8060020D8060020E806002098F8013018
S31508010E1084F8393098F8023084F83A3098F8033073
S31508010E2084F83B3098F8043084F83C3098F805305B
S31508010E3084F83D3098F8063084F83E3098F8072053
S31508010E4098F8003084F83F20F8EE677A84F838304D
S31508010E50B3EE097AF4EE477AF1EE10FAAB7A40F07E
S31508010E60D8800BB90123AB72C84D00222B460092DC
S31508010E70104619210CF0B6F8002884F84E0017DD43
S31508010E806B78AA7884F83130EB7884F8322084F8C4
S31508010E9033302A796B7984F83420A97984F8353086
S31508010EA0EA792B7884F8361084F8372084F83030BC
S31508010EB0F7EE007AB4EE678AF1EE10FA40F0928006
S31508010EC094F94B30207E94F819C094F81AE0E67E1E
S31508010ED0257F617FA27F07EE103AE37F99F80040EC
S31508010EE007EE904AF8EEE77AF7EE006AF4EE667ACC
S31508010EF0F1EE10FA15D1F8EEC77AF5EE407AF1EE71
S31508010F0010FA57D1189C4FF002084FF0010B89F8D7
S31508010F10008084F800B099F8004007EE904AF8EE90
S31508010F20E77AF0EE006AF4EE667AF1EE10FA37D156
S31508010F30B8EEC77AB7EE008AB4EEC87AF1EE10FABF
S31508010F4038DBFB71189B87F801C001243870BA7128
S31508010F5087F802E0FE703D7179711C70159B8C4A09
S31508010F601C704FF0030C89F800C0BAF800301380E2
S31508010F70149A138012F03CFA169BD3ED007A854B2E
S31508010F80F8EE677AC3E90001F4EE487AF1EE10FA51
S31508010F9000F0288199F8003007EE903AF8EEE77AE2
S31508010FA0F5EE407AF1EE10FA04D1189A012389F880
S31508010FB00030137003B0BDEC088BBDE8F08F73B138
S31508010FC0002380F84B30037643768376C37603771E
S31508010FD043778377C377F0EE488AEB7182E5F0EEC3
S31508010FE0488A7FE5F2EE067AF4EE678AF1EE10FAA0
S31508010FF040F0D28094F94A30207C94F811C094F8D4
S3150801100012E0E67C257D617DA27D07EE103AE37D3F
S3150801101064E7002B3FF44CAF002384F84E3084F884
S31508011020303084F8313084F8323084F8333084F83B
S31508011030343084F8353084F8363084F83730AB727A
S3150801104036E7002B00F09680002384F84C3084F8AC
S31508011050203084F8213084F8223084F8233084F84B
S31508011060243084F8253084F8263084F82730F0EEC9
S315080110704AAA2B721DE6002B00F08280002384F811
S31508011080483023706370A370E37023716371A37191
S31508011090E371B0EE69AA2B71CDE5002B73D000235D
S315080110A084F8493023726372A372E37223736373FC
S315080110B0A373E373F0EE499A6B7183E5002B00F095
S315080110C08B80002384F84A3023746374A374E37411
S315080110D023756375A375E375B0EE689AAB7137E549
S315080110E0002B76D0002384F8503084F8403084F8F9
S315080110F0413084F8423084F8433084F8443084F827
S31508011100453084F8463084F84730F0EE4BBA2B73F5
S315080111104BE6002B63D0002384F84F3084F838302F
S3150801112084F8393084F83A3084F83B3084F83C3016
S3150801113084F83D3084F83E3084F83F30F0EE6B7A1F
S31508011140EB7285E6CBB1002384F84D3084F828305C
S3150801115084F8293084F82A3084F82B3084F82C3026
S3150801116084F82D3084F82E3084F82F30B0EE6ABA20
S315080111706B72DCE5F0EE4AAA9BE5B0EE6ABAD6E5F3
S31508011180B0EE69AA57E5F0EE499A1BE5F806002084
S3150801119060BE002088BE0020F2EE087AB4EE679A97
S315080111A0F1EE10FA29D0F2EE0A7AF4EE679AF1EE28
S315080111B010FA4DD194F94830207894F801C094F882
S315080111C002E0E67825796179A27907EE103AE379A2
S315080111D084E6F0EE4BBAE8E5B0EE689AB8E4F0EECC
S315080111E06B7A35E65D4B19990022C1E90023D1E6F0
S315080111F0D6ED007AF8EE678A74E494F94930207AD4
S3150801120094F809C094F80AE0E67A257B617BA27B0B
S3150801121007EE103AE37B61E6F8EE677A18E6D6ED53
S31508011220007AB8EE679A93E4D6ED007AF8EE67BAD3
S31508011230BBE5D6ED007AB8EE67BA78E5D6ED007A61
S31508011240F8EE67AA35E5D6ED007AF8EE679AB9E4BD
S31508011250F3EE057AB4EE67AAF1EE10FA1BD0F3EEB7
S31508011260067AF4EE67AAF1EE10FA29D194F94D300F
S3150801127094F8280094F829C094F82AE094F82B6089
S3150801128094F82C5094F82D1094F82E2007EE103A65
S3150801129094F82F3022E694F94C3094F8200094F80B
S315080112A021C094F822E094F8236094F8245094F825
S315080112B0251094F8262007EE103A94F827300DE603
S315080112C0F3EE077AB4EE67BAF1EE10FA14D194F98F
S315080112D0503094F8400094F841C094F842E094F8EC
S315080112E0436094F8445094F8451094F8462007EE64
S315080112F0103A94F84730F1E5F3EE087AF4EE67BA56
S31508011300F1EE10FA14D194F94F3094F8380094F8A4
S3150801131039C094F83AE094F83B6094F83C5094F854
S315080113203D1094F83E2007EE103A94F83F30D5E583
S3150801133094F94E3094F8300094F831C094F832E0BC
S3150801134094F8336094F8345094F8351094F83620AC
S3150801135007EE103A94F83730C0E500BF0000F03FB9
S31508011360012108B508460BF011FE0B2101200BF0EF
S315080113700DFE0C2101200BF009FE0D2101200BF0B9
S3150801138005FE152101200BF001FE162101200BF0A7
S31508011390FDFD172101200BF0F9FD182101200BF0A5
S315080113A0F5FD19210120BDE808400BF0EFBD00BF8E
S315080113B02DE9F04F2DED088B0D460968E34CE44EF7
S315080113C083B00131216029601699DDF85C900968BE
S315080113D0316007EE901AB8EE678AF7EE007AB4EE36
S315080113E0678AF1EE10FA1F4604469246EB7940F0F9
S315080113F09A820BB90123EB71DFF858830022012188
S315080114004346009208460BF0EDFD002884F84B0090
S3150801141040F3A28398F80130637698F80230A376F0
S3150801142098F80330E37698F804302377D6ED007AF6
S3150801143098F80530637798F80630A37798F8072067
S3150801144098F80030E277F8EE678A2376F2EE067AA4
S31508011450F4EE678AF1EE10FAAB7940F0E3820BB944
S315080114600123AB71DFF8F0820022434600920B217B
S3150801147001200BF0B7FD002884F84A0040F3838366
S3150801148098F80130637498F80230A37498F8033019
S31508011490E37498F804302375D6ED007A98F8053088
S315080114A0637598F80630A37598F8072098F8003000
S315080114B0E275B8EE679A2374F2EE087AB4EE679A83
S315080114C0F1EE10FA6B7940F09C820BB901236B712E
S315080114D0DFF888820022434600920C2101200BF096
S315080114E081FD002884F8490040F36183D6ED007A2E
S315080114F098F8073098F8062098F8051098F8040027
S3150801150098F803E098F802C098F801B098F80080B6
S3150801151084F809B0F8EE679A84F80AC084F80BE0F3
S3150801152020736173A273E37384F80880F2EE0A7A72
S31508011530F4EE679AF1EE10FA2B7940F050820BB966
S3150801154001232B71DFF818820022434600920D21F0
S3150801155001200BF047FD002884F848001BDD98F8A8
S3150801156001B098F802E098F8030098F800C098F8D6
S31508011570041098F8052098F8063098F8078084F83A
S31508011580078084F801B084F800C084F802E0E070AE
S3150801159021716271A371D6ED007AB8EE67AAF3EEEE
S315080115A0057AB4EE67AAF1EE10FA2B7A40F0FD81BE
S315080115B00BB901232B72DFF8AC8100224346009256
S315080115C0152101200BF00EFD002884F84C0040F38C
S315080115D0E98298F8013084F8213098F8023084F8C5
S315080115E0223098F8033084F8233098F8043084F8C8
S315080115F02430D6ED007A98F8053084F8253098F825
S31508011600063084F8263098F8072098F8003084F8D0
S315080116102720F8EE67AA84F82030F3EE067AF4EE6E
S3150801162067AAF1EE10FA6B7A40F040820BB90123F2
S315080116306B72DFF83481002243460092162101209D
S315080116400BF0D0FC002884F84D0040F3A68298F8E8
S31508011650013084F8293098F8023084F82A3098F84D
S31508011660033084F82B3098F8043084F82C30D6ED02
S31508011670007A98F8053084F82D3098F8063084F801
S315080116802E3098F8072098F8003084F82F20B8EE05
S3150801169067BA84F82830F3EE077AB4EE67BAF1EE42
S315080116A010FA2B7B40F0D0810BB901232B73DFF89D
S315080116B0BC80002243460092172101200BF092FCC0
S315080116C0002884F8500040F3638298F8013084F8C2
S315080116D0413098F8023084F8423098F8033084F89B
S315080116E0433098F8043084F84430D6ED007A98F8F7
S315080116F0053084F8453098F8063084F8463098F86D
S31508011700072098F8003084F84720F8EE67BA84F87D
S315080117104030F3EE087AF4EE67BAF1EE10FAEB7A96
S3150801172040F0AB810BB90123EB72DFF8448000224C
S3150801173043460092182101200BF054FC002884F836
S315080117404F00D6ED007A40F31B8213E0A4BE0020B9
S31508011750ACC10020A0060020A80600203007002002
S31508011760B0060020E0060020F00600200807002049
S315080117701807002098F8013084F8393098F80230B3
S3150801178084F83A3098F8033084F83B3098F80430F6
S3150801179084F83C3098F8053084F83D3098F80630DE
S315080117A084F83E3098F8072098F8003084F83F20EE
S315080117B0F8EE677A84F83830B3EE097AF4EE477AA8
S315080117C0F1EE10FAAB7A40F0D8800BB90123AB726F
S315080117D0C84D00222B460092192101200BF002FC6C
S315080117E0002884F84E0017DD6B78AA7884F8313022
S315080117F0EB7884F8322084F833302A796B7984F8C7
S315080118003420A97984F83530EA792B7884F83610AA
S3150801181084F8372084F83030F7EE007AB4EE678A18
S31508011820F1EE10FA40F0928094F94B30207E94F84C
S3150801183019C094F81AE0E67E257F617FA27F07EE3C
S31508011840103AE37F99F8004007EE904AF8EEE77AF6
S31508011850F7EE006AF4EE667AF1EE10FA15D1F8EEB3
S31508011860C77AF5EE407AF1EE10FA57D1189C4FF087
S3150801187002084FF0010B89F8008084F800B099F846
S31508011880004007EE904AF8EEE77AF0EE006AF4EEC9
S31508011890667AF1EE10FA37D1B8EEC77AB7EE008A52
S315080118A0B4EEC87AF1EE10FA38DBFB71189B87F8AB
S315080118B001C001243870BA7187F802E0FE703D71E3
S315080118C079711C70159B8C4A1C704FF0030C89F8B2
S315080118D000C0BAF800301380149A138011F088FDFD
S315080118E0169BD3ED007A854BF8EE677AC3E90001BA
S315080118F0F4EE487AF1EE10FA00F0288199F80030F2
S3150801190007EE903AF8EEE77AF5EE407AF1EE10FA3C
S3150801191004D1189A012389F80030137003B0BDEC7D
S31508011920088BBDE8F08F73B1002380F84B3003763E
S3150801193043768376C376037743778377C377F0EE67
S31508011940488AEB7182E5F0EE488A7FE5F2EE067A7F
S31508011950F4EE678AF1EE10FA40F0D28094F94A3033
S31508011960207C94F811C094F812E0E67C257D617D0F
S31508011970A27D07EE103AE37D64E7002B3FF44CAFF6
S31508011980002384F84E3084F8303084F8313084F8F6
S31508011990323084F8333084F8343084F8353084F8BA
S315080119A0363084F83730AB7236E7002B00F0968074
S315080119B0002384F84C3084F8203084F8213084F8E8
S315080119C0223084F8233084F8243084F8253084F8CA
S315080119D0263084F82730F0EE4AAA2B721DE6002B32
S315080119E000F08280002384F8483023706370A37066
S315080119F0E37023716371A371E371B0EE69AA2B7168
S31508011A00CDE5002B73D0002384F849302372637225
S31508011A10A372E37223736373A373E373F0EE499AB4
S31508011A206B7183E5002B00F08B80002384F84A3024
S31508011A3023746374A374E37423756375A375E375DB
S31508011A40B0EE689AAB7137E5002B76D0002384F89F
S31508011A50503084F8403084F8413084F8423084F8B4
S31508011A60433084F8443084F8453084F8463084F8A5
S31508011A704730F0EE4BBA2B734BE6002B63D00023AD
S31508011A8084F84F3084F8383084F8393084F83A309D
S31508011A9084F83B3084F83C3084F83D3084F83E3095
S31508011AA084F83F30F0EE6B7AEB7285E6CBB1002312
S31508011AB084F84D3084F8283084F8293084F82A309F
S31508011AC084F82B3084F82C3084F82D3084F82E30A5
S31508011AD084F82F30B0EE6ABA6B72DCE5F0EE4AAAEA
S31508011AE09BE5B0EE6ABAD6E5B0EE69AA57E5F0EE1F
S31508011AF0499A1BE5D0060020C8C10020B0C10020C4
S31508011B00F2EE087AB4EE679AF1EE10FA29D0F2EEFF
S31508011B100A7AF4EE679AF1EE10FA4DD194F9483043
S31508011B20207894F801C094F802E0E678257961797D
S31508011B30A27907EE103AE37984E6F0EE4BBAE8E5C6
S31508011B40B0EE689AB8E4F0EE6B7A35E65D4B199912
S31508011B500022C1E90023D1E6D6ED007AF8EE678ABC
S31508011B6074E494F94930207A94F809C094F80AE0A3
S31508011B70E67A257B617BA27B07EE103AE37B61E679
S31508011B80F8EE677A18E6D6ED007AB8EE679A93E426
S31508011B90D6ED007AF8EE67BABBE5D6ED007AB8EE6F
S31508011BA067BA78E5D6ED007AF8EE67AA35E5D6ED97
S31508011BB0007AF8EE679AB9E4F3EE057AB4EE67AA05
S31508011BC0F1EE10FA1BD0F3EE067AF4EE67AAF1EEFF
S31508011BD010FA29D194F94D3094F8280094F829C0BF
S31508011BE094F82AE094F82B6094F82C5094F82D1068
S31508011BF094F82E2007EE103A94F82F3022E694F93D
S31508011C004C3094F8200094F821C094F822E094F816
S31508011C10236094F8245094F8251094F8262007EEAA
S31508011C20103A94F827300DE6F3EE077AB4EE67BA60
S31508011C30F1EE10FA14D194F9503094F8400094F862
S31508011C4041C094F842E094F8436094F8445094F8FB
S31508011C50451094F8462007EE103A94F84730F1E516
S31508011C60F3EE087AF4EE67BAF1EE10FA14D194F9A4
S31508011C704F3094F8380094F839C094F83AE094F85B
S31508011C803B6094F83C5094F83D1094F83E2007EEDA
S31508011C90103A94F83F30D5E594F94E3094F830006F
S31508011CA094F831C094F832E094F8336094F83450DB
S31508011CB094F8351094F8362007EE103A94F8373030
S31508011CC0C0E500BF0000F03F2DE9F04F83B00C4698
S31508011CD00E9FDDF8348099460546324BD7E9000157
S31508011CE01646002211F048FA0123C7E9000189F8CE
S31508011CF0003023682C4A0C99013313602360D8F805
S31508011D00003007EE903AB8EE677AF7EE007AB4EE4D
S31508011D10677AF1EE10FA05D1DFF888904FF00008DE
S31508011D20C1E9008937780193384611F061FBDFF87C
S31508011D3084801E4A019B1360C8E900012B602F713C
S31508011D4096F807E085F805E096F801C085F806C01B
S31508011D5096F8028085F8078096F8039085F808902A
S31508011D6096F804A085F809A096F805B0104C85F8F0
S31508011D700AB0B079E8721946A071234608220120F3
S31508011D80277084F805B084F804A084F8039084F8D1
S31508011D90028084F801C084F807E003B0BDE8F04F7B
S31508011DA00AF0F0BE0000F03FB0BE002074BB002070
S31508011DB02807002008BE00204B780BB901234B7079
S31508011DC00B7833B100230B700370194603200CF00E
S31508011DD0E9BD01230B700370194603200CF0E2BD1F
S31508011DE02DE9F04F85B00E9D109C002800F0318139
S31508011DF0217809B9012121701F46129B18881646B8
S31508011E0011F006FB8046894602460B46304639469E
S31508011E1011F0CCFD08B100232B7042464B463046E3
S31508011E20394611F0CDFD002800F025811799AF4BF1
S31508011E300022D1E9000111F0CDFDA378002800F0B8
S31508011E402E810BB90123A370A94B3046D3E9002390
S31508011E50394611F091F9129B80461888894611F086
S31508011E60C7FA0022A34B82468B4611F085F94246F2
S31508011E704B4611F07FF900220023CDE9000111F04C
S31508011E8095FD002800F01581199B93F800A0179B72
S31508011E904FEACA1A5FFA8AFA85F805A0D3E900015A
S31508011EA011F0F4FD00015FFA80FB119B85F806B07D
S31508011EB0D3E9000111F0EAFD139B139A50445844E3
S31508011EC018702B7853702B7893702B78D3702B78E6
S31508011ED013712B7853712B7893712B78D3710F9BD0
S31508011EE0159A5B681360129B188811F081FA4246AD
S31508011EF04B4611F03FF9002200238046894611F02E
S31508011F0055FD002840F0D2807B4BD3E900AB002277
S31508011F1000235046594611F049FD002840F0E28059
S31508011F2052465B4640464946FEF7EEF80023002234
S31508011F3011F03CFD4FF0010300B90346DBB2AB706B
S31508011F4018996A4B0022D1E9000111F043FD0028D6
S31508011F5000F09C8063780BB901236370674B3046A8
S31508011F60D3E90023394611F007F9129B064618886A
S31508011F700F4611F03DFA00225E4B8046894611F064
S31508011F80FBF832463B4611F0F5F80022002382465B
S31508011F908B4611F00BFD002800F0B480199B1878C8
S31508011FA0189BC0015FFA80F885F80380D3E9000120
S31508011FB011F06CFD0001C4B2119B2C71D3E900012B
S31508011FC011F064FD149B149A2044404418702B7830
S31508011FD053702B7893702B78D3702B7813712B78D9
S31508011FE053712B7893712B78D3710F9B169A1B68B3
S31508011FF01360129B188811F0FBF932463B4611F023
S31508012000B9F8002200238046894611F0CFFC002842
S3150801201040F092803A4BD3E900670022002330460C
S31508012020394611F0C3FC002840F0838032463B460E
S3150801203040464946FEF768F80023002211F0B6FC2F
S315080120404FF0010300B90346DBB26B7005B0BDE87A
S31508012050F08F2378002BF9D0A3780BB1A870A07064
S3150801206063780BB1002363700023AB706B70237028
S3150801207005B0BDE8F08FA378A3B942464B46304672
S31508012080394611F09DFC00287FF45AAF6378002B7E
S31508012090DCD000236B70637005B0BDE8F08F002BB0
S315080120A03FF44EAF0023AB70A370E6E70123AB7094
S315080120B046E7114B93ED007B0022002351EC170BE9
S315080120C08DED027B11F072FC00284AD042464B4640
S315080120D05046594611F04EF80022002311F066FCCD
S315080120E00028E3D10023AB702AE700BF00001C409B
S315080120F0300000200000F03F500000207000002052
S3150801210058000020204B93ED007B0022002351EC60
S31508012110170B8DED007B11F049FC80B132463B4629
S315080121204046494611F026F80022002311F03EFCEC
S3150801213010B900236B7089E701236B7086E7DDE927
S31508012140002350465946FDF7DFFF0022002311F010
S315080121502DFC00287FF422AF129B188811F048F94C
S315080121604BE7DDE90223DDE90001FDF7CDFF00229A
S31508012170002311F01BFC00287FF486AE129B1888F9
S3150801218011F036F9B3E600BF580000200B791BB1F0
S315080121900023C37103720B714B7843B1CB7813B12A
S315080121A000238370CB708B7843B900234B700023CF
S315080121B08370C371437003720B70704700238B7071
S315080121C0F3E700BF2DE9F04F9BB016462F9A1392FD
S315080121D0309A1492319A1592329A16921F46339A68
S315080121E0299B10930B922B9B349A0A930C922C9B46
S315080121F0359A11930D922D9B369A129326AC249DEE
S31508012200DDF89480DDF8A8B02E9B0E9294E81006AE
S31508012210379A0F92389A1792002840D022780AB92D
S3150801222001222270CDE91867D3E900670022304BF5
S315080122303046394611F0BAFB4FF0010E002833D06B
S315080122403046394600222A4B5FFA8EF611F0AEFB6C
S31508012250002832D023791BB10023EB712B7223712D
S315080122600F9B2F930E9B2E930D9B2D930C9B2C93BB
S315080122700B9B2B930A9B2A93DDE9182301343046DD
S315080122802694CDF8A4B0CDF8A0A0CDF89C90CDF8B1
S31508012290948024951BB0BDE8F04FFFF7A1BD2378C4
S315080122A023B91BB0BDE8F08F8646C9E72146284603
S315080122B01BB0BDE8F04FFFF769BF179A0992169A46
S315080122C00892159A0792149A0692139A0592129AE7
S315080122D00492119A0392231D109A02928DE808041A
S315080122E0EA1D08F10803DDE91801FDF7A7FEB7E7BE
S315080122F00000F03F2DE9F04F85B00E9D109C002897
S3150801230000F03481217809B9012121701F46129BF9
S315080123101888164611F07CF88046894602460B460F
S315080123203046394611F042FB20B100232B70159B2C
S315080123301B786B7042464B463046394611F040FBD6
S31508012340002800F025811899AE4B0022D1E9000139
S3150801235011F040FBA378002800F02E810BB9012368
S31508012360A370A94B3046D3E90023394610F004FF80
S31508012370129B80461888894611F03AF80022A34B29
S3150801238082468B4610F0F8FE42464B4610F0F2FEA6
S3150801239000220023CDE9000111F008FB002800F016
S315080123A015811A9B93F800A0189B4FEACA1A5FFA7F
S315080123B08AFA85F806A0D3E9000111F067FB000146
S315080123C05FFA80FB119B85F807B0D3E9000111F08C
S315080123D05DFB139B139A5044584418706B785370DD
S315080123E02B7893702B78D3702B7813712B785371C4
S315080123F02B7893712B78D3710F9B169A5B681360B0
S31508012400129B188810F0F4FF42464B4610F0B2FEB4
S31508012410002200238046894611F0C8FA002840F0B8
S31508012420D2807B4BD3E900AB0022002350465946A4
S3150801243011F0BCFA002840F0E28052465B4640465D
S315080124404946FDF761FE0023002211F0AFFA4FF06D
S31508012450010300B90346DBB2EB701999694B0022F7
S31508012460D1E9000111F0B6FA002800F09C806378E2
S315080124700BB901236370674B3046D3E9002339460C
S3150801248010F07AFE129B064618880F4610F0B0FF28
S3150801249000225E4B8046894610F06EFE32463B4668
S315080124A010F068FE0022002382468B4611F07EFA60
S315080124B0002800F0B3801A9B1878199BC0015FFAAF
S315080124C080F885F80480D3E9000111F0DFFA0001EC
S315080124D0C4B2119B6C71D3E9000111F0D7FA149BB0
S315080124E0149A2044404418706B7853702B78937073
S315080124F02B78D3702B7813712B7853712B789371B2
S315080125002B78D3710F9B179A1B681360129B188837
S3150801251010F06EFF32463B4610F02CFE00220023D7
S315080125208046894611F042FA002840F091803A4BDC
S31508012530D3E90067002200233046394611F036FAFE
S31508012540002840F0828032463B4640464946FDF720
S31508012550DBFD0023002211F029FA4FF0010300B92F
S315080125600346DBB2AB7005B0BDE8F08F2378002BCC
S31508012570F9D0A3780BB1E870A07063780BB100238A
S3150801258063700023EB70AB70237005B0BDE8F08F64
S31508012590A378A3B942464B463046394611F010FA9C
S315080125A000287FF45AAF6378002BDCD00023AB7088
S315080125B0637005B0BDE8F08F002B3FF44EAF0023E2
S315080125C0EB70A370E6E70123EB7046E7104B93ED3A
S315080125D0007B0022002351EC170B8DED027B11F0D5
S315080125E0E5F9002849D042464B465046594610F06F
S315080125F0C1FD0022002311F0D9F90028E3D10023F7
S31508012600EB702AE700001C40300000200000F03F74
S31508012610500000207000002058000020204B93ED48
S31508012620007B0022002351EC170B8DED007B11F086
S31508012630BDF980B132463B464046494610F09AFDFF
S315080126400022002311F0B2F910B90023AB708AE712
S315080126500123AB7087E7DDE9002350465946FDF7AC
S3150801266053FD0022002311F0A1F900287FF423AFBE
S31508012670129B188810F0BCFE4CE7DDE90223DDE960
S315080126800001FDF741FD0022002311F08FF9002812
S315080126907FF487AE129B188810F0AAFEB4E600BF35
S315080126A058000020F0B585B00EAC70CC002830D0AB
S315080126B0287808B9012028701846174600295FD1DD
S315080126C0AB78002B4DD1002F4FD16B78002B45D11C
S315080126D0A37D002B2DD0637D3370A37B7370E37BC1
S315080126E0B370237CF370637C3371A37C7371E37CD1
S315080126F0B371237DF371A37D002B2DD1237A00338A
S3150801270018BF012313990B70119B01221A7005B08A
S31508012710F0BD2B78002BFAD0AB780BB1A075A87059
S315080127206B7813B1002323726B7000232B7005B0ED
S31508012730F0BDE3793370237873706378B370A37847
S31508012740F370E3783371237973716379B371A3797C
S31508012750F371A37D002BD1D00123D3E727726F70C4
S31508012760B6E7A175A970002FAFD0129B0293013568
S3150801277001950094DDE90C230A98FDF76BFEA7E79E
S3150801278004F10E02129B0293A91C00920191DDE944
S315080127900C23FDF70DFE96E7F0B587B012AC70CCA9
S315080127A0002830D0287808B901202870184617461D
S315080127B0002963D1AB78002B4DD1002F4FD16B780F
S315080127C0002B45D1A37D002B2DD0637D3370A37BD0
S315080127D07370E37BB370237CF370637C3371A37CE2
S315080127E07371E37CB371237DF371A37D002B2DD126
S315080127F0237A003318BF012317990B70159B012201
S315080128001A7007B0F0BD2B78002BFAD0AB780BB154
S31508012810A075A8706B7813B1002323726B7000231F
S315080128202B7007B0F0BDE379337023787370637842
S31508012830B370A378F370E37833712379737163798D
S31508012840B371A379F371A37D002BD1D00123D3E70B
S3150801285027726F70B6E7A175A970002FAFD09DEDED
S31508012860107B169B04930135039502948DED007B2D
S31508012870DDE90E230C98FDF73DFDA3E79DED107BE1
S3150801288004F10E02169B0493A91C02928DED007B9E
S315080128900391DDE90E23FDF7CFFC8EE738B521F06C
S315080128A000430D4600221946154B044611F088F8D7
S315080128B0C8B10022134B2046294611F095F8A8B94C
S315080128C00022114B2046294611F098F848B92046AE
S315080128D029460C4B002210F04DFCBDE8384010F09B
S315080128E0A3B9002400252046294638BD2046294695
S315080128F0044B002210F040FCBDE8384010F01CBA29
S31508012900000030430000E03F0000E0BF38B505464F
S315080129100021022001240CF013F885F80941FEF77D
S315080129206BF8FEF71DFD002108460CF009F8204654
S3150801293000210CF005F8002110200CF001F8002107
S3150801294004200BF0FDFF002112200BF0F9FF0021F6
S3150801295013200BF0F5FF00210E200BF0F1FF0021EB
S315080129600F200BF0EDFF00210320BDE838400BF0E6
S31508012970E7BF00BF000000002DE9F04F2DED088BE1
S315080129809146ADF5257D92F84C21DDF8D88216934E
S3150801299083468A4612B9012389F84C3199F80831D8
S315080129A0002B00F0CD85002389F8083119468BF8EC
S315080129B0393002200BF0F6FF99F80931002B00F0A7
S315080129C0878099F8483113B9012389F84831BE9BA4
S315080129D01B78002B40F00587BF9B1E78003618BF71
S315080129E00126169BD3E900450022354B2046294688
S315080129F010F0DCFF48B900224FF0804320462946F3
S31508012A0010F0D4FF002800F0A18799F81F31002B98
S31508012A1000F0AE8799F84931002B00F0B187002EF6
S31508012A2041F00A8599F81F319BB1254BB7990022C8
S31508012A30C1E90023BAF8C031A8F800309AF8C531BF
S31508012A4089F8023199F81F311BB11D4B0022C9E9DA
S31508012A500623BE9B1A4900241C70BF9B002600272B
S31508012A6000201C70C9E93267CBE900012346D9E980
S31508012A70324589F809312046124B2946002210F0C1
S31508012A80B3FF4FF0010300B9034689F81F3100224D
S31508012A900C4B2046294610F0A7FF002803F0DF87D4
S31508012AA0094B0022C9E93223054B0022C9E9102343
S31508012AB0C9E90823C9E90E23C9E90A2315E000BFB4
S31508012AC00000F03F004087400000F0BF0000BA4315
S31508012AD099F84821002A00F0458599F84921002AE4
S31508012AE041F07784002389F84831B8F800301FEDA2
S31508012AF0097A07EE903AF8EEE77AF4EE477AF1EEBC
S31508012B0010FA14D10023A8F8003099F8024120469A
S31508012B1010F07EFCDAE96C2310F052FF002801F070
S31508012B20ED830134474BE4B21C7089F8024199F8E8
S31508012B300931002B00F0248599F82031002B00F08B
S31508012B40F38299F82A31002B00F0488299F83B3133
S31508012B50002B00F0088199F83F31C3B199F840314B
S31508012B6093B199F87F3123B100238BF8933189F812
S31508012B707F3199F87E3123B100238BF8853189F8A5
S31508012B807E31002389F84031002389F83F3199F8CD
S31508012B903E31C3B199F87B3193B199F87D3123B1AF
S31508012BA000238BF8773189F87D3199F87C3123B187
S31508012BB000238BF8693189F87C31002389F87B3148
S31508012BC0002389F83E3199F83D31C3B199F8783136
S31508012BD093B199F87A3123B100238BF85B3189F8DF
S31508012BE07A3199F8793123B100238BF84D3189F877
S31508012BF07931002389F87831002389F83D3199F82C
S31508012C003C31C3B199F8753193B199F8773123B14C
S31508012C1000238BF83F3189F8773199F8763123B15A
S31508012C2000238BF8313189F87631002389F875311B
S31508012C30002389F83C3199F88C31002B44F0AE8792
S31508012C4002E000BF22BE002099F8433143B399F848
S31508012C508B3133B100238BF8B5318BF8B63189F84E
S31508012C608B3199F8883183B199F88A3123B10023D8
S31508012C708BF8B03189F88A3199F8893113B1002373
S31508012C8089F88931002389F8883100238BF8B03116
S31508012C908BF8B5318BF8AF318BF8B63189F84331FA
S31508012CA099F8423143B399F8873133B100238BF848
S31508012CB0AB318BF8AC3189F8873199F8843183B116
S31508012CC099F8863123B100238BF8A63189F8863124
S31508012CD099F8853113B1002389F88531002389F8DC
S31508012CE0843100238BF8A6318BF8AB318BF8A531EB
S31508012CF08BF8AC3189F8423199F8413143B399F8E7
S31508012D00833133B100238BF8A1318BF8A23189F8CD
S31508012D10833199F8803183B199F8823123B100233F
S31508012D208BF89C3189F8823199F8813113B10023E6
S31508012D3089F88131002389F8803100238BF89C3189
S31508012D408BF8A1318BF89B318BF8A23189F8413187
S31508012D5000238BF82F308BF832308BF830308BF814
S31508012D60313089F83B3199F82B31002B00F02B8152
S31508012D7099F83131C3B199F8673193B199F8693145
S31508012D8023B100238BF8013189F8693199F8683143
S31508012D9023B100238BF8F33089F86831002389F8C9
S31508012DA06731002389F8313199F82F31C3B199F880
S31508012DB0303193B199F8663123B100238BF8E530A8
S31508012DC089F8663199F8653123B100238BF8D73034
S31508012DD089F86531002389F83031002389F82F31C4
S31508012DE099F82D31C3B199F82E3193B199F8643117
S31508012DF023B100238BF8C33089F8643199F863311C
S31508012E0023B100238BF8B53089F86331002389F89B
S31508012E102E31002389F82D3199F82C31C3B199F84F
S31508012E20603193B199F8623123B100238BF8A73049
S31508012E3089F8623199F8613123B100238BF8993009
S31508012E4089F86131002389F86031002389F82C312A
S31508012E5099F8393143B399F8743133B100238BF8B2
S31508012E6027318BF8283189F8743199F83A3183B1C9
S31508012E7099F8733123B100238BF8243189F873311A
S31508012E8099F8723113B1002389F87231002389F850
S31508012E903A3100238BF824318BF827318BF821310D
S31508012EA08BF8283189F8393199F8383143B399F8CB
S31508012EB0713133B100238BF81C318BF81D3189F838
S31508012EC0713199F86E3183B199F8703123B10023C4
S31508012ED08BF8173189F8703199F86F3113B10023DE
S31508012EE089F86F31002389F86E3100238BF8173181
S31508012EF08BF81C318BF816318BF81D3189F838316E
S31508012F0099F8363143B399F86D3133B100238BF80B
S31508012F1013318BF8143189F86D3199F8373183B14A
S31508012F2099F86C3123B100238BF8103189F86C318B
S31508012F3099F86B3113B1002389F86B31002389F8AD
S31508012F40373100238BF810318BF813318BF80D319B
S31508012F508BF8143189F8363199F8323143B399F837
S31508012F606A3133B100238BF80B318BF80C3189F8B0
S31508012F706A3199F8333183B199F8353123B1002390
S31508012F808BF82E3089F8353199F8343113B100238D
S31508012F9089F83431002389F8333100238BF82E3030
S31508012FA08BF80B318BF82D308BF80C3189F83231CF
S31508012FB000238BF829308BF82A308BF82B308BF8C5
S31508012FC02C3089F82B3100238BF825308BF82630E5
S31508012FD08BF827308BF8283089F82A3199F821316E
S31508012FE0002B00F0968099F827315BB399F82831C0
S31508012FF0C3B199F8293193B199F85A3123B100230C
S315080130008BF8823089F85A3199F8593123B100235E
S315080130108BF8743089F85931002389F8293100234E
S3150801302089F8283199F85B31002B44F0878500230C
S315080130308BF88A308BF889308BF88F308BF8903083
S3150801304089F8273199F82231002B57D099F823317D
S31508013050C3B199F8243193B199F8503123B10023BA
S315080130608BF8523089F8503199F84F3123B1002342
S315080130708BF8443089F84F31002389F8243100232D
S3150801308089F8233199F8253143B399F8583133B181
S3150801309000238BF86A308BF86B3089F8583199F828
S315080130A0263183B199F8573123B100238BF867305C
S315080130B089F8573199F8563113B1002389F85631F1
S315080130C0002389F8263100238BF867308BF86A309C
S315080130D08BF864308BF86B3089F8253199F85131C2
S315080130E0002B44F0338500238BF821308BF82430EC
S315080130F08BF823308BF8223089F8223100238BF89C
S315080131001D308BF81E308BF81F308BF8203089F86C
S31508013110213100238BF819308BF81A308BF81B30C4
S315080131208BF81C3089F820319BF81B30002B40F0B6
S31508013130FC8399F80941003418BF012499F8F8303D
S31508013140DE0600F1DE8343F0100389F8F8309BF8B8
S315080131501930002B40F0DA8399F8F8301D0700F191
S31508013160B68399F8F83043F0080389F8F830002C4B
S3150801317040F0B083DBB299F80921002A40F0348384
S315080131809BF81C20002A40F02F835A0705D499F88A
S31508013190F83043F0040389F8F83098075CBF43F028
S315080131A0020389F8F8309BF81A30002B40F0BF83E8
S315080131B0C49B1B78002B00F0318399F84E3113B963
S315080131C0012389F84E3199F80E31002B01F0A180BF
S315080131D0002389F80E31C49B0020187099F80E1146
S315080131E08BF83B10002941F08F8008460BF0DAFB7B
S315080131F099F80A31002B00F01D8399F84D3113B95E
S31508013200012389F84D3199F80F31002B00F0C0835D
S31508013210002389F80F3189F80A3119468BF83A30B3
S3150801322001200BF0BFFB99F80B31002B00F00E8340
S3150801323099F84A3113B9012389F84A3199F81131B4
S31508013240002B01F07580002389F8113189F80B31BB
S3150801325019468BF8373010200BF0A4FB99F84B313F
S3150801326013B9012389F84B3199F81031002B00F075
S315080132702583002389F8103119468BF83830042044
S315080132800BF090FBC59900230022D1E9000110F04B
S315080132908DFB99F84731002840F0098313B90123BA
S315080132A089F8473199F80531002B01F03C80002354
S315080132B089F805318BF83630C59B00210020C3E912
S315080132C000019BF8361001B1012112200BF06AFBAF
S315080132D0C69900230022D1E9000110F067FB99F88D
S315080132E04631002840F0DC8213B9012389F84631BA
S315080132F099F80431002B01F01180002389F8043173
S315080133008BF83530C69B00210020C3E900019BF8E4
S31508013310351001B1012113200BF044FBC799002395
S315080133200022D1E9000110F041FB99F84531002846
S3150801333040F0948213B9012389F8453199F8073188
S31508013340002B01F00280002389F807318BF834300D
S31508013350C79B00210020C3E900019BF8341001B185
S3150801336001210E200BF01EFBC89900230022D1E98A
S31508013370000110F01BFB99F84431002840F0A082A7
S3150801338013B9012389F8443199F80631002B00F065
S31508013390F487002389F806318BF83330C89B00215E
S315080133A00020C3E900019BF8331001B101210F2068
S315080133B00BF0F8FA99F81231002B00F0AD8099F864
S315080133C0023107EE903AF8EEE77AF5EE407AF1EE39
S315080133D010FA40F0BF8714230DF5A87AA0225C499C
S315080133E0C9F8E430C9F8E830504610F075FBA02258
S315080133F058497CA810F070FBB8F800301693DAE942
S315080134000045184610F004F822462B46CDE9180166
S3150801341010F0F4FA002804F02D84CDF86890CDF860
S31508013420D882DDE918894C4F002600224A4B3046DE
S3150801343039460FF0A1FE0F46064610F0FFFA0AEBD1
S31508013440C00050E9024542464B462046294610F03F
S31508013450B7FA0028E9D100223F4BDDF86890DDF87C
S31508013460D882304639460FF085FE10F0E7FA013862
S31508013470C600A4AB334453E928010022002310F007
S3150801348095FA0746002840F08E8216980FF0B0FF8D
S3150801349002460B4620462946CDE916230FF06AFE59
S315080134A0FFF7FCF900222D4B04460D4610F088FA69
S315080134B0002840F0968724A3D3E900234FF6FE7728
S315080134C0D9E90C452046294610F08EFA002803F062
S315080134D0D08238460FF08CFF06460F4622462B4609
S315080134E0304639460FF046FE0023002204460D46B3
S315080134F010F084FA4FF0010300B9034689F8123136
S315080135003046DDE9162339460FF036FE10F0BEFACD
S31508013510A8F80000C9E90C4599F8F830D9075CBF45
S3150801352043F0010389F8F83009F291110BF5E170BE
S31508013530FEF742FC0DF5257DBDEC088BBDE8F08F45
S315080135400123FFF731BA00BF00000000C0FFEF40BA
S3150801355000C0000830C100080000F03F0000F0403C
S315080135600000BA43B8F800301FED037A07EE903A27
S31508013570F8EEE77AF4EE477AF1EE10FA3FF4C2AACA
S3150801358099F8203113B9012389F8203199ED107B77
S315080135908DED1A7B99ED0E7BDDE91A018DED187B10
S315080135A0B54EB64FB64B9DED187BC6E90001B54E33
S315080135B0D9E9084586ED007B99ED0A7B0022C7E922
S315080135C000458DED1C7B10F0F1F90022AC4B00286B
S315080135D000F044832046294610F0E8F90022A84B5A
S315080135E0002800F0E286DDE9180110F0DFF900286D
S315080135F000F0B9879FED9E7B8DED1C7B9DED187BB9
S31508013600A0499F4B81ED007B9DED1C7B9E4981ED79
S31508013610007B99490022C1E90023C7E900451699AB
S31508013620D1E900673046394610F0C0F9002800F0A4
S31508013630778399F82A3113B9012389F82A3199F838
S31508013640023108EE903AF8EEE88A99F83B31F5EE40
S31508013650408AF1EE10FA43F0478413B9012389F839
S315080136603B31B8F800709FED899A07EE907AB8EE6B
S31508013670E78AB4EEC98AF1EE10FAC0F29D87384698
S315080136800FF0C6FEDAE94A2310F09AF9002800F08D
S315080136909387B4EE498AF1EE10FA40F08D87169BAE
S315080136A0D3E900450022764B2046294610F07EF9DB
S315080136B0002844F0FD8599F81931002B05F0598247
S315080136C01A902046294600224FF0804310F06EF9E1
S315080136D00026002806F09D8499F81831002B44F03D
S315080136E00086674BD9E9200100220FF045FDC9E99B
S315080136F0200101231C9399F80C51002D45F04882AD
S31508013700B79B93ED007B0022614B51EC170B8DEDB6
S31508013710187B10F04BF9002805F0458616995C4B85
S315080137200022D1E9000110F041F9002805F0DD83F6
S315080137302C461E952B461A9A002A45F00C82002E15
S3150801374045F006821C9A002A45F00282002B45F0B4
S31508013750FF81002C45F0FC819DF878304D4A89F8A7
S315080137600A31D9E92C01C2E90001C9E92C01002E67
S3150801377005F01A82424B0022D9E92E010FF0FCFC12
S31508013780454BC3E900011C9BC9E92E01002B05F035
S3150801379004823B4B0022D9E930010FF0EDFC3F4B87
S315080137A0C3E90001C9E9300185B9169BB799D3E97F
S315080137B00023D1E9000110F0F9F838B9D9E9220155
S315080137C000222F4B0FF0D8FCC9E92201C49A012324
S315080137D01370B8F8006007EE906AB8EEE79A00F041
S315080137E0EEBE0126FFF7FDB85B0743F1FD81C79BD6
S315080137F00593C49B0493C39B0393C19B0293BF9BED
S315080138000193BB9B0093B99B424609F5CC710BF515
S31508013810E870FDF7CDFD99F8F830BEE499F84E2128
S31508013820002A3FF4E5AC89F84E3199F80A31002BA4
S315080138307FF4E3AC99F84D21002A3FF4F4AC89F8FA
S315080138404D3199F80B31002B7FF4F2AC99F84A21E6
S31508013850002A3FF403AD89F84A31FFE4002B3FF40F
S3150801386083AD002389F845317EE500BFAFF30080BB
S31508013870000000000000000090C10020D0C1002017
S315080138800000F03F30BE002080C100200000B24396
S315080138900000084000BE0020D8BE002058BE002007
S315080138A0002B3FF43BAD002389F8463136E5002B62
S315080138B03FF40EAD002389F8473109E50123D9E420
S315080138C0002B3FF477AD002389F8443172E5002CCB
S315080138D03FF451ACC59B0593C49B0493C29B0393C8
S315080138E0C09B0293BE9B0193BA9B00934246B89B29
S315080138F009F5D4710BF22120FDF7A6F899F8F830ED
S3150801390039E49BF81920002A3FF428ACCB9B029393
S31508013910C99B0193C69B0093BC9AC49B09F5DC71AC
S315080139200BF51D70FCF7F0FF16E4012406E4CC9BA9
S315080139300293CA9B0193C89B0093BD9AC49B09F540
S31508013940CA710BF5E270FEF7BFF931E40022BC4BF0
S315080139502046294610F02AF800287FF456A8204662
S3150801396029460022B74B10F021F800287FF44DA80C
S31508013970002E00F0078599F84931002B40F05C8547
S31508013980012389F84931002E3FF44CA800F054BDB3
S31508013990012189F80A3189F80F1108468BF83A107E
S315080139A00BF000F83FE416980FF022FDB244DAE96D
S315080139B00023CDE916010FF0DDFBFEF76FFF0022AC
S315080139C0A14B04460D460FF0FBFF002840F01F856A
S315080139D09FED997B8DED187B4FF6FF731A939B4BE1
S315080139E0D3E90067DDE9180132463B460FF0C2FB11
S315080139F0FEF754FF0022944B04460D460FF0E0FFF4
S31508013A00002803F0378400220023204629460FF0B8
S31508013A10EBFF002804F058812046294610F036F8B5
S31508013A2080B20FF0E5FC8A4BD3E9004522462B46C6
S31508013A300FF07EFEFEF732FF0022834BCDE91C0113
S31508013A400FF0BEFF002803F0108400220023DDE9F1
S31508013A501C010FF0C9FF002804F04581DDE91C01AE
S31508013A6010F014F880B20130B0F5803F03F0FD8301
S31508013A700FF0BEFC02460B46204629460FF02EFDE6
S31508013A80FEF70CFF0022704B04460D460FF098FF17
S31508013A90002803F0E58300220023204629460FF07B
S31508013AA0A3FF002804F01B81294620460FF0EEFFEC
S31508013AB080B20FF09DFC02460B46304639460FF0A0
S31508013AC05BFBFEF7EBFE00225F4B04460D460FF04B
S31508013AD077FF002803F0C0830022002320462946E9
S31508013AE00FF082FF002804F0F780204629460FF0E0
S31508013AF0CDFF1FFA80FA574BD3E90045DDE91801D6
S31508013B0022462B460FF036FBFEF7C8FE00224E4B27
S31508013B1006460F460FF054FF002803F0B58300222E
S31508013B200023304639460FF05FFF002804F0D080A5
S31508013B30304639460FF0AAFF80B20FF059FC464BC2
S31508013B40D3E9006732463B460FF0F2FDFEF7A6FEC3
S31508013B5000223D4BCDE918010FF032FF002803F092
S31508013B608E8300220023DDE918010FF03DFF0028AE
S31508013B7004F09B80DDE918010FF088FF80B201305F
S31508013B80B0F5803F03F07B830FF032FC02460B460B
S31508013B90304639460FF0A2FCFEF780FE00222A4B7A
S31508013BA006460F460FF00CFF002803F07283002229
S31508013BB00023304639460FF017FF002804F07180BC
S31508013BC0394630460FF062FF80B20FF011FC02460B
S31508013BD00B46204629460FF0CFFAFEF75FFE002274
S31508013BE0194B04460D460FF0EBFE002803F030830F
S31508013BF000220023204629460FF0F6FE002804F08D
S31508013C004D80204629460FF041FF80B2824528BFE4
S31508013C1082461A9BC3EB0A03534502F2F987981E9B
S31508013C208342C2F0F58780B207460FF0F1FB0246E0
S31508013C300B4645E4AFF3008000000000E0FFEF40CB
S31508013C4000000840000010400000F040300000204D
S31508013C505000002070000020580000202046294608
S31508013C600FF0A4FE88B10022294BDDE918010FF0F7
S31508013C709DFE50B10022264BDDE91C010FF096FE90
S31508013C8018B19FED217B8DED1A7B9DED1A7B214B9A
S31508013C9083ED007B9DED187B1F4B83ED007B9DED2E
S31508013CA01C7B1E4BC7E9004583ED007B169BD3E9B8
S31508013CB000670022164B304639460FF077FE78B377
S31508013CC0DDE91A01002200230FF070FE00283FF4F7
S31508013CD0B0AC99F82A31002B3AD199F82121002A5A
S31508013CE043F094869BF81D209BF81E109BF81F3005
S31508013CF08BF819209BF820208BF81A108BF81B30AB
S31508013D008BF81C20FFF712BA000000000000000023
S31508013D100000F03F90C1002030BE002080C1002085
S31508013D2000224FF08043304639460FF03FFE002807
S31508013D3000F0E08320462946002200230FF036FED4
S31508013D4000283FF476AC99F82A31002B00F044821A
S31508013D5099F83B31002B00F0048199F83F31C3B142
S31508013D6099F8403193B199F87F3123B100238BF843
S31508013D70933189F87F3199F87E3123B100238BF885
S31508013D80853189F87E31002389F84031002389F885
S31508013D903F3199F83E31C3B199F87B3193B199F81E
S31508013DA07D3123B100238BF8773189F87D3199F874
S31508013DB07C3123B100238BF8693189F87C310023E2
S31508013DC089F87B31002389F83E3199F83D31C3B131
S31508013DD099F8783193B199F87A3123B100238BF8A0
S31508013DE05B3189F87A3199F8793123B100238BF857
S31508013DF04D3189F87931002389F87831002389F81A
S31508013E003D3199F83C31C3B199F8753193B199F8B7
S31508013E10773123B100238BF83F3189F8773199F847
S31508013E20763123B100238BF8313189F876310023B5
S31508013E3089F87531002389F83C3199F88C31002BC2
S31508013E4043F0C48699F8433143B399F88B3133B1BA
S31508013E5000238BF8B5318BF8B63189F88B3199F88F
S31508013E60883183B199F88A3123B100238BF8B031AF
S31508013E7089F88A3199F8893113B1002389F889318A
