S02300002E2E2F48414E636F6465725F453430375F5454415F47726F7570322E737265636D
S3150800400014D700200D8302080000000000000000FD
S315080040100000000000000000000000000000000092
S31508004020000000000000000000000000FD5002082B
S31508004030000000000000000099510208E95102083A
S315080040400000000000000000000000000000000062
S315080040500000000000000000000000000000000052
S3150800406000000000D95E0208000000000000000001
S315080040700000000000000000000000000000000032
S3150800408000000000000000000000000025450208AE
S31508004090DD440208014502084945020800000000FF
S315080040A0C55E0208B15E02089D5E02088D5E0208C2
S315080040B0795E0208655E0208515E0208000000008B
S315080040C000000000000000000000000000000000E2
S315080040D000000000DD680208F56802080D6902089C
S315080040E00000000000000000D5690208000000007A
S315080040F03D5E0208295E0208195E020800000000FB
S31508004100000000003D6902080000000000000000F1
S315080041100000000000000000000000000000000091
S3150800412000000000000000000000000041690208CD
S3150800413000000000095F020800000000B5450208FB
S315080041406D45020891450208D9450208056A020824
S3150800415000000000000000000000000025690208B9
S315080041600000000000000000000000000000000041
S315080041700000000000000000000000000000000031
S311080041800000000000000000EE11AA5527
S3150800C0000000000000000000000000000000494099
S3150800C010000000000080514000000000000052406F
S3150800C0200000000000805640000000000000574055
S3150800C0300000000000805B40000000000000644033
S3150800C0400000000000806640000000000000694013
S3150800C0500000000000406F400000000000806F40B4
S3150800C0600000000000E07040000000000020724060
S3150800C0700000000000407540000000000080764087
S3150800C0800000000000C077400000000000E07A4091
S3150800C0900000000000207C400000000000607D4099
S3150800C0A00000000000A07E400000000000E07F4085
S3150800C0B00000000000908040000000000000000022
S3150800C0C000000000000049400000000000805140C8
S3150800C0D000000000000052400000000000805640AA
S3150800C0E000000000008061400000000000C06140C0
S3150800C0F000000000000064400000000000406A40A4
S3150800C1000000000000806A400000000000C06C408B
S3150800C1100000000000406F400000000000E0704092
S3150800C1200000000000007440000000000020744079
S3150800C13000000000004075400000000000807640C6
S3150800C1400000000000A079400000000000E07A40EE
S3150800C1500000000000F07A400000000000107B405C
S3150800C1600000000000207C400000000000407F40E6
S3150800C1700000000000607F40000000000040804092
S3150800C1800000000000D081400000000000E081406F
S3150800C190000000000070824000000000008082401D
S3150800C1A00000000000000000000000000000F03F52
S3150800C1B0000000000000F03F000000000000F03F13
S3150800C1C0000000000000F03F000000000000F03F03
S3150800C1D00000000000000000000000000000F03F22
S3150800C1E0000000000000F03F000000000000000012
S3150800C1F0000000000000F03F000000000000F03FD3
S3150800C200000000000000F03F0000000000000000F1
S3150800C210000000000000F03F000000000000F03FB2
S3150800C2200000000000000000000000000000F03FD1
S3150800C230000000000000F03F000000000000F03F92
S3150800C240000000000000F03F000000000000F03F82
S3150800C250000000000000F03F0000000000000000A1
S3150800C260000000000000F03F000000000000F03F62
S3150800C270000000000000F03F000000000000000081
S3150800C280000000000000F03F000000000000F03F42
S3150800C2900000000000000000000000000000F03F61
S3150800C2A0000000000000F03F000000000000F03F22
S3150800C2B0000000000000F03F000000000000000041
S3150800C2C0000000000000F03F000000000000F03F02
S3150800C2D0000000000000F03F000000000000000021
S3150800C2E0000000000000F03F000000000000F03FE2
S3150800C2F0000000000000F03F000000000000F03FD2
S3150800C3000000000000000000000000000000F03FF0
S3150800C310000000000000F03F0000000000000000E0
S3150800C320000000000000F03F000000000000F03FA1
S3150800C330000000000000F03F000000000000F03F91
S3150800C34000000101010001000101000000010001D7
S3150800C35000000000001083400000000000408040FC
S3150800C3600000000000C06C40000000000080514042
S3150800C3700000000000805640000000000000494010
S3150800C3800000000000407F400000000000406A40B6
S3150800C390000000002DB2BD3F000000000000304044
S3150800C3A0000000000000B03F000000000000304020
S3150800C3B0000000000000B03F000000000000304010
S3150800C3C0000000000000B03F000000000000304000
S3150800C3D0000000000000B03F000000000000C03F61
S3150800C3E00000000000002040000000000000C03FE0
S3150800C3F00000000000002040000000000000C03FD0
S3150800C4000000000000002040000000000000C03FBF
S3150800C41000000000000020400000000000E070401E
S3150800C420000000000090804000000000008051409D
S3150800C43000000000008056400000000000806640B2
S3150800C44000000000000049400000000000C06C40E9
S3150800C4500000000000108340000000000000644057
S3150800C4600000000000805140000000000080564097
S3150800C4700000000000004940000000000080614004
S3150800C480000000000000903F00000000000050403F
S3150800C490000000000000C03F00000000000020402F
S3150800C4A0000000000000903F00000000000050401F
S3150800C4B00000000000805B40000000000090804003
S3150800C4C00000000000805140000000000080564037
S3150800C4D000000000000049400000000000207240F3
S3150800C4E00000000000406F400000000000E07040BF
S3150800C4F00000000000708240000000000010834029
S3150800C50000000000008076400000000000E07A404D
S3150800C51000000000004080400000000000C06C40A1
S3150800C5200000000000006440000000000080514048
S3150800C5300000000000207C400000000000805640FB
S3150800C540000000000000494000000000002077407D
S3150800C5500000000000A079400000000000407F4075
S3150800C5600000000000406A400000000000806140B2
S3150800C5700000000000D08140000000000000F03FED
S3150800C580000000000000F03F000000000000F03F3F
S3150800C590000000000000F03F000000000000F03F2F
S3150800C5A0000000000000F03F000000000000F03F1F
S3150800C5B0000000000000F03F000000000000F03F0F
S3150800C5C0000000000000F03F000000000000F03FFF
S3150800C5D0000000000000F03F000000000000F03FEF
S3150800C5E0000000000000F03F000000000000F03FDF
S3150800C5F0000000000000F03F000000000000F03FCF
S3150800C600000000000000F03F000000000000F03FBE
S3150800C610000000000000F03F000000000000F03FAE
S3150800C620000000000000F03F000000000000F03F9E
S3150800C630000000000000F03F00000000000030404D
S3150800C640000000000000B03F00000000000030407D
S3150800C650000000000000B03F00000000000030406D
S3150800C660000000000000B03F00000000000030405D
S3150800C670000000000000B03F00000000000030404D
S3150800C680000000000000B03F00000000000030403D
S3150800C690000000000000B03F00000000000030402D
S3150800C6A0000000000000B03F00000000000030401D
S3150800C6B0000000000000B03F0000000000005040ED
S3150800C6C0000000000000903F0000000000005040FD
S3150800C6D0000000000000903F00000000000020401D
S3150800C6E0000000000000C03F0000000000002040DD
S3150800C6F0000000000000C03F0000000000002040CD
S3150800C700000000000000C03F0000000000002040BC
S3150800C710000000000000C03F0000000000002040AC
S3150800C720000000000000C03F000000002DB2BD3F21
S3150800C730000000000000903F00000000000050408C
S3150800C740000000000000C03F00000000000020407C
S3150800C750000000000000903F00000000000050406C
S3150800C760000000000000B03F00000000000030405C
S3150800C770000000000000B03F00000000000030404C
S3150800C780000000000000B03F00000000000030403C
S3150800C790000000000000B03F00000000000030402C
S3150800C7A0000000000000B03F00000000000030401C
S3150800C7B0000000000000B03F00000000000030400C
S3150800C7C0000000000000B03F0000000000003040FC
S3150800C7D0000000000000B03F0000000000003040EC
S3150800C7E0000000000000B03F0000000000003040DC
S3150800C7F0000000000000B03F0000000000003040CC
S3150800C800000000000000B03F0000000000003040BB
S3150800C810000000000000B03F0000000000003040AB
S3150800C8200000000000A07E400000000000E07F40FD
S3150800C83000000000003081400000000000908040A9
S3150800C84000000000008051400000000000805640B3
S3150800C8500000000000805B40000000000000694006
S3150800C86000000000008066400000000000207240C2
S3150800C8700000000000E070400000000000C07740A3
S3150800C88000000000008076400000000000607D4047
S3150800C8900000000000207C40000000000000494025
S3150800C8A00000000000E07A4000000000000064403C
S3150800C8B00000000000406F40000000000040754086
S3150800C8C0000000000000F03F00000000000000002B
S3150800C8D00000000000000001010101010000000045
S3150800C8E00000000000000000000000000100000138
S3150800C8F00100000001000000010000000100000026
S3150800C90000000000160000001600000016000000D7
S3150800C91016000000000000001900000019000000C1
S3150800C92019000000190000000000000000000100C6
S3150800C93001000000010000000100000001000000E5
S3150800C94000000000010000000100000001000000D6
S3150800C950010000000000000015000000150000009E
S3150800C960150000001500000000000000000001008E
S3150800C97001000000010000000100000001000000A5
S3150800C9800000000001000000010000000100000096
S3150800C990010000000000000015000000150000005E
S3150800C9A01500000015000000000000001600000039
S3150800C9B01600000016000000160000000000000027
S3150800C9C019000000190000001900000019000000F5
S3150800C9D00000000018000000180000001800000001
S3150800C9E018000000000000001700000017000000F3
S3150800C9F01700000017000000000000001F000000DC
S3150800CA001F0000001F0000001F00000000000000BB
S3150800CA100E0000000E0000000E0000000E000000D0
S3150800CA20000000000D0000000D0000000D000000D1
S3150800CA300D000000000000000C0000000C000000C3
S3150800CA400C0000000C000000000000000B000000B5
S3150800CA500B0000000B0000000B00000000000000A7
S3150800CA6001000000010000000100000001000000B4
S3150800CA7000000000000000006464640048414E6342
S3150800CA806F6465725F453430375F5454415F47724F
S3150800CA906F7570325F736F66747761726549445F4C
S3150800CAA076315F3038303632325F323034323137B1
S3150800CAB04170704374726C5461736B0048414E63E5
S3150800CAC06F6465725F453430375F5454415F47720F
S3150800CAD06F7570322E6300002000000000140240BB
S3150800CAE008000900200000000014024010000E0093
S3150800CAF0200000000014024020000F002000000063
S3150800CB000014024040000400200000000014024007
S3150800CB108000050020000000001402400001060005
S3150800CB202000000000140240000207002000000058
S3150800CB300014024000040800040000000008024037
S3150800CB4001000A00040000000008024004000C006E
S3150800CB50414443636F6E76657273696F6E54617391
S3150800CB606B0000002E2E2F626C6F636B7365742F3B
S3150800CB707274772F53544D33322F7372632F68654F
S3150800CB8061705F342E630000546D724370754C6F8C
S3150800CB906164000049444C45000000002E2E2F62B7
S3150800CBA06C6F636B7365742F7274772F53544D33A0
S3150800CBB0322F7372632F7461736B732E63000000D8
S3150800CBC02E2E2F626C6F636B7365742F7274772FBA
S3150800CBD053544D33322F7372632F74696D657273B4
S3150800CBE02E630000546D72205376630043616E45D0
S3150800CBF076656E745461736B0000000043616E5471
S3150800CC0072616E736D69745461736B002E2E2F6298
S3150800CC106C6F636B7365742F7274772F53544D332F
S3150800CC20322F7372632F53544D33325F4534303786
S3150800CC302F63616E2E63000000640040000000024E
S3150800CC4008000000000C0240010000000800000077
S3150800CC50000C02400200010009131415160000001A
S3150800CC6000680040000000040200000000040240C2
S3150800CC7020000500020000000004024040000600F3
S3150800CC80093F40414200000001010201020202027E
S3150800CC900203020204020203030304030305030357
S3150800CCA00603030504040604040704040804040729
S3150800CCB005050805050806050807050807060808FE
S3150800CCC00608080708080800457643686E6C3100B0
S3150800CCD0457643686E6C3200457643686E6C330061
S3150800CCE02E2E2F626C6F636B7365742F7274772F99
S3150800CCF053544D33322F7372632F53544D33325F6F
S3150800CD00453430372F6D61632E6300002E2E2F6257
S3150800CD106C6F636B7365742F7274772F53544D332E
S3150800CD20322F7372632F53544D33325F4534303785
S3150800CD302F706F72742E630000000140010000001E
S3150800CD400201000010000000001002400002090065
S3150800CD50100000000010024000080B00000400400C
S3150800CD60020000000102000001000000000002406D
S3150800CD7040000600020000000004024020000500F2
S3150800CD80000800400400000001020000080000003E
S3150800CD90000C024000100C0008000000000C0240C5
S3150800CDA000200D00000401400200000002030000FC
S3150800CDB004000000000802404000060004000000CD
S3150800CDC00008024080000700000001400100000042
S3150800CDD002011900000000400100000001021C00C9
S3150800CDE0000400400200000001021D000008004087
S3150800CDF00400000001021E000004014002000000B9
S3150800CE0002012C0000400140000001000201180048
S3150800CE1000440140000002000201190000480140D8
S3150800CE200000040002011A00001C004080000000F7
S3150800CE3001022C00002000400001000001022D0024
S3150800CE400400000000080240010000002000000065
S3150800CE5000140240400000002000000000140240B8
S3150800CE6080000000200000000014024000010000BD
S3150800CE70200000000014024000020000200000000C
S3150800CE8000140240000400000200000000040240F2
S3150800CE90800000000200000000040240400000007C
S3150800CEA010000000001002400400000010000000FE
S3150800CEB000100240100000001000000000100240A0
S3150800CEC02000000010000000001002404000000092
S3150800CED040000000001802408000000040000000EA
S3150800CEE0001802400001000040000000001802403F
S3150800CEF000100000400000000018024000800000FA
S3150800CF0001000000000002401000000002000000BE
S3150800CF10000402402000000001000000000002405A
S3150800CF204000000001000000000002402000000050
S3150800CF3008000000000C0240010000000800000084
S3150800CF40000C02400200000008000000000C02402D
S3150800CF500400000008000000000C02400800000061
S3150800CF6008000000000C0240100000000800000045
S3150800CF70000C02402000000008000000000C0240DF
S3150800CF804000000008000000000C0240800000007D
S3150800CF9008000000000C0240000100000800000024
S3150800CFA0000C02400002000008000000000C0240CD
S3150800CFB00004000008000000000C02400008000001
S3150800CFC008000000000C02400010000008000000E5
S3150800CFD0000C02400020000008000000000C02407F
S3150800CFE00040000008000000000C0240008000001D
S3150800CFF010000000001002400100000010000000B0
S3150800D000001002400200000010000000001002405C
S3150800D0100800000010000000001002408000000018
S3150800D020100000000010024000010000100000007F
S3150800D030001002400002000010000000001002402C
S3150800D0400004000010000000001002400008000064
S3150800D0501000000000100240001000001000000040
S3150800D06000100240002000001000000000100240DE
S3150800D0700040000010000000001002400080000080
S3150800D08020000000001402400100000020000000FB
S3150800D09000140240020000002000000000140240B4
S3150800D0A004000000200000000014024008000000F0
S3150800D0B020000000001402401000000020000000BC
S3150800D0C00014024020000000200000000014024066
S3150800D0D000080000200000000014024000100000B4
S3150800D0E0200000000014024000200000200000007C
S3150800D0F00014024000400000200000000014024016
S3150800D10000800000400000000018024001000000F6
S3150800D1104000000000180240020000004000000025
S3150800D12000180240040000004000000000180240F9
S3150800D130080000004000000000180240100000002F
S3150800D14040000000001802402000000040000000D7
S3150800D150001802404000000040000000001802408D
S3150800D1600002000040000000001802400004000011
S3150800D17040000000001802400008000040000000BF
S3150800D180001802400020000040000000001802407D
S3150800D19000400000010000000000024001000000FD
S3150800D1A00400000000080240010000002000000002
S3150800D1B00014024040000000200000000014024055
S3150800D1C0800000002000000000140240000100005A
S3150800D1D020000000001402400002000020000000A9
S3150800D1E0001402400004000002000000000402408F
S3150800D1F08000000002000000000402404000000019
S3150800D200100000000010024004000000100000009A
S3150800D210001002401000000010000000001002403C
S3150800D220200000001000000000100240400000002E
S3150800D2304000000000180240800000004000000086
S3150800D24000180240000100004000000000180240DB
S3150800D2500010000040000000001802400080000096
S3150800D260010000000000024010000000020000005B
S3150800D27000040240200000000100000000000240F7
S3150800D28040000000010000000000024020000000ED
S3150800D29008000000000C0240010000000800000021
S3150800D2A0000C02400200000008000000000C0240CA
S3150800D2B00400000008000000000C024008000000FE
S3150800D2C008000000000C02401000000008000000E2
S3150800D2D0000C02402000000008000000000C02407C
S3150800D2E04000000008000000000C0240800000001A
S3150800D2F008000000000C02400001000008000000C1
S3150800D300000C02400002000008000000000C024069
S3150800D3100004000008000000000C0240000800009D
S3150800D32008000000000C0240001000000800000081
S3150800D330000C02400020000008000000000C02401B
S3150800D3400040000008000000000C024000800000B9
S3150800D350100000000010024001000000100000004C
S3150800D36000100240020000001000000000100240F9
S3150800D37008000000100000000010024080000000B5
S3150800D380100000000010024000010000100000001C
S3150800D39000100240000200001000000000100240C9
S3150800D3A00004000010000000001002400008000001
S3150800D3B010000000001002400010000010000000DD
S3150800D3C0001002400020000010000000001002407B
S3150800D3D0004000001000000000100240008000001D
S3150800D3E02000000000140240010000002000000098
S3150800D3F00014024002000000200000000014024051
S3150800D400040000002000000000140240080000008C
S3150800D4102000000000140240100000002000000058
S3150800D4200014024020000000200000000014024002
S3150800D4300008000020000000001402400010000050
S3150800D4402000000000140240002000002000000018
S3150800D45000140240004000002000000000140240B2
S3150800D4600080000040000000001802400100000093
S3150800D47040000000001802400200000040000000C2
S3150800D4800018024004000000400000000018024096
S3150800D49008000000400000000018024010000000CC
S3150800D4A04000000000180240200000004000000074
S3150800D4B0001802404000000040000000001802402A
S3150800D4C000020000400000000018024000040000AE
S3150800D4D0400000000018024000080000400000005C
S3150800D4E0001802400020000040000000001802401A
S3150800D4F00040000004000000000802400020000070
S3150800D500000001400100000002011B00000000406D
S3150800D5100100000001021C00000400400200000097
S3150800D52001021D00000800400400000001021E0060
S3150800D530000401400200000002012E0000400140E4
S3150800D540000001000201180000440140000002002A
S3150800D55002011900004801400000040002011A00F7
S3150800D560001C00408000000001022C000020004042
S3150800D5700001000001022D0010000000001002400A
S3150800D580000200000200020001000900100000006D
S3150800D59000100240000800010400200001000B00F2
S3150800D5A010000000001002400020000208000002DF
S3150800D5B001000D00100000000010024000400003AA
S3150800D5C01000002001000E000100000000000240CB
S3150800D5D02000010002000200010005000100000011
S3150800D5E0000002404000020002000200020006009D
S3150800D5F0020000000004024020000201040020008E
S3150800D6000200050008000000000C0240001003009C
S3150800D6100200020002000C0008000000000C024094
S3150800D620002003010400200002000D000400000091
S3150800D6300008024040000400020002000300060041
S3150800D64004000000000802408000040104002000D5
S3150800D650030007001000000000100240200005002B
S3150800D660020002000300050010000000001002403E
S3150800D6704000050104002000030006002000000009
S3150800D68000140240400006000200020003000600E3
S3150800D690200000000014024080000700020002007B
S3150800D6A003000700200000000014024000010800E3
S3150800D6B002000200090008002000000000140240D1
S3150800D6C000020900020002000900090000100140DA
S3150800D6D010000000022500000200000000040240BD
S3150800D6E04000060002000000000402408000070017
S3150800D6F00700000000440040000002000126000068
S3150800D70008000000000C0240200005000800000088
S3150800D710000C0240400006000700000000480040D8
S3150800D720000004000127000008000000000C024069
S3150800D7300001080008000000000C02400002090071
S3150800D7400700000000140140200000000247000006
S3150800D7500400000000080240400006000400000023
S3150800D76000080240800007000800000056435020C9
S3150800D770436F6E666967000056435020496E7465AC
S3150800D780726661636500000053544D6963726F6584
S3150800D7906C656374726F6E696373000053544D331E
S3150800D7A032205669727475616C20436F6D506F72C2
S3150800D7B07420696E204853206D6F64650000000070
S3150800D7C053544D3332205669727475616C20436F19
S3150800D7D06D506F727420696E204653204D6F6465D4
S3150800D7E000000000303030303030303030353042D4
S3150800D7F000000000303030303030303030353043C3
S3150800D80000000000000001400100000002011B00AA
S3150800D810000000400100000001021C000004004056
S3150800D8200200000001021D0000080040040000007C
S3150800D83001021E00000401400200000002012E0041
S3150800D84000400140000001000201180000440140A8
S3150800D850000002000201190000480140000004000F
S3150800D86002011A00001C00408000000001022C0082
S3150800D870002000400001000001022D0010000000F9
S3150800D8800010024000020000020002000100090028
S3150800D89010000000001002400008000104002000EB
S3150800D8A001000B00100000000010024000200002DA
S3150800D8B00800000201000D001000000000100240E0
S3150800D8C0004000031000002001000E0001000000C7
S3150800D8D000000240200001000200020001000500CD
S3150800D8E001000000000002404000020002000200A1
S3150800D8F002000600020000000004024020000201A7
S3150800D900040020000200050008000000000C024088
S3150800D910001003000200020002000C0008000000CC
S3150800D920000C0240002003010400200002000D0044
S3150800D9300400000000080240400004000200020043
S3150800D94003000600040000000008024080000401ED
S3150800D9500400200003000700100000000010024029
S3150800D9602000050002000200030005001000000068
S3150800D97000100240400005010400200003000600D4
S3150800D98020000000001402404000060002000200C9
S3150800D9900300060020000000001402408000070073
S3150800D9A002000200030007002000000000140240E5
S3150800D9B0000108000200020009000800200000001B
S3150800D9C000140240000209000200020009000900D2
S3150800D9D02E2E2F626C6F636B7365742F7274772F9C
S3150800D9E053544D33322F7372632F71756575652ED7
S3150800D9F0630000000404040008DA000810DA0008CE
S3150800DA0018DA000807070700457643686E6C310088
S3150800DA10457643686E6C3200457643686E6C330013
S3150800DA2050505000666D6F64000000000000000052
S3150800DA300000000000000000000000000000008058
S3090800DA404300000091
S315080100000B78FF2B00D070474B78002BFBD112F0F1
S31508010010F5BB00BF08B5012011F0DEFE034A40F228
S3150801002067610020BDE8084014F03EBC01000108E4
S31508010030002011F055BD00BF704700BF2DE9F047FC
S31508010040DDF820E0099E9EF800C004460D4692465A
S315080100501F46BCF1000F02D101238EF8003030880B
S315080100601AF0F2FD22462B46804689461BF0BAF85D
S31508010070E0B10E9A3B6813600D9A7B6813600C9A7F
S31508010080BB7A1370109A3B7A13700B9AFB7A13702A
S315080100900F9A7B7A13700A9A002313605360119A98
S315080100A0137030881AF0D0FD8046894642464B4681
S315080100B0204629461BF0A0F868B10B9B1B78D3B9DB
S315080100C001238AF800300C9B1B787BB901238AF837
S315080100D00130BDE8F087002642464B4620462946B0
S315080100E08AF800601BF088F80028ECD100238AF80A
S315080100F00130BDE8F08700238AF800300C9B1B7895
S31508010100002BF3D1E2E700BF2DE9F04F83B0164685
S315080101101F4682468B461AF0B3FA0022002304468C
S315080101200D461BF05FF8D8BB804600220023204607
S3150801013029465FFA88F81BF055F850B93046394612
S315080101401AF016FA02460B46304639461BF072F883
S3150801015090BBB8F1000F5FD15046594600220023E3
S315080101604FF001091BF048F820B30023002230465E
S3150801017039461BF041F84FF00103A0B15FFA89F93E
S31508010180DBB2994507D02046294632463B461AF046
S315080101900FFC04460D462046294603B0BDE8F08FFC
S315080101A04FF00108C1E703465FFA89F9DBB29945C1
S315080101B0E9D1F0E7C146D8E732463B4650465946AB
S315080101C01AF0D2FE21F000490022194B4946804611
S315080101D01AF0EEFB1AF0CCF902460B4640464946A0
S315080101E01AF0E4FB0B46024623F000434046009210
S315080101F0019300220F4B49461AF08CFD02460B4625
S31508010200DDE900011BF002F84FF0010858B15FFA69
S3150801021088F8B8F1000F9FD000240025204629460A
S3150801022003B0BDE8F08F80465FFA88F8F1E700BFB2
S315080102300000E03F0000B03C2DE9F0410999089C17
S3150801024091F800E0DDF82880054616461F46BEF1FE
S31508010250000F01D101230B702B785B00DBB25A0921
S3150801026007EE902AB8EEE77AF7EE007AB4EEE77A67
S31508010270F1EE10FAA372227307DDD8E90001002214
S315080102801B4B1AF095FBC8E900012878C009607371
S315080102902B781B01DBB24FEA1318637284F80B80C3
S315080102A01AF0D2FC32463B461AF09CFF50B1404642
S315080102B01AF0CAFCDDE906231AF094FF4FF0010390
S315080102C098B1D8B220726B782370AB786370EB78EB
S315080102D0A3702B79E3706B792371AB796371EB7931
S315080102E0A3710023E371BDE8F0810346E9E700BF86
S315080102F00000F03F2DE9F0410999089C91F800E0CA
S31508010300DDF82880054616461F46BEF1000F01D1C5
S3150801031001230B702B785B00DBB25A0907EE902A92
S31508010320B8EEE77AF7EE007AB4EEE77AF1EE10FA6C
S31508010330A372227307DDD8E9000100221B4B1AF0CC
S3150801034037FBC8E900012878C00960732B781B01BF
S31508010350DBB24FEA1318637284F80B801AF074FC47
S3150801036032463B461AF03EFF50B140461AF06CFC45
S31508010370DDE906231AF036FF4FF0010398B1D8B22A
S3150801038020726B782370AB786370EB78A3702B7946
S31508010390E3706B792371AB796371EB79A3710023F0
S315080103A0E371BDE8F0810346E9E700BF0000F03FCD
S315080103B02DE9F0410799069C91F800E0DDF82080C7
S315080103C0054616461F46BEF1000F01D101230B70E3
S315080103D02B785B00DBB25A0907EE902AB8EEE77A6A
S315080103E0F7EE007AB4EEE77AF1EE10FAA372227309
S315080103F007DDD8E900010022154B1AF0D9FAC8E938
S3150801040000016B782370AB786370EB78A3702B7956
S31508010410E3706B792371AB796371EB79A37100236F
S31508010420E3712B781B01DBB218096372E0721AF0CB
S315080104300BFC3B4632461AF0D5FE4FF0010300B9D4
S31508010440034623722B78DB096373BDE8F08100BF8D
S315080104500000F03F2DE9F0410799069C91F800E06C
S31508010460DDF82080054616461F46BEF1000F01D16C
S3150801047001230B702B785B00DBB25A0907EE902A31
S31508010480B8EEE77AF7EE007AB4EEE77AF1EE10FA0B
S31508010490A372227307DDD8E900010022154B1AF071
S315080104A087FAC8E900016B782370AB786370EB783B
S315080104B0A3702B79E3706B792371AB796371EB794F
S315080104C0A3710023E3712B781B01DBB21809637250
S315080104D0E0721AF0B9FB3B4632461AF083FE4FF03A
S315080104E0010300B9034623722B78DB096373BDE860
S315080104F0F08100BF0000F03F2DE9F04F89B00746B3
S3150801050018999DF8488091F800E09DF84C909DF85F
S3150801051050A09DF85460169D1A9CBEF1000F01D19A
S3150801052001200870DFF830E110461946DEE900239C
S315080105301AF03EFACDE9000138461AF075FB002299
S31508010540434BCDE902011AF033FADDE900231AF02B
S315080105502DFA00220023CDE906011AF043FE0028F0
S3150801056041D01D9B18781C9BC0015FFA80FB85F85A
S3150801057001B0D3E900011AF0A5FE0001C7B2199B23
S31508010580AF70D3E900011AF09DFE38445844179B11
S31508010590207084F8018084F8029084F803A02671FB
S315080105A06671A671E6711B9A1B681360DDE9002363
S315080105B0DDE902011AF0FAF900220023804689468C
S315080105C01AF010FE0446002839D1224BD3E90067F8
S315080105D000220023304639461AF004FEE8B12C7091
S315080105E009B0BDE8F08F1B4B93ED007B0022002379
S315080105F051EC170B8DED047B1AF0F4FD0028D5D1CB
S31508010600DDE90423DDE90601FFF77EFD002200236B
S315080106101AF0E8FD0028C9D0A3E732463B46404612
S315080106204946FFF771FD002200231AF0DBFD4FF062
S31508010630010448B1E4B22C7009B0BDE8F08F012479
S315080106402C7009B0BDE8F08F0446E4B2F3E700BFA9
S315080106500000F03F70000020A00000202DE9F04FB7
S3150801066089B0074618999DF8488091F800E09DF8E9
S315080106704C909DF850A09DF85460169D1A9CBEF1A9
S31508010680000F01D101200870DFF830E11046194644
S31508010690DEE900231AF08CF9CDE9000138461AF093
S315080106A0C3FA0022434BCDE902011AF081F9DDE9CB
S315080106B000231AF07BF900220023CDE906011AF07E
S315080106C091FD002841D01D9B18781C9BC0015FFA3B
S315080106D080FB85F801B0D3E900011AF0F3FD0001AA
S315080106E0C7B2199BAF70D3E900011AF0EBFD384484
S315080106F05844179B207084F8018084F8029084F886
S3150801070003A026716671A671E6711B9A1B681360B0
S31508010710DDE90023DDE902011AF048F90022002388
S31508010720804689461AF05EFD0446002839D1224BD7
S31508010730D3E9006700220023304639461AF052FDF4
S31508010740E8B12C7009B0BDE8F08F1B4B93ED007B27
S315080107500022002351EC170B8DED047B1AF042FDA4
S315080107600028D5D1DDE90423DDE90601FFF7CCFC34
S31508010770002200231AF036FD0028C9D0A3E7324625
S315080107803B4640464946FFF7BFFC002200231AF0C4
S3150801079029FD4FF0010448B1E4B22C7009B0BDE857
S315080107A0F08F01242C7009B0BDE8F08F0446E4B23D
S315080107B0F3E700BF0000F03F90000020A8000020EA
S315080107C02DE9F04F89B080461B999DF8484091F86C
S315080107D000E004949DF84C4005949DF850509DF80E
S315080107E054609DF858709DF85CA09DF860B01D9CFA
S315080107F0BEF1000F01D101200870DFF84CE1104667
S315080108001946DEE900231AF0D3F8CDE9000140467E
S315080108101AF00AFA00224A4BCDE902011AF0C8F881
S31508010820DDE900231AF0C2F800220023CDE906010A
S315080108301AF0D8FC00284AD0209B1878199BC001C9
S315080108405FFA80F983F801901F9BD3E900011AF03A
S3150801085039FD199B00015FFA80F883F802801C9B19
S31508010860D3E900011AF02EFD9DF81030637040445B
S315080108709DF81430A37048441A9B2070E5702671C0
S31508010880677184F806A084F807B01E9A1B6813607E
S31508010890DDE90023DDE902011AF088F800220023C8
S315080108A006460F461AF09EFC804600283CD1254B89
S315080108B0D3E9004500220023204629461AF092FC76
S315080108C0E8B1199B83F8008009B0BDE8F08F1D4B8C
S315080108D0D3E9008900220023404649461AF082FCE2
S315080108E00028D5D142464B46DDE90601FFF70CFC47
S315080108F0002200231AF076FC0028C9D09CE722467C
S315080109002B4630463946FFF7FFFB002200231AF033
S3150801091069FC4FF0010878B15FFA88F8199B83F8EA
S31508010920008009B0BDE8F08F199B4FF0010883F8E4
S31508010930008009B0BDE8F08F80465FFA88F8EDE7D8
S315080109400000F03F70000020A00000202DE9F04FC4
S3150801095089B080461B999DF8484091F800E00494B7
S315080109609DF84C4005949DF850509DF854609DF8AB
S3150801097058709DF85CA09DF860B01D9CBEF1000FF3
S3150801098001D101200870DFF84CE110461946DEE96D
S3150801099000231AF00DF8CDE9000140461AF044F992
S315080109A000224A4BCDE902011AF002F8DDE90023DB
S315080109B019F0FCFF00220023CDE906011AF012FC0A
S315080109C000284AD0209B1878199BC0015FFA80F944
S315080109D083F801901F9BD3E900011AF073FC199B58
S315080109E000015FFA80F883F802801C9BD3E90001B5
S315080109F01AF068FC9DF81030637040449DF8143075
S31508010A00A37048441A9B2070E5702671677184F8B3
S31508010A1006A084F807B01E9A1B681360DDE9002357
S31508010A20DDE9020119F0C2FF0022002306460F463E
S31508010A301AF0D8FB804600283CD1254BD3E900455E
S31508010A4000220023204629461AF0CCFBE8B1199B5F
S31508010A5083F8008009B0BDE8F08F1D4BD3E9008902
S31508010A6000220023404649461AF0BCFB0028D5D18E
S31508010A7042464B46DDE90601FFF746FB0022002305
S31508010A801AF0B0FB0028C9D09CE722462B4630460F
S31508010A903946FFF739FB002200231AF0A3FB4FF072
S31508010AA0010878B15FFA88F8199B83F8008009B0C4
S31508010AB0BDE8F08F199B4FF0010883F8008009B053
S31508010AC0BDE8F08F80465FFA88F8EDE70000F03F51
S31508010AD090000020A80000202DE9F04F89B00646B5
S31508010AE019999DF8544091F800E003949DF84870CF
S31508010AF09DF84C809DF850909DF858501B9CBEF16E
S31508010B00000F01D101200870DFF848E110461946A7
S31508010B10DEE9002319F04CFF824630468B461AF06F
S31508010B2083F80022494BCDE9000119F041FF5246ED
S31508010B305B4619F03BFF00220023CDE906011AF0B6
S31508010B4051FB002846D01E9B179A1878C001C3B2DC
S31508010B50537004931D9BD3E900011AF0B3FB179B4D
S31508010B600001C6B29E701A9BD3E900011AF0AAFBCE
S31508010B70049B6770304418449DF80C302371189B08
S31508010B80207084F8028084F803906571A571E57177
S31508010B901C9A1B68136052465B46DDE9000119F091
S31508010BA005FF0022002306460F461AF01BFB804666
S31508010BB000283ED1264BD3E90045002200232046D2
S31508010BC029461AF00FFBF8B1179B83F8008009B084
S31508010BD0BDE8F08F1E4B93ED007B0022002351ECFC
S31508010BE0170B8DED047B1AF0FDFA0028D3D1DDE948
S31508010BF00423DDE90601FFF787FA002200231AF02C
S31508010C00F1FA0028C7D09EE722462B4630463946D8
S31508010C10FFF77AFA002200231AF0E4FA4FF00108E6
S31508010C2078B15FFA88F8179B83F8008009B0BDE8A8
S31508010C30F08F179B4FF0010883F8008009B0BDE8D3
S31508010C40F08F80465FFA88F8EDE700BF0000F03FB5
S31508010C5070000020A00000202DE9F04F89B006465B
S31508010C6019999DF8544091F800E003949DF848704D
S31508010C709DF84C809DF850909DF858501B9CBEF1EC
S31508010C80000F01D101200870DFF848E11046194626
S31508010C90DEE9002319F08CFE824630468B4619F0B0
S31508010CA0C3FF0022494BCDE9000119F081FE5246E6
S31508010CB05B4619F07BFE00220023CDE906011AF0F6
S31508010CC091FA002846D01E9B179A1878C001C3B21C
S31508010CD0537004931D9BD3E900011AF0F3FA179B8D
S31508010CE00001C6B29E701A9BD3E900011AF0EAFA0E
S31508010CF0049B6770304418449DF80C302371189B87
S31508010D00207084F8028084F803906571A571E571F5
S31508010D101C9A1B68136052465B46DDE9000119F00F
S31508010D2045FE0022002306460F461AF05BFA804666
S31508010D3000283ED1264BD3E9004500220023204650
S31508010D4029461AF04FFAF8B1179B83F8008009B0C3
S31508010D50BDE8F08F1E4B93ED007B0022002351EC7A
S31508010D60170B8DED047B1AF03DFA0028D3D1DDE986
S31508010D700423DDE90601FFF7C7F9002200231AF06B
S31508010D8031FA0028C7D09EE722462B463046394617
S31508010D90FFF7BAF9002200231AF024FA4FF00108E6
S31508010DA078B15FFA88F8179B83F8008009B0BDE827
S31508010DB0F08F179B4FF0010883F8008009B0BDE852
S31508010DC0F08F80465FFA88F8EDE700BF0000F03F34
S31508010DD090000020A80000202DE9F0410799069C03
S31508010DE091F800E0DDF82080054616461F46BEF15B
S31508010DF0000F01D101230B702B785B00DBB25A0976
S31508010E0007EE902AB8EEE77AF7EE007AB4EEE77ABB
S31508010E10F1EE10FAA372227307DDD8E90001002268
S31508010E20154B19F0C5FDC8E900016B782370AB783D
S31508010E306370EB78A3702B79E3706B792371AB79C7
S31508010E406371EB79A3710023E3712878C009607394
S31508010E5019F0FAFE3B4632461AF0C4F94FF001037F
S31508010E6000B9034623722B781B01DBB21A09637298
S31508010E70E272BDE8F08100BF0000F03F2DE9F041C4
S31508010E800799069C91F800E0DDF82080054616468C
S31508010E901F46BEF1000F01D101230B702B785B00B1
S31508010EA0DBB25A0907EE902AB8EEE77AF7EE007A2E
S31508010EB0B4EEE77AF1EE10FAA372227307DDD8E9E8
S31508010EC000010022154B19F073FDC8E900016B7882
S31508010ED02370AB786370EB78A3702B79E3706B7929
S31508010EE02371AB796371EB79A3710023E3712878D8
S31508010EF0C009607319F0A8FE3B4632461AF072F92A
S31508010F004FF0010300B9034623722B781B01DBB2AC
S31508010F101A096372E272BDE8F08100BF0000F03F72
S31508010F202DE9F04F83B00C460E9FDDF834809946C3
S31508010F300546324BD7E900011646002219F038FD5D
S31508010F400123C7E9000189F8003023682C4A0C9966
S31508010F50013313602360D8F8003007EE903AB8EEF3
S31508010F60677AF7EE007AB4EE677AF1EE10FA05D1F0
S31508010F70DFF888904FF00008C1E9008937780193B6
S31508010F80384619F051FEDFF884801E4A019B13602A
S31508010F90C8E900012B602F7196F807E085F805E08E
S31508010FA096F801C085F806C096F8028085F807808C
S31508010FB096F8039085F8089096F804A085F809A094
S31508010FC096F805B0104C85F80AB0B079E87219465A
S31508010FD0A071234608220020277084F805B084F8FA
S31508010FE004A084F8039084F8028084F801C084F888
S31508010FF007E003B0BDE8F04F13F0E2B90000F03F97
S315080110001CC7002088C10020F806002078C70020E8
S3150801101008B50121002013F0D7FB0B21002013F09E
S31508011020D3FB0C21002013F0CFFB0D21002013F078
S31508011030CBFB0E21002013F0C7FB1521002013F06E
S31508011040C3FB1621002013F0BFFB1721002013F064
S31508011050BBFB1821002013F0B7FB1921002013F060
S31508011060B3FB1F210020BDE8084013F0ADBB00BF4C
S315080110702DE9F04F2DED0A8B0D460968E24CE34E3A
S3150801108083B00131216029601899DDF864900968F7
S31508011090316007EE901AB8EE678AF7EE007AB4EE79
S315080110A0678AF1EE10FA1F46044692462B7A40F0FB
S315080110B01C830BB901232B72DFF8548300224346A4
S315080110C000921046012113F0ABFB002884F85C005E
S315080110D040F3658498F8013084F8213098F8023095
S315080110E084F8223098F8033084F8233098F80430CD
S315080110F084F82430D6ED007A98F8053084F825303E
S3150801110098F8063084F8263098F8072098F80030C1
S3150801111084F82720F8EE678A84F82030F2EE067AFA
S31508011120F4EE678AF1EE10FAEB7940F0C5830BB954
S315080111300123EB71DFF8DC82002243460092104658
S315080111400B2113F06DFB002884F85B0040F35E84E5
S3150801115098F80130637698F80230A37698F8033048
S31508011160E37698F804302377D6ED007A98F80530B7
S31508011170637798F80630A37798F8072098F800302F
S31508011180E277B8EE679A2376F2EE087AB4EE679AB2
S31508011190F1EE10FAAB7940F038830BB90123AB7144
S315080111A0DFF8748200224346009210460C2113F0A0
S315080111B037FB002884F85A0040F3188498F8013060
S315080111C0637498F80230A37498F80330E37498F8B6
S315080111D004302375D6ED007A98F80530637598F8CA
S315080111E00630A37598F8072098F80030E275F8EEEE
S315080111F0679A2374F2EE0A7AF4EE679AF1EE10FA18
S315080112006B7940F02E830BB901236B71DFF80C82E1
S3150801121000224346009210460D2113F001FB0028D7
S3150801122084F8590040F3DD83D6ED007A98F8073043
S3150801123098F8062098F8051098F8040098F803E03D
S3150801124098F802C098F801B098F8008084F809B0B7
S31508011250B8EE67AA84F80AC084F80BE020736173B4
S31508011260A273E37384F80880F2EE0C7AB4EE67AAE7
S31508011270F1EE10FA2B7940F09C820BB901232B7100
S31508011280DFF89C8100224346009210460E2113F096
S31508011290C7FA002884F858001BDD98F801B098F8B9
S315080112A002E098F8030098F800C098F8041098F836
S315080112B0052098F8063098F8078084F8078084F89E
S315080112C001B084F800C084F802E0E070217162710F
S315080112D0A371D6ED007AF8EE67AAF3EE057AF4EE75
S315080112E067AAF1EE10FA6B7A40F002830BB9012373
S315080112F06B72DFF8308100224346009210461521B1
S3150801130013F08EFA002884F85D0040F3658398F897
S31508011310013084F8293098F8023084F82A3098F890
S31508011320033084F82B3098F8043084F82C30D6ED45
S31508011330007A98F8053084F82D3098F8063084F844
S315080113402E3098F8072098F8003084F82F20B8EE48
S3150801135067BA84F82830F3EE067AB4EE67BAF1EE86
S3150801136010FAAB7A40F063820BB90123AB72DFF84E
S31508011370B8800022434600921046162113F050FA0F
S31508011380002884F85E0040F3228398F8013084F837
S31508011390313098F8023084F8323098F8033084F8FE
S315080113A0333098F8043084F83430D6ED007A98F85A
S315080113B0053084F8353098F8063084F8363098F8D0
S315080113C0072098F8003084F83720F8EE67BA84F8D1
S315080113D03030F3EE077AF4EE67BAF1EE10FA6B7B6A
S315080113E040F051820BB901236B73DFF8408000226C
S315080113F0434600921046172113F012FA002884F882
S31508011400610040F3FE8213E0B8C00020A4C10020A9
S315080114102807002060070020000700207007002029
S3150801142018070020E006002030070020E806002003
S3150801143098F8013084F8493098F8023084F84A302F
S3150801144098F8033084F84B3098F8043084F84C3017
S31508011450D6ED007A98F8053084F84D3098F80630BC
S3150801146084F84E3098F8072098F8003084F84F2011
S31508011470B8EE67CA84F84830F3EE087AB4EE67CA5C
S31508011480F1EE10FA2B7B40F0A6810BB901232B73E1
S31508011490DFF854840022434600921046182113F0BF
S315080114A0BFF9002884F8600040F3A68298F8013055
S315080114B084F8413098F8023084F8423098F80330BD
S315080114C084F8433098F8043084F84430D6ED007A2D
S315080114D098F8053084F8453098F8063084F846308F
S315080114E098F8072098F8003084F84720F8EE67CA7C
S315080114F084F84030F3EE097AF4EE67CAF1EE10FA91
S31508011500EB7A40F03C810BB90123EB72DFF8DC83FF
S315080115100022434600921046192113F081F900284A
S3150801152084F85F00D6ED007A40F34E8298F80130D0
S3150801153084F8393098F8023084F83A3098F803304C
S3150801154084F83B3098F8043084F83C3098F8053034
S3150801155084F83D3098F8063084F83E3098F807202C
S3150801156098F8003084F83F20F8EE677A84F8383026
S31508011570B3EE0F7AF4EE477AF1EE10FAAB7B40F050
S31508011580E6800BB90123AB73D44D00222B4600929A
S3150801159010461F2113F044F9002884F8620017DD6C
S315080115A06B78AA7884F85130EB7884F8522084F85D
S315080115B053302A796B7984F85420A97984F85530FF
S315080115C0EA792B7884F8561084F8572084F8503035
S315080115D0F7EE007AB4EE678AF1EE10FA40F0A080D1
S315080115E094F95C3094F8200094F821C094F822E02C
S315080115F094F8236094F8245094F8251094F826203A
S3150801160007EE103A94F8273099F8004007EE904A09
S31508011610F8EEE77AF7EE006AF4EE667AF1EE10FA7A
S3150801162015D1F8EEC77AF5EE407AF1EE10FA57D1F0
S315080116301A9C4FF002084FF0010B89F8008084F8D4
S3150801164000B099F8004007EE904AF8EEE77AF0EE16
S31508011650006AF4EE667AF1EE10FA37D1B8EEC77A77
S31508011660B7EE008AB4EEC87AF1EE10FA38DBFB71F0
S315080116701A9B87F801C001243870BA7187F802E00D
S31508011680FE703D7179711C70179B954A1C704FF05D
S31508011690030C89F800C0BAF800301380169A138033
S315080116A019F0C2FA189BD3ED007A8E4BF8EE677AD9
S315080116B0C3E90001F4EE487AF1EE10FA00F0698107
S315080116C099F8003007EE903AF8EEE77AF5EE407AA7
S315080116D0F1EE10FA04D11A9A012389F80030137031
S315080116E003B0BDEC0A8BBDE8F08FB3B1002380F8D7
S315080116F05C3080F8203080F8213080F8223080F87C
S31508011700233080F8243080F8253080F8263080F898
S315080117102730F0EE488A2B7200E5F0EE488AFDE4A0
S31508011720F2EE067AF4EE678AF1EE10FA40F0F880E6
S3150801173094F95B30207E94F819C094F81AE0E67E95
S31508011740257F617FA27F07EE103AE37F5CE7002BD6
S315080117503FF43EAF002384F8623084F8503084F8B1
S31508011760513084F8523084F8533084F8543084F870
S31508011770553084F8563084F85730AB7328E7002B78
S3150801178000F0EE80002384F85F3084F8383084F85E
S31508011790393084F83A3084F83B3084F83C3084F8A0
S315080117A03D3084F83E3084F83F30F0EE6C7AEB72C7
S315080117B0DEE6002B00F0E080002384F85830237021
S315080117C06370A370E37023716371A371E371F0EE23
S315080117D04AAA2B7181E5002B00F0C880002384F802
S315080117E0603084F8403084F8413084F8423084F817
S315080117F0433084F8443084F8453084F8463084F818
S315080118004730F0EE4CCA2B7374E6002B00F0BA8011
S31508011810002384F85A3023746374A374E37423751C
S315080118206375A375E375F0EE499AAB71E2E4002B93
S3150801183000F09980002384F85E3084F8303084F80B
S31508011840313084F8323084F8333084F8343084F80F
S31508011850353084F8363084F83730F0EE4BBAAB724F
S31508011860B7E5002B00F08B80002384F859302372EA
S315080118706372A372E37223736373A373E373B0EEA4
S3150801188069AA6B71F0E4002B73D0002384F86130E8
S3150801189084F8483084F8493084F84A3084F84B3063
S315080118A084F84C3084F84D3084F84E3084F84F3043
S315080118B0B0EE6BCA6B73DFE5002B66D0002384F8A4
S315080118C05B3023766376A376E37623776377A3770C
S315080118D0E377B0EE689AEB7156E400BF080700207B
S315080118E0A0C1002000C2002048070020F006002001
S315080118F09BB3002384F85D3084F8283084F82930B6
S3150801190084F82A3084F82B3084F82C3084F82D306A
S3150801191084F82E3084F82F30B0EE6ABA6B721AE565
S31508011920F2EE087AB4EE679AF1EE10FA3DD0F2EECD
S315080119300A7AF4EE679AF1EE10FA6DD194F95930F4
S31508011940207A94F809C094F80AE0E67A257B617B47
S31508011950A27B07EE103AE37B56E6B0EE6ABAFAE4E2
S31508011960F0EE6C7A04E6F0EE4BBA32E5F0EE4CCACC
S31508011970C0E5B0EE6BCA7FE5F0EE4AAAADE4B0EE7B
S3150801198069AA71E4F0EE499A34E4B0EE689AFFF771
S31508011990FBBB7D4B1B990022C1E9002390E6D6EDDE
S315080119A0007AF8EE678AFFF7B9BB94F95A30207CBA
S315080119B094F811C094F812E0E67C257D617DA27D3C
S315080119C007EE103AE37D1FE6F8EE677AD0E5D6ED25
S315080119D0007AF8EE67BAFCE4D6ED007AB8EE67BA93
S315080119E0B9E4D6ED007AB8EE67AA3DE4D6ED007AF9
S315080119F0F8EE679AFFF7FEBBD6ED007AF8EE67CAEE
S31508011A0078E5D6ED007AB8EE67CA35E5D6ED007AFF
S31508011A10B8EE679AFFF7B8BBF2EE0C7AB4EE67AA8E
S31508011A20F1EE10FA1BD0F3EE057AF4EE67AAF1EEA1
S31508011A3010FA23D194F95D3094F8280094F829C056
S31508011A4094F82AE094F82B6094F82C5094F82D1009
S31508011A5094F82E2007EE103A94F82F30D4E594F92D
S31508011A605830207894F801C094F802E0E678257990
S31508011A706179A27907EE103AE379C5E5F3EE067ABC
S31508011A80B4EE67BAF1EE10FA14D194F95E3094F80F
S31508011A90300094F831C094F832E094F8336094F841
S31508011AA0345094F8351094F8362007EE103A94F825
S31508011AB03730A9E5F3EE077AF4EE67BAF1EE10FAD4
S31508011AC014D194F9613094F8480094F849C094F80F
S31508011AD04AE094F84B6094F84C5094F84D1094F8F9
S31508011AE04E2007EE103A94F84F308DE5F3EE087A5A
S31508011AF0B4EE67CAF1EE10FA14D194F9603094F88D
S31508011B00400094F841C094F842E094F8436094F890
S31508011B10445094F8451094F8462007EE103A94F884
S31508011B20473071E5F3EE097AF4EE67CAF1EE10FA79
S31508011B3014D194F95F3094F8380094F839C094F8C0
S31508011B403AE094F83B6094F83C5094F83D1094F8C8
S31508011B503E2007EE103A94F83F3055E594F9623085
S31508011B6094F8500094F851C094F852E094F85360F0
S31508011B7094F8545094F8551094F8562007EE103AF4
S31508011B8094F8573040E500BF0000F03F012108B541
S31508011B90084612F019FE0B21012012F015FE0C2140
S31508011BA0012012F011FE0D21012012F00DFE0E2169
S31508011BB0012012F009FE1521012012F005FE162159
S31508011BC0012012F001FE1721012012F0FDFD182156
S31508011BD0012012F0F9FD1921012012F0F5FD1F214E
S31508011BE00120BDE8084012F0EFBD00BF2DE9F04F16
S31508011BF02DED0A8B0D460968E24CE34E83B001319F
S31508011C00216029601899DDF864900968316007EE4A
S31508011C10901AB8EE678AF7EE007AB4EE678AF1EEA3
S31508011C2010FA1F46044692462B7A40F01C830BB9DC
S31508011C3001232B72DFF854830022012143460092C7
S31508011C40084612F0EDFD002884F85C0040F365842F
S31508011C5098F8013084F8213098F8023084F8223057
S31508011C6098F8033084F8233098F8043084F824303F
S31508011C70D6ED007A98F8053084F8253098F80630BC
S31508011C8084F8263098F8072098F8003084F8272039
S31508011C90F8EE678A84F82030F2EE067AF4EE678A5F
S31508011CA0F1EE10FAEB7940F0C5830BB90123EB711C
S31508011CB0DFF8DC820022434600920B21012012F054
S31508011CC0AFFD002884F85B0040F35E8498F8013084
S31508011CD0637698F80230A37698F80330E37698F895
S31508011CE004302377D6ED007A98F80530637798F8AB
S31508011CF00630A37798F8072098F80030E277B8EE0F
S31508011D00679A2376F2EE087AB4EE679AF1EE10FA3C
S31508011D10AB7940F038830BB90123AB71DFF87482D4
S31508011D200022434600920C21012012F079FD002879
S31508011D3084F85A0040F3188498F80130637498F8C7
S31508011D400230A37498F80330E37498F804302375C5
S31508011D50D6ED007A98F80530637598F80630A375BC
S31508011D6098F8072098F80030E275F8EE679A237418
S31508011D70F2EE0A7AF4EE679AF1EE10FA6B7940F010
S31508011D802E830BB901236B71DFF80C8200224346BF
S31508011D9000920D21012012F043FD002884F8590014
S31508011DA040F3DD83D6ED007A98F8073098F80620D7
S31508011DB098F8051098F8040098F803E098F802C016
S31508011DC098F801B098F8008084F809B0B8EE67AAC7
S31508011DD084F80AC084F80BE020736173A273E37375
S31508011DE084F80880F2EE0C7AB4EE67AAF1EE10FADE
S31508011DF02B7940F09C820BB901232B71DFF89C816A
S31508011E000022434600920E21012012F009FD002806
S31508011E1084F858001BDD98F801B098F802E098F8A4
S31508011E20030098F800C098F8041098F8052098F867
S31508011E30063098F8078084F8078084F801B084F89A
S31508011E4000C084F802E0E07021716271A371D6EDD9
S31508011E50007AF8EE67AAF3EE057AF4EE67AAF1EED0
S31508011E6010FA6B7A40F002830BB901236B72DFF823
S31508011E7030810022434600921521012012F0D0FC40
S31508011E80002884F85D0040F3658398F8013084F8EA
S31508011E90293098F8023084F82A3098F8033084F803
S31508011EA02B3098F8043084F82C30D6ED007A98F85F
S31508011EB0053084F82D3098F8063084F82E3098F8D5
S31508011EC0072098F8003084F82F20B8EE67BA84F80E
S31508011ED02830F3EE067AB4EE67BAF1EE10FAAB7A69
S31508011EE040F063820BB90123AB72DFF8B880002298
S31508011EF0434600921621012012F092FC002884F82C
S31508011F005E0040F3228398F8013084F8313098F85E
S31508011F10023084F8323098F8033084F8333098F870
S31508011F20043084F83430D6ED007A98F8053084F810
S31508011F30353098F8063084F8363098F8072098F83E
S31508011F40003084F83720F8EE67BA84F83030F3EEBB
S31508011F50077AF4EE67BAF1EE10FA6B7B40F051821C
S31508011F600BB901236B73DFF84080002243460092C8
S31508011F701721012012F054FC002884F8610040F36F
S31508011F80FE8213E020C2002054C700205807002013
S31508011F90D006002020070020D80600203807002098
S31508011FA040070020780700206807002098F80130CC
S31508011FB084F8493098F8023084F84A3098F80330A2
S31508011FC084F84B3098F8043084F84C30D6ED007A12
S31508011FD098F8053084F84D3098F8063084F84E3074
S31508011FE098F8072098F8003084F84F20B8EE67CAA9
S31508011FF084F84830F3EE087AB4EE67CAF1EE10FABF
S315080120002B7B40F0A6810BB901232B73DFF854848F
S315080120100022434600921821012012F001FC0028F3
S3150801202084F8600040F3A68298F8013084F84130BC
S3150801203098F8023084F8423098F8033084F843302F
S3150801204098F8043084F84430D6ED007A98F80530CB
S3150801205084F8453098F8063084F8463098F8072011
S3150801206098F8003084F84720F8EE67CA84F84030BB
S31508012070F3EE097AF4EE67CAF1EE10FAEB7A40F05C
S315080120803C810BB90123EB72DFF8DC83002243465E
S3150801209000921921012012F0C3FB002884F85F0081
S315080120A0D6ED007A40F34E8298F8013084F839303B
S315080120B098F8023084F83A3098F8033084F83B30BF
S315080120C098F8043084F83C3098F8053084F83D30A7
S315080120D098F8063084F83E3098F8072098F80030CA
S315080120E084F83F20F8EE677A84F83830B3EE0F7A31
S315080120F0F4EE477AF1EE10FAAB7B40F0E6800BB9C5
S315080121000123AB73D44D00222B4600921F210120D7
S3150801211012F086FB002884F8620017DD6B78AA782E
S3150801212084F85130EB7884F8522084F853302A79B0
S315080121306B7984F85420A97984F85530EA792B7893
S3150801214084F8561084F8572084F85030F7EE007A50
S31508012150B4EE678AF1EE10FA40F0A08094F95C308B
S3150801216094F8200094F821C094F822E094F82360AA
S3150801217094F8245094F8251094F8262007EE103A7E
S3150801218094F8273099F8004007EE904AF8EEE77A76
S31508012190F7EE006AF4EE667AF1EE10FA15D1F8EE6A
S315080121A0C77AF5EE407AF1EE10FA57D11A9C4FF03C
S315080121B002084FF0010B89F8008084F800B099F8FD
S315080121C0004007EE904AF8EEE77AF0EE006AF4EE80
S315080121D0667AF1EE10FA37D1B8EEC77AB7EE008A09
S315080121E0B4EEC87AF1EE10FA38DBFB711A9B87F860
S315080121F001C001243870BA7187F802E0FE703D719A
S3150801220079711C70179B954A1C704FF0030C89F85D
S3150801221000C0BAF800301380169A138018F004FD2E
S31508012220189BD3ED007A8E4BF8EE677AC3E9000165
S31508012230F4EE487AF1EE10FA00F0698199F8003067
S3150801224007EE903AF8EEE77AF5EE407AF1EE10FAF3
S3150801225004D11A9A012389F80030137003B0BDEC32
S315080122600A8BBDE8F08FB3B1002380F85C3080F8A3
S31508012270203080F8213080F8223080F8233080F829
S31508012280243080F8253080F8263080F82730F0EEA3
S31508012290488A2B7200E5F0EE488AFDE4F2EE067AEA
S315080122A0F4EE678AF1EE10FA40F0F88094F95B30A3
S315080122B0207E94F819C094F81AE0E67E257F617F9E
S315080122C0A27F07EE103AE37F5CE7002B3FF43EAFAF
S315080122D0002384F8623084F8503084F8513084F849
S315080122E0523084F8533084F8543084F8553084F8E1
S315080122F0563084F85730AB7328E7002B00F0EE8090
S31508012300002384F85F3084F8383084F8393084F84B
S315080123103A3084F83B3084F83C3084F83D3084F810
S315080123203E3084F83F30F0EE6C7AEB72DEE6002B35
S3150801233000F0E080002384F8583023706370A3709E
S31508012340E37023716371A371E371F0EE4AAA2B71ED
S3150801235081E5002B00F0C880002384F8603084F8FA
S31508012360403084F8413084F8423084F8433084F8A8
S31508012370443084F8453084F8463084F84730F0EE26
S315080123804CCA2B7374E6002B00F0BA80002384F83C
S315080123905A3023746374A374E37423756375A37540
S315080123A0E375F0EE499AAB71E2E4002B00F09980EF
S315080123B0002384F85E3084F8303084F8313084F8AC
S315080123C0323084F8333084F8343084F8353084F880
S315080123D0363084F83730F0EE4BBAAB72B7E5002BDE
S315080123E000F08B80002384F8593023726372A3723C
S315080123F0E37223736373A373E373B0EE69AA6B7114
S31508012400F0E4002B73D0002384F8613084F8483057
S3150801241084F8493084F84A3084F84B3084F84C30D3
S3150801242084F84D3084F84E3084F84F30B0EE6BCADC
S315080124306B73DFE5002B66D0002384F85B302376C7
S315080124406376A376E37623776377A377E377B0EEAC
S31508012450689AEB7156E400BF5007002082C7002036
S3150801246058C70020C8060020100700209BB3002388
S3150801247084F85D3084F8283084F8293084F82A30C5
S3150801248084F82B3084F82C3084F82D3084F82E30DB
S3150801249084F82F30B0EE6ABA6B721AE5F2EE087A52
S315080124A0B4EE679AF1EE10FA3DD0F2EE0A7AF4EE3E
S315080124B0679AF1EE10FA6DD194F95930207A94F8A9
S315080124C009C094F80AE0E67A257B617BA27B07EED0
S315080124D0103AE37B56E6B0EE6ABAFAE4F0EE6C7AA5
S315080124E004E6F0EE4BBA32E5F0EE4CCAC0E5B0EEC2
S315080124F06BCA7FE5F0EE4AAAADE4B0EE69AA71E4CB
S31508012500F0EE499A34E4B0EE689AFFF7FBBB7D4BCF
S315080125101B990022C1E9002390E6D6ED007AF8EE70
S31508012520678AFFF7B9BB94F95A30207C94F811C031
S3150801253094F812E0E67C257D617DA27D07EE103ACE
S31508012540E37D1FE6F8EE677AD0E5D6ED007AF8EE78
S3150801255067BAFCE4D6ED007AB8EE67BAB9E4D6ED07
S31508012560007AB8EE67AA3DE4D6ED007AF8EE679AE6
S31508012570FFF7FEBBD6ED007AF8EE67CA78E5D6ED29
S31508012580007AB8EE67CA35E5D6ED007AB8EE679AED
S31508012590FFF7B8BBF2EE0C7AB4EE67AAF1EE10FAC1
S315080125A01BD0F3EE057AF4EE67AAF1EE10FA23D101
S315080125B094F95D3094F8280094F829C094F82AE033
S315080125C094F82B6094F82C5094F82D1094F82E203A
S315080125D007EE103A94F82F30D4E594F9583020785C
S315080125E094F801C094F802E0E67825796179A27930
S315080125F007EE103AE379C5E5F3EE067AB4EE67BA63
S31508012600F1EE10FA14D194F95E3094F8300094F88A
S3150801261031C094F832E094F8336094F8345094F861
S31508012620351094F8362007EE103A94F83730A9E5B4
S31508012630F3EE077AF4EE67BAF1EE10FA14D194F9CB
S31508012640613094F8480094F849C094F84AE094F83F
S315080126504B6094F84C5094F84D1094F84E2007EEC0
S31508012660103A94F84F308DE5F3EE087AB4EE67CA5E
S31508012670F1EE10FA14D194F9603094F8400094F808
S3150801268041C094F842E094F8436094F8445094F8B1
S31508012690451094F8462007EE103A94F8473071E54C
S315080126A0F3EE097AF4EE67CAF1EE10FA14D194F949
S315080126B05F3094F8380094F839C094F83AE094F801
S315080126C03B6094F83C5094F83D1094F83E2007EE90
S315080126D0103A94F83F3055E594F9623094F8500071
S315080126E094F851C094F852E094F8536094F8545011
S315080126F094F8551094F8562007EE103A94F8573086
S3150801270040E500BF0000F03F2DE9F04F83B00C46CD
S315080127100E9FDDF8348099460546324BD7E900010C
S315080127201646002218F044F90123C7E9000189F881
S31508012730003023682C4A0C99013313602360D8F8BA
S31508012740003007EE903AB8EE677AF7EE007AB4EE03
S31508012750677AF1EE10FA05D1DFF888904FF0000894
S31508012760C1E9008937780193384618F05DFADFF830
S3150801277084801E4A019B1360C8E900012B602F71F2
S3150801278096F807E085F805E096F801C085F806C0D1
S3150801279096F8028085F8078096F8039085F80890E0
S315080127A096F804A085F809A096F805B0104C85F8A6
S315080127B00AB0B079E8721946A071234608220120A9
S315080127C0277084F805B084F804A084F8039084F887
S315080127D0028084F801C084F807E003B0BDE8F04F31
S315080127E011F0EEBD0000F03F30C2002018BC0020F9
S315080127F0F806002010C100204B780BB901234B7055
S315080128000B7833B100230B7003701946032013F0BC
S31508012810E7BC01230B7003701946032013F0E0BCD3
S315080128202DE9F04F85B00E9D109C002800F03181EE
S31508012830217809B9012121701F46129B188816466D
S3150801284018F002FA8046894602460B463046394652
S3150801285018F0C8FC08B100232B7042464B46304697
S31508012860394618F0C9FC002800F025811799AF4BA5
S315080128700022D1E9000118F0C9FCA378002800F06C
S315080128802E810BB90123A370A94B3046D3E9002346
S31508012890394618F08DF8129B80461888894618F033
S315080128A0C3F90022A34B82468B4618F081F84246AB
S315080128B04B4618F07BF800220023CDE9000118F0F9
S315080128C091FC002800F01581199B93F800A0179B2D
S315080128D04FEACA1A5FFA8AFA85F805A0D3E9000110
S315080128E018F0F0FC00015FFA80FB119B85F806B031
S315080128F0D3E9000118F0E6FC139B139A5044584497
S3150801290018702B7853702B7893702B78D3702B789B
S3150801291013712B7853712B7893712B78D3710F9B85
S31508012920159A5B681360129B188818F07DF9424660
S315080129304B4618F03BF8002200238046894618F0DA
S3150801294051FC002840F0D2807B4BD3E900AB002232
S3150801295000235046594618F045FC002840F0E2800D
S3150801296052465B4640464946FDF7CEFB0023002208
S3150801297018F038FC4FF0010300B90346DBB2AB701F
S3150801298018996A4B0022D1E9000118F03FFC00288A
S3150801299000F09C8063780BB901236370674B30465E
S315080129A0D3E90023394618F003F8129B064618881E
S315080129B00F4618F039F900225E4B8046894617F012
S315080129C0F7FF32463B4617F0F1FF00220023824605
S315080129D08B4618F007FC002800F0B480199B18787C
S315080129E0189BC0015FFA80F885F80380D3E90001D6
S315080129F018F068FC0001C4B2119B2C71D3E90001DF
S31508012A0018F060FC149B149A2044404418702B78E3
S31508012A1053702B7893702B78D3702B7813712B788E
S31508012A2053712B7893712B78D3710F9B169A1B6868
S31508012A301360129B188818F0F7F832463B4617F0D0
S31508012A40B5FF002200238046894618F0CBFB0028F3
S31508012A5040F092803A4BD3E90067002200233046C2
S31508012A60394618F0BFFB002840F0838032463B46C2
S31508012A7040464946FDF748FB0023002218F0B2FB01
S31508012A804FF0010300B90346DBB26B7005B0BDE830
S31508012A90F08F2378002BF9D0A3780BB1A870A0701A
S31508012AA063780BB1002363700023AB706B702370DE
S31508012AB005B0BDE8F08FA378A3B942464B46304628
S31508012AC0394618F099FB00287FF45AAF6378002B32
S31508012AD0DCD000236B70637005B0BDE8F08F002B66
S31508012AE03FF44EAF0023AB70A370E6E70123AB704A
S31508012AF046E7114B93ED007B0022002351EC170B9F
S31508012B008DED027B18F06EFB00284AD042464B46F3
S31508012B105046594617F04AFF0022002318F062FB77
S31508012B200028E3D10023AB702AE700BF00001C4050
S31508012B30A00000200000F03F70000020A80000203F
S31508012B4090000020204B93ED007B0022002351ECDE
S31508012B50170B8DED007B18F045FB80B132463B46DD
S31508012B604046494617F022FF0022002318F03AFB97
S31508012B7010B900236B7089E701236B7086E7DDE9DD
S31508012B80002350465946FDF7BFFA0022002318F0E4
S31508012B9029FB00287FF422AF129B188818F044F805
S31508012BA04BE7DDE90223DDE90001FDF7ADFA002275
S31508012BB0002318F017FB00287FF486AE129B1888AD
S31508012BC018F032F8B3E600BF900000200B791BB16C
S31508012BD00023C37103720B714B7843B1CB7813B1E0
S31508012BE000238370CB708B7843B900234B70002385
S31508012BF08370C371437003720B70704700238B7027
S31508012C00F3E700BF2DE9F04F9BB016462F9A1392B2
S31508012C10309A1492319A1592329A16921F46339A1D
S31508012C20299B10930B922B9B349A0A930C922C9BFB
S31508012C30359A11930D922D9B369A129326AC249DA3
S31508012C40DDF89480DDF8A8B02E9B0E9294E8100664
S31508012C50379A0F92389A1792002840D022780AB9E3
S31508012C6001222270CDE91867D3E900670022304BAB
S31508012C703046394618F0B6FA4FF0010E002833D01F
S31508012C803046394600222A4B5FFA8EF618F0AAFA20
S31508012C90002832D023791BB10023EB712B722371E3
S31508012CA00F9B2F930E9B2E930D9B2D930C9B2C9371
S31508012CB00B9B2B930A9B2A93DDE918230134304693
S31508012CC02694CDF8A4B0CDF8A0A0CDF89C90CDF867
S31508012CD0948024951BB0BDE8F04FFFF7A1BD23787A
S31508012CE023B91BB0BDE8F08F8646C9E721462846B9
S31508012CF01BB0BDE8F04FFFF769BF179A0992169AFC
S31508012D000892159A0792149A0692139A0592129A9C
S31508012D100492119A0392231D109A02928DE80804CF
S31508012D20EA1D08F10803DDE91801FDF787F9B7E798
S31508012D300000F03F2DE9F04F85B00E9D109C00284C
S31508012D4000F03481217809B9012121701F46129BAF
S31508012D501888164617F078FF8046894602460B46BC
S31508012D603046394618F03EFA20B100232B70159BE0
S31508012D701B786B7042464B463046394618F03CFA8A
S31508012D80002800F025811899AE4B0022D1E90001EF
S31508012D9018F03CFAA378002800F02E810BB901231C
S31508012DA0A370A94B3046D3E90023394617F000FE34
S31508012DB0129B80461888894617F036FF0022A34BD6
S31508012DC082468B4617F0F4FD42464B4617F0EEFD58
S31508012DD000220023CDE9000118F004FA002800F0CA
S31508012DE015811A9B93F800A0189B4FEACA1A5FFA35
S31508012DF08AFA85F806A0D3E9000118F063FA0001FA
S31508012E005FFA80FB119B85F807B0D3E9000118F03A
S31508012E1059FA139B139A5044584418706B78537097
S31508012E202B7893702B78D3702B7813712B78537179
S31508012E302B7893712B78D3710F9B169A5B68136065
S31508012E40129B188817F0F0FE42464B4617F0AEFD66
S31508012E50002200238046894618F0C4F9002840F06C
S31508012E60D2807B4BD3E900AB00220023504659465A
S31508012E7018F0B8F9002840F0E28052465B46404611
S31508012E804946FDF741F90023002218F0ABF94FF046
S31508012E90010300B90346DBB2EB701999694B0022AD
S31508012EA0D1E9000118F0B2F9002800F09C80637896
S31508012EB00BB901236370674B3046D3E900233946C2
S31508012EC017F076FD129B064618880F4617F0ACFEDA
S31508012ED000225E4B8046894617F06AFD32463B461C
S31508012EE017F064FD0022002382468B4618F07AF912
S31508012EF0002800F0B3801A9B1878199BC0015FFA65
S31508012F0080F885F80480D3E9000118F0DBF900019F
S31508012F10C4B2119B6C71D3E9000118F0D3F9149B63
S31508012F20149A2044404418706B7853702B78937028
S31508012F302B78D3702B7813712B7853712B78937167
S31508012F402B78D3710F9B179A1B681360129B1888ED
S31508012F5017F06AFE32463B4617F028FD0022002389
S31508012F608046894618F03EF9002840F091803A4B90
S31508012F70D3E90067002200233046394618F032F9B2
S31508012F80002840F0828032463B4640464946FDF7D6
S31508012F90BBF80023002218F025F94FF0010300B908
S31508012FA00346DBB2AB7005B0BDE8F08F2378002B82
S31508012FB0F9D0A3780BB1E870A07063780BB1002340
S31508012FC063700023EB70AB70237005B0BDE8F08F1A
S31508012FD0A378A3B942464B463046394618F00CF950
S31508012FE000287FF45AAF6378002BDCD00023AB703E
S31508012FF0637005B0BDE8F08F002B3FF44EAF002398
S31508013000EB70A370E6E70123EB7046E7104B93EDEF
S31508013010007B0022002351EC170B8DED027B18F083
S31508013020E1F8002849D042464B465046594617F022
S31508013030BDFC0022002318F0D5F80028E3D10023AF
S31508013040EB702AE700001C40A00000200000F03FBA
S3150801305070000020A800002090000020204B93ED6E
S31508013060007B0022002351EC170B8DED007B18F035
S31508013070B9F880B132463B464046494617F096FCB8
S315080130800022002318F0AEF810B90023AB708AE7C6
S315080130900123AB7087E7DDE9002350465946FDF762
S315080130A033F80022002318F09DF800287FF423AF97
S315080130B0129B188817F0B8FD4CE7DDE90223DDE914
S315080130C00001FDF721F80022002318F08BF80028EB
S315080130D07FF487AE129B188817F0A6FDB4E600BFE9
S315080130E090000020F0B585B00EAC70CC002830D029
S315080130F0287808B9012028701846174600295FD193
S31508013100AB78002B4DD1002F4FD16B78002B45D1D1
S31508013110A37D002B2DD0637D3370A37B7370E37B76
S31508013120B370237CF370637C3371A37C7371E37C86
S31508013130B371237DF371A37D002B2DD1237A00333F
S3150801314018BF012313990B70119B01221A7005B040
S31508013150F0BD2B78002BFAD0AB780BB1A075A8700F
S315080131606B7813B1002323726B7000232B7005B0A3
S31508013170F0BDE3793370237873706378B370A378FD
S31508013180F370E3783371237973716379B371A37932
S31508013190F371A37D002BD1D00123D3E727726F707A
S315080131A0B6E7A175A970002FAFD0129B029301351E
S315080131B001950094DDE90C230A98FDF74BF9A7E779
S315080131C004F10E02129B0293A91C00920191DDE9FA
S315080131D00C23FDF7EDF896E7F0B585B00EAC70CC8B
S315080131E0002830D0287808B90120287018461746D3
S315080131F000295FD1AB78002B4DD1002F4FD16B78C9
S31508013200002B45D1A37D002B2DD0637D3370A37B85
S315080132107370E37BB370237CF370637C3371A37C97
S315080132207371E37CB371237DF371A37D002B2DD1DB
S31508013230237A003318BF012313990B70119B0122BE
S315080132401A7005B0F0BD2B78002BFAD0AB780BB10C
S31508013250A075A8706B7813B1002323726B700023D5
S315080132602B7005B0F0BDE3793370237873706378FA
S31508013270B370A378F370E378337123797371637943
S31508013280B371A379F371A37D002BD1D00123D3E7C1
S3150801329027726F70B6E7A175A970002FAFD0129B80
S315080132A00293013501950094DDE90C230A98FDF78F
S315080132B0D1F8A7E704F10E02129B0293A91C00920A
S315080132C00191DDE90C23FDF773F896E7F0B585B0B2
S315080132D00EAC70CC002830D0287808B901202870A7
S315080132E01846174600295FD1AB78002B4DD1002F20
S315080132F04FD16B78002B45D1A37D002B2DD0637D53
S315080133003370A37B7370E37BB370237CF370637CA8
S315080133103371A37C7371E37CB371237DF371A37D50
S31508013320002B2DD1237A003318BF012313990B7073
S31508013330119B01221A7005B0F0BD2B78002BFAD02B
S31508013340AB780BB1A075A8706B7813B10023237203
S315080133506B7000232B7005B0F0BDE37933702378C9
S3150801336073706378B370A378F370E3783371237954
S3150801337073716379B371A379F371A37D002BD1D0EE
S315080133800123D3E727726F70B6E7A175A970002FDD
S31508013390AFD0129B0293013501950094DDE90C2308
S315080133A00A98FDF757F8A7E704F10E02129B029354
S315080133B0A91C00920191DDE90C23FCF7F9FF96E7B8
S315080133C038B521F000430D4600221946154B04462F
S315080133D017F012FFC8B10022134B2046294617F0F1
S315080133E01FFFA8B90022114B2046294617F022FFD4
S315080133F048B9204629460C4B002217F0D7FABDE8F2
S31508013400384017F02DB8002400252046294638BD36
S3150801341020462946044B002217F0CAFABDE838406F
S3150801342017F0A6B8000030430000E03F0000E0BFF7
S3150801343038B500210446022012F0A0FE1A4B0022DC
S315080134400125C4E98623C4E95623C4E9302384F84F
S31508013450C552FDF7DDFDFEF799FB0021084612F07E
S315080134608DFE2846002112F089FE0021102012F057
S3150801347085FE0021042012F081FE0021122012F09F
S315080134807DFE0021132012F079FE00210E2012F094
S3150801349075FE00210F2012F071FE00210320BDE800
S315080134A0384012F06BBE00BF0000F03F000000007C
S315080134B02DE9F04F2DED068B9346ADF5717D92F80A
S315080134C02A23169382460C4612B901238BF82A330E
S315080134D09BF8C432002B01F0CF8100238BF8C4324C
S315080134E019468AF86C30022012F07AFE9BF8C5322A
S315080134F0002B00F00F879BF8263313B901238BF8AD
S315080135002633DDF824341B78002B42F0E086DDF8FB
S3150801351028341D78003518BF0125DDF80034D3E9B4
S3150801352000670022B24B3046394617F05BFE48B9B0
S3150801353000224FF080433046394617F053FE0028E3
S3150801354002F021879BF8E232002B02F02E879BF8C6
S315080135502733002B02F03187002D46F018829BF89D
S31508013560E232B3B1DDF8081400224FF08043C1E915
S315080135700023DDF80424B4F87835138094F89935D6
S315080135808BF8B4329BF8E2321BB1994B0022CBE996
S315080135900823DDF82424964900231370DDF828242E
S315080135A000260027002013708BF8E232CBE99A67D0
S315080135B0CAE9000100230022DAE9000117F012FE28
S315080135C04FF0010300B90346DBE99A678BF8C53268
S315080135D03046884B3946002217F022FE4FF0010388
S315080135E000B903468BF8E2320022824B304639464F
S315080135F017F016FE002809F085807F4B0022CBE9DB
S315080136009A239BF8B43207EE903AF8EEE77ADDF89A
S315080136100434F5EE407AF1EE10FA18880CBF774FAC
S31508013620774F17F011FB002602460B4630463946FE
S3150801363017F0D8FDB8B1DDF80424002313809BF8F0
S31508013640B452284617F000FB04F5AE63D3E900230C
S3150801365017F0D2FD6B4B002802F03C8601351D7030
S315080136601B788BF8B4329BF8C5529BF8E332002DD0
S3150801367040F0638613B901238BF8E332DDF8003491
S31508013680D3E9008900225A4B4046494617F0AAFD5C
S31508013690002801F0FD809BF8F93213B901238BF854
S315080136A0F9329BF8B43207EE903AB8EEE79A9BF8EE
S315080136B01733B5EE409AF1EE10FA43F02D8013B99F
S315080136C001238BF81733DDF80434DFED4F9AB3F88D
S315080136D0008007EE908AF8EEE78A08EE108AF4EE83
S315080136E0E98AF1EE10FAC0F20B81404617F0ACFAFE
S315080136F004F59A63D3E9002317F07EFD002800F04C
S31508013700FF80F4EE698AF1EE10FA40F0F980DDF8EF
S315080137100014374B0022D1E9000117F063FD002898
S315080137204BF09D869BF8D932002B0BF042871C90F3
S31508013730DDF80014354B0022D1E9000117F052FDDE
S3150801374000280BF08E869BF8C832002B0BF0D18629
S315080137501D464FF000099BF8D772002F4EF05D8089
S31508013760234BDBE94801002217F022F9CBE948018E
S3150801377001231893DDF80014254B0022D1E9000135
S3150801378017F030FD00280BF0868600231A93002DCA
S315080137904BF08187DDF808141D4B0022D1E90001A1
S315080137A017F020FD00280CF01E84DDF80014184BD4
S315080137B00022D1E9000117F015FD00280BF0148647
S315080137C01E952E46DDF80814094B0022D1E90001A1
S315080137D017F008FDF0B1DDF80014054B0022D1E918
S315080137E0000117F0FFFC00280BF05A8712E000BF12
S315080137F00000F03F002092400000F0BF00308140F9
S31508013800001083403AC100200000EB43000010403D
S315080138100000084000231C9A002A4BF0C485189A18
S31508013820002A4BF097841A9A002A4BF09384B9F12F
S31508013830000F4BF08F84002B4BF08C84002E4BF03D
S3150801384089841E9B002B18BF0127DBE99201BF4B18
S315080138508BF8C672C3E90001D3E90023CBE99223A9
S31508013860189B002B0BF0ED85B94B0022DBE994017F
S3150801387017F09EF8B74BC3E90001D3E90023CBE95A
S3150801388094231A9B002B0BF0D585B14B0022DBE95B
S31508013890960117F08DF8B04BC3E90001D3E900236F
S315080138A0CBE99623B9F1000F0BF0D285A84B00227C
S315080138B0DBE9980117F07CF8A84BC3E90001D3E9C5
S315080138C00023CBE9982395B9DDF80034DDF808140F
S315080138D0D3E90023D1E9000117F084FC38B9DBE903
S315080138E04C0100229A4B17F063F8CBE94C01DDF83D
S315080138F0402401231370DDF804341B8808EE103ABE
S31508013900DFED979AB8EEC8AAB4EEE9AAF1EE10FA75
S31508013910C0F2E58318EE100A17F096F904F59B63D1
