S02300002E2E2F48414E636F6465725F453430375F5454415F47726F7570322E737265636D
S31508004000E4D60020457B02080000000000000000FE
S315080040100000000000000000000000000000000092
S3150800402000000000000000000000000035490208FA
S315080040300000000000000000D1490208214A0208D9
S315080040400000000000000000000000000000000062
S315080040500000000000000000000000000000000052
S3150800406000000000115702080000000000000000D0
S315080040700000000000000000000000000000000032
S315080040800000000000000000000000005D3D02087E
S31508004090153D0208393D0208813D0208000000006E
S315080040A0FD560208E9560208D5560208C556020802
S315080040B0B15602089D5602088956020800000000FB
S315080040C000000000000000000000000000000000E2
S315080040D000000000156102082D610208456102080A
S315080040E000000000000000000D6202080000000049
S315080040F0755602086156020851560208000000006B
S3150800410000000000756102080000000000000000C1
S315080041100000000000000000000000000000000091
S31508004120000000000000000000000000796102089D
S31508004130000000004157020800000000ED3D02089B
S31508004140A53D0208C93D0208113E02083D62020863
S315080041500000000000000000000000005D61020889
S315080041600000000000000000000000000000000041
S315080041700000000000000000000000000000000031
S311080041800000000000000000EE11AA5527
S3150800C0000000000000000000000000000000494099
S3150800C010000000000080514000000000000052406F
S3150800C0200000000000805640000000000000574055
S3150800C0300000000000805B40000000000000644033
S3150800C0400000000000806640000000000000694013
S3150800C0500000000000406F400000000000806F40B4
S3150800C0600000000000E07040000000000020724060
S3150800C0700000000000407540000000000080764087
S3150800C0800000000000C077400000000000E07A4091
S3150800C0900000000000207C400000000000607D4099
S3150800C0A00000000000A07E400000000000E07F4085
S3150800C0B00000000000908040000000000000000022
S3150800C0C000000000000049400000000000805140C8
S3150800C0D000000000000052400000000000805640AA
S3150800C0E000000000008061400000000000C06140C0
S3150800C0F000000000000064400000000000406A40A4
S3150800C1000000000000806A400000000000C06C408B
S3150800C1100000000000406F400000000000E0704092
S3150800C1200000000000007440000000000020744079
S3150800C13000000000004075400000000000807640C6
S3150800C1400000000000A079400000000000E07A40EE
S3150800C1500000000000F07A400000000000107B405C
S3150800C1600000000000207C400000000000407F40E6
S3150800C1700000000000607F40000000000040804092
S3150800C1800000000000D081400000000000E081406F
S3150800C190000000000070824000000000008082401D
S3150800C1A00000000000000000000000000000F03F52
S3150800C1B0000000000000F03F000000000000F03F13
S3150800C1C0000000000000F03F000000000000F03F03
S3150800C1D00000000000000000000000000000F03F22
S3150800C1E0000000000000F03F000000000000000012
S3150800C1F0000000000000F03F000000000000F03FD3
S3150800C200000000000000F03F0000000000000000F1
S3150800C210000000000000F03F000000000000F03FB2
S3150800C2200000000000000000000000000000F03FD1
S3150800C230000000000000F03F000000000000F03F92
S3150800C240000000000000F03F000000000000F03F82
S3150800C250000000000000F03F0000000000000000A1
S3150800C260000000000000F03F000000000000F03F62
S3150800C270000000000000F03F000000000000000081
S3150800C280000000000000F03F000000000000F03F42
S3150800C2900000000000000000000000000000F03F61
S3150800C2A0000000000000F03F000000000000F03F22
S3150800C2B0000000000000F03F000000000000000041
S3150800C2C0000000000000F03F000000000000F03F02
S3150800C2D0000000000000F03F000000000000000021
S3150800C2E0000000000000F03F000000000000F03FE2
S3150800C2F0000000000000F03F000000000000F03FD2
S3150800C3000000000000000000000000000000F03FF0
S3150800C310000000000000F03F0000000000000000E0
S3150800C320000000000000F03F000000000000F03FA1
S3150800C330000000000000F03F000000000000F03F91
S3150800C34000000101010001000101000000010001D7
S3150800C35000000000001083400000000000408040FC
S3150800C3600000000000C06C40000000000080514042
S3150800C3700000000000805640000000000000494010
S3150800C3800000000000407F400000000000406A40B6
S3150800C390000000002DB2BD3F000000000000304044
S3150800C3A0000000000000B03F000000000000304020
S3150800C3B0000000000000B03F000000000000304010
S3150800C3C0000000000000B03F000000000000304000
S3150800C3D0000000000000B03F000000000000C03F61
S3150800C3E00000000000002040000000000000C03FE0
S3150800C3F00000000000002040000000000000C03FD0
S3150800C4000000000000002040000000000000C03FBF
S3150800C41000000000000020400000000000E070401E
S3150800C420000000000090804000000000008051409D
S3150800C43000000000008056400000000000806640B2
S3150800C44000000000000049400000000000C06C40E9
S3150800C4500000000000108340000000000000644057
S3150800C4600000000000805140000000000080564097
S3150800C4700000000000004940000000000080614004
S3150800C480000000000000903F00000000000050403F
S3150800C490000000000000C03F00000000000020402F
S3150800C4A0000000000000903F00000000000050401F
S3150800C4B00000000000805B40000000000090804003
S3150800C4C00000000000805140000000000080564037
S3150800C4D000000000000049400000000000207240F3
S3150800C4E00000000000406F400000000000E07040BF
S3150800C4F00000000000708240000000000010834029
S3150800C50000000000008076400000000000E07A404D
S3150800C51000000000004080400000000000C06C40A1
S3150800C5200000000000006440000000000080514048
S3150800C5300000000000207C400000000000805640FB
S3150800C540000000000000494000000000002077407D
S3150800C5500000000000A079400000000000407F4075
S3150800C5600000000000406A400000000000806140B2
S3150800C5700000000000D08140000000000000F03FED
S3150800C580000000000000F03F000000000000F03F3F
S3150800C590000000000000F03F000000000000F03F2F
S3150800C5A0000000000000F03F000000000000F03F1F
S3150800C5B0000000000000F03F000000000000F03F0F
S3150800C5C0000000000000F03F000000000000F03FFF
S3150800C5D0000000000000F03F000000000000F03FEF
S3150800C5E0000000000000F03F000000000000F03FDF
S3150800C5F0000000000000F03F000000000000F03FCF
S3150800C600000000000000F03F000000000000F03FBE
S3150800C610000000000000F03F000000000000F03FAE
S3150800C620000000000000F03F000000000000F03F9E
S3150800C630000000000000F03F00000000000030404D
S3150800C640000000000000B03F00000000000030407D
S3150800C650000000000000B03F00000000000030406D
S3150800C660000000000000B03F00000000000030405D
S3150800C670000000000000B03F00000000000030404D
S3150800C680000000000000B03F00000000000030403D
S3150800C690000000000000B03F00000000000030402D
S3150800C6A0000000000000B03F00000000000030401D
S3150800C6B0000000000000B03F0000000000005040ED
S3150800C6C0000000000000903F0000000000005040FD
S3150800C6D0000000000000903F00000000000020401D
S3150800C6E0000000000000C03F0000000000002040DD
S3150800C6F0000000000000C03F0000000000002040CD
S3150800C700000000000000C03F0000000000002040BC
S3150800C710000000000000C03F0000000000002040AC
S3150800C720000000000000C03F000000002DB2BD3F21
S3150800C730000000000000903F00000000000050408C
S3150800C740000000000000C03F00000000000020407C
S3150800C750000000000000903F00000000000050406C
S3150800C760000000000000B03F00000000000030405C
S3150800C770000000000000B03F00000000000030404C
S3150800C780000000000000B03F00000000000030403C
S3150800C790000000000000B03F00000000000030402C
S3150800C7A00000000000A07E400000000000E07F407E
S3150800C7B0000000000030814000000000009080402A
S3150800C7C00000000000805140000000000080564034
S3150800C7D00000000000805B40000000000000694087
S3150800C7E00000000000806640000000000020724043
S3150800C7F00000000000E070400000000000C0774024
S3150800C80000000000008076400000000000607D40C7
S3150800C8100000000000207C400000000000004940A5
S3150800C8200000000000E07A400000000000006440BC
S3150800C8300000000000406F40000000000040754006
S3150800C840000000000000F03F0000000000000000AB
S3150800C85000000000000000000000000000000000CA
S3150800C86000000000000000010000010001000000B7
S3150800C87001000000010000000100000000000000A7
S3150800C8801600000016000000160000001600000042
S3150800C890000000001900000019000000190000003F
S3150800C8A0190000000000000000000100010000005F
S3150800C8B00100000001000000010000000000000067
S3150800C8C00100000001000000010000000100000056
S3150800C8D0000000001500000015000000150000000B
S3150800C8E01500000000000000000001000100000023
S3150800C8F00100000001000000010000000000000027
S3150800C9000100000001000000010000000100000015
S3150800C91000000000150000001500000015000000CA
S3150800C92015000000000000001600000016000000B8
S3150800C93016000000160000000000000019000000A4
S3150800C940190000001900000019000000000000008E
S3150800C95000000000000010C0000000000000B03F0A
S3150800C960000000000000304000000000000010C079
S3150800C970000000000000B03F00000000000030404A
S3150800C98000000000000010C0000000000000B03FDA
S3150800C990000000000000304000000000000010C049
S3150800C9A0000000000000B03F00000000000030401A
S3150800C9B01800000018000000180000001800000009
S3150800C9C0000000000000000000000000000010C089
S3150800C9D0000000000000B03F0000000000003040EA
S3150800C9E000000000000010C0000000000000B03F7A
S3150800C9F0000000000000304000000000000010C0E9
S3150800CA00000000000000B03F0000000000003040B9
S3150800CA1000000000000010C0000000000000B03F49
S3150800CA20000000000000304017000000170000005A
S3150800CA301700000017000000000000001F0000009B
S3150800CA401F0000001F0000001F000000000000007B
S3150800CA500E0000000E0000000E0000000E00000090
S3150800CA60000000000D0000000D0000000D00000091
S3150800CA700D000000000000000C0000000C00000083
S3150800CA800C0000000C000000000000000B00000075
S3150800CA900B0000000B0000000B0000000000000067
S3150800CAA00100000001000000010000000100000074
S3150800CAB000000000000000006464640048414E6302
S3150800CAC06F6465725F453430375F5454415F47720F
S3150800CAD06F7570325F736F66747761726549445F0C
S3150800CAE076315F3038303632325F3136333731336C
S3150800CAF04170704374726C5461736B0048414E63A5
S3150800CB006F6465725F453430375F5454415F4772CE
S3150800CB106F7570322E63000020000000001402407A
S3150800CB2008000900200000000014024010000E0052
S3150800CB30200000000014024020000F002000000022
S3150800CB4000140240400004002000000000140240C7
S3150800CB5080000500200000000014024000010600C5
S3150800CB602000000000140240000207002000000018
S3150800CB7000140240000408000400000000080240F7
S3150800CB8001000A00040000000008024004000C002E
S3150800CB90414443636F6E76657273696F6E54617351
S3150800CBA06B0000002E2E2F626C6F636B7365742FFB
S3150800CBB07274772F53544D33322F7372632F68650F
S3150800CBC061705F342E630000546D724370754C6F4C
S3150800CBD06164000049444C45000000002E2E2F6277
S3150800CBE06C6F636B7365742F7274772F53544D3360
S3150800CBF0322F7372632F7461736B732E6300000098
S3150800CC002E2E2F626C6F636B7365742F7274772F79
S3150800CC1053544D33322F7372632F74696D65727373
S3150800CC202E630000546D72205376630043616E458F
S3150800CC3076656E745461736B0000000043616E5430
S3150800CC4072616E736D69745461736B002E2E2F6258
S3150800CC506C6F636B7365742F7274772F53544D33EF
S3150800CC60322F7372632F53544D33325F4534303746
S3150800CC702F63616E2E63000000640040000000020E
S3150800CC8008000000000C0240010000000800000037
S3150800CC90000C0240020001000913141516000000DA
S3150800CCA00068004000000004020000000004024082
S3150800CCB020000500020000000004024040000600B3
S3150800CCC0093F40414200000001010201020202023E
S3150800CCD00203020204020203030304030305030317
S3150800CCE006030305040406040407040408040407E9
S3150800CCF005050805050806050807050807060808BE
S3150800CD000608080708080800457643686E6C31006F
S3150800CD10457643686E6C3200457643686E6C330020
S3150800CD202E2E2F626C6F636B7365742F7274772F58
S3150800CD3053544D33322F7372632F53544D33325F2E
S3150800CD40453430372F6D61632E6300002E2E2F6217
S3150800CD506C6F636B7365742F7274772F53544D33EE
S3150800CD60322F7372632F53544D33325F4534303745
S3150800CD702F706F72742E63000000014001000000DE
S3150800CD800201000010000000001002400002090025
S3150800CD90100000000010024000080B0000040040CC
S3150800CDA0020000000102000001000000000002402D
S3150800CDB040000600020000000004024020000500B2
S3150800CDC000080040040000000102000008000000FE
S3150800CDD0000C024000100C0008000000000C024085
S3150800CDE000200D00000401400200000002030000BC
S3150800CDF0040000000008024040000600040000008D
S3150800CE000008024080000700000001400100000001
S3150800CE1002011900000000400100000001021C0088
S3150800CE20000400400200000001021D000008004046
S3150800CE300400000001021E00000401400200000078
S3150800CE4002012C0000400140000001000201180008
S3150800CE500044014000000200020119000048014098
S3150800CE600000040002011A00001C004080000000B7
S3150800CE7001022C00002000400001000001022D00E4
S3150800CE800400000000080240010000002000000025
S3150800CE900014024040000000200000000014024078
S3150800CEA0800000002000000000140240000100007D
S3150800CEB020000000001402400002000020000000CC
S3150800CEC000140240000400000200000000040240B2
S3150800CED0800000000200000000040240400000003C
S3150800CEE010000000001002400400000010000000BE
S3150800CEF00010024010000000100000000010024060
S3150800CF002000000010000000001002404000000051
S3150800CF1040000000001802408000000040000000A9
S3150800CF2000180240000100004000000000180240FE
S3150800CF3000100000400000000018024000800000B9
S3150800CF40010000000000024010000000020000007E
S3150800CF50000402402000000001000000000002401A
S3150800CF604000000001000000000002402000000010
S3150800CF7008000000000C0240010000000800000044
S3150800CF80000C02400200000008000000000C0240ED
S3150800CF900400000008000000000C02400800000021
S3150800CFA008000000000C0240100000000800000005
S3150800CFB0000C02402000000008000000000C02409F
S3150800CFC04000000008000000000C0240800000003D
S3150800CFD008000000000C02400001000008000000E4
S3150800CFE0000C02400002000008000000000C02408D
S3150800CFF00004000008000000000C024000080000C1
S3150800D00008000000000C02400010000008000000A4
S3150800D010000C02400020000008000000000C02403E
S3150800D0200040000008000000000C024000800000DC
S3150800D030100000000010024001000000100000006F
S3150800D040001002400200000010000000001002401C
S3150800D05008000000100000000010024080000000D8
S3150800D060100000000010024000010000100000003F
S3150800D07000100240000200001000000000100240EC
S3150800D0800004000010000000001002400008000024
S3150800D0901000000000100240001000001000000000
S3150800D0A0001002400020000010000000001002409E
S3150800D0B00040000010000000001002400080000040
S3150800D0C020000000001402400100000020000000BB
S3150800D0D00014024002000000200000000014024074
S3150800D0E004000000200000000014024008000000B0
S3150800D0F0200000000014024010000000200000007C
S3150800D1000014024020000000200000000014024025
S3150800D1100008000020000000001402400010000073
S3150800D120200000000014024000200000200000003B
S3150800D13000140240004000002000000000140240D5
S3150800D14000800000400000000018024001000000B6
S3150800D15040000000001802400200000040000000E5
S3150800D16000180240040000004000000000180240B9
S3150800D17008000000400000000018024010000000EF
S3150800D1804000000000180240200000004000000097
S3150800D190001802404000000040000000001802404D
S3150800D1A000020000400000000018024000040000D1
S3150800D1B0400000000018024000080000400000007F
S3150800D1C0001802400020000040000000001802403D
S3150800D1D000400000010000000000024001000000BD
S3150800D1E004000000000802400100000020000000C2
S3150800D1F00014024040000000200000000014024015
S3150800D2008000000020000000001402400001000019
S3150800D2102000000000140240000200002000000068
S3150800D220001402400004000002000000000402404E
S3150800D23080000000020000000004024040000000D8
S3150800D240100000000010024004000000100000005A
S3150800D25000100240100000001000000000100240FC
S3150800D26020000000100000000010024040000000EE
S3150800D2704000000000180240800000004000000046
S3150800D280001802400001000040000000001802409B
S3150800D2900010000040000000001802400080000056
S3150800D2A0010000000000024010000000020000001B
S3150800D2B000040240200000000100000000000240B7
S3150800D2C040000000010000000000024020000000AD
S3150800D2D008000000000C02400100000008000000E1
S3150800D2E0000C02400200000008000000000C02408A
S3150800D2F00400000008000000000C024008000000BE
S3150800D30008000000000C02401000000008000000A1
S3150800D310000C02402000000008000000000C02403B
S3150800D3204000000008000000000C024080000000D9
S3150800D33008000000000C0240000100000800000080
S3150800D340000C02400002000008000000000C024029
S3150800D3500004000008000000000C0240000800005D
S3150800D36008000000000C0240001000000800000041
S3150800D370000C02400020000008000000000C0240DB
S3150800D3800040000008000000000C02400080000079
S3150800D390100000000010024001000000100000000C
S3150800D3A000100240020000001000000000100240B9
S3150800D3B00800000010000000001002408000000075
S3150800D3C010000000001002400001000010000000DC
S3150800D3D00010024000020000100000000010024089
S3150800D3E000040000100000000010024000080000C1
S3150800D3F0100000000010024000100000100000009D
S3150800D400001002400020000010000000001002403A
S3150800D41000400000100000000010024000800000DC
S3150800D4202000000000140240010000002000000057
S3150800D4300014024002000000200000000014024010
S3150800D440040000002000000000140240080000004C
S3150800D4502000000000140240100000002000000018
S3150800D46000140240200000002000000000140240C2
S3150800D4700008000020000000001402400010000010
S3150800D48020000000001402400020000020000000D8
S3150800D4900014024000400000200000000014024072
S3150800D4A00080000040000000001802400100000053
S3150800D4B04000000000180240020000004000000082
S3150800D4C00018024004000000400000000018024056
S3150800D4D0080000004000000000180240100000008C
S3150800D4E04000000000180240200000004000000034
S3150800D4F000180240400000004000000000180240EA
S3150800D500000200004000000000180240000400006D
S3150800D510400000000018024000080000400000001B
S3150800D52000180240002000004000000000180240D9
S3150800D530004000000400000000080240002000002F
S3150800D540000001400100000002011B00000000402D
S3150800D5500100000001021C00000400400200000057
S3150800D56001021D00000800400400000001021E0020
S3150800D570000401400200000002012E0000400140A4
S3150800D58000000100020118000044014000000200EA
S3150800D59002011900004801400000040002011A00B7
S3150800D5A0001C00408000000001022C000020004002
S3150800D5B00001000001022D001000000000100240CA
S3150800D5C0000200000200020001000900100000002D
S3150800D5D000100240000800010400200001000B00B2
S3150800D5E0100000000010024000200002080000029F
S3150800D5F001000D001000000000100240004000036A
S3150800D6001000002001000E0001000000000002408A
S3150800D61020000100020002000100050001000000D0
S3150800D620000002404000020002000200020006005C
S3150800D630020000000004024020000201040020004D
S3150800D6400200050008000000000C0240001003005C
S3150800D6500200020002000C0008000000000C024054
S3150800D660002003010400200002000D000400000051
S3150800D6700008024040000400020002000300060001
S3150800D6800400000000080240800004010400200095
S3150800D69003000700100000000010024020000500EB
S3150800D6A002000200030005001000000000100240FE
S3150800D6B040000501040020000300060020000000C9
S3150800D6C000140240400006000200020003000600A3
S3150800D6D0200000000014024080000700020002003B
S3150800D6E003000700200000000014024000010800A3
S3150800D6F00200020009000800200000000014024091
S3150800D7000002090002000200090009000010014099
S3150800D710100000000225000002000000000402407C
S3150800D72040000600020000000004024080000700D6
S3150800D7300700000000440040000002000126000027
S3150800D74008000000000C0240200005000800000048
S3150800D750000C024040000600070000000048004098
S3150800D760000004000127000008000000000C024029
S3150800D7700001080008000000000C02400002090031
S3150800D78007000000001401402000000002470000C6
S3150800D79004000000000802404000060004000000E3
S3150800D7A00008024080000700080000005643502089
S3150800D7B0436F6E666967000056435020496E74656C
S3150800D7C0726661636500000053544D6963726F6544
S3150800D7D06C656374726F6E696373000053544D33DE
S3150800D7E032205669727475616C20436F6D506F7282
S3150800D7F07420696E204853206D6F64650000000030
S3150800D80053544D3332205669727475616C20436FD8
S3150800D8106D506F727420696E204653204D6F646593
S3150800D8200000000030303030303030303035304293
S3150800D8300000000030303030303030303035304382
S3150800D84000000000000001400100000002011B006A
S3150800D850000000400100000001021C000004004016
S3150800D8600200000001021D0000080040040000003C
S3150800D87001021E00000401400200000002012E0001
S3150800D8800040014000000100020118000044014068
S3150800D89000000200020119000048014000000400CF
S3150800D8A002011A00001C00408000000001022C0042
S3150800D8B0002000400001000001022D0010000000B9
S3150800D8C000100240000200000200020001000900E8
S3150800D8D010000000001002400008000104002000AB
S3150800D8E001000B001000000000100240002000029A
S3150800D8F00800000201000D001000000000100240A0
S3150800D900004000031000002001000E000100000086
S3150800D910000002402000010002000200010005008C
S3150800D9200100000000000240400002000200020060
S3150800D9300200060002000000000402402000020166
S3150800D940040020000200050008000000000C024048
S3150800D950001003000200020002000C00080000008C
S3150800D960000C0240002003010400200002000D0004
S3150800D9700400000000080240400004000200020003
S3150800D98003000600040000000008024080000401AD
S3150800D99004002000030007001000000000100240E9
S3150800D9A02000050002000200030005001000000028
S3150800D9B00010024040000501040020000300060094
S3150800D9C02000000000140240400006000200020089
S3150800D9D00300060020000000001402408000070033
S3150800D9E002000200030007002000000000140240A5
S3150800D9F000010800020002000900080020000000DB
S3150800DA000014024000020900020002000900090091
S3150800DA102E2E2F626C6F636B7365742F7274772F5B
S3150800DA2053544D33322F7372632F71756575652E96
S3150800DA30630000000404040048DA000850DA00080D
S3150800DA4058DA000807070700457643686E6C310008
S3150800DA50457643686E6C3200457643686E6C3300D3
S3150800DA6050505000666D6F64000000000000000012
S3150800DA700000000000000000000000000000008018
S3090800DA804300000051
S315080100000B78FF2B00D070474B78002BFBD112F0F1
S3150801001011B800BF08B5012011F0FAFA034A40F2F7
S3150801002067610020BDE8084014F05AB801000108CC
S31508010030002011F071B900BF704700BF2DE9F047E4
S31508010040DDF820E0099E9EF800C004460D4692465A
S315080100501F46BCF1000F02D101238EF8003030880B
S315080100601AF00EFA22462B46804689461AF0D6FC25
S31508010070E0B10E9A3B6813600D9A7B6813600C9A7F
S31508010080BB7A1370109A3B7A13700B9AFB7A13702A
S315080100900F9A7B7A13700A9A002313605360119A98
S315080100A0137030881AF0ECF98046894642464B4669
S315080100B0204629461AF0BCFC68B10B9B1B78D3B9BC
S315080100C001238AF800300C9B1B787BB901238AF837
S315080100D00130BDE8F087002642464B4620462946B0
S315080100E08AF800601AF0A4FC0028ECD100238AF8EB
S315080100F00130BDE8F08700238AF800300C9B1B7895
S31508010100002BF3D1E2E700BF2DE9F04F83B0164685
S315080101101F4682468B4619F0CFFE0022002304466D
S315080101200D461AF07BFCD8BB8046002200232046E8
S3150801013029465FFA88F81AF071FC50B930463946F3
S3150801014019F032FE02460B46304639461AF08EFC45
S3150801015090BBB8F1000F5FD15046594600220023E3
S315080101604FF001091AF064FC20B30023002230463F
S3150801017039461AF05DFC4FF00103A0B15FFA89F91F
S31508010180DBB2994507D02046294632463B461AF046
S315080101902BF804460D462046294603B0BDE8F08FE4
S315080101A04FF00108C1E703465FFA89F9DBB29945C1
S315080101B0E9D1F0E7C146D8E732463B4650465946AB
S315080101C01AF0EEFA21F000490022194B49468046F9
S315080101D01AF00AF819F0E8FD02460B464046494668
S315080101E01AF000F80B46024623F0004340460092F7
S315080101F0019300220F4B49461AF0A8F902460B460D
S31508010200DDE900011AF01EFC4FF0010858B15FFA4A
S3150801021088F8B8F1000F9FD000240025204629460A
S3150801022003B0BDE8F08F80465FFA88F8F1E700BFB2
S315080102300000E03F0000B03C2DE9F0410999089C17
S3150801024091F800E0DDF82880054616461F46BEF1FE
S31508010250000F01D101230B702B785B00DBB25A0921
S3150801026007EE902AB8EEE77AF7EE007AB4EEE77A67
S31508010270F1EE10FAA372227307DDD8E90001002214
S315080102801B4B19F0B1FFC8E900012878C009607352
S315080102902B781B01DBB24FEA1318637284F80B80C3
S315080102A01AF0EEF832463B461AF0B8FB50B1404612
S315080102B01AF0E6F8DDE906231AF0B0FB4FF0010360
S315080102C098B1D8B220726B782370AB786370EB78EB
S315080102D0A3702B79E3706B792371AB796371EB7931
S315080102E0A3710023E371BDE8F0810346E9E700BF86
S315080102F00000F03F2DE9F0410999089C91F800E0CA
S31508010300DDF82880054616461F46BEF1000F01D1C5
S3150801031001230B702B785B00DBB25A0907EE902A92
S31508010320B8EEE77AF7EE007AB4EEE77AF1EE10FA6C
S31508010330A372227307DDD8E9000100221B4B19F0CD
S3150801034053FFC8E900012878C00960732B781B019F
S31508010350DBB24FEA1318637284F80B801AF090F82F
S3150801036032463B461AF05AFB50B140461AF088F815
S31508010370DDE906231AF052FB4FF0010398B1D8B212
S3150801038020726B782370AB786370EB78A3702B7946
S31508010390E3706B792371AB796371EB79A3710023F0
S315080103A0E371BDE8F0810346E9E700BF0000F03FCD
S315080103B02DE9F0410799069C91F800E0DDF82080C7
S315080103C0054616461F46BEF1000F01D101230B70E3
S315080103D02B785B00DBB25A0907EE902AB8EEE77A6A
S315080103E0F7EE007AB4EEE77AF1EE10FAA372227309
S315080103F007DDD8E900010022154B19F0F5FEC8E919
S3150801040000016B782370AB786370EB78A3702B7956
S31508010410E3706B792371AB796371EB79A37100236F
S31508010420E3712B781B01DBB218096372E0721AF0CB
S3150801043027F83B4632461AF0F1FA4FF0010300B9A4
S31508010440034623722B78DB096373BDE8F08100BF8D
S315080104500000F03F2DE9F0410799069C91F800E06C
S31508010460DDF82080054616461F46BEF1000F01D16C
S3150801047001230B702B785B00DBB25A0907EE902A31
S31508010480B8EEE77AF7EE007AB4EEE77AF1EE10FA0B
S31508010490A372227307DDD8E900010022154B19F072
S315080104A0A3FEC8E900016B782370AB786370EB781B
S315080104B0A3702B79E3706B792371AB796371EB794F
S315080104C0A3710023E3712B781B01DBB21809637250
S315080104D0E07219F0D5FF3B4632461AF09FFA4FF003
S315080104E0010300B9034623722B78DB096373BDE860
S315080104F0F08100BF0000F03F2DE9F04F89B00746B3
S3150801050018999DF8488091F800E09DF84C909DF85F
S3150801051050A09DF85460169D1A9CBEF1000F01D19A
S3150801052001200870DFF830E110461946DEE900239C
S3150801053019F05AFECDE90001384619F091FF00225B
S31508010540434BCDE9020119F04FFEDDE9002319F00D
S3150801055049FE00220023CDE906011AF05FFA0028B8
S3150801056041D01D9B18781C9BC0015FFA80FB85F85A
S3150801057001B0D3E900011AF0C1FA0001C7B2199B0B
S31508010580AF70D3E900011AF0B9FA38445844179BF9
S31508010590207084F8018084F8029084F803A02671FB
S315080105A06671A671E6711B9A1B681360DDE9002363
S315080105B0DDE9020119F016FE00220023804689466C
S315080105C01AF02CFA0446002839D1224BD3E90067E0
S315080105D000220023304639461AF020FAE8B12C7079
S315080105E009B0BDE8F08F1B4B93ED007B0022002379
S315080105F051EC170B8DED047B1AF010FA0028D5D1B2
S31508010600DDE90423DDE90601FFF77EFD002200236B
S315080106101AF004FA0028C9D0A3E732463B464046F9
S315080106204946FFF771FD002200231AF0F7F94FF04A
S31508010630010448B1E4B22C7009B0BDE8F08F012479
S315080106402C7009B0BDE8F08F0446E4B2F3E700BFA9
S315080106500000F03F30000020780000202DE9F04F1F
S3150801066089B0074618999DF8488091F800E09DF8E9
S315080106704C909DF850A09DF85460169D1A9CBEF1A9
S31508010680000F01D101200870DFF830E11046194644
S31508010690DEE9002319F0A8FDCDE90001384619F075
S315080106A0DFFE0022434BCDE9020119F09DFDDDE98C
S315080106B0002319F097FD00220023CDE906011AF05F
S315080106C0ADF9002841D01D9B18781C9BC0015FFA23
S315080106D080FB85F801B0D3E900011AF00FFA000191
S315080106E0C7B2199BAF70D3E900011AF007FA38446B
S315080106F05844179B207084F8018084F8029084F886
S3150801070003A026716671A671E6711B9A1B681360B0
S31508010710DDE90023DDE9020119F064FD0022002369
S31508010720804689461AF07AF90446002839D1224BBF
S31508010730D3E9006700220023304639461AF06EF9DC
S31508010740E8B12C7009B0BDE8F08F1B4B93ED007B27
S315080107500022002351EC170B8DED047B1AF05EF98C
S315080107600028D5D1DDE90423DDE90601FFF7CCFC34
S31508010770002200231AF052F90028C9D0A3E732460D
S315080107803B4640464946FFF7BFFC002200231AF0C4
S3150801079045F94FF0010448B1E4B22C7009B0BDE83F
S315080107A0F08F01242C7009B0BDE8F08F0446E4B23D
S315080107B0F3E700BF0000F03F68000020800000203A
S315080107C02DE9F04F89B080461B999DF8484091F86C
S315080107D000E004949DF84C4005949DF850509DF80E
S315080107E054609DF858709DF85CA09DF860B01D9CFA
S315080107F0BEF1000F01D101200870DFF84CE1104667
S315080108001946DEE9002319F0EFFCCDE9000140465F
S3150801081019F026FE00224A4BCDE9020119F0E4FC43
S31508010820DDE9002319F0DEFC00220023CDE90601EB
S315080108301AF0F4F800284AD0209B1878199BC001B1
S315080108405FFA80F983F801901F9BD3E900011AF03A
S3150801085055F9199B00015FFA80F883F802801C9B01
S31508010860D3E900011AF04AF99DF810306370404443
S315080108709DF81430A37048441A9B2070E5702671C0
S31508010880677184F806A084F807B01E9A1B6813607E
S31508010890DDE90023DDE9020119F0A4FC00220023A9
S315080108A006460F461AF0BAF8804600283CD1254B71
S315080108B0D3E9004500220023204629461AF0AEF85E
S315080108C0E8B1199B83F8008009B0BDE8F08F1D4B8C
S315080108D0D3E9008900220023404649461AF09EF8CA
S315080108E00028D5D142464B46DDE90601FFF70CFC47
S315080108F0002200231AF092F80028C9D09CE7224664
S315080109002B4630463946FFF7FFFB002200231AF033
S3150801091085F84FF0010878B15FFA88F8199B83F8D2
S31508010920008009B0BDE8F08F199B4FF0010883F8E4
S31508010930008009B0BDE8F08F80465FFA88F8EDE7D8
S315080109400000F03F30000020780000202DE9F04F2C
S3150801095089B080461B999DF8484091F800E00494B7
S315080109609DF84C4005949DF850509DF854609DF8AB
S3150801097058709DF85CA09DF860B01D9CBEF1000FF3
S3150801098001D101200870DFF84CE110461946DEE96D
S31508010990002319F029FCCDE90001404619F060FD54
S315080109A000224A4BCDE9020119F01EFCDDE90023BC
S315080109B019F018FC00220023CDE906011AF02EF8D9
S315080109C000284AD0209B1878199BC0015FFA80F944
S315080109D083F801901F9BD3E900011AF08FF8199B40
S315080109E000015FFA80F883F802801C9BD3E90001B5
S315080109F01AF084F89DF81030637040449DF814305D
S31508010A00A37048441A9B2070E5702671677184F8B3
S31508010A1006A084F807B01E9A1B681360DDE9002357
S31508010A20DDE9020119F0DEFB0022002306460F4626
S31508010A3019F0F4FF804600283CD1254BD3E900453F
S31508010A40002200232046294619F0E8FFE8B1199B40
S31508010A5083F8008009B0BDE8F08F1D4BD3E9008902
S31508010A60002200234046494619F0D8FF0028D5D16F
S31508010A7042464B46DDE90601FFF746FB0022002305
S31508010A8019F0CCFF0028C9D09CE722462B463046F0
S31508010A903946FFF739FB0022002319F0BFFF4FF053
S31508010AA0010878B15FFA88F8199B83F8008009B0C4
S31508010AB0BDE8F08F199B4FF0010883F8008009B053
S31508010AC0BDE8F08F80465FFA88F8EDE70000F03F51
S31508010AD068000020800000202DE9F04F89B0064605
S31508010AE019999DF8544091F800E003949DF84870CF
S31508010AF09DF84C809DF850909DF858501B9CBEF16E
S31508010B00000F01D101200870DFF848E110461946A7
S31508010B10DEE9002319F068FB824630468B4619F058
S31508010B209FFC0022494BCDE9000119F05DFB5246B5
S31508010B305B4619F057FB00220023CDE9060119F09F
S31508010B406DFF002846D01E9B179A1878C001C3B2BC
S31508010B50537004931D9BD3E9000119F0CFFF179B2E
S31508010B600001C6B29E701A9BD3E9000119F0C6FFAF
S31508010B70049B6770304418449DF80C302371189B08
S31508010B80207084F8028084F803906571A571E57177
S31508010B901C9A1B68136052465B46DDE9000119F091
S31508010BA021FB0022002306460F4619F037FF80462F
S31508010BB000283ED1264BD3E90045002200232046D2
S31508010BC0294619F02BFFF8B1179B83F8008009B065
S31508010BD0BDE8F08F1E4B93ED007B0022002351ECFC
S31508010BE0170B8DED047B19F019FF0028D3D1DDE928
S31508010BF00423DDE90601FFF787FA0022002319F02D
S31508010C000DFF0028C7D09EE722462B4630463946B7
S31508010C10FFF77AFA0022002319F000FF4FF00108C6
S31508010C2078B15FFA88F8179B83F8008009B0BDE8A8
S31508010C30F08F179B4FF0010883F8008009B0BDE8D3
S31508010C40F08F80465FFA88F8EDE700BF0000F03FB5
S31508010C5030000020780000202DE9F04F89B00646C3
S31508010C6019999DF8544091F800E003949DF848704D
S31508010C709DF84C809DF850909DF858501B9CBEF1EC
S31508010C80000F01D101200870DFF848E11046194626
S31508010C90DEE9002319F0A8FA824630468B4619F098
S31508010CA0DFFB0022494BCDE9000119F09DFA5246B6
S31508010CB05B4619F097FA00220023CDE9060119F0DF
S31508010CC0ADFE002846D01E9B179A1878C001C3B2FC
S31508010CD0537004931D9BD3E9000119F00FFF179B6D
S31508010CE00001C6B29E701A9BD3E9000119F006FFEE
S31508010CF0049B6770304418449DF80C302371189B87
S31508010D00207084F8028084F803906571A571E571F5
S31508010D101C9A1B68136052465B46DDE9000119F00F
S31508010D2061FA0022002306460F4619F077FE80462F
S31508010D3000283ED1264BD3E9004500220023204650
S31508010D40294619F06BFEF8B1179B83F8008009B0A4
S31508010D50BDE8F08F1E4B93ED007B0022002351EC7A
S31508010D60170B8DED047B19F059FE0028D3D1DDE967
S31508010D700423DDE90601FFF7C7F90022002319F06C
S31508010D804DFE0028C7D09EE722462B4630463946F7
S31508010D90FFF7BAF90022002319F040FE4FF00108C7
S31508010DA078B15FFA88F8179B83F8008009B0BDE827
S31508010DB0F08F179B4FF0010883F8008009B0BDE852
S31508010DC0F08F80465FFA88F8EDE700BF0000F03F34
S31508010DD068000020800000202DE9F0410799069C53
S31508010DE091F800E0DDF82080054616461F46BEF15B
S31508010DF0000F01D101230B702B785B00DBB25A0976
S31508010E0007EE902AB8EEE77AF7EE007AB4EEE77ABB
S31508010E10F1EE10FAA372227307DDD8E90001002268
S31508010E20154B19F0E1F9C8E900016B782370AB7825
S31508010E306370EB78A3702B79E3706B792371AB79C7
S31508010E406371EB79A3710023E3712878C009607394
S31508010E5019F016FB3B46324619F0E0FD4FF0010347
S31508010E6000B9034623722B781B01DBB21A09637298
S31508010E70E272BDE8F08100BF0000F03F2DE9F041C4
S31508010E800799069C91F800E0DDF82080054616468C
S31508010E901F46BEF1000F01D101230B702B785B00B1
S31508010EA0DBB25A0907EE902AB8EEE77AF7EE007A2E
S31508010EB0B4EEE77AF1EE10FAA372227307DDD8E9E8
S31508010EC000010022154B19F08FF9C8E900016B786A
S31508010ED02370AB786370EB78A3702B79E3706B7929
S31508010EE02371AB796371EB79A3710023E3712878D8
S31508010EF0C009607319F0C4FA3B46324619F08EFDF3
S31508010F004FF0010300B9034623722B781B01DBB2AC
S31508010F101A096372E272BDE8F08100BF0000F03F72
S31508010F202DE9F04F83B00C460E9FDDF834809946C3
S31508010F300546324BD7E900011646002219F054F945
S31508010F400123C7E9000189F8003023682C4A0C9966
S31508010F50013313602360D8F8003007EE903AB8EEF3
S31508010F60677AF7EE007AB4EE677AF1EE10FA05D1F0
S31508010F70DFF888904FF00008C1E9008937780193B6
S31508010F80384619F06DFADFF884801E4A019B136012
S31508010F90C8E900012B602F7196F807E085F805E08E
S31508010FA096F801C085F806C096F8028085F807808C
S31508010FB096F8039085F8089096F804A085F809A094
S31508010FC096F805B0104C85F80AB0B079E87219465A
S31508010FD0A071234608220020277084F805B084F8FA
S31508010FE004A084F8039084F8028084F801C084F888
S31508010FF007E003B0BDE8F04F12F0FEBD0000F03F78
S31508011000E4C6002070C100202807002048C7002038
S3150801101008B50121002012F0F3FF0B21002012F080
S31508011020EFFF0C21002012F0EBFF0D21002012F03A
S31508011030E7FF0E21002012F0E3FF1521002012F030
S31508011040DFFF1621002012F0DBFF1721002012F026
S31508011050D7FF1821002012F0D3FF1921002012F022
S31508011060CFFF1F210020BDE8084012F0C9BF00BF0D
S315080110702DE9F04F2DED0A8B0D460968E24CE34E3A
S3150801108083B00131216029601899DDF864900968F7
S31508011090316007EE901AB8EE678AF7EE007AB4EE79
S315080110A0678AF1EE10FA1F46044692462B7A40F0FB
S315080110B01C830BB901232B72DFF8548300224346A4
S315080110C000921046012112F0C7FF002884F85C003F
S315080110D040F3658498F8013084F8213098F8023095
S315080110E084F8223098F8033084F8233098F80430CD
S315080110F084F82430D6ED007A98F8053084F825303E
S3150801110098F8063084F8263098F8072098F80030C1
S3150801111084F82720F8EE678A84F82030F2EE067AFA
S31508011120F4EE678AF1EE10FAEB7940F0C5830BB954
S315080111300123EB71DFF8DC82002243460092104658
S315080111400B2112F089FF002884F85B0040F35E84C6
S3150801115098F80130637698F80230A37698F8033048
S31508011160E37698F804302377D6ED007A98F80530B7
S31508011170637798F80630A37798F8072098F800302F
S31508011180E277B8EE679A2376F2EE087AB4EE679AB2
S31508011190F1EE10FAAB7940F038830BB90123AB7144
S315080111A0DFF8748200224346009210460C2112F0A1
S315080111B053FF002884F85A0040F3188498F8013040
S315080111C0637498F80230A37498F80330E37498F8B6
S315080111D004302375D6ED007A98F80530637598F8CA
S315080111E00630A37598F8072098F80030E275F8EEEE
S315080111F0679A2374F2EE0A7AF4EE679AF1EE10FA18
S315080112006B7940F02E830BB901236B71DFF80C82E1
S3150801121000224346009210460D2112F01DFF0028B8
S3150801122084F8590040F3DD83D6ED007A98F8073043
S3150801123098F8062098F8051098F8040098F803E03D
S3150801124098F802C098F801B098F8008084F809B0B7
S31508011250B8EE67AA84F80AC084F80BE020736173B4
S31508011260A273E37384F80880F2EE0C7AB4EE67AAE7
S31508011270F1EE10FA2B7940F09C820BB901232B7100
S31508011280DFF89C8100224346009210460E2112F097
S31508011290E3FE002884F858001BDD98F801B098F899
S315080112A002E098F8030098F800C098F8041098F836
S315080112B0052098F8063098F8078084F8078084F89E
S315080112C001B084F800C084F802E0E070217162710F
S315080112D0A371D6ED007AF8EE67AAF3EE057AF4EE75
S315080112E067AAF1EE10FA6B7A40F002830BB9012373
S315080112F06B72DFF8308100224346009210461521B1
S3150801130012F0AAFE002884F85D0040F3658398F878
S31508011310013084F8293098F8023084F82A3098F890
S31508011320033084F82B3098F8043084F82C30D6ED45
S31508011330007A98F8053084F82D3098F8063084F844
S315080113402E3098F8072098F8003084F82F20B8EE48
S3150801135067BA84F82830F3EE067AB4EE67BAF1EE86
S3150801136010FAAB7A40F063820BB90123AB72DFF84E
S31508011370B8800022434600921046162112F06CFEF0
S31508011380002884F85E0040F3228398F8013084F837
S31508011390313098F8023084F8323098F8033084F8FE
S315080113A0333098F8043084F83430D6ED007A98F85A
S315080113B0053084F8353098F8063084F8363098F8D0
S315080113C0072098F8003084F83720F8EE67BA84F8D1
S315080113D03030F3EE077AF4EE67BAF1EE10FAAB7B2A
S315080113E040F051820BB90123AB73DFF8408000222C
S315080113F0434600921046172112F02EFE002884F863
S31508011400620040F3FE8213E0A0C000208CC10020D8
S31508011410D0060020180700200807002048070020EA
S3150801142050070020D8060020E0060020E806002024
S3150801143098F8013084F8513098F8023084F852301F
S3150801144098F8033084F8533098F8043084F8543007
S31508011450D6ED007A98F8053084F8553098F80630B4
S3150801146084F8563098F8072098F8003084F8572001
S31508011470B8EE67CA84F85030F3EE087AB4EE67CA54
S31508011480F1EE10FA6B7B40F0A6810BB901236B7361
S31508011490DFF854840022434600921046182112F0C0
S315080114A0DBFD002884F8610040F3A68298F8013034
S315080114B084F8493098F8023084F84A3098F80330AD
S315080114C084F84B3098F8043084F84C30D6ED007A1D
S315080114D098F8053084F84D3098F8063084F84E307F
S315080114E098F8072098F8003084F84F20F8EE67CA74
S315080114F084F84830F3EE097AF4EE67CAF1EE10FA89
S315080115002B7B40F03C810BB901232B73DFF8DC837D
S315080115100022434600921046192112F09DFD00282B
S3150801152084F86000D6ED007A40F34E8298F80130CF
S3150801153084F8413098F8023084F8423098F803303C
S3150801154084F8433098F8043084F8443098F8053024
S3150801155084F8453098F8063084F8463098F807201C
S3150801156098F8003084F84720F8EE677A84F8403016
S31508011570B3EE0F7AF4EE477AF1EE10FAEB7A40F011
S31508011580E6800BB90123EB72D44D00222B4600925B
S3150801159010461F2112F060FD002884F85F0017DD50
S315080115A06B78AA7884F83930EB7884F83A2084F88D
S315080115B03B302A796B7984F83C20A97984F83D3047
S315080115C0EA792B7884F83E1084F83F2084F838307D
S315080115D0F7EE007AB4EE678AF1EE10FA40F0A080D1
S315080115E094F95C3094F8200094F821C094F822E02C
S315080115F094F8236094F8245094F8251094F826203A
S3150801160007EE103A94F8273099F8004007EE904A09
S31508011610F8EEE77AF7EE006AF4EE667AF1EE10FA7A
S3150801162015D1F8EEC77AF5EE407AF1EE10FA57D1F0
S315080116301A9C4FF002084FF0010B89F8008084F8D4
S3150801164000B099F8004007EE904AF8EEE77AF0EE16
S31508011650006AF4EE667AF1EE10FA37D1B8EEC77A77
S31508011660B7EE008AB4EEC87AF1EE10FA38DBFB71F0
S315080116701A9B87F801C001243870BA7187F802E00D
S31508011680FE703D7179711C70179B954A1C704FF05D
S31508011690030C89F800C0BAF800301380169A138033
S315080116A018F0DEFE189BD3ED007A8E4BF8EE677ABA
S315080116B0C3E90001F4EE487AF1EE10FA00F0698107
S315080116C099F8003007EE903AF8EEE77AF5EE407AA7
S315080116D0F1EE10FA04D11A9A012389F80030137031
S315080116E003B0BDEC0A8BBDE8F08FB3B1002380F8D7
S315080116F05C3080F8203080F8213080F8223080F87C
S31508011700233080F8243080F8253080F8263080F898
S315080117102730F0EE488A2B7200E5F0EE488AFDE4A0
S31508011720F2EE067AF4EE678AF1EE10FA40F0F880E6
S3150801173094F95B30207E94F819C094F81AE0E67E95
S31508011740257F617FA27F07EE103AE37F5CE7002BD6
S315080117503FF43EAF002384F85F3084F8383084F8CC
S31508011760393084F83A3084F83B3084F83C3084F8D0
S315080117703D3084F83E3084F83F30EB7228E7002B81
S3150801178000F0EE80002384F8603084F8403084F855
S31508011790413084F8423084F8433084F8443084F880
S315080117A0453084F8463084F84730F0EE6C7A2B736E
S315080117B0DEE6002B00F0E080002384F85830237021
S315080117C06370A370E37023716371A371E371F0EE23
S315080117D04AAA2B7181E5002B00F0C880002384F802
S315080117E0613084F8483084F8493084F84A3084F8FE
S315080117F04B3084F84C3084F84D3084F84E3084F8F8
S315080118004F30F0EE4CCA6B7374E6002B00F0BA80C9
S31508011810002384F85A3023746374A374E37423751C
S315080118206375A375E375F0EE499AAB71E2E4002B93
S3150801183000F09980002384F85E3084F8303084F80B
S31508011840313084F8323084F8333084F8343084F80F
S31508011850353084F8363084F83730F0EE4BBAAB724F
S31508011860B7E5002B00F08B80002384F859302372EA
S315080118706372A372E37223736373A373E373B0EEA4
S3150801188069AA6B71F0E4002B73D0002384F86230E7
S3150801189084F8503084F8513084F8523084F8533043
S315080118A084F8543084F8553084F8563084F8573023
S315080118B0B0EE6BCAAB73DFE5002B66D0002384F864
S315080118C05B3023766376A376E37623776377A3770C
S315080118D0E377B0EE689AEB7156E400BF4007002043
S315080118E088C10020E8C10020F80600201007002062
S315080118F09BB3002384F85D3084F8283084F82930B6
S3150801190084F82A3084F82B3084F82C3084F82D306A
S3150801191084F82E3084F82F30B0EE6ABA6B721AE565
S31508011920F2EE087AB4EE679AF1EE10FA3DD0F2EECD
S315080119300A7AF4EE679AF1EE10FA6DD194F95930F4
S31508011940207A94F809C094F80AE0E67A257B617B47
S31508011950A27B07EE103AE37B56E6B0EE6ABAFAE4E2
S31508011960F0EE6C7A04E6F0EE4BBA32E5F0EE4CCACC
S31508011970C0E5B0EE6BCA7FE5F0EE4AAAADE4B0EE7B
S3150801198069AA71E4F0EE499A34E4B0EE689AFFF771
S31508011990FBBB7D4B1B990022C1E9002390E6D6EDDE
S315080119A0007AF8EE678AFFF7B9BB94F95A30207CBA
S315080119B094F811C094F812E0E67C257D617DA27D3C
S315080119C007EE103AE37D1FE6F8EE677AD0E5D6ED25
S315080119D0007AF8EE67BAFCE4D6ED007AB8EE67BA93
S315080119E0B9E4D6ED007AB8EE67AA3DE4D6ED007AF9
S315080119F0F8EE679AFFF7FEBBD6ED007AF8EE67CAEE
S31508011A0078E5D6ED007AB8EE67CA35E5D6ED007AFF
S31508011A10B8EE679AFFF7B8BBF2EE0C7AB4EE67AA8E
S31508011A20F1EE10FA1BD0F3EE057AF4EE67AAF1EEA1
S31508011A3010FA23D194F95D3094F8280094F829C056
S31508011A4094F82AE094F82B6094F82C5094F82D1009
S31508011A5094F82E2007EE103A94F82F30D4E594F92D
S31508011A605830207894F801C094F802E0E678257990
S31508011A706179A27907EE103AE379C5E5F3EE067ABC
S31508011A80B4EE67BAF1EE10FA14D194F95E3094F80F
S31508011A90300094F831C094F832E094F8336094F841
S31508011AA0345094F8351094F8362007EE103A94F825
S31508011AB03730A9E5F3EE077AF4EE67BAF1EE10FAD4
S31508011AC014D194F9623094F8500094F851C094F8FE
S31508011AD052E094F8536094F8545094F8551094F8D9
S31508011AE0562007EE103A94F857308DE5F3EE087A4A
S31508011AF0B4EE67CAF1EE10FA14D194F9613094F88C
S31508011B00480094F849C094F84AE094F84B6094F870
S31508011B104C5094F84D1094F84E2007EE103A94F86C
S31508011B204F3071E5F3EE097AF4EE67CAF1EE10FA71
S31508011B3014D194F9603094F8400094F841C094F8AF
S31508011B4042E094F8436094F8445094F8451094F8A8
S31508011B50462007EE103A94F8473055E594F95F3078
S31508011B6094F8380094F839C094F83AE094F83B6050
S31508011B7094F83C5094F83D1094F83E2007EE103A3C
S31508011B8094F83F3040E500BF0000F03F012108B559
S31508011B90084612F035FA0B21012012F031FA0C2110
S31508011BA0012012F02DFA0D21012012F029FA0E2139
S31508011BB0012012F025FA1521012012F021FA162129
S31508011BC0012012F01DFA1721012012F019FA182125
S31508011BD0012012F015FA1921012012F011FA1F211C
S31508011BE00120BDE8084012F00BBA00BF2DE9F04FFD
S31508011BF02DED0A8B0D460968E24CE34E83B001319F
S31508011C00216029601899DDF864900968316007EE4A
S31508011C10901AB8EE678AF7EE007AB4EE678AF1EEA3
S31508011C2010FA1F46044692462B7A40F01C830BB9DC
S31508011C3001232B72DFF854830022012143460092C7
S31508011C40084612F009FA002884F85C0040F3658416
S31508011C5098F8013084F8213098F8023084F8223057
S31508011C6098F8033084F8233098F8043084F824303F
S31508011C70D6ED007A98F8053084F8253098F80630BC
S31508011C8084F8263098F8072098F8003084F8272039
S31508011C90F8EE678A84F82030F2EE067AF4EE678A5F
S31508011CA0F1EE10FAEB7940F0C5830BB90123EB711C
S31508011CB0DFF8DC820022434600920B21012012F054
S31508011CC0CBF9002884F85B0040F35E8498F801306C
S31508011CD0637698F80230A37698F80330E37698F895
S31508011CE004302377D6ED007A98F80530637798F8AB
S31508011CF00630A37798F8072098F80030E277B8EE0F
S31508011D00679A2376F2EE087AB4EE679AF1EE10FA3C
S31508011D10AB7940F038830BB90123AB71DFF87482D4
S31508011D200022434600920C21012012F095F9002861
S31508011D3084F85A0040F3188498F80130637498F8C7
S31508011D400230A37498F80330E37498F804302375C5
S31508011D50D6ED007A98F80530637598F80630A375BC
S31508011D6098F8072098F80030E275F8EE679A237418
S31508011D70F2EE0A7AF4EE679AF1EE10FA6B7940F010
S31508011D802E830BB901236B71DFF80C8200224346BF
S31508011D9000920D21012012F05FF9002884F85900FC
S31508011DA040F3DD83D6ED007A98F8073098F80620D7
S31508011DB098F8051098F8040098F803E098F802C016
S31508011DC098F801B098F8008084F809B0B8EE67AAC7
S31508011DD084F80AC084F80BE020736173A273E37375
S31508011DE084F80880F2EE0C7AB4EE67AAF1EE10FADE
S31508011DF02B7940F09C820BB901232B71DFF89C816A
S31508011E000022434600920E21012012F025F90028EE
S31508011E1084F858001BDD98F801B098F802E098F8A4
S31508011E20030098F800C098F8041098F8052098F867
S31508011E30063098F8078084F8078084F801B084F89A
S31508011E4000C084F802E0E07021716271A371D6EDD9
S31508011E50007AF8EE67AAF3EE057AF4EE67AAF1EED0
S31508011E6010FA6B7A40F002830BB901236B72DFF823
S31508011E7030810022434600921521012012F0ECF828
S31508011E80002884F85D0040F3658398F8013084F8EA
S31508011E90293098F8023084F82A3098F8033084F803
S31508011EA02B3098F8043084F82C30D6ED007A98F85F
S31508011EB0053084F82D3098F8063084F82E3098F8D5
S31508011EC0072098F8003084F82F20B8EE67BA84F80E
S31508011ED02830F3EE067AB4EE67BAF1EE10FAAB7A69
S31508011EE040F063820BB90123AB72DFF8B880002298
S31508011EF0434600921621012012F0AEF8002884F814
S31508011F005E0040F3228398F8013084F8313098F85E
S31508011F10023084F8323098F8033084F8333098F870
S31508011F20043084F83430D6ED007A98F8053084F810
S31508011F30353098F8063084F8363098F8072098F83E
S31508011F40003084F83720F8EE67BA84F83030F3EEBB
S31508011F50077AF4EE67BAF1EE10FAAB7B40F05182DC
S31508011F600BB90123AB73DFF8408000224346009288
S31508011F701721012012F070F8002884F8620040F356
S31508011F80FE8213E008C2002024C700203007002083
S31508011F90B006002060070020C0060020C806002001
S31508011FA0F0060020000700202007002098F80130DD
S31508011FB084F8513098F8023084F8523098F8033092
S31508011FC084F8533098F8043084F85430D6ED007A02
S31508011FD098F8053084F8553098F8063084F8563064
S31508011FE098F8072098F8003084F85720B8EE67CAA1
S31508011FF084F85030F3EE087AB4EE67CAF1EE10FAB7
S315080120006B7B40F0A6810BB901236B73DFF854840F
S315080120100022434600921821012012F01DF80028DB
S3150801202084F8610040F3A68298F8013084F84930B3
S3150801203098F8023084F84A3098F8033084F84B301F
S3150801204098F8043084F84C30D6ED007A98F80530C3
S3150801205084F84D3098F8063084F84E3098F8072001
S3150801206098F8003084F84F20F8EE67CA84F84830AB
S31508012070F3EE097AF4EE67CAF1EE10FA2B7B40F01B
S315080120803C810BB901232B73DFF8DC83002243461D
S3150801209000921921012011F0DFFF002884F8600061
S315080120A0D6ED007A40F34E8298F8013084F8413033
S315080120B098F8023084F8423098F8033084F84330AF
S315080120C098F8043084F8443098F8053084F8453097
S315080120D098F8063084F8463098F8072098F80030C2
S315080120E084F84720F8EE677A84F84030B3EE0F7A21
S315080120F0F4EE477AF1EE10FAEB7A40F0E6800BB986
S315080121000123EB72D44D00222B4600921F21012098
S3150801211011F0A2FF002884F85F0017DD6B78AA7812
S3150801212084F83930EB7884F83A2084F83B302A79F8
S315080121306B7984F83C20A97984F83D30EA792B78C3
S3150801214084F83E1084F83F2084F83830F7EE007A98
S31508012150B4EE678AF1EE10FA40F0A08094F95C308B
S3150801216094F8200094F821C094F822E094F82360AA
S3150801217094F8245094F8251094F8262007EE103A7E
S3150801218094F8273099F8004007EE904AF8EEE77A76
S31508012190F7EE006AF4EE667AF1EE10FA15D1F8EE6A
S315080121A0C77AF5EE407AF1EE10FA57D11A9C4FF03C
S315080121B002084FF0010B89F8008084F800B099F8FD
S315080121C0004007EE904AF8EEE77AF0EE006AF4EE80
S315080121D0667AF1EE10FA37D1B8EEC77AB7EE008A09
S315080121E0B4EEC87AF1EE10FA38DBFB711A9B87F860
S315080121F001C001243870BA7187F802E0FE703D719A
S3150801220079711C70179B954A1C704FF0030C89F85D
S3150801221000C0BAF800301380169A138018F020F916
S31508012220189BD3ED007A8E4BF8EE677AC3E9000165
S31508012230F4EE487AF1EE10FA00F0698199F8003067
S3150801224007EE903AF8EEE77AF5EE407AF1EE10FAF3
S3150801225004D11A9A012389F80030137003B0BDEC32
S315080122600A8BBDE8F08FB3B1002380F85C3080F8A3
S31508012270203080F8213080F8223080F8233080F829
S31508012280243080F8253080F8263080F82730F0EEA3
S31508012290488A2B7200E5F0EE488AFDE4F2EE067AEA
S315080122A0F4EE678AF1EE10FA40F0F88094F95B30A3
S315080122B0207E94F819C094F81AE0E67E257F617F9E
S315080122C0A27F07EE103AE37F5CE7002B3FF43EAFAF
S315080122D0002384F85F3084F8383084F8393084F87C
S315080122E03A3084F83B3084F83C3084F83D3084F841
S315080122F03E3084F83F30EB7228E7002B00F0EE8081
S31508012300002384F8603084F8403084F8413084F83A
S31508012310423084F8433084F8443084F8453084F8F0
S31508012320463084F84730F0EE6C7A2B73DEE6002BE4
S3150801233000F0E080002384F8583023706370A3709E
S31508012340E37023716371A371E371F0EE4AAA2B71ED
S3150801235081E5002B00F0C880002384F8613084F8F9
S31508012360483084F8493084F84A3084F84B3084F888
S315080123704C3084F84D3084F84E3084F84F30F0EE06
S315080123804CCA6B7374E6002B00F0BA80002384F8FC
S315080123905A3023746374A374E37423756375A37540
S315080123A0E375F0EE499AAB71E2E4002B00F09980EF
S315080123B0002384F85E3084F8303084F8313084F8AC
S315080123C0323084F8333084F8343084F8353084F880
S315080123D0363084F83730F0EE4BBAAB72B7E5002BDE
S315080123E000F08B80002384F8593023726372A3723C
S315080123F0E37223736373A373E373B0EE69AA6B7114
S31508012400F0E4002B73D0002384F8623084F850304E
S3150801241084F8513084F8523084F8533084F85430B3
S3150801242084F8553084F8563084F85730B0EE6BCAC4
S31508012430AB73DFE5002B66D0002384F85B30237687
S315080124406376A376E37623776377A377E377B0EEAC
S31508012450689AEB7156E400BFB806002052C70020FF
S3150801246028C7002038070020580700209BB30023FF
S3150801247084F85D3084F8283084F8293084F82A30C5
S3150801248084F82B3084F82C3084F82D3084F82E30DB
S3150801249084F82F30B0EE6ABA6B721AE5F2EE087A52
S315080124A0B4EE679AF1EE10FA3DD0F2EE0A7AF4EE3E
S315080124B0679AF1EE10FA6DD194F95930207A94F8A9
S315080124C009C094F80AE0E67A257B617BA27B07EED0
S315080124D0103AE37B56E6B0EE6ABAFAE4F0EE6C7AA5
S315080124E004E6F0EE4BBA32E5F0EE4CCAC0E5B0EEC2
S315080124F06BCA7FE5F0EE4AAAADE4B0EE69AA71E4CB
S31508012500F0EE499A34E4B0EE689AFFF7FBBB7D4BCF
S315080125101B990022C1E9002390E6D6ED007AF8EE70
S31508012520678AFFF7B9BB94F95A30207C94F811C031
S3150801253094F812E0E67C257D617DA27D07EE103ACE
S31508012540E37D1FE6F8EE677AD0E5D6ED007AF8EE78
S3150801255067BAFCE4D6ED007AB8EE67BAB9E4D6ED07
S31508012560007AB8EE67AA3DE4D6ED007AF8EE679AE6
S31508012570FFF7FEBBD6ED007AF8EE67CA78E5D6ED29
S31508012580007AB8EE67CA35E5D6ED007AB8EE679AED
S31508012590FFF7B8BBF2EE0C7AB4EE67AAF1EE10FAC1
S315080125A01BD0F3EE057AF4EE67AAF1EE10FA23D101
S315080125B094F95D3094F8280094F829C094F82AE033
S315080125C094F82B6094F82C5094F82D1094F82E203A
S315080125D007EE103A94F82F30D4E594F9583020785C
S315080125E094F801C094F802E0E67825796179A27930
S315080125F007EE103AE379C5E5F3EE067AB4EE67BA63
S31508012600F1EE10FA14D194F95E3094F8300094F88A
S3150801261031C094F832E094F8336094F8345094F861
S31508012620351094F8362007EE103A94F83730A9E5B4
S31508012630F3EE077AF4EE67BAF1EE10FA14D194F9CB
S31508012640623094F8500094F851C094F852E094F826
S31508012650536094F8545094F8551094F8562007EEA0
S31508012660103A94F857308DE5F3EE087AB4EE67CA56
S31508012670F1EE10FA14D194F9613094F8480094F8FF
S3150801268049C094F84AE094F84B6094F84C5094F891
S315080126904D1094F84E2007EE103A94F84F3071E534
S315080126A0F3EE097AF4EE67CAF1EE10FA14D194F949
S315080126B0603094F8400094F841C094F842E094F8E8
S315080126C0436094F8445094F8451094F8462007EE70
S315080126D0103A94F8473055E594F95F3094F8380084
S315080126E094F839C094F83AE094F83B6094F83C5071
S315080126F094F83D1094F83E2007EE103A94F83F30CE
S3150801270040E500BF0000F03F2DE9F04F83B00C46CD
S315080127100E9FDDF8348099460546324BD7E900010C
S315080127201646002217F060FD0123C7E9000189F862
S31508012730003023682C4A0C99013313602360D8F8BA
S31508012740003007EE903AB8EE677AF7EE007AB4EE03
S31508012750677AF1EE10FA05D1DFF888904FF0000894
S31508012760C1E9008937780193384617F079FEDFF811
S3150801277084801E4A019B1360C8E900012B602F71F2
S3150801278096F807E085F805E096F801C085F806C0D1
S3150801279096F8028085F8078096F8039085F80890E0
S315080127A096F804A085F809A096F805B0104C85F8A6
S315080127B00AB0B079E8721946A071234608220120A9
S315080127C0277084F805B084F804A084F8039084F887
S315080127D0028084F801C084F807E003B0BDE8F04F31
S315080127E011F00ABA0000F03F18C2002000BC002010
S315080127F028070020F8C000204B780BB901234B703D
S315080128000B7833B100230B7003701946032013F0BC
S3150801281003B901230B7003701946032013F0FCB8A2
S315080128202DE9F04F85B00E9D109C002800F03181EE
S31508012830217809B9012121701F46129B188816466D
S3150801284017F01EFE8046894602460B463046394633
S3150801285018F0E4F808B100232B7042464B4630467F
S31508012860394618F0E5F8002800F025811799AF4B8D
S315080128700022D1E9000118F0E5F8A378002800F054
S315080128802E810BB90123A370A94B3046D3E9002346
S31508012890394617F0A9FC129B80461888894617F015
S315080128A0DFFD0022A34B82468B4617F09DFC42466C
S315080128B04B4617F097FC00220023CDE9000118F0DA
S315080128C0ADF8002800F01581199B93F800A0179B15
S315080128D04FEACA1A5FFA8AFA85F805A0D3E9000110
S315080128E018F00CF900015FFA80FB119B85F806B018
S315080128F0D3E9000118F002F9139B139A504458447E
S3150801290018702B7853702B7893702B78D3702B789B
S3150801291013712B7853712B7893712B78D3710F9B85
S31508012920159A5B681360129B188817F099FD424641
S315080129304B4617F057FC002200238046894618F0BB
S315080129406DF8002840F0D2807B4BD3E900AB00221A
S3150801295000235046594618F061F8002840F0E280F5
S3150801296052465B4640464946FDF7CEFB0023002208
S3150801297018F054F84FF0010300B90346DBB2AB7007
S3150801298018996A4B0022D1E9000118F05BF8002872
S3150801299000F09C8063780BB901236370674B30465E
S315080129A0D3E90023394617F01FFC129B06461888FF
S315080129B00F4617F055FD00225E4B8046894617F0F3
S315080129C013FC32463B4617F00DFC002200238246D3
S315080129D08B4618F023F8002800F0B480199B187864
S315080129E0189BC0015FFA80F885F80380D3E90001D6
S315080129F018F084F80001C4B2119B2C71D3E90001C7
S31508012A0018F07CF8149B149A2044404418702B78CB
S31508012A1053702B7893702B78D3702B7813712B788E
S31508012A2053712B7893712B78D3710F9B169A1B6868
S31508012A301360129B188817F013FD32463B4617F0B0
S31508012A40D1FB002200238046894617F0E7FF0028BC
S31508012A5040F092803A4BD3E90067002200233046C2
S31508012A60394617F0DBFF002840F0838032463B46A3
S31508012A7040464946FDF748FB0023002217F0CEFFE2
S31508012A804FF0010300B90346DBB26B7005B0BDE830
S31508012A90F08F2378002BF9D0A3780BB1A870A0701A
S31508012AA063780BB1002363700023AB706B702370DE
S31508012AB005B0BDE8F08FA378A3B942464B46304628
S31508012AC0394617F0B5FF00287FF45AAF6378002B13
S31508012AD0DCD000236B70637005B0BDE8F08F002B66
S31508012AE03FF44EAF0023AB70A370E6E70123AB704A
S31508012AF046E7114B93ED007B0022002351EC170B9F
S31508012B008DED027B17F08AFF00284AD042464B46D4
S31508012B105046594617F066FB0022002317F07EFF40
S31508012B200028E3D10023AB702AE700BF00001C4050
S31508012B30780000200000F03F3000002080000020CF
S31508012B4068000020204B93ED007B0022002351EC06
S31508012B50170B8DED007B17F061FF80B132463B46BE
S31508012B604046494617F03EFB0022002317F056FF60
S31508012B7010B900236B7089E701236B7086E7DDE9DD
S31508012B80002350465946FDF7BFFA0022002317F0E5
S31508012B9045FF00287FF422AF129B188817F060FCC6
S31508012BA04BE7DDE90223DDE90001FDF7ADFA002275
S31508012BB0002317F033FF00287FF486AE129B18888E
S31508012BC017F04EFCB3E600BF680000200B791BB175
S31508012BD00023C37103720B714B7843B1CB7813B1E0
S31508012BE000238370CB708B7843B900234B70002385
S31508012BF08370C371437003720B70704700238B7027
S31508012C00F3E700BF2DE9F04F9BB016462F9A1392B2
S31508012C10309A1492319A1592329A16921F46339A1D
S31508012C20299B10930B922B9B349A0A930C922C9BFB
S31508012C30359A11930D922D9B369A129326AC249DA3
S31508012C40DDF89480DDF8A8B02E9B0E9294E8100664
S31508012C50379A0F92389A1792002840D022780AB9E3
S31508012C6001222270CDE91867D3E900670022304BAB
S31508012C703046394617F0D2FE4FF0010E002833D000
S31508012C803046394600222A4B5FFA8EF617F0C6FE01
S31508012C90002832D023791BB10023EB712B722371E3
S31508012CA00F9B2F930E9B2E930D9B2D930C9B2C9371
S31508012CB00B9B2B930A9B2A93DDE918230134304693
S31508012CC02694CDF8A4B0CDF8A0A0CDF89C90CDF867
S31508012CD0948024951BB0BDE8F04FFFF7A1BD23787A
S31508012CE023B91BB0BDE8F08F8646C9E721462846B9
S31508012CF01BB0BDE8F04FFFF769BF179A0992169AFC
S31508012D000892159A0792149A0692139A0592129A9C
S31508012D100492119A0392231D109A02928DE80804CF
S31508012D20EA1D08F10803DDE91801FDF787F9B7E798
S31508012D300000F03F2DE9F04F85B00E9D109C00284C
S31508012D4000F03481217809B9012121701F46129BAF
S31508012D501888164617F094FB8046894602460B46A4
S31508012D603046394617F05AFE20B100232B70159BC1
S31508012D701B786B7042464B463046394617F058FE6B
S31508012D80002800F025811899AE4B0022D1E90001EF
S31508012D9017F058FEA378002800F02E810BB90123FD
S31508012DA0A370A94B3046D3E90023394617F01CFA1C
S31508012DB0129B80461888894617F052FB0022A34BBE
S31508012DC082468B4617F010FA42464B4617F00AFA26
S31508012DD000220023CDE9000117F020FE002800F0AB
S31508012DE015811A9B93F800A0189B4FEACA1A5FFA35
S31508012DF08AFA85F806A0D3E9000117F07FFE0001DB
S31508012E005FFA80FB119B85F807B0D3E9000117F03B
S31508012E1075FE139B139A5044584418706B78537077
S31508012E202B7893702B78D3702B7813712B78537179
S31508012E302B7893712B78D3710F9B169A5B68136065
S31508012E40129B188817F00CFB42464B4617F0CAF935
S31508012E50002200238046894617F0E0FD002840F04D
S31508012E60D2807B4BD3E900AB00220023504659465A
S31508012E7017F0D4FD002840F0E28052465B464046F2
S31508012E804946FDF741F90023002217F0C7FD4FF027
S31508012E90010300B90346DBB2EB701999694B0022AD
S31508012EA0D1E9000117F0CEFD002800F09C80637877
S31508012EB00BB901236370674B3046D3E900233946C2
S31508012EC017F092F9129B064618880F4617F0C8FAAA
S31508012ED000225E4B8046894617F086F932463B4604
S31508012EE017F080F90022002382468B4617F096FDDB
S31508012EF0002800F0B3801A9B1878199BC0015FFA65
S31508012F0080F885F80480D3E9000117F0F7FD000180
S31508012F10C4B2119B6C71D3E9000117F0EFFD149B44
S31508012F20149A2044404418706B7853702B78937028
S31508012F302B78D3702B7813712B7853712B78937167
S31508012F402B78D3710F9B179A1B681360129B1888ED
S31508012F5017F086FA32463B4617F044F90022002359
S31508012F608046894617F05AFD002840F091803A4B71
S31508012F70D3E90067002200233046394617F04EFD93
S31508012F80002840F0828032463B4640464946FDF7D6
S31508012F90BBF80023002217F041FD4FF0010300B9E9
S31508012FA00346DBB2AB7005B0BDE8F08F2378002B82
S31508012FB0F9D0A3780BB1E870A07063780BB1002340
S31508012FC063700023EB70AB70237005B0BDE8F08F1A
S31508012FD0A378A3B942464B463046394617F028FD31
S31508012FE000287FF45AAF6378002BDCD00023AB703E
S31508012FF0637005B0BDE8F08F002B3FF44EAF002398
S31508013000EB70A370E6E70123EB7046E7104B93EDEF
S31508013010007B0022002351EC170B8DED027B17F084
S31508013020FDFC002849D042464B465046594617F002
S31508013030D9F80022002317F0F1FC0028E3D1002378
S31508013040EB702AE700001C40780000200000F03FE2
S31508013050300000208000002068000020204B93EDFE
S31508013060007B0022002351EC170B8DED007B17F036
S31508013070D5FC80B132463B464046494617F0B2F880
S315080130800022002317F0CAFC10B90023AB708AE7A7
S315080130900123AB7087E7DDE9002350465946FDF762
S315080130A033F80022002317F0B9FC00287FF423AF78
S315080130B0129B188817F0D4F94CE7DDE90223DDE9FC
S315080130C00001FDF721F80022002317F0A7FC0028CC
S315080130D07FF487AE129B188817F0C2F9B4E600BFD1
S315080130E068000020F0B585B00EAC70CC002830D051
S315080130F0287808B9012028701846174600295FD193
S31508013100AB78002B4DD1002F4FD16B78002B45D1D1
S31508013110A37D002B2DD0637D3370A37B7370E37B76
S31508013120B370237CF370637C3371A37C7371E37C86
S31508013130B371237DF371A37D002B2DD1237A00333F
S3150801314018BF012313990B70119B01221A7005B040
S31508013150F0BD2B78002BFAD0AB780BB1A075A8700F
S315080131606B7813B1002323726B7000232B7005B0A3
S31508013170F0BDE3793370237873706378B370A378FD
S31508013180F370E3783371237973716379B371A37932
S31508013190F371A37D002BD1D00123D3E727726F707A
S315080131A0B6E7A175A970002FAFD0129B029301351E
S315080131B001950094DDE90C230A98FDF74BF9A7E779
S315080131C004F10E02129B0293A91C00920191DDE9FA
S315080131D00C23FDF7EDF896E72DE9F04FA9B03399E1
S315080131E0119135991D9138991491399921913A99E5
S315080131F023913B9922913C9924913D9915913E99A8
S315080132001C913F991E91409916914199189143999C
S31508013210329C349DDDF8D8A0DDF8DCB0DDF80891E4
S315080132201A9100284DD0297809B901212970CDE9CB
S315080132301223149BB3F80080404617F021F9DDE903
S31508013240122306460F4617F011FC00284BD100231E
S31508013250209300231F9330463946DDE9122317F0E0
S31508013260DDFB002858D1E3782593237826936378E4
S315080132702793209B94F804B06779A079A278002B4C
S3150801328040F0C181AB7883B1209AA273AA70149BCE
S3150801329094F804B0B3F80080E3782593237826934D
S315080132A067796378A079A27827931F9B002B40F052
S315080132B01A826B7813B11F9AE2726A7029B0BDE857
S315080132C0F08F2B78002BF9D0AB780BB1A073A870CF
S315080132D06B780BB100236B700023A373E3722B7019
S315080132E029B0BDE8F08F15990A4B0022D1E90001F2
S315080132F017F0A8FB011C18BF012120911C99054B49
S315080133000022D1E9000117F09DFB0028A1D0012375
S315080133101F93A0E700001C409BF8003023702693FA
S3150801332000269AF800306370A670D9E900892793B8
S315080133300022C74B4046494617F098FB002800F083
S315080133408B81DFF80CB3B046002700264FF0000A40
S31508013350119B84F80A80D3E904235046594617F08D
S31508013360F5F8119B8246D3E9022330468B46394646
S3150801337017F016FA0022002306460F4617F058FBE7
S31508013380002840F0E9813046394616F00DFD06461B
S315080133900F465946504617F0B1FB39468044304628
S315080133A017F0ACFB4044C3B2E37025931A9BD3E9EB
S315080133B000670022A64B3046394617F057FB00280E
S315080133C040F07F810022A34B3046394617F044FB73
S315080133D0002800F0E281002200233046394617F022
S315080133E027FB4FF0010A002800F0E68127F0004983
S315080133F03046494616F0D8FCB04602460B46064604
S315080134000F464046494616F0EDFECDE91A014FEA48
S31508013410CA1A5FFA8AFA3046119E84F809A0D6E9D3
S315080134200A23394617F092F8D6E9082380468946D1
S31508013430DDE91A0117F0B4F90022002306460F4602
S3150801344017F0F6FA002840F072813046394616F030
S31508013450ABFC06460F464946404617F04FFB394630
S315080134608244304617F04AFB50445FFA80FB189BAA
S3150801347084F804B0D3E900670022754B3046394613
S3150801348017F0F4FA002840F025810022714B3046E6
S31508013490394617F0E1FA002800F065810022002379
S315080134A03046394617F0C4FA4FF0010A002800F0F1
S315080134B07F8127F000493046494616F075FCB0462B
S315080134C002460B4606460F464046494616F08AFE10
S315080134D0CDE918014FEACA1A5FFA8AFA3046119EEF
S315080134E084F808A0D6E91023394617F02FF8D6E94B
S315080134F00E2380468946DDE9180117F051F90022A5
S31508013500002306460F4617F093FA002840F01D815E
S315080135103046394616F048FC06460F4649464046A7
S3150801352017F0ECFA39468244304617F0E7FA504468
S31508013530C7B2169B6771D3E900890022444B4046FE
S31508013540494617F093FA002840F0B1800022414B12
S315080135504046494617F080FA002800F00D810022FE
S3150801356000234046494617F063FA4FF00106002842
S3150801357000F01C8129F00043CDF858801793DDE946
S31508013580160116F011FC02460B4680468946DDE90E
S31508013590160116F027FECDE91801F601F6B2119BC0
S315080135A0E671D3E916234046494616F0CFFF119B2B
S315080135B0CDE91601D3E91423DDE9180117F0F0F86E
S315080135C0002200238046894617F032FA002840F087
S315080135D0B5804046494616F0E7FB80468946DDE94F
S315080135E0160117F08BFA49460644404617F086FA43
S315080135F03044149BC0B2A071B3F80080209B00220E
S31508013600002B3FF43FAE1E9B0E93159B0D93119B0A
S31508013610069203F16401229B0C93219B0B931D9B3C
S315080136200A93279B0593269B0493259B0390AE1C1F
S3150801363004F10E0E01930297CDF800B04046DDE97C
S31508013640122309960891CDF81CE0FDF7B9F81EE694
S3150801365000001440000014C000225B4B4046494656
S3150801366017F0FAF900260027002800F08F8029F0C4
S3150801367000474046394616F097FB02460B468246F6
S315080136808B464046394616F0ADFD002206460F46E2
S3150801369040460023494617F0CBF94FF001080028A8
S315080136A000F088804FEAC8185FFA88F850E69FED5F
S315080136B0447B4FF000088DED187BDFF8109100264A
S315080136C06DE79FED3F7B00268DED1A7B3F4F4FF04F
S315080136D0000AA0E69FED3A7B00268DED187B3B4F4D
S315080136E04FF0000AFAE6119B389260333A931E9B13
S315080136F040931C9B3F93249B3E93239B3D931D9B89
S315080137003C93279B3793269B3693259B3393DDE979
S31508013710122301350B34359040463B95399434973D
S31508013720CDF8C8B029B0BDE8F04FFDF70FB930465E
S31508013730394616F0B1FA06460F468CE64046494622
S3150801374016F0AAFA8046894649E73046394616F000
S31508013750A3FA06460F46E1E63046394616F09CFAC4
S3150801376006460F4615E69FED167B00268DED187B5E
S31508013770164F4FF0800AB1E69FED117B4FF0000816
S315080137808DED187BDFF84490802608E74FF0000A94
S31508013790DFF838B04FF08008DAE59FED097B00269F
S315080137A08DED1A7B094F4FF0800A34E60646E1E6AD
S315080137B082467EE6804675E7824617E6AFF30080C5
S315080137C00000000000000000000014C000001440C2
S315080137D0F0B585B00EAC70CC002830D0287808B981
S315080137E0012028701846174600295FD1AB78002BAF
S315080137F04DD1002F4FD16B78002B45D1A37D002BDE
S315080138002DD0637D3370A37B7370E37BB370237C08
S31508013810F370637C3371A37C7371E37CB371237D8D
S31508013820F371A37D002B2DD1237A003318BF012311
S3150801383013990B70119B01221A7005B0F0BD2B78F4
S31508013840002BFAD0AB780BB1A075A8706B7813B1C1
S31508013850002323726B7000232B7005B0F0BDE3794A
S315080138603370237873706378B370A378F370E37851
S315080138703371237973716379B371A379F371A37D75
S31508013880002BD1D00123D3E727726F70B6E7A17554
S31508013890A970002FAFD0129B0293013501950094B0
S315080138A0DDE90C230A98FCF7D5FDA7E704F10E021A
S315080138B0129B0293A91C00920191DDE90C23FCF7E6
S315080138C077FD96E7F0B585B00EAC70CC002830D000
S315080138D0287808B9012028701846174600295FD1AB
